{
  "address": "0x450810CA62c86d3caa11ff228C9468cE128D003F",
  "abi": [
    {
      "anonymous": false,
      "inputs": [
        {
          "indexed": false,
          "internalType": "address",
          "name": "_activePoolAddress",
          "type": "address"
        }
      ],
      "name": "ActivePoolAddressChanged",
      "type": "event"
    },
    {
      "anonymous": false,
      "inputs": [
        {
          "indexed": true,
          "internalType": "address",
          "name": "_borrower",
          "type": "address"
        },
        {
          "indexed": false,
          "internalType": "uint256",
          "name": "_BaseFeeLMAFee",
          "type": "uint256"
        }
      ],
      "name": "BaseFeeLMABorrowingFeePaid",
      "type": "event"
    },
    {
      "anonymous": false,
      "inputs": [
        {
          "indexed": false,
          "internalType": "address",
          "name": "_BaseFeeLMATokenAddress",
          "type": "address"
        }
      ],
      "name": "BaseFeeLMATokenAddressChanged",
      "type": "event"
    },
    {
      "anonymous": false,
      "inputs": [
        {
          "indexed": false,
          "internalType": "address",
          "name": "_collSurplusPoolAddress",
          "type": "address"
        }
      ],
      "name": "CollSurplusPoolAddressChanged",
      "type": "event"
    },
    {
      "anonymous": false,
      "inputs": [
        {
          "indexed": false,
          "internalType": "address",
          "name": "_defaultPoolAddress",
          "type": "address"
        }
      ],
      "name": "DefaultPoolAddressChanged",
      "type": "event"
    },
    {
      "anonymous": false,
      "inputs": [
        {
          "indexed": false,
          "internalType": "contract IFeesRouter",
          "name": "_feesRouter",
          "type": "address"
        }
      ],
      "name": "FeesRouterAddressUpdated",
      "type": "event"
    },
    {
      "anonymous": false,
      "inputs": [
        {
          "indexed": false,
          "internalType": "address",
          "name": "_gasPoolAddress",
          "type": "address"
        }
      ],
      "name": "GasPoolAddressChanged",
      "type": "event"
    },
    {
      "anonymous": false,
      "inputs": [
        {
          "indexed": false,
          "internalType": "address",
          "name": "_hogStakingAddress",
          "type": "address"
        }
      ],
      "name": "HOGStakingAddressChanged",
      "type": "event"
    },
    {
      "anonymous": false,
      "inputs": [
        {
          "indexed": true,
          "internalType": "address",
          "name": "previousOwner",
          "type": "address"
        },
        {
          "indexed": true,
          "internalType": "address",
          "name": "newOwner",
          "type": "address"
        }
      ],
      "name": "OwnershipTransferred",
      "type": "event"
    },
    {
      "anonymous": false,
      "inputs": [
        {
          "indexed": false,
          "internalType": "address",
          "name": "_newPriceFeedAddress",
          "type": "address"
        }
      ],
      "name": "PriceFeedAddressChanged",
      "type": "event"
    },
    {
      "anonymous": false,
      "inputs": [
        {
          "indexed": false,
          "internalType": "address",
          "name": "_sortedTrovesAddress",
          "type": "address"
        }
      ],
      "name": "SortedTrovesAddressChanged",
      "type": "event"
    },
    {
      "anonymous": false,
      "inputs": [
        {
          "indexed": false,
          "internalType": "contract IERC20",
          "name": "_StEthAddress",
          "type": "address"
        }
      ],
      "name": "StETHTokenAddressUpdated",
      "type": "event"
    },
    {
      "anonymous": false,
      "inputs": [
        {
          "indexed": false,
          "internalType": "address",
          "name": "_stabilityPoolAddress",
          "type": "address"
        }
      ],
      "name": "StabilityPoolAddressChanged",
      "type": "event"
    },
    {
      "anonymous": false,
      "inputs": [
        {
          "indexed": true,
          "internalType": "address",
          "name": "_borrower",
          "type": "address"
        },
        {
          "indexed": false,
          "internalType": "uint256",
          "name": "arrayIndex",
          "type": "uint256"
        }
      ],
      "name": "TroveCreated",
      "type": "event"
    },
    {
      "anonymous": false,
      "inputs": [
        {
          "indexed": false,
          "internalType": "address",
          "name": "_newTroveManagerAddress",
          "type": "address"
        }
      ],
      "name": "TroveManagerAddressChanged",
      "type": "event"
    },
    {
      "anonymous": false,
      "inputs": [
        {
          "indexed": true,
          "internalType": "address",
          "name": "_borrower",
          "type": "address"
        },
        {
          "indexed": false,
          "internalType": "uint256",
          "name": "_debt",
          "type": "uint256"
        },
        {
          "indexed": false,
          "internalType": "uint256",
          "name": "_coll",
          "type": "uint256"
        },
        {
          "indexed": false,
          "internalType": "uint256",
          "name": "stake",
          "type": "uint256"
        },
        {
          "indexed": false,
          "internalType": "enum BorrowerOperations.BorrowerOperation",
          "name": "operation",
          "type": "uint8"
        }
      ],
      "name": "TroveUpdated",
      "type": "event"
    },
    {
      "inputs": [],
      "name": "BORROWING_FEE_FLOOR",
      "outputs": [
        {
          "internalType": "uint256",
          "name": "",
          "type": "uint256"
        }
      ],
      "stateMutability": "view",
      "type": "function"
    },
    {
      "inputs": [],
      "name": "BaseFeeLMA_GAS_COMPENSATION",
      "outputs": [
        {
          "internalType": "uint256",
          "name": "",
          "type": "uint256"
        }
      ],
      "stateMutability": "view",
      "type": "function"
    },
    {
      "inputs": [],
      "name": "CCR",
      "outputs": [
        {
          "internalType": "uint256",
          "name": "",
          "type": "uint256"
        }
      ],
      "stateMutability": "view",
      "type": "function"
    },
    {
      "inputs": [],
      "name": "DECIMAL_PRECISION",
      "outputs": [
        {
          "internalType": "uint256",
          "name": "",
          "type": "uint256"
        }
      ],
      "stateMutability": "view",
      "type": "function"
    },
    {
      "inputs": [],
      "name": "MCR",
      "outputs": [
        {
          "internalType": "uint256",
          "name": "",
          "type": "uint256"
        }
      ],
      "stateMutability": "view",
      "type": "function"
    },
    {
      "inputs": [],
      "name": "MIN_NET_DEBT",
      "outputs": [
        {
          "internalType": "uint256",
          "name": "",
          "type": "uint256"
        }
      ],
      "stateMutability": "view",
      "type": "function"
    },
    {
      "inputs": [],
      "name": "NAME",
      "outputs": [
        {
          "internalType": "string",
          "name": "",
          "type": "string"
        }
      ],
      "stateMutability": "view",
      "type": "function"
    },
    {
      "inputs": [],
      "name": "PERCENT_DIVISOR",
      "outputs": [
        {
          "internalType": "uint256",
          "name": "",
          "type": "uint256"
        }
      ],
      "stateMutability": "view",
      "type": "function"
    },
    {
      "inputs": [],
      "name": "_100pct",
      "outputs": [
        {
          "internalType": "uint256",
          "name": "",
          "type": "uint256"
        }
      ],
      "stateMutability": "view",
      "type": "function"
    },
    {
      "inputs": [],
      "name": "activePool",
      "outputs": [
        {
          "internalType": "contract IActivePool",
          "name": "",
          "type": "address"
        }
      ],
      "stateMutability": "view",
      "type": "function"
    },
    {
      "inputs": [
        {
          "internalType": "address",
          "name": "_upperHint",
          "type": "address"
        },
        {
          "internalType": "address",
          "name": "_lowerHint",
          "type": "address"
        },
        {
          "internalType": "uint256",
          "name": "_amount",
          "type": "uint256"
        }
      ],
      "name": "addColl",
      "outputs": [],
      "stateMutability": "nonpayable",
      "type": "function"
    },
    {
      "inputs": [
        {
          "internalType": "uint256",
          "name": "_maxFeePercentage",
          "type": "uint256"
        },
        {
          "internalType": "uint256",
          "name": "_collWithdrawal",
          "type": "uint256"
        },
        {
          "internalType": "uint256",
          "name": "_collIncrease",
          "type": "uint256"
        },
        {
          "internalType": "uint256",
          "name": "_BaseFeeLMAChange",
          "type": "uint256"
        },
        {
          "internalType": "bool",
          "name": "_isDebtIncrease",
          "type": "bool"
        },
        {
          "internalType": "address",
          "name": "_upperHint",
          "type": "address"
        },
        {
          "internalType": "address",
          "name": "_lowerHint",
          "type": "address"
        }
      ],
      "name": "adjustTrove",
      "outputs": [],
      "stateMutability": "nonpayable",
      "type": "function"
    },
    {
      "inputs": [],
      "name": "claimCollateral",
      "outputs": [],
      "stateMutability": "nonpayable",
      "type": "function"
    },
    {
      "inputs": [],
      "name": "closeTrove",
      "outputs": [],
      "stateMutability": "nonpayable",
      "type": "function"
    },
    {
      "inputs": [
        {
          "internalType": "uint256",
          "name": "_coll",
          "type": "uint256"
        },
        {
          "internalType": "uint256",
          "name": "_debt",
          "type": "uint256"
        }
      ],
      "name": "computeUnreliableCR",
      "outputs": [
        {
          "internalType": "uint256",
          "name": "",
          "type": "uint256"
        }
      ],
      "stateMutability": "view",
      "type": "function"
    },
    {
      "inputs": [],
      "name": "defaultPool",
      "outputs": [
        {
          "internalType": "contract IDefaultPool",
          "name": "",
          "type": "address"
        }
      ],
      "stateMutability": "view",
      "type": "function"
    },
    {
      "inputs": [],
      "name": "feesRouter",
      "outputs": [
        {
          "internalType": "contract IFeesRouter",
          "name": "",
          "type": "address"
        }
      ],
      "stateMutability": "view",
      "type": "function"
    },
    {
      "inputs": [
        {
          "internalType": "uint256",
          "name": "_debt",
          "type": "uint256"
        }
      ],
      "name": "getCompositeDebt",
      "outputs": [
        {
          "internalType": "uint256",
          "name": "",
          "type": "uint256"
        }
      ],
      "stateMutability": "pure",
      "type": "function"
    },
    {
      "inputs": [],
      "name": "getEntireSystemColl",
      "outputs": [
        {
          "internalType": "uint256",
          "name": "entireSystemColl",
          "type": "uint256"
        }
      ],
      "stateMutability": "view",
      "type": "function"
    },
    {
      "inputs": [],
      "name": "getEntireSystemDebt",
      "outputs": [
        {
          "internalType": "uint256",
          "name": "entireSystemDebt",
          "type": "uint256"
        }
      ],
      "stateMutability": "view",
      "type": "function"
    },
    {
      "inputs": [],
      "name": "hogStaking",
      "outputs": [
        {
          "internalType": "contract IHOGStaking",
          "name": "",
          "type": "address"
        }
      ],
      "stateMutability": "view",
      "type": "function"
    },
    {
      "inputs": [],
      "name": "hogStakingAddress",
      "outputs": [
        {
          "internalType": "address",
          "name": "",
          "type": "address"
        }
      ],
      "stateMutability": "view",
      "type": "function"
    },
    {
      "inputs": [
        {
          "internalType": "address",
          "name": "_borrower",
          "type": "address"
        },
        {
          "internalType": "address",
          "name": "_upperHint",
          "type": "address"
        },
        {
          "internalType": "address",
          "name": "_lowerHint",
          "type": "address"
        },
        {
          "internalType": "uint256",
          "name": "_amount",
          "type": "uint256"
        }
      ],
      "name": "moveStETHGainToTrove",
      "outputs": [],
      "stateMutability": "nonpayable",
      "type": "function"
    },
    {
      "inputs": [
        {
          "internalType": "uint256",
          "name": "_maxFeePercentage",
          "type": "uint256"
        },
        {
          "internalType": "uint256",
          "name": "_BaseFeeLMAAmount",
          "type": "uint256"
        },
        {
          "internalType": "uint256",
          "name": "_collAmount",
          "type": "uint256"
        },
        {
          "internalType": "address",
          "name": "_upperHint",
          "type": "address"
        },
        {
          "internalType": "address",
          "name": "_lowerHint",
          "type": "address"
        }
      ],
      "name": "openTrove",
      "outputs": [],
      "stateMutability": "nonpayable",
      "type": "function"
    },
    {
      "inputs": [],
      "name": "owner",
      "outputs": [
        {
          "internalType": "address",
          "name": "",
          "type": "address"
        }
      ],
      "stateMutability": "view",
      "type": "function"
    },
    {
      "inputs": [],
      "name": "priceFeed",
      "outputs": [
        {
          "internalType": "contract IPriceFeed",
          "name": "",
          "type": "address"
        }
      ],
      "stateMutability": "view",
      "type": "function"
    },
    {
      "inputs": [],
      "name": "renounceOwnership",
      "outputs": [],
      "stateMutability": "nonpayable",
      "type": "function"
    },
    {
      "inputs": [
        {
          "internalType": "uint256",
          "name": "_BaseFeeLMAAmount",
          "type": "uint256"
        },
        {
          "internalType": "address",
          "name": "_upperHint",
          "type": "address"
        },
        {
          "internalType": "address",
          "name": "_lowerHint",
          "type": "address"
        }
      ],
      "name": "repayBaseFeeLMA",
      "outputs": [],
      "stateMutability": "nonpayable",
      "type": "function"
    },
    {
      "inputs": [
        {
          "internalType": "address",
          "name": "_troveManagerAddress",
          "type": "address"
        },
        {
          "internalType": "address",
          "name": "_activePoolAddress",
          "type": "address"
        },
        {
          "internalType": "address",
          "name": "_defaultPoolAddress",
          "type": "address"
        },
        {
          "internalType": "address",
          "name": "_stabilityPoolAddress",
          "type": "address"
        },
        {
          "internalType": "address",
          "name": "_gasPoolAddress",
          "type": "address"
        },
        {
          "internalType": "address",
          "name": "_collSurplusPoolAddress",
          "type": "address"
        },
        {
          "internalType": "address",
          "name": "_priceFeedAddress",
          "type": "address"
        },
        {
          "internalType": "address",
          "name": "_sortedTrovesAddress",
          "type": "address"
        },
        {
          "internalType": "address",
          "name": "_baseFeeLMATokenAddress",
          "type": "address"
        },
        {
          "internalType": "address",
          "name": "_hogStakingAddress",
          "type": "address"
        },
        {
          "internalType": "contract IERC20",
          "name": "_stETHTokenAddress",
          "type": "address"
        },
        {
          "internalType": "contract IFeesRouter",
          "name": "_feesRouter",
          "type": "address"
        }
      ],
      "name": "setAddresses",
      "outputs": [],
      "stateMutability": "nonpayable",
      "type": "function"
    },
    {
      "inputs": [],
      "name": "sortedTroves",
      "outputs": [
        {
          "internalType": "contract ISortedTroves",
          "name": "",
          "type": "address"
        }
      ],
      "stateMutability": "view",
      "type": "function"
    },
    {
      "inputs": [
        {
          "internalType": "address",
          "name": "newOwner",
          "type": "address"
        }
      ],
      "name": "transferOwnership",
      "outputs": [],
      "stateMutability": "nonpayable",
      "type": "function"
    },
    {
      "inputs": [],
      "name": "troveManager",
      "outputs": [
        {
          "internalType": "contract ITroveManager",
          "name": "",
          "type": "address"
        }
      ],
      "stateMutability": "view",
      "type": "function"
    },
    {
      "inputs": [
        {
          "internalType": "uint256",
          "name": "_maxFeePercentage",
          "type": "uint256"
        },
        {
          "internalType": "uint256",
          "name": "_BaseFeeLMAAmount",
          "type": "uint256"
        },
        {
          "internalType": "address",
          "name": "_upperHint",
          "type": "address"
        },
        {
          "internalType": "address",
          "name": "_lowerHint",
          "type": "address"
        }
      ],
      "name": "withdrawBaseFeeLMA",
      "outputs": [],
      "stateMutability": "nonpayable",
      "type": "function"
    },
    {
      "inputs": [
        {
          "internalType": "uint256",
          "name": "_collWithdrawal",
          "type": "uint256"
        },
        {
          "internalType": "address",
          "name": "_upperHint",
          "type": "address"
        },
        {
          "internalType": "address",
          "name": "_lowerHint",
          "type": "address"
        }
      ],
      "name": "withdrawColl",
      "outputs": [],
      "stateMutability": "nonpayable",
      "type": "function"
    }
  ],
  "transactionHash": "0x5e0441f1d637ded7a83cb5fe5c23f55efe35229fd971dad8d8160c02f8b8d3f4",
  "args": [],
  "numDeployments": 1,
  "solcInputHash": "38381ae1cf0ba5ed5e8152cd6d46b5bc",
  "bytecode": "0x60806040523480156200001157600080fd5b506200001d3362000023565b62000075565b600380546001600160a01b038381166001600160a01b0319831681179093556040519116919082907f8be0079c531659141344cd1fd0a4f28419497f9722a3daafe3b4186f6b6457e090600090a35050565b61373680620000856000396000f3fe608060405234801561001057600080fd5b50600436106101c65760003560e01c8063794e5724116100fa578063a20baee61161009d578063a20baee6146102ad578063a3f4df7e14610354578063ae91875414610392578063aead9dcc146103a5578063b8a106da146103b8578063c42dab99146103cb578063f2fde38b146103de578063f633e743146103f1578063f92d34331461040457600080fd5b8063794e5724146102e2578063795d26c3146102f15780637e88d408146102f95780637f7dde4a1461030c578063887105d31461031f5780638da5cb5b146103275780638f09162b14610338578063a20141521461034b57600080fd5b80635530273c1161016d5780635530273c146102645780635733d58f146101fb5780635da8b1c314610277578063681212311461028a5780636f0b0c1c1461029d578063715018a6146102a557806372fe25aa146102ad578063734f622d146102bc578063741bef1a146102cf57600080fd5b80630e704d50146101cb57806317138bdb146101d55780631bf43555146101fb5780633cc74225146102035780633d83908a1461022357806347a6e713146102365780634870dd9a146102495780634ff8144314610251575b600080fd5b6101d361040c565b005b6101e86101e3366004613150565b610797565b6040519081526020015b60405180910390f35b6101e8600181565b600154610216906001600160a01b031681565b6040516101f29190613172565b600454610216906001600160a01b031681565b6101d36102443660046131ab565b610828565b6101e860c881565b6101e861025f3660046131ed565b610840565b6101d36102723660046131ab565b610848565b6101d3610285366004613214565b61085b565b6101d3610298366004613286565b610874565b6101d36108be565b6101d361091c565b6101e8670de0b6b3a764000081565b6101d36102ca3660046132d7565b610930565b600254610216906001600160a01b031681565b6101e86714d1120d7b16000081565b6101e8610d07565b6101d36103073660046133bf565b610e03565b600054610216906001600160a01b031681565b6101e8610e36565b6003546001600160a01b0316610216565b6101d3610346366004613400565b610efb565b6101e861c35081565b61038560405180604001604052806012815260200171426f72726f7765724f7065726174696f6e7360701b81525081565b6040516101f2919061347a565b600d54610216906001600160a01b031681565b600954610216906001600160a01b031681565b6101d36103c63660046134ad565b6114d6565b600b54610216906001600160a01b031681565b6101d36103ec3660046134f7565b6114e8565b600a54610216906001600160a01b031681565b6101e8611561565b600454600054600c546001600160a01b039283169291821691166104308333611583565b60025460408051630fdb11cf60e01b815290516000926001600160a01b031691630fdb11cf916004808301926020929190829003018187875af115801561047b573d6000803e3d6000fd5b505050506040513d601f19601f8201168201806040525081019061049f9190613514565b90506104aa8161165c565b604051630b07655760e01b81526001600160a01b03851690630b076557906104d6903390600401613172565b600060405180830381600087803b1580156104f057600080fd5b505af1158015610504573d6000803e3d6000fd5b50506040516309019aaf60e31b8152600092506001600160a01b038716915063480cd57890610537903390600401613172565b602060405180830381865afa158015610554573d6000803e3d6000fd5b505050506040513d601f19601f820116820180604052508101906105789190613514565b90506000856001600160a01b031663d66a2553336040518263ffffffff1660e01b81526004016105a89190613172565b602060405180830381865afa1580156105c5573d6000803e3d6000fd5b505050506040513d601f19601f820116820180604052508101906105e99190613514565b90506105f68433836116d4565b6000610607836000846000886117c3565b905061061281611838565b604051631fc5750960e31b81526001600160a01b0388169063fe2ba8489061063e903390600401613172565b600060405180830381600087803b15801561065857600080fd5b505af115801561066c573d6000803e3d6000fd5b50506040516365e89c5760e11b81526001600160a01b038a16925063cbd138ae915061069c903390600401613172565b600060405180830381600087803b1580156106b657600080fd5b505af11580156106ca573d6000803e3d6000fd5b50505050336001600160a01b03166000805160206136e1833981519152600080600060016040516106fe949392919061354f565b60405180910390a2610712868633856118c1565b60065461072e90879087906001600160a01b031661c3506118c1565b60405163a51ba3b760e01b81526001600160a01b0387169063a51ba3b79061075c9033908790600401613571565b600060405180830381600087803b15801561077657600080fd5b505af115801561078a573d6000803e3d6000fd5b5050505050505050505050565b600080600260009054906101000a90046001600160a01b03166001600160a01b0316630490be836040518163ffffffff1660e01b8152600401602060405180830381865afa1580156107ed573d6000803e3d6000fd5b505050506040513d601f19601f820116820180604052508101906108119190613514565b905061081e848483611981565b9150505b92915050565b61083b33600080866000878760006119be565b505050565b600081610822565b61083b33846000806000878760006119be565b61086b338787878787878e6119be565b50505050505050565b6000811161089d5760405162461bcd60e51b81526004016108949061358a565b60405180910390fd5b6108a5611f6a565b6108b884600083600080888860006119be565b50505050565b60085460405163b32beb5b60e01b81526001600160a01b039091169063b32beb5b906108ee903390600401613172565b600060405180830381600087803b15801561090857600080fd5b505af11580156108b8573d6000803e3d6000fd5b610924611fd6565b61092e6000612030565b565b610938611fd6565b6109418c612082565b61094a8b612082565b6109538a612082565b61095c89612082565b61096588612082565b61096e87612082565b61097786612082565b61098085612082565b61098984612082565b61099283612082565b61099b82612082565b6109a481612082565b600480546001600160a01b03199081166001600160a01b038f8116919091179092556000805482168e84161790556001805482168d84161790556005805482168c84161790556006805482168b84161790556008805482168a8416179055600280548216898416179055600d80548216888416179055600c80548216878416179055600a805482168684169081179091556009805483169091179055600780548216858416179055600b80549091169183169190911790556040517f143219c9e69b09e07e095fcc889b43d8f46ca892bba65f08dc3a0050869a567890610a8c908e90613172565b60405180910390a17f78f058b189175430c48dc02699e3a0031ea4ff781536dc2fab847de4babdd8828b604051610ac39190613172565b60405180910390a17f5ee0cae2f063ed938bb55046f6a932fb6ae792bf43624806bb90abe68a50be9b8a604051610afa9190613172565b60405180910390a17f82966d27eea39b038ee0fa30cd16532bb24f6e65d31cb58fb227aa5766cdcc7f89604051610b319190613172565b60405180910390a17fcfb07d791fcafc032b35837b50eb84b74df518cf4cc287e8084f47630fa70fa088604051610b689190613172565b60405180910390a17fe67f36a6e961157d6eff83b91f3af5a62131ceb6f04954ef74f51c1c05e7f88d87604051610b9f9190613172565b60405180910390a17f8c537274438aa850a330284665d81a85dd38267d09e4050d416bfc94142db26486604051610bd69190613172565b60405180910390a17f65f4cf077bc01e4742eb5ad98326f6e95b63548ea24b17f8d5e823111fe7880085604051610c0d9190613172565b60405180910390a17f7faa560f2889840c377209fbc4b6b92d05f43f1fc60bf336ab546fd60c0051ad84604051610c449190613172565b60405180910390a17ffe7e5f521efd6e9fda9261f1223b2cda79ba84d0393e8b6629d27db91048126f83604051610c7b9190613172565b60405180910390a17f0847fbaccb3e7e2f8fe1e72d819c96f0fca0131ffebf9e9dfe13eb5625b6935182604051610cb29190613172565b60405180910390a17f6877e00d9059f8716bd795b5d4c2c89a4bc3cef71ba3dd99b168ac9cc1f2a6c281604051610ce99190613172565b60405180910390a1610cf961091c565b505050505050505050505050565b60008054604080516315b3137b60e21b8152905183926001600160a01b0316916356cc4dec9160048083019260209291908290030181865afa158015610d51573d6000803e3d6000fd5b505050506040513d601f19601f82011682018060405250810190610d759190613514565b90506000600160009054906101000a90046001600160a01b03166001600160a01b03166356cc4dec6040518163ffffffff1660e01b8152600401602060405180830381865afa158015610dcc573d6000803e3d6000fd5b505050506040513d601f19601f82011682018060405250810190610df09190613514565b9050610dfc828261212b565b9250505090565b60008111610e235760405162461bcd60e51b81526004016108949061358a565b61083b33600083600080888860006119be565b600080546040805163a2f0398360e01b8152905183926001600160a01b03169163a2f039839160048083019260209291908290030181865afa158015610e80573d6000803e3d6000fd5b505050506040513d601f19601f82011682018060405250810190610ea49190613514565b90506000600160009054906101000a90046001600160a01b03166001600160a01b031663a2f039836040518163ffffffff1660e01b8152600401602060405180830381865afa158015610dcc573d6000803e3d6000fd5b6040805160608082018352600480546001600160a01b039081168452600080548216602080870191909152600c548316868801528651610100810188528281528082018390528088018390529485018290526080850182905260a0850182905260c0850182905260e085018290526002548751630fdb11cf60e01b8152975196979596931694630fdb11cf948181019492939183900301908290875af1158015610fa9573d6000803e3d6000fd5b505050506040513d601f19601f82011682018060405250810190610fcd9190613514565b808252600090610fdc90612137565b9050610fe8888261214d565b8251610ff49033612261565b604082018790528061101357825161100d90888a612323565b60208301525b61102082604001516124c3565b604082015160608301819052611038576110386135cd565b61104b8683606001518460000151611981565b6080830152606082015161106090879061253a565b60a0830152801561107d576110788260800151612569565b6110b0565b61108a82608001516125da565b60006110a38760018560600151600187600001516117c3565b90506110ae81611838565b505b8251604051635d6b480f60e01b81526001600160a01b0390911690635d6b480f906110e2903390600190600401613571565b600060405180830381600087803b1580156110fc57600080fd5b505af1158015611110573d6000803e3d6000fd5b505084516040516372423c1760e01b81526001600160a01b0390911692506372423c1791506111459033908a90600401613571565b6020604051808303816000875af1158015611164573d6000803e3d6000fd5b505050506040513d601f19601f820116820180604052508101906111889190613514565b5082516060830151604051639976cf4560e01b81526001600160a01b0390921691639976cf45916111be91339190600401613571565b6020604051808303816000875af11580156111dd573d6000803e3d6000fd5b505050506040513d601f19601f820116820180604052508101906112019190613514565b5082516040516382fe3eb960e01b81526001600160a01b03909116906382fe3eb990611231903390600401613172565b600060405180830381600087803b15801561124b57600080fd5b505af115801561125f573d6000803e3d6000fd5b50508451604051630c7940bd60e11b81526001600160a01b0390911692506318f2817a9150611292903390600401613172565b6020604051808303816000875af11580156112b1573d6000803e3d6000fd5b505050506040513d601f19601f820116820180604052508101906112d59190613514565b60c0830152600d5460a08301516040516346f7cf8760e01b81526001600160a01b03909216916346f7cf8791611314913391908a908a906004016135e3565b600060405180830381600087803b15801561132e57600080fd5b505af1158015611342573d6000803e3d6000fd5b505084516040516315d549f160e01b81526001600160a01b0390911692506315d549f19150611375903390600401613172565b6020604051808303816000875af1158015611394573d6000803e3d6000fd5b505050506040513d601f19601f820116820180604052508101906113b89190613514565b60e0830181905260405190815233907f59cfd0cd754bc5748b6770e94a4ffa5f678d885cb899dcfadc5734edb97c67ab9060200160405180910390a261140283602001518761266a565b611437836020015184604001513361c35086602001518c6114239190613624565b61142d9190613624565b86604001516126e3565b6020830151604084015160065461145d9291906001600160a01b031661c35060006126e3565b606082015160c083015160405133926000805160206136e18339815191529261148b928b919060009061354f565b60405180910390a260208083015160405190815233917f909ac017b31fd41edf1bf9a7ed7d4a7af4343fe034023db2d0220a77ba25e7ee910160405180910390a25050505050505050565b6108b83360008086600187878b6119be565b6114f0611fd6565b6001600160a01b0381166115555760405162461bcd60e51b815260206004820152602660248201527f4f776e61626c653a206e6577206f776e657220697320746865207a65726f206160448201526564647265737360d01b6064820152608401610894565b61155e81612030565b50565b6115756103e8670de0b6b3a7640000613637565b611580906005613659565b81565b6040516321e3780160e01b81526000906001600160a01b038416906321e37801906115b2908590600401613172565b602060405180830381865afa1580156115cf573d6000803e3d6000fd5b505050506040513d601f19601f820116820180604052508101906115f39190613514565b90508060011461083b5760405162461bcd60e51b815260206004820152602e60248201527f426f72726f7765724f70733a2054726f766520646f6573206e6f74206578697360448201526d1d081bdc881a5cc818db1bdcd95960921b6064820152608401610894565b61166581612137565b1561155e5760405162461bcd60e51b815260206004820152603960248201527f426f72726f7765724f70733a204f7065726174696f6e206e6f74207065726d696044820152787474656420647572696e67205265636f76657279204d6f646560381b6064820152608401610894565b6040516370a0823160e01b815281906001600160a01b038516906370a0823190611702908690600401613172565b602060405180830381865afa15801561171f573d6000803e3d6000fd5b505050506040513d601f19601f820116820180604052508101906117439190613514565b101561083b5760405162461bcd60e51b815260206004820152604360248201527f426f72726f7765724f70733a2043616c6c657220646f65736e7420686176652060448201527f656e6f75676820426173654665654c4d4120746f206d616b652072657061796d606482015262195b9d60ea1b608482015260a401610894565b6000806117ce610e36565b905060006117da610d07565b9050866117f0576117eb82896127a4565b6117fa565b6117fa828961212b565b9150846118105761180b81876127a4565b61181a565b61181a818761212b565b90506000611829838387611981565b93505050505b95945050505050565b600181101561155e5760405162461bcd60e51b815260206004820152604960248201527f426f72726f7765724f70733a20416e206f7065726174696f6e2074686174207760448201527f6f756c6420726573756c7420696e20544352203c20434352206973206e6f74206064820152681c195c9b5a5d1d195960ba1b608482015260a401610894565b604051633b4009ff60e11b8152600481018290526001600160a01b0385169063768013fe90602401600060405180830381600087803b15801561190357600080fd5b505af1158015611917573d6000803e3d6000fd5b5050604051632770a7eb60e21b81526001600160a01b0386169250639dc29fac91506119499085908590600401613571565b600060405180830381600087803b15801561196357600080fd5b505af1158015611977573d6000803e3d6000fd5b5050505050505050565b600082156119b25760006119a9836119a3868189670de0b6b3a76400006127b0565b906127bc565b91506119b79050565b506000195b9392505050565b6040805160608082018352600480546001600160a01b039081168452600080548216602080870191909152600c5483168688015286516101a0810188528281528082018390528088018390529485018290526080850182905260a0850182905260c0850182905260e08501829052610100850182905261012085018290526101408501829052610160850182905261018085018290526002548751630fdb11cf60e01b8152975196979596931694630fdb11cf948181019492939183900301908290875af1158015611a94573d6000803e3d6000fd5b505050506040513d601f19601f82011682018060405250810190611ab89190613514565b808252600090611ac790612137565b90508615611ae257611ad9848261214d565b611ae2886127c8565b611aec8a8a612838565b611af78a8a8a6128a8565b8251611b03908c611583565b336001600160a01b038c161480611b3957506005546001600160a01b031633148015611b2f5750600089115b8015611b39575087155b611b4557611b456135cd565b8251604051630b07655760e01b81526001600160a01b0390911690630b07655790611b74908e90600401613172565b600060405180830381600087803b158015611b8e57600080fd5b505af1158015611ba2573d6000803e3d6000fd5b50505050611bb0898b612940565b15156060840152602083015260408201889052868015611bce575080155b15611be7578251611be0908986612323565b6101208301525b825160405163d66a255360e01b81526001600160a01b039091169063d66a255390611c16908e90600401613172565b602060405180830381865afa158015611c33573d6000803e3d6000fd5b505050506040513d601f19601f82011682018060405250810190611c579190613514565b608083015282516040516309019aaf60e31b81526001600160a01b039091169063480cd57890611c8b908e90600401613172565b602060405180830381865afa158015611ca8573d6000803e3d6000fd5b505050506040513d601f19601f82011682018060405250810190611ccc9190613514565b60a0830181905260808301518351611ce5929190611981565b8260c0018181525050611d158260a0015183608001518460200151856060015186604001518c886000015161295f565b60e083015260a08201518a1115611d2e57611d2e6135cd565b611d3a818b8985612992565b86158015611d485750600088115b15611d9357611d6e611d698360400151611d63856080015190565b906127a4565b6124c3565b611d8082608001518360400151612a06565b611d9383604001518c84604001516116d4565b611db183600001518c8460200151856060015186604001518c612a88565b6101408401526101608301528251604051630c7940bd60e11b81526001600160a01b03909116906318f2817a90611dec908e90600401613172565b6020604051808303816000875af1158015611e0b573d6000803e3d6000fd5b505050506040513d601f19601f82011682018060405250810190611e2f9190613514565b826101800181815250506000611e5d8360a0015184608001518560200151866060015187604001518d612c7a565b600d5460405163015f109360e51b81529192506001600160a01b031690632be2126090611e94908f9085908c908c906004016135e3565b600060405180830381600087803b158015611eae57600080fd5b505af1158015611ec2573d6000803e3d6000fd5b505050508b6001600160a01b03166000805160206136e18339815191528461014001518561016001518661018001516002604051611f03949392919061354f565b60405180910390a261012083015160405190815233907f909ac017b31fd41edf1bf9a7ed7d4a7af4343fe034023db2d0220a77ba25e7ee9060200160405180910390a2610cf98460200151856040015133866020015187606001518e8e8a60400151612cab565b6005546001600160a01b0316331461092e5760405162461bcd60e51b815260206004820152602960248201527f426f72726f7765724f70733a2043616c6c6572206973206e6f742053746162696044820152681b1a5d1e48141bdbdb60ba1b6064820152608401610894565b6003546001600160a01b0316331461092e5760405162461bcd60e51b815260206004820181905260248201527f4f776e61626c653a2063616c6c6572206973206e6f7420746865206f776e65726044820152606401610894565b600380546001600160a01b038381166001600160a01b0319831681179093556040519116919082907f8be0079c531659141344cd1fd0a4f28419497f9722a3daafe3b4186f6b6457e090600090a35050565b6001600160a01b0381166120d85760405162461bcd60e51b815260206004820152601e60248201527f4163636f756e742063616e6e6f74206265207a65726f206164647265737300006044820152606401610894565b803b806121275760405162461bcd60e51b815260206004820181905260248201527f4163636f756e7420636f64652073697a652063616e6e6f74206265207a65726f6044820152606401610894565b5050565b60006119b78284613670565b60008061214383612d40565b6001119392505050565b80156121c657670de0b6b3a76400008211156121275760405162461bcd60e51b815260206004820152603260248201527f4d6178206665652070657263656e74616765206d757374206c657373207468616044820152716e206f7220657175616c20746f203130302560701b6064820152608401610894565b6121da6103e8670de0b6b3a7640000613637565b6121e5906005613659565b82101580156121fc5750670de0b6b3a76400008211155b6121275760405162461bcd60e51b815260206004820152603060248201527f4d6178206665652070657263656e74616765206d75737420626520626574776560448201526f656e20302e352520616e64203130302560801b6064820152608401610894565b6040516321e3780160e01b81526000906001600160a01b038416906321e3780190612290908590600401613172565b602060405180830381865afa1580156122ad573d6000803e3d6000fd5b505050506040513d601f19601f820116820180604052508101906122d19190613514565b90508060010361083b5760405162461bcd60e51b815260206004820152601c60248201527f426f72726f7765724f70733a2054726f766520697320616374697665000000006044820152606401610894565b6000836001600160a01b0316635dba4c4a6040518163ffffffff1660e01b8152600401600060405180830381600087803b15801561236057600080fd5b505af1158015612374573d6000803e3d6000fd5b5050604051630631203b60e41b815260048101869052600092508291506001600160a01b0387169063631203b0906024016040805180830381865afa1580156123c1573d6000803e3d6000fd5b505050506040513d601f19601f820116820180604052508101906123e59190613683565b60048054604051634fbd6daf60e11b81529182018390529294509092506001600160a01b0390911690639f7adb5e90602401600060405180830381600087803b15801561243157600080fd5b505af1158015612445573d6000803e3d6000fd5b50505050612454828686612d6c565b600b54604051631fa773cd60e31b815260048101879052602481018490526001600160a01b039091169063fd3b9e6890604401600060405180830381600087803b1580156124a157600080fd5b505af11580156124b5573d6000803e3d6000fd5b509398975050505050505050565b600181101561155e5760405162461bcd60e51b815260206004820152603a60248201527f426f72726f7765724f70733a2054726f76652773206e65742064656274206d7560448201527f73742062652067726561746572207468616e206d696e696d756d0000000000006064820152608401610894565b6000811561256057612559826119a38568056bc75e2d631000006127b0565b9050610822565b50600019610822565b600181101561155e5760405162461bcd60e51b815260206004820152603760248201527f426f72726f7765724f70733a204f7065726174696f6e206d757374206c65617660448201527632903a3937bb32903bb4ba341024a1a9101f1e9021a1a960491b6064820152608401610894565b6714d1120d7b16000081101561155e5760405162461bcd60e51b815260206004820152604960248201527f426f72726f7765724f70733a20416e206f7065726174696f6e2074686174207760448201527f6f756c6420726573756c7420696e20494352203c204d4352206973206e6f74206064820152681c195c9b5a5d1d195960ba1b608482015260a401610894565b600754612682906001600160a01b0316338484612dd6565b60005460405162f9332d60e61b8152600481018390526001600160a01b0390911690633e4ccb4090602401600060405180830381600087803b1580156126c757600080fd5b505af11580156126db573d6000803e3d6000fd5b505050505050565b60405163262b890160e01b8152600481018290526001600160a01b0386169063262b890190602401600060405180830381600087803b15801561272557600080fd5b505af1158015612739573d6000803e3d6000fd5b50506040516340c10f1960e01b81526001600160a01b03871692506340c10f19915061276b9086908690600401613571565b600060405180830381600087803b15801561278557600080fd5b505af1158015612799573d6000803e3d6000fd5b505050505050505050565b60006119b78284613624565b60006119b78284613659565b60006119b78284613637565b6000811161155e5760405162461bcd60e51b815260206004820152603760248201527f426f72726f7765724f70733a204465627420696e637265617365207265717569604482015276726573206e6f6e2d7a65726f20646562744368616e676560481b6064820152608401610894565b801580612843575081155b6121275760405162461bcd60e51b815260206004820152603060248201527f426f72726f7765724f7065726174696f6e733a2043616e6e6f7420776974686460448201526f1c985dc8185b99081859190818dbdb1b60821b6064820152608401610894565b811515806128b557508215155b806128bf57508015155b61083b5760405162461bcd60e51b815260206004820152604660248201527f426f72726f7765724f70733a205468657265206d75737420626520656974686560448201527f72206120636f6c6c61746572616c206368616e6765206f7220612064656274206064820152656368616e676560d01b608482015260a401610894565b600080831561295457508290506001612958565b8291505b9250929050565b60008060006129728a8a8a8a8a8a612e30565b915091506000612983838387611981565b9b9a5050505050505050505050565b83156129cb576129a183612e6e565b81156129c6576129b48160e00151612569565b6129c68160e001518260c00151612ee2565b6108b8565b6129d88160e001516125da565b6129f58160200151826060015183604001518585600001516117c3565b61010082018190526108b890611838565b818111156121275760405162461bcd60e51b815260206004820152604360248201527f426f72726f7765724f70733a20416d6f756e7420726570616964206d7573742060448201527f6e6f74206265206c6172676572207468616e207468652054726f76652773206460648201526219589d60ea1b608482015260a401610894565b600080600085612b085760405163d3d6f84360e01b81526001600160a01b038a169063d3d6f84390612ac0908b908b90600401613571565b6020604051808303816000875af1158015612adf573d6000803e3d6000fd5b505050506040513d601f19601f82011682018060405250810190612b039190613514565b612b79565b6040516372423c1760e01b81526001600160a01b038a16906372423c1790612b36908b908b90600401613571565b6020604051808303816000875af1158015612b55573d6000803e3d6000fd5b505050506040513d601f19601f82011682018060405250810190612b799190613514565b9050600084612bf857604051630930874960e11b81526001600160a01b038b16906312610e9290612bb0908c908a90600401613571565b6020604051808303816000875af1158015612bcf573d6000803e3d6000fd5b505050506040513d601f19601f82011682018060405250810190612bf39190613514565b612c69565b604051639976cf4560e01b81526001600160a01b038b1690639976cf4590612c26908c908a90600401613571565b6020604051808303816000875af1158015612c45573d6000803e3d6000fd5b505050506040513d601f19601f82011682018060405250810190612c699190613514565b919a91995090975050505050505050565b6000806000612c8d898989898989612e30565b915091506000612c9d838361253a565b9a9950505050505050505050565b8115612cc357612cbe88888886856126e3565b612ccf565b612ccf888888866118c1565b8315612ce457612cdf888661266a565b611977565b60405163a51ba3b760e01b81526001600160a01b0389169063a51ba3b790612d129089908990600401613571565b600060405180830381600087803b158015612d2c57600080fd5b505af1158015610cf9573d6000803e3d6000fd5b600080612d4b610e36565b90506000612d57610d07565b9050612d64828286611981565b949350505050565b6000612d84836119a386670de0b6b3a76400006127b0565b9050818111156108b85760405162461bcd60e51b815260206004820152601d60248201527f4665652065786365656465642070726f7669646564206d6178696d756d0000006044820152606401610894565b604080516001600160a01b0385811660248301528416604482015260648082018490528251808303909101815260849091019091526020810180516001600160e01b03166323b872dd60e01b1790526108b8908590612f58565b600080878786612e4957612e448a896127a4565b612e53565b612e538a8961212b565b915084612e6457612bf389876127a4565b612c69898761212b565b801561155e5760405162461bcd60e51b815260206004820152603e60248201527f426f72726f7765724f70733a20436f6c6c61746572616c20776974686472617760448201527f616c206e6f74207065726d6974746564205265636f76657279204d6f646500006064820152608401610894565b808210156121275760405162461bcd60e51b815260206004820152603e60248201527f426f72726f7765724f70733a2043616e6e6f7420646563726561736520796f7560448201527f722054726f766527732049435220696e205265636f76657279204d6f646500006064820152608401610894565b6000612fad826040518060400160405280602081526020017f5361666545524332303a206c6f772d6c6576656c2063616c6c206661696c6564815250856001600160a01b031661302d9092919063ffffffff16565b9050805160001480612fce575080806020019051810190612fce91906136a7565b61083b5760405162461bcd60e51b815260206004820152602a60248201527f5361666545524332303a204552433230206f7065726174696f6e20646964206e6044820152691bdd081cdd58d8d9595960b21b6064820152608401610894565b6060612d64848460008585600080866001600160a01b0316858760405161305491906136c4565b60006040518083038185875af1925050503d8060008114613091576040519150601f19603f3d011682016040523d82523d6000602084013e613096565b606091505b50915091506130a7878383876130b2565b979650505050505050565b6060831561312157825160000361311a576001600160a01b0385163b61311a5760405162461bcd60e51b815260206004820152601d60248201527f416464726573733a2063616c6c20746f206e6f6e2d636f6e74726163740000006044820152606401610894565b5081612d64565b612d6483838151156131365781518083602001fd5b8060405162461bcd60e51b8152600401610894919061347a565b6000806040838503121561316357600080fd5b50508035926020909101359150565b6001600160a01b0391909116815260200190565b6001600160a01b038116811461155e57600080fd5b80356131a681613186565b919050565b6000806000606084860312156131c057600080fd5b8335925060208401356131d281613186565b915060408401356131e281613186565b809150509250925092565b6000602082840312156131ff57600080fd5b5035919050565b801515811461155e57600080fd5b600080600080600080600060e0888a03121561322f57600080fd5b87359650602088013595506040880135945060608801359350608088013561325681613206565b925060a088013561326681613186565b915060c088013561327681613186565b8091505092959891949750929550565b6000806000806080858703121561329c57600080fd5b84356132a781613186565b935060208501356132b781613186565b925060408501356132c781613186565b9396929550929360600135925050565b6000806000806000806000806000806000806101808d8f0312156132fa57600080fd5b8c3561330581613186565b9b5060208d013561331581613186565b9a5060408d013561332581613186565b995060608d013561333581613186565b985060808d013561334581613186565b975060a08d013561335581613186565b965061336360c08e0161319b565b955061337160e08e0161319b565b94506133806101008e0161319b565b935061338f6101208e0161319b565b925061339e6101408e0161319b565b91506133ad6101608e0161319b565b90509295989b509295989b509295989b565b6000806000606084860312156133d457600080fd5b83356133df81613186565b925060208401356133ef81613186565b929592945050506040919091013590565b600080600080600060a0868803121561341857600080fd5b853594506020860135935060408601359250606086013561343881613186565b9150608086013561344881613186565b809150509295509295909350565b60005b83811015613471578181015183820152602001613459565b50506000910152565b6020815260008251806020840152613499816040850160208701613456565b601f01601f19169190910160400192915050565b600080600080608085870312156134c357600080fd5b843593506020850135925060408501356134dc81613186565b915060608501356134ec81613186565b939692955090935050565b60006020828403121561350957600080fd5b81356119b781613186565b60006020828403121561352657600080fd5b5051919050565b6003811061354b57634e487b7160e01b600052602160045260246000fd5b9052565b84815260208101849052604081018390526080810161182f606083018461352d565b6001600160a01b03929092168252602082015260400190565b60208082526023908201527f426f72726f776572204f7065726174696f6e733a20496e76616c696420616d6f6040820152621d5b9d60ea1b606082015260800190565b634e487b7160e01b600052600160045260246000fd5b6001600160a01b03948516815260208101939093529083166040830152909116606082015260800190565b634e487b7160e01b600052601160045260246000fd5b818103818111156108225761082261360e565b60008261365457634e487b7160e01b600052601260045260246000fd5b500490565b80820281158282048414176108225761082261360e565b808201808211156108225761082261360e565b6000806040838503121561369657600080fd5b505080516020909101519092909150565b6000602082840312156136b957600080fd5b81516119b781613206565b600082516136d6818460208701613456565b919091019291505056fec3770d654ed33aeea6bf11ac8ef05d02a6a04ed4686dd2f624d853bbec43cc8ba26469706673582212206297ddf0e31a1120699a1e64391acdc306382cd224f727f9e1864d181e362daa64736f6c63430008130033",
  "devdoc": {
    "kind": "dev",
    "methods": {
      "owner()": {
        "details": "Returns the address of the current owner."
      },
      "renounceOwnership()": {
        "details": "Leaves the contract without owner. It will not be possible to call `onlyOwner` functions. Can only be called by the current owner. NOTE: Renouncing ownership will leave the contract without an owner, thereby disabling any functionality that is only available to the owner."
      },
      "transferOwnership(address)": {
        "details": "Transfers ownership of the contract to a new account (`newOwner`). Can only be called by the current owner."
      }
    },
    "version": 1
  },
  "userdoc": {
    "kind": "user",
    "methods": {
      "addColl(address,address,uint256)": {
        "notice": "HEDGEHOG UPDATES: ERC20 is used as a collateral, therefore function may not rely on msg.value anymore now passing a new param _collIncrease in _adjustTrove function - in this particular case it is a passed param _amount checking if _amount is greater then 0 Function is no longer payable"
      },
      "adjustTrove(uint256,uint256,uint256,uint256,bool,address,address)": {
        "notice": "HEDGEHOG UPDATES: ERC20 is used as a collateral, therefore function may not rely on msg.value anymore now passing a new param _collIncrease Function is no longer payable"
      },
      "claimCollateral()": {
        "notice": "Claim remaining collateral from a redemption or from a liquidation with ICR > MCR in Recovery Mode"
      },
      "moveStETHGainToTrove(address,address,address,uint256)": {
        "notice": "HEDGEHOG UPDATES: ERC20 is used as a collateral, therefore function may not rely on msg.value anymore now passing a new param _collIncrease in _adjustTrove function - in this particular case it is a passed param _amount checking if _amount is greater then 0 Function is no longer payable"
      },
      "openTrove(uint256,uint256,uint256,address,address)": {
        "notice": "HEDGEHOG UPDATES: ERC20 is used as a collateral, therefore function may not rely on msg.value anymore now passing a new param _collAmount checking if _amount is greater then 0 Function is no longer payable"
      },
      "repayBaseFeeLMA(uint256,address,address)": {
        "notice": "HEDGEHOG UPDATES: ERC20 is used as a collateral, therefore function may not rely on msg.value anymore now passing a new param _collIncrease - in this particular case it is 0"
      },
      "setAddresses(address,address,address,address,address,address,address,address,address,address,address,address)": {
        "notice": "HEDGEHOG LOGIC UPDATES: ERC20 is used as a collateral instead of native token. Setting erc20 address in the initialisation"
      },
      "withdrawBaseFeeLMA(uint256,uint256,address,address)": {
        "notice": "HEDGEHOG UPDATES: ERC20 is used as a collateral, therefore function may not rely on msg.value anymore now passing a new param _collIncrease - in this particular case it is 0"
      },
      "withdrawColl(uint256,address,address)": {
        "notice": "HEDGEHOG UPDATES: ERC20 is used as a collateral, therefore function may not rely on msg.value anymore now passing a new param _collIncrease - in this particular case it is 0"
      }
    },
    "notice": "Fork of Liquity's BorrowerOperations. . Most of the Logic remains unchanged.. Changes to the contract: - Raised pragma version - Removed an import of IBorrowerOperations Interface - Collateral is now an ERC20 token instead of a native one - Updated variable names and docs to refer to BaseFeeLMA token and stEth as a collateral - Logic updates with borrowing fees calculation and their distribution Even though SafeMath is no longer required, the decision was made to keep it to avoid human factor errors",
    "version": 1
  },
  "storageLayout": {
    "storage": [
      {
        "astId": 15614,
        "contract": "contracts/BorrowerOperations.sol:BorrowerOperations",
        "label": "activePool",
        "offset": 0,
        "slot": "0",
        "type": "t_contract(IActivePool)16302"
      },
      {
        "astId": 15617,
        "contract": "contracts/BorrowerOperations.sol:BorrowerOperations",
        "label": "defaultPool",
        "offset": 0,
        "slot": "1",
        "type": "t_contract(IDefaultPool)16710"
      },
      {
        "astId": 15621,
        "contract": "contracts/BorrowerOperations.sol:BorrowerOperations",
        "label": "priceFeed",
        "offset": 0,
        "slot": "2",
        "type": "t_contract(IPriceFeed)16969"
      },
      {
        "astId": 396,
        "contract": "contracts/BorrowerOperations.sol:BorrowerOperations",
        "label": "_owner",
        "offset": 0,
        "slot": "3",
        "type": "t_address"
      },
      {
        "astId": 3088,
        "contract": "contracts/BorrowerOperations.sol:BorrowerOperations",
        "label": "troveManager",
        "offset": 0,
        "slot": "4",
        "type": "t_contract(ITroveManager)17728"
      },
      {
        "astId": 3090,
        "contract": "contracts/BorrowerOperations.sol:BorrowerOperations",
        "label": "stabilityPoolAddress",
        "offset": 0,
        "slot": "5",
        "type": "t_address"
      },
      {
        "astId": 3092,
        "contract": "contracts/BorrowerOperations.sol:BorrowerOperations",
        "label": "gasPoolAddress",
        "offset": 0,
        "slot": "6",
        "type": "t_address"
      },
      {
        "astId": 3095,
        "contract": "contracts/BorrowerOperations.sol:BorrowerOperations",
        "label": "StETHToken",
        "offset": 0,
        "slot": "7",
        "type": "t_contract(IERC20)579"
      },
      {
        "astId": 3098,
        "contract": "contracts/BorrowerOperations.sol:BorrowerOperations",
        "label": "collSurplusPool",
        "offset": 0,
        "slot": "8",
        "type": "t_contract(ICollSurplusPool)16648"
      },
      {
        "astId": 3101,
        "contract": "contracts/BorrowerOperations.sol:BorrowerOperations",
        "label": "hogStaking",
        "offset": 0,
        "slot": "9",
        "type": "t_contract(IHOGStaking)16837"
      },
      {
        "astId": 3103,
        "contract": "contracts/BorrowerOperations.sol:BorrowerOperations",
        "label": "hogStakingAddress",
        "offset": 0,
        "slot": "10",
        "type": "t_address"
      },
      {
        "astId": 3106,
        "contract": "contracts/BorrowerOperations.sol:BorrowerOperations",
        "label": "feesRouter",
        "offset": 0,
        "slot": "11",
        "type": "t_contract(IFeesRouter)16727"
      },
      {
        "astId": 3109,
        "contract": "contracts/BorrowerOperations.sol:BorrowerOperations",
        "label": "baseFeeLMAToken",
        "offset": 0,
        "slot": "12",
        "type": "t_contract(IBaseFeeLMAToken)16366"
      },
      {
        "astId": 3112,
        "contract": "contracts/BorrowerOperations.sol:BorrowerOperations",
        "label": "sortedTroves",
        "offset": 0,
        "slot": "13",
        "type": "t_contract(ISortedTroves)17101"
      }
    ],
    "types": {
      "t_address": {
        "encoding": "inplace",
        "label": "address",
        "numberOfBytes": "20"
      },
      "t_contract(IActivePool)16302": {
        "encoding": "inplace",
        "label": "contract IActivePool",
        "numberOfBytes": "20"
      },
      "t_contract(IBaseFeeLMAToken)16366": {
        "encoding": "inplace",
        "label": "contract IBaseFeeLMAToken",
        "numberOfBytes": "20"
      },
      "t_contract(ICollSurplusPool)16648": {
        "encoding": "inplace",
        "label": "contract ICollSurplusPool",
        "numberOfBytes": "20"
      },
      "t_contract(IDefaultPool)16710": {
        "encoding": "inplace",
        "label": "contract IDefaultPool",
        "numberOfBytes": "20"
      },
      "t_contract(IERC20)579": {
        "encoding": "inplace",
        "label": "contract IERC20",
        "numberOfBytes": "20"
      },
      "t_contract(IFeesRouter)16727": {
        "encoding": "inplace",
        "label": "contract IFeesRouter",
        "numberOfBytes": "20"
      },
      "t_contract(IHOGStaking)16837": {
        "encoding": "inplace",
        "label": "contract IHOGStaking",
        "numberOfBytes": "20"
      },
      "t_contract(IPriceFeed)16969": {
        "encoding": "inplace",
        "label": "contract IPriceFeed",
        "numberOfBytes": "20"
      },
      "t_contract(ISortedTroves)17101": {
        "encoding": "inplace",
        "label": "contract ISortedTroves",
        "numberOfBytes": "20"
      },
      "t_contract(ITroveManager)17728": {
        "encoding": "inplace",
        "label": "contract ITroveManager",
        "numberOfBytes": "20"
      }
    }
  }
}