{
  "address": "0xDdaF04fA0cA86205458606bcf32e4604460aBD4F",
  "abi": [
    {
      "anonymous": false,
      "inputs": [
        {
          "indexed": false,
          "internalType": "address",
          "name": "_hogTokenAddress",
          "type": "address"
        }
      ],
      "name": "HOGTokenAddressSet",
      "type": "event"
    },
    {
      "anonymous": false,
      "inputs": [
        {
          "indexed": false,
          "internalType": "address",
          "name": "_lockupContractAddress",
          "type": "address"
        },
        {
          "indexed": false,
          "internalType": "address",
          "name": "_beneficiary",
          "type": "address"
        },
        {
          "indexed": false,
          "internalType": "uint256",
          "name": "_unlockTime",
          "type": "uint256"
        },
        {
          "indexed": false,
          "internalType": "address",
          "name": "_deployer",
          "type": "address"
        }
      ],
      "name": "LockupContractDeployedThroughFactory",
      "type": "event"
    },
    {
      "anonymous": false,
      "inputs": [
        {
          "indexed": true,
          "internalType": "address",
          "name": "previousOwner",
          "type": "address"
        },
        {
          "indexed": true,
          "internalType": "address",
          "name": "newOwner",
          "type": "address"
        }
      ],
      "name": "OwnershipTransferred",
      "type": "event"
    },
    {
      "inputs": [],
      "name": "NAME",
      "outputs": [
        {
          "internalType": "string",
          "name": "",
          "type": "string"
        }
      ],
      "stateMutability": "view",
      "type": "function"
    },
    {
      "inputs": [],
      "name": "SECONDS_IN_ONE_YEAR",
      "outputs": [
        {
          "internalType": "uint256",
          "name": "",
          "type": "uint256"
        }
      ],
      "stateMutability": "view",
      "type": "function"
    },
    {
      "inputs": [
        {
          "internalType": "address",
          "name": "_beneficiary",
          "type": "address"
        },
        {
          "internalType": "uint256",
          "name": "_unlockTime",
          "type": "uint256"
        }
      ],
      "name": "deployLockupContract",
      "outputs": [],
      "stateMutability": "nonpayable",
      "type": "function"
    },
    {
      "inputs": [],
      "name": "hogTokenAddress",
      "outputs": [
        {
          "internalType": "address",
          "name": "",
          "type": "address"
        }
      ],
      "stateMutability": "view",
      "type": "function"
    },
    {
      "inputs": [
        {
          "internalType": "address",
          "name": "_contractAddress",
          "type": "address"
        }
      ],
      "name": "isRegisteredLockup",
      "outputs": [
        {
          "internalType": "bool",
          "name": "",
          "type": "bool"
        }
      ],
      "stateMutability": "view",
      "type": "function"
    },
    {
      "inputs": [
        {
          "internalType": "address",
          "name": "",
          "type": "address"
        }
      ],
      "name": "lockupContractToDeployer",
      "outputs": [
        {
          "internalType": "address",
          "name": "",
          "type": "address"
        }
      ],
      "stateMutability": "view",
      "type": "function"
    },
    {
      "inputs": [],
      "name": "owner",
      "outputs": [
        {
          "internalType": "address",
          "name": "",
          "type": "address"
        }
      ],
      "stateMutability": "view",
      "type": "function"
    },
    {
      "inputs": [],
      "name": "renounceOwnership",
      "outputs": [],
      "stateMutability": "nonpayable",
      "type": "function"
    },
    {
      "inputs": [
        {
          "internalType": "address",
          "name": "_hogTokenAddress",
          "type": "address"
        }
      ],
      "name": "setHOGTokenAddress",
      "outputs": [],
      "stateMutability": "nonpayable",
      "type": "function"
    },
    {
      "inputs": [
        {
          "internalType": "address",
          "name": "newOwner",
          "type": "address"
        }
      ],
      "name": "transferOwnership",
      "outputs": [],
      "stateMutability": "nonpayable",
      "type": "function"
    }
  ],
  "transactionHash": "0xfea5831a280f06fa4bcf690ea5527ff194aed72cdfeece957e4ed4c6793c7f60",
  "args": [],
  "numDeployments": 1,
  "solcInputHash": "d5f53fb866e459e87a9a24e89566d411",
  "bytecode": "0x608060405234801561001057600080fd5b5061001a3361001f565b61006f565b600080546001600160a01b038381166001600160a01b0319831681178455604051919092169283917f8be0079c531659141344cd1fd0a4f28419497f9722a3daafe3b4186f6b6457e09190a35050565b610d318061007e6000396000f3fe608060405234801561001057600080fd5b506004361061009e5760003560e01c8063bb7603f111610066578063bb7603f114610144578063be61cd8214610182578063d83c72db14610195578063ebafec9e146101be578063f2fde38b146101d157600080fd5b806334c44b4d146100a3578063715018a6146100b85780638da5cb5b146100c057806398e5f3c4146100ea578063a3f4df7e14610103575b600080fd5b6100b66100b1366004610592565b6101e4565b005b6100b66102c4565b6000546001600160a01b03165b6040516001600160a01b0390911681526020015b60405180910390f35b6100f56301e1338081565b6040519081526020016100e1565b610137604051806040016040528060158152602001744c6f636b7570436f6e7472616374466163746f727960581b81525081565b6040516100e191906105bc565b61017261015236600461060a565b6001600160a01b0390811660009081526002602052604090205416151590565b60405190151581526020016100e1565b6001546100cd906001600160a01b031681565b6100cd6101a336600461060a565b6002602052600090815260409020546001600160a01b031681565b6100b66101cc36600461060a565b6102d8565b6100b66101df36600461060a565b610345565b6001546001600160a01b03166101f9816103c0565b600081848460405161020a90610569565b6001600160a01b0393841681529290911660208301526040820152606001604051809103906000f080158015610244573d6000803e3d6000fd5b506001600160a01b0381811660008181526002602090815260409182902080546001600160a01b03191633908117909155825193845293891690830152810186905260608101919091529091507ff534ff9ac4abb71a4aa2f8715f3a8f41c05155fbf8af61daecc51365e3a5c0089060800160405180910390a150505050565b6102cc610416565b6102d66000610470565b565b6102e0610416565b6102e9816104c0565b600180546001600160a01b0319166001600160a01b0383169081179091556040519081527f2228d43367ece49cb99c3d3ac6d6df4a289d31f4a2bd9ab1ff590c66f3a4d6c09060200160405180910390a16103426102c4565b50565b61034d610416565b6001600160a01b0381166103b75760405162461bcd60e51b815260206004820152602660248201527f4f776e61626c653a206e6577206f776e657220697320746865207a65726f206160448201526564647265737360d01b60648201526084015b60405180910390fd5b61034281610470565b6001600160a01b0381166103425760405162461bcd60e51b815260206004820152601b60248201527f4c43463a20484f472041646472657373206973206e6f7420736574000000000060448201526064016103ae565b6000546001600160a01b031633146102d65760405162461bcd60e51b815260206004820181905260248201527f4f776e61626c653a2063616c6c6572206973206e6f7420746865206f776e657260448201526064016103ae565b600080546001600160a01b038381166001600160a01b0319831681178455604051919092169283917f8be0079c531659141344cd1fd0a4f28419497f9722a3daafe3b4186f6b6457e09190a35050565b6001600160a01b0381166105165760405162461bcd60e51b815260206004820152601e60248201527f4163636f756e742063616e6e6f74206265207a65726f2061646472657373000060448201526064016103ae565b803b806105655760405162461bcd60e51b815260206004820181905260248201527f4163636f756e7420636f64652073697a652063616e6e6f74206265207a65726f60448201526064016103ae565b5050565b6106cf8061062d83390190565b80356001600160a01b038116811461058d57600080fd5b919050565b600080604083850312156105a557600080fd5b6105ae83610576565b946020939093013593505050565b600060208083528351808285015260005b818110156105e9578581018301518582016040015282016105cd565b506000604082860101526040601f19601f8301168501019250505092915050565b60006020828403121561061c57600080fd5b61062582610576565b939250505056fe60a060405234801561001057600080fd5b506040516106cf3803806106cf83398101604081905261002f916101f4565b600080546001600160a01b0319166001600160a01b038516179055610053816100a8565b60018190556001600160a01b038216608081905260408051918252602082018390527f5faee922186516bf77266643c1fda130acefc439d571400e8697106c6aed9b54910160405180910390a150505061026a565b60008060009054906101000a90046001600160a01b03166001600160a01b0316633c84b7c26040518163ffffffff1660e01b8152600401602060405180830381865afa1580156100fc573d6000803e3d6000fd5b505050506040513d601f19601f820116820180604052508101906101209190610230565b9050610130816301e133806101c3565b8210156101bf5760405162461bcd60e51b815260206004820152604d60248201527f4c6f636b7570436f6e74726163743a20756e6c6f636b2074696d65206d75737460448201527f206265206174206c65617374206f6e652079656172206166746572207379737460648201526c195b4819195c1b1bde5b595b9d609a1b608482015260a40160405180910390fd5b5050565b60006101cf8284610249565b90505b92915050565b80516001600160a01b03811681146101ef57600080fd5b919050565b60008060006060848603121561020957600080fd5b610212846101d8565b9250610220602085016101d8565b9150604084015190509250925092565b60006020828403121561024257600080fd5b5051919050565b808201808211156101d257634e487b7160e01b600052601160045260246000fd5b60805161043d610292600039600081816088015281816101bb015261027e015261043d6000f3fe608060405234801561001057600080fd5b50600436106100625760003560e01c8063251c1aa31461006757806338af3eed14610083578063570dc45e146100c257806398e5f3c4146100d5578063a3f4df7e146100e0578063b6b24f341461011a575b600080fd5b61007060015481565b6040519081526020015b60405180910390f35b6100aa7f000000000000000000000000000000000000000000000000000000000000000081565b6040516001600160a01b03909116815260200161007a565b6000546100aa906001600160a01b031681565b6100706301e1338081565b61010d6040518060400160405280600e81526020016d131bd8dadd5c10dbdb9d1c9858dd60921b81525081565b60405161007a9190610377565b610122610124565b005b61012c610273565b610134610308565b600080546040516370a0823160e01b81523060048201526001600160a01b03909116919082906370a0823190602401602060405180830381865afa158015610180573d6000803e3d6000fd5b505050506040513d601f19601f820116820180604052508101906101a491906103c5565b60405163a9059cbb60e01b81526001600160a01b037f000000000000000000000000000000000000000000000000000000000000000081166004830152602482018390529192509083169063a9059cbb906044016020604051808303816000875af1158015610217573d6000803e3d6000fd5b505050506040513d601f19601f8201168201806040525081019061023b91906103de565b506040518181527f7d17cbc0f78ccfed33842dd29dab2872e8347bf3981293ab2cfe35ca16371a2f9060200160405180910390a15050565b336001600160a01b037f000000000000000000000000000000000000000000000000000000000000000016146103065760405162461bcd60e51b815260206004820152602d60248201527f4c6f636b7570436f6e74726163743a2063616c6c6572206973206e6f7420746860448201526c652062656e656669636961727960981b60648201526084015b60405180910390fd5b565b6001544210156103065760405162461bcd60e51b815260206004820152603460248201527f4c6f636b7570436f6e74726163743a20546865206c6f636b75702064757261746044820152731a5bdb881b5d5cdd081a185d99481c185cdcd95960621b60648201526084016102fd565b600060208083528351808285015260005b818110156103a457858101830151858201604001528201610388565b506000604082860101526040601f19601f8301168501019250505092915050565b6000602082840312156103d757600080fd5b5051919050565b6000602082840312156103f057600080fd5b8151801515811461040057600080fd5b939250505056fea26469706673582212207f6515ec94dd8ae79766b9b3666c00ceb51919921a855281613b8cc4a35a97c764736f6c63430008130033a2646970667358221220e79cc96dee421e8226cf71aaeac52488d1710ced42faf3032caf03dd39c1b7fc64736f6c63430008130033",
  "devdoc": {
    "kind": "dev",
    "methods": {
      "owner()": {
        "details": "Returns the address of the current owner."
      },
      "renounceOwnership()": {
        "details": "Leaves the contract without owner. It will not be possible to call `onlyOwner` functions. Can only be called by the current owner. NOTE: Renouncing ownership will leave the contract without an owner, thereby disabling any functionality that is only available to the owner."
      },
      "transferOwnership(address)": {
        "details": "Transfers ownership of the contract to a new account (`newOwner`). Can only be called by the current owner."
      }
    },
    "version": 1
  },
  "userdoc": {
    "kind": "user",
    "methods": {},
    "version": 1
  },
  "storageLayout": {
    "storage": [
      {
        "astId": 396,
        "contract": "contracts/HOG/LockupContractFactory.sol:LockupContractFactory",
        "label": "_owner",
        "offset": 0,
        "slot": "0",
        "type": "t_address"
      },
      {
        "astId": 10731,
        "contract": "contracts/HOG/LockupContractFactory.sol:LockupContractFactory",
        "label": "hogTokenAddress",
        "offset": 0,
        "slot": "1",
        "type": "t_address"
      },
      {
        "astId": 10735,
        "contract": "contracts/HOG/LockupContractFactory.sol:LockupContractFactory",
        "label": "lockupContractToDeployer",
        "offset": 0,
        "slot": "2",
        "type": "t_mapping(t_address,t_address)"
      }
    ],
    "types": {
      "t_address": {
        "encoding": "inplace",
        "label": "address",
        "numberOfBytes": "20"
      },
      "t_mapping(t_address,t_address)": {
        "encoding": "mapping",
        "key": "t_address",
        "label": "mapping(address => address)",
        "numberOfBytes": "32",
        "value": "t_address"
      }
    }
  }
}