{
  "address": "0x60d37d34341135cE64fb0CE3dBE8EDBD9F2e8349",
  "abi": [
    {
      "anonymous": false,
      "inputs": [
        {
          "indexed": false,
          "internalType": "address",
          "name": "_borrowerOperationsAddress",
          "type": "address"
        }
      ],
      "name": "BorrowerOperationsAddressChanged",
      "type": "event"
    },
    {
      "anonymous": false,
      "inputs": [
        {
          "indexed": false,
          "internalType": "address",
          "name": "_id",
          "type": "address"
        },
        {
          "indexed": false,
          "internalType": "uint256",
          "name": "_NICR",
          "type": "uint256"
        }
      ],
      "name": "NodeAdded",
      "type": "event"
    },
    {
      "anonymous": false,
      "inputs": [
        {
          "indexed": false,
          "internalType": "address",
          "name": "_id",
          "type": "address"
        }
      ],
      "name": "NodeRemoved",
      "type": "event"
    },
    {
      "anonymous": false,
      "inputs": [
        {
          "indexed": true,
          "internalType": "address",
          "name": "previousOwner",
          "type": "address"
        },
        {
          "indexed": true,
          "internalType": "address",
          "name": "newOwner",
          "type": "address"
        }
      ],
      "name": "OwnershipTransferred",
      "type": "event"
    },
    {
      "anonymous": false,
      "inputs": [
        {
          "indexed": false,
          "internalType": "address",
          "name": "_troveManagerAddress",
          "type": "address"
        }
      ],
      "name": "TroveManagerAddressChanged",
      "type": "event"
    },
    {
      "inputs": [],
      "name": "NAME",
      "outputs": [
        {
          "internalType": "string",
          "name": "",
          "type": "string"
        }
      ],
      "stateMutability": "view",
      "type": "function"
    },
    {
      "inputs": [],
      "name": "borrowerOperationsAddress",
      "outputs": [
        {
          "internalType": "address",
          "name": "",
          "type": "address"
        }
      ],
      "stateMutability": "view",
      "type": "function"
    },
    {
      "inputs": [
        {
          "internalType": "address",
          "name": "_id",
          "type": "address"
        }
      ],
      "name": "contains",
      "outputs": [
        {
          "internalType": "bool",
          "name": "",
          "type": "bool"
        }
      ],
      "stateMutability": "view",
      "type": "function"
    },
    {
      "inputs": [],
      "name": "data",
      "outputs": [
        {
          "internalType": "address",
          "name": "head",
          "type": "address"
        },
        {
          "internalType": "address",
          "name": "tail",
          "type": "address"
        },
        {
          "internalType": "uint256",
          "name": "maxSize",
          "type": "uint256"
        },
        {
          "internalType": "uint256",
          "name": "size",
          "type": "uint256"
        }
      ],
      "stateMutability": "view",
      "type": "function"
    },
    {
      "inputs": [
        {
          "internalType": "uint256",
          "name": "_NICR",
          "type": "uint256"
        },
        {
          "internalType": "address",
          "name": "_prevId",
          "type": "address"
        },
        {
          "internalType": "address",
          "name": "_nextId",
          "type": "address"
        }
      ],
      "name": "findInsertPosition",
      "outputs": [
        {
          "internalType": "address",
          "name": "",
          "type": "address"
        },
        {
          "internalType": "address",
          "name": "",
          "type": "address"
        }
      ],
      "stateMutability": "view",
      "type": "function"
    },
    {
      "inputs": [],
      "name": "getFirst",
      "outputs": [
        {
          "internalType": "address",
          "name": "",
          "type": "address"
        }
      ],
      "stateMutability": "view",
      "type": "function"
    },
    {
      "inputs": [],
      "name": "getLast",
      "outputs": [
        {
          "internalType": "address",
          "name": "",
          "type": "address"
        }
      ],
      "stateMutability": "view",
      "type": "function"
    },
    {
      "inputs": [],
      "name": "getMaxSize",
      "outputs": [
        {
          "internalType": "uint256",
          "name": "",
          "type": "uint256"
        }
      ],
      "stateMutability": "view",
      "type": "function"
    },
    {
      "inputs": [
        {
          "internalType": "address",
          "name": "_id",
          "type": "address"
        }
      ],
      "name": "getNext",
      "outputs": [
        {
          "internalType": "address",
          "name": "",
          "type": "address"
        }
      ],
      "stateMutability": "view",
      "type": "function"
    },
    {
      "inputs": [
        {
          "internalType": "address",
          "name": "_id",
          "type": "address"
        }
      ],
      "name": "getPrev",
      "outputs": [
        {
          "internalType": "address",
          "name": "",
          "type": "address"
        }
      ],
      "stateMutability": "view",
      "type": "function"
    },
    {
      "inputs": [],
      "name": "getSize",
      "outputs": [
        {
          "internalType": "uint256",
          "name": "",
          "type": "uint256"
        }
      ],
      "stateMutability": "view",
      "type": "function"
    },
    {
      "inputs": [
        {
          "internalType": "address",
          "name": "_id",
          "type": "address"
        },
        {
          "internalType": "uint256",
          "name": "_NICR",
          "type": "uint256"
        },
        {
          "internalType": "address",
          "name": "_prevId",
          "type": "address"
        },
        {
          "internalType": "address",
          "name": "_nextId",
          "type": "address"
        }
      ],
      "name": "insert",
      "outputs": [],
      "stateMutability": "nonpayable",
      "type": "function"
    },
    {
      "inputs": [],
      "name": "isEmpty",
      "outputs": [
        {
          "internalType": "bool",
          "name": "",
          "type": "bool"
        }
      ],
      "stateMutability": "view",
      "type": "function"
    },
    {
      "inputs": [],
      "name": "isFull",
      "outputs": [
        {
          "internalType": "bool",
          "name": "",
          "type": "bool"
        }
      ],
      "stateMutability": "view",
      "type": "function"
    },
    {
      "inputs": [],
      "name": "owner",
      "outputs": [
        {
          "internalType": "address",
          "name": "",
          "type": "address"
        }
      ],
      "stateMutability": "view",
      "type": "function"
    },
    {
      "inputs": [
        {
          "internalType": "address",
          "name": "_id",
          "type": "address"
        },
        {
          "internalType": "uint256",
          "name": "_newNICR",
          "type": "uint256"
        },
        {
          "internalType": "address",
          "name": "_prevId",
          "type": "address"
        },
        {
          "internalType": "address",
          "name": "_nextId",
          "type": "address"
        }
      ],
      "name": "reInsert",
      "outputs": [],
      "stateMutability": "nonpayable",
      "type": "function"
    },
    {
      "inputs": [
        {
          "internalType": "address",
          "name": "_id",
          "type": "address"
        }
      ],
      "name": "remove",
      "outputs": [],
      "stateMutability": "nonpayable",
      "type": "function"
    },
    {
      "inputs": [],
      "name": "renounceOwnership",
      "outputs": [],
      "stateMutability": "nonpayable",
      "type": "function"
    },
    {
      "inputs": [
        {
          "internalType": "uint256",
          "name": "_size",
          "type": "uint256"
        },
        {
          "internalType": "address",
          "name": "_troveManagerAddress",
          "type": "address"
        },
        {
          "internalType": "address",
          "name": "_borrowerOperationsAddress",
          "type": "address"
        }
      ],
      "name": "setParams",
      "outputs": [],
      "stateMutability": "nonpayable",
      "type": "function"
    },
    {
      "inputs": [
        {
          "internalType": "address",
          "name": "newOwner",
          "type": "address"
        }
      ],
      "name": "transferOwnership",
      "outputs": [],
      "stateMutability": "nonpayable",
      "type": "function"
    },
    {
      "inputs": [],
      "name": "troveManager",
      "outputs": [
        {
          "internalType": "contract ITroveManager",
          "name": "",
          "type": "address"
        }
      ],
      "stateMutability": "view",
      "type": "function"
    },
    {
      "inputs": [
        {
          "internalType": "uint256",
          "name": "_NICR",
          "type": "uint256"
        },
        {
          "internalType": "address",
          "name": "_prevId",
          "type": "address"
        },
        {
          "internalType": "address",
          "name": "_nextId",
          "type": "address"
        }
      ],
      "name": "validInsertPosition",
      "outputs": [
        {
          "internalType": "bool",
          "name": "",
          "type": "bool"
        }
      ],
      "stateMutability": "view",
      "type": "function"
    }
  ],
  "transactionHash": "0xb090fc8cc28135332a8cebd672f31a488a0dfa62dff5054edc564d4bd82e1cf7",
  "args": [],
  "numDeployments": 1,
  "solcInputHash": "d5f53fb866e459e87a9a24e89566d411",
  "bytecode": "0x608060405234801561001057600080fd5b5061001a3361001f565b61006f565b600080546001600160a01b038381166001600160a01b0319831681178455604051919092169283917f8be0079c531659141344cd1fd0a4f28419497f9722a3daafe3b4186f6b6457e09190a35050565b6116be8061007e6000396000f3fe608060405234801561001057600080fd5b50600436106101425760003560e01c8063715018a6116100b8578063b72703ac1161007c578063b72703ac1461031c578063b7f8cf9b1461034b578063babd3d9a1461035e578063de8fa4311461036a578063f2fde38b14610372578063f376d7981461038557600080fd5b8063715018a61461024d57806373d4a13a14610255578063765e0159146102a25780638da5cb5b146102d3578063a3f4df7e146102e457600080fd5b8063416980dc1161010a578063416980dc146101c857806346f7cf87146101fb5780634d6228311461020e5780635dbe47e81461021f57806363e1d57c14610232578063681fe70c1461024457600080fd5b80631e2231431461014757806329092d0e1461016a5780632be212601461017f5780633d83908a146101925780633fce12d5146101a5575b600080fd5b6003546001600160a01b03165b6040516101619190611484565b60405180910390f35b61017d6101783660046114b4565b610398565b005b61017d61018d3660046114cf565b6103ac565b600254610154906001600160a01b031681565b6101b86101b336600461151c565b61042c565b6040519015158152602001610161565b6101db6101d636600461151c565b61044f565b604080516001600160a01b03938416815292909116602083015201610161565b61017d6102093660046114cf565b610479565b6004546001600160a01b0316610154565b6101b861022d3660046114b4565b61048e565b6005545b604051908152602001610161565b600654156101b8565b61017d6104ac565b600354600454600554600654610277936001600160a01b039081169316919084565b604080516001600160a01b039586168152949093166020850152918301526060820152608001610161565b6101546102b03660046114b4565b6001600160a01b0390811660009081526007602052604090205461010090041690565b6000546001600160a01b0316610154565b61030f6040518060400160405280600c81526020016b536f7274656454726f76657360a01b81525081565b6040516101619190611558565b61015461032a3660046114b4565b6001600160a01b039081166000908152600760205260409020600101541690565b600154610154906001600160a01b031681565b600554600654146101b8565b600654610236565b61017d6103803660046114b4565b6104c0565b61017d61039336600461151c565b610536565b6103a0610651565b6103a9816106c0565b50565b6002546001600160a01b03166103c1816108c5565b6103ca8561048e565b6103ef5760405162461bcd60e51b81526004016103e6906115a6565b60405180910390fd5b6000841161040f5760405162461bcd60e51b81526004016103e6906115f0565b610418856106c0565b6104258186868686610948565b5050505050565b600254600090610447906001600160a01b0316858585610cbf565b949350505050565b600254600090819061046c906001600160a01b0316868686610efb565b915091505b935093915050565b6002546001600160a01b0316610418816108c5565b6001600160a01b031660009081526007602052604090205460ff1690565b6104b46110be565b6104be6000611118565b565b6104c86110be565b6001600160a01b03811661052d5760405162461bcd60e51b815260206004820152602660248201527f4f776e61626c653a206e6577206f776e657220697320746865207a65726f206160448201526564647265737360d01b60648201526084016103e6565b6103a981611118565b61053e6110be565b6000831161058e5760405162461bcd60e51b815260206004820152601f60248201527f536f7274656454726f7665733a2053697a652063616e74206265207a65726f0060448201526064016103e6565b61059782611168565b6105a081611168565b6005839055600280546001600160a01b038085166001600160a01b03199283161790925560018054928416929091169190911790556040517f143219c9e69b09e07e095fcc889b43d8f46ca892bba65f08dc3a0050869a567890610605908490611484565b60405180910390a17f3ca631ffcd2a9b5d9ae18543fc82f58eb4ca33af9e6ab01b7a8e95331e6ed9858160405161063c9190611484565b60405180910390a161064c6104ac565b505050565b6002546001600160a01b031633146104be5760405162461bcd60e51b815260206004820152602c60248201527f536f7274656454726f7665733a2043616c6c6572206973206e6f74207468652060448201526b2a3937bb32a6b0b730b3b2b960a11b60648201526084016103e6565b6106c98161048e565b6106e55760405162461bcd60e51b81526004016103e6906115a6565b60065460011015610825576003546001600160a01b0390811690821603610752576001600160a01b0380821660009081526007602052604080822054600380546001600160a01b031990811661010090930490951691821790558252902060010180549091169055610842565b6004546001600160a01b03908116908216036107b6576001600160a01b0380821660009081526007602052604080822060010154600480546001600160a01b03191691909416908117909355918152208054610100600160a81b0319169055610842565b6001600160a01b038082166000908152600760205260408082208054600180830180548716865284862080546101009485900489168502610100600160a81b03199091161790555492549190910485168452919092200180546001600160a01b03191691909216179055610842565b600380546001600160a01b03199081169091556004805490911690555b6001600160a01b038116600090815260076020526040902080546001600160a81b0319168155600190810180546001600160a01b031916905560065461088791611211565b6006556040517fcfc24166db4bb677e857cacabd1541fb2b30645021b27c5130419589b84db52b906108ba908390611484565b60405180910390a150565b6001546001600160a01b03163314806108e65750336001600160a01b038216145b6103a95760405162461bcd60e51b815260206004820152602d60248201527f536f7274656454726f7665733a2043616c6c6572206973206e6569746865722060448201526c424f206e6f722054726f76654d60981b60648201526084016103e6565b6005546006540361099b5760405162461bcd60e51b815260206004820152601a60248201527f536f7274656454726f7665733a204c6973742069732066756c6c00000000000060448201526064016103e6565b6109a48461048e565b15610a065760405162461bcd60e51b815260206004820152602c60248201527f536f7274656454726f7665733a204c69737420616c726561647920636f6e746160448201526b696e7320746865206e6f646560a01b60648201526084016103e6565b6001600160a01b038416610a5c5760405162461bcd60e51b815260206004820152601f60248201527f536f7274656454726f7665733a2049642063616e6e6f74206265207a65726f0060448201526064016103e6565b60008311610a7c5760405162461bcd60e51b81526004016103e6906115f0565b8181610a8a87868484610cbf565b610aa057610a9a87868484610efb565b90925090505b6001600160a01b038087166000908152600760205260409020805460ff191660011790558216158015610ada57506001600160a01b038116155b15610b0f57600380546001600160a01b0388166001600160a01b03199182168117909255600480549091169091179055610c63565b6001600160a01b038216610b8357600380546001600160a01b03888116600081815260076020526040808220805495851661010002610100600160a81b0319909616959095179094558454909216825291902060010180546001600160a01b03199081168317909155825416179055610c63565b6001600160a01b038116610bf357600480546001600160a01b0388811660008181526007602052604080822060010180549585166001600160a01b031996871617905585549093168152919091208054610100600160a81b03191661010083021790558254909116179055610c63565b6001600160a01b038087166000818152600760205260408082208054858716610100818102610100600160a81b031993841617845560019384018054988b166001600160a01b0319998a168117909155865284862080549188029190931617909155835291200180549092161790555b600654610c71906001611226565b600655604080516001600160a01b0388168152602081018790527fe02b43adbee0c123de070a04554a71877a0007e2fc161466299cae3c094fe82f910160405180910390a150505050505050565b60006001600160a01b038316158015610cdf57506001600160a01b038216155b15610cf057600654155b9050610447565b6001600160a01b038316610d8d576003546001600160a01b038381169116148015610ce9575060405163b0d8e18160e01b81526001600160a01b0386169063b0d8e18190610d42908590600401611484565b602060405180830381865afa158015610d5f573d6000803e3d6000fd5b505050506040513d601f19601f82011682018060405250810190610d839190611633565b8410159050610447565b6001600160a01b038216610e2a576004546001600160a01b038481169116148015610ce9575060405163b0d8e18160e01b81526001600160a01b0386169063b0d8e18190610ddf908690600401611484565b602060405180830381865afa158015610dfc573d6000803e3d6000fd5b505050506040513d601f19601f82011682018060405250810190610e209190611633565b8411159050610447565b6001600160a01b0383811660009081526007602052604090205461010090048116908316148015610ec8575060405163b0d8e18160e01b815284906001600160a01b0387169063b0d8e18190610e84908790600401611484565b602060405180830381865afa158015610ea1573d6000803e3d6000fd5b505050506040513d601f19601f82011682018060405250810190610ec59190611633565b10155b8015610ce9575060405163b0d8e18160e01b81526001600160a01b0386169063b0d8e18190610d42908590600401611484565b60008083836001600160a01b03821615610f9957610f188261048e565b1580610f8f575060405163b0d8e18160e01b81526001600160a01b0389169063b0d8e18190610f4b908590600401611484565b602060405180830381865afa158015610f68573d6000803e3d6000fd5b505050506040513d601f19601f82011682018060405250810190610f8c9190611633565b87115b15610f9957600091505b6001600160a01b0381161561103157610fb18161048e565b1580611028575060405163b0d8e18160e01b81526001600160a01b0389169063b0d8e18190610fe4908490600401611484565b602060405180830381865afa158015611001573d6000803e3d6000fd5b505050506040513d601f19601f820116820180604052508101906110259190611633565b87105b15611031575060005b6001600160a01b03821615801561104f57506001600160a01b038116155b156110785760035461106d90899089906001600160a01b0316611232565b9350935050506110b5565b6001600160a01b0382166110915761106d88888361135e565b6001600160a01b0381166110aa5761106d888884611232565b61106d888884611232565b94509492505050565b6000546001600160a01b031633146104be5760405162461bcd60e51b815260206004820181905260248201527f4f776e61626c653a2063616c6c6572206973206e6f7420746865206f776e657260448201526064016103e6565b600080546001600160a01b038381166001600160a01b0319831681178455604051919092169283917f8be0079c531659141344cd1fd0a4f28419497f9722a3daafe3b4186f6b6457e09190a35050565b6001600160a01b0381166111be5760405162461bcd60e51b815260206004820152601e60248201527f4163636f756e742063616e6e6f74206265207a65726f2061646472657373000060448201526064016103e6565b803b8061120d5760405162461bcd60e51b815260206004820181905260248201527f4163636f756e7420636f64652073697a652063616e6e6f74206265207a65726f60448201526064016103e6565b5050565b600061121d8284611662565b90505b92915050565b600061121d8284611675565b60035460009081906001600160a01b0384811691161480156112c0575060405163b0d8e18160e01b81526001600160a01b0386169063b0d8e1819061127b908690600401611484565b602060405180830381865afa158015611298573d6000803e3d6000fd5b505050506040513d601f19601f820116820180604052508101906112bc9190611633565b8410155b156112d057506000905081610471565b6001600160a01b038084166000908152600760205260409020548491610100909104165b6001600160a01b03821615801590611315575061131387878484610cbf565b155b1561135257506001600160a01b039081166000908152600760205260408082205461010090819004841680845291909220549092919004166112f4565b90969095509350505050565b60045460009081906001600160a01b0384811691161480156113ec575060405163b0d8e18160e01b81526001600160a01b0386169063b0d8e181906113a7908690600401611484565b602060405180830381865afa1580156113c4573d6000803e3d6000fd5b505050506040513d601f19601f820116820180604052508101906113e89190611633565b8411155b156113fc57508190506000610471565b6001600160a01b038084166000908152600760205260409020600101548491165b6001600160a01b0382161580159061143e575061143c87878385610cbf565b155b1561147957506001600160a01b039081166000908152600760205260408082206001908101548416808452919092209091015490911661141d565b969095509350505050565b6001600160a01b0391909116815260200190565b80356001600160a01b03811681146114af57600080fd5b919050565b6000602082840312156114c657600080fd5b61121d82611498565b600080600080608085870312156114e557600080fd5b6114ee85611498565b93506020850135925061150360408601611498565b915061151160608601611498565b905092959194509250565b60008060006060848603121561153157600080fd5b8335925061154160208501611498565b915061154f60408501611498565b90509250925092565b600060208083528351808285015260005b8181101561158557858101830151858201604001528201611569565b506000604082860101526040601f19601f8301168501019250505092915050565b6020808252602a908201527f536f7274656454726f7665733a204c69737420646f6573206e6f7420636f6e74604082015269185a5b881d1a19481a5960b21b606082015260800190565b60208082526023908201527f536f7274656454726f7665733a204e494352206d75737420626520706f73697460408201526269766560e81b606082015260800190565b60006020828403121561164557600080fd5b5051919050565b634e487b7160e01b600052601160045260246000fd5b818103818111156112205761122061164c565b808201808211156112205761122061164c56fea2646970667358221220a9a1d6e5cf12ca4df854ab8e11cae4b9633efde4aa551898ad40a8d791a64c7b64736f6c63430008130033",
  "devdoc": {
    "kind": "dev",
    "methods": {
      "owner()": {
        "details": "Returns the address of the current owner."
      },
      "renounceOwnership()": {
        "details": "Leaves the contract without owner. It will not be possible to call `onlyOwner` functions. Can only be called by the current owner. NOTE: Renouncing ownership will leave the contract without an owner, thereby disabling any functionality that is only available to the owner."
      },
      "transferOwnership(address)": {
        "details": "Transfers ownership of the contract to a new account (`newOwner`). Can only be called by the current owner."
      }
    },
    "version": 1
  },
  "userdoc": {
    "kind": "user",
    "methods": {},
    "version": 1
  },
  "storageLayout": {
    "storage": [
      {
        "astId": 396,
        "contract": "contracts/SortedTroves.sol:SortedTroves",
        "label": "_owner",
        "offset": 0,
        "slot": "0",
        "type": "t_address"
      },
      {
        "astId": 14989,
        "contract": "contracts/SortedTroves.sol:SortedTroves",
        "label": "borrowerOperationsAddress",
        "offset": 0,
        "slot": "1",
        "type": "t_address"
      },
      {
        "astId": 14992,
        "contract": "contracts/SortedTroves.sol:SortedTroves",
        "label": "troveManager",
        "offset": 0,
        "slot": "2",
        "type": "t_contract(ITroveManager)25476"
      },
      {
        "astId": 15016,
        "contract": "contracts/SortedTroves.sol:SortedTroves",
        "label": "data",
        "offset": 0,
        "slot": "3",
        "type": "t_struct(Data)15013_storage"
      }
    ],
    "types": {
      "t_address": {
        "encoding": "inplace",
        "label": "address",
        "numberOfBytes": "20"
      },
      "t_bool": {
        "encoding": "inplace",
        "label": "bool",
        "numberOfBytes": "1"
      },
      "t_contract(ITroveManager)25476": {
        "encoding": "inplace",
        "label": "contract ITroveManager",
        "numberOfBytes": "20"
      },
      "t_mapping(t_address,t_struct(Node)14999_storage)": {
        "encoding": "mapping",
        "key": "t_address",
        "label": "mapping(address => struct SortedTroves.Node)",
        "numberOfBytes": "32",
        "value": "t_struct(Node)14999_storage"
      },
      "t_struct(Data)15013_storage": {
        "encoding": "inplace",
        "label": "struct SortedTroves.Data",
        "members": [
          {
            "astId": 15001,
            "contract": "contracts/SortedTroves.sol:SortedTroves",
            "label": "head",
            "offset": 0,
            "slot": "0",
            "type": "t_address"
          },
          {
            "astId": 15003,
            "contract": "contracts/SortedTroves.sol:SortedTroves",
            "label": "tail",
            "offset": 0,
            "slot": "1",
            "type": "t_address"
          },
          {
            "astId": 15005,
            "contract": "contracts/SortedTroves.sol:SortedTroves",
            "label": "maxSize",
            "offset": 0,
            "slot": "2",
            "type": "t_uint256"
          },
          {
            "astId": 15007,
            "contract": "contracts/SortedTroves.sol:SortedTroves",
            "label": "size",
            "offset": 0,
            "slot": "3",
            "type": "t_uint256"
          },
          {
            "astId": 15012,
            "contract": "contracts/SortedTroves.sol:SortedTroves",
            "label": "nodes",
            "offset": 0,
            "slot": "4",
            "type": "t_mapping(t_address,t_struct(Node)14999_storage)"
          }
        ],
        "numberOfBytes": "160"
      },
      "t_struct(Node)14999_storage": {
        "encoding": "inplace",
        "label": "struct SortedTroves.Node",
        "members": [
          {
            "astId": 14994,
            "contract": "contracts/SortedTroves.sol:SortedTroves",
            "label": "exists",
            "offset": 0,
            "slot": "0",
            "type": "t_bool"
          },
          {
            "astId": 14996,
            "contract": "contracts/SortedTroves.sol:SortedTroves",
            "label": "nextId",
            "offset": 1,
            "slot": "0",
            "type": "t_address"
          },
          {
            "astId": 14998,
            "contract": "contracts/SortedTroves.sol:SortedTroves",
            "label": "prevId",
            "offset": 0,
            "slot": "1",
            "type": "t_address"
          }
        ],
        "numberOfBytes": "64"
      },
      "t_uint256": {
        "encoding": "inplace",
        "label": "uint256",
        "numberOfBytes": "32"
      }
    }
  }
}