{
  "address": "0xDc8D9fb1b7d6c4913cD637796E2be242e91f1DDb",
  "abi": [
    {
      "anonymous": false,
      "inputs": [
        {
          "indexed": false,
          "internalType": "address",
          "name": "_newActivePoolAddress",
          "type": "address"
        }
      ],
      "name": "ActivePoolAddressChanged",
      "type": "event"
    },
    {
      "anonymous": false,
      "inputs": [
        {
          "indexed": false,
          "internalType": "uint256",
          "name": "_BaseFeeLMADebt",
          "type": "uint256"
        }
      ],
      "name": "ActivePoolBaseFeeLMADebtUpdated",
      "type": "event"
    },
    {
      "anonymous": false,
      "inputs": [
        {
          "indexed": false,
          "internalType": "uint256",
          "name": "_WstETH",
          "type": "uint256"
        }
      ],
      "name": "ActivePoolWStETHBalanceUpdated",
      "type": "event"
    },
    {
      "anonymous": false,
      "inputs": [
        {
          "indexed": false,
          "internalType": "uint256",
          "name": "_newBalance",
          "type": "uint256"
        }
      ],
      "name": "BaseFeeLMABalanceUpdated",
      "type": "event"
    },
    {
      "anonymous": false,
      "inputs": [
        {
          "indexed": false,
          "internalType": "address",
          "name": "_newBorrowerOperationsAddress",
          "type": "address"
        }
      ],
      "name": "BorrowerOperationsAddressChanged",
      "type": "event"
    },
    {
      "anonymous": false,
      "inputs": [
        {
          "indexed": false,
          "internalType": "address",
          "name": "_newDefaultPoolAddress",
          "type": "address"
        }
      ],
      "name": "DefaultPoolAddressChanged",
      "type": "event"
    },
    {
      "anonymous": false,
      "inputs": [
        {
          "indexed": false,
          "internalType": "address",
          "name": "_feesRouter",
          "type": "address"
        }
      ],
      "name": "FeesRouterAddressUpdated",
      "type": "event"
    },
    {
      "anonymous": false,
      "inputs": [
        {
          "indexed": true,
          "internalType": "address",
          "name": "previousOwner",
          "type": "address"
        },
        {
          "indexed": true,
          "internalType": "address",
          "name": "newOwner",
          "type": "address"
        }
      ],
      "name": "OwnershipTransferred",
      "type": "event"
    },
    {
      "anonymous": false,
      "inputs": [
        {
          "indexed": false,
          "internalType": "address",
          "name": "_newStabilityPoolAddress",
          "type": "address"
        }
      ],
      "name": "StabilityPoolAddressChanged",
      "type": "event"
    },
    {
      "anonymous": false,
      "inputs": [
        {
          "indexed": false,
          "internalType": "address",
          "name": "_newTroveManagerAddress",
          "type": "address"
        }
      ],
      "name": "TroveManagerAddressChanged",
      "type": "event"
    },
    {
      "anonymous": false,
      "inputs": [
        {
          "indexed": false,
          "internalType": "uint256",
          "name": "_newBalance",
          "type": "uint256"
        }
      ],
      "name": "WStETHBalanceUpdated",
      "type": "event"
    },
    {
      "anonymous": false,
      "inputs": [
        {
          "indexed": false,
          "internalType": "address",
          "name": "_to",
          "type": "address"
        },
        {
          "indexed": false,
          "internalType": "uint256",
          "name": "_amount",
          "type": "uint256"
        }
      ],
      "name": "WStETHSent",
      "type": "event"
    },
    {
      "anonymous": false,
      "inputs": [
        {
          "indexed": false,
          "internalType": "contract IERC20",
          "name": "_WStEthAddress",
          "type": "address"
        }
      ],
      "name": "WStETHTokenAddressUpdated",
      "type": "event"
    },
    {
      "inputs": [],
      "name": "NAME",
      "outputs": [
        {
          "internalType": "string",
          "name": "",
          "type": "string"
        }
      ],
      "stateMutability": "view",
      "type": "function"
    },
    {
      "inputs": [],
      "name": "WStETHToken",
      "outputs": [
        {
          "internalType": "contract IERC20",
          "name": "",
          "type": "address"
        }
      ],
      "stateMutability": "view",
      "type": "function"
    },
    {
      "inputs": [],
      "name": "borrowerOperationsAddress",
      "outputs": [
        {
          "internalType": "address",
          "name": "",
          "type": "address"
        }
      ],
      "stateMutability": "view",
      "type": "function"
    },
    {
      "inputs": [
        {
          "internalType": "uint256",
          "name": "_amount",
          "type": "uint256"
        }
      ],
      "name": "decreaseBaseFeeLMADebt",
      "outputs": [],
      "stateMutability": "nonpayable",
      "type": "function"
    },
    {
      "inputs": [],
      "name": "defaultPoolAddress",
      "outputs": [
        {
          "internalType": "address",
          "name": "",
          "type": "address"
        }
      ],
      "stateMutability": "view",
      "type": "function"
    },
    {
      "inputs": [],
      "name": "feesRouter",
      "outputs": [
        {
          "internalType": "address",
          "name": "",
          "type": "address"
        }
      ],
      "stateMutability": "view",
      "type": "function"
    },
    {
      "inputs": [],
      "name": "getBaseFeeLMADebt",
      "outputs": [
        {
          "internalType": "uint256",
          "name": "",
          "type": "uint256"
        }
      ],
      "stateMutability": "view",
      "type": "function"
    },
    {
      "inputs": [],
      "name": "getWStETH",
      "outputs": [
        {
          "internalType": "uint256",
          "name": "",
          "type": "uint256"
        }
      ],
      "stateMutability": "view",
      "type": "function"
    },
    {
      "inputs": [
        {
          "internalType": "uint256",
          "name": "_amount",
          "type": "uint256"
        }
      ],
      "name": "increaseBalance",
      "outputs": [],
      "stateMutability": "nonpayable",
      "type": "function"
    },
    {
      "inputs": [
        {
          "internalType": "uint256",
          "name": "_amount",
          "type": "uint256"
        }
      ],
      "name": "increaseBaseFeeLMADebt",
      "outputs": [],
      "stateMutability": "nonpayable",
      "type": "function"
    },
    {
      "inputs": [],
      "name": "owner",
      "outputs": [
        {
          "internalType": "address",
          "name": "",
          "type": "address"
        }
      ],
      "stateMutability": "view",
      "type": "function"
    },
    {
      "inputs": [],
      "name": "renounceOwnership",
      "outputs": [],
      "stateMutability": "nonpayable",
      "type": "function"
    },
    {
      "inputs": [
        {
          "internalType": "address",
          "name": "_account",
          "type": "address"
        },
        {
          "internalType": "uint256",
          "name": "_amount",
          "type": "uint256"
        }
      ],
      "name": "sendWStETH",
      "outputs": [],
      "stateMutability": "nonpayable",
      "type": "function"
    },
    {
      "inputs": [
        {
          "internalType": "address",
          "name": "_borrowerOperationsAddress",
          "type": "address"
        },
        {
          "internalType": "address",
          "name": "_troveManagerAddress",
          "type": "address"
        },
        {
          "internalType": "address",
          "name": "_stabilityPoolAddress",
          "type": "address"
        },
        {
          "internalType": "address",
          "name": "_defaultPoolAddress",
          "type": "address"
        },
        {
          "internalType": "contract IERC20",
          "name": "_wStETHTokenAddress",
          "type": "address"
        },
        {
          "internalType": "address",
          "name": "_feesRouter",
          "type": "address"
        }
      ],
      "name": "setAddresses",
      "outputs": [],
      "stateMutability": "nonpayable",
      "type": "function"
    },
    {
      "inputs": [],
      "name": "stabilityPoolAddress",
      "outputs": [
        {
          "internalType": "address",
          "name": "",
          "type": "address"
        }
      ],
      "stateMutability": "view",
      "type": "function"
    },
    {
      "inputs": [
        {
          "internalType": "address",
          "name": "newOwner",
          "type": "address"
        }
      ],
      "name": "transferOwnership",
      "outputs": [],
      "stateMutability": "nonpayable",
      "type": "function"
    },
    {
      "inputs": [],
      "name": "troveManagerAddress",
      "outputs": [
        {
          "internalType": "address",
          "name": "",
          "type": "address"
        }
      ],
      "stateMutability": "view",
      "type": "function"
    }
  ],
  "transactionHash": "0x30ef5702a3f0d133edfca7bdb089ea6aa41aae64f055f82ac46790eba62ed996",
  "args": [],
  "numDeployments": 1,
  "solcInputHash": "7e444902d0df09314ef438204747caa1",
  "bytecode": "0x608060405234801561001057600080fd5b5061001a3361001f565b61006f565b600080546001600160a01b038381166001600160a01b0319831681178455604051919092169283917f8be0079c531659141344cd1fd0a4f28419497f9722a3daafe3b4186f6b6457e09190a35050565b610f3e8061007e6000396000f3fe608060405234801561001057600080fd5b50600436106100eb5760003560e01c8063768013fe11610092578063768013fe146101945780638da5cb5b146101a7578063a3f4df7e146101b8578063aac1846f146101ee578063b7f8cf9b14610201578063c42dab9914610214578063ee2ec97014610227578063f2fde38b1461022f578063fded29111461024257600080fd5b80630b622ab2146100f057806316daab2114610119578063262b89011461012e5780633e4ccb401461014157806356cc4dec146101545780635a4d28bb146101665780636cfb6bf914610179578063715018a61461018c575b600080fd5b600354610103906001600160a01b031681565b6040516101109190610d23565b60405180910390f35b61012c610127366004610d4c565b610255565b005b61012c61013c366004610d78565b6102ff565b61012c61014f366004610d78565b610350565b6008545b604051908152602001610110565b600254610103906001600160a01b031681565b61012c610187366004610d91565b61039a565b61012c610595565b61012c6101a2366004610d78565b6105a9565b6000546001600160a01b0316610103565b6101e16040518060400160405280600a8152602001691058dd1a5d99541bdbdb60b21b81525081565b6040516101109190610e37565b600454610103906001600160a01b031681565b600154610103906001600160a01b031681565b600554610103906001600160a01b031681565b6101586105be565b61012c61023d366004610e6a565b6105d6565b600654610103906001600160a01b031681565b61025d610654565b60075461026a9082610709565b60078190556040519081527f946b366c13c109c7e52d2b5878a04781716a2beb0ad837c150def3ec71a2a02b9060200160405180910390a1604080516001600160a01b0384168152602081018390527f9a5b7586c9b4a7dfde4e7e9fc43ea321a640878174243b7973581b604d3fed27910160405180910390a16006546102fb906001600160a01b0316838361071e565b5050565b610307610775565b6008546103149082610814565b60088190556040519081527f28fee89e3458b7184495b046ec470df65a39c8d93c072550bf5a91ef83077295906020015b60405180910390a150565b610358610820565b6007546103659082610814565b60078190556040519081527f946b366c13c109c7e52d2b5878a04781716a2beb0ad837c150def3ec71a2a02b90602001610345565b6103a26108a9565b6103ab86610903565b6103b485610903565b6103bd84610903565b6103c683610903565b6103cf82610903565b6103d881610903565b600180546001600160a01b03199081166001600160a01b0389811691909117909255600280548216888416179055600380548216878416179055600480548216868416179055600680548216858416179055600580549091169183169190911790556040517f3ca631ffcd2a9b5d9ae18543fc82f58eb4ca33af9e6ab01b7a8e95331e6ed9859061046a908890610d23565b60405180910390a17f143219c9e69b09e07e095fcc889b43d8f46ca892bba65f08dc3a0050869a5678856040516104a19190610d23565b60405180910390a17f82966d27eea39b038ee0fa30cd16532bb24f6e65d31cb58fb227aa5766cdcc7f846040516104d89190610d23565b60405180910390a17f5ee0cae2f063ed938bb55046f6a932fb6ae792bf43624806bb90abe68a50be9b8360405161050f9190610d23565b60405180910390a17fa10b18a97e87c5b49c90aaeba95303db140aa131ee9cbdb946ffce5b50ccf164826040516105469190610d23565b60405180910390a17f6877e00d9059f8716bd795b5d4c2c89a4bc3cef71ba3dd99b168ac9cc1f2a6c28160405161057d9190610d23565b60405180910390a161058d610595565b505050505050565b61059d6108a9565b6105a760006109a8565b565b6105b16109f8565b6008546103149082610709565b600080600754116105cf5750600190565b5060075490565b6105de6108a9565b6001600160a01b0381166106485760405162461bcd60e51b815260206004820152602660248201527f4f776e61626c653a206e6577206f776e657220697320746865207a65726f206160448201526564647265737360d01b60648201526084015b60405180910390fd5b610651816109a8565b50565b6001546001600160a01b031633148061067757506002546001600160a01b031633145b8061068c57506003546001600160a01b031633145b806106a157506005546001600160a01b031633145b6105a75760405162461bcd60e51b815260206004820152603360248201527f416374697665506f6f6c3a2043616c6c6572206973206e65697468657220424f604482015272103737b9102a26903737b910232937baba32b960691b606482015260840161063f565b60006107158284610ea4565b90505b92915050565b604080516001600160a01b038416602482015260448082018490528251808303909101815260649091019091526020810180516001600160e01b031663a9059cbb60e01b179052610770908490610abe565b505050565b6001546001600160a01b031633148061079857506002546001600160a01b031633145b6105a75760405162461bcd60e51b815260206004820152604160248201527f416374697665506f6f6c3a2043616c6c6572206973206e65697468657220426f60448201527f72726f7765724f7065726174696f6e73206e6f722054726f76654d616e6167656064820152603960f91b608482015260a40161063f565b60006107158284610eb7565b6001546001600160a01b031633148061084357506004546001600160a01b031633145b6105a75760405162461bcd60e51b815260206004820152603160248201527f416374697665506f6f6c3a2043616c6c6572206973206e65697468657220424f604482015270081b9bdc88111959985d5b1d08141bdbdb607a1b606482015260840161063f565b6000546001600160a01b031633146105a75760405162461bcd60e51b815260206004820181905260248201527f4f776e61626c653a2063616c6c6572206973206e6f7420746865206f776e6572604482015260640161063f565b6001600160a01b0381166109595760405162461bcd60e51b815260206004820152601e60248201527f4163636f756e742063616e6e6f74206265207a65726f20616464726573730000604482015260640161063f565b803b806102fb5760405162461bcd60e51b815260206004820181905260248201527f4163636f756e7420636f64652073697a652063616e6e6f74206265207a65726f604482015260640161063f565b600080546001600160a01b038381166001600160a01b0319831681178455604051919092169283917f8be0079c531659141344cd1fd0a4f28419497f9722a3daafe3b4186f6b6457e09190a35050565b6001546001600160a01b0316331480610a1b57506002546001600160a01b031633145b80610a3057506003546001600160a01b031633145b6105a75760405162461bcd60e51b815260206004820152605360248201527f416374697665506f6f6c3a2043616c6c6572206973206e65697468657220426f60448201527f72726f7765724f7065726174696f6e73206e6f722054726f76654d616e6167656064820152721c881b9bdc8814dd18589a5b1a5d1e541bdbdb606a1b608482015260a40161063f565b6000610b13826040518060400160405280602081526020017f5361666545524332303a206c6f772d6c6576656c2063616c6c206661696c6564815250856001600160a01b0316610b939092919063ffffffff16565b9050805160001480610b34575080806020019051810190610b349190610eca565b6107705760405162461bcd60e51b815260206004820152602a60248201527f5361666545524332303a204552433230206f7065726174696f6e20646964206e6044820152691bdd081cdd58d8d9595960b21b606482015260840161063f565b6060610ba28484600085610baa565b949350505050565b606082471015610c0b5760405162461bcd60e51b815260206004820152602660248201527f416464726573733a20696e73756666696369656e742062616c616e636520666f6044820152651c8818d85b1b60d21b606482015260840161063f565b600080866001600160a01b03168587604051610c279190610eec565b60006040518083038185875af1925050503d8060008114610c64576040519150601f19603f3d011682016040523d82523d6000602084013e610c69565b606091505b5091509150610c7a87838387610c85565b979650505050505050565b60608315610cf4578251600003610ced576001600160a01b0385163b610ced5760405162461bcd60e51b815260206004820152601d60248201527f416464726573733a2063616c6c20746f206e6f6e2d636f6e7472616374000000604482015260640161063f565b5081610ba2565b610ba28383815115610d095781518083602001fd5b8060405162461bcd60e51b815260040161063f9190610e37565b6001600160a01b0391909116815260200190565b6001600160a01b038116811461065157600080fd5b60008060408385031215610d5f57600080fd5b8235610d6a81610d37565b946020939093013593505050565b600060208284031215610d8a57600080fd5b5035919050565b60008060008060008060c08789031215610daa57600080fd5b8635610db581610d37565b95506020870135610dc581610d37565b94506040870135610dd581610d37565b93506060870135610de581610d37565b92506080870135610df581610d37565b915060a0870135610e0581610d37565b809150509295509295509295565b60005b83811015610e2e578181015183820152602001610e16565b50506000910152565b6020815260008251806020840152610e56816040850160208701610e13565b601f01601f19169190910160400192915050565b600060208284031215610e7c57600080fd5b8135610e8781610d37565b9392505050565b634e487b7160e01b600052601160045260246000fd5b8181038181111561071857610718610e8e565b8082018082111561071857610718610e8e565b600060208284031215610edc57600080fd5b81518015158114610e8757600080fd5b60008251610efe818460208701610e13565b919091019291505056fea26469706673582212206a2fcd0c9ea1e32cec95eaa1003643e03956a9eaf3a88cc42ce9d15cc82171e464736f6c63430008130033",
  "devdoc": {
    "kind": "dev",
    "methods": {
      "owner()": {
        "details": "Returns the address of the current owner."
      },
      "renounceOwnership()": {
        "details": "Leaves the contract without owner. It will not be possible to call `onlyOwner` functions. Can only be called by the current owner. NOTE: Renouncing ownership will leave the contract without an owner, thereby disabling any functionality that is only available to the owner."
      },
      "transferOwnership(address)": {
        "details": "Transfers ownership of the contract to a new account (`newOwner`). Can only be called by the current owner."
      }
    },
    "version": 1
  },
  "userdoc": {
    "kind": "user",
    "methods": {
      "increaseBalance(uint256)": {
        "notice": "Hedgehog Updates: Using increaseBalance function to increase activePool balance instead of fallback function"
      },
      "sendWStETH(address,uint256)": {
        "notice": "HEDGEHOG UPDATES: use SafeERC20 safe transfer instead of native token transfer      Now also fees router may call sendWStETH function"
      },
      "setAddresses(address,address,address,address,address,address)": {
        "notice": "HEDGEHOG UPDATES: ERC20 is used as a collateral instead of native token. Setting erc20 address in the initialisation"
      }
    },
    "notice": "Fork of Liquity's Active Pool. Most of the logic remains unchanged. Changes to the contract: - Raised pragma version - Removed an import of ActivePool Interface - Updated variable names and docs to refer to BaseFeeLMA token and wwstETH as a collateral - Collateral is now an ERC20 token instead of a native one Even though SafeMath is no longer required, the decision was made to keep it to avoid human factor errors The Active Pool holds the WstETH collateral and BaseFeeLMA debt (but not BaseFeeLMA tokens) for all active troves. When a trove is liquidated, it's WstETH and BaseFeeLMA debt are transferred from the Active Pool, to either the Stability Pool, the Default Pool, or both, depending on the liquidation conditions.",
    "version": 1
  },
  "storageLayout": {
    "storage": [
      {
        "astId": 396,
        "contract": "contracts/ActivePool.sol:ActivePool",
        "label": "_owner",
        "offset": 0,
        "slot": "0",
        "type": "t_address"
      },
      {
        "astId": 3530,
        "contract": "contracts/ActivePool.sol:ActivePool",
        "label": "borrowerOperationsAddress",
        "offset": 0,
        "slot": "1",
        "type": "t_address"
      },
      {
        "astId": 3532,
        "contract": "contracts/ActivePool.sol:ActivePool",
        "label": "troveManagerAddress",
        "offset": 0,
        "slot": "2",
        "type": "t_address"
      },
      {
        "astId": 3534,
        "contract": "contracts/ActivePool.sol:ActivePool",
        "label": "stabilityPoolAddress",
        "offset": 0,
        "slot": "3",
        "type": "t_address"
      },
      {
        "astId": 3536,
        "contract": "contracts/ActivePool.sol:ActivePool",
        "label": "defaultPoolAddress",
        "offset": 0,
        "slot": "4",
        "type": "t_address"
      },
      {
        "astId": 3538,
        "contract": "contracts/ActivePool.sol:ActivePool",
        "label": "feesRouter",
        "offset": 0,
        "slot": "5",
        "type": "t_address"
      },
      {
        "astId": 3541,
        "contract": "contracts/ActivePool.sol:ActivePool",
        "label": "WStETHToken",
        "offset": 0,
        "slot": "6",
        "type": "t_contract(IERC20)1166"
      },
      {
        "astId": 3543,
        "contract": "contracts/ActivePool.sol:ActivePool",
        "label": "WStETH",
        "offset": 0,
        "slot": "7",
        "type": "t_uint256"
      },
      {
        "astId": 3545,
        "contract": "contracts/ActivePool.sol:ActivePool",
        "label": "BaseFeeLMADebt",
        "offset": 0,
        "slot": "8",
        "type": "t_uint256"
      }
    ],
    "types": {
      "t_address": {
        "encoding": "inplace",
        "label": "address",
        "numberOfBytes": "20"
      },
      "t_contract(IERC20)1166": {
        "encoding": "inplace",
        "label": "contract IERC20",
        "numberOfBytes": "20"
      },
      "t_uint256": {
        "encoding": "inplace",
        "label": "uint256",
        "numberOfBytes": "32"
      }
    }
  }
}