{
  "address": "0xc00BFA6103A6C1b455FFAf4fd54329a308e72232",
  "abi": [
    {
      "inputs": [],
      "name": "TroveAdjustedThisBlock",
      "type": "error"
    },
    {
      "anonymous": false,
      "inputs": [
        {
          "indexed": false,
          "internalType": "address",
          "name": "_activePoolAddress",
          "type": "address"
        }
      ],
      "name": "ActivePoolAddressChanged",
      "type": "event"
    },
    {
      "anonymous": false,
      "inputs": [
        {
          "indexed": true,
          "internalType": "address",
          "name": "_borrower",
          "type": "address"
        },
        {
          "indexed": false,
          "internalType": "uint256",
          "name": "_BaseFeeLMAFee",
          "type": "uint256"
        }
      ],
      "name": "BaseFeeLMABorrowingFeePaid",
      "type": "event"
    },
    {
      "anonymous": false,
      "inputs": [
        {
          "indexed": false,
          "internalType": "address",
          "name": "_BaseFeeLMATokenAddress",
          "type": "address"
        }
      ],
      "name": "BaseFeeLMATokenAddressChanged",
      "type": "event"
    },
    {
      "anonymous": false,
      "inputs": [
        {
          "indexed": false,
          "internalType": "address",
          "name": "_collSurplusPoolAddress",
          "type": "address"
        }
      ],
      "name": "CollSurplusPoolAddressChanged",
      "type": "event"
    },
    {
      "anonymous": false,
      "inputs": [
        {
          "indexed": false,
          "internalType": "address",
          "name": "_defaultPoolAddress",
          "type": "address"
        }
      ],
      "name": "DefaultPoolAddressChanged",
      "type": "event"
    },
    {
      "anonymous": false,
      "inputs": [
        {
          "indexed": false,
          "internalType": "contract IFeesRouter",
          "name": "_feesRouter",
          "type": "address"
        }
      ],
      "name": "FeesRouterAddressUpdated",
      "type": "event"
    },
    {
      "anonymous": false,
      "inputs": [
        {
          "indexed": false,
          "internalType": "address",
          "name": "_gasPoolAddress",
          "type": "address"
        }
      ],
      "name": "GasPoolAddressChanged",
      "type": "event"
    },
    {
      "anonymous": false,
      "inputs": [
        {
          "indexed": true,
          "internalType": "address",
          "name": "previousOwner",
          "type": "address"
        },
        {
          "indexed": true,
          "internalType": "address",
          "name": "newOwner",
          "type": "address"
        }
      ],
      "name": "OwnershipTransferred",
      "type": "event"
    },
    {
      "anonymous": false,
      "inputs": [
        {
          "indexed": false,
          "internalType": "address",
          "name": "_newPriceFeedAddress",
          "type": "address"
        }
      ],
      "name": "PriceFeedAddressChanged",
      "type": "event"
    },
    {
      "anonymous": false,
      "inputs": [
        {
          "indexed": false,
          "internalType": "address",
          "name": "_sortedTrovesAddress",
          "type": "address"
        }
      ],
      "name": "SortedTrovesAddressChanged",
      "type": "event"
    },
    {
      "anonymous": false,
      "inputs": [
        {
          "indexed": false,
          "internalType": "address",
          "name": "_stabilityPoolAddress",
          "type": "address"
        }
      ],
      "name": "StabilityPoolAddressChanged",
      "type": "event"
    },
    {
      "anonymous": false,
      "inputs": [
        {
          "indexed": true,
          "internalType": "address",
          "name": "_borrower",
          "type": "address"
        },
        {
          "indexed": false,
          "internalType": "uint256",
          "name": "arrayIndex",
          "type": "uint256"
        }
      ],
      "name": "TroveCreated",
      "type": "event"
    },
    {
      "anonymous": false,
      "inputs": [
        {
          "indexed": false,
          "internalType": "address",
          "name": "_newTroveManagerAddress",
          "type": "address"
        }
      ],
      "name": "TroveManagerAddressChanged",
      "type": "event"
    },
    {
      "anonymous": false,
      "inputs": [
        {
          "indexed": true,
          "internalType": "address",
          "name": "_borrower",
          "type": "address"
        },
        {
          "indexed": false,
          "internalType": "uint256",
          "name": "_debt",
          "type": "uint256"
        },
        {
          "indexed": false,
          "internalType": "uint256",
          "name": "_coll",
          "type": "uint256"
        },
        {
          "indexed": false,
          "internalType": "uint256",
          "name": "stake",
          "type": "uint256"
        },
        {
          "indexed": false,
          "internalType": "enum BorrowerOperations.BorrowerOperation",
          "name": "operation",
          "type": "uint8"
        }
      ],
      "name": "TroveUpdated",
      "type": "event"
    },
    {
      "anonymous": false,
      "inputs": [
        {
          "indexed": false,
          "internalType": "contract IERC20",
          "name": "_WStEthAddress",
          "type": "address"
        }
      ],
      "name": "WStETHTokenAddressUpdated",
      "type": "event"
    },
    {
      "inputs": [],
      "name": "BORROWING_FEE_FLOOR",
      "outputs": [
        {
          "internalType": "uint256",
          "name": "",
          "type": "uint256"
        }
      ],
      "stateMutability": "view",
      "type": "function"
    },
    {
      "inputs": [],
      "name": "BaseFeeLMA_GAS_COMPENSATION",
      "outputs": [
        {
          "internalType": "uint256",
          "name": "",
          "type": "uint256"
        }
      ],
      "stateMutability": "view",
      "type": "function"
    },
    {
      "inputs": [],
      "name": "CCR",
      "outputs": [
        {
          "internalType": "uint256",
          "name": "",
          "type": "uint256"
        }
      ],
      "stateMutability": "view",
      "type": "function"
    },
    {
      "inputs": [],
      "name": "DECIMAL_PRECISION",
      "outputs": [
        {
          "internalType": "uint256",
          "name": "",
          "type": "uint256"
        }
      ],
      "stateMutability": "view",
      "type": "function"
    },
    {
      "inputs": [],
      "name": "MCR",
      "outputs": [
        {
          "internalType": "uint256",
          "name": "",
          "type": "uint256"
        }
      ],
      "stateMutability": "view",
      "type": "function"
    },
    {
      "inputs": [],
      "name": "MIN_NET_DEBT",
      "outputs": [
        {
          "internalType": "uint256",
          "name": "",
          "type": "uint256"
        }
      ],
      "stateMutability": "view",
      "type": "function"
    },
    {
      "inputs": [],
      "name": "NAME",
      "outputs": [
        {
          "internalType": "string",
          "name": "",
          "type": "string"
        }
      ],
      "stateMutability": "view",
      "type": "function"
    },
    {
      "inputs": [],
      "name": "PERCENT_DIVISOR",
      "outputs": [
        {
          "internalType": "uint256",
          "name": "",
          "type": "uint256"
        }
      ],
      "stateMutability": "view",
      "type": "function"
    },
    {
      "inputs": [],
      "name": "WStETHToken",
      "outputs": [
        {
          "internalType": "contract IERC20",
          "name": "",
          "type": "address"
        }
      ],
      "stateMutability": "view",
      "type": "function"
    },
    {
      "inputs": [],
      "name": "_100pct",
      "outputs": [
        {
          "internalType": "uint256",
          "name": "",
          "type": "uint256"
        }
      ],
      "stateMutability": "view",
      "type": "function"
    },
    {
      "inputs": [],
      "name": "activePool",
      "outputs": [
        {
          "internalType": "contract IActivePool",
          "name": "",
          "type": "address"
        }
      ],
      "stateMutability": "view",
      "type": "function"
    },
    {
      "inputs": [
        {
          "internalType": "address",
          "name": "_upperHint",
          "type": "address"
        },
        {
          "internalType": "address",
          "name": "_lowerHint",
          "type": "address"
        },
        {
          "internalType": "uint256",
          "name": "_amount",
          "type": "uint256"
        }
      ],
      "name": "addColl",
      "outputs": [],
      "stateMutability": "nonpayable",
      "type": "function"
    },
    {
      "inputs": [
        {
          "internalType": "uint256",
          "name": "_maxFeePercentage",
          "type": "uint256"
        },
        {
          "internalType": "uint256",
          "name": "_collWithdrawal",
          "type": "uint256"
        },
        {
          "internalType": "uint256",
          "name": "_collIncrease",
          "type": "uint256"
        },
        {
          "internalType": "uint256",
          "name": "_BaseFeeLMAChange",
          "type": "uint256"
        },
        {
          "internalType": "bool",
          "name": "_isDebtIncrease",
          "type": "bool"
        },
        {
          "internalType": "address",
          "name": "_upperHint",
          "type": "address"
        },
        {
          "internalType": "address",
          "name": "_lowerHint",
          "type": "address"
        }
      ],
      "name": "adjustTrove",
      "outputs": [],
      "stateMutability": "nonpayable",
      "type": "function"
    },
    {
      "inputs": [],
      "name": "claimCollateral",
      "outputs": [],
      "stateMutability": "nonpayable",
      "type": "function"
    },
    {
      "inputs": [],
      "name": "closeTrove",
      "outputs": [],
      "stateMutability": "nonpayable",
      "type": "function"
    },
    {
      "inputs": [
        {
          "internalType": "uint256",
          "name": "_coll",
          "type": "uint256"
        },
        {
          "internalType": "uint256",
          "name": "_debt",
          "type": "uint256"
        }
      ],
      "name": "computeUnreliableCR",
      "outputs": [
        {
          "internalType": "uint256",
          "name": "",
          "type": "uint256"
        }
      ],
      "stateMutability": "view",
      "type": "function"
    },
    {
      "inputs": [],
      "name": "defaultPool",
      "outputs": [
        {
          "internalType": "contract IDefaultPool",
          "name": "",
          "type": "address"
        }
      ],
      "stateMutability": "view",
      "type": "function"
    },
    {
      "inputs": [],
      "name": "feesRouter",
      "outputs": [
        {
          "internalType": "contract IFeesRouter",
          "name": "",
          "type": "address"
        }
      ],
      "stateMutability": "view",
      "type": "function"
    },
    {
      "inputs": [
        {
          "internalType": "uint256",
          "name": "_debt",
          "type": "uint256"
        }
      ],
      "name": "getCompositeDebt",
      "outputs": [
        {
          "internalType": "uint256",
          "name": "",
          "type": "uint256"
        }
      ],
      "stateMutability": "pure",
      "type": "function"
    },
    {
      "inputs": [],
      "name": "getEntireSystemColl",
      "outputs": [
        {
          "internalType": "uint256",
          "name": "entireSystemColl",
          "type": "uint256"
        }
      ],
      "stateMutability": "view",
      "type": "function"
    },
    {
      "inputs": [],
      "name": "getEntireSystemDebt",
      "outputs": [
        {
          "internalType": "uint256",
          "name": "entireSystemDebt",
          "type": "uint256"
        }
      ],
      "stateMutability": "view",
      "type": "function"
    },
    {
      "inputs": [
        {
          "internalType": "address",
          "name": "_borrower",
          "type": "address"
        },
        {
          "internalType": "address",
          "name": "_upperHint",
          "type": "address"
        },
        {
          "internalType": "address",
          "name": "_lowerHint",
          "type": "address"
        },
        {
          "internalType": "uint256",
          "name": "_amount",
          "type": "uint256"
        }
      ],
      "name": "moveWStETHGainToTrove",
      "outputs": [],
      "stateMutability": "nonpayable",
      "type": "function"
    },
    {
      "inputs": [
        {
          "internalType": "uint256",
          "name": "_maxFeePercentage",
          "type": "uint256"
        },
        {
          "internalType": "uint256",
          "name": "_BaseFeeLMAAmount",
          "type": "uint256"
        },
        {
          "internalType": "uint256",
          "name": "_collAmount",
          "type": "uint256"
        },
        {
          "internalType": "address",
          "name": "_upperHint",
          "type": "address"
        },
        {
          "internalType": "address",
          "name": "_lowerHint",
          "type": "address"
        }
      ],
      "name": "openTrove",
      "outputs": [],
      "stateMutability": "nonpayable",
      "type": "function"
    },
    {
      "inputs": [],
      "name": "owner",
      "outputs": [
        {
          "internalType": "address",
          "name": "",
          "type": "address"
        }
      ],
      "stateMutability": "view",
      "type": "function"
    },
    {
      "inputs": [],
      "name": "priceFeed",
      "outputs": [
        {
          "internalType": "contract IPriceFeed",
          "name": "",
          "type": "address"
        }
      ],
      "stateMutability": "view",
      "type": "function"
    },
    {
      "inputs": [],
      "name": "renounceOwnership",
      "outputs": [],
      "stateMutability": "nonpayable",
      "type": "function"
    },
    {
      "inputs": [
        {
          "internalType": "uint256",
          "name": "_BaseFeeLMAAmount",
          "type": "uint256"
        },
        {
          "internalType": "address",
          "name": "_upperHint",
          "type": "address"
        },
        {
          "internalType": "address",
          "name": "_lowerHint",
          "type": "address"
        }
      ],
      "name": "repayBaseFeeLMA",
      "outputs": [],
      "stateMutability": "nonpayable",
      "type": "function"
    },
    {
      "inputs": [
        {
          "internalType": "address",
          "name": "_troveManagerAddress",
          "type": "address"
        },
        {
          "internalType": "address",
          "name": "_activePoolAddress",
          "type": "address"
        },
        {
          "internalType": "address",
          "name": "_defaultPoolAddress",
          "type": "address"
        },
        {
          "internalType": "address",
          "name": "_stabilityPoolAddress",
          "type": "address"
        },
        {
          "internalType": "address",
          "name": "_gasPoolAddress",
          "type": "address"
        },
        {
          "internalType": "address",
          "name": "_collSurplusPoolAddress",
          "type": "address"
        },
        {
          "internalType": "address",
          "name": "_priceFeedAddress",
          "type": "address"
        },
        {
          "internalType": "address",
          "name": "_sortedTrovesAddress",
          "type": "address"
        },
        {
          "internalType": "address",
          "name": "_baseFeeLMATokenAddress",
          "type": "address"
        },
        {
          "internalType": "contract IERC20",
          "name": "_wStETHTokenAddress",
          "type": "address"
        },
        {
          "internalType": "contract IFeesRouter",
          "name": "_feesRouter",
          "type": "address"
        }
      ],
      "name": "setAddresses",
      "outputs": [],
      "stateMutability": "nonpayable",
      "type": "function"
    },
    {
      "inputs": [],
      "name": "sortedTroves",
      "outputs": [
        {
          "internalType": "contract ISortedTroves",
          "name": "",
          "type": "address"
        }
      ],
      "stateMutability": "view",
      "type": "function"
    },
    {
      "inputs": [
        {
          "internalType": "address",
          "name": "newOwner",
          "type": "address"
        }
      ],
      "name": "transferOwnership",
      "outputs": [],
      "stateMutability": "nonpayable",
      "type": "function"
    },
    {
      "inputs": [],
      "name": "troveManager",
      "outputs": [
        {
          "internalType": "contract ITroveManager",
          "name": "",
          "type": "address"
        }
      ],
      "stateMutability": "view",
      "type": "function"
    },
    {
      "inputs": [
        {
          "internalType": "uint256",
          "name": "_maxFeePercentage",
          "type": "uint256"
        },
        {
          "internalType": "uint256",
          "name": "_BaseFeeLMAAmount",
          "type": "uint256"
        },
        {
          "internalType": "address",
          "name": "_upperHint",
          "type": "address"
        },
        {
          "internalType": "address",
          "name": "_lowerHint",
          "type": "address"
        }
      ],
      "name": "withdrawBaseFeeLMA",
      "outputs": [],
      "stateMutability": "nonpayable",
      "type": "function"
    },
    {
      "inputs": [
        {
          "internalType": "uint256",
          "name": "_collWithdrawal",
          "type": "uint256"
        },
        {
          "internalType": "address",
          "name": "_upperHint",
          "type": "address"
        },
        {
          "internalType": "address",
          "name": "_lowerHint",
          "type": "address"
        }
      ],
      "name": "withdrawColl",
      "outputs": [],
      "stateMutability": "nonpayable",
      "type": "function"
    }
  ],
  "transactionHash": "0x061fee782dd73c0e880e4147ddedba721cf36595cc00b32c477b880cdb6d67e2",
  "args": [],
  "numDeployments": 1,
  "solcInputHash": "4ccca51e62448e01009bd841c85af6d3",
  "bytecode": "0x60806040523480156200001157600080fd5b506200001d3362000023565b62000075565b600380546001600160a01b038381166001600160a01b0319831681179093556040519116919082907f8be0079c531659141344cd1fd0a4f28419497f9722a3daafe3b4186f6b6457e090600090a35050565b6138d280620000856000396000f3fe608060405234801561001057600080fd5b50600436106101bb5760003560e01c8063794e5724116100fa578063a20141521161009d578063a201415214610359578063a20baee6146102bb578063a3f4df7e1461036a578063ae918754146103a8578063b8a106da146103bb578063c42dab99146103ce578063f2fde38b146103e1578063f92d3433146103f4578063fded2911146103fc57600080fd5b8063794e5724146102dd578063795d26c3146102ec5780637985c5e4146102f45780637e88d408146103075780637f7dde4a1461031a578063887105d31461032d5780638da5cb5b146103355780638f09162b1461034657600080fd5b80635530273c116101625780635530273c146102635780635733d58f146102765780635da8b1c31461028557806360a8b10f146102985780636f0b0c1c146102ab578063715018a6146102b357806372fe25aa146102bb578063741bef1a146102ca57600080fd5b80630e704d50146101c057806317138bdb146101ca5780631bf43555146101f05780633cc74225146102025780633d83908a1461022257806347a6e713146102355780634870dd9a146102485780634ff8144314610250575b600080fd5b6101c861040f565b005b6101dd6101d83660046132f6565b6107d1565b6040519081526020015b60405180910390f35b6101dd6a295be96e6406697200000081565b600154610215906001600160a01b031681565b6040516101e79190613318565b600454610215906001600160a01b031681565b6101c8610243366004613351565b610862565b6101dd60c881565b6101dd61025e366004613393565b61087a565b6101c8610271366004613351565b610885565b6101dd671bc16d674ec8000081565b6101c86102933660046133ba565b610898565b6101c86102a636600461342c565b6108b1565b6101c86108fb565b6101c8610959565b6101dd670de0b6b3a764000081565b600254610215906001600160a01b031681565b6101dd6714d1120d7b16000081565b6101dd61096d565b6101c861030236600461347d565b610a69565b6101c861031536600461355b565b610dd8565b600054610215906001600160a01b031681565b6101dd610e0b565b6003546001600160a01b0316610215565b6101c861035436600461359c565b610ed0565b6101dd69152d02c7e14af680000081565b61039b60405180604001604052806012815260200171426f72726f7765724f7065726174696f6e7360701b81525081565b6040516101e79190613616565b600b54610215906001600160a01b031681565b6101c86103c9366004613649565b6114fb565b600954610215906001600160a01b031681565b6101c86103ef366004613693565b61150d565b6101dd611586565b600754610215906001600160a01b031681565b610418336115a8565b600454600054600a546001600160a01b0392831692918216911661043c833361169c565b60025460408051630fdb11cf60e01b815290516000926001600160a01b031691630fdb11cf916004808301926020929190829003018187875af1158015610487573d6000803e3d6000fd5b505050506040513d601f19601f820116820180604052508101906104ab91906136b0565b90506104b681611775565b604051630b07655760e01b81526001600160a01b03851690630b076557906104e2903390600401613318565b600060405180830381600087803b1580156104fc57600080fd5b505af1158015610510573d6000803e3d6000fd5b50506040516309019aaf60e31b8152600092506001600160a01b038716915063480cd57890610543903390600401613318565b602060405180830381865afa158015610560573d6000803e3d6000fd5b505050506040513d601f19601f8201168201806040525081019061058491906136b0565b90506000856001600160a01b031663d66a2553336040518263ffffffff1660e01b81526004016105b49190613318565b602060405180830381865afa1580156105d1573d6000803e3d6000fd5b505050506040513d601f19601f820116820180604052508101906105f591906136b0565b905061061584336106108469152d02c7e14af68000006117ed565b611800565b6000610626836000846000886118ef565b905061063181611964565b604051631fc5750960e31b81526001600160a01b0388169063fe2ba8489061065d903390600401613318565b600060405180830381600087803b15801561067757600080fd5b505af115801561068b573d6000803e3d6000fd5b50506040516365e89c5760e11b81526001600160a01b038a16925063cbd138ae91506106bb903390600401613318565b600060405180830381600087803b1580156106d557600080fd5b505af11580156106e9573d6000803e3d6000fd5b50505050336001600160a01b031660008051602061387d8339815191526000806000600160405161071d94939291906136eb565b60405180910390a261074486863361073f8669152d02c7e14af68000006117ed565b6119f4565b60065461076890879087906001600160a01b031669152d02c7e14af68000006119f4565b6040516316daab2160e01b81526001600160a01b038716906316daab2190610796903390879060040161370d565b600060405180830381600087803b1580156107b057600080fd5b505af11580156107c4573d6000803e3d6000fd5b5050505050505050505050565b600080600260009054906101000a90046001600160a01b03166001600160a01b0316630490be836040518163ffffffff1660e01b8152600401602060405180830381865afa158015610827573d6000803e3d6000fd5b505050506040513d601f19601f8201168201806040525081019061084b91906136b0565b9050610858848483611ab4565b9150505b92915050565b6108753360008086600087876000611afa565b505050565b600061085c826120c5565b6108753384600080600087876000611afa565b6108a8338787878787878e611afa565b50505050505050565b600081116108da5760405162461bcd60e51b81526004016108d190613726565b60405180910390fd5b6108e26120db565b6108f58460008360008088886000611afa565b50505050565b60085460405163b32beb5b60e01b81526001600160a01b039091169063b32beb5b9061092b903390600401613318565b600060405180830381600087803b15801561094557600080fd5b505af11580156108f5573d6000803e3d6000fd5b610961612147565b61096b60006121a1565b565b60008054604080516315b3137b60e21b8152905183926001600160a01b0316916356cc4dec9160048083019260209291908290030181865afa1580156109b7573d6000803e3d6000fd5b505050506040513d601f19601f820116820180604052508101906109db91906136b0565b90506000600160009054906101000a90046001600160a01b03166001600160a01b03166356cc4dec6040518163ffffffff1660e01b8152600401602060405180830381865afa158015610a32573d6000803e3d6000fd5b505050506040513d601f19601f82011682018060405250810190610a5691906136b0565b9050610a6282826121f3565b9250505090565b610a71612147565b610a7a8b6121ff565b610a838a6121ff565b610a8c896121ff565b610a95886121ff565b610a9e876121ff565b610aa7866121ff565b610ab0856121ff565b610ab9846121ff565b610ac2836121ff565b610acb826121ff565b610ad4816121ff565b600480546001600160a01b03199081166001600160a01b038e8116919091179092556000805482168d84161790556001805482168c84161790556005805482168b84161790556006805482168a8416179055600880548216898416179055600280548216888416179055600b80548216878416179055600a80548216868416179055600780548216858416179055600980549091169183169190911790556040517f143219c9e69b09e07e095fcc889b43d8f46ca892bba65f08dc3a0050869a567890610ba2908d90613318565b60405180910390a17f78f058b189175430c48dc02699e3a0031ea4ff781536dc2fab847de4babdd8828a604051610bd99190613318565b60405180910390a17f5ee0cae2f063ed938bb55046f6a932fb6ae792bf43624806bb90abe68a50be9b89604051610c109190613318565b60405180910390a17f82966d27eea39b038ee0fa30cd16532bb24f6e65d31cb58fb227aa5766cdcc7f88604051610c479190613318565b60405180910390a17fcfb07d791fcafc032b35837b50eb84b74df518cf4cc287e8084f47630fa70fa087604051610c7e9190613318565b60405180910390a17fe67f36a6e961157d6eff83b91f3af5a62131ceb6f04954ef74f51c1c05e7f88d86604051610cb59190613318565b60405180910390a17f8c537274438aa850a330284665d81a85dd38267d09e4050d416bfc94142db26485604051610cec9190613318565b60405180910390a17f65f4cf077bc01e4742eb5ad98326f6e95b63548ea24b17f8d5e823111fe7880084604051610d239190613318565b60405180910390a17f7faa560f2889840c377209fbc4b6b92d05f43f1fc60bf336ab546fd60c0051ad83604051610d5a9190613318565b60405180910390a17fa10b18a97e87c5b49c90aaeba95303db140aa131ee9cbdb946ffce5b50ccf16482604051610d919190613318565b60405180910390a17f6877e00d9059f8716bd795b5d4c2c89a4bc3cef71ba3dd99b168ac9cc1f2a6c281604051610dc89190613318565b60405180910390a16107c4610959565b60008111610df85760405162461bcd60e51b81526004016108d190613726565b6108753360008360008088886000611afa565b6000805460408051630ee2ec9760e41b8152905183926001600160a01b03169163ee2ec9709160048083019260209291908290030181865afa158015610e55573d6000803e3d6000fd5b505050506040513d601f19601f82011682018060405250810190610e7991906136b0565b90506000600160009054906101000a90046001600160a01b03166001600160a01b031663ee2ec9706040518163ffffffff1660e01b8152600401602060405180830381865afa158015610a32573d6000803e3d6000fd5b610ed9336115a8565b6040805160608082018352600480546001600160a01b039081168452600080548216602080870191909152600a548316868801528651610100810188528281528082018390528088018390529485018290526080850182905260a0850182905260c0850182905260e085018290526002548751630fdb11cf60e01b8152975196979596931694630fdb11cf948181019492939183900301908290875af1158015610f87573d6000803e3d6000fd5b505050506040513d601f19601f82011682018060405250810190610fab91906136b0565b808252600090610fba906122a8565b9050610fc688826122c5565b8251610fd290336123d9565b604082018790528251610fe690888a61249b565b60208301526040820151610ff99061263b565b816020015187116110435760405162461bcd60e51b815260206004820152601460248201527321279d102332b29032bc31b2b2b2399033b0b4b760611b60448201526064016108d1565b61105082604001516120c5565b6060830181905261106357611063613769565b6110768683606001518460000151611ab4565b6080830152606082015161108b9087906126bc565b60a083015280156110a8576110a382608001516126eb565b6110db565b6110b58260800151612763565b60006110ce8760018560600151600187600001516118ef565b90506110d981611964565b505b8251604051635d6b480f60e01b81526001600160a01b0390911690635d6b480f9061110d90339060019060040161370d565b600060405180830381600087803b15801561112757600080fd5b505af115801561113b573d6000803e3d6000fd5b505084516040516372423c1760e01b81526001600160a01b0390911692506372423c1791506111709033908a9060040161370d565b6020604051808303816000875af115801561118f573d6000803e3d6000fd5b505050506040513d601f19601f820116820180604052508101906111b391906136b0565b5082516060830151604051639976cf4560e01b81526001600160a01b0390921691639976cf45916111e99133919060040161370d565b6020604051808303816000875af1158015611208573d6000803e3d6000fd5b505050506040513d601f19601f8201168201806040525081019061122c91906136b0565b5082516040516382fe3eb960e01b81526001600160a01b03909116906382fe3eb99061125c903390600401613318565b600060405180830381600087803b15801561127657600080fd5b505af115801561128a573d6000803e3d6000fd5b50508451604051630c7940bd60e11b81526001600160a01b0390911692506318f2817a91506112bd903390600401613318565b6020604051808303816000875af11580156112dc573d6000803e3d6000fd5b505050506040513d601f19601f8201168201806040525081019061130091906136b0565b60c0830152600b5460a08301516040516346f7cf8760e01b81526001600160a01b03909216916346f7cf879161133f913391908a908a9060040161377f565b600060405180830381600087803b15801561135957600080fd5b505af115801561136d573d6000803e3d6000fd5b505084516040516315d549f160e01b81526001600160a01b0390911692506315d549f191506113a0903390600401613318565b6020604051808303816000875af11580156113bf573d6000803e3d6000fd5b505050506040513d601f19601f820116820180604052508101906113e391906136b0565b60e0830181905260405190815233907f59cfd0cd754bc5748b6770e94a4ffa5f678d885cb899dcfadc5734edb97c67ab9060200160405180910390a261142d8360200151876127f3565b611455836020015184604001513385602001518b61144b91906137c0565b866040015161286c565b602083015160408401516006546114829291906001600160a01b031669152d02c7e14af68000008061286c565b606082015160c0830151604051339260008051602061387d833981519152926114b0928b91906000906136eb565b60405180910390a260208083015160405190815233917f909ac017b31fd41edf1bf9a7ed7d4a7af4343fe034023db2d0220a77ba25e7ee910160405180910390a25050505050505050565b6108f53360008086600187878b611afa565b611515612147565b6001600160a01b03811661157a5760405162461bcd60e51b815260206004820152602660248201527f4f776e61626c653a206e6577206f776e657220697320746865207a65726f206160448201526564647265737360d01b60648201526084016108d1565b611583816121a1565b50565b61159a6103e8670de0b6b3a76400006137d3565b6115a59060056137f5565b81565b600480546040516320ca6cb360e11b815243926001600160a01b0390921691634194d966916115d991869101613318565b602060405180830381865afa1580156115f6573d6000803e3d6000fd5b505050506040513d601f19601f8201168201806040525081019061161a91906136b0565b03611638576040516360a67ce360e01b815260040160405180910390fd5b6004805460405163acef5b8d60e01b81526001600160a01b039091169163acef5b8d9161166791859101613318565b600060405180830381600087803b15801561168157600080fd5b505af1158015611695573d6000803e3d6000fd5b5050505050565b6040516321e3780160e01b81526000906001600160a01b038416906321e37801906116cb908590600401613318565b602060405180830381865afa1580156116e8573d6000803e3d6000fd5b505050506040513d601f19601f8201168201806040525081019061170c91906136b0565b9050806001146108755760405162461bcd60e51b815260206004820152602e60248201527f426f72726f7765724f70733a2054726f766520646f6573206e6f74206578697360448201526d1d081bdc881a5cc818db1bdcd95960921b60648201526084016108d1565b61177e816122a8565b156115835760405162461bcd60e51b815260206004820152603960248201527f426f72726f7765724f70733a204f7065726174696f6e206e6f74207065726d696044820152787474656420647572696e67205265636f76657279204d6f646560381b60648201526084016108d1565b60006117f982846137c0565b9392505050565b6040516370a0823160e01b815281906001600160a01b038516906370a082319061182e908690600401613318565b602060405180830381865afa15801561184b573d6000803e3d6000fd5b505050506040513d601f19601f8201168201806040525081019061186f91906136b0565b10156108755760405162461bcd60e51b815260206004820152604360248201527f426f72726f7765724f70733a2043616c6c657220646f65736e7420686176652060448201527f656e6f75676820426173654665654c4d4120746f206d616b652072657061796d606482015262195b9d60ea1b608482015260a4016108d1565b6000806118fa610e0b565b9050600061190661096d565b90508661191c5761191782896117ed565b611926565b61192682896121f3565b91508461193c5761193781876117ed565b611946565b61194681876121f3565b90506000611955838387611ab4565b93505050505b95945050505050565b671bc16d674ec800008110156115835760405162461bcd60e51b815260206004820152604960248201527f426f72726f7765724f70733a20416e206f7065726174696f6e2074686174207760448201527f6f756c6420726573756c7420696e20544352203c20434352206973206e6f74206064820152681c195c9b5a5d1d195960ba1b608482015260a4016108d1565b604051633b4009ff60e11b8152600481018290526001600160a01b0385169063768013fe90602401600060405180830381600087803b158015611a3657600080fd5b505af1158015611a4a573d6000803e3d6000fd5b5050604051632770a7eb60e21b81526001600160a01b0386169250639dc29fac9150611a7c908590859060040161370d565b600060405180830381600087803b158015611a9657600080fd5b505af1158015611aaa573d6000803e3d6000fd5b5050505050505050565b60008215611aef576000611ae683611ada670de0b6b3a7640000611ae088838b8461292d565b90612939565b9061292d565b91506117f99050565b506000199392505050565b611b03336115a8565b6040805160608082018352600480546001600160a01b039081168452600080548216602080870191909152600a5483168688015286516101a0810188528281528082018390528088018390529485018290526080850182905260a0850182905260c0850182905260e08501829052610100850182905261012085018290526101408501829052610160850182905261018085018290526002548751630fdb11cf60e01b8152975196979596931694630fdb11cf948181019492939183900301908290875af1158015611bd9573d6000803e3d6000fd5b505050506040513d601f19601f82011682018060405250810190611bfd91906136b0565b808252600090611c0c906122a8565b90508615611c2757611c1e84826122c5565b611c2788612945565b611c318a8a6129b5565b611c3c8a8a8a612a25565b8251611c48908c61169c565b336001600160a01b038c161480611c7e57506005546001600160a01b031633148015611c745750600089115b8015611c7e575087155b611c8a57611c8a613769565b8251604051630b07655760e01b81526001600160a01b0390911690630b07655790611cb9908e90600401613318565b600060405180830381600087803b158015611cd357600080fd5b505af1158015611ce7573d6000803e3d6000fd5b50505050611cf5898b612abd565b151560608401526020830152604082018890528615611d22578251611d1b90898661249b565b6101208301525b825160405163d66a255360e01b81526001600160a01b039091169063d66a255390611d51908e90600401613318565b602060405180830381865afa158015611d6e573d6000803e3d6000fd5b505050506040513d601f19601f82011682018060405250810190611d9291906136b0565b608083015282516040516309019aaf60e31b81526001600160a01b039091169063480cd57890611dc6908e90600401613318565b602060405180830381865afa158015611de3573d6000803e3d6000fd5b505050506040513d601f19601f82011682018060405250810190611e0791906136b0565b60a0830181905260808301518351611e20929190611ab4565b8260c0018181525050611e508260a0015183608001518460200151856060015186604001518c8860000151612adc565b60e083015260a08201518a1115611e6957611e69613769565b611e75818b8985612b0f565b86158015611e835750600088115b15611ed057611eab611ea68360400151611ea08560800151612b83565b906117ed565b61263b565b611ebd82608001518360400151612b99565b611ed083604001518c8460400151611800565b611eee83600001518c8460200151856060015186604001518c612c2e565b6101408401526101608301528251604051630c7940bd60e11b81526001600160a01b03909116906318f2817a90611f29908e90600401613318565b6020604051808303816000875af1158015611f48573d6000803e3d6000fd5b505050506040513d601f19601f82011682018060405250810190611f6c91906136b0565b826101800181815250506000611f9a8360a0015184608001518560200151866060015187604001518d612e20565b600b5460405163015f109360e51b81529192506001600160a01b031690632be2126090611fd1908f9085908c908c9060040161377f565b600060405180830381600087803b158015611feb57600080fd5b505af1158015611fff573d6000803e3d6000fd5b505050508b6001600160a01b031660008051602061387d833981519152846101400151856101600151866101800151600260405161204094939291906136eb565b60405180910390a261012083015160405190815233907f909ac017b31fd41edf1bf9a7ed7d4a7af4343fe034023db2d0220a77ba25e7ee9060200160405180910390a26120b78460200151856040015133866020015187606001518861012001518f6120ac91906137c0565b8e8a60400151612e51565b505050505050505050505050565b600061085c8269152d02c7e14af68000006121f3565b6005546001600160a01b0316331461096b5760405162461bcd60e51b815260206004820152602960248201527f426f72726f7765724f70733a2043616c6c6572206973206e6f742053746162696044820152681b1a5d1e48141bdbdb60ba1b60648201526084016108d1565b6003546001600160a01b0316331461096b5760405162461bcd60e51b815260206004820181905260248201527f4f776e61626c653a2063616c6c6572206973206e6f7420746865206f776e657260448201526064016108d1565b600380546001600160a01b038381166001600160a01b0319831681179093556040519116919082907f8be0079c531659141344cd1fd0a4f28419497f9722a3daafe3b4186f6b6457e090600090a35050565b60006117f9828461380c565b6001600160a01b0381166122555760405162461bcd60e51b815260206004820152601e60248201527f4163636f756e742063616e6e6f74206265207a65726f2061646472657373000060448201526064016108d1565b803b806122a45760405162461bcd60e51b815260206004820181905260248201527f4163636f756e7420636f64652073697a652063616e6e6f74206265207a65726f60448201526064016108d1565b5050565b6000806122b483612ee6565b671bc16d674ec80000119392505050565b801561233e57670de0b6b3a76400008211156122a45760405162461bcd60e51b815260206004820152603260248201527f4d6178206665652070657263656e74616765206d757374206c657373207468616044820152716e206f7220657175616c20746f203130302560701b60648201526084016108d1565b6123526103e8670de0b6b3a76400006137d3565b61235d9060056137f5565b82101580156123745750670de0b6b3a76400008211155b6122a45760405162461bcd60e51b815260206004820152603060248201527f4d6178206665652070657263656e74616765206d75737420626520626574776560448201526f656e20302e352520616e64203130302560801b60648201526084016108d1565b6040516321e3780160e01b81526000906001600160a01b038416906321e3780190612408908590600401613318565b602060405180830381865afa158015612425573d6000803e3d6000fd5b505050506040513d601f19601f8201168201806040525081019061244991906136b0565b9050806001036108755760405162461bcd60e51b815260206004820152601c60248201527f426f72726f7765724f70733a2054726f7665206973206163746976650000000060448201526064016108d1565b6000836001600160a01b0316635dba4c4a6040518163ffffffff1660e01b8152600401600060405180830381600087803b1580156124d857600080fd5b505af11580156124ec573d6000803e3d6000fd5b5050604051630631203b60e41b815260048101869052600092508291506001600160a01b0387169063631203b0906024016040805180830381865afa158015612539573d6000803e3d6000fd5b505050506040513d601f19601f8201168201806040525081019061255d919061381f565b60048054604051634fbd6daf60e11b81529182018390529294509092506001600160a01b0390911690639f7adb5e90602401600060405180830381600087803b1580156125a957600080fd5b505af11580156125bd573d6000803e3d6000fd5b505050506125cc828686612f12565b600954604051631fa773cd60e31b815260048101879052602481018490526001600160a01b039091169063fd3b9e6890604401600060405180830381600087803b15801561261957600080fd5b505af115801561262d573d6000803e3d6000fd5b509398975050505050505050565b6a295be96e640669720000008110156115835760405162461bcd60e51b815260206004820152603a60248201527f426f72726f7765724f70733a2054726f76652773206e65742064656274206d7560448201527f73742062652067726561746572207468616e206d696e696d756d00000000000060648201526084016108d1565b600081156126e2576126db82611ada8568056bc75e2d6310000061292d565b905061085c565b5060001961085c565b671bc16d674ec800008110156115835760405162461bcd60e51b815260206004820152603760248201527f426f72726f7765724f70733a204f7065726174696f6e206d757374206c65617660448201527632903a3937bb32903bb4ba341024a1a9101f1e9021a1a960491b60648201526084016108d1565b6714d1120d7b1600008110156115835760405162461bcd60e51b815260206004820152604960248201527f426f72726f7765724f70733a20416e206f7065726174696f6e2074686174207760448201527f6f756c6420726573756c7420696e20494352203c204d4352206973206e6f74206064820152681c195c9b5a5d1d195960ba1b608482015260a4016108d1565b60075461280b906001600160a01b0316338484612f7c565b60005460405162f9332d60e61b8152600481018390526001600160a01b0390911690633e4ccb4090602401600060405180830381600087803b15801561285057600080fd5b505af1158015612864573d6000803e3d6000fd5b505050505050565b60405163262b890160e01b8152600481018290526001600160a01b0386169063262b890190602401600060405180830381600087803b1580156128ae57600080fd5b505af11580156128c2573d6000803e3d6000fd5b50506040516340c10f1960e01b81526001600160a01b03871692506340c10f1991506128f4908690869060040161370d565b600060405180830381600087803b15801561290e57600080fd5b505af1158015612922573d6000803e3d6000fd5b505050505050505050565b60006117f982846137f5565b60006117f982846137d3565b600081116115835760405162461bcd60e51b815260206004820152603760248201527f426f72726f7765724f70733a204465627420696e637265617365207265717569604482015276726573206e6f6e2d7a65726f20646562744368616e676560481b60648201526084016108d1565b8015806129c0575081155b6122a45760405162461bcd60e51b815260206004820152603060248201527f426f72726f7765724f7065726174696f6e733a2043616e6e6f7420776974686460448201526f1c985dc8185b99081859190818dbdb1b60821b60648201526084016108d1565b81151580612a3257508215155b80612a3c57508015155b6108755760405162461bcd60e51b815260206004820152604660248201527f426f72726f7765724f70733a205468657265206d75737420626520656974686560448201527f72206120636f6c6c61746572616c206368616e6765206f7220612064656274206064820152656368616e676560d01b608482015260a4016108d1565b6000808315612ad157508290506001612ad5565b8291505b9250929050565b6000806000612aef8a8a8a8a8a8a612fd6565b915091506000612b00838387611ab4565b9b9a5050505050505050505050565b8315612b4857612b1e83613014565b8115612b4357612b318160e001516126eb565b612b438160e001518260c00151613088565b6108f5565b612b558160e00151612763565b612b728160200151826060015183604001518585600001516118ef565b61010082018190526108f590611964565b600061085c8269152d02c7e14af68000006117ed565b612bad8269152d02c7e14af68000006117ed565b8111156122a45760405162461bcd60e51b815260206004820152604360248201527f426f72726f7765724f70733a20416d6f756e7420726570616964206d7573742060448201527f6e6f74206265206c6172676572207468616e207468652054726f76652773206460648201526219589d60ea1b608482015260a4016108d1565b600080600085612cae5760405163d3d6f84360e01b81526001600160a01b038a169063d3d6f84390612c66908b908b9060040161370d565b6020604051808303816000875af1158015612c85573d6000803e3d6000fd5b505050506040513d601f19601f82011682018060405250810190612ca991906136b0565b612d1f565b6040516372423c1760e01b81526001600160a01b038a16906372423c1790612cdc908b908b9060040161370d565b6020604051808303816000875af1158015612cfb573d6000803e3d6000fd5b505050506040513d601f19601f82011682018060405250810190612d1f91906136b0565b9050600084612d9e57604051630930874960e11b81526001600160a01b038b16906312610e9290612d56908c908a9060040161370d565b6020604051808303816000875af1158015612d75573d6000803e3d6000fd5b505050506040513d601f19601f82011682018060405250810190612d9991906136b0565b612e0f565b604051639976cf4560e01b81526001600160a01b038b1690639976cf4590612dcc908c908a9060040161370d565b6020604051808303816000875af1158015612deb573d6000803e3d6000fd5b505050506040513d601f19601f82011682018060405250810190612e0f91906136b0565b919a91995090975050505050505050565b6000806000612e33898989898989612fd6565b915091506000612e4383836126bc565b9a9950505050505050505050565b8115612e6957612e64888888868561286c565b612e75565b612e75888888866119f4565b8315612e8a57612e8588866127f3565b611aaa565b6040516316daab2160e01b81526001600160a01b038916906316daab2190612eb8908990899060040161370d565b600060405180830381600087803b158015612ed257600080fd5b505af11580156120b7573d6000803e3d6000fd5b600080612ef1610e0b565b90506000612efd61096d565b9050612f0a828286611ab4565b949350505050565b6000612f2a83611ada86670de0b6b3a764000061292d565b9050818111156108f55760405162461bcd60e51b815260206004820152601d60248201527f4665652065786365656465642070726f7669646564206d6178696d756d00000060448201526064016108d1565b604080516001600160a01b0385811660248301528416604482015260648082018490528251808303909101815260849091019091526020810180516001600160e01b03166323b872dd60e01b1790526108f59085906130fe565b600080878786612fef57612fea8a896117ed565b612ff9565b612ff98a896121f3565b91508461300a57612d9989876117ed565b612e0f89876121f3565b80156115835760405162461bcd60e51b815260206004820152603e60248201527f426f72726f7765724f70733a20436f6c6c61746572616c20776974686472617760448201527f616c206e6f74207065726d6974746564205265636f76657279204d6f6465000060648201526084016108d1565b808210156122a45760405162461bcd60e51b815260206004820152603e60248201527f426f72726f7765724f70733a2043616e6e6f7420646563726561736520796f7560448201527f722054726f766527732049435220696e205265636f76657279204d6f6465000060648201526084016108d1565b6000613153826040518060400160405280602081526020017f5361666545524332303a206c6f772d6c6576656c2063616c6c206661696c6564815250856001600160a01b03166131d39092919063ffffffff16565b90508051600014806131745750808060200190518101906131749190613843565b6108755760405162461bcd60e51b815260206004820152602a60248201527f5361666545524332303a204552433230206f7065726174696f6e20646964206e6044820152691bdd081cdd58d8d9595960b21b60648201526084016108d1565b6060612f0a848460008585600080866001600160a01b031685876040516131fa9190613860565b60006040518083038185875af1925050503d8060008114613237576040519150601f19603f3d011682016040523d82523d6000602084013e61323c565b606091505b509150915061324d87838387613258565b979650505050505050565b606083156132c75782516000036132c0576001600160a01b0385163b6132c05760405162461bcd60e51b815260206004820152601d60248201527f416464726573733a2063616c6c20746f206e6f6e2d636f6e747261637400000060448201526064016108d1565b5081612f0a565b612f0a83838151156132dc5781518083602001fd5b8060405162461bcd60e51b81526004016108d19190613616565b6000806040838503121561330957600080fd5b50508035926020909101359150565b6001600160a01b0391909116815260200190565b6001600160a01b038116811461158357600080fd5b803561334c8161332c565b919050565b60008060006060848603121561336657600080fd5b8335925060208401356133788161332c565b915060408401356133888161332c565b809150509250925092565b6000602082840312156133a557600080fd5b5035919050565b801515811461158357600080fd5b600080600080600080600060e0888a0312156133d557600080fd5b8735965060208801359550604088013594506060880135935060808801356133fc816133ac565b925060a088013561340c8161332c565b915060c088013561341c8161332c565b8091505092959891949750929550565b6000806000806080858703121561344257600080fd5b843561344d8161332c565b9350602085013561345d8161332c565b9250604085013561346d8161332c565b9396929550929360600135925050565b60008060008060008060008060008060006101608c8e03121561349f57600080fd5b8b356134aa8161332c565b9a5060208c01356134ba8161332c565b995060408c01356134ca8161332c565b985060608c01356134da8161332c565b975060808c01356134ea8161332c565b965060a08c01356134fa8161332c565b955060c08c013561350a8161332c565b945060e08c013561351a8161332c565b93506101008c013561352b8161332c565b925061353a6101208d01613341565b91506135496101408d01613341565b90509295989b509295989b9093969950565b60008060006060848603121561357057600080fd5b833561357b8161332c565b9250602084013561358b8161332c565b929592945050506040919091013590565b600080600080600060a086880312156135b457600080fd5b85359450602086013593506040860135925060608601356135d48161332c565b915060808601356135e48161332c565b809150509295509295909350565b60005b8381101561360d5781810151838201526020016135f5565b50506000910152565b60208152600082518060208401526136358160408501602087016135f2565b601f01601f19169190910160400192915050565b6000806000806080858703121561365f57600080fd5b843593506020850135925060408501356136788161332c565b915060608501356136888161332c565b939692955090935050565b6000602082840312156136a557600080fd5b81356117f98161332c565b6000602082840312156136c257600080fd5b5051919050565b600381106136e757634e487b7160e01b600052602160045260246000fd5b9052565b84815260208101849052604081018390526080810161195b60608301846136c9565b6001600160a01b03929092168252602082015260400190565b60208082526023908201527f426f72726f776572204f7065726174696f6e733a20496e76616c696420616d6f6040820152621d5b9d60ea1b606082015260800190565b634e487b7160e01b600052600160045260246000fd5b6001600160a01b03948516815260208101939093529083166040830152909116606082015260800190565b634e487b7160e01b600052601160045260246000fd5b8181038181111561085c5761085c6137aa565b6000826137f057634e487b7160e01b600052601260045260246000fd5b500490565b808202811582820484141761085c5761085c6137aa565b8082018082111561085c5761085c6137aa565b6000806040838503121561383257600080fd5b505080516020909101519092909150565b60006020828403121561385557600080fd5b81516117f9816133ac565b600082516138728184602087016135f2565b919091019291505056fec3770d654ed33aeea6bf11ac8ef05d02a6a04ed4686dd2f624d853bbec43cc8ba2646970667358221220c43cba8e97af913a115ac353cebad8f155cbf6440b01962e03f0b65e536b8f3e64736f6c63430008130033",
  "devdoc": {
    "kind": "dev",
    "methods": {
      "owner()": {
        "details": "Returns the address of the current owner."
      },
      "renounceOwnership()": {
        "details": "Leaves the contract without owner. It will not be possible to call `onlyOwner` functions. Can only be called by the current owner. NOTE: Renouncing ownership will leave the contract without an owner, thereby disabling any functionality that is only available to the owner."
      },
      "transferOwnership(address)": {
        "details": "Transfers ownership of the contract to a new account (`newOwner`). Can only be called by the current owner."
      }
    },
    "version": 1
  },
  "userdoc": {
    "kind": "user",
    "methods": {
      "addColl(address,address,uint256)": {
        "notice": "HEDGEHOG UPDATES: ERC20 is used as a collateral, therefore function may not rely on msg.value anymore now passing a new param _collIncrease in _adjustTrove function - in this particular case it is a passed param _amount checking if _amount is greater then 0 Function is no longer payable"
      },
      "adjustTrove(uint256,uint256,uint256,uint256,bool,address,address)": {
        "notice": "HEDGEHOG UPDATES: ERC20 is used as a collateral, therefore function may not rely on msg.value anymore now passing a new param _collIncrease Function is no longer payable"
      },
      "claimCollateral()": {
        "notice": "Claim remaining collateral from a redemption or from a liquidation with ICR > MCR in Recovery Mode"
      },
      "computeUnreliableCR(uint256,uint256)": {
        "notice": "HEDGEHOG UPDATES: New view method to help with getting the data on frontends"
      },
      "moveWStETHGainToTrove(address,address,address,uint256)": {
        "notice": "HEDGEHOG UPDATES: ERC20 is used as a collateral, therefore function may not rely on msg.value anymore now passing a new param _collIncrease in _adjustTrove function - in this particular case it is a passed param _amount checking if _amount is greater then 0 Function is no longer payable"
      },
      "openTrove(uint256,uint256,uint256,address,address)": {
        "notice": "HEDGEHOG UPDATES: ERC20 is used as a collateral, therefore function may not rely on msg.value anymore now passing a new param _collAmount checking if _amount is greater then 0 Function is no longer payable"
      },
      "repayBaseFeeLMA(uint256,address,address)": {
        "notice": "HEDGEHOG UPDATES: ERC20 is used as a collateral, therefore function may not rely on msg.value anymore now passing a new param _collIncrease - in this particular case it is 0"
      },
      "setAddresses(address,address,address,address,address,address,address,address,address,address,address)": {
        "notice": "HEDGEHOG UPDATES: ERC20 is used as a collateral instead of native token. Setting erc20 address in the initialisation"
      },
      "withdrawBaseFeeLMA(uint256,uint256,address,address)": {
        "notice": "HEDGEHOG UPDATES: ERC20 is used as a collateral, therefore function may not rely on msg.value anymore now passing a new param _collIncrease - in this particular case it is 0"
      },
      "withdrawColl(uint256,address,address)": {
        "notice": "HEDGEHOG UPDATES: ERC20 is used as a collateral, therefore function may not rely on msg.value anymore now passing a new param _collIncrease - in this particular case it is 0"
      }
    },
    "notice": "Fork of Liquity's BorrowerOperations. . Most of the Logic remains unchanged.. Changes to the contract: - Raised pragma version - Removed an import of IBorrowerOperations Interface - Collateral is now an ERC20 token instead of a native one - Updated variable names and docs to refer to BaseFeeLMA token and wwstETH as a collateral - Logic updates with borrowing fees calculation and their distribution - Removed Native Liquity Protocol Token Staking - Remove _getUSDValue view method as it's not used anymore Even though SafeMath is no longer required, the decision was made to keep it to avoid human factor errors",
    "version": 1
  },
  "storageLayout": {
    "storage": [
      {
        "astId": 12643,
        "contract": "contracts/BorrowerOperations.sol:BorrowerOperations",
        "label": "activePool",
        "offset": 0,
        "slot": "0",
        "type": "t_contract(IActivePool)14983"
      },
      {
        "astId": 12646,
        "contract": "contracts/BorrowerOperations.sol:BorrowerOperations",
        "label": "defaultPool",
        "offset": 0,
        "slot": "1",
        "type": "t_contract(IDefaultPool)15346"
      },
      {
        "astId": 12650,
        "contract": "contracts/BorrowerOperations.sol:BorrowerOperations",
        "label": "priceFeed",
        "offset": 0,
        "slot": "2",
        "type": "t_contract(IPriceFeed)15480"
      },
      {
        "astId": 7,
        "contract": "contracts/BorrowerOperations.sol:BorrowerOperations",
        "label": "_owner",
        "offset": 0,
        "slot": "3",
        "type": "t_address"
      },
      {
        "astId": 1300,
        "contract": "contracts/BorrowerOperations.sol:BorrowerOperations",
        "label": "troveManager",
        "offset": 0,
        "slot": "4",
        "type": "t_contract(ITroveManager)16246"
      },
      {
        "astId": 1302,
        "contract": "contracts/BorrowerOperations.sol:BorrowerOperations",
        "label": "stabilityPoolAddress",
        "offset": 0,
        "slot": "5",
        "type": "t_address"
      },
      {
        "astId": 1304,
        "contract": "contracts/BorrowerOperations.sol:BorrowerOperations",
        "label": "gasPoolAddress",
        "offset": 0,
        "slot": "6",
        "type": "t_address"
      },
      {
        "astId": 1307,
        "contract": "contracts/BorrowerOperations.sol:BorrowerOperations",
        "label": "WStETHToken",
        "offset": 0,
        "slot": "7",
        "type": "t_contract(IERC20)190"
      },
      {
        "astId": 1310,
        "contract": "contracts/BorrowerOperations.sol:BorrowerOperations",
        "label": "collSurplusPool",
        "offset": 0,
        "slot": "8",
        "type": "t_contract(ICollSurplusPool)15284"
      },
      {
        "astId": 1313,
        "contract": "contracts/BorrowerOperations.sol:BorrowerOperations",
        "label": "feesRouter",
        "offset": 0,
        "slot": "9",
        "type": "t_contract(IFeesRouter)15363"
      },
      {
        "astId": 1316,
        "contract": "contracts/BorrowerOperations.sol:BorrowerOperations",
        "label": "baseFeeLMAToken",
        "offset": 0,
        "slot": "10",
        "type": "t_contract(IBaseFeeLMAToken)15041"
      },
      {
        "astId": 1319,
        "contract": "contracts/BorrowerOperations.sol:BorrowerOperations",
        "label": "sortedTroves",
        "offset": 0,
        "slot": "11",
        "type": "t_contract(ISortedTroves)15612"
      }
    ],
    "types": {
      "t_address": {
        "encoding": "inplace",
        "label": "address",
        "numberOfBytes": "20"
      },
      "t_contract(IActivePool)14983": {
        "encoding": "inplace",
        "label": "contract IActivePool",
        "numberOfBytes": "20"
      },
      "t_contract(IBaseFeeLMAToken)15041": {
        "encoding": "inplace",
        "label": "contract IBaseFeeLMAToken",
        "numberOfBytes": "20"
      },
      "t_contract(ICollSurplusPool)15284": {
        "encoding": "inplace",
        "label": "contract ICollSurplusPool",
        "numberOfBytes": "20"
      },
      "t_contract(IDefaultPool)15346": {
        "encoding": "inplace",
        "label": "contract IDefaultPool",
        "numberOfBytes": "20"
      },
      "t_contract(IERC20)190": {
        "encoding": "inplace",
        "label": "contract IERC20",
        "numberOfBytes": "20"
      },
      "t_contract(IFeesRouter)15363": {
        "encoding": "inplace",
        "label": "contract IFeesRouter",
        "numberOfBytes": "20"
      },
      "t_contract(IPriceFeed)15480": {
        "encoding": "inplace",
        "label": "contract IPriceFeed",
        "numberOfBytes": "20"
      },
      "t_contract(ISortedTroves)15612": {
        "encoding": "inplace",
        "label": "contract ISortedTroves",
        "numberOfBytes": "20"
      },
      "t_contract(ITroveManager)16246": {
        "encoding": "inplace",
        "label": "contract ITroveManager",
        "numberOfBytes": "20"
      }
    }
  }
}