{
  "address": "0x6e15AA8ebff2d8e38654420F07200C939f1ACEeE",
  "abi": [
    {
      "inputs": [],
      "stateMutability": "nonpayable",
      "type": "constructor"
    },
    {
      "anonymous": false,
      "inputs": [
        {
          "indexed": false,
          "internalType": "uint256",
          "name": "_newCap",
          "type": "uint256"
        }
      ],
      "name": "HOGSupplyCapUpdated",
      "type": "event"
    },
    {
      "anonymous": false,
      "inputs": [
        {
          "indexed": false,
          "internalType": "address",
          "name": "_hogTokenAddress",
          "type": "address"
        }
      ],
      "name": "HOGTokenAddressSet",
      "type": "event"
    },
    {
      "anonymous": false,
      "inputs": [
        {
          "indexed": false,
          "internalType": "uint256",
          "name": "_newFactor",
          "type": "uint256"
        }
      ],
      "name": "ISSUANCE_FACTORUpdated",
      "type": "event"
    },
    {
      "anonymous": false,
      "inputs": [
        {
          "indexed": true,
          "internalType": "address",
          "name": "previousOwner",
          "type": "address"
        },
        {
          "indexed": true,
          "internalType": "address",
          "name": "newOwner",
          "type": "address"
        }
      ],
      "name": "OwnershipTransferred",
      "type": "event"
    },
    {
      "anonymous": false,
      "inputs": [
        {
          "indexed": true,
          "internalType": "bytes32",
          "name": "role",
          "type": "bytes32"
        },
        {
          "indexed": true,
          "internalType": "bytes32",
          "name": "previousAdminRole",
          "type": "bytes32"
        },
        {
          "indexed": true,
          "internalType": "bytes32",
          "name": "newAdminRole",
          "type": "bytes32"
        }
      ],
      "name": "RoleAdminChanged",
      "type": "event"
    },
    {
      "anonymous": false,
      "inputs": [
        {
          "indexed": true,
          "internalType": "bytes32",
          "name": "role",
          "type": "bytes32"
        },
        {
          "indexed": true,
          "internalType": "address",
          "name": "account",
          "type": "address"
        },
        {
          "indexed": true,
          "internalType": "address",
          "name": "sender",
          "type": "address"
        }
      ],
      "name": "RoleGranted",
      "type": "event"
    },
    {
      "anonymous": false,
      "inputs": [
        {
          "indexed": true,
          "internalType": "bytes32",
          "name": "role",
          "type": "bytes32"
        },
        {
          "indexed": true,
          "internalType": "address",
          "name": "account",
          "type": "address"
        },
        {
          "indexed": true,
          "internalType": "address",
          "name": "sender",
          "type": "address"
        }
      ],
      "name": "RoleRevoked",
      "type": "event"
    },
    {
      "anonymous": false,
      "inputs": [
        {
          "indexed": false,
          "internalType": "address",
          "name": "_stabilityPoolAddress",
          "type": "address"
        }
      ],
      "name": "StabilityPoolAddressSet",
      "type": "event"
    },
    {
      "anonymous": false,
      "inputs": [
        {
          "indexed": false,
          "internalType": "uint256",
          "name": "_totalHOGIssued",
          "type": "uint256"
        }
      ],
      "name": "TotalHOGIssuedUpdated",
      "type": "event"
    },
    {
      "anonymous": false,
      "inputs": [
        {
          "indexed": false,
          "internalType": "uint256",
          "name": "_totalHOGIssued",
          "type": "uint256"
        }
      ],
      "name": "TotalHogIssuedManuallyUpdated",
      "type": "event"
    },
    {
      "inputs": [],
      "name": "DECIMAL_PRECISION",
      "outputs": [
        {
          "internalType": "uint256",
          "name": "",
          "type": "uint256"
        }
      ],
      "stateMutability": "view",
      "type": "function"
    },
    {
      "inputs": [],
      "name": "DEFAULT_ADMIN_ROLE",
      "outputs": [
        {
          "internalType": "bytes32",
          "name": "",
          "type": "bytes32"
        }
      ],
      "stateMutability": "view",
      "type": "function"
    },
    {
      "inputs": [],
      "name": "HOGSupplyCap",
      "outputs": [
        {
          "internalType": "uint256",
          "name": "",
          "type": "uint256"
        }
      ],
      "stateMutability": "view",
      "type": "function"
    },
    {
      "inputs": [],
      "name": "ISSUANCE_FACTOR",
      "outputs": [
        {
          "internalType": "uint256",
          "name": "",
          "type": "uint256"
        }
      ],
      "stateMutability": "view",
      "type": "function"
    },
    {
      "inputs": [],
      "name": "NAME",
      "outputs": [
        {
          "internalType": "string",
          "name": "",
          "type": "string"
        }
      ],
      "stateMutability": "view",
      "type": "function"
    },
    {
      "inputs": [],
      "name": "SECONDS_IN_ONE_MINUTE",
      "outputs": [
        {
          "internalType": "uint256",
          "name": "",
          "type": "uint256"
        }
      ],
      "stateMutability": "view",
      "type": "function"
    },
    {
      "inputs": [],
      "name": "deploymentTime",
      "outputs": [
        {
          "internalType": "uint256",
          "name": "",
          "type": "uint256"
        }
      ],
      "stateMutability": "view",
      "type": "function"
    },
    {
      "inputs": [
        {
          "internalType": "bytes32",
          "name": "role",
          "type": "bytes32"
        }
      ],
      "name": "getRoleAdmin",
      "outputs": [
        {
          "internalType": "bytes32",
          "name": "",
          "type": "bytes32"
        }
      ],
      "stateMutability": "view",
      "type": "function"
    },
    {
      "inputs": [
        {
          "internalType": "bytes32",
          "name": "role",
          "type": "bytes32"
        },
        {
          "internalType": "address",
          "name": "account",
          "type": "address"
        }
      ],
      "name": "grantRole",
      "outputs": [],
      "stateMutability": "nonpayable",
      "type": "function"
    },
    {
      "inputs": [
        {
          "internalType": "bytes32",
          "name": "role",
          "type": "bytes32"
        },
        {
          "internalType": "address",
          "name": "account",
          "type": "address"
        }
      ],
      "name": "hasRole",
      "outputs": [
        {
          "internalType": "bool",
          "name": "",
          "type": "bool"
        }
      ],
      "stateMutability": "view",
      "type": "function"
    },
    {
      "inputs": [],
      "name": "hogToken",
      "outputs": [
        {
          "internalType": "contract IHOGToken",
          "name": "",
          "type": "address"
        }
      ],
      "stateMutability": "view",
      "type": "function"
    },
    {
      "inputs": [],
      "name": "issueHOG",
      "outputs": [
        {
          "internalType": "uint256",
          "name": "",
          "type": "uint256"
        }
      ],
      "stateMutability": "nonpayable",
      "type": "function"
    },
    {
      "inputs": [],
      "name": "owner",
      "outputs": [
        {
          "internalType": "address",
          "name": "",
          "type": "address"
        }
      ],
      "stateMutability": "view",
      "type": "function"
    },
    {
      "inputs": [],
      "name": "renounceOwnership",
      "outputs": [],
      "stateMutability": "nonpayable",
      "type": "function"
    },
    {
      "inputs": [
        {
          "internalType": "bytes32",
          "name": "role",
          "type": "bytes32"
        },
        {
          "internalType": "address",
          "name": "account",
          "type": "address"
        }
      ],
      "name": "renounceRole",
      "outputs": [],
      "stateMutability": "nonpayable",
      "type": "function"
    },
    {
      "inputs": [
        {
          "internalType": "bytes32",
          "name": "role",
          "type": "bytes32"
        },
        {
          "internalType": "address",
          "name": "account",
          "type": "address"
        }
      ],
      "name": "revokeRole",
      "outputs": [],
      "stateMutability": "nonpayable",
      "type": "function"
    },
    {
      "inputs": [
        {
          "internalType": "address",
          "name": "_account",
          "type": "address"
        },
        {
          "internalType": "uint256",
          "name": "_HOGamount",
          "type": "uint256"
        }
      ],
      "name": "sendHOG",
      "outputs": [],
      "stateMutability": "nonpayable",
      "type": "function"
    },
    {
      "inputs": [
        {
          "internalType": "address",
          "name": "_hogTokenAddress",
          "type": "address"
        },
        {
          "internalType": "address",
          "name": "_stabilityPoolAddress",
          "type": "address"
        },
        {
          "internalType": "address",
          "name": "_setter",
          "type": "address"
        },
        {
          "internalType": "address",
          "name": "_setterAdmin",
          "type": "address"
        }
      ],
      "name": "setAddresses",
      "outputs": [],
      "stateMutability": "nonpayable",
      "type": "function"
    },
    {
      "inputs": [
        {
          "internalType": "uint256",
          "name": "_newCap",
          "type": "uint256"
        }
      ],
      "name": "setHOGSupplyCap",
      "outputs": [],
      "stateMutability": "nonpayable",
      "type": "function"
    },
    {
      "inputs": [
        {
          "internalType": "uint256",
          "name": "_newIssFactor",
          "type": "uint256"
        }
      ],
      "name": "setISSUANCE_FACTOR",
      "outputs": [],
      "stateMutability": "nonpayable",
      "type": "function"
    },
    {
      "inputs": [
        {
          "internalType": "uint256",
          "name": "_newHogIssued",
          "type": "uint256"
        }
      ],
      "name": "setTotalHogIssued",
      "outputs": [],
      "stateMutability": "nonpayable",
      "type": "function"
    },
    {
      "inputs": [],
      "name": "stabilityPoolAddress",
      "outputs": [
        {
          "internalType": "address",
          "name": "",
          "type": "address"
        }
      ],
      "stateMutability": "view",
      "type": "function"
    },
    {
      "inputs": [
        {
          "internalType": "bytes4",
          "name": "interfaceId",
          "type": "bytes4"
        }
      ],
      "name": "supportsInterface",
      "outputs": [
        {
          "internalType": "bool",
          "name": "",
          "type": "bool"
        }
      ],
      "stateMutability": "view",
      "type": "function"
    },
    {
      "inputs": [],
      "name": "totalHOGIssued",
      "outputs": [
        {
          "internalType": "uint256",
          "name": "",
          "type": "uint256"
        }
      ],
      "stateMutability": "view",
      "type": "function"
    },
    {
      "inputs": [
        {
          "internalType": "address",
          "name": "newOwner",
          "type": "address"
        }
      ],
      "name": "transferOwnership",
      "outputs": [],
      "stateMutability": "nonpayable",
      "type": "function"
    }
  ],
  "transactionHash": "0x84dde4477211f954451eecb0cdfce376753690079a2d6a472398d13945cbef15",
  "args": [],
  "numDeployments": 1,
  "solcInputHash": "4248509572f812c4fa4319d44edb1593",
  "bytecode": "0x60a0604052670de0b5809a6f939860025534801561001c57600080fd5b506100263361002f565b42608052610081565b600180546001600160a01b038381166001600160a01b0319831681179093556040519116919082907f8be0079c531659141344cd1fd0a4f28419497f9722a3daafe3b4186f6b6457e090600090a35050565b6080516112736100a36000396000818161033d01526108fc01526112736000f3fe608060405234801561001057600080fd5b50600436106101625760003560e01c806378e5baec116100ce578063a20baee611610087578063a20baee6146102be578063a217fddf146102cd578063a3f4df7e146102d5578063bfa3539d14610312578063d547741f14610325578063ecda10f514610338578063f2fde38b1461035f57600080fd5b806378e5baec1461026257806379b7e2071461026b5780638da5cb5b1461027457806391d14854146102855780639df11188146102985780639fd51c75146102ab57600080fd5b80632f2ff15d116101205780632f2ff15d1461020657806336568abe146102195780634a945f8d1461022c578063570dc45e1461023f57806361ec893d14610252578063715018a61461025a57600080fd5b80624b33191461016757806301ffc9a7146101825780630b622ab2146101a55780630fc83da3146101c55780631dc9727e146101ce578063248a9ca3146101e3575b600080fd5b61016f610372565b6040519081526020015b60405180910390f35b610195610190366004610f13565b610407565b6040519015158152602001610179565b6005546101b8906001600160a01b031681565b6040516101799190610f3d565b61016f60025481565b6101e16101dc366004610f51565b61043e565b005b61016f6101f1366004610f51565b60009081526020819052604090206001015490565b6101e1610214366004610f86565b610493565b6101e1610227366004610f86565b6104bd565b6101e161023a366004610fb2565b610540565b6004546101b8906001600160a01b031681565b61016f603c81565b6101e1610692565b61016f60035481565b61016f60065481565b6001546001600160a01b03166101b8565b610195610293366004610f86565b6106a6565b6101e16102a6366004611006565b6106cf565b6101e16102b9366004610f51565b610750565b61016f670de0b6b3a764000081565b61016f600081565b61030560405180604001604052806011815260200170436f6d6d756e69747949737375616e636560781b81525081565b6040516101799190611054565b6101e1610320366004610f51565b61079d565b6101e1610333366004610f86565b6107ea565b61016f7f000000000000000000000000000000000000000000000000000000000000000081565b6101e161036d366004611087565b61080f565b600061037c610888565b60006103a4670de0b6b3a764000061039e6103956108ee565b60035490610967565b90610973565b9050600060065482116103b85760006103c6565b6006546103c690839061097f565b60068390556040518381529091507fc39c4a12ccfc8d687432c13df0fed2a043068f0db11632ab629f8d80caffb1469060200160405180910390a192915050565b60006001600160e01b03198216637965db0b60e01b148061043857506301ffc9a760e01b6001600160e01b03198316145b92915050565b60008051602061121e8339815191526104568161098b565b60038290556040518281527fbdeac150b65b39f5b236c6da7d080a19e9cfd976d941b024ce45d0553958061b906020015b60405180910390a15050565b6000828152602081905260409020600101546104ae8161098b565b6104b88383610995565b505050565b6001600160a01b03811633146105325760405162461bcd60e51b815260206004820152602f60248201527f416363657373436f6e74726f6c3a2063616e206f6e6c792072656e6f756e636560448201526e103937b632b9903337b91039b2b63360891b60648201526084015b60405180910390fd5b61053c8282610a19565b5050565b610548610a7e565b61055184610ad8565b61055a83610ad8565b61057260008051602061121e83398151915283610995565b6105aa60008051602061121e8339815191527f8cbcadebe301ddcb67de73a9e365d5bce9a45f6cc9cb310264d01612b073e191610b7d565b6105d47f8cbcadebe301ddcb67de73a9e365d5bce9a45f6cc9cb310264d01612b073e19182610995565b600480546001600160a01b038087166001600160a01b0319928316179092556005805492861692909116919091179055670de0b5809a6f939860025560006003556040517f2228d43367ece49cb99c3d3ac6d6df4a289d31f4a2bd9ab1ff590c66f3a4d6c090610645908690610f3d565b60405180910390a17f45c53611bc8ba9e11f4f8173bda9e3faf89c395ddb83f9a55230b156828db3158360405161067c9190610f3d565b60405180910390a161068c610692565b50505050565b61069a610a7e565b6106a46000610bc8565b565b6000918252602082815260408084206001600160a01b0393909316845291905290205460ff1690565b6106d7610888565b6004805460405163a9059cbb60e01b81526001600160a01b03858116938201939093526024810184905291169063a9059cbb906044016020604051808303816000875af115801561072c573d6000803e3d6000fd5b505050506040513d601f19601f820116820180604052508101906104b891906110a2565b60008051602061121e8339815191526107688161098b565b60068290556040518281527f416050ba1ad930d987aa794914ee334d92084d96ec1ff7765aedebea62cc802e90602001610487565b60008051602061121e8339815191526107b58161098b565b60028290556040518281527f7e6a74d71c757a262f972c24851c456e04ba24718b8d96c4beba3e42495355c790602001610487565b6000828152602081905260409020600101546108058161098b565b6104b88383610a19565b610817610a7e565b6001600160a01b03811661087c5760405162461bcd60e51b815260206004820152602660248201527f4f776e61626c653a206e6577206f776e657220697320746865207a65726f206160448201526564647265737360d01b6064820152608401610529565b61088581610bc8565b50565b6005546001600160a01b031633146106a45760405162461bcd60e51b815260206004820152602360248201527f436f6d6d756e69747949737375616e63653a2063616c6c6572206973206e6f7460448201526202053560ec1b6064820152608401610529565b600080610920603c61039e427f000000000000000000000000000000000000000000000000000000000000000061097f565b9050600061093060025483610c1a565b90506000610946670de0b6b3a76400008361097f565b9050670de0b6b3a7640000811115610960576109606110c4565b9392505050565b600061096082846110f0565b6000610960828461111d565b60006109608284611131565b6108858133610cc8565b61099f82826106a6565b61053c576000828152602081815260408083206001600160a01b03851684529091529020805460ff191660011790556109d53390565b6001600160a01b0316816001600160a01b0316837f2f8788117e7eff1d82e926ec794901d17c78024a50270940304540a733656f0d60405160405180910390a45050565b610a2382826106a6565b1561053c576000828152602081815260408083206001600160a01b0385168085529252808320805460ff1916905551339285917ff6391f5c32d9c69d2a47ea670b442974b53935d1edc7fd64eb21e047a839171b9190a45050565b6001546001600160a01b031633146106a45760405162461bcd60e51b815260206004820181905260248201527f4f776e61626c653a2063616c6c6572206973206e6f7420746865206f776e65726044820152606401610529565b6001600160a01b038116610b2e5760405162461bcd60e51b815260206004820152601e60248201527f4163636f756e742063616e6e6f74206265207a65726f206164647265737300006044820152606401610529565b803b8061053c5760405162461bcd60e51b815260206004820181905260248201527f4163636f756e7420636f64652073697a652063616e6e6f74206265207a65726f6044820152606401610529565b600082815260208190526040808220600101805490849055905190918391839186917fbd79b86ffe0ab8e8776151514217cd7cacd52c909f66475c3af44e129f0b00ff9190a4505050565b600180546001600160a01b038381166001600160a01b0319831681179093556040519116919082907f8be0079c531659141344cd1fd0a4f28419497f9722a3daafe3b4186f6b6457e090600090a35050565b6000631f540500821115610c3057631f54050091505b81600003610c475750670de0b6b3a7640000610438565b670de0b6b3a764000083835b6001811115610cb457610c67600282611144565b600003610c8c57610c788283610d21565b9150610c85816002610973565b9050610c53565b610c968284610d21565b9250610ca28283610d21565b9150610c85600261039e83600161097f565b610cbe8284610d21565b9695505050505050565b610cd282826106a6565b61053c57610cdf81610d59565b610cea836020610d6b565b604051602001610cfb929190611158565b60408051601f198184030181529082905262461bcd60e51b825261052991600401611054565b600080610d2e8484610967565b9050610d51670de0b6b3a764000061039e610d4a60028361111d565b8490610f07565b949350505050565b60606104386001600160a01b03831660145b60606000610d7a8360026110f0565b610d859060026111c7565b67ffffffffffffffff811115610d9d57610d9d6111da565b6040519080825280601f01601f191660200182016040528015610dc7576020820181803683370190505b509050600360fc1b81600081518110610de257610de26111f0565b60200101906001600160f81b031916908160001a905350600f60fb1b81600181518110610e1157610e116111f0565b60200101906001600160f81b031916908160001a9053506000610e358460026110f0565b610e409060016111c7565b90505b6001811115610eb8576f181899199a1a9b1b9c1cb0b131b232b360811b85600f1660108110610e7457610e746111f0565b1a60f81b828281518110610e8a57610e8a6111f0565b60200101906001600160f81b031916908160001a90535060049490941c93610eb181611206565b9050610e43565b5083156109605760405162461bcd60e51b815260206004820181905260248201527f537472696e67733a20686578206c656e67746820696e73756666696369656e746044820152606401610529565b600061096082846111c7565b600060208284031215610f2557600080fd5b81356001600160e01b03198116811461096057600080fd5b6001600160a01b0391909116815260200190565b600060208284031215610f6357600080fd5b5035919050565b80356001600160a01b0381168114610f8157600080fd5b919050565b60008060408385031215610f9957600080fd5b82359150610fa960208401610f6a565b90509250929050565b60008060008060808587031215610fc857600080fd5b610fd185610f6a565b9350610fdf60208601610f6a565b9250610fed60408601610f6a565b9150610ffb60608601610f6a565b905092959194509250565b6000806040838503121561101957600080fd5b61102283610f6a565b946020939093013593505050565b60005b8381101561104b578181015183820152602001611033565b50506000910152565b6020815260008251806020840152611073816040850160208701611030565b601f01601f19169190910160400192915050565b60006020828403121561109957600080fd5b61096082610f6a565b6000602082840312156110b457600080fd5b8151801515811461096057600080fd5b634e487b7160e01b600052600160045260246000fd5b634e487b7160e01b600052601160045260246000fd5b8082028115828204841417610438576104386110da565b634e487b7160e01b600052601260045260246000fd5b60008261112c5761112c611107565b500490565b81810381811115610438576104386110da565b60008261115357611153611107565b500690565b76020b1b1b2b9b9a1b7b73a3937b61d1030b1b1b7bab73a1604d1b81526000835161118a816017850160208801611030565b7001034b99036b4b9b9b4b733903937b6329607d1b60179184019182015283516111bb816028840160208801611030565b01602801949350505050565b80820180821115610438576104386110da565b634e487b7160e01b600052604160045260246000fd5b634e487b7160e01b600052603260045260246000fd5b600081611215576112156110da565b50600019019056fe8f2b346f6ec617eaf7893fff30b9bc73166e158df38e66309ddad8b1fa988a7ea26469706673582212206f836cfcba609014e5c1d60f24eadfb977d72235b973ebf743b6b584263b9c0964736f6c63430008130033",
  "devdoc": {
    "events": {
      "RoleAdminChanged(bytes32,bytes32,bytes32)": {
        "details": "Emitted when `newAdminRole` is set as ``role``'s admin role, replacing `previousAdminRole` `DEFAULT_ADMIN_ROLE` is the starting admin for all roles, despite {RoleAdminChanged} not being emitted signaling this. _Available since v3.1._"
      },
      "RoleGranted(bytes32,address,address)": {
        "details": "Emitted when `account` is granted `role`. `sender` is the account that originated the contract call, an admin role bearer except when using {AccessControl-_setupRole}."
      },
      "RoleRevoked(bytes32,address,address)": {
        "details": "Emitted when `account` is revoked `role`. `sender` is the account that originated the contract call:   - if using `revokeRole`, it is the admin role bearer   - if using `renounceRole`, it is the role bearer (i.e. `account`)"
      }
    },
    "kind": "dev",
    "methods": {
      "getRoleAdmin(bytes32)": {
        "details": "Returns the admin role that controls `role`. See {grantRole} and {revokeRole}. To change a role's admin, use {_setRoleAdmin}."
      },
      "grantRole(bytes32,address)": {
        "details": "Grants `role` to `account`. If `account` had not been already granted `role`, emits a {RoleGranted} event. Requirements: - the caller must have ``role``'s admin role. May emit a {RoleGranted} event."
      },
      "hasRole(bytes32,address)": {
        "details": "Returns `true` if `account` has been granted `role`."
      },
      "owner()": {
        "details": "Returns the address of the current owner."
      },
      "renounceOwnership()": {
        "details": "Leaves the contract without owner. It will not be possible to call `onlyOwner` functions. Can only be called by the current owner. NOTE: Renouncing ownership will leave the contract without an owner, thereby disabling any functionality that is only available to the owner."
      },
      "renounceRole(bytes32,address)": {
        "details": "Revokes `role` from the calling account. Roles are often managed via {grantRole} and {revokeRole}: this function's purpose is to provide a mechanism for accounts to lose their privileges if they are compromised (such as when a trusted device is misplaced). If the calling account had been revoked `role`, emits a {RoleRevoked} event. Requirements: - the caller must be `account`. May emit a {RoleRevoked} event."
      },
      "revokeRole(bytes32,address)": {
        "details": "Revokes `role` from `account`. If `account` had been granted `role`, emits a {RoleRevoked} event. Requirements: - the caller must have ``role``'s admin role. May emit a {RoleRevoked} event."
      },
      "supportsInterface(bytes4)": {
        "details": "See {IERC165-supportsInterface}."
      },
      "transferOwnership(address)": {
        "details": "Transfers ownership of the contract to a new account (`newOwner`). Can only be called by the current owner."
      }
    },
    "version": 1
  },
  "userdoc": {
    "kind": "user",
    "methods": {},
    "version": 1
  },
  "storageLayout": {
    "storage": [
      {
        "astId": 24,
        "contract": "contracts/HOG/CommunityIssuance.sol:CommunityIssuance",
        "label": "_roles",
        "offset": 0,
        "slot": "0",
        "type": "t_mapping(t_bytes32,t_struct(RoleData)19_storage)"
      },
      {
        "astId": 396,
        "contract": "contracts/HOG/CommunityIssuance.sol:CommunityIssuance",
        "label": "_owner",
        "offset": 0,
        "slot": "1",
        "type": "t_address"
      },
      {
        "astId": 7462,
        "contract": "contracts/HOG/CommunityIssuance.sol:CommunityIssuance",
        "label": "ISSUANCE_FACTOR",
        "offset": 0,
        "slot": "2",
        "type": "t_uint256"
      },
      {
        "astId": 7464,
        "contract": "contracts/HOG/CommunityIssuance.sol:CommunityIssuance",
        "label": "HOGSupplyCap",
        "offset": 0,
        "slot": "3",
        "type": "t_uint256"
      },
      {
        "astId": 7475,
        "contract": "contracts/HOG/CommunityIssuance.sol:CommunityIssuance",
        "label": "hogToken",
        "offset": 0,
        "slot": "4",
        "type": "t_contract(IHOGToken)23719"
      },
      {
        "astId": 7477,
        "contract": "contracts/HOG/CommunityIssuance.sol:CommunityIssuance",
        "label": "stabilityPoolAddress",
        "offset": 0,
        "slot": "5",
        "type": "t_address"
      },
      {
        "astId": 7479,
        "contract": "contracts/HOG/CommunityIssuance.sol:CommunityIssuance",
        "label": "totalHOGIssued",
        "offset": 0,
        "slot": "6",
        "type": "t_uint256"
      }
    ],
    "types": {
      "t_address": {
        "encoding": "inplace",
        "label": "address",
        "numberOfBytes": "20"
      },
      "t_bool": {
        "encoding": "inplace",
        "label": "bool",
        "numberOfBytes": "1"
      },
      "t_bytes32": {
        "encoding": "inplace",
        "label": "bytes32",
        "numberOfBytes": "32"
      },
      "t_contract(IHOGToken)23719": {
        "encoding": "inplace",
        "label": "contract IHOGToken",
        "numberOfBytes": "20"
      },
      "t_mapping(t_address,t_bool)": {
        "encoding": "mapping",
        "key": "t_address",
        "label": "mapping(address => bool)",
        "numberOfBytes": "32",
        "value": "t_bool"
      },
      "t_mapping(t_bytes32,t_struct(RoleData)19_storage)": {
        "encoding": "mapping",
        "key": "t_bytes32",
        "label": "mapping(bytes32 => struct AccessControl.RoleData)",
        "numberOfBytes": "32",
        "value": "t_struct(RoleData)19_storage"
      },
      "t_struct(RoleData)19_storage": {
        "encoding": "inplace",
        "label": "struct AccessControl.RoleData",
        "members": [
          {
            "astId": 16,
            "contract": "contracts/HOG/CommunityIssuance.sol:CommunityIssuance",
            "label": "members",
            "offset": 0,
            "slot": "0",
            "type": "t_mapping(t_address,t_bool)"
          },
          {
            "astId": 18,
            "contract": "contracts/HOG/CommunityIssuance.sol:CommunityIssuance",
            "label": "adminRole",
            "offset": 0,
            "slot": "1",
            "type": "t_bytes32"
          }
        ],
        "numberOfBytes": "64"
      },
      "t_uint256": {
        "encoding": "inplace",
        "label": "uint256",
        "numberOfBytes": "32"
      }
    }
  }
}