{
  "address": "0xF160ef0eb1F379bF93ff52a645f2269a1A83951F",
  "abi": [
    {
      "inputs": [
        {
          "internalType": "uint256",
          "name": "_bootsrapDaysAmount",
          "type": "uint256"
        }
      ],
      "stateMutability": "nonpayable",
      "type": "constructor"
    },
    {
      "anonymous": false,
      "inputs": [
        {
          "indexed": false,
          "internalType": "address",
          "name": "_activePoolAddress",
          "type": "address"
        }
      ],
      "name": "ActivePoolAddressChanged",
      "type": "event"
    },
    {
      "anonymous": false,
      "inputs": [
        {
          "indexed": false,
          "internalType": "address",
          "name": "_newBaseFeeLMATokenAddress",
          "type": "address"
        }
      ],
      "name": "BaseFeeLMATokenAddressChanged",
      "type": "event"
    },
    {
      "anonymous": false,
      "inputs": [
        {
          "indexed": false,
          "internalType": "uint256",
          "name": "_baseRate",
          "type": "uint256"
        }
      ],
      "name": "BaseRateUpdated",
      "type": "event"
    },
    {
      "anonymous": false,
      "inputs": [
        {
          "indexed": false,
          "internalType": "uint256",
          "name": "_borrowBaseRate",
          "type": "uint256"
        }
      ],
      "name": "BorrowBaseRateUpdated",
      "type": "event"
    },
    {
      "anonymous": false,
      "inputs": [
        {
          "indexed": false,
          "internalType": "address",
          "name": "_newBorrowerOperationsAddress",
          "type": "address"
        }
      ],
      "name": "BorrowerOperationsAddressChanged",
      "type": "event"
    },
    {
      "anonymous": false,
      "inputs": [
        {
          "indexed": false,
          "internalType": "address",
          "name": "_collSurplusPoolAddress",
          "type": "address"
        }
      ],
      "name": "CollSurplusPoolAddressChanged",
      "type": "event"
    },
    {
      "anonymous": false,
      "inputs": [
        {
          "indexed": false,
          "internalType": "address",
          "name": "_defaultPoolAddress",
          "type": "address"
        }
      ],
      "name": "DefaultPoolAddressChanged",
      "type": "event"
    },
    {
      "anonymous": false,
      "inputs": [
        {
          "indexed": false,
          "internalType": "address",
          "name": "_feesRouterAddressUpdated",
          "type": "address"
        }
      ],
      "name": "FeesRouterAddressUpdated",
      "type": "event"
    },
    {
      "anonymous": false,
      "inputs": [
        {
          "indexed": false,
          "internalType": "address",
          "name": "_gasPoolAddress",
          "type": "address"
        }
      ],
      "name": "GasPoolAddressChanged",
      "type": "event"
    },
    {
      "anonymous": false,
      "inputs": [
        {
          "indexed": false,
          "internalType": "address",
          "name": "_hogTokenAddress",
          "type": "address"
        }
      ],
      "name": "HOGTokenAddressChanged",
      "type": "event"
    },
    {
      "anonymous": false,
      "inputs": [
        {
          "indexed": false,
          "internalType": "uint256",
          "name": "_L_WStETH",
          "type": "uint256"
        },
        {
          "indexed": false,
          "internalType": "uint256",
          "name": "_L_BaseFeeLMADebt",
          "type": "uint256"
        }
      ],
      "name": "LTermsUpdated",
      "type": "event"
    },
    {
      "anonymous": false,
      "inputs": [
        {
          "indexed": false,
          "internalType": "uint256",
          "name": "_lastBorrowTime",
          "type": "uint256"
        }
      ],
      "name": "LastBorrowTimeUpdated",
      "type": "event"
    },
    {
      "anonymous": false,
      "inputs": [
        {
          "indexed": false,
          "internalType": "uint256",
          "name": "_lastFeeOpTime",
          "type": "uint256"
        }
      ],
      "name": "LastFeeOpTimeUpdated",
      "type": "event"
    },
    {
      "anonymous": false,
      "inputs": [
        {
          "indexed": false,
          "internalType": "uint256",
          "name": "_lastRedemptionTime",
          "type": "uint256"
        }
      ],
      "name": "LastRedemptionTimeUpdated",
      "type": "event"
    },
    {
      "anonymous": false,
      "inputs": [
        {
          "indexed": false,
          "internalType": "uint256",
          "name": "_liquidatedDebt",
          "type": "uint256"
        },
        {
          "indexed": false,
          "internalType": "uint256",
          "name": "_liquidatedColl",
          "type": "uint256"
        },
        {
          "indexed": false,
          "internalType": "uint256",
          "name": "_collGasCompensation",
          "type": "uint256"
        },
        {
          "indexed": false,
          "internalType": "uint256",
          "name": "_BaseFeeLMAGasCompensation",
          "type": "uint256"
        }
      ],
      "name": "Liquidation",
      "type": "event"
    },
    {
      "anonymous": false,
      "inputs": [
        {
          "indexed": true,
          "internalType": "address",
          "name": "previousOwner",
          "type": "address"
        },
        {
          "indexed": true,
          "internalType": "address",
          "name": "newOwner",
          "type": "address"
        }
      ],
      "name": "OwnershipTransferred",
      "type": "event"
    },
    {
      "anonymous": false,
      "inputs": [
        {
          "indexed": false,
          "internalType": "address",
          "name": "_newPriceFeedAddress",
          "type": "address"
        }
      ],
      "name": "PriceFeedAddressChanged",
      "type": "event"
    },
    {
      "anonymous": false,
      "inputs": [
        {
          "indexed": false,
          "internalType": "uint256",
          "name": "_attemptedBaseFeeLMAAmount",
          "type": "uint256"
        },
        {
          "indexed": false,
          "internalType": "uint256",
          "name": "_actualBaseFeeLMAAmount",
          "type": "uint256"
        },
        {
          "indexed": false,
          "internalType": "uint256",
          "name": "_WStETHSent",
          "type": "uint256"
        },
        {
          "indexed": false,
          "internalType": "uint256",
          "name": "_WStETHFee",
          "type": "uint256"
        }
      ],
      "name": "Redemption",
      "type": "event"
    },
    {
      "anonymous": false,
      "inputs": [
        {
          "indexed": false,
          "internalType": "uint256",
          "name": "_redemptionBaseRate",
          "type": "uint256"
        }
      ],
      "name": "RedemptionBaseRateUpdated",
      "type": "event"
    },
    {
      "anonymous": false,
      "inputs": [
        {
          "indexed": false,
          "internalType": "address",
          "name": "_sortedTrovesAddress",
          "type": "address"
        }
      ],
      "name": "SortedTrovesAddressChanged",
      "type": "event"
    },
    {
      "anonymous": false,
      "inputs": [
        {
          "indexed": false,
          "internalType": "address",
          "name": "_stabilityPoolAddress",
          "type": "address"
        }
      ],
      "name": "StabilityPoolAddressChanged",
      "type": "event"
    },
    {
      "anonymous": false,
      "inputs": [
        {
          "indexed": false,
          "internalType": "uint256",
          "name": "_totalStakesSnapshot",
          "type": "uint256"
        },
        {
          "indexed": false,
          "internalType": "uint256",
          "name": "_totalCollateralSnapshot",
          "type": "uint256"
        }
      ],
      "name": "SystemSnapshotsUpdated",
      "type": "event"
    },
    {
      "anonymous": false,
      "inputs": [
        {
          "indexed": false,
          "internalType": "uint256",
          "name": "_newTotalStakes",
          "type": "uint256"
        }
      ],
      "name": "TotalStakesUpdated",
      "type": "event"
    },
    {
      "anonymous": false,
      "inputs": [
        {
          "indexed": false,
          "internalType": "address",
          "name": "_borrower",
          "type": "address"
        },
        {
          "indexed": false,
          "internalType": "uint256",
          "name": "_newIndex",
          "type": "uint256"
        }
      ],
      "name": "TroveIndexUpdated",
      "type": "event"
    },
    {
      "anonymous": false,
      "inputs": [
        {
          "indexed": true,
          "internalType": "address",
          "name": "_borrower",
          "type": "address"
        },
        {
          "indexed": false,
          "internalType": "uint256",
          "name": "_debt",
          "type": "uint256"
        },
        {
          "indexed": false,
          "internalType": "uint256",
          "name": "_coll",
          "type": "uint256"
        },
        {
          "indexed": false,
          "internalType": "enum TroveManager.TroveManagerOperation",
          "name": "_operation",
          "type": "uint8"
        }
      ],
      "name": "TroveLiquidated",
      "type": "event"
    },
    {
      "anonymous": false,
      "inputs": [
        {
          "indexed": false,
          "internalType": "uint256",
          "name": "_L_WStETH",
          "type": "uint256"
        },
        {
          "indexed": false,
          "internalType": "uint256",
          "name": "_L_BaseFeeLMADebt",
          "type": "uint256"
        }
      ],
      "name": "TroveSnapshotsUpdated",
      "type": "event"
    },
    {
      "anonymous": false,
      "inputs": [
        {
          "indexed": true,
          "internalType": "address",
          "name": "_borrower",
          "type": "address"
        },
        {
          "indexed": false,
          "internalType": "uint256",
          "name": "_debt",
          "type": "uint256"
        },
        {
          "indexed": false,
          "internalType": "uint256",
          "name": "_coll",
          "type": "uint256"
        },
        {
          "indexed": false,
          "internalType": "uint256",
          "name": "_stake",
          "type": "uint256"
        },
        {
          "indexed": false,
          "internalType": "enum TroveManager.TroveManagerOperation",
          "name": "_operation",
          "type": "uint8"
        }
      ],
      "name": "TroveUpdated",
      "type": "event"
    },
    {
      "inputs": [],
      "name": "BOOTSTRAP_PERIOD",
      "outputs": [
        {
          "internalType": "uint256",
          "name": "",
          "type": "uint256"
        }
      ],
      "stateMutability": "view",
      "type": "function"
    },
    {
      "inputs": [],
      "name": "BORROWING_FEE_FLOOR",
      "outputs": [
        {
          "internalType": "uint256",
          "name": "",
          "type": "uint256"
        }
      ],
      "stateMutability": "view",
      "type": "function"
    },
    {
      "inputs": [],
      "name": "BaseFeeLMA_GAS_COMPENSATION",
      "outputs": [
        {
          "internalType": "uint256",
          "name": "",
          "type": "uint256"
        }
      ],
      "stateMutability": "view",
      "type": "function"
    },
    {
      "inputs": [],
      "name": "CCR",
      "outputs": [
        {
          "internalType": "uint256",
          "name": "",
          "type": "uint256"
        }
      ],
      "stateMutability": "view",
      "type": "function"
    },
    {
      "inputs": [],
      "name": "DECIMAL_PRECISION",
      "outputs": [
        {
          "internalType": "uint256",
          "name": "",
          "type": "uint256"
        }
      ],
      "stateMutability": "view",
      "type": "function"
    },
    {
      "inputs": [],
      "name": "L_BaseFeeLMADebt",
      "outputs": [
        {
          "internalType": "uint256",
          "name": "",
          "type": "uint256"
        }
      ],
      "stateMutability": "view",
      "type": "function"
    },
    {
      "inputs": [],
      "name": "L_WStETH",
      "outputs": [
        {
          "internalType": "uint256",
          "name": "",
          "type": "uint256"
        }
      ],
      "stateMutability": "view",
      "type": "function"
    },
    {
      "inputs": [],
      "name": "MAX_BORROWING_FEE",
      "outputs": [
        {
          "internalType": "uint256",
          "name": "",
          "type": "uint256"
        }
      ],
      "stateMutability": "view",
      "type": "function"
    },
    {
      "inputs": [],
      "name": "MCR",
      "outputs": [
        {
          "internalType": "uint256",
          "name": "",
          "type": "uint256"
        }
      ],
      "stateMutability": "view",
      "type": "function"
    },
    {
      "inputs": [],
      "name": "MINUTE_DECAY_BORROWING_FACTOR",
      "outputs": [
        {
          "internalType": "uint256",
          "name": "",
          "type": "uint256"
        }
      ],
      "stateMutability": "view",
      "type": "function"
    },
    {
      "inputs": [],
      "name": "MINUTE_DECAY_REDEMPTION_FACTOR",
      "outputs": [
        {
          "internalType": "uint256",
          "name": "",
          "type": "uint256"
        }
      ],
      "stateMutability": "view",
      "type": "function"
    },
    {
      "inputs": [],
      "name": "MIN_NET_DEBT",
      "outputs": [
        {
          "internalType": "uint256",
          "name": "",
          "type": "uint256"
        }
      ],
      "stateMutability": "view",
      "type": "function"
    },
    {
      "inputs": [],
      "name": "NAME",
      "outputs": [
        {
          "internalType": "string",
          "name": "",
          "type": "string"
        }
      ],
      "stateMutability": "view",
      "type": "function"
    },
    {
      "inputs": [],
      "name": "PERCENT_DIVISOR",
      "outputs": [
        {
          "internalType": "uint256",
          "name": "",
          "type": "uint256"
        }
      ],
      "stateMutability": "view",
      "type": "function"
    },
    {
      "inputs": [],
      "name": "REDEMPTION_FEE_FLOOR",
      "outputs": [
        {
          "internalType": "uint256",
          "name": "",
          "type": "uint256"
        }
      ],
      "stateMutability": "view",
      "type": "function"
    },
    {
      "inputs": [],
      "name": "SECONDS_IN_ONE_MINUTE",
      "outputs": [
        {
          "internalType": "uint256",
          "name": "",
          "type": "uint256"
        }
      ],
      "stateMutability": "view",
      "type": "function"
    },
    {
      "inputs": [],
      "name": "SYSTEM_DEPLOYMENT_TIME",
      "outputs": [
        {
          "internalType": "uint256",
          "name": "",
          "type": "uint256"
        }
      ],
      "stateMutability": "view",
      "type": "function"
    },
    {
      "inputs": [
        {
          "internalType": "uint256",
          "name": "",
          "type": "uint256"
        }
      ],
      "name": "TroveOwners",
      "outputs": [
        {
          "internalType": "address",
          "name": "",
          "type": "address"
        }
      ],
      "stateMutability": "view",
      "type": "function"
    },
    {
      "inputs": [
        {
          "internalType": "address",
          "name": "",
          "type": "address"
        }
      ],
      "name": "Troves",
      "outputs": [
        {
          "internalType": "uint256",
          "name": "debt",
          "type": "uint256"
        },
        {
          "internalType": "uint256",
          "name": "coll",
          "type": "uint256"
        },
        {
          "internalType": "uint256",
          "name": "stake",
          "type": "uint256"
        },
        {
          "internalType": "enum TroveManager.Status",
          "name": "status",
          "type": "uint8"
        },
        {
          "internalType": "uint128",
          "name": "arrayIndex",
          "type": "uint128"
        },
        {
          "internalType": "uint256",
          "name": "lastBlockUpdated",
          "type": "uint256"
        }
      ],
      "stateMutability": "view",
      "type": "function"
    },
    {
      "inputs": [],
      "name": "_100pct",
      "outputs": [
        {
          "internalType": "uint256",
          "name": "",
          "type": "uint256"
        }
      ],
      "stateMutability": "view",
      "type": "function"
    },
    {
      "inputs": [],
      "name": "activePool",
      "outputs": [
        {
          "internalType": "contract IActivePool",
          "name": "",
          "type": "address"
        }
      ],
      "stateMutability": "view",
      "type": "function"
    },
    {
      "inputs": [
        {
          "internalType": "address",
          "name": "_borrower",
          "type": "address"
        }
      ],
      "name": "addTroveOwnerToArray",
      "outputs": [
        {
          "internalType": "uint256",
          "name": "index",
          "type": "uint256"
        }
      ],
      "stateMutability": "nonpayable",
      "type": "function"
    },
    {
      "inputs": [
        {
          "internalType": "address",
          "name": "_borrower",
          "type": "address"
        }
      ],
      "name": "applyPendingRewards",
      "outputs": [],
      "stateMutability": "nonpayable",
      "type": "function"
    },
    {
      "inputs": [],
      "name": "baseFeeLMAToken",
      "outputs": [
        {
          "internalType": "contract IBaseFeeLMAToken",
          "name": "",
          "type": "address"
        }
      ],
      "stateMutability": "view",
      "type": "function"
    },
    {
      "inputs": [
        {
          "internalType": "address[]",
          "name": "_troveArray",
          "type": "address[]"
        }
      ],
      "name": "batchLiquidateTroves",
      "outputs": [],
      "stateMutability": "nonpayable",
      "type": "function"
    },
    {
      "inputs": [],
      "name": "borrowBaseRate",
      "outputs": [
        {
          "internalType": "uint256",
          "name": "",
          "type": "uint256"
        }
      ],
      "stateMutability": "view",
      "type": "function"
    },
    {
      "inputs": [],
      "name": "borrowerOperationsAddress",
      "outputs": [
        {
          "internalType": "address",
          "name": "",
          "type": "address"
        }
      ],
      "stateMutability": "view",
      "type": "function"
    },
    {
      "inputs": [
        {
          "internalType": "uint256",
          "name": "_price",
          "type": "uint256"
        }
      ],
      "name": "checkRecoveryMode",
      "outputs": [
        {
          "internalType": "bool",
          "name": "",
          "type": "bool"
        }
      ],
      "stateMutability": "view",
      "type": "function"
    },
    {
      "inputs": [],
      "name": "checkUnreliableRecoveryMode",
      "outputs": [
        {
          "internalType": "bool",
          "name": "",
          "type": "bool"
        }
      ],
      "stateMutability": "view",
      "type": "function"
    },
    {
      "inputs": [
        {
          "internalType": "address",
          "name": "_borrower",
          "type": "address"
        }
      ],
      "name": "closeTrove",
      "outputs": [],
      "stateMutability": "nonpayable",
      "type": "function"
    },
    {
      "inputs": [],
      "name": "decayBaseRateFromBorrowing",
      "outputs": [],
      "stateMutability": "nonpayable",
      "type": "function"
    },
    {
      "inputs": [
        {
          "internalType": "address",
          "name": "_borrower",
          "type": "address"
        },
        {
          "internalType": "uint256",
          "name": "_collDecrease",
          "type": "uint256"
        }
      ],
      "name": "decreaseTroveColl",
      "outputs": [
        {
          "internalType": "uint256",
          "name": "",
          "type": "uint256"
        }
      ],
      "stateMutability": "nonpayable",
      "type": "function"
    },
    {
      "inputs": [
        {
          "internalType": "address",
          "name": "_borrower",
          "type": "address"
        },
        {
          "internalType": "uint256",
          "name": "_debtDecrease",
          "type": "uint256"
        }
      ],
      "name": "decreaseTroveDebt",
      "outputs": [
        {
          "internalType": "uint256",
          "name": "",
          "type": "uint256"
        }
      ],
      "stateMutability": "nonpayable",
      "type": "function"
    },
    {
      "inputs": [],
      "name": "defaultPool",
      "outputs": [
        {
          "internalType": "contract IDefaultPool",
          "name": "",
          "type": "address"
        }
      ],
      "stateMutability": "view",
      "type": "function"
    },
    {
      "inputs": [],
      "name": "feesRouter",
      "outputs": [
        {
          "internalType": "contract IFeesRouter",
          "name": "",
          "type": "address"
        }
      ],
      "stateMutability": "view",
      "type": "function"
    },
    {
      "inputs": [
        {
          "internalType": "uint256",
          "name": "_BaseFeeLMADebt",
          "type": "uint256"
        }
      ],
      "name": "getBorrowingFee",
      "outputs": [
        {
          "internalType": "uint256",
          "name": "",
          "type": "uint256"
        },
        {
          "internalType": "uint256",
          "name": "",
          "type": "uint256"
        }
      ],
      "stateMutability": "view",
      "type": "function"
    },
    {
      "inputs": [
        {
          "internalType": "uint256",
          "name": "_BaseFeeLMADebt",
          "type": "uint256"
        }
      ],
      "name": "getBorrowingFeeWithDecay",
      "outputs": [
        {
          "internalType": "uint256",
          "name": "",
          "type": "uint256"
        }
      ],
      "stateMutability": "view",
      "type": "function"
    },
    {
      "inputs": [
        {
          "internalType": "uint256",
          "name": "_issuedBaseFeeLMA",
          "type": "uint256"
        }
      ],
      "name": "getBorrowingRate",
      "outputs": [
        {
          "internalType": "uint256",
          "name": "",
          "type": "uint256"
        }
      ],
      "stateMutability": "view",
      "type": "function"
    },
    {
      "inputs": [
        {
          "internalType": "uint256",
          "name": "_issuedBaseFeeLMA",
          "type": "uint256"
        }
      ],
      "name": "getBorrowingRateWithDecay",
      "outputs": [
        {
          "internalType": "uint256",
          "name": "",
          "type": "uint256"
        }
      ],
      "stateMutability": "view",
      "type": "function"
    },
    {
      "inputs": [
        {
          "internalType": "address",
          "name": "_borrower",
          "type": "address"
        },
        {
          "internalType": "uint256",
          "name": "_price",
          "type": "uint256"
        }
      ],
      "name": "getCurrentICR",
      "outputs": [
        {
          "internalType": "uint256",
          "name": "",
          "type": "uint256"
        }
      ],
      "stateMutability": "view",
      "type": "function"
    },
    {
      "inputs": [
        {
          "internalType": "address",
          "name": "_borrower",
          "type": "address"
        }
      ],
      "name": "getEntireDebtAndColl",
      "outputs": [
        {
          "internalType": "uint256",
          "name": "debt",
          "type": "uint256"
        },
        {
          "internalType": "uint256",
          "name": "coll",
          "type": "uint256"
        },
        {
          "internalType": "uint256",
          "name": "pendingBaseFeeLMADebtReward",
          "type": "uint256"
        },
        {
          "internalType": "uint256",
          "name": "pendingWStETHReward",
          "type": "uint256"
        }
      ],
      "stateMutability": "view",
      "type": "function"
    },
    {
      "inputs": [],
      "name": "getEntireSystemColl",
      "outputs": [
        {
          "internalType": "uint256",
          "name": "entireSystemColl",
          "type": "uint256"
        }
      ],
      "stateMutability": "view",
      "type": "function"
    },
    {
      "inputs": [],
      "name": "getEntireSystemDebt",
      "outputs": [
        {
          "internalType": "uint256",
          "name": "entireSystemDebt",
          "type": "uint256"
        }
      ],
      "stateMutability": "view",
      "type": "function"
    },
    {
      "inputs": [
        {
          "internalType": "address",
          "name": "_borrower",
          "type": "address"
        }
      ],
      "name": "getNominalICR",
      "outputs": [
        {
          "internalType": "uint256",
          "name": "",
          "type": "uint256"
        }
      ],
      "stateMutability": "view",
      "type": "function"
    },
    {
      "inputs": [
        {
          "internalType": "uint256",
          "name": "_coll",
          "type": "uint256"
        },
        {
          "internalType": "uint256",
          "name": "_debt",
          "type": "uint256"
        }
      ],
      "name": "getNormalLiquidationPrice",
      "outputs": [
        {
          "internalType": "uint256",
          "name": "",
          "type": "uint256"
        }
      ],
      "stateMutability": "pure",
      "type": "function"
    },
    {
      "inputs": [
        {
          "internalType": "address",
          "name": "_borrower",
          "type": "address"
        }
      ],
      "name": "getPendingBaseFeeLMADebtReward",
      "outputs": [
        {
          "internalType": "uint256",
          "name": "",
          "type": "uint256"
        }
      ],
      "stateMutability": "view",
      "type": "function"
    },
    {
      "inputs": [
        {
          "internalType": "address",
          "name": "_borrower",
          "type": "address"
        }
      ],
      "name": "getPendingWStETHReward",
      "outputs": [
        {
          "internalType": "uint256",
          "name": "",
          "type": "uint256"
        }
      ],
      "stateMutability": "view",
      "type": "function"
    },
    {
      "inputs": [
        {
          "internalType": "uint256",
          "name": "_WStETHDrawn",
          "type": "uint256"
        }
      ],
      "name": "getRedemptionFeeWithDecay",
      "outputs": [
        {
          "internalType": "uint256",
          "name": "",
          "type": "uint256"
        }
      ],
      "stateMutability": "view",
      "type": "function"
    },
    {
      "inputs": [],
      "name": "getRedemptionRate",
      "outputs": [
        {
          "internalType": "uint256",
          "name": "",
          "type": "uint256"
        }
      ],
      "stateMutability": "view",
      "type": "function"
    },
    {
      "inputs": [],
      "name": "getRedemptionRateWithDecay",
      "outputs": [
        {
          "internalType": "uint256",
          "name": "",
          "type": "uint256"
        }
      ],
      "stateMutability": "view",
      "type": "function"
    },
    {
      "inputs": [
        {
          "internalType": "uint256",
          "name": "_price",
          "type": "uint256"
        }
      ],
      "name": "getTCR",
      "outputs": [
        {
          "internalType": "uint256",
          "name": "",
          "type": "uint256"
        }
      ],
      "stateMutability": "view",
      "type": "function"
    },
    {
      "inputs": [
        {
          "internalType": "address",
          "name": "_borrower",
          "type": "address"
        }
      ],
      "name": "getTroveColl",
      "outputs": [
        {
          "internalType": "uint256",
          "name": "",
          "type": "uint256"
        }
      ],
      "stateMutability": "view",
      "type": "function"
    },
    {
      "inputs": [
        {
          "internalType": "address",
          "name": "_borrower",
          "type": "address"
        }
      ],
      "name": "getTroveDebt",
      "outputs": [
        {
          "internalType": "uint256",
          "name": "",
          "type": "uint256"
        }
      ],
      "stateMutability": "view",
      "type": "function"
    },
    {
      "inputs": [
        {
          "internalType": "uint256",
          "name": "_index",
          "type": "uint256"
        }
      ],
      "name": "getTroveFromTroveOwnersArray",
      "outputs": [
        {
          "internalType": "address",
          "name": "",
          "type": "address"
        }
      ],
      "stateMutability": "view",
      "type": "function"
    },
    {
      "inputs": [],
      "name": "getTroveOwnersCount",
      "outputs": [
        {
          "internalType": "uint256",
          "name": "",
          "type": "uint256"
        }
      ],
      "stateMutability": "view",
      "type": "function"
    },
    {
      "inputs": [
        {
          "internalType": "address",
          "name": "_borrower",
          "type": "address"
        }
      ],
      "name": "getTroveStake",
      "outputs": [
        {
          "internalType": "uint256",
          "name": "",
          "type": "uint256"
        }
      ],
      "stateMutability": "view",
      "type": "function"
    },
    {
      "inputs": [
        {
          "internalType": "address",
          "name": "_borrower",
          "type": "address"
        }
      ],
      "name": "getTroveStatus",
      "outputs": [
        {
          "internalType": "uint256",
          "name": "",
          "type": "uint256"
        }
      ],
      "stateMutability": "view",
      "type": "function"
    },
    {
      "inputs": [
        {
          "internalType": "address",
          "name": "_borrower",
          "type": "address"
        }
      ],
      "name": "getTroveUpdateBlock",
      "outputs": [
        {
          "internalType": "uint256",
          "name": "",
          "type": "uint256"
        }
      ],
      "stateMutability": "view",
      "type": "function"
    },
    {
      "inputs": [],
      "name": "getUnreliableTCR",
      "outputs": [
        {
          "internalType": "uint256",
          "name": "",
          "type": "uint256"
        }
      ],
      "stateMutability": "view",
      "type": "function"
    },
    {
      "inputs": [
        {
          "internalType": "address",
          "name": "_borrower",
          "type": "address"
        }
      ],
      "name": "getUnreliableTroveICR",
      "outputs": [
        {
          "internalType": "uint256",
          "name": "",
          "type": "uint256"
        }
      ],
      "stateMutability": "view",
      "type": "function"
    },
    {
      "inputs": [
        {
          "internalType": "address",
          "name": "_borrower",
          "type": "address"
        }
      ],
      "name": "hasPendingRewards",
      "outputs": [
        {
          "internalType": "bool",
          "name": "",
          "type": "bool"
        }
      ],
      "stateMutability": "view",
      "type": "function"
    },
    {
      "inputs": [],
      "name": "hogToken",
      "outputs": [
        {
          "internalType": "contract IHOGToken",
          "name": "",
          "type": "address"
        }
      ],
      "stateMutability": "view",
      "type": "function"
    },
    {
      "inputs": [
        {
          "internalType": "address",
          "name": "_borrower",
          "type": "address"
        },
        {
          "internalType": "uint256",
          "name": "_collIncrease",
          "type": "uint256"
        }
      ],
      "name": "increaseTroveColl",
      "outputs": [
        {
          "internalType": "uint256",
          "name": "",
          "type": "uint256"
        }
      ],
      "stateMutability": "nonpayable",
      "type": "function"
    },
    {
      "inputs": [
        {
          "internalType": "address",
          "name": "_borrower",
          "type": "address"
        },
        {
          "internalType": "uint256",
          "name": "_debtIncrease",
          "type": "uint256"
        }
      ],
      "name": "increaseTroveDebt",
      "outputs": [
        {
          "internalType": "uint256",
          "name": "",
          "type": "uint256"
        }
      ],
      "stateMutability": "nonpayable",
      "type": "function"
    },
    {
      "inputs": [],
      "name": "lastBaseFeeLMADebtError_Redistribution",
      "outputs": [
        {
          "internalType": "uint256",
          "name": "",
          "type": "uint256"
        }
      ],
      "stateMutability": "view",
      "type": "function"
    },
    {
      "inputs": [],
      "name": "lastBorrowTime",
      "outputs": [
        {
          "internalType": "uint256",
          "name": "",
          "type": "uint256"
        }
      ],
      "stateMutability": "view",
      "type": "function"
    },
    {
      "inputs": [],
      "name": "lastRedemptionTime",
      "outputs": [
        {
          "internalType": "uint256",
          "name": "",
          "type": "uint256"
        }
      ],
      "stateMutability": "view",
      "type": "function"
    },
    {
      "inputs": [],
      "name": "lastWStETHError_Redistribution",
      "outputs": [
        {
          "internalType": "uint256",
          "name": "",
          "type": "uint256"
        }
      ],
      "stateMutability": "view",
      "type": "function"
    },
    {
      "inputs": [
        {
          "internalType": "address",
          "name": "_borrower",
          "type": "address"
        }
      ],
      "name": "liquidate",
      "outputs": [],
      "stateMutability": "nonpayable",
      "type": "function"
    },
    {
      "inputs": [
        {
          "internalType": "uint256",
          "name": "_n",
          "type": "uint256"
        }
      ],
      "name": "liquidateTroves",
      "outputs": [],
      "stateMutability": "nonpayable",
      "type": "function"
    },
    {
      "inputs": [],
      "name": "owner",
      "outputs": [
        {
          "internalType": "address",
          "name": "",
          "type": "address"
        }
      ],
      "stateMutability": "view",
      "type": "function"
    },
    {
      "inputs": [],
      "name": "priceFeed",
      "outputs": [
        {
          "internalType": "contract IPriceFeed",
          "name": "",
          "type": "address"
        }
      ],
      "stateMutability": "view",
      "type": "function"
    },
    {
      "inputs": [
        {
          "internalType": "uint256",
          "name": "_BaseFeeLMAamount",
          "type": "uint256"
        },
        {
          "internalType": "address",
          "name": "_firstRedemptionHint",
          "type": "address"
        },
        {
          "internalType": "address",
          "name": "_upperPartialRedemptionHint",
          "type": "address"
        },
        {
          "internalType": "address",
          "name": "_lowerPartialRedemptionHint",
          "type": "address"
        },
        {
          "internalType": "uint256",
          "name": "_partialRedemptionHintNICR",
          "type": "uint256"
        },
        {
          "internalType": "uint256",
          "name": "_maxIterations",
          "type": "uint256"
        },
        {
          "internalType": "uint256",
          "name": "_maxFeePercentage",
          "type": "uint256"
        }
      ],
      "name": "redeemCollateral",
      "outputs": [],
      "stateMutability": "nonpayable",
      "type": "function"
    },
    {
      "inputs": [],
      "name": "redemptionBaseRate",
      "outputs": [
        {
          "internalType": "uint256",
          "name": "",
          "type": "uint256"
        }
      ],
      "stateMutability": "view",
      "type": "function"
    },
    {
      "inputs": [
        {
          "internalType": "address",
          "name": "_borrower",
          "type": "address"
        }
      ],
      "name": "removeStake",
      "outputs": [],
      "stateMutability": "nonpayable",
      "type": "function"
    },
    {
      "inputs": [],
      "name": "renounceOwnership",
      "outputs": [],
      "stateMutability": "nonpayable",
      "type": "function"
    },
    {
      "inputs": [
        {
          "internalType": "address",
          "name": "",
          "type": "address"
        }
      ],
      "name": "rewardSnapshots",
      "outputs": [
        {
          "internalType": "uint256",
          "name": "WStETH",
          "type": "uint256"
        },
        {
          "internalType": "uint256",
          "name": "BaseFeeLMADebt",
          "type": "uint256"
        }
      ],
      "stateMutability": "view",
      "type": "function"
    },
    {
      "inputs": [
        {
          "internalType": "address",
          "name": "_borrowerOperationsAddress",
          "type": "address"
        },
        {
          "internalType": "address",
          "name": "_activePoolAddress",
          "type": "address"
        },
        {
          "internalType": "address",
          "name": "_defaultPoolAddress",
          "type": "address"
        },
        {
          "internalType": "address",
          "name": "_stabilityPoolAddress",
          "type": "address"
        },
        {
          "internalType": "address",
          "name": "_gasPoolAddress",
          "type": "address"
        },
        {
          "internalType": "address",
          "name": "_collSurplusPoolAddress",
          "type": "address"
        },
        {
          "internalType": "address",
          "name": "_priceFeedAddress",
          "type": "address"
        },
        {
          "internalType": "address",
          "name": "_baseFeeLMATokenAddress",
          "type": "address"
        },
        {
          "internalType": "address",
          "name": "_sortedTrovesAddress",
          "type": "address"
        },
        {
          "internalType": "address",
          "name": "_hogTokenAddress",
          "type": "address"
        },
        {
          "internalType": "address",
          "name": "_feesRouterAddress",
          "type": "address"
        }
      ],
      "name": "setAddresses",
      "outputs": [],
      "stateMutability": "nonpayable",
      "type": "function"
    },
    {
      "inputs": [
        {
          "internalType": "address",
          "name": "_borrower",
          "type": "address"
        }
      ],
      "name": "setTroveLastUpdatedBlock",
      "outputs": [],
      "stateMutability": "nonpayable",
      "type": "function"
    },
    {
      "inputs": [
        {
          "internalType": "address",
          "name": "_borrower",
          "type": "address"
        },
        {
          "internalType": "uint256",
          "name": "_num",
          "type": "uint256"
        }
      ],
      "name": "setTroveStatus",
      "outputs": [],
      "stateMutability": "nonpayable",
      "type": "function"
    },
    {
      "inputs": [],
      "name": "sortedTroves",
      "outputs": [
        {
          "internalType": "contract ISortedTroves",
          "name": "",
          "type": "address"
        }
      ],
      "stateMutability": "view",
      "type": "function"
    },
    {
      "inputs": [],
      "name": "stabilityPool",
      "outputs": [
        {
          "internalType": "contract IStabilityPool",
          "name": "",
          "type": "address"
        }
      ],
      "stateMutability": "view",
      "type": "function"
    },
    {
      "inputs": [],
      "name": "totalCollateralSnapshot",
      "outputs": [
        {
          "internalType": "uint256",
          "name": "",
          "type": "uint256"
        }
      ],
      "stateMutability": "view",
      "type": "function"
    },
    {
      "inputs": [],
      "name": "totalStakes",
      "outputs": [
        {
          "internalType": "uint256",
          "name": "",
          "type": "uint256"
        }
      ],
      "stateMutability": "view",
      "type": "function"
    },
    {
      "inputs": [],
      "name": "totalStakesSnapshot",
      "outputs": [
        {
          "internalType": "uint256",
          "name": "",
          "type": "uint256"
        }
      ],
      "stateMutability": "view",
      "type": "function"
    },
    {
      "inputs": [
        {
          "internalType": "address",
          "name": "newOwner",
          "type": "address"
        }
      ],
      "name": "transferOwnership",
      "outputs": [],
      "stateMutability": "nonpayable",
      "type": "function"
    },
    {
      "inputs": [
        {
          "internalType": "uint256",
          "name": "_newBaseRate",
          "type": "uint256"
        }
      ],
      "name": "updateBaseRateFromBorrowing",
      "outputs": [],
      "stateMutability": "nonpayable",
      "type": "function"
    },
    {
      "inputs": [
        {
          "internalType": "address",
          "name": "_borrower",
          "type": "address"
        }
      ],
      "name": "updateStakeAndTotalStakes",
      "outputs": [
        {
          "internalType": "uint256",
          "name": "",
          "type": "uint256"
        }
      ],
      "stateMutability": "nonpayable",
      "type": "function"
    },
    {
      "inputs": [
        {
          "internalType": "address",
          "name": "_borrower",
          "type": "address"
        }
      ],
      "name": "updateTroveRewardSnapshots",
      "outputs": [],
      "stateMutability": "nonpayable",
      "type": "function"
    }
  ],
  "transactionHash": "0xab6116ad9aa988ecb32970cb8db4904d9edaf58513b487e6fb9cf0676a58023c",
  "args": [
    0
  ],
  "numDeployments": 1,
  "solcInputHash": "4ccca51e62448e01009bd841c85af6d3",
  "bytecode": "0x60c06040523480156200001157600080fd5b5060405162005e3e38038062005e3e8339810160408190526200003491620000c6565b6200003f3362000074565b6200004c81603c620000e0565b6200005990603c620000e0565b62000066906018620000e0565b608052504260a0526200010c565b600380546001600160a01b038381166001600160a01b0319831681179093556040519116919082907f8be0079c531659141344cd1fd0a4f28419497f9722a3daafe3b4186f6b6457e090600090a35050565b600060208284031215620000d957600080fd5b5051919050565b80820281158282048414176200010657634e487b7160e01b600052601160045260246000fd5b92915050565b60805160a051615cfe6200014060003960008181610b3d0152613e58015260008181610a570152613e790152615cfe6000f3fe608060405234801561001057600080fd5b50600436106104e35760003560e01c80637f7dde4a1161028e578063bb6f030c11610167578063d5b35635116100d9578063e2ac77b011610092578063e2ac77b014610b67578063e324634914610b7a578063f2fde38b14610b83578063f92d343314610624578063fb0cbd4b14610b96578063fe2ba84814610ba557600080fd5b8063d5b3563514610ad6578063d66a255314610ae9578063d696629714610b12578063d9a7244414610b25578063e030c10c14610b38578063e1f787e914610b5f57600080fd5b8063c3eb5c671161012b578063c3eb5c6714610a79578063c42dab9914610a82578063c52861f214610a95578063cbd138ae14610a9d578063d293c71014610ab0578063d3d6f84314610ac357600080fd5b8063bb6f030c14610a24578063bcd3752614610a2d578063bf9befb114610a40578063c26c880014610a49578063c35bc55014610a5257600080fd5b8063a201415211610200578063b0d8e181116101c4578063b0d8e1811461099c578063b25c3183146109af578063b36cd07f146109b8578063b7f8cf9b146109cb578063b82f263d146109de578063b91af97c146109f157600080fd5b8063a20141521461092d578063a20baee614610615578063a3f4df7e1461093e578063acef5b8d14610976578063ae9187541461098957600080fd5b80638f913789116102525780638f913789146108cf578063900e664b146108e2578063948ba6d2146108eb57806396d711ff146108fe5780639976cf45146109075780639f7adb5e1461091a57600080fd5b80637f7dde4a14610887578063807d138d1461089a57806382fe3eb9146108a3578063887105d3146108b65780638da5cb5b146108be57600080fd5b80634870dd9a116103c05780636ef6433811610332578063741bef1a116102f6578063741bef1a14610828578063756b253e1461083b578063794e57241461084e578063795d26c31461085d5780637985c5e4146108655780637e024ad61461087857600080fd5b80636ef64338146107a2578063715018a61461080557806371f256e21461080d57806372423c171461081557806372fe25aa1461061557600080fd5b80635d6b480f116103845780635d6b480f1461072d5780635dba4c4a1461074057806361ec893d14610748578063631203b01461075057806364cee26014610763578063653d46e71461078f57600080fd5b80634870dd9a146106d857806349eefeee146106e05780634e443d9e146106e8578063570dc45e1461070b5780635733d58f1461071e57600080fd5b806321e37801116104595780632f8655681161041d5780632f865568146106345780633cc74225146106475780634194d9661461065a57806347142aa314610686578063477d66cf14610699578063480cd578146106ac57600080fd5b806321e37801146105f957806322afd9f11461060c578063240926691461061557806328d28b5b146106245780632b11551a1461062c57600080fd5b806315d549f1116104ab57806315d549f1146105695780631673c79a1461057c57806318f2817a146105b85780631b199a64146105cb5780631bf43555146105d45780631e8b1c2b146105e657600080fd5b8063030c5a0f146104e8578063048c661d1461050e5780630b0765571461052e5780630c08ff5f1461054357806312610e9214610556575b600080fd5b6104fb6104f6366004615713565b610bb8565b6040519081526020015b60405180910390f35b600554610521906001600160a01b031681565b6040516105059190615730565b61054161053c366004615713565b610c71565b005b6104fb610551366004615713565b610c99565b6104fb610564366004615744565b610cc4565b6104fb610577366004615713565b610d16565b6105a361058a366004615713565b6016602052600090815260409020805460019091015482565b60408051928352602083019190915201610505565b6104fb6105c6366004615713565b610d38565b6104fb60195481565b6104fb6a295be96e6406697200000081565b6105416105f4366004615786565b610d4b565b6104fb610607366004615713565b611154565b6104fb60145481565b6104fb670de0b6b3a764000081565b6104fb611184565b6104fb6111a6565b610541610642366004615713565b6111b8565b600154610521906001600160a01b031681565b6104fb610668366004615713565b6001600160a01b031660009081526010602052604090206004015490565b6104fb61069436600461584b565b611224565b6104fb6106a736600461586d565b611242565b6104fb6106ba366004615713565b6001600160a01b031660009081526010602052604090206001015490565b6104fb60c881565b6017546104fb565b6106fb6106f636600461586d565b611256565b6040519015158152602001610505565b600954610521906001600160a01b031681565b6104fb671bc16d674ec8000081565b61054161073b366004615744565b611261565b6105416112b9565b6104fb603c81565b6105a361075e36600461586d565b6112f2565b6104fb610771366004615713565b6001600160a01b031660009081526010602052604090206002015490565b61054161079d36600461586d565b611315565b6107f36107b0366004615713565b6010602052600090815260409020805460018201546002830154600384015460049094015492939192909160ff8116916101009091046001600160801b03169086565b6040516105059695949392919061589c565b6105416116e9565b6106fb6116fd565b6104fb610823366004615744565b61177e565b600254610521906001600160a01b031681565b61052161084936600461586d565b6117d5565b6104fb6714d1120d7b16000081565b6104fb6117ff565b6105416108733660046158e7565b6118fb565b6104fb670ddd4b8c6c7d70d881565b600054610521906001600160a01b031681565b6104fb60125481565b6105416108b1366004615713565b611c77565b6104fb611c88565b6003546001600160a01b0316610521565b600854610521906001600160a01b031681565b6104fb60155481565b6104fb6108f936600461586d565b611d4d565b6104fb60135481565b6104fb610915366004615744565b611d60565b61054161092836600461586d565b611d8d565b6104fb69152d02c7e14af680000081565b6109696040518060400160405280600c81526020016b2a3937bb32a6b0b730b3b2b960a11b81525081565b60405161050591906159c5565b610541610984366004615713565b611e92565b600b54610521906001600160a01b031681565b6104fb6109aa366004615713565b611eba565b6104fb60185481565b6104fb6109c636600461586d565b611ee1565b600454610521906001600160a01b031681565b6104fb6109ec36600461586d565b611eef565b610a046109ff366004615713565b611efa565b604080519485526020850193909352918301526060820152608001610505565b6104fb600c5481565b610541610a3b366004615a13565b611f52565b6104fb60115481565b6104fb600f5481565b6104fb7f000000000000000000000000000000000000000000000000000000000000000081565b6104fb600d5481565b600a54610521906001600160a01b031681565b6104fb612664565b610541610aab366004615713565b612676565b6104fb610abe366004615744565b612689565b6104fb610ad1366004615744565b6126a8565b6104fb610ae436600461586d565b6126d8565b6104fb610af7366004615713565b6001600160a01b031660009081526010602052604090205490565b6104fb610b20366004615713565b6126eb565b610521610b3336600461586d565b612784565b6104fb7f000000000000000000000000000000000000000000000000000000000000000081565b6104fb6127b4565b6106fb610b75366004615713565b612835565b6104fb600e5481565b610541610b91366004615713565b612898565b6104fb670dc14847bcc53b2081565b610541610bb3366004615713565b61290e565b6001600160a01b0381166000908152601660205260408120546014548290610be0908361291f565b9050801580610c1f575060016001600160a01b03851660009081526010602052604090206003015460ff166004811115610c1c57610c1c615886565b14155b15610c2e575060009392505050565b6001600160a01b03841660009081526010602052604081206002015490610c67670de0b6b3a7640000610c618486612932565b9061293e565b9695505050505050565b610c7961294a565b600054600154610c96916001600160a01b039081169116836129ca565b50565b6001600160a01b0381166000908152601660205260408120600101546015548290610be0908361291f565b6000610cce61294a565b6001600160a01b038316600090815260106020526040812054610cf1908461291f565b6001600160a01b03851660009081526010602052604090208190559150505b92915050565b6000610d2061294a565b610d2982612ad0565b6001600160801b031692915050565b6000610d4261294a565b610d1082612b6a565b8051600003610dc05760405162461bcd60e51b815260206004820152603660248201527f54726f76654d616e616765723a2043616c6c646174612061646472657373206160448201527572726179206d757374206e6f7420626520656d70747960501b60648201526084015b60405180910390fd5b6000546001546005546001600160a01b03928316929182169116610de2615629565b610dea61565a565b600260009054906101000a90046001600160a01b03166001600160a01b0316630fdb11cf6040518163ffffffff1660e01b81526004016020604051808303816000875af1158015610e3f573d6000803e3d6000fd5b505050506040513d601f19601f82011682018060405250810190610e639190615a81565b826000018181525050826001600160a01b031663488df0fc6040518163ffffffff1660e01b8152600401602060405180830381865afa158015610eaa573d6000803e3d6000fd5b505050506040513d601f19601f82011682018060405250810190610ece9190615a81565b60208301528151610ede90612c0e565b1580156040840152610f0657610eff8585846000015185602001518a612c2b565b9050610f1e565b610f1b8585846000015185602001518a612e52565b90505b6000816020015111610f425760405162461bcd60e51b8152600401610db790615a9a565b608081015160a082015160405163335525ad60e01b81526001600160a01b0386169263335525ad92610f7f92600401918252602082015260400190565b600060405180830381600087803b158015610f9957600080fd5b505af1158015610fad573d6000803e3d6000fd5b50505050610fc585858360c001518460e00151612f22565b610100810151156110a35760075461010082015160405162f9332d60e61b81526001600160a01b0390921691633e4ccb40916110079160040190815260200190565b600060405180830381600087803b15801561102157600080fd5b505af1158015611035573d6000803e3d6000fd5b50506007546101008401516040516316daab2160e01b81526001600160a01b03808b1695506316daab21945061107093169190600401615adc565b600060405180830381600087803b15801561108a57600080fd5b505af115801561109e573d6000803e3d6000fd5b505050505b6110b18582604001516131b6565b60208101516060830152610100810151604082015182516110dd92916110d7919061291f565b9061291f565b6080838101829052606080850151604085810151868401518251938452602084019690965290820152908101929092527f4152c73dd2614c4f9fc35e8c9cf16013cd588c75b49a4c1673ecffdcbcda9403910160405180910390a161114c8533836060015184604001516132fa565b505050505050565b6001600160a01b03811660009081526010602052604081206003015460ff166004811115610d1057610d10615886565b6111986103e8670de0b6b3a7640000615b21565b6111a3906005615b35565b81565b60006111b3600c546133dd565b905090565b6111c181613413565b6040805160018082528183019092526000916020808301908036833701905050905081816000815181106111f7576111f7615b4c565b60200260200101906001600160a01b031690816001600160a01b03168152505061122081610d4b565b5050565b60008061123a84846714d1120d7b1600006134aa565b949350505050565b6000610d1061125083611d4d565b836134ea565b6000610d1082612c0e565b61126961294a565b80600481111561127b5761127b615886565b6001600160a01b0383166000908152601060205260409020600301805460ff191660018360048111156112b0576112b0615886565b02179055505050565b6112c161294a565b60006112cb613502565b9050670de0b6b3a76400008111156112e5576112e5615b62565b600d819055610c96613546565b600080600061130084611ee1565b905061130c81856134ea565b94909350915050565b6040805160c081018252600080546001600160a01b03908116835260015481166020840152928201819052600b54831660608301526080820181905260a0820152600554909116611364615629565b61136c61565a565b600260009054906101000a90046001600160a01b03166001600160a01b0316630fdb11cf6040518163ffffffff1660e01b81526004016020604051808303816000875af11580156113c1573d6000803e3d6000fd5b505050506040513d601f19601f820116820180604052508101906113e59190615a81565b826000018181525050826001600160a01b031663488df0fc6040518163ffffffff1660e01b8152600401602060405180830381865afa15801561142c573d6000803e3d6000fd5b505050506040513d601f19601f820116820180604052508101906114509190615a81565b6020830152815161146090612c0e565b15801560408401526114875761148084836000015184602001518861359d565b90506114a7565b6114a484600001518560200151846000015185602001518961391a565b90505b60008160200151116114cb5760405162461bcd60e51b8152600401610db790615a9a565b608081015160a082015160405163335525ad60e01b81526001600160a01b0386169263335525ad9261150892600401918252602082015260400190565b600060405180830381600087803b15801561152257600080fd5b505af1158015611536573d6000803e3d6000fd5b50505050611556846000015185602001518360c001518460e00151612f22565b610100810151156116375760075461010082015160405162f9332d60e61b81526001600160a01b0390921691633e4ccb40916115989160040190815260200190565b600060405180830381600087803b1580156115b257600080fd5b505af11580156115c6573d6000803e3d6000fd5b505085516007546101008501516040516316daab2160e01b81526001600160a01b0393841695506316daab2194506116049390921691600401615adc565b600060405180830381600087803b15801561161e57600080fd5b505af1158015611632573d6000803e3d6000fd5b505050505b611649846000015182604001516131b6565b602081015160608301526101008101516040820151825161166f92916110d7919061291f565b6080838101829052606080850151604085810151868401518251938452602084019690965290820152908101929092527f4152c73dd2614c4f9fc35e8c9cf16013cd588c75b49a4c1673ecffdcbcda9403910160405180910390a16116e2846000015133836060015184604001516132fa565b5050505050565b6116f1613a4b565b6116fb6000613aa5565b565b60006111b3600260009054906101000a90046001600160a01b03166001600160a01b0316630490be836040518163ffffffff1660e01b8152600401602060405180830381865afa158015611755573d6000803e3d6000fd5b505050506040513d601f19601f820116820180604052508101906117799190615a81565b612c0e565b600061178861294a565b6001600160a01b0383166000908152601060205260408120600101546117ae9084613af7565b6001600160a01b038516600090815260106020526040902060010181905591505092915050565b601781815481106117e557600080fd5b6000918252602090912001546001600160a01b0316905081565b60008054604080516315b3137b60e21b8152905183926001600160a01b0316916356cc4dec9160048083019260209291908290030181865afa158015611849573d6000803e3d6000fd5b505050506040513d601f19601f8201168201806040525081019061186d9190615a81565b90506000600160009054906101000a90046001600160a01b03166001600160a01b03166356cc4dec6040518163ffffffff1660e01b8152600401602060405180830381865afa1580156118c4573d6000803e3d6000fd5b505050506040513d601f19601f820116820180604052508101906118e89190615a81565b90506118f48282613af7565b9250505090565b611903613a4b565b61190c8b613b03565b6119158a613b03565b61191e89613b03565b61192788613b03565b61193087613b03565b61193986613b03565b61194285613b03565b61194b84613b03565b61195483613b03565b61195d82613b03565b61196681613b03565b600480546001600160a01b03199081166001600160a01b038e8116919091179092556000805482168d84161790556001805482168c84161790556005805482168b84161790556006805482168a8416179055600780548216898416179055600280548216888416179055600880548216878416179055600b80548216868416179055600980548216858416179055600a80549091169183169190911790556040517f3ca631ffcd2a9b5d9ae18543fc82f58eb4ca33af9e6ab01b7a8e95331e6ed98590611a34908d90615730565b60405180910390a17f78f058b189175430c48dc02699e3a0031ea4ff781536dc2fab847de4babdd8828a604051611a6b9190615730565b60405180910390a17f5ee0cae2f063ed938bb55046f6a932fb6ae792bf43624806bb90abe68a50be9b89604051611aa29190615730565b60405180910390a17f82966d27eea39b038ee0fa30cd16532bb24f6e65d31cb58fb227aa5766cdcc7f88604051611ad99190615730565b60405180910390a17fcfb07d791fcafc032b35837b50eb84b74df518cf4cc287e8084f47630fa70fa087604051611b109190615730565b60405180910390a17fe67f36a6e961157d6eff83b91f3af5a62131ceb6f04954ef74f51c1c05e7f88d86604051611b479190615730565b60405180910390a17f8c537274438aa850a330284665d81a85dd38267d09e4050d416bfc94142db26485604051611b7e9190615730565b60405180910390a17f7faa560f2889840c377209fbc4b6b92d05f43f1fc60bf336ab546fd60c0051ad84604051611bb59190615730565b60405180910390a17f65f4cf077bc01e4742eb5ad98326f6e95b63548ea24b17f8d5e823111fe7880083604051611bec9190615730565b60405180910390a17f0d32e4ef3d389440323b172cfc07c6c01bdd1d3e8334379048eec21e8d919b7782604051611c239190615730565b60405180910390a17f6877e00d9059f8716bd795b5d4c2c89a4bc3cef71ba3dd99b168ac9cc1f2a6c281604051611c5a9190615730565b60405180910390a1611c6a6116e9565b5050505050505050505050565b611c7f61294a565b610c9681613ba8565b6000805460408051630ee2ec9760e41b8152905183926001600160a01b03169163ee2ec9709160048083019260209291908290030181865afa158015611cd2573d6000803e3d6000fd5b505050506040513d601f19601f82011682018060405250810190611cf69190615a81565b90506000600160009054906101000a90046001600160a01b03166001600160a01b031663ee2ec9706040518163ffffffff1660e01b8152600401602060405180830381865afa1580156118c4573d6000803e3d6000fd5b6000610d10611d5a613502565b83613c0c565b6000611d6a61294a565b6001600160a01b038316600090815260106020526040812054610cf19084613af7565b6004546001600160a01b03163314611dff5760405162461bcd60e51b815260206004820152602f60248201527f54726f76654d616e616765723a204f6e6c7920426f72726f776572206f70657260448201526e185d1a5bdb9cc81b585e4818d85b1b608a1b6064820152608401610db7565b611e136103e8670de0b6b3a7640000615b21565b611e1e906005615b35565b8110611e5557611e386103e8670de0b6b3a7640000615b21565b611e43906005615b35565b611e4d9082615b78565b600d55611e5b565b6000600d555b6040518181527fca870d46d67e9a1444a6b8f97a147e06e4cf71ee2a0f172d7ecd5441ae7c1201906020015b60405180910390a150565b611e9a61294a565b6001600160a01b0316600090815260106020526040902043600490910155565b6000806000611ec884613ceb565b915091506000611ed88383613d65565b95945050505050565b6000610d10600d5483613c0c565b6000610d1082613d94565b6001600160a01b03811660009081526010602052604081208054600190910154909180611f2685610c99565b9150611f3185610bb8565b9050611f3d8483613af7565b9350611f498382613af7565b92509193509193565b6040805160c08082018352600080546001600160a01b0390811684526001548116602080860191909152600854821685870152600b548216606080870191909152600754831660808088019190915260065490931660a080880191909152875161010081018952858152928301859052968201849052810183905290810182905293840181905290830181905260e083015290611fee83613db8565b611ff6613e53565b600260009054906101000a90046001600160a01b03166001600160a01b0316630fdb11cf6040518163ffffffff1660e01b81526004016020604051808303816000875af115801561204b573d6000803e3d6000fd5b505050506040513d601f19601f8201168201806040525081019061206f9190615a81565b60c0820181905261207f90613f14565b61208889613f87565b6120978260400151338b613fee565b61209f6117ff565b60e0820181905260408084015190516370a0823160e01b81526001600160a01b03909116906370a08231906120d8903390600401615730565b602060405180830381865afa1580156120f5573d6000803e3d6000fd5b505050506040513d601f19601f820116820180604052508101906121199190615a81565b111561212757612127615b62565b888152606082015160c0820151600091612142918b906140ee565b1561214e575087612260565b82606001516001600160a01b0316634d6228316040518163ffffffff1660e01b8152600401602060405180830381865afa158015612190573d6000803e3d6000fd5b505050506040513d601f19601f820116820180604052508101906121b49190615b8b565b90505b6001600160a01b038116158015906121e357506714d1120d7b1600006121e1828460c00151612689565b105b156122605782606001516001600160a01b031663b72703ac826040518263ffffffff1660e01b81526004016122189190615730565b602060405180830381865afa158015612235573d6000803e3d6000fd5b505050506040513d601f19601f820116820180604052508101906122599190615b8b565b90506121b7565b8460000361226e5760001994505b6001600160a01b038116158015906122865750815115155b80156122925750600085115b1561239e57846122a181615ba8565b955050600083606001516001600160a01b031663b72703ac836040518263ffffffff1660e01b81526004016122d69190615730565b602060405180830381865afa1580156122f3573d6000803e3d6000fd5b505050506040513d601f19601f820116820180604052508101906123179190615b8b565b905061232c84600001518560200151846129ca565b6000612345858486600001518760c001518e8e8e614238565b905080604001511561235857505061239e565b8051602085015161236891613af7565b602080860191909152810151604085015161238291613af7565b6040850152805184516123949161291f565b845250905061226e565b60008260400151116124045760405162461bcd60e51b815260206004820152602960248201527f54726f76654d616e616765723a20556e61626c6520746f2072656465656d20616044820152681b9e48185b5bdd5b9d60ba1b6064820152608401610db7565b61241182604001516144c6565b5061241f8260400151614645565b606083018190526040830151612436919086614652565b600a54604080840151606085015191516318ddad8960e21b81526001600160a01b0390931692636376b624926124789291600401918252602082015260400190565b600060405180830381600087803b15801561249257600080fd5b505af11580156124a6573d6000803e3d6000fd5b50505050606082015160408301516124bd9161291f565b60808301526020820151604080840151606085015191517f43a3f4082a4dbc33d78e317d2497d3a730bc7fc3574159dcea1056e62e5d9ad893612519938f93919293845260208401929092526040830152606082015260800190565b60405180910390a182604001516001600160a01b0316639dc29fac3384602001516040518363ffffffff1660e01b8152600401612557929190615adc565b600060405180830381600087803b15801561257157600080fd5b505af1158015612585573d6000803e3d6000fd5b505084516020850151604051633b4009ff60e11b81526001600160a01b03909216935063768013fe92506125bf9160040190815260200190565b600060405180830381600087803b1580156125d957600080fd5b505af11580156125ed573d6000803e3d6000fd5b5050845160808501516040516316daab2160e01b81526001600160a01b0390921693506316daab21925061262691339190600401615adc565b600060405180830381600087803b15801561264057600080fd5b505af1158015612654573d6000803e3d6000fd5b5050505050505050505050505050565b60006111b36126716146bc565b6133dd565b61267e61294a565b610c96816002614700565b600080600061269785613ceb565b915091506000610c6783838761482d565b60006126b261294a565b6001600160a01b0383166000908152601060205260408120600101546117ae908461291f565b6000610d106126e5612664565b8361486b565b600080600260009054906101000a90046001600160a01b03166001600160a01b0316630490be836040518163ffffffff1660e01b8152600401602060405180830381865afa158015612741573d6000803e3d6000fd5b505050506040513d601f19601f820116820180604052508101906127659190615a81565b905060008061277385613ceb565b915091506000610c6783838661482d565b60006017828154811061279957612799615b4c565b6000918252602090912001546001600160a01b031692915050565b60006111b3600260009054906101000a90046001600160a01b03166001600160a01b0316630490be836040518163ffffffff1660e01b8152600401602060405180830381865afa15801561280c573d6000803e3d6000fd5b505050506040513d601f19601f820116820180604052508101906128309190615a81565b613d94565b600060016001600160a01b03831660009081526010602052604090206003015460ff16600481111561286957612869615886565b1461287657506000919050565b506014546001600160a01b039091166000908152601660205260409020541090565b6128a0613a4b565b6001600160a01b0381166129055760405162461bcd60e51b815260206004820152602660248201527f4f776e61626c653a206e6577206f776e657220697320746865207a65726f206160448201526564647265737360d01b6064820152608401610db7565b610c9681613aa5565b61291661294a565b610c9681614884565b600061292b8284615b78565b9392505050565b600061292b8284615b35565b600061292b8284615b21565b6004546001600160a01b031633146116fb5760405162461bcd60e51b815260206004820152603b60248201527f54726f76654d616e616765723a2043616c6c6572206973206e6f74207468652060448201527f426f72726f7765724f7065726174696f6e7320636f6e747261637400000000006064820152608401610db7565b6129d381612835565b15612acb576129e181613413565b60006129ec82610bb8565b905060006129f983610c99565b6001600160a01b038416600090815260106020526040902060010154909150612a229083613af7565b6001600160a01b0384166000908152601060205260409020600181019190915554612a4d9082613af7565b6001600160a01b038416600090815260106020526040902055612a6f83613ba8565b612a7b858583856148ce565b6001600160a01b038316600081815260106020526040808220805460018201546002909201549251600080516020615ca983398151915294612ac09492939291615bd3565b60405180910390a250505b505050565b601780546001808201835560008381527fc624b66cc0138b8fabc209247f72d758e1cf3343756d543badbf24212bed8c1590920180546001600160a01b0319166001600160a01b03861617905591549091612b2b919061291f565b6001600160a01b039290921660009081526010602052604090206003018054610100600160881b0319166101006001600160801b038516021790555090565b6001600160a01b0381166000908152601060205260408120600101548190612b91906149af565b6001600160a01b038416600090815260106020526040902060020180549082905560115491925090612bcf908390612bc9908461291f565b90613af7565b60118190556040519081527f6bac5e0eb3c44eb03a60ab11ec3a2c051771616aecadbcfff2630aabae5203829060200160405180910390a15092915050565b600080612c1a83613d94565b671bc16d674ec80000119392505050565b612c3361565a565b612c3b6156a6565b612c4361565a565b84825260006080830152612c556117ff565b60a0830152612c62611c88565b60c0830152600060208301525b835182602001511015612e475783826020015181518110612c9257612c92615b4c565b6020908102919091018101516001600160a01b03166060840181905260009081526010909152604090206003015460019060ff166004811115612cd757612cd7615886565b03612e2f57612cea826060015187612689565b60408301526080820151612dd7576714d1120d7b160000826040015110158015612d1357508151155b612e2f576000612d2c8360c001518460a001518961482d565b9050612d498989856060015186604001518760000151868d6149f0565b60808101518451919350612d5d919061291f565b8352608082015160a0840151612d729161291f565b8360a0018181525050612da78261010001516110d784604001516110d78660a001518860c0015161291f90919063ffffffff16565b60c0840152612db68483614ceb565b9350612dcb8360c001518460a0015189614dcc565b15608084015250612e2f565b81608001518015612df357506714d1120d7b1600008260400151105b15612e2f57612e0c888884606001518560000151614ded565b60808101518351919250612e20919061291f565b8252612e2c8382614ceb565b92505b60208201805190612e3f82615bf5565b905250612c6f565b505095945050505050565b612e5a61565a565b612e626156a6565b612e6a61565a565b848252600060208301525b835182602001511015612e475783826020015181518110612e9857612e98615b4c565b60209081029190910101516001600160a01b031660608301819052612ebd9087612689565b604083018190526714d1120d7b1600001115612f0a57612ee7888884606001518560000151614ded565b60808101518351919250612efb919061291f565b8252612f078382614ceb565b92505b60208201805190612f1a82615bf5565b905250612e75565b81156131b057601854600090612f4490612bc984670de0b6b3a7640000612932565b90506000612f69601954612bc9670de0b6b3a76400008761293290919063ffffffff16565b90506000612f826011548461293e90919063ffffffff16565b90506000612f9b6011548461293e90919063ffffffff16565b9050612fbc612fb56011548461293290919063ffffffff16565b859061291f565b601855601154612fd890612fd1908390612932565b849061291f565b601955601454612fe89083613af7565b601455601554612ff89082613af7565b60158190556014546040517f9f8bc8ab0daf5bceef75ecfd2085d1fcc6548c657ea970d9a23a60610d0737e392613036928252602082015260400190565b60405180910390a1604051633b4009ff60e11b8152600481018790526001600160a01b0389169063768013fe90602401600060405180830381600087803b15801561308057600080fd5b505af1158015613094573d6000803e3d6000fd5b505060405163262b890160e01b8152600481018990526001600160a01b038a16925063262b89019150602401600060405180830381600087803b1580156130da57600080fd5b505af11580156130ee573d6000803e3d6000fd5b505060405162f9332d60e61b8152600481018890526001600160a01b038a169250633e4ccb409150602401600060405180830381600087803b15801561313357600080fd5b505af1158015613147573d6000803e3d6000fd5b50506040516316daab2160e01b81526001600160a01b038b1692506316daab219150613179908a908990600401615adc565b600060405180830381600087803b15801561319357600080fd5b505af11580156131a7573d6000803e3d6000fd5b50505050505050505b50505050565b6011546012819055506000826001600160a01b031663ee2ec9706040518163ffffffff1660e01b8152600401602060405180830381865afa1580156131ff573d6000803e3d6000fd5b505050506040513d601f19601f820116820180604052508101906132239190615a81565b90506000600160009054906101000a90046001600160a01b03166001600160a01b031663ee2ec9706040518163ffffffff1660e01b8152600401602060405180830381865afa15801561327a573d6000803e3d6000fd5b505050506040513d601f19601f8201168201806040525081019061329e9190615a81565b90506132ae81612bc9848661291f565b60138190556012546040517f51bf4c63ec3cba9d03d43238abbdd979dd91bd16d9895c74ceea9118c7baaf60926132ec928252602082015260400190565b60405180910390a150505050565b811561337157600854600654604051631062c15f60e11b81526001600160a01b0391821660048201528582166024820152604481018590529116906320c582be90606401600060405180830381600087803b15801561335857600080fd5b505af115801561336c573d6000803e3d6000fd5b505050505b80156131b0576040516316daab2160e01b81526001600160a01b038516906316daab21906133a59086908590600401615adc565b600060405180830381600087803b1580156133bf57600080fd5b505af11580156133d3573d6000803e3d6000fd5b5050505050505050565b6000610d10613405836133fa6103e8670de0b6b3a7640000615b21565b612bc9906005615b35565b670de0b6b3a7640000614f36565b60016001600160a01b03821660009081526010602052604090206003015460ff16600481111561344557613445615886565b14610c965760405162461bcd60e51b815260206004820152602f60248201527f54726f76654d616e616765723a2054726f766520646f6573206e6f742065786960448201526e1cdd081bdc881a5cc818db1bdcd959608a1b6064820152608401610db7565b600081670de0b6b3a7640000846134c18288615b35565b6134cb9190615b21565b6134d59190615b35565b6134df9190615b21565b61123a906001615c0e565b600061292b670de0b6b3a7640000610c618585612932565b60008061350d614f4c565b90506000613523670dc14847bcc53b2083614f68565b90506118f4670de0b6b3a7640000610c6183600d5461293290919063ffffffff16565b600061355d600f544261291f90919063ffffffff16565b9050603c8110610c965742600f8190556040519081527f4ac50c32a269c2cfea9cf04e466da1ab839008441fadf7108e4f05410c2bfd5f90602001611e87565b6135a561565a565b6135ad6156a6565b6135b561565a565b848252600060808301526135c76117ff565b60a08301526135d4611c88565b8260c001818152505086606001516001600160a01b0316634d6228316040518163ffffffff1660e01b8152600401602060405180830381865afa15801561361f573d6000803e3d6000fd5b505050506040513d601f19601f820116820180604052508101906136439190615b8b565b82606001906001600160a01b031690816001600160a01b031681525050600087606001516001600160a01b0316631e2231436040518163ffffffff1660e01b8152600401602060405180830381865afa1580156136a4573d6000803e3d6000fd5b505050506040513d601f19601f820116820180604052508101906136c89190615b8b565b6000602085015290505b8483602001511080156136fb5750806001600160a01b031683606001516001600160a01b031614155b1561390f57600088606001516001600160a01b031663b72703ac85606001516040518263ffffffff1660e01b81526004016137369190615730565b602060405180830381865afa158015613753573d6000803e3d6000fd5b505050506040513d601f19601f820116820180604052508101906137779190615b8b565b9050613787846060015189612689565b6040850152608084015161387f576714d1120d7b1600008460400151101580156137b057508351155b156137bb575061390f565b60006137d08560c001518660a001518b61482d565b8a5160208c01516060880151604089015189519495506137f194868f6149f0565b60808101518651919550613805919061291f565b8552608084015160a086015161381a9161291f565b8560a001818152505061384f8461010001516110d786604001516110d78860a001518a60c0015161291f90919063ffffffff16565b60c086015261385e8685614ceb565b95506138738560c001518660a001518b614dcc565b156080860152506138e9565b8360800151801561389b57506714d1120d7b1600008460400151105b156138e3576138bc89600001518a6020015186606001518760000151614ded565b608081015185519194506138d0919061291f565b84526138dc8584614ceb565b94506138e9565b5061390f565b6001600160a01b031660608401526020830180519061390782615bf5565b9052506136d2565b505050949350505050565b61392261565a565b61392a6156a6565b61393261565a565b600b54858352600060208401526001600160a01b03165b8483602001511015613a3f57806001600160a01b0316634d6228316040518163ffffffff1660e01b8152600401602060405180830381865afa158015613993573d6000803e3d6000fd5b505050506040513d601f19601f820116820180604052508101906139b79190615b8b565b6001600160a01b0316606084018190526139d19088612689565b604084018190526714d1120d7b1600001115613a22576139fb898985606001518660000151614ded565b60808101518451919350613a0f919061291f565b8352613a1b8483614ceb565b9350613a27565b613a3f565b60208301805190613a3782615bf5565b905250613949565b50505095945050505050565b6003546001600160a01b031633146116fb5760405162461bcd60e51b815260206004820181905260248201527f4f776e61626c653a2063616c6c6572206973206e6f7420746865206f776e65726044820152606401610db7565b600380546001600160a01b038381166001600160a01b0319831681179093556040519116919082907f8be0079c531659141344cd1fd0a4f28419497f9722a3daafe3b4186f6b6457e090600090a35050565b600061292b8284615c0e565b6001600160a01b038116613b595760405162461bcd60e51b815260206004820152601e60248201527f4163636f756e742063616e6e6f74206265207a65726f206164647265737300006044820152606401610db7565b803b806112205760405162461bcd60e51b815260206004820181905260248201527f4163636f756e7420636f64652073697a652063616e6e6f74206265207a65726f6044820152606401610db7565b601480546001600160a01b038316600090815260166020526040908190209182556015546001909201829055915491517fc437f324d85e369394148dd9d62f98f534b382e01ed3dd2eb98138fb6d3ab49a92611e8792908252602082015260400190565b600080600860009054906101000a90046001600160a01b03166001600160a01b03166318160ddd6040518163ffffffff1660e01b8152600401602060405180830381865afa158015613c62573d6000803e3d6000fd5b505050506040513d601f19601f82011682018060405250810190613c869190615a81565b905080600003613cb757613ca46103e8670de0b6b3a7640000615b21565b613caf906005615b35565b915050610d10565b61123a613405613cd383610c6187670de0b6b3a7640000612932565b612bc9876133fa6103e8670de0b6b3a7640000615b21565b6000806000613cf984610bb8565b90506000613d0685610c99565b6001600160a01b03861660009081526010602052604081206001015491925090613d309084613af7565b6001600160a01b03871660009081526010602052604081205491925090613d579084613af7565b919791965090945050505050565b60008115613d8b57613d8482610c618568056bc75e2d63100000612932565b9050610d10565b50600019610d10565b600080613d9f611c88565b90506000613dab6117ff565b905061123a82828661482d565b613dcc6103e8670de0b6b3a7640000615b21565b613dd7906005615b35565b8110158015613dee5750670de0b6b3a76400008111155b610c965760405162461bcd60e51b815260206004820152603060248201527f4d6178206665652070657263656e74616765206d75737420626520626574776560448201526f656e20302e352520616e64203130302560801b6064820152608401610db7565b613e9d7f00000000000000000000000000000000000000000000000000000000000000007f0000000000000000000000000000000000000000000000000000000000000000613af7565b4210156116fb576040805162461bcd60e51b81526020600482015260248101919091527f54726f76654d616e616765723a20526564656d7074696f6e7320617265206e6f60448201527f7420616c6c6f77656420647572696e6720626f6f7473747261702070686173656064820152608401610db7565b6714d1120d7b160000613f2682613d94565b1015610c965760405162461bcd60e51b815260206004820152602a60248201527f54726f76654d616e616765723a2043616e6e6f742072656465656d207768656e604482015269102a21a9101e1026a1a960b11b6064820152608401610db7565b60008111610c965760405162461bcd60e51b815260206004820152602e60248201527f54726f76654d616e616765723a20416d6f756e74206d7573742062652067726560448201526d61746572207468616e207a65726f60901b6064820152608401610db7565b6040516370a0823160e01b815281906001600160a01b038516906370a082319061401c908690600401615730565b602060405180830381865afa158015614039573d6000803e3d6000fd5b505050506040513d601f19601f8201168201806040525081019061405d9190615a81565b1015612acb5760405162461bcd60e51b815260206004820152605460248201527f54726f76654d616e616765723a2052657175657374656420726564656d70746960448201527f6f6e20616d6f756e74206d757374206265203c3d2075736572277320426173656064820152734665654c4d4120746f6b656e2062616c616e636560601b608482015260a401610db7565b60006001600160a01b03831615806141705750604051630bb7c8fd60e31b81526001600160a01b03851690635dbe47e89061412d908690600401615730565b602060405180830381865afa15801561414a573d6000803e3d6000fd5b505050506040513d601f19601f8201168201806040525081019061416e9190615c21565b155b8061418b57506714d1120d7b1600006141898484612689565b105b156141985750600061292b565b60405163765e015960e01b81526000906001600160a01b0386169063765e0159906141c7908790600401615730565b602060405180830381865afa1580156141e4573d6000803e3d6000fd5b505050506040513d601f19601f820116820180604052508101906142089190615b8b565b90506001600160a01b0381161580611ed857506714d1120d7b16000061422e8285612689565b1095945050505050565b61425e604051806060016040528060008152602001600081526020016000151581525090565b6001600160a01b0387166000908152601060205260409020546142969087906142919069152d02c7e14af680000061291f565b614f36565b8082526142b190670de0b6b3a764000090610c619088612932565b60208083019190915281516001600160a01b0389166000908152601090925260408220546142de9161291f565b6020808401516001600160a01b038b16600090815260109092526040822060010154929350909161430e9161291f565b905069152d02c7e14af680000082036143885761432a89614884565b614335896004614700565b61434b8a8a69152d02c7e14af68000008461500c565b886001600160a01b0316600080516020615ca98339815191526000806000600360405161437b9493929190615bd3565b60405180910390a26144b8565b60006143948284613d65565b905084811415806143b757506a295be96e640669720000006143b5846151c8565b105b156143cb57505060016040830152506144bb565b60608b015160405163015f109360e51b81526001600160a01b038c81166004830152602482018490528981166044830152888116606483015290911690632be2126090608401600060405180830381600087803b15801561442b57600080fd5b505af115801561443f573d6000803e3d6000fd5b5050506001600160a01b038b1660009081526010602052604090208481556001018390555061446d8a612b6a565b506001600160a01b038a1660008181526010602052604090819020600201549051600080516020615ca9833981519152916144ae9187918791600390615bd3565b60405180910390a2505b50505b979650505050505050565b6000806144d16146bc565b905060006145e0600160009054906101000a90046001600160a01b03166001600160a01b031663ee2ec9706040518163ffffffff1660e01b8152600401602060405180830381865afa15801561452b573d6000803e3d6000fd5b505050506040513d601f19601f8201168201806040525081019061454f9190615a81565b60008054906101000a90046001600160a01b03166001600160a01b031663ee2ec9706040518163ffffffff1660e01b8152600401602060405180830381865afa1580156145a0573d6000803e3d6000fd5b505050506040513d601f19601f820116820180604052508101906145c49190615a81565b6145ce9190615c0e565b610c6186670de0b6b3a7640000612932565b905060006145ee8383613af7565b905061460281670de0b6b3a7640000614f36565b600c8190556040518181529091507fbcd47f9685f1ffa254d0ac495b2e47d57feda8840e9d1f2a54d9d499650502a89060200160405180910390a161123a6151de565b6000610d106126e56111a6565b600061466a83610c6186670de0b6b3a7640000612932565b9050818111156131b05760405162461bcd60e51b815260206004820152601d60248201527f4665652065786365656465642070726f7669646564206d6178696d756d0000006044820152606401610db7565b6000806146c7615235565b905060006146dd670ddd4b8c6c7d70d883614f68565b90506118f4670de0b6b3a7640000610c6183600c5461293290919063ffffffff16565b600081600481111561471457614714615886565b141580156147345750600181600481111561473157614731615886565b14155b61474057614740615b62565b60175461474c81615251565b6001600160a01b0383166000908152601060205260409020600301805483919060ff1916600183600481111561478457614784615886565b02179055506001600160a01b03831660009081526010602090815260408083206001808201859055908490556016909252822082815501556147c6838261532b565b600b54604051631484968760e11b81526001600160a01b03909116906329092d0e906147f6908690600401615730565b600060405180830381600087803b15801561481057600080fd5b505af1158015614824573d6000803e3d6000fd5b50505050505050565b6000821561486257600061485983610c61670de0b6b3a764000061485388838b84612932565b90612932565b915061292b9050565b5060001961292b565b60008061123a670de0b6b3a7640000610c618686612932565b6001600160a01b0381166000908152601060205260409020600201546011546148ad908261291f565b601155506001600160a01b0316600090815260106020526040812060020155565b604051633b4009ff60e11b8152600481018390526001600160a01b0384169063768013fe90602401600060405180830381600087803b15801561491057600080fd5b505af1158015614924573d6000803e3d6000fd5b505060405163262b890160e01b8152600481018590526001600160a01b038716925063262b89019150602401600060405180830381600087803b15801561496a57600080fd5b505af115801561497e573d6000803e3d6000fd5b505060405163051eb59960e11b8152600481018490526001600160a01b0386169250630a3d6b3291506024016133a5565b6000806013546000036149c3575081610d10565b6000601254116149d5576149d5615b62565b61292b601354610c616012548661293290919063ffffffff16565b6149f861565a565b614a1c60405180606001604052806000815260200160008152602001600081525090565b601754600110614a2c57506144bb565b614a3587611efa565b60408501526020848101919091528401819052908352614a54906154fb565b6040830181905269152d02c7e14af680000060608401526020830151614a799161291f565b8152670de0b6b3a76400008611614b4457614a9e8989836020015184604001516148ce565b614aa787614884565b60006080830181905260a0830152815160c0830152805160e0830152614ace876003614700565b815160208301516040516001600160a01b038a1692600080516020615c8983398151915292614aff92600290615c43565b60405180910390a2866001600160a01b0316600080516020615ca983398151915260008060006002604051614b379493929190615bd3565b60405180910390a2614cdf565b670de0b6b3a764000086118015614b6257506714d1120d7b16000086105b15614bb257614b7b8989836020015184604001516148ce565b614b8487614884565b81518151614b93919087615508565b60e086015260c085015260a08401526080830152614ace876003614700565b6714d1120d7b1600008610158015614bc957508386105b8015614bd6575081518510155b15614cce57614bef8989836020015184604001516148ce565b84600003614bff57614bff615b62565b614c0887614884565b614c1b8260000151836020015185615562565b9150614c28876003614700565b61010082015115614c9d57600754610100830151604051633f10abab60e01b81526001600160a01b0390921691633f10abab91614c6a918b9190600401615adc565b600060405180830381600087803b158015614c8457600080fd5b505af1158015614c98573d6000803e3d6000fd5b505050505b815160a08301516040516001600160a01b038a1692600080516020615c8983398151915292614aff92600290615c43565b614cd661565a565b91506144bb9050565b50979650505050505050565b614cf361565a565b60408083015190840151614d0691613af7565b604082015260608083015190840151614d1e91613af7565b606082015281516020840151614d3391613af7565b6020808301919091528201518351614d4a91613af7565b815260808083015190840151614d5f91613af7565b608082015260a08083015190840151614d7791613af7565b60a082015260c08083015190840151614d8f91613af7565b60c082015260e08083015190840151614da791613af7565b60e08201526101008083015190840151614dc091613af7565b61010082015292915050565b600080614dda85858561482d565b671bc16d674ec800001195945050505050565b614df561565a565b614e1960405180606001604052806000815260200160008152602001600081525090565b614e2284611efa565b60408501908152602085810192835286019290925291845290519051614e4c9188918891906148ce565b614e5584614884565b614e6282602001516154fb565b6040830181905269152d02c7e14af680000060608401526020830151600091614e8b919061291f565b9050614e9c83600001518286615508565b60e087015260c086015260a08501526080840152614ebb856003614700565b825160208401516040516001600160a01b03881692600080516020615c8983398151915292614eec92600190615c43565b60405180910390a2846001600160a01b0316600080516020615ca983398151915260008060006001604051614f249493929190615bd3565b60405180910390a25050949350505050565b6000818310614f45578161292b565b5090919050565b60006111b3603c610c61600f544261291f90919063ffffffff16565b6000631f540500821115614f7e57631f54050091505b81600003614f955750670de0b6b3a7640000610d10565b670de0b6b3a764000083835b600181111561500257614fb5600282615c5e565b600003614fda57614fc682836155f9565b9150614fd381600261293e565b9050614fa1565b614fe482846155f9565b9250614ff082836155f9565b9150614fd36002610c6183600161291f565b610c6782846155f9565b6040808501516006549151632770a7eb60e21b81526001600160a01b0391821692639dc29fac92615044929116908690600401615adc565b600060405180830381600087803b15801561505e57600080fd5b505af1158015615072573d6000803e3d6000fd5b50508551604051633b4009ff60e11b8152600481018690526001600160a01b03909116925063768013fe9150602401600060405180830381600087803b1580156150bb57600080fd5b505af11580156150cf573d6000803e3d6000fd5b505060075460405162f9332d60e61b8152600481018590526001600160a01b039091169250633e4ccb409150602401600060405180830381600087803b15801561511857600080fd5b505af115801561512c573d6000803e3d6000fd5b5050505083608001516001600160a01b0316633f10abab84836040518363ffffffff1660e01b8152600401615162929190615adc565b600060405180830381600087803b15801561517c57600080fd5b505af1158015615190573d6000803e3d6000fd5b5050855160808701516040516316daab2160e01b81526001600160a01b0390921693506316daab2192506133a5918590600401615adc565b6000610d108269152d02c7e14af680000061291f565b60006151f5600e544261291f90919063ffffffff16565b9050603c8110610c965742600e8190556040519081527fbab964312bdd13595266f3e549bca3102965a6d718c6c1f8cd7eaac076b9c6c290602001611e87565b60006111b3603c610c61600e544261291f90919063ffffffff16565b6001811180156152cc5750600b546040805163de8fa43160e01b815290516001926001600160a01b03169163de8fa4319160048083019260209291908290030181865afa1580156152a6573d6000803e3d6000fd5b505050506040513d601f19601f820116820180604052508101906152ca9190615a81565b115b610c965760405162461bcd60e51b815260206004820152602a60248201527f54726f76654d616e616765723a204f6e6c79206f6e652074726f766520696e206044820152697468652073797374656d60b01b6064820152608401610db7565b6001600160a01b03821660009081526010602052604081206003015460ff169081600481111561535d5761535d615886565b1415801561537d5750600181600481111561537a5761537a615886565b14155b61538957615389615b62565b6001600160a01b03831660009081526010602052604081206003015461010090046001600160801b03169083906153c182600161291f565b905080836001600160801b031611156153dc576153dc615b62565b6000601782815481106153f1576153f1615b4c565b600091825260209091200154601780546001600160a01b03909216925082916001600160801b03871690811061542957615429615b4c565b600091825260208083209190910180546001600160a01b0319166001600160a01b03948516179055918316808252601083526040918290206003018054610100600160881b0319166101006001600160801b038a16908102919091179091558251918252928101929092527f02b04ae5f7be9ca7c103293a2aa15f3c339d15d6eda53b721fef7b0e609c831a910160405180910390a160178054806154d0576154d0615c72565b600082815260209020810160001990810180546001600160a01b031916905501905550505050505050565b6000610d1060c883615b21565b6000808080841561554c5761551d8786614f36565b935061552d87610c618887612932565b9250615539878561291f565b9150615545868461291f565b9050615559565b5060009250829150859050845b93509350935093565b61556a61565a565b83815260208101839052600061559a670de0b6b3a7640000610c618561485383838b6714d1120d7b160000612932565b90506155a5816154fb565b6040830181905269152d02c7e14af68000006060840152608083018690526155ce90829061291f565b60a08301526155dd848261291f565b61010083015250600060c0820181905260e08201529392505050565b6000806156068484612932565b905061123a670de0b6b3a7640000610c61615622600283615b21565b8490613af7565b6040518060a00160405280600081526020016000815260200160001515815260200160008152602001600081525090565b6040518061012001604052806000815260200160008152602001600081526020016000815260200160008152602001600081526020016000815260200160008152602001600081525090565b6040518060e0016040528060008152602001600081526020016000815260200160006001600160a01b0316815260200160001515815260200160008152602001600081525090565b6001600160a01b0381168114610c9657600080fd5b803561570e816156ee565b919050565b60006020828403121561572557600080fd5b813561292b816156ee565b6001600160a01b0391909116815260200190565b6000806040838503121561575757600080fd5b8235615762816156ee565b946020939093013593505050565b634e487b7160e01b600052604160045260246000fd5b6000602080838503121561579957600080fd5b823567ffffffffffffffff808211156157b157600080fd5b818501915085601f8301126157c557600080fd5b8135818111156157d7576157d7615770565b8060051b604051601f19603f830116810181811085821117156157fc576157fc615770565b60405291825284820192508381018501918883111561581a57600080fd5b938501935b8285101561583f5761583085615703565b8452938501939285019261581f565b98975050505050505050565b6000806040838503121561585e57600080fd5b50508035926020909101359150565b60006020828403121561587f57600080fd5b5035919050565b634e487b7160e01b600052602160045260246000fd5b868152602081018690526040810185905260c08101600585106158c1576158c1615886565b60608201949094526001600160801b0392909216608083015260a0909101529392505050565b60008060008060008060008060008060006101608c8e03121561590957600080fd5b8b35615914816156ee565b9a5060208c0135615924816156ee565b995060408c0135615934816156ee565b985060608c0135615944816156ee565b975060808c0135615954816156ee565b965060a08c0135615964816156ee565b955060c08c0135615974816156ee565b945060e08c0135615984816156ee565b93506101008c0135615995816156ee565b92506159a46101208d01615703565b91506159b36101408d01615703565b90509295989b509295989b9093969950565b600060208083528351808285015260005b818110156159f2578581018301518582016040015282016159d6565b506000604082860101526040601f19601f8301168501019250505092915050565b600080600080600080600060e0888a031215615a2e57600080fd5b873596506020880135615a40816156ee565b95506040880135615a50816156ee565b94506060880135615a60816156ee565b9699959850939660808101359560a0820135955060c0909101359350915050565b600060208284031215615a9357600080fd5b5051919050565b60208082526022908201527f54726f76654d616e616765723a206e6f7468696e6720746f206c697175696461604082015261746560f01b606082015260800190565b6001600160a01b03929092168252602082015260400190565b634e487b7160e01b600052601260045260246000fd5b634e487b7160e01b600052601160045260246000fd5b600082615b3057615b30615af5565b500490565b8082028115828204841417610d1057610d10615b0b565b634e487b7160e01b600052603260045260246000fd5b634e487b7160e01b600052600160045260246000fd5b81810381811115610d1057610d10615b0b565b600060208284031215615b9d57600080fd5b815161292b816156ee565b600081615bb757615bb7615b0b565b506000190190565b60048110615bcf57615bcf615886565b9052565b848152602081018490526040810183905260808101611ed86060830184615bbf565b600060018201615c0757615c07615b0b565b5060010190565b80820180821115610d1057610d10615b0b565b600060208284031215615c3357600080fd5b8151801515811461292b57600080fd5b838152602081018390526060810161123a6040830184615bbf565b600082615c6d57615c6d615af5565b500690565b634e487b7160e01b600052603160045260246000fdfeea67486ed7ebe3eea8ab3390efd4a3c8aae48be5bea27df104a8af786c408434c3770d654ed33aeea6bf11ac8ef05d02a6a04ed4686dd2f624d853bbec43cc8ba2646970667358221220cf812a8c243db8c97ea6c395cde795a99b558a47d52039da01afddb19e02d05764736f6c63430008130033",
  "devdoc": {
    "kind": "dev",
    "methods": {
      "owner()": {
        "details": "Returns the address of the current owner."
      },
      "renounceOwnership()": {
        "details": "Leaves the contract without owner. It will not be possible to call `onlyOwner` functions. Can only be called by the current owner. NOTE: Renouncing ownership will leave the contract without an owner, thereby disabling any functionality that is only available to the owner."
      },
      "transferOwnership(address)": {
        "details": "Transfers ownership of the contract to a new account (`newOwner`). Can only be called by the current owner."
      }
    },
    "version": 1
  },
  "userdoc": {
    "kind": "user",
    "methods": {
      "checkUnreliableRecoveryMode()": {
        "notice": "HEDGEHOG UPDATES: New view method to help with getting the data on frontends"
      },
      "getCurrentICR(address,uint256)": {
        "notice": "HEDGEHOG UPDATES: Get Price directly from the price feed instead of param passing"
      },
      "getUnreliableTCR()": {
        "notice": "HEDGEHOG UPDATES: New view method to help with getting the data on frontends"
      },
      "getUnreliableTroveICR(address)": {
        "notice": "HEDGEHOG UPDATES: New view method to help with getting the data on frontends"
      }
    },
    "notice": "Fork of Liquity's TroveManager. Most of the Logic remains unchanged. Changes to the contract: - Raised pragma version - Removed an import of ActivePool Interface - Logic updates with redemption & borrowing fees calculation and their distribution Even though SafeMath is no longer required, the decision was made to keep it to avoid human factor errors",
    "version": 1
  },
  "storageLayout": {
    "storage": [
      {
        "astId": 12643,
        "contract": "contracts/TroveManager.sol:TroveManager",
        "label": "activePool",
        "offset": 0,
        "slot": "0",
        "type": "t_contract(IActivePool)14983"
      },
      {
        "astId": 12646,
        "contract": "contracts/TroveManager.sol:TroveManager",
        "label": "defaultPool",
        "offset": 0,
        "slot": "1",
        "type": "t_contract(IDefaultPool)15346"
      },
      {
        "astId": 12650,
        "contract": "contracts/TroveManager.sol:TroveManager",
        "label": "priceFeed",
        "offset": 0,
        "slot": "2",
        "type": "t_contract(IPriceFeed)15480"
      },
      {
        "astId": 7,
        "contract": "contracts/TroveManager.sol:TroveManager",
        "label": "_owner",
        "offset": 0,
        "slot": "3",
        "type": "t_address"
      },
      {
        "astId": 7613,
        "contract": "contracts/TroveManager.sol:TroveManager",
        "label": "borrowerOperationsAddress",
        "offset": 0,
        "slot": "4",
        "type": "t_address"
      },
      {
        "astId": 7616,
        "contract": "contracts/TroveManager.sol:TroveManager",
        "label": "stabilityPool",
        "offset": 0,
        "slot": "5",
        "type": "t_contract(IStabilityPool)15791"
      },
      {
        "astId": 7618,
        "contract": "contracts/TroveManager.sol:TroveManager",
        "label": "gasPoolAddress",
        "offset": 0,
        "slot": "6",
        "type": "t_address"
      },
      {
        "astId": 7621,
        "contract": "contracts/TroveManager.sol:TroveManager",
        "label": "collSurplusPool",
        "offset": 0,
        "slot": "7",
        "type": "t_contract(ICollSurplusPool)15284"
      },
      {
        "astId": 7624,
        "contract": "contracts/TroveManager.sol:TroveManager",
        "label": "baseFeeLMAToken",
        "offset": 0,
        "slot": "8",
        "type": "t_contract(IBaseFeeLMAToken)15041"
      },
      {
        "astId": 7627,
        "contract": "contracts/TroveManager.sol:TroveManager",
        "label": "hogToken",
        "offset": 0,
        "slot": "9",
        "type": "t_contract(IHOGToken)15404"
      },
      {
        "astId": 7630,
        "contract": "contracts/TroveManager.sol:TroveManager",
        "label": "feesRouter",
        "offset": 0,
        "slot": "10",
        "type": "t_contract(IFeesRouter)15363"
      },
      {
        "astId": 7633,
        "contract": "contracts/TroveManager.sol:TroveManager",
        "label": "sortedTroves",
        "offset": 0,
        "slot": "11",
        "type": "t_contract(ISortedTroves)15612"
      },
      {
        "astId": 7659,
        "contract": "contracts/TroveManager.sol:TroveManager",
        "label": "redemptionBaseRate",
        "offset": 0,
        "slot": "12",
        "type": "t_uint256"
      },
      {
        "astId": 7661,
        "contract": "contracts/TroveManager.sol:TroveManager",
        "label": "borrowBaseRate",
        "offset": 0,
        "slot": "13",
        "type": "t_uint256"
      },
      {
        "astId": 7663,
        "contract": "contracts/TroveManager.sol:TroveManager",
        "label": "lastRedemptionTime",
        "offset": 0,
        "slot": "14",
        "type": "t_uint256"
      },
      {
        "astId": 7665,
        "contract": "contracts/TroveManager.sol:TroveManager",
        "label": "lastBorrowTime",
        "offset": 0,
        "slot": "15",
        "type": "t_uint256"
      },
      {
        "astId": 7690,
        "contract": "contracts/TroveManager.sol:TroveManager",
        "label": "Troves",
        "offset": 0,
        "slot": "16",
        "type": "t_mapping(t_address,t_struct(Trove)7685_storage)"
      },
      {
        "astId": 7692,
        "contract": "contracts/TroveManager.sol:TroveManager",
        "label": "totalStakes",
        "offset": 0,
        "slot": "17",
        "type": "t_uint256"
      },
      {
        "astId": 7694,
        "contract": "contracts/TroveManager.sol:TroveManager",
        "label": "totalStakesSnapshot",
        "offset": 0,
        "slot": "18",
        "type": "t_uint256"
      },
      {
        "astId": 7696,
        "contract": "contracts/TroveManager.sol:TroveManager",
        "label": "totalCollateralSnapshot",
        "offset": 0,
        "slot": "19",
        "type": "t_uint256"
      },
      {
        "astId": 7698,
        "contract": "contracts/TroveManager.sol:TroveManager",
        "label": "L_WStETH",
        "offset": 0,
        "slot": "20",
        "type": "t_uint256"
      },
      {
        "astId": 7700,
        "contract": "contracts/TroveManager.sol:TroveManager",
        "label": "L_BaseFeeLMADebt",
        "offset": 0,
        "slot": "21",
        "type": "t_uint256"
      },
      {
        "astId": 7705,
        "contract": "contracts/TroveManager.sol:TroveManager",
        "label": "rewardSnapshots",
        "offset": 0,
        "slot": "22",
        "type": "t_mapping(t_address,t_struct(RewardSnapshot)7710_storage)"
      },
      {
        "astId": 7713,
        "contract": "contracts/TroveManager.sol:TroveManager",
        "label": "TroveOwners",
        "offset": 0,
        "slot": "23",
        "type": "t_array(t_address)dyn_storage"
      },
      {
        "astId": 7715,
        "contract": "contracts/TroveManager.sol:TroveManager",
        "label": "lastWStETHError_Redistribution",
        "offset": 0,
        "slot": "24",
        "type": "t_uint256"
      },
      {
        "astId": 7717,
        "contract": "contracts/TroveManager.sol:TroveManager",
        "label": "lastBaseFeeLMADebtError_Redistribution",
        "offset": 0,
        "slot": "25",
        "type": "t_uint256"
      }
    ],
    "types": {
      "t_address": {
        "encoding": "inplace",
        "label": "address",
        "numberOfBytes": "20"
      },
      "t_array(t_address)dyn_storage": {
        "base": "t_address",
        "encoding": "dynamic_array",
        "label": "address[]",
        "numberOfBytes": "32"
      },
      "t_contract(IActivePool)14983": {
        "encoding": "inplace",
        "label": "contract IActivePool",
        "numberOfBytes": "20"
      },
      "t_contract(IBaseFeeLMAToken)15041": {
        "encoding": "inplace",
        "label": "contract IBaseFeeLMAToken",
        "numberOfBytes": "20"
      },
      "t_contract(ICollSurplusPool)15284": {
        "encoding": "inplace",
        "label": "contract ICollSurplusPool",
        "numberOfBytes": "20"
      },
      "t_contract(IDefaultPool)15346": {
        "encoding": "inplace",
        "label": "contract IDefaultPool",
        "numberOfBytes": "20"
      },
      "t_contract(IFeesRouter)15363": {
        "encoding": "inplace",
        "label": "contract IFeesRouter",
        "numberOfBytes": "20"
      },
      "t_contract(IHOGToken)15404": {
        "encoding": "inplace",
        "label": "contract IHOGToken",
        "numberOfBytes": "20"
      },
      "t_contract(IPriceFeed)15480": {
        "encoding": "inplace",
        "label": "contract IPriceFeed",
        "numberOfBytes": "20"
      },
      "t_contract(ISortedTroves)15612": {
        "encoding": "inplace",
        "label": "contract ISortedTroves",
        "numberOfBytes": "20"
      },
      "t_contract(IStabilityPool)15791": {
        "encoding": "inplace",
        "label": "contract IStabilityPool",
        "numberOfBytes": "20"
      },
      "t_enum(Status)7671": {
        "encoding": "inplace",
        "label": "enum TroveManager.Status",
        "numberOfBytes": "1"
      },
      "t_mapping(t_address,t_struct(RewardSnapshot)7710_storage)": {
        "encoding": "mapping",
        "key": "t_address",
        "label": "mapping(address => struct TroveManager.RewardSnapshot)",
        "numberOfBytes": "32",
        "value": "t_struct(RewardSnapshot)7710_storage"
      },
      "t_mapping(t_address,t_struct(Trove)7685_storage)": {
        "encoding": "mapping",
        "key": "t_address",
        "label": "mapping(address => struct TroveManager.Trove)",
        "numberOfBytes": "32",
        "value": "t_struct(Trove)7685_storage"
      },
      "t_struct(RewardSnapshot)7710_storage": {
        "encoding": "inplace",
        "label": "struct TroveManager.RewardSnapshot",
        "members": [
          {
            "astId": 7707,
            "contract": "contracts/TroveManager.sol:TroveManager",
            "label": "WStETH",
            "offset": 0,
            "slot": "0",
            "type": "t_uint256"
          },
          {
            "astId": 7709,
            "contract": "contracts/TroveManager.sol:TroveManager",
            "label": "BaseFeeLMADebt",
            "offset": 0,
            "slot": "1",
            "type": "t_uint256"
          }
        ],
        "numberOfBytes": "64"
      },
      "t_struct(Trove)7685_storage": {
        "encoding": "inplace",
        "label": "struct TroveManager.Trove",
        "members": [
          {
            "astId": 7673,
            "contract": "contracts/TroveManager.sol:TroveManager",
            "label": "debt",
            "offset": 0,
            "slot": "0",
            "type": "t_uint256"
          },
          {
            "astId": 7675,
            "contract": "contracts/TroveManager.sol:TroveManager",
            "label": "coll",
            "offset": 0,
            "slot": "1",
            "type": "t_uint256"
          },
          {
            "astId": 7677,
            "contract": "contracts/TroveManager.sol:TroveManager",
            "label": "stake",
            "offset": 0,
            "slot": "2",
            "type": "t_uint256"
          },
          {
            "astId": 7680,
            "contract": "contracts/TroveManager.sol:TroveManager",
            "label": "status",
            "offset": 0,
            "slot": "3",
            "type": "t_enum(Status)7671"
          },
          {
            "astId": 7682,
            "contract": "contracts/TroveManager.sol:TroveManager",
            "label": "arrayIndex",
            "offset": 1,
            "slot": "3",
            "type": "t_uint128"
          },
          {
            "astId": 7684,
            "contract": "contracts/TroveManager.sol:TroveManager",
            "label": "lastBlockUpdated",
            "offset": 0,
            "slot": "4",
            "type": "t_uint256"
          }
        ],
        "numberOfBytes": "160"
      },
      "t_uint128": {
        "encoding": "inplace",
        "label": "uint128",
        "numberOfBytes": "16"
      },
      "t_uint256": {
        "encoding": "inplace",
        "label": "uint256",
        "numberOfBytes": "32"
      }
    }
  }
}