{
  "address": "0xB8C47F21995B89E4AD412C7a48D856fBd21aAE4c",
  "abi": [
    {
      "inputs": [
        {
          "internalType": "uint256",
          "name": "_gasComp",
          "type": "uint256"
        },
        {
          "internalType": "uint256",
          "name": "_minNetDebt",
          "type": "uint256"
        },
        {
          "internalType": "uint256",
          "name": "_CCR",
          "type": "uint256"
        },
        {
          "internalType": "uint256",
          "name": "_bootsrapDaysAmount",
          "type": "uint256"
        }
      ],
      "stateMutability": "nonpayable",
      "type": "constructor"
    },
    {
      "anonymous": false,
      "inputs": [
        {
          "indexed": false,
          "internalType": "address",
          "name": "_activePoolAddress",
          "type": "address"
        }
      ],
      "name": "ActivePoolAddressChanged",
      "type": "event"
    },
    {
      "anonymous": false,
      "inputs": [
        {
          "indexed": false,
          "internalType": "address",
          "name": "_newBaseFeeLMATokenAddress",
          "type": "address"
        }
      ],
      "name": "BaseFeeLMATokenAddressChanged",
      "type": "event"
    },
    {
      "anonymous": false,
      "inputs": [
        {
          "indexed": false,
          "internalType": "uint256",
          "name": "_borrowBaseRate",
          "type": "uint256"
        }
      ],
      "name": "BorrowBaseRateUpdated",
      "type": "event"
    },
    {
      "anonymous": false,
      "inputs": [
        {
          "indexed": false,
          "internalType": "address",
          "name": "_newBorrowerOperationsAddress",
          "type": "address"
        }
      ],
      "name": "BorrowerOperationsAddressChanged",
      "type": "event"
    },
    {
      "anonymous": false,
      "inputs": [
        {
          "indexed": false,
          "internalType": "address",
          "name": "_collSurplusPoolAddress",
          "type": "address"
        }
      ],
      "name": "CollSurplusPoolAddressChanged",
      "type": "event"
    },
    {
      "anonymous": false,
      "inputs": [
        {
          "indexed": false,
          "internalType": "address",
          "name": "_defaultPoolAddress",
          "type": "address"
        }
      ],
      "name": "DefaultPoolAddressChanged",
      "type": "event"
    },
    {
      "anonymous": false,
      "inputs": [
        {
          "indexed": false,
          "internalType": "contract IFeesRouter",
          "name": "_feesRouter",
          "type": "address"
        }
      ],
      "name": "FeesRouterAddressUpdated",
      "type": "event"
    },
    {
      "anonymous": false,
      "inputs": [
        {
          "indexed": false,
          "internalType": "address",
          "name": "_gasPoolAddress",
          "type": "address"
        }
      ],
      "name": "GasPoolAddressChanged",
      "type": "event"
    },
    {
      "anonymous": false,
      "inputs": [
        {
          "indexed": false,
          "internalType": "address",
          "name": "_hogTokenAddress",
          "type": "address"
        }
      ],
      "name": "HOGTokenAddressChanged",
      "type": "event"
    },
    {
      "anonymous": false,
      "inputs": [
        {
          "indexed": false,
          "internalType": "uint256",
          "name": "_L_WStETH",
          "type": "uint256"
        },
        {
          "indexed": false,
          "internalType": "uint256",
          "name": "_L_BaseFeeLMADebt",
          "type": "uint256"
        }
      ],
      "name": "LTermsUpdated",
      "type": "event"
    },
    {
      "anonymous": false,
      "inputs": [
        {
          "indexed": false,
          "internalType": "uint256",
          "name": "_lastBorrowTime",
          "type": "uint256"
        }
      ],
      "name": "LastBorrowTimeUpdated",
      "type": "event"
    },
    {
      "anonymous": false,
      "inputs": [
        {
          "indexed": false,
          "internalType": "uint256",
          "name": "_lastRedemptionTime",
          "type": "uint256"
        }
      ],
      "name": "LastRedemptionTimeUpdated",
      "type": "event"
    },
    {
      "anonymous": false,
      "inputs": [
        {
          "indexed": false,
          "internalType": "uint256",
          "name": "_liquidatedDebt",
          "type": "uint256"
        },
        {
          "indexed": false,
          "internalType": "uint256",
          "name": "_liquidatedColl",
          "type": "uint256"
        },
        {
          "indexed": false,
          "internalType": "uint256",
          "name": "_collGasCompensation",
          "type": "uint256"
        },
        {
          "indexed": false,
          "internalType": "uint256",
          "name": "_BaseFeeLMAGasCompensation",
          "type": "uint256"
        }
      ],
      "name": "Liquidation",
      "type": "event"
    },
    {
      "anonymous": false,
      "inputs": [
        {
          "indexed": true,
          "internalType": "address",
          "name": "previousOwner",
          "type": "address"
        },
        {
          "indexed": true,
          "internalType": "address",
          "name": "newOwner",
          "type": "address"
        }
      ],
      "name": "OwnershipTransferred",
      "type": "event"
    },
    {
      "anonymous": false,
      "inputs": [
        {
          "indexed": false,
          "internalType": "address",
          "name": "_newPriceFeedAddress",
          "type": "address"
        }
      ],
      "name": "PriceFeedAddressChanged",
      "type": "event"
    },
    {
      "anonymous": false,
      "inputs": [
        {
          "indexed": false,
          "internalType": "uint256",
          "name": "_attemptedBaseFeeLMAAmount",
          "type": "uint256"
        },
        {
          "indexed": false,
          "internalType": "uint256",
          "name": "_actualBaseFeeLMAAmount",
          "type": "uint256"
        },
        {
          "indexed": false,
          "internalType": "uint256",
          "name": "_WStETHSent",
          "type": "uint256"
        },
        {
          "indexed": false,
          "internalType": "uint256",
          "name": "_WStETHFee",
          "type": "uint256"
        }
      ],
      "name": "Redemption",
      "type": "event"
    },
    {
      "anonymous": false,
      "inputs": [
        {
          "indexed": false,
          "internalType": "uint256",
          "name": "_redemptionBaseRate",
          "type": "uint256"
        }
      ],
      "name": "RedemptionBaseRateUpdated",
      "type": "event"
    },
    {
      "anonymous": false,
      "inputs": [
        {
          "indexed": false,
          "internalType": "address",
          "name": "_sortedTrovesAddress",
          "type": "address"
        }
      ],
      "name": "SortedTrovesAddressChanged",
      "type": "event"
    },
    {
      "anonymous": false,
      "inputs": [
        {
          "indexed": false,
          "internalType": "address",
          "name": "_stabilityPoolAddress",
          "type": "address"
        }
      ],
      "name": "StabilityPoolAddressChanged",
      "type": "event"
    },
    {
      "anonymous": false,
      "inputs": [
        {
          "indexed": false,
          "internalType": "uint256",
          "name": "_totalStakesSnapshot",
          "type": "uint256"
        },
        {
          "indexed": false,
          "internalType": "uint256",
          "name": "_totalCollateralSnapshot",
          "type": "uint256"
        }
      ],
      "name": "SystemSnapshotsUpdated",
      "type": "event"
    },
    {
      "anonymous": false,
      "inputs": [
        {
          "indexed": false,
          "internalType": "uint256",
          "name": "_newTotalStakes",
          "type": "uint256"
        }
      ],
      "name": "TotalStakesUpdated",
      "type": "event"
    },
    {
      "anonymous": false,
      "inputs": [
        {
          "indexed": false,
          "internalType": "address",
          "name": "_borrower",
          "type": "address"
        },
        {
          "indexed": false,
          "internalType": "uint256",
          "name": "_newIndex",
          "type": "uint256"
        }
      ],
      "name": "TroveIndexUpdated",
      "type": "event"
    },
    {
      "anonymous": false,
      "inputs": [
        {
          "indexed": true,
          "internalType": "address",
          "name": "_borrower",
          "type": "address"
        },
        {
          "indexed": false,
          "internalType": "uint256",
          "name": "_debt",
          "type": "uint256"
        },
        {
          "indexed": false,
          "internalType": "uint256",
          "name": "_coll",
          "type": "uint256"
        },
        {
          "indexed": false,
          "internalType": "enum TroveManager.TroveManagerOperation",
          "name": "_operation",
          "type": "uint8"
        }
      ],
      "name": "TroveLiquidated",
      "type": "event"
    },
    {
      "anonymous": false,
      "inputs": [
        {
          "indexed": false,
          "internalType": "uint256",
          "name": "_L_WStETH",
          "type": "uint256"
        },
        {
          "indexed": false,
          "internalType": "uint256",
          "name": "_L_BaseFeeLMADebt",
          "type": "uint256"
        }
      ],
      "name": "TroveSnapshotsUpdated",
      "type": "event"
    },
    {
      "anonymous": false,
      "inputs": [
        {
          "indexed": true,
          "internalType": "address",
          "name": "_borrower",
          "type": "address"
        },
        {
          "indexed": false,
          "internalType": "uint256",
          "name": "_debt",
          "type": "uint256"
        },
        {
          "indexed": false,
          "internalType": "uint256",
          "name": "_coll",
          "type": "uint256"
        },
        {
          "indexed": false,
          "internalType": "uint256",
          "name": "_stake",
          "type": "uint256"
        },
        {
          "indexed": false,
          "internalType": "enum TroveManager.TroveManagerOperation",
          "name": "_operation",
          "type": "uint8"
        }
      ],
      "name": "TroveUpdated",
      "type": "event"
    },
    {
      "inputs": [],
      "name": "BETA",
      "outputs": [
        {
          "internalType": "uint256",
          "name": "",
          "type": "uint256"
        }
      ],
      "stateMutability": "view",
      "type": "function"
    },
    {
      "inputs": [],
      "name": "BOOTSTRAP_PERIOD",
      "outputs": [
        {
          "internalType": "uint256",
          "name": "",
          "type": "uint256"
        }
      ],
      "stateMutability": "view",
      "type": "function"
    },
    {
      "inputs": [],
      "name": "BORROWING_FEE_FLOOR",
      "outputs": [
        {
          "internalType": "uint256",
          "name": "",
          "type": "uint256"
        }
      ],
      "stateMutability": "view",
      "type": "function"
    },
    {
      "inputs": [],
      "name": "BaseFeeLMA_GAS_COMPENSATION",
      "outputs": [
        {
          "internalType": "uint256",
          "name": "",
          "type": "uint256"
        }
      ],
      "stateMutability": "view",
      "type": "function"
    },
    {
      "inputs": [],
      "name": "CCR",
      "outputs": [
        {
          "internalType": "uint256",
          "name": "",
          "type": "uint256"
        }
      ],
      "stateMutability": "view",
      "type": "function"
    },
    {
      "inputs": [],
      "name": "DECIMAL_PRECISION",
      "outputs": [
        {
          "internalType": "uint256",
          "name": "",
          "type": "uint256"
        }
      ],
      "stateMutability": "view",
      "type": "function"
    },
    {
      "inputs": [],
      "name": "L_BaseFeeLMADebt",
      "outputs": [
        {
          "internalType": "uint256",
          "name": "",
          "type": "uint256"
        }
      ],
      "stateMutability": "view",
      "type": "function"
    },
    {
      "inputs": [],
      "name": "L_WStETH",
      "outputs": [
        {
          "internalType": "uint256",
          "name": "",
          "type": "uint256"
        }
      ],
      "stateMutability": "view",
      "type": "function"
    },
    {
      "inputs": [],
      "name": "MAX_BORROWING_FEE",
      "outputs": [
        {
          "internalType": "uint256",
          "name": "",
          "type": "uint256"
        }
      ],
      "stateMutability": "view",
      "type": "function"
    },
    {
      "inputs": [],
      "name": "MCR",
      "outputs": [
        {
          "internalType": "uint256",
          "name": "",
          "type": "uint256"
        }
      ],
      "stateMutability": "view",
      "type": "function"
    },
    {
      "inputs": [],
      "name": "MINUTE_DECAY_BORROWING_FACTOR",
      "outputs": [
        {
          "internalType": "uint256",
          "name": "",
          "type": "uint256"
        }
      ],
      "stateMutability": "view",
      "type": "function"
    },
    {
      "inputs": [],
      "name": "MINUTE_DECAY_REDEMPTION_FACTOR",
      "outputs": [
        {
          "internalType": "uint256",
          "name": "",
          "type": "uint256"
        }
      ],
      "stateMutability": "view",
      "type": "function"
    },
    {
      "inputs": [],
      "name": "MIN_NET_DEBT",
      "outputs": [
        {
          "internalType": "uint256",
          "name": "",
          "type": "uint256"
        }
      ],
      "stateMutability": "view",
      "type": "function"
    },
    {
      "inputs": [],
      "name": "NAME",
      "outputs": [
        {
          "internalType": "string",
          "name": "",
          "type": "string"
        }
      ],
      "stateMutability": "view",
      "type": "function"
    },
    {
      "inputs": [],
      "name": "PERCENT_DIVISOR",
      "outputs": [
        {
          "internalType": "uint256",
          "name": "",
          "type": "uint256"
        }
      ],
      "stateMutability": "view",
      "type": "function"
    },
    {
      "inputs": [],
      "name": "REDEMPTION_FEE_FLOOR",
      "outputs": [
        {
          "internalType": "uint256",
          "name": "",
          "type": "uint256"
        }
      ],
      "stateMutability": "view",
      "type": "function"
    },
    {
      "inputs": [],
      "name": "SECONDS_IN_ONE_MINUTE",
      "outputs": [
        {
          "internalType": "uint256",
          "name": "",
          "type": "uint256"
        }
      ],
      "stateMutability": "view",
      "type": "function"
    },
    {
      "inputs": [],
      "name": "SYSTEM_DEPLOYMENT_TIME",
      "outputs": [
        {
          "internalType": "uint256",
          "name": "",
          "type": "uint256"
        }
      ],
      "stateMutability": "view",
      "type": "function"
    },
    {
      "inputs": [
        {
          "internalType": "uint256",
          "name": "",
          "type": "uint256"
        }
      ],
      "name": "TroveOwners",
      "outputs": [
        {
          "internalType": "address",
          "name": "",
          "type": "address"
        }
      ],
      "stateMutability": "view",
      "type": "function"
    },
    {
      "inputs": [
        {
          "internalType": "address",
          "name": "",
          "type": "address"
        }
      ],
      "name": "Troves",
      "outputs": [
        {
          "internalType": "uint256",
          "name": "debt",
          "type": "uint256"
        },
        {
          "internalType": "uint256",
          "name": "coll",
          "type": "uint256"
        },
        {
          "internalType": "uint256",
          "name": "stake",
          "type": "uint256"
        },
        {
          "internalType": "enum TroveManager.Status",
          "name": "status",
          "type": "uint8"
        },
        {
          "internalType": "uint128",
          "name": "arrayIndex",
          "type": "uint128"
        }
      ],
      "stateMutability": "view",
      "type": "function"
    },
    {
      "inputs": [],
      "name": "_100pct",
      "outputs": [
        {
          "internalType": "uint256",
          "name": "",
          "type": "uint256"
        }
      ],
      "stateMutability": "view",
      "type": "function"
    },
    {
      "inputs": [],
      "name": "activePool",
      "outputs": [
        {
          "internalType": "contract IActivePool",
          "name": "",
          "type": "address"
        }
      ],
      "stateMutability": "view",
      "type": "function"
    },
    {
      "inputs": [
        {
          "internalType": "address",
          "name": "_borrower",
          "type": "address"
        }
      ],
      "name": "addTroveOwnerToArray",
      "outputs": [
        {
          "internalType": "uint256",
          "name": "index",
          "type": "uint256"
        }
      ],
      "stateMutability": "nonpayable",
      "type": "function"
    },
    {
      "inputs": [
        {
          "internalType": "address",
          "name": "_borrower",
          "type": "address"
        }
      ],
      "name": "applyPendingRewards",
      "outputs": [],
      "stateMutability": "nonpayable",
      "type": "function"
    },
    {
      "inputs": [],
      "name": "baseFeeLMAToken",
      "outputs": [
        {
          "internalType": "contract IBaseFeeLMAToken",
          "name": "",
          "type": "address"
        }
      ],
      "stateMutability": "view",
      "type": "function"
    },
    {
      "inputs": [
        {
          "internalType": "address[]",
          "name": "_troveArray",
          "type": "address[]"
        }
      ],
      "name": "batchLiquidateTroves",
      "outputs": [],
      "stateMutability": "nonpayable",
      "type": "function"
    },
    {
      "inputs": [],
      "name": "borrowBaseRate",
      "outputs": [
        {
          "internalType": "uint256",
          "name": "",
          "type": "uint256"
        }
      ],
      "stateMutability": "view",
      "type": "function"
    },
    {
      "inputs": [],
      "name": "borrowerOperationsAddress",
      "outputs": [
        {
          "internalType": "address",
          "name": "",
          "type": "address"
        }
      ],
      "stateMutability": "view",
      "type": "function"
    },
    {
      "inputs": [
        {
          "internalType": "uint256",
          "name": "_price",
          "type": "uint256"
        }
      ],
      "name": "checkRecoveryMode",
      "outputs": [
        {
          "internalType": "bool",
          "name": "",
          "type": "bool"
        }
      ],
      "stateMutability": "view",
      "type": "function"
    },
    {
      "inputs": [],
      "name": "checkUnreliableRecoveryMode",
      "outputs": [
        {
          "internalType": "bool",
          "name": "",
          "type": "bool"
        }
      ],
      "stateMutability": "view",
      "type": "function"
    },
    {
      "inputs": [
        {
          "internalType": "address",
          "name": "_borrower",
          "type": "address"
        }
      ],
      "name": "closeTrove",
      "outputs": [],
      "stateMutability": "nonpayable",
      "type": "function"
    },
    {
      "inputs": [],
      "name": "decayBaseRateFromBorrowing",
      "outputs": [],
      "stateMutability": "nonpayable",
      "type": "function"
    },
    {
      "inputs": [
        {
          "internalType": "address",
          "name": "_borrower",
          "type": "address"
        },
        {
          "internalType": "uint256",
          "name": "_collDecrease",
          "type": "uint256"
        }
      ],
      "name": "decreaseTroveColl",
      "outputs": [
        {
          "internalType": "uint256",
          "name": "",
          "type": "uint256"
        }
      ],
      "stateMutability": "nonpayable",
      "type": "function"
    },
    {
      "inputs": [
        {
          "internalType": "address",
          "name": "_borrower",
          "type": "address"
        },
        {
          "internalType": "uint256",
          "name": "_debtDecrease",
          "type": "uint256"
        }
      ],
      "name": "decreaseTroveDebt",
      "outputs": [
        {
          "internalType": "uint256",
          "name": "",
          "type": "uint256"
        }
      ],
      "stateMutability": "nonpayable",
      "type": "function"
    },
    {
      "inputs": [],
      "name": "defaultPool",
      "outputs": [
        {
          "internalType": "contract IDefaultPool",
          "name": "",
          "type": "address"
        }
      ],
      "stateMutability": "view",
      "type": "function"
    },
    {
      "inputs": [],
      "name": "feesRouter",
      "outputs": [
        {
          "internalType": "contract IFeesRouter",
          "name": "",
          "type": "address"
        }
      ],
      "stateMutability": "view",
      "type": "function"
    },
    {
      "inputs": [
        {
          "internalType": "uint256",
          "name": "_BaseFeeLMADebt",
          "type": "uint256"
        }
      ],
      "name": "getBorrowingFee",
      "outputs": [
        {
          "internalType": "uint256",
          "name": "",
          "type": "uint256"
        },
        {
          "internalType": "uint256",
          "name": "",
          "type": "uint256"
        }
      ],
      "stateMutability": "view",
      "type": "function"
    },
    {
      "inputs": [
        {
          "internalType": "uint256",
          "name": "_BaseFeeLMADebt",
          "type": "uint256"
        }
      ],
      "name": "getBorrowingFeeWithDecay",
      "outputs": [
        {
          "internalType": "uint256",
          "name": "",
          "type": "uint256"
        }
      ],
      "stateMutability": "view",
      "type": "function"
    },
    {
      "inputs": [
        {
          "internalType": "uint256",
          "name": "_issuedBaseFeeLMA",
          "type": "uint256"
        }
      ],
      "name": "getBorrowingRate",
      "outputs": [
        {
          "internalType": "uint256",
          "name": "",
          "type": "uint256"
        }
      ],
      "stateMutability": "view",
      "type": "function"
    },
    {
      "inputs": [
        {
          "internalType": "uint256",
          "name": "_issuedBaseFeeLMA",
          "type": "uint256"
        }
      ],
      "name": "getBorrowingRateWithDecay",
      "outputs": [
        {
          "internalType": "uint256",
          "name": "",
          "type": "uint256"
        }
      ],
      "stateMutability": "view",
      "type": "function"
    },
    {
      "inputs": [
        {
          "internalType": "address",
          "name": "_borrower",
          "type": "address"
        },
        {
          "internalType": "uint256",
          "name": "_price",
          "type": "uint256"
        }
      ],
      "name": "getCurrentICR",
      "outputs": [
        {
          "internalType": "uint256",
          "name": "",
          "type": "uint256"
        }
      ],
      "stateMutability": "view",
      "type": "function"
    },
    {
      "inputs": [
        {
          "internalType": "address",
          "name": "_borrower",
          "type": "address"
        }
      ],
      "name": "getEntireDebtAndColl",
      "outputs": [
        {
          "internalType": "uint256",
          "name": "debt",
          "type": "uint256"
        },
        {
          "internalType": "uint256",
          "name": "coll",
          "type": "uint256"
        },
        {
          "internalType": "uint256",
          "name": "pendingBaseFeeLMADebtReward",
          "type": "uint256"
        },
        {
          "internalType": "uint256",
          "name": "pendingWStETHReward",
          "type": "uint256"
        }
      ],
      "stateMutability": "view",
      "type": "function"
    },
    {
      "inputs": [],
      "name": "getEntireSystemColl",
      "outputs": [
        {
          "internalType": "uint256",
          "name": "entireSystemColl",
          "type": "uint256"
        }
      ],
      "stateMutability": "view",
      "type": "function"
    },
    {
      "inputs": [],
      "name": "getEntireSystemDebt",
      "outputs": [
        {
          "internalType": "uint256",
          "name": "entireSystemDebt",
          "type": "uint256"
        }
      ],
      "stateMutability": "view",
      "type": "function"
    },
    {
      "inputs": [
        {
          "internalType": "address",
          "name": "_borrower",
          "type": "address"
        }
      ],
      "name": "getNominalICR",
      "outputs": [
        {
          "internalType": "uint256",
          "name": "",
          "type": "uint256"
        }
      ],
      "stateMutability": "view",
      "type": "function"
    },
    {
      "inputs": [
        {
          "internalType": "uint256",
          "name": "_coll",
          "type": "uint256"
        },
        {
          "internalType": "uint256",
          "name": "_debt",
          "type": "uint256"
        }
      ],
      "name": "getNormalLiquidationPrice",
      "outputs": [
        {
          "internalType": "uint256",
          "name": "",
          "type": "uint256"
        }
      ],
      "stateMutability": "pure",
      "type": "function"
    },
    {
      "inputs": [
        {
          "internalType": "address",
          "name": "_borrower",
          "type": "address"
        }
      ],
      "name": "getPendingBaseFeeLMADebtReward",
      "outputs": [
        {
          "internalType": "uint256",
          "name": "",
          "type": "uint256"
        }
      ],
      "stateMutability": "view",
      "type": "function"
    },
    {
      "inputs": [
        {
          "internalType": "address",
          "name": "_borrower",
          "type": "address"
        }
      ],
      "name": "getPendingWStETHReward",
      "outputs": [
        {
          "internalType": "uint256",
          "name": "",
          "type": "uint256"
        }
      ],
      "stateMutability": "view",
      "type": "function"
    },
    {
      "inputs": [
        {
          "internalType": "uint256",
          "name": "_coll",
          "type": "uint256"
        },
        {
          "internalType": "uint256",
          "name": "_debt",
          "type": "uint256"
        }
      ],
      "name": "getRecoveryLiquidationPrice",
      "outputs": [
        {
          "internalType": "uint256",
          "name": "",
          "type": "uint256"
        }
      ],
      "stateMutability": "pure",
      "type": "function"
    },
    {
      "inputs": [
        {
          "internalType": "uint256",
          "name": "_WStETHDrawn",
          "type": "uint256"
        }
      ],
      "name": "getRedemptionFeeWithDecay",
      "outputs": [
        {
          "internalType": "uint256",
          "name": "",
          "type": "uint256"
        }
      ],
      "stateMutability": "view",
      "type": "function"
    },
    {
      "inputs": [
        {
          "internalType": "uint256",
          "name": "_redemptionColl",
          "type": "uint256"
        }
      ],
      "name": "getRedemptionRate",
      "outputs": [
        {
          "internalType": "uint256",
          "name": "",
          "type": "uint256"
        }
      ],
      "stateMutability": "view",
      "type": "function"
    },
    {
      "inputs": [
        {
          "internalType": "uint256",
          "name": "_redemptionColl",
          "type": "uint256"
        }
      ],
      "name": "getRedemptionRateWithDecay",
      "outputs": [
        {
          "internalType": "uint256",
          "name": "",
          "type": "uint256"
        }
      ],
      "stateMutability": "view",
      "type": "function"
    },
    {
      "inputs": [
        {
          "internalType": "uint256",
          "name": "_price",
          "type": "uint256"
        }
      ],
      "name": "getTCR",
      "outputs": [
        {
          "internalType": "uint256",
          "name": "",
          "type": "uint256"
        }
      ],
      "stateMutability": "view",
      "type": "function"
    },
    {
      "inputs": [
        {
          "internalType": "address",
          "name": "_borrower",
          "type": "address"
        }
      ],
      "name": "getTroveColl",
      "outputs": [
        {
          "internalType": "uint256",
          "name": "",
          "type": "uint256"
        }
      ],
      "stateMutability": "view",
      "type": "function"
    },
    {
      "inputs": [
        {
          "internalType": "address",
          "name": "_borrower",
          "type": "address"
        }
      ],
      "name": "getTroveDebt",
      "outputs": [
        {
          "internalType": "uint256",
          "name": "",
          "type": "uint256"
        }
      ],
      "stateMutability": "view",
      "type": "function"
    },
    {
      "inputs": [
        {
          "internalType": "uint256",
          "name": "_index",
          "type": "uint256"
        }
      ],
      "name": "getTroveFromTroveOwnersArray",
      "outputs": [
        {
          "internalType": "address",
          "name": "",
          "type": "address"
        }
      ],
      "stateMutability": "view",
      "type": "function"
    },
    {
      "inputs": [],
      "name": "getTroveOwnersCount",
      "outputs": [
        {
          "internalType": "uint256",
          "name": "",
          "type": "uint256"
        }
      ],
      "stateMutability": "view",
      "type": "function"
    },
    {
      "inputs": [
        {
          "internalType": "address",
          "name": "_borrower",
          "type": "address"
        }
      ],
      "name": "getTroveStake",
      "outputs": [
        {
          "internalType": "uint256",
          "name": "",
          "type": "uint256"
        }
      ],
      "stateMutability": "view",
      "type": "function"
    },
    {
      "inputs": [
        {
          "internalType": "address",
          "name": "_borrower",
          "type": "address"
        }
      ],
      "name": "getTroveStatus",
      "outputs": [
        {
          "internalType": "uint256",
          "name": "",
          "type": "uint256"
        }
      ],
      "stateMutability": "view",
      "type": "function"
    },
    {
      "inputs": [],
      "name": "getUnreliableTCR",
      "outputs": [
        {
          "internalType": "uint256",
          "name": "",
          "type": "uint256"
        }
      ],
      "stateMutability": "view",
      "type": "function"
    },
    {
      "inputs": [
        {
          "internalType": "address",
          "name": "_borrower",
          "type": "address"
        }
      ],
      "name": "getUnreliableTroveICR",
      "outputs": [
        {
          "internalType": "uint256",
          "name": "",
          "type": "uint256"
        }
      ],
      "stateMutability": "view",
      "type": "function"
    },
    {
      "inputs": [
        {
          "internalType": "address",
          "name": "_borrower",
          "type": "address"
        }
      ],
      "name": "hasPendingRewards",
      "outputs": [
        {
          "internalType": "bool",
          "name": "",
          "type": "bool"
        }
      ],
      "stateMutability": "view",
      "type": "function"
    },
    {
      "inputs": [],
      "name": "hogToken",
      "outputs": [
        {
          "internalType": "contract IHOGToken",
          "name": "",
          "type": "address"
        }
      ],
      "stateMutability": "view",
      "type": "function"
    },
    {
      "inputs": [
        {
          "internalType": "address",
          "name": "_borrower",
          "type": "address"
        },
        {
          "internalType": "uint256",
          "name": "_collIncrease",
          "type": "uint256"
        }
      ],
      "name": "increaseTroveColl",
      "outputs": [
        {
          "internalType": "uint256",
          "name": "",
          "type": "uint256"
        }
      ],
      "stateMutability": "nonpayable",
      "type": "function"
    },
    {
      "inputs": [
        {
          "internalType": "address",
          "name": "_borrower",
          "type": "address"
        },
        {
          "internalType": "uint256",
          "name": "_debtIncrease",
          "type": "uint256"
        }
      ],
      "name": "increaseTroveDebt",
      "outputs": [
        {
          "internalType": "uint256",
          "name": "",
          "type": "uint256"
        }
      ],
      "stateMutability": "nonpayable",
      "type": "function"
    },
    {
      "inputs": [],
      "name": "lastBaseFeeLMADebtError_Redistribution",
      "outputs": [
        {
          "internalType": "uint256",
          "name": "",
          "type": "uint256"
        }
      ],
      "stateMutability": "view",
      "type": "function"
    },
    {
      "inputs": [],
      "name": "lastBorrowTime",
      "outputs": [
        {
          "internalType": "uint256",
          "name": "",
          "type": "uint256"
        }
      ],
      "stateMutability": "view",
      "type": "function"
    },
    {
      "inputs": [],
      "name": "lastRedemptionTime",
      "outputs": [
        {
          "internalType": "uint256",
          "name": "",
          "type": "uint256"
        }
      ],
      "stateMutability": "view",
      "type": "function"
    },
    {
      "inputs": [],
      "name": "lastWStETHError_Redistribution",
      "outputs": [
        {
          "internalType": "uint256",
          "name": "",
          "type": "uint256"
        }
      ],
      "stateMutability": "view",
      "type": "function"
    },
    {
      "inputs": [
        {
          "internalType": "address",
          "name": "_borrower",
          "type": "address"
        }
      ],
      "name": "liquidate",
      "outputs": [],
      "stateMutability": "nonpayable",
      "type": "function"
    },
    {
      "inputs": [
        {
          "internalType": "uint256",
          "name": "_n",
          "type": "uint256"
        }
      ],
      "name": "liquidateTroves",
      "outputs": [],
      "stateMutability": "nonpayable",
      "type": "function"
    },
    {
      "inputs": [],
      "name": "owner",
      "outputs": [
        {
          "internalType": "address",
          "name": "",
          "type": "address"
        }
      ],
      "stateMutability": "view",
      "type": "function"
    },
    {
      "inputs": [],
      "name": "priceFeed",
      "outputs": [
        {
          "internalType": "contract IPriceFeed",
          "name": "",
          "type": "address"
        }
      ],
      "stateMutability": "view",
      "type": "function"
    },
    {
      "inputs": [
        {
          "internalType": "uint256",
          "name": "_BaseFeeLMAamount",
          "type": "uint256"
        },
        {
          "internalType": "address",
          "name": "_firstRedemptionHint",
          "type": "address"
        },
        {
          "internalType": "address",
          "name": "_upperPartialRedemptionHint",
          "type": "address"
        },
        {
          "internalType": "address",
          "name": "_lowerPartialRedemptionHint",
          "type": "address"
        },
        {
          "internalType": "uint256",
          "name": "_partialRedemptionHintNICR",
          "type": "uint256"
        },
        {
          "internalType": "uint256",
          "name": "_maxIterations",
          "type": "uint256"
        },
        {
          "internalType": "uint256",
          "name": "_maxFeePercentage",
          "type": "uint256"
        }
      ],
      "name": "redeemCollateral",
      "outputs": [],
      "stateMutability": "nonpayable",
      "type": "function"
    },
    {
      "inputs": [],
      "name": "redemptionBaseRate",
      "outputs": [
        {
          "internalType": "uint256",
          "name": "",
          "type": "uint256"
        }
      ],
      "stateMutability": "view",
      "type": "function"
    },
    {
      "inputs": [
        {
          "internalType": "address",
          "name": "_borrower",
          "type": "address"
        }
      ],
      "name": "removeStake",
      "outputs": [],
      "stateMutability": "nonpayable",
      "type": "function"
    },
    {
      "inputs": [],
      "name": "renounceOwnership",
      "outputs": [],
      "stateMutability": "nonpayable",
      "type": "function"
    },
    {
      "inputs": [
        {
          "internalType": "address",
          "name": "",
          "type": "address"
        }
      ],
      "name": "rewardSnapshots",
      "outputs": [
        {
          "internalType": "uint256",
          "name": "WStETH",
          "type": "uint256"
        },
        {
          "internalType": "uint256",
          "name": "BaseFeeLMADebt",
          "type": "uint256"
        }
      ],
      "stateMutability": "view",
      "type": "function"
    },
    {
      "inputs": [
        {
          "internalType": "address",
          "name": "_borrowerOperationsAddress",
          "type": "address"
        },
        {
          "internalType": "address",
          "name": "_activePoolAddress",
          "type": "address"
        },
        {
          "internalType": "address",
          "name": "_defaultPoolAddress",
          "type": "address"
        },
        {
          "internalType": "address",
          "name": "_stabilityPoolAddress",
          "type": "address"
        },
        {
          "internalType": "address",
          "name": "_gasPoolAddress",
          "type": "address"
        },
        {
          "internalType": "address",
          "name": "_collSurplusPoolAddress",
          "type": "address"
        },
        {
          "internalType": "address",
          "name": "_priceFeedAddress",
          "type": "address"
        },
        {
          "internalType": "address",
          "name": "_baseFeeLMATokenAddress",
          "type": "address"
        },
        {
          "internalType": "address",
          "name": "_sortedTrovesAddress",
          "type": "address"
        },
        {
          "internalType": "address",
          "name": "_hogTokenAddress",
          "type": "address"
        },
        {
          "internalType": "contract IFeesRouter",
          "name": "_feesRouterAddress",
          "type": "address"
        }
      ],
      "name": "setAddresses",
      "outputs": [],
      "stateMutability": "nonpayable",
      "type": "function"
    },
    {
      "inputs": [
        {
          "internalType": "address",
          "name": "_borrower",
          "type": "address"
        },
        {
          "internalType": "uint256",
          "name": "_num",
          "type": "uint256"
        }
      ],
      "name": "setTroveStatus",
      "outputs": [],
      "stateMutability": "nonpayable",
      "type": "function"
    },
    {
      "inputs": [],
      "name": "sortedTroves",
      "outputs": [
        {
          "internalType": "contract ISortedTroves",
          "name": "",
          "type": "address"
        }
      ],
      "stateMutability": "view",
      "type": "function"
    },
    {
      "inputs": [],
      "name": "stabilityPool",
      "outputs": [
        {
          "internalType": "contract IStabilityPool",
          "name": "",
          "type": "address"
        }
      ],
      "stateMutability": "view",
      "type": "function"
    },
    {
      "inputs": [],
      "name": "totalCollateralSnapshot",
      "outputs": [
        {
          "internalType": "uint256",
          "name": "",
          "type": "uint256"
        }
      ],
      "stateMutability": "view",
      "type": "function"
    },
    {
      "inputs": [],
      "name": "totalStakes",
      "outputs": [
        {
          "internalType": "uint256",
          "name": "",
          "type": "uint256"
        }
      ],
      "stateMutability": "view",
      "type": "function"
    },
    {
      "inputs": [],
      "name": "totalStakesSnapshot",
      "outputs": [
        {
          "internalType": "uint256",
          "name": "",
          "type": "uint256"
        }
      ],
      "stateMutability": "view",
      "type": "function"
    },
    {
      "inputs": [
        {
          "internalType": "address",
          "name": "newOwner",
          "type": "address"
        }
      ],
      "name": "transferOwnership",
      "outputs": [],
      "stateMutability": "nonpayable",
      "type": "function"
    },
    {
      "inputs": [
        {
          "internalType": "uint256",
          "name": "_newBaseRate",
          "type": "uint256"
        }
      ],
      "name": "updateBaseRateFromBorrowing",
      "outputs": [],
      "stateMutability": "nonpayable",
      "type": "function"
    },
    {
      "inputs": [
        {
          "internalType": "address",
          "name": "_borrower",
          "type": "address"
        }
      ],
      "name": "updateStakeAndTotalStakes",
      "outputs": [
        {
          "internalType": "uint256",
          "name": "",
          "type": "uint256"
        }
      ],
      "stateMutability": "nonpayable",
      "type": "function"
    },
    {
      "inputs": [
        {
          "internalType": "address",
          "name": "_borrower",
          "type": "address"
        }
      ],
      "name": "updateTroveRewardSnapshots",
      "outputs": [],
      "stateMutability": "nonpayable",
      "type": "function"
    }
  ],
  "transactionHash": "0xe7c848e59058aeabc65e26948194384850fe5efa906fb9cc95446e52a767b11e",
  "args": [
    "100000",
    "100000",
    "2000000000000000000",
    14
  ],
  "numDeployments": 1,
  "solcInputHash": "67778fe31174ce4a4454a4c4fa98b83b",
  "bytecode": "0x6101206040523480156200001257600080fd5b5060405162006018380380620060188339810160408190526200003591620000db565b60a084905260c083905260808290526200004f3362000089565b6200005c81603c62000112565b6200006990603c62000112565b6200007690601862000112565b60e05250504261010052506200013e9050565b600380546001600160a01b038381166001600160a01b0319831681179093556040519116919082907f8be0079c531659141344cd1fd0a4f28419497f9722a3daafe3b4186f6b6457e090600090a35050565b60008060008060808587031215620000f257600080fd5b505082516020840151604085015160609095015191969095509092509050565b80820281158282048414176200013857634e487b7160e01b600052601160045260246000fd5b92915050565b60805160a05160c05160e05161010051615e4f620001c960003960008181610b68015261406b015260008181610a8a015261408c0152600081816105e101526145bf01526000818161094f015281816145030152818161454301528181614bc80152818161500401526156ee01526000818161071f01528181612c050152614f5d0152615e4f6000f3fe608060405234801561001057600080fd5b50600436106104e35760003560e01c80637e024ad61161028e578063b91af97c11610167578063d5b35635116100d9578063e2ac77b011610092578063e2ac77b014610b92578063e324634914610ba5578063f2fde38b14610bae578063f92d343314610641578063fb0cbd4b14610bc1578063fe2ba84814610bd057600080fd5b8063d5b3563514610b01578063d66a255314610b14578063d696629714610b3d578063d9a7244414610b50578063e030c10c14610b63578063e1f787e914610b8a57600080fd5b8063c35bc5501161012b578063c35bc55014610a85578063c3eb5c6714610aac578063c42dab9914610ab5578063cbd138ae14610ac8578063d293c71014610adb578063d3d6f84314610aee57600080fd5b8063b91af97c14610a24578063bb6f030c14610a57578063bcd3752614610a60578063bf9befb114610a73578063c26c880014610a7c57600080fd5b80639f7adb5e11610200578063ae918754116101c4578063ae918754146109bc578063b0d8e181146109cf578063b25c3183146109e2578063b36cd07f146109eb578063b7f8cf9b146109fe578063b82f263d14610a1157600080fd5b80639f7adb5e14610937578063a20141521461094a578063a20baee614610632578063a22b7d6814610971578063a3f4df7e1461098457600080fd5b80638da5cb5b116102525780638da5cb5b146108db5780638f913789146108ec578063900e664b146108ff578063948ba6d21461090857806396d711ff1461091b5780639976cf451461092457600080fd5b80637e024ad6146108955780637f7dde4a146108a4578063807d138d146108b757806382fe3eb9146108c0578063887105d3146108d357600080fd5b80634870dd9a116103c0578063653d46e71161033257806372fe25aa116102f657806372fe25aa14610632578063741bef1a14610845578063756b253e14610858578063794e57241461086b578063795d26c31461087a5780637985c5e41461088257600080fd5b8063653d46e7146107b65780636ef64338146107c9578063715018a61461082257806371f256e21461082a57806372423c171461083257600080fd5b806358b8a5d61161038457806358b8a5d6146107415780635d6b480f146107545780635dba4c4a1461076757806361ec893d1461076f578063631203b01461077757806364cee2601461078a57600080fd5b80634870dd9a146106d457806349eefeee146106dc5780634e443d9e146106e4578063570dc45e146107075780635733d58f1461071a57600080fd5b80631e8b1c2b116104595780632d81dd561161041d5780632d81dd56146106495780632f8655681461065c5780633cc742251461066f57806347142aa314610682578063477d66cf14610695578063480cd578146106a857600080fd5b80631e8b1c2b1461060357806321e378011461061657806322afd9f114610629578063240926691461063257806328d28b5b1461064157600080fd5b806312610e92116104ab57806312610e921461055e57806315d549f1146105715780631673c79a1461058457806318f2817a146105c05780631b199a64146105d35780631bf43555146105dc57600080fd5b8063030c5a0f146104e8578063048c661d1461050e578063071a75411461052e5780630b076557146105365780630c08ff5f1461054b575b600080fd5b6104fb6104f6366004615869565b610be3565b6040519081526020015b60405180910390f35b600554610521906001600160a01b031681565b6040516105059190615886565b6104fb600281565b610549610544366004615869565b610c9c565b005b6104fb610559366004615869565b610cc4565b6104fb61056c36600461589a565b610cef565b6104fb61057f366004615869565b610d41565b6105ab610592366004615869565b6016602052600090815260409020805460019091015482565b60408051928352602083019190915201610505565b6104fb6105ce366004615869565b610d63565b6104fb60195481565b6104fb7f000000000000000000000000000000000000000000000000000000000000000081565b6105496106113660046158dc565b610d76565b6104fb610624366004615869565b61117f565b6104fb60145481565b6104fb670de0b6b3a764000081565b6104fb6111af565b6104fb6106573660046159a1565b6111d1565b61054961066a366004615869565b6111f1565b600154610521906001600160a01b031681565b6104fb6106903660046159a1565b61125d565b6104fb6106a33660046159c3565b611275565b6104fb6106b6366004615869565b6001600160a01b031660009081526010602052604090206001015490565b6104fb60c881565b6017546104fb565b6106f76106f23660046159c3565b611289565b6040519015158152602001610505565b600954610521906001600160a01b031681565b6104fb7f000000000000000000000000000000000000000000000000000000000000000081565b6104fb61074f3660046159c3565b611294565b61054961076236600461589a565b6112a2565b6105496112fa565b6104fb603c81565b6105ab6107853660046159c3565b611366565b6104fb610798366004615869565b6001600160a01b031660009081526010602052604090206002015490565b6105496107c43660046159c3565b611389565b6108116107d7366004615869565b60106020526000908152604090208054600182015460028301546003909301549192909160ff81169061010090046001600160801b031685565b6040516105059594939291906159f2565b6105496116f3565b6106f7611707565b6104fb61084036600461589a565b61178d565b600254610521906001600160a01b031681565b6105216108663660046159c3565b6117e4565b6104fb6714d1120d7b16000081565b6104fb61180e565b610549610890366004615a38565b61190a565b6104fb670ddd4b8c6c7d70d881565b600054610521906001600160a01b031681565b6104fb60125481565b6105496108ce366004615869565b611c86565b6104fb611c97565b6003546001600160a01b0316610521565b600854610521906001600160a01b031681565b6104fb60155481565b6104fb6109163660046159c3565b611d5c565b6104fb60135481565b6104fb61093236600461589a565b611d6f565b6105496109453660046159c3565b611d9c565b6104fb7f000000000000000000000000000000000000000000000000000000000000000081565b6104fb61097f3660046159c3565b611ea1565b6109af6040518060400160405280600c81526020016b2a3937bb32a6b0b730b3b2b960a11b81525081565b6040516105059190615b16565b600b54610521906001600160a01b031681565b6104fb6109dd366004615869565b611eb4565b6104fb60185481565b6104fb6109f93660046159c3565b611edb565b600454610521906001600160a01b031681565b6104fb610a1f3660046159c3565b611ee9565b610a37610a32366004615869565b611ef4565b604080519485526020850193909352918301526060820152608001610505565b6104fb600c5481565b610549610a6e366004615b64565b611f4c565b6104fb60115481565b6104fb600f5481565b6104fb7f000000000000000000000000000000000000000000000000000000000000000081565b6104fb600d5481565b600a54610521906001600160a01b031681565b610549610ad6366004615869565b61265e565b6104fb610ae936600461589a565b612671565b6104fb610afc36600461589a565b612690565b6104fb610b0f3660046159c3565b6126c0565b6104fb610b22366004615869565b6001600160a01b031660009081526010602052604090205490565b6104fb610b4b366004615869565b6126d4565b610521610b5e3660046159c3565b61276d565b6104fb7f000000000000000000000000000000000000000000000000000000000000000081565b6104fb61279d565b6106f7610ba0366004615869565b61281e565b6104fb600e5481565b610549610bbc366004615869565b612881565b6104fb670dc14847bcc53b2081565b610549610bde366004615869565b6128f7565b6001600160a01b0381166000908152601660205260408120546014548290610c0b9083612908565b9050801580610c4a575060016001600160a01b03851660009081526010602052604090206003015460ff166004811115610c4757610c476159dc565b14155b15610c59575060009392505050565b6001600160a01b03841660009081526010602052604081206002015490610c92670de0b6b3a7640000610c8c848661291b565b90612927565b9695505050505050565b610ca4612933565b600054600154610cc1916001600160a01b039081169116836129b3565b50565b6001600160a01b0381166000908152601660205260408120600101546015548290610c0b9083612908565b6000610cf9612933565b6001600160a01b038316600090815260106020526040812054610d1c9084612908565b6001600160a01b03851660009081526010602052604090208190559150505b92915050565b6000610d4b612933565b610d5482612ab9565b6001600160801b031692915050565b6000610d6d612933565b610d3b82612b53565b8051600003610deb5760405162461bcd60e51b815260206004820152603660248201527f54726f76654d616e616765723a2043616c6c646174612061646472657373206160448201527572726179206d757374206e6f7420626520656d70747960501b60648201526084015b60405180910390fd5b6000546001546005546001600160a01b03928316929182169116610e0d61577f565b610e156157b0565b600260009054906101000a90046001600160a01b03166001600160a01b0316630fdb11cf6040518163ffffffff1660e01b81526004016020604051808303816000875af1158015610e6a573d6000803e3d6000fd5b505050506040513d601f19601f82011682018060405250810190610e8e9190615bd2565b826000018181525050826001600160a01b031663488df0fc6040518163ffffffff1660e01b8152600401602060405180830381865afa158015610ed5573d6000803e3d6000fd5b505050506040513d601f19601f82011682018060405250810190610ef99190615bd2565b60208301528151610f0990612bf7565b1580156040840152610f3157610f2a8585846000015185602001518a612c2c565b9050610f49565b610f468585846000015185602001518a612e53565b90505b6000816020015111610f6d5760405162461bcd60e51b8152600401610de290615beb565b608081015160a082015160405163335525ad60e01b81526001600160a01b0386169263335525ad92610faa92600401918252602082015260400190565b600060405180830381600087803b158015610fc457600080fd5b505af1158015610fd8573d6000803e3d6000fd5b50505050610ff085858360c001518460e00151612f23565b610100810151156110ce5760075461010082015160405162f9332d60e61b81526001600160a01b0390921691633e4ccb40916110329160040190815260200190565b600060405180830381600087803b15801561104c57600080fd5b505af1158015611060573d6000803e3d6000fd5b50506007546101008401516040516316daab2160e01b81526001600160a01b03808b1695506316daab21945061109b93169190600401615c2d565b600060405180830381600087803b1580156110b557600080fd5b505af11580156110c9573d6000803e3d6000fd5b505050505b6110dc8582604001516131b7565b602081015160608301526101008101516040820151825161110892916111029190612908565b90612908565b6080838101829052606080850151604085810151868401518251938452602084019690965290820152908101929092527f4152c73dd2614c4f9fc35e8c9cf16013cd588c75b49a4c1673ecffdcbcda9403910160405180910390a16111778533836060015184604001516132fb565b505050505050565b6001600160a01b03811660009081526010602052604081206003015460ff166004811115610d3b57610d3b6159dc565b6111c36103e8670de0b6b3a7640000615c72565b6111ce906005615c86565b81565b6000806111e984846014670de0b6b3a76400006133de565b949350505050565b6111fa816134e9565b60408051600180825281830190925260009160208083019080368337019050509050818160008151811061123057611230615c9d565b60200260200101906001600160a01b031690816001600160a01b03168152505061125981610d76565b5050565b6000806111e9848460146714d1120d7b1600006133de565b6000610d3b61128383611d5c565b83613580565b6000610d3b82612bf7565b6000610d3b600c5483613598565b6112aa612933565b8060048111156112bc576112bc6159dc565b6001600160a01b0383166000908152601060205260409020600301805460ff191660018360048111156112f1576112f16159dc565b02179055505050565b611302612933565b600061130c6136d1565b9050670de0b6b3a764000081111561132657611326615cb3565b600d8190556040518181527fca870d46d67e9a1444a6b8f97a147e06e4cf71ee2a0f172d7ecd5441ae7c12019060200160405180910390a1610cc1613715565b600080600061137484611edb565b90506113808185613580565b94909350915050565b6040805160c081018252600080546001600160a01b03908116835260015481166020840152928201819052600b54831660608301526080820181905260a08201526005549091166113d861577f565b6113e06157b0565b600260009054906101000a90046001600160a01b03166001600160a01b0316630fdb11cf6040518163ffffffff1660e01b81526004016020604051808303816000875af1158015611435573d6000803e3d6000fd5b505050506040513d601f19601f820116820180604052508101906114599190615bd2565b826000018181525050826001600160a01b031663488df0fc6040518163ffffffff1660e01b8152600401602060405180830381865afa1580156114a0573d6000803e3d6000fd5b505050506040513d601f19601f820116820180604052508101906114c49190615bd2565b602083015281516114d490612bf7565b15801560408401526114fb576114f484836000015184602001518861376c565b905061151b565b611518846000015185602001518460000151856020015189613ae9565b90505b600081602001511161153f5760405162461bcd60e51b8152600401610de290615beb565b608081015160a082015160405163335525ad60e01b81526001600160a01b0386169263335525ad9261157c92600401918252602082015260400190565b600060405180830381600087803b15801561159657600080fd5b505af11580156115aa573d6000803e3d6000fd5b505050506115ca846000015185602001518360c001518460e00151612f23565b610100810151156116415783516007546101008301516040516316daab2160e01b81526001600160a01b03938416936316daab219361160e93911691600401615c2d565b600060405180830381600087803b15801561162857600080fd5b505af115801561163c573d6000803e3d6000fd5b505050505b611653846000015182604001516131b7565b602081015160608301526101008101516040820151825161167992916111029190612908565b6080838101829052606080850151604085810151868401518251938452602084019690965290820152908101929092527f4152c73dd2614c4f9fc35e8c9cf16013cd588c75b49a4c1673ecffdcbcda9403910160405180910390a16116ec846000015133836060015184604001516132fb565b5050505050565b6116fb613c1a565b6117056000613c74565b565b6000611788600260009054906101000a90046001600160a01b03166001600160a01b0316630490be836040518163ffffffff1660e01b8152600401602060405180830381865afa15801561175f573d6000803e3d6000fd5b505050506040513d601f19601f820116820180604052508101906117839190615bd2565b612bf7565b905090565b6000611797612933565b6001600160a01b0383166000908152601060205260408120600101546117bd9084613cc6565b6001600160a01b038516600090815260106020526040902060010181905591505092915050565b601781815481106117f457600080fd5b6000918252602090912001546001600160a01b0316905081565b60008054604080516315b3137b60e21b8152905183926001600160a01b0316916356cc4dec9160048083019260209291908290030181865afa158015611858573d6000803e3d6000fd5b505050506040513d601f19601f8201168201806040525081019061187c9190615bd2565b90506000600160009054906101000a90046001600160a01b03166001600160a01b03166356cc4dec6040518163ffffffff1660e01b8152600401602060405180830381865afa1580156118d3573d6000803e3d6000fd5b505050506040513d601f19601f820116820180604052508101906118f79190615bd2565b90506119038282613cc6565b9250505090565b611912613c1a565b61191b8b613cd2565b6119248a613cd2565b61192d89613cd2565b61193688613cd2565b61193f87613cd2565b61194886613cd2565b61195185613cd2565b61195a84613cd2565b61196383613cd2565b61196c82613cd2565b61197581613cd2565b600480546001600160a01b03199081166001600160a01b038e8116919091179092556000805482168d84161790556001805482168c84161790556005805482168b84161790556006805482168a8416179055600780548216898416179055600280548216888416179055600880548216878416179055600b80548216868416179055600980548216858416179055600a80549091169183169190911790556040517f3ca631ffcd2a9b5d9ae18543fc82f58eb4ca33af9e6ab01b7a8e95331e6ed98590611a43908d90615886565b60405180910390a17f78f058b189175430c48dc02699e3a0031ea4ff781536dc2fab847de4babdd8828a604051611a7a9190615886565b60405180910390a17f5ee0cae2f063ed938bb55046f6a932fb6ae792bf43624806bb90abe68a50be9b89604051611ab19190615886565b60405180910390a17f82966d27eea39b038ee0fa30cd16532bb24f6e65d31cb58fb227aa5766cdcc7f88604051611ae89190615886565b60405180910390a17fcfb07d791fcafc032b35837b50eb84b74df518cf4cc287e8084f47630fa70fa087604051611b1f9190615886565b60405180910390a17fe67f36a6e961157d6eff83b91f3af5a62131ceb6f04954ef74f51c1c05e7f88d86604051611b569190615886565b60405180910390a17f8c537274438aa850a330284665d81a85dd38267d09e4050d416bfc94142db26485604051611b8d9190615886565b60405180910390a17f7faa560f2889840c377209fbc4b6b92d05f43f1fc60bf336ab546fd60c0051ad84604051611bc49190615886565b60405180910390a17f65f4cf077bc01e4742eb5ad98326f6e95b63548ea24b17f8d5e823111fe7880083604051611bfb9190615886565b60405180910390a17f0d32e4ef3d389440323b172cfc07c6c01bdd1d3e8334379048eec21e8d919b7782604051611c329190615886565b60405180910390a17f6877e00d9059f8716bd795b5d4c2c89a4bc3cef71ba3dd99b168ac9cc1f2a6c281604051611c699190615886565b60405180910390a1611c796116f3565b5050505050505050505050565b611c8e612933565b610cc181613d77565b6000805460408051630ee2ec9760e41b8152905183926001600160a01b03169163ee2ec9709160048083019260209291908290030181865afa158015611ce1573d6000803e3d6000fd5b505050506040513d601f19601f82011682018060405250810190611d059190615bd2565b90506000600160009054906101000a90046001600160a01b03166001600160a01b031663ee2ec9706040518163ffffffff1660e01b8152600401602060405180830381865afa1580156118d3573d6000803e3d6000fd5b6000610d3b611d69613ddb565b83613e1f565b6000611d79612933565b6001600160a01b038316600090815260106020526040812054610d1c9084613cc6565b6004546001600160a01b03163314611e0e5760405162461bcd60e51b815260206004820152602f60248201527f54726f76654d616e616765723a204f6e6c7920426f72726f776572206f70657260448201526e185d1a5bdb9cc81b585e4818d85b1b608a1b6064820152608401610de2565b611e226103e8670de0b6b3a7640000615c72565b611e2d906005615c86565b8110611e6457611e476103e8670de0b6b3a7640000615c72565b611e52906005615c86565b611e5c9082615cc9565b600d55611e6a565b6000600d555b6040518181527fca870d46d67e9a1444a6b8f97a147e06e4cf71ee2a0f172d7ecd5441ae7c1201906020015b60405180910390a150565b6000610d3b611eae613ddb565b83613598565b6000806000611ec284613efe565b915091506000611ed28383613f78565b95945050505050565b6000610d3b600d5483613e1f565b6000610d3b82613fa7565b6001600160a01b03811660009081526010602052604081208054600190910154909180611f2085610cc4565b9150611f2b85610be3565b9050611f378483613cc6565b9350611f438382613cc6565b92509193509193565b6040805160c08082018352600080546001600160a01b0390811684526001548116602080860191909152600854821685870152600b548216606080870191909152600754831660808088019190915260065490931660a080880191909152875161010081018952858152928301859052968201849052810183905290810182905293840181905290830181905260e083015290611fe883613fcb565b611ff0614066565b600260009054906101000a90046001600160a01b03166001600160a01b0316630fdb11cf6040518163ffffffff1660e01b81526004016020604051808303816000875af1158015612045573d6000803e3d6000fd5b505050506040513d601f19601f820116820180604052508101906120699190615bd2565b60c0820181905261207990614127565b6120828961419a565b6120918260400151338b614201565b61209961180e565b60e0820181905260408084015190516370a0823160e01b81526001600160a01b03909116906370a08231906120d2903390600401615886565b602060405180830381865afa1580156120ef573d6000803e3d6000fd5b505050506040513d601f19601f820116820180604052508101906121139190615bd2565b111561212157612121615cb3565b888152606082015160c082015160009161213c918b90614301565b1561214857508761225a565b82606001516001600160a01b0316634d6228316040518163ffffffff1660e01b8152600401602060405180830381865afa15801561218a573d6000803e3d6000fd5b505050506040513d601f19601f820116820180604052508101906121ae9190615cdc565b90505b6001600160a01b038116158015906121dd57506714d1120d7b1600006121db828460c00151612671565b105b1561225a5782606001516001600160a01b031663b72703ac826040518263ffffffff1660e01b81526004016122129190615886565b602060405180830381865afa15801561222f573d6000803e3d6000fd5b505050506040513d601f19601f820116820180604052508101906122539190615cdc565b90506121b1565b846000036122685760001994505b6001600160a01b038116158015906122805750815115155b801561228c5750600085115b15612398578461229b81615cf9565b955050600083606001516001600160a01b031663b72703ac836040518263ffffffff1660e01b81526004016122d09190615886565b602060405180830381865afa1580156122ed573d6000803e3d6000fd5b505050506040513d601f19601f820116820180604052508101906123119190615cdc565b905061232684600001518560200151846129b3565b600061233f858486600001518760c001518e8e8e61444b565b9050806040015115612352575050612398565b8051602085015161236291613cc6565b602080860191909152810151604085015161237c91613cc6565b60408501528051845161238e91612908565b8452509050612268565b60008260400151116123fe5760405162461bcd60e51b815260206004820152602960248201527f54726f76654d616e616765723a20556e61626c6520746f2072656465656d20616044820152681b9e48185b5bdd5b9d60ba1b6064820152608401610de2565b61240b82604001516146f0565b5061241982604001516147fd565b60608301819052604083015161243091908661480b565b600a54604080840151606085015191516318ddad8960e21b81526001600160a01b0390931692636376b624926124729291600401918252602082015260400190565b600060405180830381600087803b15801561248c57600080fd5b505af11580156124a0573d6000803e3d6000fd5b50505050606082015160408301516124b791612908565b60808301526020820151604080840151606085015191517f43a3f4082a4dbc33d78e317d2497d3a730bc7fc3574159dcea1056e62e5d9ad893612513938f93919293845260208401929092526040830152606082015260800190565b60405180910390a182604001516001600160a01b0316639dc29fac3384602001516040518363ffffffff1660e01b8152600401612551929190615c2d565b600060405180830381600087803b15801561256b57600080fd5b505af115801561257f573d6000803e3d6000fd5b505084516020850151604051633b4009ff60e11b81526001600160a01b03909216935063768013fe92506125b99160040190815260200190565b600060405180830381600087803b1580156125d357600080fd5b505af11580156125e7573d6000803e3d6000fd5b5050845160808501516040516316daab2160e01b81526001600160a01b0390921693506316daab21925061262091339190600401615c2d565b600060405180830381600087803b15801561263a57600080fd5b505af115801561264e573d6000803e3d6000fd5b5050505050505050505050505050565b612666612933565b610cc1816002614875565b600080600061267f85613efe565b915091506000610c928383876149a2565b600061269a612933565b6001600160a01b0383166000908152601060205260408120600101546117bd9084612908565b6000610d3b6126ce83611ea1565b836149d6565b600080600260009054906101000a90046001600160a01b03166001600160a01b0316630490be836040518163ffffffff1660e01b8152600401602060405180830381865afa15801561272a573d6000803e3d6000fd5b505050506040513d601f19601f8201168201806040525081019061274e9190615bd2565b905060008061275c85613efe565b915091506000610c928383866149a2565b60006017828154811061278257612782615c9d565b6000918252602090912001546001600160a01b031692915050565b6000611788600260009054906101000a90046001600160a01b03166001600160a01b0316630490be836040518163ffffffff1660e01b8152600401602060405180830381865afa1580156127f5573d6000803e3d6000fd5b505050506040513d601f19601f820116820180604052508101906128199190615bd2565b613fa7565b600060016001600160a01b03831660009081526010602052604090206003015460ff166004811115612852576128526159dc565b1461285f57506000919050565b506014546001600160a01b039091166000908152601660205260409020541090565b612889613c1a565b6001600160a01b0381166128ee5760405162461bcd60e51b815260206004820152602660248201527f4f776e61626c653a206e6577206f776e657220697320746865207a65726f206160448201526564647265737360d01b6064820152608401610de2565b610cc181613c74565b6128ff612933565b610cc1816149ef565b60006129148284615cc9565b9392505050565b60006129148284615c86565b60006129148284615c72565b6004546001600160a01b031633146117055760405162461bcd60e51b815260206004820152603b60248201527f54726f76654d616e616765723a2043616c6c6572206973206e6f74207468652060448201527f426f72726f7765724f7065726174696f6e7320636f6e747261637400000000006064820152608401610de2565b6129bc8161281e565b15612ab4576129ca816134e9565b60006129d582610be3565b905060006129e283610cc4565b6001600160a01b038416600090815260106020526040902060010154909150612a0b9083613cc6565b6001600160a01b0384166000908152601060205260409020600181019190915554612a369082613cc6565b6001600160a01b038416600090815260106020526040902055612a5883613d77565b612a6485858385614a39565b6001600160a01b038316600081815260106020526040808220805460018201546002909201549251600080516020615dfa83398151915294612aa99492939291615d24565b60405180910390a250505b505050565b601780546001808201835560008381527fc624b66cc0138b8fabc209247f72d758e1cf3343756d543badbf24212bed8c1590920180546001600160a01b0319166001600160a01b03861617905591549091612b149190612908565b6001600160a01b039290921660009081526010602052604090206003018054610100600160881b0319166101006001600160801b038516021790555090565b6001600160a01b0381166000908152601060205260408120600101548190612b7a90614b1a565b6001600160a01b038416600090815260106020526040902060020180549082905560115491925090612bb8908390612bb29084612908565b90613cc6565b60118190556040519081527f6bac5e0eb3c44eb03a60ab11ec3a2c051771616aecadbcfff2630aabae5203829060200160405180910390a15092915050565b600080612c0383613fa7565b7f0000000000000000000000000000000000000000000000000000000000000000119392505050565b612c346157b0565b612c3c6157fc565b612c446157b0565b84825260006080830152612c5661180e565b60a0830152612c63611c97565b60c0830152600060208301525b835182602001511015612e485783826020015181518110612c9357612c93615c9d565b6020908102919091018101516001600160a01b03166060840181905260009081526010909152604090206003015460019060ff166004811115612cd857612cd86159dc565b03612e3057612ceb826060015187612671565b60408301526080820151612dd8576714d1120d7b160000826040015110158015612d1457508151155b612e30576000612d2d8360c001518460a00151896149a2565b9050612d4a8989856060015186604001518760000151868d614b5b565b60808101518451919350612d5e9190612908565b8352608082015160a0840151612d7391612908565b8360a0018181525050612da882610100015161110284604001516111028660a001518860c0015161290890919063ffffffff16565b60c0840152612db78483614e6c565b9350612dcc8360c001518460a0015189614f4d565b15608084015250612e30565b81608001518015612df457506714d1120d7b1600008260400151105b15612e3057612e0d888884606001518560000151614f86565b60808101518351919250612e219190612908565b8252612e2d8382614e6c565b92505b60208201805190612e4082615d46565b905250612c70565b505095945050505050565b612e5b6157b0565b612e636157fc565b612e6b6157b0565b848252600060208301525b835182602001511015612e485783826020015181518110612e9957612e99615c9d565b60209081029190910101516001600160a01b031660608301819052612ebe9087612671565b604083018190526714d1120d7b1600001115612f0b57612ee8888884606001518560000151614f86565b60808101518351919250612efc9190612908565b8252612f088382614e6c565b92505b60208201805190612f1b82615d46565b905250612e76565b81156131b157601854600090612f4590612bb284670de0b6b3a764000061291b565b90506000612f6a601954612bb2670de0b6b3a76400008761291b90919063ffffffff16565b90506000612f836011548461292790919063ffffffff16565b90506000612f9c6011548461292790919063ffffffff16565b9050612fbd612fb66011548461291b90919063ffffffff16565b8590612908565b601855601154612fd990612fd290839061291b565b8490612908565b601955601454612fe99083613cc6565b601455601554612ff99082613cc6565b60158190556014546040517f9f8bc8ab0daf5bceef75ecfd2085d1fcc6548c657ea970d9a23a60610d0737e392613037928252602082015260400190565b60405180910390a1604051633b4009ff60e11b8152600481018790526001600160a01b0389169063768013fe90602401600060405180830381600087803b15801561308157600080fd5b505af1158015613095573d6000803e3d6000fd5b505060405163262b890160e01b8152600481018990526001600160a01b038a16925063262b89019150602401600060405180830381600087803b1580156130db57600080fd5b505af11580156130ef573d6000803e3d6000fd5b505060405162f9332d60e61b8152600481018890526001600160a01b038a169250633e4ccb409150602401600060405180830381600087803b15801561313457600080fd5b505af1158015613148573d6000803e3d6000fd5b50506040516316daab2160e01b81526001600160a01b038b1692506316daab21915061317a908a908990600401615c2d565b600060405180830381600087803b15801561319457600080fd5b505af11580156131a8573d6000803e3d6000fd5b50505050505050505b50505050565b6011546012819055506000826001600160a01b031663ee2ec9706040518163ffffffff1660e01b8152600401602060405180830381865afa158015613200573d6000803e3d6000fd5b505050506040513d601f19601f820116820180604052508101906132249190615bd2565b90506000600160009054906101000a90046001600160a01b03166001600160a01b031663ee2ec9706040518163ffffffff1660e01b8152600401602060405180830381865afa15801561327b573d6000803e3d6000fd5b505050506040513d601f19601f8201168201806040525081019061329f9190615bd2565b90506132af81612bb28486612908565b60138190556012546040517f51bf4c63ec3cba9d03d43238abbdd979dd91bd16d9895c74ceea9118c7baaf60926132ed928252602082015260400190565b60405180910390a150505050565b811561337257600854600654604051631062c15f60e11b81526001600160a01b0391821660048201528582166024820152604481018590529116906320c582be90606401600060405180830381600087803b15801561335957600080fd5b505af115801561336d573d6000803e3d6000fd5b505050505b80156131b1576040516316daab2160e01b81526001600160a01b038516906316daab21906133a69086908590600401615c2d565b600060405180830381600087803b1580156133c057600080fd5b505af11580156133d4573d6000803e3d6000fd5b5050505050505050565b60006001633b9aca00826133f28287615c86565b905060006134008388615c86565b90505b61340f836102ee615c86565b81116134da5760006134228a8a846149a2565b90508681101561347e57825b8281111580156134475750613443858a615c86565b8110155b1561347c57876134588c8c846149a2565b101561346b5795506111e9945050505050565b6134758582615cc9565b905061342e565b505b6134906702c68af0bb14000088615cc9565b8110156134a9576134a2846014615c86565b94506134c5565b6134ba8766b1a2bc2ec50000615d5f565b8111156134c5578394505b509050806134d38482615d5f565b9050613403565b50600098975050505050505050565b60016001600160a01b03821660009081526010602052604090206003015460ff16600481111561351b5761351b6159dc565b14610cc15760405162461bcd60e51b815260206004820152602f60248201527f54726f76654d616e616765723a2054726f766520646f6573206e6f742065786960448201526e1cdd081bdc881a5cc818db1bdcd959608a1b6064820152608401610de2565b6000612914670de0b6b3a7640000610c8c858561291b565b60006129146136c36136a0600160009054906101000a90046001600160a01b03166001600160a01b031663ee2ec9706040518163ffffffff1660e01b8152600401602060405180830381865afa1580156135f6573d6000803e3d6000fd5b505050506040513d601f19601f8201168201806040525081019061361a9190615bd2565b60008054906101000a90046001600160a01b03166001600160a01b031663ee2ec9706040518163ffffffff1660e01b8152600401602060405180830381865afa15801561366b573d6000803e3d6000fd5b505050506040513d601f19601f8201168201806040525081019061368f9190615bd2565b6136999190615d5f565b8590612927565b612bb2866136b86103e8670de0b6b3a7640000615c72565b612bb2906005615c86565b670de0b6b3a76400006150e5565b6000806136dc6150fb565b905060006136f2670dc14847bcc53b2083615117565b9050611903670de0b6b3a7640000610c8c83600d5461291b90919063ffffffff16565b600061372c600f544261290890919063ffffffff16565b9050603c8110610cc15742600f8190556040519081527f4ac50c32a269c2cfea9cf04e466da1ab839008441fadf7108e4f05410c2bfd5f90602001611e96565b6137746157b0565b61377c6157fc565b6137846157b0565b8482526000608083015261379661180e565b60a08301526137a3611c97565b8260c001818152505086606001516001600160a01b0316634d6228316040518163ffffffff1660e01b8152600401602060405180830381865afa1580156137ee573d6000803e3d6000fd5b505050506040513d601f19601f820116820180604052508101906138129190615cdc565b82606001906001600160a01b031690816001600160a01b031681525050600087606001516001600160a01b0316631e2231436040518163ffffffff1660e01b8152600401602060405180830381865afa158015613873573d6000803e3d6000fd5b505050506040513d601f19601f820116820180604052508101906138979190615cdc565b6000602085015290505b8483602001511080156138ca5750806001600160a01b031683606001516001600160a01b031614155b15613ade57600088606001516001600160a01b031663b72703ac85606001516040518263ffffffff1660e01b81526004016139059190615886565b602060405180830381865afa158015613922573d6000803e3d6000fd5b505050506040513d601f19601f820116820180604052508101906139469190615cdc565b9050613956846060015189612671565b60408501526080840151613a4e576714d1120d7b16000084604001511015801561397f57508351155b1561398a5750613ade565b600061399f8560c001518660a001518b6149a2565b8a5160208c01516060880151604089015189519495506139c094868f614b5b565b608081015186519195506139d49190612908565b8552608084015160a08601516139e991612908565b8560a0018181525050613a1e84610100015161110286604001516111028860a001518a60c0015161290890919063ffffffff16565b60c0860152613a2d8685614e6c565b9550613a428560c001518660a001518b614f4d565b15608086015250613ab8565b83608001518015613a6a57506714d1120d7b1600008460400151105b15613ab257613a8b89600001518a6020015186606001518760000151614f86565b60808101518551919450613a9f9190612908565b8452613aab8584614e6c565b9450613ab8565b50613ade565b6001600160a01b0316606084015260208301805190613ad682615d46565b9052506138a1565b505050949350505050565b613af16157b0565b613af96157fc565b613b016157b0565b600b54858352600060208401526001600160a01b03165b8483602001511015613c0e57806001600160a01b0316634d6228316040518163ffffffff1660e01b8152600401602060405180830381865afa158015613b62573d6000803e3d6000fd5b505050506040513d601f19601f82011682018060405250810190613b869190615cdc565b6001600160a01b031660608401819052613ba09088612671565b604084018190526714d1120d7b1600001115613bf157613bca898985606001518660000151614f86565b60808101518451919350613bde9190612908565b8352613bea8483614e6c565b9350613bf6565b613c0e565b60208301805190613c0682615d46565b905250613b18565b50505095945050505050565b6003546001600160a01b031633146117055760405162461bcd60e51b815260206004820181905260248201527f4f776e61626c653a2063616c6c6572206973206e6f7420746865206f776e65726044820152606401610de2565b600380546001600160a01b038381166001600160a01b0319831681179093556040519116919082907f8be0079c531659141344cd1fd0a4f28419497f9722a3daafe3b4186f6b6457e090600090a35050565b60006129148284615d5f565b6001600160a01b038116613d285760405162461bcd60e51b815260206004820152601e60248201527f4163636f756e742063616e6e6f74206265207a65726f206164647265737300006044820152606401610de2565b803b806112595760405162461bcd60e51b815260206004820181905260248201527f4163636f756e7420636f64652073697a652063616e6e6f74206265207a65726f6044820152606401610de2565b601480546001600160a01b038316600090815260166020526040908190209182556015546001909201829055915491517fc437f324d85e369394148dd9d62f98f534b382e01ed3dd2eb98138fb6d3ab49a92611e9692908252602082015260400190565b600080613de66151bb565b90506000613dfc670ddd4b8c6c7d70d883615117565b9050611903670de0b6b3a7640000610c8c83600c5461291b90919063ffffffff16565b600080600860009054906101000a90046001600160a01b03166001600160a01b03166318160ddd6040518163ffffffff1660e01b8152600401602060405180830381865afa158015613e75573d6000803e3d6000fd5b505050506040513d601f19601f82011682018060405250810190613e999190615bd2565b905080600003613eca57613eb76103e8670de0b6b3a7640000615c72565b613ec2906005615c86565b915050610d3b565b6111e96136c3613ee683610c8c87670de0b6b3a764000061291b565b612bb2876136b86103e8670de0b6b3a7640000615c72565b6000806000613f0c84610be3565b90506000613f1985610cc4565b6001600160a01b03861660009081526010602052604081206001015491925090613f439084613cc6565b6001600160a01b03871660009081526010602052604081205491925090613f6a9084613cc6565b919791965090945050505050565b60008115613f9e57613f9782610c8c8568056bc75e2d6310000061291b565b9050610d3b565b50600019610d3b565b600080613fb2611c97565b90506000613fbe61180e565b90506111e98282866149a2565b613fdf6103e8670de0b6b3a7640000615c72565b613fea906005615c86565b81101580156140015750670de0b6b3a76400008111155b610cc15760405162461bcd60e51b815260206004820152603060248201527f4d6178206665652070657263656e74616765206d75737420626520626574776560448201526f656e20302e352520616e64203130302560801b6064820152608401610de2565b6140b07f00000000000000000000000000000000000000000000000000000000000000007f0000000000000000000000000000000000000000000000000000000000000000613cc6565b421015611705576040805162461bcd60e51b81526020600482015260248101919091527f54726f76654d616e616765723a20526564656d7074696f6e7320617265206e6f60448201527f7420616c6c6f77656420647572696e6720626f6f7473747261702070686173656064820152608401610de2565b6714d1120d7b16000061413982613fa7565b1015610cc15760405162461bcd60e51b815260206004820152602a60248201527f54726f76654d616e616765723a2043616e6e6f742072656465656d207768656e604482015269102a21a9101e1026a1a960b11b6064820152608401610de2565b60008111610cc15760405162461bcd60e51b815260206004820152602e60248201527f54726f76654d616e616765723a20416d6f756e74206d7573742062652067726560448201526d61746572207468616e207a65726f60901b6064820152608401610de2565b6040516370a0823160e01b815281906001600160a01b038516906370a082319061422f908690600401615886565b602060405180830381865afa15801561424c573d6000803e3d6000fd5b505050506040513d601f19601f820116820180604052508101906142709190615bd2565b1015612ab45760405162461bcd60e51b815260206004820152605460248201527f54726f76654d616e616765723a2052657175657374656420726564656d70746960448201527f6f6e20616d6f756e74206d757374206265203c3d2075736572277320426173656064820152734665654c4d4120746f6b656e2062616c616e636560601b608482015260a401610de2565b60006001600160a01b03831615806143835750604051630bb7c8fd60e31b81526001600160a01b03851690635dbe47e890614340908690600401615886565b602060405180830381865afa15801561435d573d6000803e3d6000fd5b505050506040513d601f19601f820116820180604052508101906143819190615d72565b155b8061439e57506714d1120d7b16000061439c8484612671565b105b156143ab57506000612914565b60405163765e015960e01b81526000906001600160a01b0386169063765e0159906143da908790600401615886565b602060405180830381865afa1580156143f7573d6000803e3d6000fd5b505050506040513d601f19601f8201168201806040525081019061441b9190615cdc565b90506001600160a01b0381161580611ed257506714d1120d7b1600006144418285612671565b1095945050505050565b614471604051806060016040528060008152602001600081526020016000151581525090565b6001600160a01b0387166000908152601060205260409020546144959087906150e5565b8082526144a2908661291b565b60208083019190915281516001600160a01b0389166000908152601090925260408220546144cf91612908565b6020808401516001600160a01b038b1660009081526010909252604082206001015492935090916144ff91612908565b90507f000000000000000000000000000000000000000000000000000000000000000082036145a557614531896149ef565b61453c896004614875565b6145688a8a7f0000000000000000000000000000000000000000000000000000000000000000846151d7565b886001600160a01b0316600080516020615dfa833981519152600080600060036040516145989493929190615d24565b60405180910390a26146e2565b60006145b18284613f78565b905084811415806145e157507f000000000000000000000000000000000000000000000000000000000000000083105b156145f557505060016040830152506146e5565b60608b015160405163015f109360e51b81526001600160a01b038c81166004830152602482018490528981166044830152888116606483015290911690632be2126090608401600060405180830381600087803b15801561465557600080fd5b505af1158015614669573d6000803e3d6000fd5b5050506001600160a01b038b166000908152601060205260409020848155600101839055506146978a612b53565b506001600160a01b038a1660008181526010602052604090819020600201549051600080516020615dfa833981519152916146d89187918791600390615d24565b60405180910390a2505b50505b979650505050505050565b6000806146fb613ddb565b9050600061478960008054906101000a90046001600160a01b03166001600160a01b031663ee2ec9706040518163ffffffff1660e01b8152600401602060405180830381865afa158015614753573d6000803e3d6000fd5b505050506040513d601f19601f820116820180604052508101906147779190615bd2565b610c8c86670de0b6b3a764000061291b565b905060006147978383613cc6565b90506147ab81670de0b6b3a76400006150e5565b9050600081116147bd576147bd615cb3565b600c8190556040518181527fbcd47f9685f1ffa254d0ac495b2e47d57feda8840e9d1f2a54d9d499650502a89060200160405180910390a16111e9615336565b6000610d3b6126ce83611294565b600061482383610c8c86670de0b6b3a764000061291b565b9050818111156131b15760405162461bcd60e51b815260206004820152601d60248201527f4665652065786365656465642070726f7669646564206d6178696d756d0000006044820152606401610de2565b6000816004811115614889576148896159dc565b141580156148a9575060018160048111156148a6576148a66159dc565b14155b6148b5576148b5615cb3565b6017546148c18161538d565b6001600160a01b0383166000908152601060205260409020600301805483919060ff191660018360048111156148f9576148f96159dc565b02179055506001600160a01b038316600090815260106020908152604080832060018082018590559084905560169092528220828155015561493b8382615467565b600b54604051631484968760e11b81526001600160a01b03909116906329092d0e9061496b908690600401615886565b600060405180830381600087803b15801561498557600080fd5b505af1158015614999573d6000803e3d6000fd5b50505050505050565b600082156149cd5760006149c483610c8c868189670de0b6b3a764000061291b565b91506129149050565b50600019612914565b6000806111e9670de0b6b3a7640000610c8c868661291b565b6001600160a01b038116600090815260106020526040902060020154601154614a189082612908565b601155506001600160a01b0316600090815260106020526040812060020155565b604051633b4009ff60e11b8152600481018390526001600160a01b0384169063768013fe90602401600060405180830381600087803b158015614a7b57600080fd5b505af1158015614a8f573d6000803e3d6000fd5b505060405163262b890160e01b8152600481018590526001600160a01b038716925063262b89019150602401600060405180830381600087803b158015614ad557600080fd5b505af1158015614ae9573d6000803e3d6000fd5b505060405163051eb59960e11b8152600481018490526001600160a01b0386169250630a3d6b3291506024016133a6565b600080601354600003614b2e575081610d3b565b600060125411614b4057614b40615cb3565b612914601354610c8c6012548661291b90919063ffffffff16565b614b636157b0565b614b8760405180606001604052806000815260200160008152602001600081525090565b601754600110614b9757506146e5565b614ba087611ef4565b60408501526020848101919091528401819052908352614bbf90615637565b604083018190527f000000000000000000000000000000000000000000000000000000000000000060608401526020830151614bfa91612908565b8152670de0b6b3a76400008611614cc557614c1f898983602001518460400151614a39565b614c28876149ef565b60006080830181905260a0830152815160c0830152805160e0830152614c4f876003614875565b815160208301516040516001600160a01b038a1692600080516020615dda83398151915292614c8092600290615d94565b60405180910390a2866001600160a01b0316600080516020615dfa83398151915260008060006002604051614cb89493929190615d24565b60405180910390a2614e60565b670de0b6b3a764000086118015614ce357506714d1120d7b16000086105b15614d3357614cfc898983602001518460400151614a39565b614d05876149ef565b81518151614d14919087615644565b60e086015260c085015260a08401526080830152614c4f876003614875565b6714d1120d7b1600008610158015614d4a57508386105b8015614d57575081518510155b15614e4f57614d70898983602001518460400151614a39565b84600003614d8057614d80615cb3565b614d89876149ef565b614d9c826000015183602001518561569e565b9150614da9876003614875565b61010082015115614e1e57600754610100830151604051633f10abab60e01b81526001600160a01b0390921691633f10abab91614deb918b9190600401615c2d565b600060405180830381600087803b158015614e0557600080fd5b505af1158015614e19573d6000803e3d6000fd5b505050505b815160a08301516040516001600160a01b038a1692600080516020615dda83398151915292614c8092600290615d94565b614e576157b0565b91506146e59050565b50979650505050505050565b614e746157b0565b60408083015190840151614e8791613cc6565b604082015260608083015190840151614e9f91613cc6565b606082015281516020840151614eb491613cc6565b6020808301919091528201518351614ecb91613cc6565b815260808083015190840151614ee091613cc6565b608082015260a08083015190840151614ef891613cc6565b60a082015260c08083015190840151614f1091613cc6565b60c082015260e08083015190840151614f2891613cc6565b60e08201526101008083015190840151614f4191613cc6565b61010082015292915050565b600080614f5b8585856149a2565b7f00000000000000000000000000000000000000000000000000000000000000001195945050505050565b614f8e6157b0565b614fb260405180606001604052806000815260200160008152602001600081525090565b614fbb84611ef4565b60408501908152602085810192835286019290925291845290519051614fe5918891889190614a39565b614fee846149ef565b614ffb8260200151615637565b604083018190527f00000000000000000000000000000000000000000000000000000000000000006060840152602083015160009161503a9190612908565b905061504b83600001518286615644565b60e087015260c086015260a0850152608084015261506a856003614875565b825160208401516040516001600160a01b03881692600080516020615dda8339815191529261509b92600190615d94565b60405180910390a2846001600160a01b0316600080516020615dfa833981519152600080600060016040516150d39493929190615d24565b60405180910390a25050949350505050565b60008183106150f45781612914565b5090919050565b6000611788603c610c8c600f544261290890919063ffffffff16565b6000631f54050082111561512d57631f54050091505b816000036151445750670de0b6b3a7640000610d3b565b670de0b6b3a764000083835b60018111156151b157615164600282615daf565b60000361518957615175828361574f565b9150615182816002612927565b9050615150565b615193828461574f565b925061519f828361574f565b91506151826002610c8c836001612908565b610c92828461574f565b6000611788603c610c8c600e544261290890919063ffffffff16565b6040808501516006549151632770a7eb60e21b81526001600160a01b0391821692639dc29fac9261520f929116908690600401615c2d565b600060405180830381600087803b15801561522957600080fd5b505af115801561523d573d6000803e3d6000fd5b50508551604051633b4009ff60e11b8152600481018690526001600160a01b03909116925063768013fe9150602401600060405180830381600087803b15801561528657600080fd5b505af115801561529a573d6000803e3d6000fd5b5050505083608001516001600160a01b0316633f10abab84836040518363ffffffff1660e01b81526004016152d0929190615c2d565b600060405180830381600087803b1580156152ea57600080fd5b505af11580156152fe573d6000803e3d6000fd5b5050855160808701516040516316daab2160e01b81526001600160a01b0390921693506316daab2192506133a6918590600401615c2d565b600061534d600e544261290890919063ffffffff16565b9050603c8110610cc15742600e8190556040519081527fbab964312bdd13595266f3e549bca3102965a6d718c6c1f8cd7eaac076b9c6c290602001611e96565b6001811180156154085750600b546040805163de8fa43160e01b815290516001926001600160a01b03169163de8fa4319160048083019260209291908290030181865afa1580156153e2573d6000803e3d6000fd5b505050506040513d601f19601f820116820180604052508101906154069190615bd2565b115b610cc15760405162461bcd60e51b815260206004820152602a60248201527f54726f76654d616e616765723a204f6e6c79206f6e652074726f766520696e206044820152697468652073797374656d60b01b6064820152608401610de2565b6001600160a01b03821660009081526010602052604081206003015460ff1690816004811115615499576154996159dc565b141580156154b9575060018160048111156154b6576154b66159dc565b14155b6154c5576154c5615cb3565b6001600160a01b03831660009081526010602052604081206003015461010090046001600160801b03169083906154fd826001612908565b905080836001600160801b0316111561551857615518615cb3565b60006017828154811061552d5761552d615c9d565b600091825260209091200154601780546001600160a01b03909216925082916001600160801b03871690811061556557615565615c9d565b600091825260208083209190910180546001600160a01b0319166001600160a01b03948516179055918316808252601083526040918290206003018054610100600160881b0319166101006001600160801b038a16908102919091179091558251918252928101929092527f02b04ae5f7be9ca7c103293a2aa15f3c339d15d6eda53b721fef7b0e609c831a910160405180910390a1601780548061560c5761560c615dc3565b600082815260209020810160001990810180546001600160a01b031916905501905550505050505050565b6000610d3b60c883615c72565b600080808084156156885761565987866150e5565b935061566987610c8c888761291b565b92506156758785612908565b91506156818684612908565b9050615695565b5060009250829150859050845b93509350935093565b6156a66157b0565b8381526020810183905260006156da670de0b6b3a7640000610c8c856156d4896714d1120d7b16000061291b565b9061291b565b90506156e581615637565b604083018190527f0000000000000000000000000000000000000000000000000000000000000000606084015260808301869052615724908290612908565b60a08301526157338482612908565b61010083015250600060c0820181905260e08201529392505050565b60008061575c848461291b565b90506111e9670de0b6b3a7640000610c8c615778600283615c72565b8490613cc6565b6040518060a00160405280600081526020016000815260200160001515815260200160008152602001600081525090565b6040518061012001604052806000815260200160008152602001600081526020016000815260200160008152602001600081526020016000815260200160008152602001600081525090565b6040518060e0016040528060008152602001600081526020016000815260200160006001600160a01b0316815260200160001515815260200160008152602001600081525090565b6001600160a01b0381168114610cc157600080fd5b803561586481615844565b919050565b60006020828403121561587b57600080fd5b813561291481615844565b6001600160a01b0391909116815260200190565b600080604083850312156158ad57600080fd5b82356158b881615844565b946020939093013593505050565b634e487b7160e01b600052604160045260246000fd5b600060208083850312156158ef57600080fd5b823567ffffffffffffffff8082111561590757600080fd5b818501915085601f83011261591b57600080fd5b81358181111561592d5761592d6158c6565b8060051b604051601f19603f83011681018181108582111715615952576159526158c6565b60405291825284820192508381018501918883111561597057600080fd5b938501935b828510156159955761598685615859565b84529385019392850192615975565b98975050505050505050565b600080604083850312156159b457600080fd5b50508035926020909101359150565b6000602082840312156159d557600080fd5b5035919050565b634e487b7160e01b600052602160045260246000fd5b858152602081018590526040810184905260a0810160058410615a1757615a176159dc565b60608201939093526001600160801b03919091166080909101529392505050565b60008060008060008060008060008060006101608c8e031215615a5a57600080fd5b8b35615a6581615844565b9a5060208c0135615a7581615844565b995060408c0135615a8581615844565b985060608c0135615a9581615844565b975060808c0135615aa581615844565b965060a08c0135615ab581615844565b955060c08c0135615ac581615844565b945060e08c0135615ad581615844565b93506101008c0135615ae681615844565b9250615af56101208d01615859565b9150615b046101408d01615859565b90509295989b509295989b9093969950565b600060208083528351808285015260005b81811015615b4357858101830151858201604001528201615b27565b506000604082860101526040601f19601f8301168501019250505092915050565b600080600080600080600060e0888a031215615b7f57600080fd5b873596506020880135615b9181615844565b95506040880135615ba181615844565b94506060880135615bb181615844565b9699959850939660808101359560a0820135955060c0909101359350915050565b600060208284031215615be457600080fd5b5051919050565b60208082526022908201527f54726f76654d616e616765723a206e6f7468696e6720746f206c697175696461604082015261746560f01b606082015260800190565b6001600160a01b03929092168252602082015260400190565b634e487b7160e01b600052601260045260246000fd5b634e487b7160e01b600052601160045260246000fd5b600082615c8157615c81615c46565b500490565b8082028115828204841417610d3b57610d3b615c5c565b634e487b7160e01b600052603260045260246000fd5b634e487b7160e01b600052600160045260246000fd5b81810381811115610d3b57610d3b615c5c565b600060208284031215615cee57600080fd5b815161291481615844565b600081615d0857615d08615c5c565b506000190190565b60048110615d2057615d206159dc565b9052565b848152602081018490526040810183905260808101611ed26060830184615d10565b600060018201615d5857615d58615c5c565b5060010190565b80820180821115610d3b57610d3b615c5c565b600060208284031215615d8457600080fd5b8151801515811461291457600080fd5b83815260208101839052606081016111e96040830184615d10565b600082615dbe57615dbe615c46565b500690565b634e487b7160e01b600052603160045260246000fdfeea67486ed7ebe3eea8ab3390efd4a3c8aae48be5bea27df104a8af786c408434c3770d654ed33aeea6bf11ac8ef05d02a6a04ed4686dd2f624d853bbec43cc8ba2646970667358221220c895730597a839faa396099f442c2562830c68549d26d1e09080fe853e1639e164736f6c63430008130033",
  "devdoc": {
    "kind": "dev",
    "methods": {
      "owner()": {
        "details": "Returns the address of the current owner."
      },
      "renounceOwnership()": {
        "details": "Leaves the contract without owner. It will not be possible to call `onlyOwner` functions. Can only be called by the current owner. NOTE: Renouncing ownership will leave the contract without an owner, thereby disabling any functionality that is only available to the owner."
      },
      "transferOwnership(address)": {
        "details": "Transfers ownership of the contract to a new account (`newOwner`). Can only be called by the current owner."
      }
    },
    "version": 1
  },
  "userdoc": {
    "kind": "user",
    "methods": {
      "checkUnreliableRecoveryMode()": {
        "notice": "HEDGEHOG UPDATES: New view method to help with getting the data on frontends"
      },
      "getCurrentICR(address,uint256)": {
        "notice": "HEDGEHOG UPDATES: Get Price directly from the price feed instead of param passing"
      },
      "getUnreliableTCR()": {
        "notice": "HEDGEHOG UPDATES: New view method to help with getting the data on frontends"
      },
      "getUnreliableTroveICR(address)": {
        "notice": "HEDGEHOG UPDATES: New view method to help with getting the data on frontends"
      }
    },
    "notice": "Fork of Liquity's TroveManager. Most of the Logic remains unchanged. Changes to the contract: - Raised pragma version - Removed an import of ActivePool Interface - Logic updates with redemption & borrowing fees calculation and their distribution Even though SafeMath is no longer required, the decision was made to keep it to avoid human factor errors",
    "version": 1
  },
  "storageLayout": {
    "storage": [
      {
        "astId": 11046,
        "contract": "contracts/TroveManager.sol:TroveManager",
        "label": "activePool",
        "offset": 0,
        "slot": "0",
        "type": "t_contract(IActivePool)11755"
      },
      {
        "astId": 11049,
        "contract": "contracts/TroveManager.sol:TroveManager",
        "label": "defaultPool",
        "offset": 0,
        "slot": "1",
        "type": "t_contract(IDefaultPool)12122"
      },
      {
        "astId": 11053,
        "contract": "contracts/TroveManager.sol:TroveManager",
        "label": "priceFeed",
        "offset": 0,
        "slot": "2",
        "type": "t_contract(IPriceFeed)12256"
      },
      {
        "astId": 7,
        "contract": "contracts/TroveManager.sol:TroveManager",
        "label": "_owner",
        "offset": 0,
        "slot": "3",
        "type": "t_address"
      },
      {
        "astId": 5910,
        "contract": "contracts/TroveManager.sol:TroveManager",
        "label": "borrowerOperationsAddress",
        "offset": 0,
        "slot": "4",
        "type": "t_address"
      },
      {
        "astId": 5913,
        "contract": "contracts/TroveManager.sol:TroveManager",
        "label": "stabilityPool",
        "offset": 0,
        "slot": "5",
        "type": "t_contract(IStabilityPool)12561"
      },
      {
        "astId": 5915,
        "contract": "contracts/TroveManager.sol:TroveManager",
        "label": "gasPoolAddress",
        "offset": 0,
        "slot": "6",
        "type": "t_address"
      },
      {
        "astId": 5918,
        "contract": "contracts/TroveManager.sol:TroveManager",
        "label": "collSurplusPool",
        "offset": 0,
        "slot": "7",
        "type": "t_contract(ICollSurplusPool)12060"
      },
      {
        "astId": 5921,
        "contract": "contracts/TroveManager.sol:TroveManager",
        "label": "baseFeeLMAToken",
        "offset": 0,
        "slot": "8",
        "type": "t_contract(IBaseFeeLMAToken)11819"
      },
      {
        "astId": 5924,
        "contract": "contracts/TroveManager.sol:TroveManager",
        "label": "hogToken",
        "offset": 0,
        "slot": "9",
        "type": "t_contract(IHOGToken)12180"
      },
      {
        "astId": 5927,
        "contract": "contracts/TroveManager.sol:TroveManager",
        "label": "feesRouter",
        "offset": 0,
        "slot": "10",
        "type": "t_contract(IFeesRouter)12139"
      },
      {
        "astId": 5930,
        "contract": "contracts/TroveManager.sol:TroveManager",
        "label": "sortedTroves",
        "offset": 0,
        "slot": "11",
        "type": "t_contract(ISortedTroves)12388"
      },
      {
        "astId": 5959,
        "contract": "contracts/TroveManager.sol:TroveManager",
        "label": "redemptionBaseRate",
        "offset": 0,
        "slot": "12",
        "type": "t_uint256"
      },
      {
        "astId": 5961,
        "contract": "contracts/TroveManager.sol:TroveManager",
        "label": "borrowBaseRate",
        "offset": 0,
        "slot": "13",
        "type": "t_uint256"
      },
      {
        "astId": 5963,
        "contract": "contracts/TroveManager.sol:TroveManager",
        "label": "lastRedemptionTime",
        "offset": 0,
        "slot": "14",
        "type": "t_uint256"
      },
      {
        "astId": 5965,
        "contract": "contracts/TroveManager.sol:TroveManager",
        "label": "lastBorrowTime",
        "offset": 0,
        "slot": "15",
        "type": "t_uint256"
      },
      {
        "astId": 5988,
        "contract": "contracts/TroveManager.sol:TroveManager",
        "label": "Troves",
        "offset": 0,
        "slot": "16",
        "type": "t_mapping(t_address,t_struct(Trove)5983_storage)"
      },
      {
        "astId": 5990,
        "contract": "contracts/TroveManager.sol:TroveManager",
        "label": "totalStakes",
        "offset": 0,
        "slot": "17",
        "type": "t_uint256"
      },
      {
        "astId": 5992,
        "contract": "contracts/TroveManager.sol:TroveManager",
        "label": "totalStakesSnapshot",
        "offset": 0,
        "slot": "18",
        "type": "t_uint256"
      },
      {
        "astId": 5994,
        "contract": "contracts/TroveManager.sol:TroveManager",
        "label": "totalCollateralSnapshot",
        "offset": 0,
        "slot": "19",
        "type": "t_uint256"
      },
      {
        "astId": 5996,
        "contract": "contracts/TroveManager.sol:TroveManager",
        "label": "L_WStETH",
        "offset": 0,
        "slot": "20",
        "type": "t_uint256"
      },
      {
        "astId": 5998,
        "contract": "contracts/TroveManager.sol:TroveManager",
        "label": "L_BaseFeeLMADebt",
        "offset": 0,
        "slot": "21",
        "type": "t_uint256"
      },
      {
        "astId": 6003,
        "contract": "contracts/TroveManager.sol:TroveManager",
        "label": "rewardSnapshots",
        "offset": 0,
        "slot": "22",
        "type": "t_mapping(t_address,t_struct(RewardSnapshot)6008_storage)"
      },
      {
        "astId": 6011,
        "contract": "contracts/TroveManager.sol:TroveManager",
        "label": "TroveOwners",
        "offset": 0,
        "slot": "23",
        "type": "t_array(t_address)dyn_storage"
      },
      {
        "astId": 6013,
        "contract": "contracts/TroveManager.sol:TroveManager",
        "label": "lastWStETHError_Redistribution",
        "offset": 0,
        "slot": "24",
        "type": "t_uint256"
      },
      {
        "astId": 6015,
        "contract": "contracts/TroveManager.sol:TroveManager",
        "label": "lastBaseFeeLMADebtError_Redistribution",
        "offset": 0,
        "slot": "25",
        "type": "t_uint256"
      }
    ],
    "types": {
      "t_address": {
        "encoding": "inplace",
        "label": "address",
        "numberOfBytes": "20"
      },
      "t_array(t_address)dyn_storage": {
        "base": "t_address",
        "encoding": "dynamic_array",
        "label": "address[]",
        "numberOfBytes": "32"
      },
      "t_contract(IActivePool)11755": {
        "encoding": "inplace",
        "label": "contract IActivePool",
        "numberOfBytes": "20"
      },
      "t_contract(IBaseFeeLMAToken)11819": {
        "encoding": "inplace",
        "label": "contract IBaseFeeLMAToken",
        "numberOfBytes": "20"
      },
      "t_contract(ICollSurplusPool)12060": {
        "encoding": "inplace",
        "label": "contract ICollSurplusPool",
        "numberOfBytes": "20"
      },
      "t_contract(IDefaultPool)12122": {
        "encoding": "inplace",
        "label": "contract IDefaultPool",
        "numberOfBytes": "20"
      },
      "t_contract(IFeesRouter)12139": {
        "encoding": "inplace",
        "label": "contract IFeesRouter",
        "numberOfBytes": "20"
      },
      "t_contract(IHOGToken)12180": {
        "encoding": "inplace",
        "label": "contract IHOGToken",
        "numberOfBytes": "20"
      },
      "t_contract(IPriceFeed)12256": {
        "encoding": "inplace",
        "label": "contract IPriceFeed",
        "numberOfBytes": "20"
      },
      "t_contract(ISortedTroves)12388": {
        "encoding": "inplace",
        "label": "contract ISortedTroves",
        "numberOfBytes": "20"
      },
      "t_contract(IStabilityPool)12561": {
        "encoding": "inplace",
        "label": "contract IStabilityPool",
        "numberOfBytes": "20"
      },
      "t_enum(Status)5971": {
        "encoding": "inplace",
        "label": "enum TroveManager.Status",
        "numberOfBytes": "1"
      },
      "t_mapping(t_address,t_struct(RewardSnapshot)6008_storage)": {
        "encoding": "mapping",
        "key": "t_address",
        "label": "mapping(address => struct TroveManager.RewardSnapshot)",
        "numberOfBytes": "32",
        "value": "t_struct(RewardSnapshot)6008_storage"
      },
      "t_mapping(t_address,t_struct(Trove)5983_storage)": {
        "encoding": "mapping",
        "key": "t_address",
        "label": "mapping(address => struct TroveManager.Trove)",
        "numberOfBytes": "32",
        "value": "t_struct(Trove)5983_storage"
      },
      "t_struct(RewardSnapshot)6008_storage": {
        "encoding": "inplace",
        "label": "struct TroveManager.RewardSnapshot",
        "members": [
          {
            "astId": 6005,
            "contract": "contracts/TroveManager.sol:TroveManager",
            "label": "WStETH",
            "offset": 0,
            "slot": "0",
            "type": "t_uint256"
          },
          {
            "astId": 6007,
            "contract": "contracts/TroveManager.sol:TroveManager",
            "label": "BaseFeeLMADebt",
            "offset": 0,
            "slot": "1",
            "type": "t_uint256"
          }
        ],
        "numberOfBytes": "64"
      },
      "t_struct(Trove)5983_storage": {
        "encoding": "inplace",
        "label": "struct TroveManager.Trove",
        "members": [
          {
            "astId": 5973,
            "contract": "contracts/TroveManager.sol:TroveManager",
            "label": "debt",
            "offset": 0,
            "slot": "0",
            "type": "t_uint256"
          },
          {
            "astId": 5975,
            "contract": "contracts/TroveManager.sol:TroveManager",
            "label": "coll",
            "offset": 0,
            "slot": "1",
            "type": "t_uint256"
          },
          {
            "astId": 5977,
            "contract": "contracts/TroveManager.sol:TroveManager",
            "label": "stake",
            "offset": 0,
            "slot": "2",
            "type": "t_uint256"
          },
          {
            "astId": 5980,
            "contract": "contracts/TroveManager.sol:TroveManager",
            "label": "status",
            "offset": 0,
            "slot": "3",
            "type": "t_enum(Status)5971"
          },
          {
            "astId": 5982,
            "contract": "contracts/TroveManager.sol:TroveManager",
            "label": "arrayIndex",
            "offset": 1,
            "slot": "3",
            "type": "t_uint128"
          }
        ],
        "numberOfBytes": "128"
      },
      "t_uint128": {
        "encoding": "inplace",
        "label": "uint128",
        "numberOfBytes": "16"
      },
      "t_uint256": {
        "encoding": "inplace",
        "label": "uint256",
        "numberOfBytes": "32"
      }
    }
  }
}