{
  "address": "0xb52D1f0506e58d622c9ba9709190F1242E55a282",
  "abi": [
    {
      "anonymous": false,
      "inputs": [
        {
          "indexed": false,
          "internalType": "address",
          "name": "_newActivePoolAddress",
          "type": "address"
        }
      ],
      "name": "ActivePoolAddressChanged",
      "type": "event"
    },
    {
      "anonymous": false,
      "inputs": [
        {
          "indexed": false,
          "internalType": "address",
          "name": "_newBorrowerOperationsAddress",
          "type": "address"
        }
      ],
      "name": "BorrowerOperationsAddressChanged",
      "type": "event"
    },
    {
      "anonymous": false,
      "inputs": [
        {
          "indexed": true,
          "internalType": "address",
          "name": "_account",
          "type": "address"
        },
        {
          "indexed": false,
          "internalType": "uint256",
          "name": "_newBalance",
          "type": "uint256"
        }
      ],
      "name": "CollBalanceUpdated",
      "type": "event"
    },
    {
      "anonymous": false,
      "inputs": [
        {
          "indexed": false,
          "internalType": "address",
          "name": "_to",
          "type": "address"
        },
        {
          "indexed": false,
          "internalType": "uint256",
          "name": "_amount",
          "type": "uint256"
        }
      ],
      "name": "EtherSent",
      "type": "event"
    },
    {
      "anonymous": false,
      "inputs": [
        {
          "indexed": true,
          "internalType": "address",
          "name": "previousOwner",
          "type": "address"
        },
        {
          "indexed": true,
          "internalType": "address",
          "name": "newOwner",
          "type": "address"
        }
      ],
      "name": "OwnershipTransferred",
      "type": "event"
    },
    {
      "anonymous": false,
      "inputs": [
        {
          "indexed": false,
          "internalType": "contract IERC20",
          "name": "_StEthAddress",
          "type": "address"
        }
      ],
      "name": "StETHTokenAddressUpdated",
      "type": "event"
    },
    {
      "anonymous": false,
      "inputs": [
        {
          "indexed": false,
          "internalType": "address",
          "name": "_newTroveManagerAddress",
          "type": "address"
        }
      ],
      "name": "TroveManagerAddressChanged",
      "type": "event"
    },
    {
      "inputs": [],
      "name": "NAME",
      "outputs": [
        {
          "internalType": "string",
          "name": "",
          "type": "string"
        }
      ],
      "stateMutability": "view",
      "type": "function"
    },
    {
      "inputs": [],
      "name": "StETHToken",
      "outputs": [
        {
          "internalType": "contract IERC20",
          "name": "",
          "type": "address"
        }
      ],
      "stateMutability": "view",
      "type": "function"
    },
    {
      "inputs": [
        {
          "internalType": "address",
          "name": "_account",
          "type": "address"
        },
        {
          "internalType": "uint256",
          "name": "_amount",
          "type": "uint256"
        }
      ],
      "name": "accountSurplus",
      "outputs": [],
      "stateMutability": "nonpayable",
      "type": "function"
    },
    {
      "inputs": [],
      "name": "activePoolAddress",
      "outputs": [
        {
          "internalType": "address",
          "name": "",
          "type": "address"
        }
      ],
      "stateMutability": "view",
      "type": "function"
    },
    {
      "inputs": [],
      "name": "borrowerOperationsAddress",
      "outputs": [
        {
          "internalType": "address",
          "name": "",
          "type": "address"
        }
      ],
      "stateMutability": "view",
      "type": "function"
    },
    {
      "inputs": [
        {
          "internalType": "address",
          "name": "_account",
          "type": "address"
        }
      ],
      "name": "claimColl",
      "outputs": [],
      "stateMutability": "nonpayable",
      "type": "function"
    },
    {
      "inputs": [
        {
          "internalType": "address",
          "name": "_account",
          "type": "address"
        }
      ],
      "name": "getCollateral",
      "outputs": [
        {
          "internalType": "uint256",
          "name": "",
          "type": "uint256"
        }
      ],
      "stateMutability": "view",
      "type": "function"
    },
    {
      "inputs": [],
      "name": "getStETH",
      "outputs": [
        {
          "internalType": "uint256",
          "name": "",
          "type": "uint256"
        }
      ],
      "stateMutability": "view",
      "type": "function"
    },
    {
      "inputs": [],
      "name": "owner",
      "outputs": [
        {
          "internalType": "address",
          "name": "",
          "type": "address"
        }
      ],
      "stateMutability": "view",
      "type": "function"
    },
    {
      "inputs": [],
      "name": "renounceOwnership",
      "outputs": [],
      "stateMutability": "nonpayable",
      "type": "function"
    },
    {
      "inputs": [
        {
          "internalType": "address",
          "name": "_borrowerOperationsAddress",
          "type": "address"
        },
        {
          "internalType": "address",
          "name": "_troveManagerAddress",
          "type": "address"
        },
        {
          "internalType": "address",
          "name": "_activePoolAddress",
          "type": "address"
        },
        {
          "internalType": "contract IERC20",
          "name": "_StETHTokenAddress",
          "type": "address"
        }
      ],
      "name": "setAddresses",
      "outputs": [],
      "stateMutability": "nonpayable",
      "type": "function"
    },
    {
      "inputs": [
        {
          "internalType": "address",
          "name": "newOwner",
          "type": "address"
        }
      ],
      "name": "transferOwnership",
      "outputs": [],
      "stateMutability": "nonpayable",
      "type": "function"
    },
    {
      "inputs": [],
      "name": "troveManagerAddress",
      "outputs": [
        {
          "internalType": "address",
          "name": "",
          "type": "address"
        }
      ],
      "stateMutability": "view",
      "type": "function"
    },
    {
      "stateMutability": "payable",
      "type": "receive"
    }
  ],
  "transactionHash": "0x6f1ed2c3f6b4f5f17529df798de7dd9bf430045ea871b1e9b4a4b6903c2fb02e",
  "args": [],
  "numDeployments": 1,
  "solcInputHash": "0a336cd10b8d647251805c96a006a1ea",
  "bytecode": "0x608060405234801561001057600080fd5b5061001a3361001f565b61006f565b600080546001600160a01b038381166001600160a01b0319831681178455604051919092169283917f8be0079c531659141344cd1fd0a4f28419497f9722a3daafe3b4186f6b6457e09190a35050565b610dde8061007e6000396000f3fe6080604052600436106100b65760003560e01c80639b56d6c91161006f5780639b56d6c9146101a7578063a2f03983146101eb578063a3f4df7e14610200578063b08bc72214610248578063b32beb5b14610268578063b7f8cf9b14610288578063f2fde38b146102a857600080fd5b806303239901146100dc5780633f10abab146101125780634a945f8d146101345780635a4d28bb14610154578063715018a6146101745780638da5cb5b1461018957600080fd5b366100d7576100c36102c8565b6005546100d0903461033c565b6005819055005b600080fd5b3480156100e857600080fd5b506004546100fc906001600160a01b031681565b6040516101099190610c02565b60405180910390f35b34801561011e57600080fd5b5061013261012d366004610c2b565b610351565b005b34801561014057600080fd5b5061013261014f366004610c57565b6103da565b34801561016057600080fd5b506002546100fc906001600160a01b031681565b34801561018057600080fd5b5061013261053b565b34801561019557600080fd5b506000546001600160a01b03166100fc565b3480156101b357600080fd5b506101dd6101c2366004610cb3565b6001600160a01b031660009081526006602052604090205490565b604051908152602001610109565b3480156101f757600080fd5b506005546101dd565b34801561020c57600080fd5b5061023b6040518060400160405280600f81526020016e10dbdb1b14dd5c9c1b1d5cd41bdbdb608a1b81525081565b6040516101099190610cfb565b34801561025457600080fd5b506003546100fc906001600160a01b031681565b34801561027457600080fd5b50610132610283366004610cb3565b61054d565b34801561029457600080fd5b506001546100fc906001600160a01b031681565b3480156102b457600080fd5b506101326102c3366004610cb3565b61068f565b6003546001600160a01b0316331461033a5760405162461bcd60e51b815260206004820152602a60248201527f436f6c6c537572706c7573506f6f6c3a2043616c6c6572206973206e6f74204160448201526918dd1a5d9948141bdbdb60b21b60648201526084015b60405180910390fd5b565b60006103488284610d44565b90505b92915050565b610359610708565b6001600160a01b03821660009081526006602052604081205461037c908361033c565b6001600160a01b0384166000818152600660205260409081902083905551919250907ff0393a34d05e6567686ad4e097f9d9d2781565957394f1f0d984e5d8e6378f20906103cd9084815260200190565b60405180910390a2505050565b6103e2610776565b6103eb846107d0565b6103f4836107d0565b6103fd826107d0565b610406816107d0565b600180546001600160a01b038087166001600160a01b031992831617909255600280548684169083161790556003805485841690831617905560048054928416929091169190911790556040517f3ca631ffcd2a9b5d9ae18543fc82f58eb4ca33af9e6ab01b7a8e95331e6ed98590610480908690610c02565b60405180910390a17f143219c9e69b09e07e095fcc889b43d8f46ca892bba65f08dc3a0050869a5678836040516104b79190610c02565b60405180910390a17f78f058b189175430c48dc02699e3a0031ea4ff781536dc2fab847de4babdd882826040516104ee9190610c02565b60405180910390a17f0847fbaccb3e7e2f8fe1e72d819c96f0fca0131ffebf9e9dfe13eb5625b69351816040516105259190610c02565b60405180910390a161053561053b565b50505050565b610543610776565b61033a6000610875565b6105556108c5565b6001600160a01b038116600090815260066020526040902054806105d55760405162461bcd60e51b815260206004820152603160248201527f436f6c6c537572706c7573506f6f6c3a204e6f20636f6c6c61746572616c20616044820152707661696c61626c6520746f20636c61696d60781b6064820152608401610331565b6001600160a01b0382166000818152600660209081526040808320839055519182527ff0393a34d05e6567686ad4e097f9d9d2781565957394f1f0d984e5d8e6378f20910160405180910390a260055461062f908261093a565b600555604080516001600160a01b0384168152602081018390527f6109e2559dfa766aaec7118351d48a523f0a4157f49c8d68749c8ac41318ad12910160405180910390a160045461068b906001600160a01b03168383610946565b5050565b610697610776565b6001600160a01b0381166106fc5760405162461bcd60e51b815260206004820152602660248201527f4f776e61626c653a206e6577206f776e657220697320746865207a65726f206160448201526564647265737360d01b6064820152608401610331565b61070581610875565b50565b6002546001600160a01b0316331461033a5760405162461bcd60e51b815260206004820152602b60248201527f436f6c6c537572706c7573506f6f6c3a2043616c6c6572206973206e6f74205460448201526a3937bb32a6b0b730b3b2b960a91b6064820152608401610331565b6000546001600160a01b0316331461033a5760405162461bcd60e51b815260206004820181905260248201527f4f776e61626c653a2063616c6c6572206973206e6f7420746865206f776e65726044820152606401610331565b6001600160a01b0381166108265760405162461bcd60e51b815260206004820152601e60248201527f4163636f756e742063616e6e6f74206265207a65726f206164647265737300006044820152606401610331565b803b8061068b5760405162461bcd60e51b815260206004820181905260248201527f4163636f756e7420636f64652073697a652063616e6e6f74206265207a65726f6044820152606401610331565b600080546001600160a01b038381166001600160a01b0319831681178455604051919092169283917f8be0079c531659141344cd1fd0a4f28419497f9722a3daafe3b4186f6b6457e09190a35050565b6001546001600160a01b0316331461033a5760405162461bcd60e51b815260206004820152603260248201527f436f6c6c537572706c7573506f6f6c3a2043616c6c6572206973206e6f7420426044820152716f72726f776572204f7065726174696f6e7360701b6064820152608401610331565b60006103488284610d57565b604080516001600160a01b038416602482015260448082018490528251808303909101815260649091019091526020810180516001600160e01b031663a9059cbb60e01b17905261099890849061099d565b505050565b60006109f2826040518060400160405280602081526020017f5361666545524332303a206c6f772d6c6576656c2063616c6c206661696c6564815250856001600160a01b0316610a729092919063ffffffff16565b9050805160001480610a13575080806020019051810190610a139190610d6a565b6109985760405162461bcd60e51b815260206004820152602a60248201527f5361666545524332303a204552433230206f7065726174696f6e20646964206e6044820152691bdd081cdd58d8d9595960b21b6064820152608401610331565b6060610a818484600085610a89565b949350505050565b606082471015610aea5760405162461bcd60e51b815260206004820152602660248201527f416464726573733a20696e73756666696369656e742062616c616e636520666f6044820152651c8818d85b1b60d21b6064820152608401610331565b600080866001600160a01b03168587604051610b069190610d8c565b60006040518083038185875af1925050503d8060008114610b43576040519150601f19603f3d011682016040523d82523d6000602084013e610b48565b606091505b5091509150610b5987838387610b64565b979650505050505050565b60608315610bd3578251600003610bcc576001600160a01b0385163b610bcc5760405162461bcd60e51b815260206004820152601d60248201527f416464726573733a2063616c6c20746f206e6f6e2d636f6e74726163740000006044820152606401610331565b5081610a81565b610a818383815115610be85781518083602001fd5b8060405162461bcd60e51b81526004016103319190610cfb565b6001600160a01b0391909116815260200190565b6001600160a01b038116811461070557600080fd5b60008060408385031215610c3e57600080fd5b8235610c4981610c16565b946020939093013593505050565b60008060008060808587031215610c6d57600080fd5b8435610c7881610c16565b93506020850135610c8881610c16565b92506040850135610c9881610c16565b91506060850135610ca881610c16565b939692955090935050565b600060208284031215610cc557600080fd5b8135610cd081610c16565b9392505050565b60005b83811015610cf2578181015183820152602001610cda565b50506000910152565b6020815260008251806020840152610d1a816040850160208701610cd7565b601f01601f19169190910160400192915050565b634e487b7160e01b600052601160045260246000fd5b8082018082111561034b5761034b610d2e565b8181038181111561034b5761034b610d2e565b600060208284031215610d7c57600080fd5b81518015158114610cd057600080fd5b60008251610d9e818460208701610cd7565b919091019291505056fea26469706673582212208c0927875bad7a8f9526f18552236df83b5fb28f0e2f6b72ed318a6ac62854b964736f6c63430008130033",
  "devdoc": {
    "kind": "dev",
    "methods": {
      "owner()": {
        "details": "Returns the address of the current owner."
      },
      "renounceOwnership()": {
        "details": "Leaves the contract without owner. It will not be possible to call `onlyOwner` functions. Can only be called by the current owner. NOTE: Renouncing ownership will leave the contract without an owner, thereby disabling any functionality that is only available to the owner."
      },
      "transferOwnership(address)": {
        "details": "Transfers ownership of the contract to a new account (`newOwner`). Can only be called by the current owner."
      }
    },
    "version": 1
  },
  "userdoc": {
    "kind": "user",
    "methods": {
      "claimColl(address)": {
        "notice": "HEDGEHOG UPDATES: use SafeERC20 safe transfer instead of native token transfer"
      },
      "setAddresses(address,address,address,address)": {
        "notice": "HEDGEHOG LOGIC UPDATES: ERC20 is used as a collateral instead of native token. Setting erc20 address in the initialisation"
      }
    },
    "version": 1
  },
  "storageLayout": {
    "storage": [
      {
        "astId": 396,
        "contract": "contracts/CollSurplusPool.sol:CollSurplusPool",
        "label": "_owner",
        "offset": 0,
        "slot": "0",
        "type": "t_address"
      },
      {
        "astId": 7123,
        "contract": "contracts/CollSurplusPool.sol:CollSurplusPool",
        "label": "borrowerOperationsAddress",
        "offset": 0,
        "slot": "1",
        "type": "t_address"
      },
      {
        "astId": 7125,
        "contract": "contracts/CollSurplusPool.sol:CollSurplusPool",
        "label": "troveManagerAddress",
        "offset": 0,
        "slot": "2",
        "type": "t_address"
      },
      {
        "astId": 7127,
        "contract": "contracts/CollSurplusPool.sol:CollSurplusPool",
        "label": "activePoolAddress",
        "offset": 0,
        "slot": "3",
        "type": "t_address"
      },
      {
        "astId": 7130,
        "contract": "contracts/CollSurplusPool.sol:CollSurplusPool",
        "label": "StETHToken",
        "offset": 0,
        "slot": "4",
        "type": "t_contract(IERC20)1166"
      },
      {
        "astId": 7132,
        "contract": "contracts/CollSurplusPool.sol:CollSurplusPool",
        "label": "StETH",
        "offset": 0,
        "slot": "5",
        "type": "t_uint256"
      },
      {
        "astId": 7136,
        "contract": "contracts/CollSurplusPool.sol:CollSurplusPool",
        "label": "balances",
        "offset": 0,
        "slot": "6",
        "type": "t_mapping(t_address,t_uint256)"
      }
    ],
    "types": {
      "t_address": {
        "encoding": "inplace",
        "label": "address",
        "numberOfBytes": "20"
      },
      "t_contract(IERC20)1166": {
        "encoding": "inplace",
        "label": "contract IERC20",
        "numberOfBytes": "20"
      },
      "t_mapping(t_address,t_uint256)": {
        "encoding": "mapping",
        "key": "t_address",
        "label": "mapping(address => uint256)",
        "numberOfBytes": "32",
        "value": "t_uint256"
      },
      "t_uint256": {
        "encoding": "inplace",
        "label": "uint256",
        "numberOfBytes": "32"
      }
    }
  }
}