{
  "address": "0x6aF6BAdC7c6e2e1C9361a373343F323424C3D895",
  "abi": [
    {
      "anonymous": false,
      "inputs": [
        {
          "indexed": false,
          "internalType": "address",
          "name": "_activePoolAddress",
          "type": "address"
        }
      ],
      "name": "ActivePoolAddressChanged",
      "type": "event"
    },
    {
      "anonymous": false,
      "inputs": [
        {
          "indexed": false,
          "internalType": "address",
          "name": "_newBaseFeeLMATokenAddress",
          "type": "address"
        }
      ],
      "name": "BaseFeeLMATokenAddressChanged",
      "type": "event"
    },
    {
      "anonymous": false,
      "inputs": [
        {
          "indexed": false,
          "internalType": "uint256",
          "name": "_borrowBaseRate",
          "type": "uint256"
        }
      ],
      "name": "BorrowBaseRateUpdated",
      "type": "event"
    },
    {
      "anonymous": false,
      "inputs": [
        {
          "indexed": false,
          "internalType": "address",
          "name": "_newBorrowerOperationsAddress",
          "type": "address"
        }
      ],
      "name": "BorrowerOperationsAddressChanged",
      "type": "event"
    },
    {
      "anonymous": false,
      "inputs": [
        {
          "indexed": false,
          "internalType": "address",
          "name": "_collSurplusPoolAddress",
          "type": "address"
        }
      ],
      "name": "CollSurplusPoolAddressChanged",
      "type": "event"
    },
    {
      "anonymous": false,
      "inputs": [
        {
          "indexed": false,
          "internalType": "address",
          "name": "_defaultPoolAddress",
          "type": "address"
        }
      ],
      "name": "DefaultPoolAddressChanged",
      "type": "event"
    },
    {
      "anonymous": false,
      "inputs": [
        {
          "indexed": false,
          "internalType": "address",
          "name": "_gasPoolAddress",
          "type": "address"
        }
      ],
      "name": "GasPoolAddressChanged",
      "type": "event"
    },
    {
      "anonymous": false,
      "inputs": [
        {
          "indexed": false,
          "internalType": "address",
          "name": "_hogStakingAddress",
          "type": "address"
        }
      ],
      "name": "HOGStakingAddressChanged",
      "type": "event"
    },
    {
      "anonymous": false,
      "inputs": [
        {
          "indexed": false,
          "internalType": "address",
          "name": "_hogTokenAddress",
          "type": "address"
        }
      ],
      "name": "HOGTokenAddressChanged",
      "type": "event"
    },
    {
      "anonymous": false,
      "inputs": [
        {
          "indexed": false,
          "internalType": "uint256",
          "name": "_L_StETH",
          "type": "uint256"
        },
        {
          "indexed": false,
          "internalType": "uint256",
          "name": "_L_BaseFeeLMADebt",
          "type": "uint256"
        }
      ],
      "name": "LTermsUpdated",
      "type": "event"
    },
    {
      "anonymous": false,
      "inputs": [
        {
          "indexed": false,
          "internalType": "uint256",
          "name": "_lastBorrowTime",
          "type": "uint256"
        }
      ],
      "name": "LastBorrowTimeUpdated",
      "type": "event"
    },
    {
      "anonymous": false,
      "inputs": [
        {
          "indexed": false,
          "internalType": "uint256",
          "name": "_lastRedemptionTime",
          "type": "uint256"
        }
      ],
      "name": "LastRedemptionTimeUpdated",
      "type": "event"
    },
    {
      "anonymous": false,
      "inputs": [
        {
          "indexed": false,
          "internalType": "uint256",
          "name": "_liquidatedDebt",
          "type": "uint256"
        },
        {
          "indexed": false,
          "internalType": "uint256",
          "name": "_liquidatedColl",
          "type": "uint256"
        },
        {
          "indexed": false,
          "internalType": "uint256",
          "name": "_collGasCompensation",
          "type": "uint256"
        },
        {
          "indexed": false,
          "internalType": "uint256",
          "name": "_BaseFeeLMAGasCompensation",
          "type": "uint256"
        }
      ],
      "name": "Liquidation",
      "type": "event"
    },
    {
      "anonymous": false,
      "inputs": [
        {
          "indexed": true,
          "internalType": "address",
          "name": "previousOwner",
          "type": "address"
        },
        {
          "indexed": true,
          "internalType": "address",
          "name": "newOwner",
          "type": "address"
        }
      ],
      "name": "OwnershipTransferred",
      "type": "event"
    },
    {
      "anonymous": false,
      "inputs": [
        {
          "indexed": false,
          "internalType": "address",
          "name": "_newPriceFeedAddress",
          "type": "address"
        }
      ],
      "name": "PriceFeedAddressChanged",
      "type": "event"
    },
    {
      "anonymous": false,
      "inputs": [
        {
          "indexed": false,
          "internalType": "uint256",
          "name": "_attemptedBaseFeeLMAAmount",
          "type": "uint256"
        },
        {
          "indexed": false,
          "internalType": "uint256",
          "name": "_actualBaseFeeLMAAmount",
          "type": "uint256"
        },
        {
          "indexed": false,
          "internalType": "uint256",
          "name": "_StETHSent",
          "type": "uint256"
        },
        {
          "indexed": false,
          "internalType": "uint256",
          "name": "_StETHFee",
          "type": "uint256"
        }
      ],
      "name": "Redemption",
      "type": "event"
    },
    {
      "anonymous": false,
      "inputs": [
        {
          "indexed": false,
          "internalType": "uint256",
          "name": "_redemptionBaseRate",
          "type": "uint256"
        }
      ],
      "name": "RedemptionBaseRateUpdated",
      "type": "event"
    },
    {
      "anonymous": false,
      "inputs": [
        {
          "indexed": false,
          "internalType": "address",
          "name": "_sortedTrovesAddress",
          "type": "address"
        }
      ],
      "name": "SortedTrovesAddressChanged",
      "type": "event"
    },
    {
      "anonymous": false,
      "inputs": [
        {
          "indexed": false,
          "internalType": "address",
          "name": "_stabilityPoolAddress",
          "type": "address"
        }
      ],
      "name": "StabilityPoolAddressChanged",
      "type": "event"
    },
    {
      "anonymous": false,
      "inputs": [
        {
          "indexed": false,
          "internalType": "uint256",
          "name": "_totalStakesSnapshot",
          "type": "uint256"
        },
        {
          "indexed": false,
          "internalType": "uint256",
          "name": "_totalCollateralSnapshot",
          "type": "uint256"
        }
      ],
      "name": "SystemSnapshotsUpdated",
      "type": "event"
    },
    {
      "anonymous": false,
      "inputs": [
        {
          "indexed": false,
          "internalType": "uint256",
          "name": "_newTotalStakes",
          "type": "uint256"
        }
      ],
      "name": "TotalStakesUpdated",
      "type": "event"
    },
    {
      "anonymous": false,
      "inputs": [
        {
          "indexed": false,
          "internalType": "address",
          "name": "_borrower",
          "type": "address"
        },
        {
          "indexed": false,
          "internalType": "uint256",
          "name": "_newIndex",
          "type": "uint256"
        }
      ],
      "name": "TroveIndexUpdated",
      "type": "event"
    },
    {
      "anonymous": false,
      "inputs": [
        {
          "indexed": true,
          "internalType": "address",
          "name": "_borrower",
          "type": "address"
        },
        {
          "indexed": false,
          "internalType": "uint256",
          "name": "_debt",
          "type": "uint256"
        },
        {
          "indexed": false,
          "internalType": "uint256",
          "name": "_coll",
          "type": "uint256"
        },
        {
          "indexed": false,
          "internalType": "enum TroveManager.TroveManagerOperation",
          "name": "_operation",
          "type": "uint8"
        }
      ],
      "name": "TroveLiquidated",
      "type": "event"
    },
    {
      "anonymous": false,
      "inputs": [
        {
          "indexed": false,
          "internalType": "uint256",
          "name": "_L_StETH",
          "type": "uint256"
        },
        {
          "indexed": false,
          "internalType": "uint256",
          "name": "_L_BaseFeeLMADebt",
          "type": "uint256"
        }
      ],
      "name": "TroveSnapshotsUpdated",
      "type": "event"
    },
    {
      "anonymous": false,
      "inputs": [
        {
          "indexed": true,
          "internalType": "address",
          "name": "_borrower",
          "type": "address"
        },
        {
          "indexed": false,
          "internalType": "uint256",
          "name": "_debt",
          "type": "uint256"
        },
        {
          "indexed": false,
          "internalType": "uint256",
          "name": "_coll",
          "type": "uint256"
        },
        {
          "indexed": false,
          "internalType": "uint256",
          "name": "_stake",
          "type": "uint256"
        },
        {
          "indexed": false,
          "internalType": "enum TroveManager.TroveManagerOperation",
          "name": "_operation",
          "type": "uint8"
        }
      ],
      "name": "TroveUpdated",
      "type": "event"
    },
    {
      "inputs": [],
      "name": "BETA",
      "outputs": [
        {
          "internalType": "uint256",
          "name": "",
          "type": "uint256"
        }
      ],
      "stateMutability": "view",
      "type": "function"
    },
    {
      "inputs": [],
      "name": "BOOTSTRAP_PERIOD",
      "outputs": [
        {
          "internalType": "uint256",
          "name": "",
          "type": "uint256"
        }
      ],
      "stateMutability": "view",
      "type": "function"
    },
    {
      "inputs": [],
      "name": "BORROWING_FEE_FLOOR",
      "outputs": [
        {
          "internalType": "uint256",
          "name": "",
          "type": "uint256"
        }
      ],
      "stateMutability": "view",
      "type": "function"
    },
    {
      "inputs": [],
      "name": "BaseFeeLMA_GAS_COMPENSATION",
      "outputs": [
        {
          "internalType": "uint256",
          "name": "",
          "type": "uint256"
        }
      ],
      "stateMutability": "view",
      "type": "function"
    },
    {
      "inputs": [],
      "name": "CCR",
      "outputs": [
        {
          "internalType": "uint256",
          "name": "",
          "type": "uint256"
        }
      ],
      "stateMutability": "view",
      "type": "function"
    },
    {
      "inputs": [],
      "name": "DECIMAL_PRECISION",
      "outputs": [
        {
          "internalType": "uint256",
          "name": "",
          "type": "uint256"
        }
      ],
      "stateMutability": "view",
      "type": "function"
    },
    {
      "inputs": [],
      "name": "L_BaseFeeLMADebt",
      "outputs": [
        {
          "internalType": "uint256",
          "name": "",
          "type": "uint256"
        }
      ],
      "stateMutability": "view",
      "type": "function"
    },
    {
      "inputs": [],
      "name": "L_StETH",
      "outputs": [
        {
          "internalType": "uint256",
          "name": "",
          "type": "uint256"
        }
      ],
      "stateMutability": "view",
      "type": "function"
    },
    {
      "inputs": [],
      "name": "MAX_BORROWING_FEE",
      "outputs": [
        {
          "internalType": "uint256",
          "name": "",
          "type": "uint256"
        }
      ],
      "stateMutability": "view",
      "type": "function"
    },
    {
      "inputs": [],
      "name": "MCR",
      "outputs": [
        {
          "internalType": "uint256",
          "name": "",
          "type": "uint256"
        }
      ],
      "stateMutability": "view",
      "type": "function"
    },
    {
      "inputs": [],
      "name": "MINUTE_DECAY_FACTOR",
      "outputs": [
        {
          "internalType": "uint256",
          "name": "",
          "type": "uint256"
        }
      ],
      "stateMutability": "view",
      "type": "function"
    },
    {
      "inputs": [],
      "name": "MIN_NET_DEBT",
      "outputs": [
        {
          "internalType": "uint256",
          "name": "",
          "type": "uint256"
        }
      ],
      "stateMutability": "view",
      "type": "function"
    },
    {
      "inputs": [],
      "name": "NAME",
      "outputs": [
        {
          "internalType": "string",
          "name": "",
          "type": "string"
        }
      ],
      "stateMutability": "view",
      "type": "function"
    },
    {
      "inputs": [],
      "name": "PERCENT_DIVISOR",
      "outputs": [
        {
          "internalType": "uint256",
          "name": "",
          "type": "uint256"
        }
      ],
      "stateMutability": "view",
      "type": "function"
    },
    {
      "inputs": [],
      "name": "REDEMPTION_FEE_FLOOR",
      "outputs": [
        {
          "internalType": "uint256",
          "name": "",
          "type": "uint256"
        }
      ],
      "stateMutability": "view",
      "type": "function"
    },
    {
      "inputs": [],
      "name": "SECONDS_IN_ONE_MINUTE",
      "outputs": [
        {
          "internalType": "uint256",
          "name": "",
          "type": "uint256"
        }
      ],
      "stateMutability": "view",
      "type": "function"
    },
    {
      "inputs": [
        {
          "internalType": "uint256",
          "name": "",
          "type": "uint256"
        }
      ],
      "name": "TroveOwners",
      "outputs": [
        {
          "internalType": "address",
          "name": "",
          "type": "address"
        }
      ],
      "stateMutability": "view",
      "type": "function"
    },
    {
      "inputs": [
        {
          "internalType": "address",
          "name": "",
          "type": "address"
        }
      ],
      "name": "Troves",
      "outputs": [
        {
          "internalType": "uint256",
          "name": "debt",
          "type": "uint256"
        },
        {
          "internalType": "uint256",
          "name": "coll",
          "type": "uint256"
        },
        {
          "internalType": "uint256",
          "name": "stake",
          "type": "uint256"
        },
        {
          "internalType": "enum TroveManager.Status",
          "name": "status",
          "type": "uint8"
        },
        {
          "internalType": "uint128",
          "name": "arrayIndex",
          "type": "uint128"
        }
      ],
      "stateMutability": "view",
      "type": "function"
    },
    {
      "inputs": [],
      "name": "_100pct",
      "outputs": [
        {
          "internalType": "uint256",
          "name": "",
          "type": "uint256"
        }
      ],
      "stateMutability": "view",
      "type": "function"
    },
    {
      "inputs": [],
      "name": "activePool",
      "outputs": [
        {
          "internalType": "contract IActivePool",
          "name": "",
          "type": "address"
        }
      ],
      "stateMutability": "view",
      "type": "function"
    },
    {
      "inputs": [
        {
          "internalType": "address",
          "name": "_borrower",
          "type": "address"
        }
      ],
      "name": "addTroveOwnerToArray",
      "outputs": [
        {
          "internalType": "uint256",
          "name": "index",
          "type": "uint256"
        }
      ],
      "stateMutability": "nonpayable",
      "type": "function"
    },
    {
      "inputs": [
        {
          "internalType": "address",
          "name": "_borrower",
          "type": "address"
        }
      ],
      "name": "applyPendingRewards",
      "outputs": [],
      "stateMutability": "nonpayable",
      "type": "function"
    },
    {
      "inputs": [],
      "name": "baseFeeLMAToken",
      "outputs": [
        {
          "internalType": "contract IBaseFeeLMAToken",
          "name": "",
          "type": "address"
        }
      ],
      "stateMutability": "view",
      "type": "function"
    },
    {
      "inputs": [
        {
          "internalType": "address[]",
          "name": "_troveArray",
          "type": "address[]"
        }
      ],
      "name": "batchLiquidateTroves",
      "outputs": [],
      "stateMutability": "nonpayable",
      "type": "function"
    },
    {
      "inputs": [],
      "name": "borrowBaseRate",
      "outputs": [
        {
          "internalType": "uint256",
          "name": "",
          "type": "uint256"
        }
      ],
      "stateMutability": "view",
      "type": "function"
    },
    {
      "inputs": [],
      "name": "borrowerOperationsAddress",
      "outputs": [
        {
          "internalType": "address",
          "name": "",
          "type": "address"
        }
      ],
      "stateMutability": "view",
      "type": "function"
    },
    {
      "inputs": [
        {
          "internalType": "uint256",
          "name": "_price",
          "type": "uint256"
        }
      ],
      "name": "checkRecoveryMode",
      "outputs": [
        {
          "internalType": "bool",
          "name": "",
          "type": "bool"
        }
      ],
      "stateMutability": "view",
      "type": "function"
    },
    {
      "inputs": [],
      "name": "checkUnreliableRecoveryMode",
      "outputs": [
        {
          "internalType": "bool",
          "name": "",
          "type": "bool"
        }
      ],
      "stateMutability": "view",
      "type": "function"
    },
    {
      "inputs": [
        {
          "internalType": "address",
          "name": "_borrower",
          "type": "address"
        }
      ],
      "name": "closeTrove",
      "outputs": [],
      "stateMutability": "nonpayable",
      "type": "function"
    },
    {
      "inputs": [],
      "name": "decayBaseRateFromBorrowing",
      "outputs": [],
      "stateMutability": "nonpayable",
      "type": "function"
    },
    {
      "inputs": [
        {
          "internalType": "address",
          "name": "_borrower",
          "type": "address"
        },
        {
          "internalType": "uint256",
          "name": "_collDecrease",
          "type": "uint256"
        }
      ],
      "name": "decreaseTroveColl",
      "outputs": [
        {
          "internalType": "uint256",
          "name": "",
          "type": "uint256"
        }
      ],
      "stateMutability": "nonpayable",
      "type": "function"
    },
    {
      "inputs": [
        {
          "internalType": "address",
          "name": "_borrower",
          "type": "address"
        },
        {
          "internalType": "uint256",
          "name": "_debtDecrease",
          "type": "uint256"
        }
      ],
      "name": "decreaseTroveDebt",
      "outputs": [
        {
          "internalType": "uint256",
          "name": "",
          "type": "uint256"
        }
      ],
      "stateMutability": "nonpayable",
      "type": "function"
    },
    {
      "inputs": [],
      "name": "defaultPool",
      "outputs": [
        {
          "internalType": "contract IDefaultPool",
          "name": "",
          "type": "address"
        }
      ],
      "stateMutability": "view",
      "type": "function"
    },
    {
      "inputs": [
        {
          "internalType": "uint256",
          "name": "_BaseFeeLMADebt",
          "type": "uint256"
        }
      ],
      "name": "getBorrowingFee",
      "outputs": [
        {
          "internalType": "uint256",
          "name": "",
          "type": "uint256"
        }
      ],
      "stateMutability": "view",
      "type": "function"
    },
    {
      "inputs": [
        {
          "internalType": "uint256",
          "name": "_BaseFeeLMADebt",
          "type": "uint256"
        }
      ],
      "name": "getBorrowingFeeWithDecay",
      "outputs": [
        {
          "internalType": "uint256",
          "name": "",
          "type": "uint256"
        }
      ],
      "stateMutability": "view",
      "type": "function"
    },
    {
      "inputs": [
        {
          "internalType": "uint256",
          "name": "_issuedBaseFeeLMA",
          "type": "uint256"
        }
      ],
      "name": "getBorrowingRate",
      "outputs": [
        {
          "internalType": "uint256",
          "name": "",
          "type": "uint256"
        }
      ],
      "stateMutability": "view",
      "type": "function"
    },
    {
      "inputs": [
        {
          "internalType": "uint256",
          "name": "_issuedBaseFeeLMA",
          "type": "uint256"
        }
      ],
      "name": "getBorrowingRateWithDecay",
      "outputs": [
        {
          "internalType": "uint256",
          "name": "",
          "type": "uint256"
        }
      ],
      "stateMutability": "view",
      "type": "function"
    },
    {
      "inputs": [
        {
          "internalType": "address",
          "name": "_borrower",
          "type": "address"
        },
        {
          "internalType": "uint256",
          "name": "_price",
          "type": "uint256"
        }
      ],
      "name": "getCurrentICR",
      "outputs": [
        {
          "internalType": "uint256",
          "name": "",
          "type": "uint256"
        }
      ],
      "stateMutability": "view",
      "type": "function"
    },
    {
      "inputs": [
        {
          "internalType": "address",
          "name": "_borrower",
          "type": "address"
        }
      ],
      "name": "getEntireDebtAndColl",
      "outputs": [
        {
          "internalType": "uint256",
          "name": "debt",
          "type": "uint256"
        },
        {
          "internalType": "uint256",
          "name": "coll",
          "type": "uint256"
        },
        {
          "internalType": "uint256",
          "name": "pendingBaseFeeLMADebtReward",
          "type": "uint256"
        },
        {
          "internalType": "uint256",
          "name": "pendingStETHReward",
          "type": "uint256"
        }
      ],
      "stateMutability": "view",
      "type": "function"
    },
    {
      "inputs": [],
      "name": "getEntireSystemColl",
      "outputs": [
        {
          "internalType": "uint256",
          "name": "entireSystemColl",
          "type": "uint256"
        }
      ],
      "stateMutability": "view",
      "type": "function"
    },
    {
      "inputs": [],
      "name": "getEntireSystemDebt",
      "outputs": [
        {
          "internalType": "uint256",
          "name": "entireSystemDebt",
          "type": "uint256"
        }
      ],
      "stateMutability": "view",
      "type": "function"
    },
    {
      "inputs": [
        {
          "internalType": "address",
          "name": "_borrower",
          "type": "address"
        }
      ],
      "name": "getNominalICR",
      "outputs": [
        {
          "internalType": "uint256",
          "name": "",
          "type": "uint256"
        }
      ],
      "stateMutability": "view",
      "type": "function"
    },
    {
      "inputs": [
        {
          "internalType": "uint256",
          "name": "_coll",
          "type": "uint256"
        },
        {
          "internalType": "uint256",
          "name": "_debt",
          "type": "uint256"
        }
      ],
      "name": "getNormalLiquidationPrice",
      "outputs": [
        {
          "internalType": "uint256",
          "name": "",
          "type": "uint256"
        }
      ],
      "stateMutability": "pure",
      "type": "function"
    },
    {
      "inputs": [
        {
          "internalType": "address",
          "name": "_borrower",
          "type": "address"
        }
      ],
      "name": "getPendingBaseFeeLMADebtReward",
      "outputs": [
        {
          "internalType": "uint256",
          "name": "",
          "type": "uint256"
        }
      ],
      "stateMutability": "view",
      "type": "function"
    },
    {
      "inputs": [
        {
          "internalType": "address",
          "name": "_borrower",
          "type": "address"
        }
      ],
      "name": "getPendingStETHReward",
      "outputs": [
        {
          "internalType": "uint256",
          "name": "",
          "type": "uint256"
        }
      ],
      "stateMutability": "view",
      "type": "function"
    },
    {
      "inputs": [
        {
          "internalType": "uint256",
          "name": "_coll",
          "type": "uint256"
        },
        {
          "internalType": "uint256",
          "name": "_debt",
          "type": "uint256"
        }
      ],
      "name": "getRecoveryLiquidationPrice",
      "outputs": [
        {
          "internalType": "uint256",
          "name": "",
          "type": "uint256"
        }
      ],
      "stateMutability": "pure",
      "type": "function"
    },
    {
      "inputs": [
        {
          "internalType": "uint256",
          "name": "_StETHDrawn",
          "type": "uint256"
        }
      ],
      "name": "getRedemptionFeeWithDecay",
      "outputs": [
        {
          "internalType": "uint256",
          "name": "",
          "type": "uint256"
        }
      ],
      "stateMutability": "view",
      "type": "function"
    },
    {
      "inputs": [
        {
          "internalType": "uint256",
          "name": "_redemptionColl",
          "type": "uint256"
        }
      ],
      "name": "getRedemptionRate",
      "outputs": [
        {
          "internalType": "uint256",
          "name": "",
          "type": "uint256"
        }
      ],
      "stateMutability": "view",
      "type": "function"
    },
    {
      "inputs": [
        {
          "internalType": "uint256",
          "name": "_redemptionColl",
          "type": "uint256"
        }
      ],
      "name": "getRedemptionRateWithDecay",
      "outputs": [
        {
          "internalType": "uint256",
          "name": "",
          "type": "uint256"
        }
      ],
      "stateMutability": "view",
      "type": "function"
    },
    {
      "inputs": [
        {
          "internalType": "uint256",
          "name": "_price",
          "type": "uint256"
        }
      ],
      "name": "getTCR",
      "outputs": [
        {
          "internalType": "uint256",
          "name": "",
          "type": "uint256"
        }
      ],
      "stateMutability": "view",
      "type": "function"
    },
    {
      "inputs": [
        {
          "internalType": "address",
          "name": "_borrower",
          "type": "address"
        }
      ],
      "name": "getTroveColl",
      "outputs": [
        {
          "internalType": "uint256",
          "name": "",
          "type": "uint256"
        }
      ],
      "stateMutability": "view",
      "type": "function"
    },
    {
      "inputs": [
        {
          "internalType": "address",
          "name": "_borrower",
          "type": "address"
        }
      ],
      "name": "getTroveDebt",
      "outputs": [
        {
          "internalType": "uint256",
          "name": "",
          "type": "uint256"
        }
      ],
      "stateMutability": "view",
      "type": "function"
    },
    {
      "inputs": [
        {
          "internalType": "uint256",
          "name": "_index",
          "type": "uint256"
        }
      ],
      "name": "getTroveFromTroveOwnersArray",
      "outputs": [
        {
          "internalType": "address",
          "name": "",
          "type": "address"
        }
      ],
      "stateMutability": "view",
      "type": "function"
    },
    {
      "inputs": [],
      "name": "getTroveOwnersCount",
      "outputs": [
        {
          "internalType": "uint256",
          "name": "",
          "type": "uint256"
        }
      ],
      "stateMutability": "view",
      "type": "function"
    },
    {
      "inputs": [
        {
          "internalType": "address",
          "name": "_borrower",
          "type": "address"
        }
      ],
      "name": "getTroveStake",
      "outputs": [
        {
          "internalType": "uint256",
          "name": "",
          "type": "uint256"
        }
      ],
      "stateMutability": "view",
      "type": "function"
    },
    {
      "inputs": [
        {
          "internalType": "address",
          "name": "_borrower",
          "type": "address"
        }
      ],
      "name": "getTroveStatus",
      "outputs": [
        {
          "internalType": "uint256",
          "name": "",
          "type": "uint256"
        }
      ],
      "stateMutability": "view",
      "type": "function"
    },
    {
      "inputs": [],
      "name": "getUnreliableTCR",
      "outputs": [
        {
          "internalType": "uint256",
          "name": "",
          "type": "uint256"
        }
      ],
      "stateMutability": "view",
      "type": "function"
    },
    {
      "inputs": [
        {
          "internalType": "address",
          "name": "_borrower",
          "type": "address"
        }
      ],
      "name": "getUnreliableTroveICR",
      "outputs": [
        {
          "internalType": "uint256",
          "name": "",
          "type": "uint256"
        }
      ],
      "stateMutability": "view",
      "type": "function"
    },
    {
      "inputs": [
        {
          "internalType": "address",
          "name": "_borrower",
          "type": "address"
        }
      ],
      "name": "hasPendingRewards",
      "outputs": [
        {
          "internalType": "bool",
          "name": "",
          "type": "bool"
        }
      ],
      "stateMutability": "view",
      "type": "function"
    },
    {
      "inputs": [],
      "name": "hogStaking",
      "outputs": [
        {
          "internalType": "contract IHOGStaking",
          "name": "",
          "type": "address"
        }
      ],
      "stateMutability": "view",
      "type": "function"
    },
    {
      "inputs": [],
      "name": "hogToken",
      "outputs": [
        {
          "internalType": "contract IHOGToken",
          "name": "",
          "type": "address"
        }
      ],
      "stateMutability": "view",
      "type": "function"
    },
    {
      "inputs": [
        {
          "internalType": "address",
          "name": "_borrower",
          "type": "address"
        },
        {
          "internalType": "uint256",
          "name": "_collIncrease",
          "type": "uint256"
        }
      ],
      "name": "increaseTroveColl",
      "outputs": [
        {
          "internalType": "uint256",
          "name": "",
          "type": "uint256"
        }
      ],
      "stateMutability": "nonpayable",
      "type": "function"
    },
    {
      "inputs": [
        {
          "internalType": "address",
          "name": "_borrower",
          "type": "address"
        },
        {
          "internalType": "uint256",
          "name": "_debtIncrease",
          "type": "uint256"
        }
      ],
      "name": "increaseTroveDebt",
      "outputs": [
        {
          "internalType": "uint256",
          "name": "",
          "type": "uint256"
        }
      ],
      "stateMutability": "nonpayable",
      "type": "function"
    },
    {
      "inputs": [],
      "name": "lastBaseFeeLMADebtError_Redistribution",
      "outputs": [
        {
          "internalType": "uint256",
          "name": "",
          "type": "uint256"
        }
      ],
      "stateMutability": "view",
      "type": "function"
    },
    {
      "inputs": [],
      "name": "lastBorrowTime",
      "outputs": [
        {
          "internalType": "uint256",
          "name": "",
          "type": "uint256"
        }
      ],
      "stateMutability": "view",
      "type": "function"
    },
    {
      "inputs": [],
      "name": "lastRedemptionTime",
      "outputs": [
        {
          "internalType": "uint256",
          "name": "",
          "type": "uint256"
        }
      ],
      "stateMutability": "view",
      "type": "function"
    },
    {
      "inputs": [],
      "name": "lastStETHError_Redistribution",
      "outputs": [
        {
          "internalType": "uint256",
          "name": "",
          "type": "uint256"
        }
      ],
      "stateMutability": "view",
      "type": "function"
    },
    {
      "inputs": [
        {
          "internalType": "address",
          "name": "_borrower",
          "type": "address"
        }
      ],
      "name": "liquidate",
      "outputs": [],
      "stateMutability": "nonpayable",
      "type": "function"
    },
    {
      "inputs": [
        {
          "internalType": "uint256",
          "name": "_n",
          "type": "uint256"
        }
      ],
      "name": "liquidateTroves",
      "outputs": [],
      "stateMutability": "nonpayable",
      "type": "function"
    },
    {
      "inputs": [],
      "name": "owner",
      "outputs": [
        {
          "internalType": "address",
          "name": "",
          "type": "address"
        }
      ],
      "stateMutability": "view",
      "type": "function"
    },
    {
      "inputs": [],
      "name": "priceFeed",
      "outputs": [
        {
          "internalType": "contract IPriceFeed",
          "name": "",
          "type": "address"
        }
      ],
      "stateMutability": "view",
      "type": "function"
    },
    {
      "inputs": [
        {
          "internalType": "uint256",
          "name": "_BaseFeeLMAamount",
          "type": "uint256"
        },
        {
          "internalType": "address",
          "name": "_firstRedemptionHint",
          "type": "address"
        },
        {
          "internalType": "address",
          "name": "_upperPartialRedemptionHint",
          "type": "address"
        },
        {
          "internalType": "address",
          "name": "_lowerPartialRedemptionHint",
          "type": "address"
        },
        {
          "internalType": "uint256",
          "name": "_partialRedemptionHintNICR",
          "type": "uint256"
        },
        {
          "internalType": "uint256",
          "name": "_maxIterations",
          "type": "uint256"
        },
        {
          "internalType": "uint256",
          "name": "_maxFeePercentage",
          "type": "uint256"
        }
      ],
      "name": "redeemCollateral",
      "outputs": [],
      "stateMutability": "nonpayable",
      "type": "function"
    },
    {
      "inputs": [],
      "name": "redemptionBaseRate",
      "outputs": [
        {
          "internalType": "uint256",
          "name": "",
          "type": "uint256"
        }
      ],
      "stateMutability": "view",
      "type": "function"
    },
    {
      "inputs": [
        {
          "internalType": "address",
          "name": "_borrower",
          "type": "address"
        }
      ],
      "name": "removeStake",
      "outputs": [],
      "stateMutability": "nonpayable",
      "type": "function"
    },
    {
      "inputs": [],
      "name": "renounceOwnership",
      "outputs": [],
      "stateMutability": "nonpayable",
      "type": "function"
    },
    {
      "inputs": [
        {
          "internalType": "address",
          "name": "",
          "type": "address"
        }
      ],
      "name": "rewardSnapshots",
      "outputs": [
        {
          "internalType": "uint256",
          "name": "StETH",
          "type": "uint256"
        },
        {
          "internalType": "uint256",
          "name": "BaseFeeLMADebt",
          "type": "uint256"
        }
      ],
      "stateMutability": "view",
      "type": "function"
    },
    {
      "inputs": [
        {
          "internalType": "address",
          "name": "_borrowerOperationsAddress",
          "type": "address"
        },
        {
          "internalType": "address",
          "name": "_activePoolAddress",
          "type": "address"
        },
        {
          "internalType": "address",
          "name": "_defaultPoolAddress",
          "type": "address"
        },
        {
          "internalType": "address",
          "name": "_stabilityPoolAddress",
          "type": "address"
        },
        {
          "internalType": "address",
          "name": "_gasPoolAddress",
          "type": "address"
        },
        {
          "internalType": "address",
          "name": "_collSurplusPoolAddress",
          "type": "address"
        },
        {
          "internalType": "address",
          "name": "_priceFeedAddress",
          "type": "address"
        },
        {
          "internalType": "address",
          "name": "_baseFeeLMATokenAddress",
          "type": "address"
        },
        {
          "internalType": "address",
          "name": "_sortedTrovesAddress",
          "type": "address"
        },
        {
          "internalType": "address",
          "name": "_hogTokenAddress",
          "type": "address"
        },
        {
          "internalType": "address",
          "name": "_hogStakingAddress",
          "type": "address"
        }
      ],
      "name": "setAddresses",
      "outputs": [],
      "stateMutability": "nonpayable",
      "type": "function"
    },
    {
      "inputs": [
        {
          "internalType": "address",
          "name": "_borrower",
          "type": "address"
        },
        {
          "internalType": "uint256",
          "name": "_num",
          "type": "uint256"
        }
      ],
      "name": "setTroveStatus",
      "outputs": [],
      "stateMutability": "nonpayable",
      "type": "function"
    },
    {
      "inputs": [],
      "name": "sortedTroves",
      "outputs": [
        {
          "internalType": "contract ISortedTroves",
          "name": "",
          "type": "address"
        }
      ],
      "stateMutability": "view",
      "type": "function"
    },
    {
      "inputs": [],
      "name": "stabilityPool",
      "outputs": [
        {
          "internalType": "contract IStabilityPool",
          "name": "",
          "type": "address"
        }
      ],
      "stateMutability": "view",
      "type": "function"
    },
    {
      "inputs": [],
      "name": "totalCollateralSnapshot",
      "outputs": [
        {
          "internalType": "uint256",
          "name": "",
          "type": "uint256"
        }
      ],
      "stateMutability": "view",
      "type": "function"
    },
    {
      "inputs": [],
      "name": "totalStakes",
      "outputs": [
        {
          "internalType": "uint256",
          "name": "",
          "type": "uint256"
        }
      ],
      "stateMutability": "view",
      "type": "function"
    },
    {
      "inputs": [],
      "name": "totalStakesSnapshot",
      "outputs": [
        {
          "internalType": "uint256",
          "name": "",
          "type": "uint256"
        }
      ],
      "stateMutability": "view",
      "type": "function"
    },
    {
      "inputs": [
        {
          "internalType": "address",
          "name": "newOwner",
          "type": "address"
        }
      ],
      "name": "transferOwnership",
      "outputs": [],
      "stateMutability": "nonpayable",
      "type": "function"
    },
    {
      "inputs": [
        {
          "internalType": "address",
          "name": "_borrower",
          "type": "address"
        }
      ],
      "name": "updateStakeAndTotalStakes",
      "outputs": [
        {
          "internalType": "uint256",
          "name": "",
          "type": "uint256"
        }
      ],
      "stateMutability": "nonpayable",
      "type": "function"
    },
    {
      "inputs": [
        {
          "internalType": "address",
          "name": "_borrower",
          "type": "address"
        }
      ],
      "name": "updateTroveRewardSnapshots",
      "outputs": [],
      "stateMutability": "nonpayable",
      "type": "function"
    }
  ],
  "transactionHash": "0x0c0571305688c581615eff6ed85bf72fd1d9aff20945efd36821169b788bfeea",
  "args": [],
  "numDeployments": 2,
  "solcInputHash": "632455190d73eb67a9fd17ecc8158479",
  "bytecode": "0x60806040523480156200001157600080fd5b506200001d3362000023565b62000075565b600380546001600160a01b038381166001600160a01b0319831681179093556040519116919082907f8be0079c531659141344cd1fd0a4f28419497f9722a3daafe3b4186f6b6457e090600090a35050565b615c8280620000856000396000f3fe608060405234801561001057600080fd5b50600436106104c25760003560e01c8063807d138d11610278578063bb6f030c1161015c578063d3d6f843116100ce578063e1f787e911610092578063e1f787e914610ab2578063e2ac77b014610aba578063e324634914610acd578063f2fde38b14610ad6578063f92d3433146105e9578063fe2ba84814610ae957600080fd5b8063d3d6f84314610a3d578063d5b3563514610a50578063d66a255314610a63578063d696629714610a8c578063d9a7244414610a9f57600080fd5b8063c35bc55011610120578063c35bc550146109ec578063c3eb5c67146109f6578063c7b55481146109ff578063c91a7e2f14610a0e578063cbd138ae14610a17578063d293c71014610a2a57600080fd5b8063bb6f030c146109b5578063bcd37526146109be578063bf9befb1146109d1578063bf9ebee2146109da578063c26c8800146109e357600080fd5b8063a2014152116101f5578063aead9dcc116101b9578063aead9dcc14610923578063b0d8e18114610936578063b36cd07f14610949578063b7f8cf9b1461095c578063b82f263d1461096f578063b91af97c1461098257600080fd5b8063a2014152146108bc578063a20baee6146105da578063a22b7d68146108c5578063a3f4df7e146108d8578063ae9187541461091057600080fd5b8063900e664b1161023c578063900e664b14610871578063948ba6d21461087a57806396d711ff1461088d578063981c4f48146108965780639976cf45146108a957600080fd5b8063807d138d1461082957806382fe3eb914610832578063887105d3146108455780638da5cb5b1461084d5780638f9137891461085e57600080fd5b806349eefeee116103aa5780636ef643381161031c578063741bef1a116102e0578063741bef1a146107d5578063756b253e146107e8578063794e5724146106c2578063795d26c3146107fb5780637985c5e4146108035780637f7dde4a1461081657600080fd5b80636ef6433814610759578063715018a6146107b257806371f256e2146107ba57806372423c17146107c257806372fe25aa146105da57600080fd5b80635d6b480f1161036e5780635d6b480f146106e45780635dba4c4a146106f757806361ec893d146106ff578063631203b01461070757806364cee2601461071a578063653d46e71461074657600080fd5b806349eefeee146106845780634e443d9e1461068c578063570dc45e146106af5780635733d58f146106c257806358b8a5d6146106d157600080fd5b80631e8b1c2b116104435780632f865568116104075780632f865568146106045780633cc742251461061757806347142aa31461062a578063477d66cf1461063d578063480cd578146106505780634870dd9a1461067c57600080fd5b80631e8b1c2b146105b457806321e37801146105c757806324092669146105da57806328d28b5b146105e95780632d81dd56146105f157600080fd5b806315d549f11161048a57806315d549f1146105415780631673c79a1461055457806318f2817a146105905780631b199a64146105a35780631bf43555146105ac57600080fd5b8063048c661d146104c7578063071a7541146104f05780630b076557146105065780630c08ff5f1461051b57806312610e921461052e575b600080fd5b6005546104da906001600160a01b031681565b6040516104e7919061564a565b60405180910390f35b6104f8600281565b6040519081526020016104e7565b610519610514366004615683565b610afc565b005b6104f8610529366004615683565b610b24565b6104f861053c3660046156a0565b610be0565b6104f861054f366004615683565b610c32565b61057b610562366004615683565b6016602052600090815260409020805460019091015482565b604080519283526020830191909152016104e7565b6104f861059e366004615683565b610c54565b6104f860195481565b6104f8600181565b6105196105c23660046156e2565b610c67565b6104f86105d5366004615683565b611009565b6104f8670de0b6b3a764000081565b6104f8611039565b6104f86105ff3660046157a7565b61105b565b610519610612366004615683565b61107b565b6001546104da906001600160a01b031681565b6104f86106383660046157a7565b6110e7565b6104f861064b3660046157c9565b6110ff565b6104f861065e366004615683565b6001600160a01b031660009081526010602052604090206001015490565b6104f860c881565b6017546104f8565b61069f61069a3660046157c9565b611113565b60405190151581526020016104e7565b6009546104da906001600160a01b031681565b6104f86714d1120d7b16000081565b6104f86106df3660046157c9565b61111e565b6105196106f23660046156a0565b61112c565b610519611184565b6104f8603c81565b6104f86107153660046157c9565b6111f0565b6104f8610728366004615683565b6001600160a01b031660009081526010602052604090206002015490565b6105196107543660046157c9565b6111fe565b6107a1610767366004615683565b60106020526000908152604090208054600182015460028301546003909301549192909160ff81169061010090046001600160801b031685565b6040516104e79594939291906157f8565b61051961156f565b61069f611583565b6104f86107d03660046156a0565b611609565b6002546104da906001600160a01b031681565b6104da6107f63660046157c9565b611660565b6104f861168a565b61051961081136600461583e565b611786565b6000546104da906001600160a01b031681565b6104f860125481565b610519610840366004615683565b611b02565b6104f8611b13565b6003546001600160a01b03166104da565b6008546104da906001600160a01b031681565b6104f860155481565b6104f86108883660046157c9565b611bd8565b6104f860135481565b6104f86108a4366004615683565b611beb565b6104f86108b73660046156a0565b611c13565b6104f861c35081565b6104f86108d33660046157c9565b611c40565b6109036040518060400160405280600c81526020016b2a3937bb32a6b0b730b3b2b960a11b81525081565b6040516104e79190615962565b600b546104da906001600160a01b031681565b600a546104da906001600160a01b031681565b6104f8610944366004615683565b611c53565b6104f86109573660046157c9565b611c7a565b6004546104da906001600160a01b031681565b6104f861097d3660046157c9565b611c88565b610995610990366004615683565b611c93565b6040805194855260208501939093529183015260608201526080016104e7565b6104f8600c5481565b6105196109cc366004615975565b611ceb565b6104f860115481565b6104f860145481565b6104f8600f5481565b6104f86212750081565b6104f8600d5481565b6104f8670ddd4b8c6c7d70d881565b6104f860185481565b610519610a25366004615683565b612473565b6104f8610a383660046156a0565b612486565b6104f8610a4b3660046156a0565b6124a5565b6104f8610a5e3660046157c9565b6124d5565b6104f8610a71366004615683565b6001600160a01b031660009081526010602052604090205490565b6104f8610a9a366004615683565b6124e9565b6104da610aad3660046157c9565b612582565b6104f86125b2565b61069f610ac8366004615683565b612633565b6104f8600e5481565b610519610ae4366004615683565b612696565b610519610af7366004615683565b61270c565b610b0461271d565b600054600154610b21916001600160a01b0390811691168361279d565b50565b6001600160a01b0381166000908152601660205260408120600101546015548290610b4f90836128a3565b9050801580610b8e575060016001600160a01b03851660009081526010602052604090206003015460ff166004811115610b8b57610b8b6157e2565b14155b15610b9d575060009392505050565b6001600160a01b03841660009081526010602052604081206002015490610bd6670de0b6b3a7640000610bd084866128b6565b906128c2565b9695505050505050565b6000610bea61271d565b6001600160a01b038316600090815260106020526040812054610c0d90846128a3565b6001600160a01b03851660009081526010602052604090208190559150505b92915050565b6000610c3c61271d565b610c45826128ce565b6001600160801b031692915050565b6000610c5e61271d565b610c2c82612968565b8051600003610cdc5760405162461bcd60e51b815260206004820152603660248201527f54726f76654d616e616765723a2043616c6c646174612061646472657373206160448201527572726179206d757374206e6f7420626520656d70747960501b60648201526084015b60405180910390fd5b6000546001546005546001600160a01b03928316929182169116610cfe615585565b610d066155b6565b600260009054906101000a90046001600160a01b03166001600160a01b0316630fdb11cf6040518163ffffffff1660e01b81526004016020604051808303816000875af1158015610d5b573d6000803e3d6000fd5b505050506040513d601f19601f82011682018060405250810190610d7f91906159e3565b826000018181525050826001600160a01b031663488df0fc6040518163ffffffff1660e01b8152600401602060405180830381865afa158015610dc6573d6000803e3d6000fd5b505050506040513d601f19601f82011682018060405250810190610dea91906159e3565b60208301528151610dfa90612a0c565b1580156040840152610e2257610e1b8585846000015185602001518a612a29565b9050610e3a565b610e378585846000015185602001518a612c50565b90505b6000816020015111610e5e5760405162461bcd60e51b8152600401610cd3906159fc565b608081015160a082015160405163335525ad60e01b81526001600160a01b0386169263335525ad92610e9b92600401918252602082015260400190565b600060405180830381600087803b158015610eb557600080fd5b505af1158015610ec9573d6000803e3d6000fd5b50505050610ee185858360c001518460e00151612d20565b61010081015115610f585760075461010082015160405163a51ba3b760e01b81526001600160a01b038881169363a51ba3b793610f25939290911691600401615a3e565b600060405180830381600087803b158015610f3f57600080fd5b505af1158015610f53573d6000803e3d6000fd5b505050505b610f66858260400151612f5b565b6020810151606083015261010081015160408201518251610f929291610f8c91906128a3565b906128a3565b6080838101829052606080850151604085810151868401518251938452602084019690965290820152908101929092527f4152c73dd2614c4f9fc35e8c9cf16013cd588c75b49a4c1673ecffdcbcda9403910160405180910390a161100185338360600151846040015161309f565b505050505050565b6001600160a01b03811660009081526010602052604081206003015460ff166004811115610c2c57610c2c6157e2565b61104d6103e8670de0b6b3a7640000615a83565b611058906005615a97565b81565b60008061107384846014670de0b6b3a7640000613182565b949350505050565b6110848161328d565b6040805160018082528183019092526000916020808301908036833701905050905081816000815181106110ba576110ba615aae565b60200260200101906001600160a01b031690816001600160a01b0316815250506110e381610c67565b5050565b600080611073848460146714d1120d7b160000613182565b6000610c2c61110d83611bd8565b83613324565b6000610c2c82612a0c565b6000610c2c600c548361333c565b61113461271d565b806004811115611146576111466157e2565b6001600160a01b0383166000908152601060205260409020600301805460ff1916600183600481111561117b5761117b6157e2565b02179055505050565b61118c61271d565b60006111966133f4565b9050670de0b6b3a76400008111156111b0576111b0615ac4565b600d8190556040518181527fca870d46d67e9a1444a6b8f97a147e06e4cf71ee2a0f172d7ecd5441ae7c12019060200160405180910390a1610b21613438565b6000610c2c61110d83611c7a565b6040805160e081018252600080546001600160a01b0390811683526001548116602084015292820181905260608201819052600b548316608083015260a0820181905260c0820152600554909116611254615585565b61125c6155b6565b600260009054906101000a90046001600160a01b03166001600160a01b0316630fdb11cf6040518163ffffffff1660e01b81526004016020604051808303816000875af11580156112b1573d6000803e3d6000fd5b505050506040513d601f19601f820116820180604052508101906112d591906159e3565b826000018181525050826001600160a01b031663488df0fc6040518163ffffffff1660e01b8152600401602060405180830381865afa15801561131c573d6000803e3d6000fd5b505050506040513d601f19601f8201168201806040525081019061134091906159e3565b6020830152815161135090612a0c565b158015604084015261137757611370848360000151846020015188613496565b9050611397565b611394846000015185602001518460000151856020015189613814565b90505b60008160200151116113bb5760405162461bcd60e51b8152600401610cd3906159fc565b608081015160a082015160405163335525ad60e01b81526001600160a01b0386169263335525ad926113f892600401918252602082015260400190565b600060405180830381600087803b15801561141257600080fd5b505af1158015611426573d6000803e3d6000fd5b50505050611446846000015185602001518360c001518460e00151612d20565b610100810151156114bd57835160075461010083015160405163a51ba3b760e01b81526001600160a01b039384169363a51ba3b79361148a93911691600401615a3e565b600060405180830381600087803b1580156114a457600080fd5b505af11580156114b8573d6000803e3d6000fd5b505050505b6114cf84600001518260400151612f5b565b60208101516060830152610100810151604082015182516114f59291610f8c91906128a3565b6080838101829052606080850151604085810151868401518251938452602084019690965290820152908101929092527f4152c73dd2614c4f9fc35e8c9cf16013cd588c75b49a4c1673ecffdcbcda9403910160405180910390a16115688460000151338360600151846040015161309f565b5050505050565b611577613945565b611581600061399f565b565b6000611604600260009054906101000a90046001600160a01b03166001600160a01b0316630490be836040518163ffffffff1660e01b8152600401602060405180830381865afa1580156115db573d6000803e3d6000fd5b505050506040513d601f19601f820116820180604052508101906115ff91906159e3565b612a0c565b905090565b600061161361271d565b6001600160a01b03831660009081526010602052604081206001015461163990846139f1565b6001600160a01b038516600090815260106020526040902060010181905591505092915050565b6017818154811061167057600080fd5b6000918252602090912001546001600160a01b0316905081565b60008054604080516315b3137b60e21b8152905183926001600160a01b0316916356cc4dec9160048083019260209291908290030181865afa1580156116d4573d6000803e3d6000fd5b505050506040513d601f19601f820116820180604052508101906116f891906159e3565b90506000600160009054906101000a90046001600160a01b03166001600160a01b03166356cc4dec6040518163ffffffff1660e01b8152600401602060405180830381865afa15801561174f573d6000803e3d6000fd5b505050506040513d601f19601f8201168201806040525081019061177391906159e3565b905061177f82826139f1565b9250505090565b61178e613945565b6117978b6139fd565b6117a08a6139fd565b6117a9896139fd565b6117b2886139fd565b6117bb876139fd565b6117c4866139fd565b6117cd856139fd565b6117d6846139fd565b6117df836139fd565b6117e8826139fd565b6117f1816139fd565b600480546001600160a01b03199081166001600160a01b038e8116919091179092556000805482168d84161790556001805482168c84161790556005805482168b84161790556006805482168a8416179055600780548216898416179055600280548216888416179055600880548216878416179055600b80548216868416179055600980548216858416179055600a80549091169183169190911790556040517f3ca631ffcd2a9b5d9ae18543fc82f58eb4ca33af9e6ab01b7a8e95331e6ed985906118bf908d9061564a565b60405180910390a17f78f058b189175430c48dc02699e3a0031ea4ff781536dc2fab847de4babdd8828a6040516118f6919061564a565b60405180910390a17f5ee0cae2f063ed938bb55046f6a932fb6ae792bf43624806bb90abe68a50be9b8960405161192d919061564a565b60405180910390a17f82966d27eea39b038ee0fa30cd16532bb24f6e65d31cb58fb227aa5766cdcc7f88604051611964919061564a565b60405180910390a17fcfb07d791fcafc032b35837b50eb84b74df518cf4cc287e8084f47630fa70fa08760405161199b919061564a565b60405180910390a17fe67f36a6e961157d6eff83b91f3af5a62131ceb6f04954ef74f51c1c05e7f88d866040516119d2919061564a565b60405180910390a17f8c537274438aa850a330284665d81a85dd38267d09e4050d416bfc94142db26485604051611a09919061564a565b60405180910390a17f7faa560f2889840c377209fbc4b6b92d05f43f1fc60bf336ab546fd60c0051ad84604051611a40919061564a565b60405180910390a17f65f4cf077bc01e4742eb5ad98326f6e95b63548ea24b17f8d5e823111fe7880083604051611a77919061564a565b60405180910390a17f0d32e4ef3d389440323b172cfc07c6c01bdd1d3e8334379048eec21e8d919b7782604051611aae919061564a565b60405180910390a17ffe7e5f521efd6e9fda9261f1223b2cda79ba84d0393e8b6629d27db91048126f81604051611ae5919061564a565b60405180910390a1611af561156f565b5050505050505050505050565b611b0a61271d565b610b2181613aa2565b600080546040805163a2f0398360e01b8152905183926001600160a01b03169163a2f039839160048083019260209291908290030181865afa158015611b5d573d6000803e3d6000fd5b505050506040513d601f19601f82011682018060405250810190611b8191906159e3565b90506000600160009054906101000a90046001600160a01b03166001600160a01b031663a2f039836040518163ffffffff1660e01b8152600401602060405180830381865afa15801561174f573d6000803e3d6000fd5b6000610c2c611be56133f4565b83613b06565b6001600160a01b0381166000908152601660205260408120546014548290610b4f90836128a3565b6000611c1d61271d565b6001600160a01b038316600090815260106020526040812054610c0d90846139f1565b6000610c2c611c4d6133f4565b8361333c565b6000806000611c6184613d3e565b915091506000611c718383613db8565b95945050505050565b6000610c2c600d5483613b06565b6000610c2c82613de7565b6001600160a01b03811660009081526010602052604081208054600190910154909180611cbf85610b24565b9150611cca85611beb565b9050611cd684836139f1565b9350611ce283826139f1565b92509193509193565b6040805160e08082018352600080546001600160a01b0390811684526001548116602080860191909152600854821685870152600a548216606080870191909152600b548316608080880191909152600754841660a08089019190915260065490941660c080890191909152885161010081018a5286815293840186905297830185905290820184905281018390529081018290529384018190529083015290611d9483613e0b565b611d9c613ea6565b600260009054906101000a90046001600160a01b03166001600160a01b0316630fdb11cf6040518163ffffffff1660e01b81526004016020604051808303816000875af1158015611df1573d6000803e3d6000fd5b505050506040513d601f19601f82011682018060405250810190611e1591906159e3565b60c08201819052611e2590613f9a565b611e2e8961400d565b611e3d8260400151338b614074565b611e4561168a565b60e0820181905260408084015190516370a0823160e01b81526001600160a01b03909116906370a0823190611e7e90339060040161564a565b602060405180830381865afa158015611e9b573d6000803e3d6000fd5b505050506040513d601f19601f82011682018060405250810190611ebf91906159e3565b1115611ecd57611ecd615ac4565b888152608082015160c0820151600091611ee8918b90614174565b15611ef4575087612006565b82608001516001600160a01b0316634d6228316040518163ffffffff1660e01b8152600401602060405180830381865afa158015611f36573d6000803e3d6000fd5b505050506040513d601f19601f82011682018060405250810190611f5a9190615ada565b90505b6001600160a01b03811615801590611f8957506714d1120d7b160000611f87828460c00151612486565b105b156120065782608001516001600160a01b031663b72703ac826040518263ffffffff1660e01b8152600401611fbe919061564a565b602060405180830381865afa158015611fdb573d6000803e3d6000fd5b505050506040513d601f19601f82011682018060405250810190611fff9190615ada565b9050611f5d565b846000036120145760001994505b6001600160a01b0381161580159061202c5750815115155b80156120385750600085115b15612144578461204781615af7565b955050600083608001516001600160a01b031663b72703ac836040518263ffffffff1660e01b815260040161207c919061564a565b602060405180830381865afa158015612099573d6000803e3d6000fd5b505050506040513d601f19601f820116820180604052508101906120bd9190615ada565b90506120d2846000015185602001518461279d565b60006120eb858486600001518760c001518e8e8e6142be565b90508060400151156120fe575050612144565b8051602085015161210e916139f1565b6020808601919091528101516040850151612128916139f1565b60408501528051845161213a916128a3565b8452509050612014565b60008260400151116121aa5760405162461bcd60e51b815260206004820152602960248201527f54726f76654d616e616765723a20556e61626c6520746f2072656465656d20616044820152681b9e48185b5bdd5b9d60ba1b6064820152608401610cd3565b6121c182604001518360c001518460e0015161452a565b506121cf82604001516145bb565b6060830181905260408301516121e69190866145c9565b82516060808501519084015160405163a51ba3b760e01b81526001600160a01b039093169263a51ba3b79261221f929091600401615a3e565b600060405180830381600087803b15801561223957600080fd5b505af115801561224d573d6000803e3d6000fd5b5050505082606001516001600160a01b031663b307829d83606001516040518263ffffffff1660e01b815260040161228791815260200190565b600060405180830381600087803b1580156122a157600080fd5b505af11580156122b5573d6000803e3d6000fd5b50505050606082015160408301516122cc916128a3565b60808301526020820151604080840151606085015191517f43a3f4082a4dbc33d78e317d2497d3a730bc7fc3574159dcea1056e62e5d9ad893612328938f93919293845260208401929092526040830152606082015260800190565b60405180910390a182604001516001600160a01b0316639dc29fac3384602001516040518363ffffffff1660e01b8152600401612366929190615a3e565b600060405180830381600087803b15801561238057600080fd5b505af1158015612394573d6000803e3d6000fd5b505084516020850151604051633b4009ff60e11b81526001600160a01b03909216935063768013fe92506123ce9160040190815260200190565b600060405180830381600087803b1580156123e857600080fd5b505af11580156123fc573d6000803e3d6000fd5b50508451608085015160405163a51ba3b760e01b81526001600160a01b03909216935063a51ba3b7925061243591339190600401615a3e565b600060405180830381600087803b15801561244f57600080fd5b505af1158015612463573d6000803e3d6000fd5b5050505050505050505050505050565b61247b61271d565b610b21816002614633565b600080600061249485613d3e565b915091506000610bd6838387614760565b60006124af61271d565b6001600160a01b03831660009081526010602052604081206001015461163990846128a3565b6000610c2c6124e383611c40565b83614794565b600080600260009054906101000a90046001600160a01b03166001600160a01b0316630490be836040518163ffffffff1660e01b8152600401602060405180830381865afa15801561253f573d6000803e3d6000fd5b505050506040513d601f19601f8201168201806040525081019061256391906159e3565b905060008061257185613d3e565b915091506000610bd6838386614760565b60006017828154811061259757612597615aae565b6000918252602090912001546001600160a01b031692915050565b6000611604600260009054906101000a90046001600160a01b03166001600160a01b0316630490be836040518163ffffffff1660e01b8152600401602060405180830381865afa15801561260a573d6000803e3d6000fd5b505050506040513d601f19601f8201168201806040525081019061262e91906159e3565b613de7565b600060016001600160a01b03831660009081526010602052604090206003015460ff166004811115612667576126676157e2565b1461267457506000919050565b506014546001600160a01b039091166000908152601660205260409020541090565b61269e613945565b6001600160a01b0381166127035760405162461bcd60e51b815260206004820152602660248201527f4f776e61626c653a206e6577206f776e657220697320746865207a65726f206160448201526564647265737360d01b6064820152608401610cd3565b610b218161399f565b61271461271d565b610b218161481d565b6004546001600160a01b031633146115815760405162461bcd60e51b815260206004820152603b60248201527f54726f76654d616e616765723a2043616c6c6572206973206e6f74207468652060448201527f426f72726f7765724f7065726174696f6e7320636f6e747261637400000000006064820152608401610cd3565b6127a681612633565b1561289e576127b48161328d565b60006127bf82611beb565b905060006127cc83610b24565b6001600160a01b0384166000908152601060205260409020600101549091506127f590836139f1565b6001600160a01b038416600090815260106020526040902060018101919091555461282090826139f1565b6001600160a01b03841660009081526010602052604090205561284283613aa2565b61284e85858385614867565b6001600160a01b038316600081815260106020526040808220805460018201546002909201549251600080516020615c2d833981519152946128939492939291615b22565b60405180910390a250505b505050565b60006128af8284615b44565b9392505050565b60006128af8284615a97565b60006128af8284615a83565b601780546001808201835560008381527fc624b66cc0138b8fabc209247f72d758e1cf3343756d543badbf24212bed8c1590920180546001600160a01b0319166001600160a01b0386161790559154909161292991906128a3565b6001600160a01b039290921660009081526010602052604090206003018054610100600160881b0319166101006001600160801b038516021790555090565b6001600160a01b038116600090815260106020526040812060010154819061298f90614948565b6001600160a01b0384166000908152601060205260409020600201805490829055601154919250906129cd9083906129c790846128a3565b906139f1565b60118190556040519081527f6bac5e0eb3c44eb03a60ab11ec3a2c051771616aecadbcfff2630aabae5203829060200160405180910390a15092915050565b600080612a1883613de7565b6714d1120d7b160000119392505050565b612a316155b6565b612a39615602565b612a416155b6565b84825260006080830152612a5361168a565b60a0830152612a60611b13565b60c0830152600060208301525b835182602001511015612c455783826020015181518110612a9057612a90615aae565b6020908102919091018101516001600160a01b03166060840181905260009081526010909152604090206003015460019060ff166004811115612ad557612ad56157e2565b03612c2d57612ae8826060015187612486565b60408301526080820151612bd5576714d1120d7b160000826040015110158015612b1157508151155b612c2d576000612b2a8360c001518460a0015189614760565b9050612b478989856060015186604001518760000151868d614989565b60808101518451919350612b5b91906128a3565b8352608082015160a0840151612b70916128a3565b8360a0018181525050612ba5826101000151610f8c8460400151610f8c8660a001518860c001516128a390919063ffffffff16565b60c0840152612bb48483614c7c565b9350612bc98360c001518460a0015189614d5d565b15608084015250612c2d565b81608001518015612bf157506714d1120d7b1600008260400151105b15612c2d57612c0a888884606001518560000151614d7e565b60808101518351919250612c1e91906128a3565b8252612c2a8382614c7c565b92505b60208201805190612c3d82615b57565b905250612a6d565b505095945050505050565b612c586155b6565b612c60615602565b612c686155b6565b848252600060208301525b835182602001511015612c455783826020015181518110612c9657612c96615aae565b60209081029190910101516001600160a01b031660608301819052612cbb9087612486565b604083018190526714d1120d7b1600001115612d0857612ce5888884606001518560000151614d7e565b60808101518351919250612cf991906128a3565b8252612d058382614c7c565b92505b60208201805190612d1882615b57565b905250612c73565b8115612f5557601854600090612d42906129c784670de0b6b3a76400006128b6565b90506000612d676019546129c7670de0b6b3a7640000876128b690919063ffffffff16565b90506000612d80601154846128c290919063ffffffff16565b90506000612d99601154846128c290919063ffffffff16565b9050612dba612db3601154846128b690919063ffffffff16565b85906128a3565b601855601154612dd690612dcf9083906128b6565b84906128a3565b601955601454612de690836139f1565b601455601554612df690826139f1565b60158190556014546040517f9f8bc8ab0daf5bceef75ecfd2085d1fcc6548c657ea970d9a23a60610d0737e392612e34928252602082015260400190565b60405180910390a1604051633b4009ff60e11b8152600481018790526001600160a01b0389169063768013fe90602401600060405180830381600087803b158015612e7e57600080fd5b505af1158015612e92573d6000803e3d6000fd5b505060405163262b890160e01b8152600481018990526001600160a01b038a16925063262b89019150602401600060405180830381600087803b158015612ed857600080fd5b505af1158015612eec573d6000803e3d6000fd5b505060405163a51ba3b760e01b81526001600160a01b038b16925063a51ba3b79150612f1e908a908990600401615a3e565b600060405180830381600087803b158015612f3857600080fd5b505af1158015612f4c573d6000803e3d6000fd5b50505050505050505b50505050565b6011546012819055506000826001600160a01b031663a2f039836040518163ffffffff1660e01b8152600401602060405180830381865afa158015612fa4573d6000803e3d6000fd5b505050506040513d601f19601f82011682018060405250810190612fc891906159e3565b90506000600160009054906101000a90046001600160a01b03166001600160a01b031663a2f039836040518163ffffffff1660e01b8152600401602060405180830381865afa15801561301f573d6000803e3d6000fd5b505050506040513d601f19601f8201168201806040525081019061304391906159e3565b9050613053816129c784866128a3565b60138190556012546040517f51bf4c63ec3cba9d03d43238abbdd979dd91bd16d9895c74ceea9118c7baaf6092613091928252602082015260400190565b60405180910390a150505050565b811561311657600854600654604051631062c15f60e11b81526001600160a01b0391821660048201528582166024820152604481018590529116906320c582be90606401600060405180830381600087803b1580156130fd57600080fd5b505af1158015613111573d6000803e3d6000fd5b505050505b8015612f555760405163a51ba3b760e01b81526001600160a01b0385169063a51ba3b79061314a9086908590600401615a3e565b600060405180830381600087803b15801561316457600080fd5b505af1158015613178573d6000803e3d6000fd5b5050505050505050565b60006001633b9aca00826131968287615a97565b905060006131a48388615a97565b90505b6131b3836102ee615a97565b811161327e5760006131c68a8a84614760565b90508681101561322257825b8281111580156131eb57506131e7858a615a97565b8110155b1561322057876131fc8c8c84614760565b101561320f579550611073945050505050565b6132198582615b44565b90506131d2565b505b6132346702c68af0bb14000088615b44565b81101561324d57613246846014615a97565b9450613269565b61325e8766b1a2bc2ec50000615b70565b811115613269578394505b509050806132778482615b70565b90506131a7565b50600098975050505050505050565b60016001600160a01b03821660009081526010602052604090206003015460ff1660048111156132bf576132bf6157e2565b14610b215760405162461bcd60e51b815260206004820152602f60248201527f54726f76654d616e616765723a2054726f766520646f6573206e6f742065786960448201526e1cdd081bdc881a5cc818db1bdcd959608a1b6064820152608401610cd3565b60006128af670de0b6b3a7640000610bd085856128b6565b60006128af6133e66133c360008054906101000a90046001600160a01b03166001600160a01b031663a2f039836040518163ffffffff1660e01b8152600401602060405180830381865afa158015613398573d6000803e3d6000fd5b505050506040513d601f19601f820116820180604052508101906133bc91906159e3565b85906128c2565b6129c7866133db6103e8670de0b6b3a7640000615a83565b6129c7906005615a97565b670de0b6b3a7640000614ebf565b6000806133ff614ed5565b90506000613415670ddd4b8c6c7d70d883614ef1565b905061177f670de0b6b3a7640000610bd083600c546128b690919063ffffffff16565b600061344f600f54426128a390919063ffffffff16565b9050603c8110610b215742600f8190556040519081527f4ac50c32a269c2cfea9cf04e466da1ab839008441fadf7108e4f05410c2bfd5f906020015b60405180910390a150565b61349e6155b6565b6134a6615602565b6134ae6155b6565b848252600060808301526134c061168a565b60a08301526134cd611b13565b8260c001818152505086608001516001600160a01b0316634d6228316040518163ffffffff1660e01b8152600401602060405180830381865afa158015613518573d6000803e3d6000fd5b505050506040513d601f19601f8201168201806040525081019061353c9190615ada565b82606001906001600160a01b031690816001600160a01b031681525050600087608001516001600160a01b0316631e2231436040518163ffffffff1660e01b8152600401602060405180830381865afa15801561359d573d6000803e3d6000fd5b505050506040513d601f19601f820116820180604052508101906135c19190615ada565b6000602085015290505b8483602001511080156135f45750806001600160a01b031683606001516001600160a01b031614155b156138095760808801516060840151604051632dc9c0eb60e21b81526000926001600160a01b03169163b72703ac91613630919060040161564a565b602060405180830381865afa15801561364d573d6000803e3d6000fd5b505050506040513d601f19601f820116820180604052508101906136719190615ada565b9050613681846060015189612486565b60408501526080840151613779576714d1120d7b1600008460400151101580156136aa57508351155b156136b55750613809565b60006136ca8560c001518660a001518b614760565b8a5160208c01516060880151604089015189519495506136eb94868f614989565b608081015186519195506136ff91906128a3565b8552608084015160a0860151613714916128a3565b8560a0018181525050613749846101000151610f8c8660400151610f8c8860a001518a60c001516128a390919063ffffffff16565b60c08601526137588685614c7c565b955061376d8560c001518660a001518b614d5d565b156080860152506137e3565b8360800151801561379557506714d1120d7b1600008460400151105b156137dd576137b689600001518a6020015186606001518760000151614d7e565b608081015185519194506137ca91906128a3565b84526137d68584614c7c565b94506137e3565b50613809565b6001600160a01b031660608401526020830180519061380182615b57565b9052506135cb565b505050949350505050565b61381c6155b6565b613824615602565b61382c6155b6565b600b54858352600060208401526001600160a01b03165b848360200151101561393957806001600160a01b0316634d6228316040518163ffffffff1660e01b8152600401602060405180830381865afa15801561388d573d6000803e3d6000fd5b505050506040513d601f19601f820116820180604052508101906138b19190615ada565b6001600160a01b0316606084018190526138cb9088612486565b604084018190526714d1120d7b160000111561391c576138f5898985606001518660000151614d7e565b6080810151845191935061390991906128a3565b83526139158483614c7c565b9350613921565b613939565b6020830180519061393182615b57565b905250613843565b50505095945050505050565b6003546001600160a01b031633146115815760405162461bcd60e51b815260206004820181905260248201527f4f776e61626c653a2063616c6c6572206973206e6f7420746865206f776e65726044820152606401610cd3565b600380546001600160a01b038381166001600160a01b0319831681179093556040519116919082907f8be0079c531659141344cd1fd0a4f28419497f9722a3daafe3b4186f6b6457e090600090a35050565b60006128af8284615b70565b6001600160a01b038116613a535760405162461bcd60e51b815260206004820152601e60248201527f4163636f756e742063616e6e6f74206265207a65726f206164647265737300006044820152606401610cd3565b803b806110e35760405162461bcd60e51b815260206004820181905260248201527f4163636f756e7420636f64652073697a652063616e6e6f74206265207a65726f6044820152606401610cd3565b601480546001600160a01b038316600090815260166020526040908190209182556015546001909201829055915491517fc437f324d85e369394148dd9d62f98f534b382e01ed3dd2eb98138fb6d3ab49a9261348b92908252602082015260400190565b600080600860009054906101000a90046001600160a01b03166001600160a01b03166318160ddd6040518163ffffffff1660e01b8152600401602060405180830381865afa158015613b5c573d6000803e3d6000fd5b505050506040513d601f19601f82011682018060405250810190613b8091906159e3565b905080600003613bb157613b9e6103e8670de0b6b3a7640000615a83565b613ba9906005615a97565b915050610c2c565b613bdb60405180604001604052806008815260200167039bab838363c9d160c51b81525082614f95565b613c0f6040518060400160405280601281526020017103137b93937bb903130b9b2903930ba329d160751b81525085614f95565b613c396040518060400160405280600881526020016734b9b9bab2b2101d60c11b81525084614f95565b60408051808201909152601181527003132b337b932a6b4b72932b9bab63a1d1607d1b6020820152613ca390613c9e613c81600a610bd086818a670de0b6b3a76400006128b6565b6129c7600a610bd08a6133db6103e8670de0b6b3a7640000615a83565b614f95565b60408051808201909152600881526703932b9bab63a1d160c51b6020820152613d0290613c9e6133e6613ce5600a610bd087818b670de0b6b3a76400006128b6565b6129c7600a610bd08b6133db6103e8670de0b6b3a7640000615a83565b6110736133e6613d21600a610bd0858189670de0b6b3a76400006128b6565b6129c7600a610bd0896133db6103e8670de0b6b3a7640000615a83565b6000806000613d4c84611beb565b90506000613d5985610b24565b6001600160a01b03861660009081526010602052604081206001015491925090613d8390846139f1565b6001600160a01b03871660009081526010602052604081205491925090613daa90846139f1565b919791965090945050505050565b60008115613dde57613dd782610bd08568056bc75e2d631000006128b6565b9050610c2c565b50600019610c2c565b600080613df2611b13565b90506000613dfe61168a565b9050611073828286614760565b613e1f6103e8670de0b6b3a7640000615a83565b613e2a906005615a97565b8110158015613e415750670de0b6b3a76400008111155b610b215760405162461bcd60e51b815260206004820152603060248201527f4d6178206665652070657263656e74616765206d75737420626520626574776560448201526f656e20302e352520616e64203130302560801b6064820152608401610cd3565b60095460408051631e425be160e11b815290516000926001600160a01b031691633c84b7c29160048083019260209291908290030181865afa158015613ef0573d6000803e3d6000fd5b505050506040513d601f19601f82011682018060405250810190613f1491906159e3565b9050613f2381621275006139f1565b421015610b21576040805162461bcd60e51b81526020600482015260248101919091527f54726f76654d616e616765723a20526564656d7074696f6e7320617265206e6f60448201527f7420616c6c6f77656420647572696e6720626f6f7473747261702070686173656064820152608401610cd3565b6714d1120d7b160000613fac82613de7565b1015610b215760405162461bcd60e51b815260206004820152602a60248201527f54726f76654d616e616765723a2043616e6e6f742072656465656d207768656e604482015269102a21a9101e1026a1a960b11b6064820152608401610cd3565b60008111610b215760405162461bcd60e51b815260206004820152602e60248201527f54726f76654d616e616765723a20416d6f756e74206d7573742062652067726560448201526d61746572207468616e207a65726f60901b6064820152608401610cd3565b6040516370a0823160e01b815281906001600160a01b038516906370a08231906140a290869060040161564a565b602060405180830381865afa1580156140bf573d6000803e3d6000fd5b505050506040513d601f19601f820116820180604052508101906140e391906159e3565b101561289e5760405162461bcd60e51b815260206004820152605460248201527f54726f76654d616e616765723a2052657175657374656420726564656d70746960448201527f6f6e20616d6f756e74206d757374206265203c3d2075736572277320426173656064820152734665654c4d4120746f6b656e2062616c616e636560601b608482015260a401610cd3565b60006001600160a01b03831615806141f65750604051630bb7c8fd60e31b81526001600160a01b03851690635dbe47e8906141b390869060040161564a565b602060405180830381865afa1580156141d0573d6000803e3d6000fd5b505050506040513d601f19601f820116820180604052508101906141f49190615b83565b155b8061421157506714d1120d7b16000061420f8484612486565b105b1561421e575060006128af565b60405163765e015960e01b81526000906001600160a01b0386169063765e01599061424d90879060040161564a565b602060405180830381865afa15801561426a573d6000803e3d6000fd5b505050506040513d601f19601f8201168201806040525081019061428e9190615ada565b90506001600160a01b0381161580611c7157506714d1120d7b1600006142b48285612486565b1095945050505050565b6142e4604051806060016040528060008152602001600081526020016000151581525090565b6001600160a01b03871660009081526010602052604090205461431490879061430f9061c3506128a3565b614ebf565b80825261432f908690610bd090670de0b6b3a76400006128b6565b60208083019190915281516001600160a01b03891660009081526010909252604082205461435c916128a3565b6020808401516001600160a01b038b16600090815260109092526040822060010154929350909161438c916128a3565b905061c35082036143f6576143a08961481d565b6143ab896004614633565b6143b98a8a61c35084614fda565b886001600160a01b0316600080516020615c2d833981519152600080600060036040516143e99493929190615b22565b60405180910390a261451c565b60006144028284613db8565b9050848114158061441b5750600161441984615139565b105b1561442f575050600160408301525061451f565b60808b015160405163015f109360e51b81526001600160a01b038c81166004830152602482018490528981166044830152888116606483015290911690632be2126090608401600060405180830381600087803b15801561448f57600080fd5b505af11580156144a3573d6000803e3d6000fd5b5050506001600160a01b038b166000908152601060205260409020848155600101839055506144d18a612968565b506001600160a01b038a1660008181526010602052604090819020600201549051600080516020615c2d833981519152916145129187918791600390615b22565b60405180910390a2505b50505b979650505050505050565b6000806145356133f4565b9050600061454784610bd088886128b6565b9050600061455583836139f1565b905061456981670de0b6b3a7640000614ebf565b90506000811161457b5761457b615ac4565b600c8190556040518181527fbcd47f9685f1ffa254d0ac495b2e47d57feda8840e9d1f2a54d9d499650502a89060200160405180910390a1610bd6615147565b6000610c2c6124e38361111e565b60006145e183610bd086670de0b6b3a76400006128b6565b905081811115612f555760405162461bcd60e51b815260206004820152601d60248201527f4665652065786365656465642070726f7669646564206d6178696d756d0000006044820152606401610cd3565b6000816004811115614647576146476157e2565b1415801561466757506001816004811115614664576146646157e2565b14155b61467357614673615ac4565b60175461467f8161519e565b6001600160a01b0383166000908152601060205260409020600301805483919060ff191660018360048111156146b7576146b76157e2565b02179055506001600160a01b03831660009081526010602090815260408083206001808201859055908490556016909252822082815501556146f98382615278565b600b54604051631484968760e11b81526001600160a01b03909116906329092d0e9061472990869060040161564a565b600060405180830381600087803b15801561474357600080fd5b505af1158015614757573d6000803e3d6000fd5b50505050505050565b6000821561478b57600061478283610bd0868189670de0b6b3a76400006128b6565b91506128af9050565b506000196128af565b6000806147ad670de0b6b3a7640000610bd086866128b6565b90508281106128af5760405162461bcd60e51b815260206004820152603660248201527f54726f76654d616e616765723a2046656520776f756c642065617420757020616044820152751b1b081c995d1d5c9b99590818dbdb1b185d195c985b60521b6064820152608401610cd3565b6001600160a01b03811660009081526010602052604090206002015460115461484690826128a3565b601155506001600160a01b0316600090815260106020526040812060020155565b604051633b4009ff60e11b8152600481018390526001600160a01b0384169063768013fe90602401600060405180830381600087803b1580156148a957600080fd5b505af11580156148bd573d6000803e3d6000fd5b505060405163262b890160e01b8152600481018590526001600160a01b038716925063262b89019150602401600060405180830381600087803b15801561490357600080fd5b505af1158015614917573d6000803e3d6000fd5b50506040516331534de160e01b8152600481018490526001600160a01b03861692506331534de1915060240161314a565b60008060135460000361495c575081610c2c565b60006012541161496e5761496e615ac4565b6128af601354610bd0601254866128b690919063ffffffff16565b6149916155b6565b6149b560405180606001604052806000815260200160008152602001600081525090565b6017546001106149c5575061451f565b6149ce87611c93565b604085015260208481019190915284018190529083526149ed90615448565b6040830181905261c35060608401526020830151614a0a916128a3565b8152670de0b6b3a76400008611614ad557614a2f898983602001518460400151614867565b614a388761481d565b60006080830181905260a0830152815160c0830152805160e0830152614a5f876003614633565b815160208301516040516001600160a01b038a1692600080516020615c0d83398151915292614a9092600290615ba5565b60405180910390a2866001600160a01b0316600080516020615c2d83398151915260008060006002604051614ac89493929190615b22565b60405180910390a2614c70565b670de0b6b3a764000086118015614af357506714d1120d7b16000086105b15614b4357614b0c898983602001518460400151614867565b614b158761481d565b81518151614b24919087615455565b60e086015260c085015260a08401526080830152614a5f876003614633565b6714d1120d7b1600008610158015614b5a57508386105b8015614b67575081518510155b15614c5f57614b80898983602001518460400151614867565b84600003614b9057614b90615ac4565b614b998761481d565b614bac82600001518360200151856154af565b9150614bb9876003614633565b61010082015115614c2e57600754610100830151604051633f10abab60e01b81526001600160a01b0390921691633f10abab91614bfb918b9190600401615a3e565b600060405180830381600087803b158015614c1557600080fd5b505af1158015614c29573d6000803e3d6000fd5b505050505b815160a08301516040516001600160a01b038a1692600080516020615c0d83398151915292614a9092600290615ba5565b614c676155b6565b915061451f9050565b50979650505050505050565b614c846155b6565b60408083015190840151614c97916139f1565b604082015260608083015190840151614caf916139f1565b606082015281516020840151614cc4916139f1565b6020808301919091528201518351614cdb916139f1565b815260808083015190840151614cf0916139f1565b608082015260a08083015190840151614d08916139f1565b60a082015260c08083015190840151614d20916139f1565b60c082015260e08083015190840151614d38916139f1565b60e08201526101008083015190840151614d51916139f1565b61010082015292915050565b600080614d6b858585614760565b6714d1120d7b1600001195945050505050565b614d866155b6565b614daa60405180606001604052806000815260200160008152602001600081525090565b614db384611c93565b60408501908152602085810192835286019290925291845290519051614ddd918891889190614867565b614de68461481d565b614df38260200151615448565b6040830181905261c35060608401526020830151600091614e1491906128a3565b9050614e2583600001518286615455565b60e087015260c086015260a08501526080840152614e44856003614633565b825160208401516040516001600160a01b03881692600080516020615c0d83398151915292614e7592600190615ba5565b60405180910390a2846001600160a01b0316600080516020615c2d83398151915260008060006001604051614ead9493929190615b22565b60405180910390a25050949350505050565b6000818310614ece57816128af565b5090919050565b6000611604603c610bd0600e54426128a390919063ffffffff16565b6000631f540500821115614f0757631f54050091505b81600003614f1e5750670de0b6b3a7640000610c2c565b670de0b6b3a764000083835b6001811115614f8b57614f3e600282615bc0565b600003614f6357614f4f8283615530565b9150614f5c8160026128c2565b9050614f2a565b614f6d8284615530565b9250614f798283615530565b9150614f5c6002610bd08360016128a3565b610bd68284615530565b6110e38282604051602401614fab929190615bd4565b60408051601f198184030181529190526020810180516001600160e01b0316632d839cb360e21b179052615560565b6040808501516006549151632770a7eb60e21b81526001600160a01b0391821692639dc29fac92615012929116908690600401615a3e565b600060405180830381600087803b15801561502c57600080fd5b505af1158015615040573d6000803e3d6000fd5b50508551604051633b4009ff60e11b8152600481018690526001600160a01b03909116925063768013fe9150602401600060405180830381600087803b15801561508957600080fd5b505af115801561509d573d6000803e3d6000fd5b505050508360a001516001600160a01b0316633f10abab84836040518363ffffffff1660e01b81526004016150d3929190615a3e565b600060405180830381600087803b1580156150ed57600080fd5b505af1158015615101573d6000803e3d6000fd5b5050855160a087015160405163a51ba3b760e01b81526001600160a01b03909216935063a51ba3b7925061314a918590600401615a3e565b6000610c2c8261c3506128a3565b600061515e600e54426128a390919063ffffffff16565b9050603c8110610b215742600e8190556040519081527fbab964312bdd13595266f3e549bca3102965a6d718c6c1f8cd7eaac076b9c6c29060200161348b565b6001811180156152195750600b546040805163de8fa43160e01b815290516001926001600160a01b03169163de8fa4319160048083019260209291908290030181865afa1580156151f3573d6000803e3d6000fd5b505050506040513d601f19601f8201168201806040525081019061521791906159e3565b115b610b215760405162461bcd60e51b815260206004820152602a60248201527f54726f76654d616e616765723a204f6e6c79206f6e652074726f766520696e206044820152697468652073797374656d60b01b6064820152608401610cd3565b6001600160a01b03821660009081526010602052604081206003015460ff16908160048111156152aa576152aa6157e2565b141580156152ca575060018160048111156152c7576152c76157e2565b14155b6152d6576152d6615ac4565b6001600160a01b03831660009081526010602052604081206003015461010090046001600160801b031690839061530e8260016128a3565b905080836001600160801b0316111561532957615329615ac4565b60006017828154811061533e5761533e615aae565b600091825260209091200154601780546001600160a01b03909216925082916001600160801b03871690811061537657615376615aae565b600091825260208083209190910180546001600160a01b0319166001600160a01b03948516179055918316808252601083526040918290206003018054610100600160881b0319166101006001600160801b038a16908102919091179091558251918252928101929092527f02b04ae5f7be9ca7c103293a2aa15f3c339d15d6eda53b721fef7b0e609c831a910160405180910390a1601780548061541d5761541d615bf6565b600082815260209020810160001990810180546001600160a01b031916905501905550505050505050565b6000610c2c60c883615a83565b600080808084156154995761546a8786614ebf565b935061547a87610bd088876128b6565b925061548687856128a3565b915061549286846128a3565b90506154a6565b5060009250829150859050845b93509350935093565b6154b76155b6565b8381526020810183905260006154d983610bd0876714d1120d7b1600006128b6565b90506154e481615448565b6040830181905261c3506060840152608083018690526155059082906128a3565b60a083015261551484826128a3565b61010083015250600060c0820181905260e08201529392505050565b60008061553d84846128b6565b9050611073670de0b6b3a7640000610bd0615559600283615a83565b84906139f1565b610b218160006a636f6e736f6c652e6c6f679050600080835160208501845afa505050565b6040518060a00160405280600081526020016000815260200160001515815260200160008152602001600081525090565b6040518061012001604052806000815260200160008152602001600081526020016000815260200160008152602001600081526020016000815260200160008152602001600081525090565b6040518060e0016040528060008152602001600081526020016000815260200160006001600160a01b0316815260200160001515815260200160008152602001600081525090565b6001600160a01b0391909116815260200190565b6001600160a01b0381168114610b2157600080fd5b803561567e8161565e565b919050565b60006020828403121561569557600080fd5b81356128af8161565e565b600080604083850312156156b357600080fd5b82356156be8161565e565b946020939093013593505050565b634e487b7160e01b600052604160045260246000fd5b600060208083850312156156f557600080fd5b823567ffffffffffffffff8082111561570d57600080fd5b818501915085601f83011261572157600080fd5b813581811115615733576157336156cc565b8060051b604051601f19603f83011681018181108582111715615758576157586156cc565b60405291825284820192508381018501918883111561577657600080fd5b938501935b8285101561579b5761578c85615673565b8452938501939285019261577b565b98975050505050505050565b600080604083850312156157ba57600080fd5b50508035926020909101359150565b6000602082840312156157db57600080fd5b5035919050565b634e487b7160e01b600052602160045260246000fd5b858152602081018590526040810184905260a081016005841061581d5761581d6157e2565b60608201939093526001600160801b03919091166080909101529392505050565b60008060008060008060008060008060006101608c8e03121561586057600080fd5b8b3561586b8161565e565b9a5060208c013561587b8161565e565b995060408c013561588b8161565e565b985060608c013561589b8161565e565b975060808c01356158ab8161565e565b965060a08c01356158bb8161565e565b955060c08c01356158cb8161565e565b945060e08c01356158db8161565e565b93506101008c01356158ec8161565e565b92506158fb6101208d01615673565b915061590a6101408d01615673565b90509295989b509295989b9093969950565b6000815180845260005b8181101561594257602081850181015186830182015201615926565b506000602082860101526020601f19601f83011685010191505092915050565b6020815260006128af602083018461591c565b600080600080600080600060e0888a03121561599057600080fd5b8735965060208801356159a28161565e565b955060408801356159b28161565e565b945060608801356159c28161565e565b9699959850939660808101359560a0820135955060c0909101359350915050565b6000602082840312156159f557600080fd5b5051919050565b60208082526022908201527f54726f76654d616e616765723a206e6f7468696e6720746f206c697175696461604082015261746560f01b606082015260800190565b6001600160a01b03929092168252602082015260400190565b634e487b7160e01b600052601260045260246000fd5b634e487b7160e01b600052601160045260246000fd5b600082615a9257615a92615a57565b500490565b8082028115828204841417610c2c57610c2c615a6d565b634e487b7160e01b600052603260045260246000fd5b634e487b7160e01b600052600160045260246000fd5b600060208284031215615aec57600080fd5b81516128af8161565e565b600081615b0657615b06615a6d565b506000190190565b60048110615b1e57615b1e6157e2565b9052565b848152602081018490526040810183905260808101611c716060830184615b0e565b81810381811115610c2c57610c2c615a6d565b600060018201615b6957615b69615a6d565b5060010190565b80820180821115610c2c57610c2c615a6d565b600060208284031215615b9557600080fd5b815180151581146128af57600080fd5b83815260208101839052606081016110736040830184615b0e565b600082615bcf57615bcf615a57565b500690565b604081526000615be7604083018561591c565b90508260208301529392505050565b634e487b7160e01b600052603160045260246000fdfeea67486ed7ebe3eea8ab3390efd4a3c8aae48be5bea27df104a8af786c408434c3770d654ed33aeea6bf11ac8ef05d02a6a04ed4686dd2f624d853bbec43cc8ba2646970667358221220d713c40406e2baef19655eb4eb61808409b26cfddab868f0b35b0747feae1f3f64736f6c63430008130033",
  "devdoc": {
    "kind": "dev",
    "methods": {
      "owner()": {
        "details": "Returns the address of the current owner."
      },
      "renounceOwnership()": {
        "details": "Leaves the contract without owner. It will not be possible to call `onlyOwner` functions. Can only be called by the current owner. NOTE: Renouncing ownership will leave the contract without an owner, thereby disabling any functionality that is only available to the owner."
      },
      "transferOwnership(address)": {
        "details": "Transfers ownership of the contract to a new account (`newOwner`). Can only be called by the current owner."
      }
    },
    "version": 1
  },
  "userdoc": {
    "kind": "user",
    "methods": {
      "getCurrentICR(address,uint256)": {
        "notice": "Hedgehog changes: Get Price directly from the price feed instead of param passing"
      }
    },
    "notice": "Fork of Liquity's TroveManager. Logic remains unchanged. Changes to the contract: - Raised pragma version - Removed an import of ActivePool Interface Even though SafeMath is no longer required, the decision was made to keep it to avoid human factor errors",
    "version": 1
  },
  "storageLayout": {
    "storage": [
      {
        "astId": 7858,
        "contract": "contracts/TroveManager.sol:TroveManager",
        "label": "activePool",
        "offset": 0,
        "slot": "0",
        "type": "t_contract(IActivePool)8545"
      },
      {
        "astId": 7861,
        "contract": "contracts/TroveManager.sol:TroveManager",
        "label": "defaultPool",
        "offset": 0,
        "slot": "1",
        "type": "t_contract(IDefaultPool)8874"
      },
      {
        "astId": 7865,
        "contract": "contracts/TroveManager.sol:TroveManager",
        "label": "priceFeed",
        "offset": 0,
        "slot": "2",
        "type": "t_contract(IPriceFeed)9116"
      },
      {
        "astId": 7,
        "contract": "contracts/TroveManager.sol:TroveManager",
        "label": "_owner",
        "offset": 0,
        "slot": "3",
        "type": "t_address"
      },
      {
        "astId": 2694,
        "contract": "contracts/TroveManager.sol:TroveManager",
        "label": "borrowerOperationsAddress",
        "offset": 0,
        "slot": "4",
        "type": "t_address"
      },
      {
        "astId": 2697,
        "contract": "contracts/TroveManager.sol:TroveManager",
        "label": "stabilityPool",
        "offset": 0,
        "slot": "5",
        "type": "t_contract(IStabilityPool)9421"
      },
      {
        "astId": 2699,
        "contract": "contracts/TroveManager.sol:TroveManager",
        "label": "gasPoolAddress",
        "offset": 0,
        "slot": "6",
        "type": "t_address"
      },
      {
        "astId": 2702,
        "contract": "contracts/TroveManager.sol:TroveManager",
        "label": "collSurplusPool",
        "offset": 0,
        "slot": "7",
        "type": "t_contract(ICollSurplusPool)8851"
      },
      {
        "astId": 2705,
        "contract": "contracts/TroveManager.sol:TroveManager",
        "label": "baseFeeLMAToken",
        "offset": 0,
        "slot": "8",
        "type": "t_contract(IBaseFeeLMAToken)8609"
      },
      {
        "astId": 2708,
        "contract": "contracts/TroveManager.sol:TroveManager",
        "label": "hogToken",
        "offset": 0,
        "slot": "9",
        "type": "t_contract(IHOGToken)9040"
      },
      {
        "astId": 2711,
        "contract": "contracts/TroveManager.sol:TroveManager",
        "label": "hogStaking",
        "offset": 0,
        "slot": "10",
        "type": "t_contract(IHOGStaking)8984"
      },
      {
        "astId": 2714,
        "contract": "contracts/TroveManager.sol:TroveManager",
        "label": "sortedTroves",
        "offset": 0,
        "slot": "11",
        "type": "t_contract(ISortedTroves)9248"
      },
      {
        "astId": 2739,
        "contract": "contracts/TroveManager.sol:TroveManager",
        "label": "redemptionBaseRate",
        "offset": 0,
        "slot": "12",
        "type": "t_uint256"
      },
      {
        "astId": 2741,
        "contract": "contracts/TroveManager.sol:TroveManager",
        "label": "borrowBaseRate",
        "offset": 0,
        "slot": "13",
        "type": "t_uint256"
      },
      {
        "astId": 2743,
        "contract": "contracts/TroveManager.sol:TroveManager",
        "label": "lastRedemptionTime",
        "offset": 0,
        "slot": "14",
        "type": "t_uint256"
      },
      {
        "astId": 2745,
        "contract": "contracts/TroveManager.sol:TroveManager",
        "label": "lastBorrowTime",
        "offset": 0,
        "slot": "15",
        "type": "t_uint256"
      },
      {
        "astId": 2768,
        "contract": "contracts/TroveManager.sol:TroveManager",
        "label": "Troves",
        "offset": 0,
        "slot": "16",
        "type": "t_mapping(t_address,t_struct(Trove)2763_storage)"
      },
      {
        "astId": 2770,
        "contract": "contracts/TroveManager.sol:TroveManager",
        "label": "totalStakes",
        "offset": 0,
        "slot": "17",
        "type": "t_uint256"
      },
      {
        "astId": 2772,
        "contract": "contracts/TroveManager.sol:TroveManager",
        "label": "totalStakesSnapshot",
        "offset": 0,
        "slot": "18",
        "type": "t_uint256"
      },
      {
        "astId": 2774,
        "contract": "contracts/TroveManager.sol:TroveManager",
        "label": "totalCollateralSnapshot",
        "offset": 0,
        "slot": "19",
        "type": "t_uint256"
      },
      {
        "astId": 2776,
        "contract": "contracts/TroveManager.sol:TroveManager",
        "label": "L_StETH",
        "offset": 0,
        "slot": "20",
        "type": "t_uint256"
      },
      {
        "astId": 2778,
        "contract": "contracts/TroveManager.sol:TroveManager",
        "label": "L_BaseFeeLMADebt",
        "offset": 0,
        "slot": "21",
        "type": "t_uint256"
      },
      {
        "astId": 2783,
        "contract": "contracts/TroveManager.sol:TroveManager",
        "label": "rewardSnapshots",
        "offset": 0,
        "slot": "22",
        "type": "t_mapping(t_address,t_struct(RewardSnapshot)2788_storage)"
      },
      {
        "astId": 2791,
        "contract": "contracts/TroveManager.sol:TroveManager",
        "label": "TroveOwners",
        "offset": 0,
        "slot": "23",
        "type": "t_array(t_address)dyn_storage"
      },
      {
        "astId": 2793,
        "contract": "contracts/TroveManager.sol:TroveManager",
        "label": "lastStETHError_Redistribution",
        "offset": 0,
        "slot": "24",
        "type": "t_uint256"
      },
      {
        "astId": 2795,
        "contract": "contracts/TroveManager.sol:TroveManager",
        "label": "lastBaseFeeLMADebtError_Redistribution",
        "offset": 0,
        "slot": "25",
        "type": "t_uint256"
      }
    ],
    "types": {
      "t_address": {
        "encoding": "inplace",
        "label": "address",
        "numberOfBytes": "20"
      },
      "t_array(t_address)dyn_storage": {
        "base": "t_address",
        "encoding": "dynamic_array",
        "label": "address[]",
        "numberOfBytes": "32"
      },
      "t_contract(IActivePool)8545": {
        "encoding": "inplace",
        "label": "contract IActivePool",
        "numberOfBytes": "20"
      },
      "t_contract(IBaseFeeLMAToken)8609": {
        "encoding": "inplace",
        "label": "contract IBaseFeeLMAToken",
        "numberOfBytes": "20"
      },
      "t_contract(ICollSurplusPool)8851": {
        "encoding": "inplace",
        "label": "contract ICollSurplusPool",
        "numberOfBytes": "20"
      },
      "t_contract(IDefaultPool)8874": {
        "encoding": "inplace",
        "label": "contract IDefaultPool",
        "numberOfBytes": "20"
      },
      "t_contract(IHOGStaking)8984": {
        "encoding": "inplace",
        "label": "contract IHOGStaking",
        "numberOfBytes": "20"
      },
      "t_contract(IHOGToken)9040": {
        "encoding": "inplace",
        "label": "contract IHOGToken",
        "numberOfBytes": "20"
      },
      "t_contract(IPriceFeed)9116": {
        "encoding": "inplace",
        "label": "contract IPriceFeed",
        "numberOfBytes": "20"
      },
      "t_contract(ISortedTroves)9248": {
        "encoding": "inplace",
        "label": "contract ISortedTroves",
        "numberOfBytes": "20"
      },
      "t_contract(IStabilityPool)9421": {
        "encoding": "inplace",
        "label": "contract IStabilityPool",
        "numberOfBytes": "20"
      },
      "t_enum(Status)2751": {
        "encoding": "inplace",
        "label": "enum TroveManager.Status",
        "numberOfBytes": "1"
      },
      "t_mapping(t_address,t_struct(RewardSnapshot)2788_storage)": {
        "encoding": "mapping",
        "key": "t_address",
        "label": "mapping(address => struct TroveManager.RewardSnapshot)",
        "numberOfBytes": "32",
        "value": "t_struct(RewardSnapshot)2788_storage"
      },
      "t_mapping(t_address,t_struct(Trove)2763_storage)": {
        "encoding": "mapping",
        "key": "t_address",
        "label": "mapping(address => struct TroveManager.Trove)",
        "numberOfBytes": "32",
        "value": "t_struct(Trove)2763_storage"
      },
      "t_struct(RewardSnapshot)2788_storage": {
        "encoding": "inplace",
        "label": "struct TroveManager.RewardSnapshot",
        "members": [
          {
            "astId": 2785,
            "contract": "contracts/TroveManager.sol:TroveManager",
            "label": "StETH",
            "offset": 0,
            "slot": "0",
            "type": "t_uint256"
          },
          {
            "astId": 2787,
            "contract": "contracts/TroveManager.sol:TroveManager",
            "label": "BaseFeeLMADebt",
            "offset": 0,
            "slot": "1",
            "type": "t_uint256"
          }
        ],
        "numberOfBytes": "64"
      },
      "t_struct(Trove)2763_storage": {
        "encoding": "inplace",
        "label": "struct TroveManager.Trove",
        "members": [
          {
            "astId": 2753,
            "contract": "contracts/TroveManager.sol:TroveManager",
            "label": "debt",
            "offset": 0,
            "slot": "0",
            "type": "t_uint256"
          },
          {
            "astId": 2755,
            "contract": "contracts/TroveManager.sol:TroveManager",
            "label": "coll",
            "offset": 0,
            "slot": "1",
            "type": "t_uint256"
          },
          {
            "astId": 2757,
            "contract": "contracts/TroveManager.sol:TroveManager",
            "label": "stake",
            "offset": 0,
            "slot": "2",
            "type": "t_uint256"
          },
          {
            "astId": 2760,
            "contract": "contracts/TroveManager.sol:TroveManager",
            "label": "status",
            "offset": 0,
            "slot": "3",
            "type": "t_enum(Status)2751"
          },
          {
            "astId": 2762,
            "contract": "contracts/TroveManager.sol:TroveManager",
            "label": "arrayIndex",
            "offset": 1,
            "slot": "3",
            "type": "t_uint128"
          }
        ],
        "numberOfBytes": "128"
      },
      "t_uint128": {
        "encoding": "inplace",
        "label": "uint128",
        "numberOfBytes": "16"
      },
      "t_uint256": {
        "encoding": "inplace",
        "label": "uint256",
        "numberOfBytes": "32"
      }
    }
  }
}