{
  "address": "0xb7Dddb7e979929966C4647dA41D1647157fE24d0",
  "abi": [
    {
      "inputs": [
        {
          "internalType": "uint256",
          "name": "_gasComp",
          "type": "uint256"
        },
        {
          "internalType": "uint256",
          "name": "_minNetDebt",
          "type": "uint256"
        }
      ],
      "stateMutability": "nonpayable",
      "type": "constructor"
    },
    {
      "anonymous": false,
      "inputs": [
        {
          "indexed": false,
          "internalType": "address",
          "name": "_newActivePoolAddress",
          "type": "address"
        }
      ],
      "name": "ActivePoolAddressChanged",
      "type": "event"
    },
    {
      "anonymous": false,
      "inputs": [
        {
          "indexed": false,
          "internalType": "address",
          "name": "_newBaseFeeLMATokenAddress",
          "type": "address"
        }
      ],
      "name": "BaseFeeLMATokenAddressChanged",
      "type": "event"
    },
    {
      "anonymous": false,
      "inputs": [
        {
          "indexed": false,
          "internalType": "address",
          "name": "_newBorrowerOperationsAddress",
          "type": "address"
        }
      ],
      "name": "BorrowerOperationsAddressChanged",
      "type": "event"
    },
    {
      "anonymous": false,
      "inputs": [
        {
          "indexed": false,
          "internalType": "address",
          "name": "_newCommunityIssuanceAddress",
          "type": "address"
        }
      ],
      "name": "CommunityIssuanceAddressChanged",
      "type": "event"
    },
    {
      "anonymous": false,
      "inputs": [
        {
          "indexed": false,
          "internalType": "address",
          "name": "_newDefaultPoolAddress",
          "type": "address"
        }
      ],
      "name": "DefaultPoolAddressChanged",
      "type": "event"
    },
    {
      "anonymous": false,
      "inputs": [
        {
          "indexed": true,
          "internalType": "address",
          "name": "_depositor",
          "type": "address"
        },
        {
          "indexed": false,
          "internalType": "uint256",
          "name": "_P",
          "type": "uint256"
        },
        {
          "indexed": false,
          "internalType": "uint256",
          "name": "_S",
          "type": "uint256"
        },
        {
          "indexed": false,
          "internalType": "uint256",
          "name": "_G",
          "type": "uint256"
        }
      ],
      "name": "DepositSnapshotUpdated",
      "type": "event"
    },
    {
      "anonymous": false,
      "inputs": [
        {
          "indexed": false,
          "internalType": "uint128",
          "name": "_currentEpoch",
          "type": "uint128"
        }
      ],
      "name": "EpochUpdated",
      "type": "event"
    },
    {
      "anonymous": false,
      "inputs": [
        {
          "indexed": false,
          "internalType": "uint256",
          "name": "_G",
          "type": "uint256"
        },
        {
          "indexed": false,
          "internalType": "uint128",
          "name": "_epoch",
          "type": "uint128"
        },
        {
          "indexed": false,
          "internalType": "uint128",
          "name": "_scale",
          "type": "uint128"
        }
      ],
      "name": "G_Updated",
      "type": "event"
    },
    {
      "anonymous": false,
      "inputs": [
        {
          "indexed": true,
          "internalType": "address",
          "name": "_depositor",
          "type": "address"
        },
        {
          "indexed": false,
          "internalType": "uint256",
          "name": "_HOG",
          "type": "uint256"
        }
      ],
      "name": "HOGPaidToDepositor",
      "type": "event"
    },
    {
      "anonymous": false,
      "inputs": [
        {
          "indexed": true,
          "internalType": "address",
          "name": "previousOwner",
          "type": "address"
        },
        {
          "indexed": true,
          "internalType": "address",
          "name": "newOwner",
          "type": "address"
        }
      ],
      "name": "OwnershipTransferred",
      "type": "event"
    },
    {
      "anonymous": false,
      "inputs": [
        {
          "indexed": false,
          "internalType": "uint256",
          "name": "_P",
          "type": "uint256"
        }
      ],
      "name": "P_Updated",
      "type": "event"
    },
    {
      "anonymous": false,
      "inputs": [
        {
          "indexed": false,
          "internalType": "address",
          "name": "_newPriceFeedAddress",
          "type": "address"
        }
      ],
      "name": "PriceFeedAddressChanged",
      "type": "event"
    },
    {
      "anonymous": false,
      "inputs": [
        {
          "indexed": false,
          "internalType": "uint256",
          "name": "_S",
          "type": "uint256"
        },
        {
          "indexed": false,
          "internalType": "uint128",
          "name": "_epoch",
          "type": "uint128"
        },
        {
          "indexed": false,
          "internalType": "uint128",
          "name": "_scale",
          "type": "uint128"
        }
      ],
      "name": "S_Updated",
      "type": "event"
    },
    {
      "anonymous": false,
      "inputs": [
        {
          "indexed": false,
          "internalType": "uint128",
          "name": "_currentScale",
          "type": "uint128"
        }
      ],
      "name": "ScaleUpdated",
      "type": "event"
    },
    {
      "anonymous": false,
      "inputs": [
        {
          "indexed": false,
          "internalType": "address",
          "name": "_newSortedTrovesAddress",
          "type": "address"
        }
      ],
      "name": "SortedTrovesAddressChanged",
      "type": "event"
    },
    {
      "anonymous": false,
      "inputs": [
        {
          "indexed": false,
          "internalType": "uint256",
          "name": "_newBalance",
          "type": "uint256"
        }
      ],
      "name": "StabilityPoolBaseFeeLMABalanceUpdated",
      "type": "event"
    },
    {
      "anonymous": false,
      "inputs": [
        {
          "indexed": false,
          "internalType": "uint256",
          "name": "_newBalance",
          "type": "uint256"
        }
      ],
      "name": "StabilityPoolWStETHBalanceUpdated",
      "type": "event"
    },
    {
      "anonymous": false,
      "inputs": [
        {
          "indexed": false,
          "internalType": "address",
          "name": "_newTroveManagerAddress",
          "type": "address"
        }
      ],
      "name": "TroveManagerAddressChanged",
      "type": "event"
    },
    {
      "anonymous": false,
      "inputs": [
        {
          "indexed": true,
          "internalType": "address",
          "name": "_depositor",
          "type": "address"
        },
        {
          "indexed": false,
          "internalType": "uint256",
          "name": "_newDeposit",
          "type": "uint256"
        }
      ],
      "name": "UserDepositChanged",
      "type": "event"
    },
    {
      "anonymous": false,
      "inputs": [
        {
          "indexed": true,
          "internalType": "address",
          "name": "_depositor",
          "type": "address"
        },
        {
          "indexed": false,
          "internalType": "uint256",
          "name": "_WStETH",
          "type": "uint256"
        },
        {
          "indexed": false,
          "internalType": "uint256",
          "name": "_BaseFeeLMALoss",
          "type": "uint256"
        }
      ],
      "name": "WStETHGainWithdrawn",
      "type": "event"
    },
    {
      "anonymous": false,
      "inputs": [
        {
          "indexed": false,
          "internalType": "address",
          "name": "_to",
          "type": "address"
        },
        {
          "indexed": false,
          "internalType": "uint256",
          "name": "_amount",
          "type": "uint256"
        }
      ],
      "name": "WStETHSent",
      "type": "event"
    },
    {
      "anonymous": false,
      "inputs": [
        {
          "indexed": false,
          "internalType": "contract IERC20",
          "name": "_WStEthAddress",
          "type": "address"
        }
      ],
      "name": "WStETHTokenAddressUpdated",
      "type": "event"
    },
    {
      "inputs": [],
      "name": "BORROWING_FEE_FLOOR",
      "outputs": [
        {
          "internalType": "uint256",
          "name": "",
          "type": "uint256"
        }
      ],
      "stateMutability": "view",
      "type": "function"
    },
    {
      "inputs": [],
      "name": "BaseFeeLMA_GAS_COMPENSATION",
      "outputs": [
        {
          "internalType": "uint256",
          "name": "",
          "type": "uint256"
        }
      ],
      "stateMutability": "view",
      "type": "function"
    },
    {
      "inputs": [],
      "name": "CCR",
      "outputs": [
        {
          "internalType": "uint256",
          "name": "",
          "type": "uint256"
        }
      ],
      "stateMutability": "view",
      "type": "function"
    },
    {
      "inputs": [],
      "name": "DECIMAL_PRECISION",
      "outputs": [
        {
          "internalType": "uint256",
          "name": "",
          "type": "uint256"
        }
      ],
      "stateMutability": "view",
      "type": "function"
    },
    {
      "inputs": [],
      "name": "MCR",
      "outputs": [
        {
          "internalType": "uint256",
          "name": "",
          "type": "uint256"
        }
      ],
      "stateMutability": "view",
      "type": "function"
    },
    {
      "inputs": [],
      "name": "MIN_NET_DEBT",
      "outputs": [
        {
          "internalType": "uint256",
          "name": "",
          "type": "uint256"
        }
      ],
      "stateMutability": "view",
      "type": "function"
    },
    {
      "inputs": [],
      "name": "NAME",
      "outputs": [
        {
          "internalType": "string",
          "name": "",
          "type": "string"
        }
      ],
      "stateMutability": "view",
      "type": "function"
    },
    {
      "inputs": [],
      "name": "P",
      "outputs": [
        {
          "internalType": "uint256",
          "name": "",
          "type": "uint256"
        }
      ],
      "stateMutability": "view",
      "type": "function"
    },
    {
      "inputs": [],
      "name": "PERCENT_DIVISOR",
      "outputs": [
        {
          "internalType": "uint256",
          "name": "",
          "type": "uint256"
        }
      ],
      "stateMutability": "view",
      "type": "function"
    },
    {
      "inputs": [],
      "name": "SCALE_FACTOR",
      "outputs": [
        {
          "internalType": "uint256",
          "name": "",
          "type": "uint256"
        }
      ],
      "stateMutability": "view",
      "type": "function"
    },
    {
      "inputs": [],
      "name": "WStETHToken",
      "outputs": [
        {
          "internalType": "contract IERC20",
          "name": "",
          "type": "address"
        }
      ],
      "stateMutability": "view",
      "type": "function"
    },
    {
      "inputs": [],
      "name": "_100pct",
      "outputs": [
        {
          "internalType": "uint256",
          "name": "",
          "type": "uint256"
        }
      ],
      "stateMutability": "view",
      "type": "function"
    },
    {
      "inputs": [],
      "name": "activePool",
      "outputs": [
        {
          "internalType": "contract IActivePool",
          "name": "",
          "type": "address"
        }
      ],
      "stateMutability": "view",
      "type": "function"
    },
    {
      "inputs": [],
      "name": "baseFeeLMAToken",
      "outputs": [
        {
          "internalType": "contract IBaseFeeLMAToken",
          "name": "",
          "type": "address"
        }
      ],
      "stateMutability": "view",
      "type": "function"
    },
    {
      "inputs": [],
      "name": "borrowerOperations",
      "outputs": [
        {
          "internalType": "contract IBorrowerOperations",
          "name": "",
          "type": "address"
        }
      ],
      "stateMutability": "view",
      "type": "function"
    },
    {
      "inputs": [],
      "name": "communityIssuance",
      "outputs": [
        {
          "internalType": "contract ICommunityIssuance",
          "name": "",
          "type": "address"
        }
      ],
      "stateMutability": "view",
      "type": "function"
    },
    {
      "inputs": [],
      "name": "currentEpoch",
      "outputs": [
        {
          "internalType": "uint128",
          "name": "",
          "type": "uint128"
        }
      ],
      "stateMutability": "view",
      "type": "function"
    },
    {
      "inputs": [],
      "name": "currentScale",
      "outputs": [
        {
          "internalType": "uint128",
          "name": "",
          "type": "uint128"
        }
      ],
      "stateMutability": "view",
      "type": "function"
    },
    {
      "inputs": [],
      "name": "defaultPool",
      "outputs": [
        {
          "internalType": "contract IDefaultPool",
          "name": "",
          "type": "address"
        }
      ],
      "stateMutability": "view",
      "type": "function"
    },
    {
      "inputs": [
        {
          "internalType": "address",
          "name": "",
          "type": "address"
        }
      ],
      "name": "depositSnapshots",
      "outputs": [
        {
          "internalType": "uint256",
          "name": "S",
          "type": "uint256"
        },
        {
          "internalType": "uint256",
          "name": "P",
          "type": "uint256"
        },
        {
          "internalType": "uint256",
          "name": "G",
          "type": "uint256"
        },
        {
          "internalType": "uint128",
          "name": "scale",
          "type": "uint128"
        },
        {
          "internalType": "uint128",
          "name": "epoch",
          "type": "uint128"
        }
      ],
      "stateMutability": "view",
      "type": "function"
    },
    {
      "inputs": [
        {
          "internalType": "address",
          "name": "",
          "type": "address"
        }
      ],
      "name": "deposits",
      "outputs": [
        {
          "internalType": "uint256",
          "name": "initialValue",
          "type": "uint256"
        }
      ],
      "stateMutability": "view",
      "type": "function"
    },
    {
      "inputs": [
        {
          "internalType": "uint128",
          "name": "",
          "type": "uint128"
        },
        {
          "internalType": "uint128",
          "name": "",
          "type": "uint128"
        }
      ],
      "name": "epochToScaleToG",
      "outputs": [
        {
          "internalType": "uint256",
          "name": "",
          "type": "uint256"
        }
      ],
      "stateMutability": "view",
      "type": "function"
    },
    {
      "inputs": [
        {
          "internalType": "uint128",
          "name": "",
          "type": "uint128"
        },
        {
          "internalType": "uint128",
          "name": "",
          "type": "uint128"
        }
      ],
      "name": "epochToScaleToSum",
      "outputs": [
        {
          "internalType": "uint256",
          "name": "",
          "type": "uint256"
        }
      ],
      "stateMutability": "view",
      "type": "function"
    },
    {
      "inputs": [
        {
          "internalType": "address",
          "name": "_depositor",
          "type": "address"
        }
      ],
      "name": "getCompoundedBaseFeeLMADeposit",
      "outputs": [
        {
          "internalType": "uint256",
          "name": "",
          "type": "uint256"
        }
      ],
      "stateMutability": "view",
      "type": "function"
    },
    {
      "inputs": [
        {
          "internalType": "address",
          "name": "_depositor",
          "type": "address"
        }
      ],
      "name": "getDepositorHOGGain",
      "outputs": [
        {
          "internalType": "uint256",
          "name": "",
          "type": "uint256"
        }
      ],
      "stateMutability": "view",
      "type": "function"
    },
    {
      "inputs": [
        {
          "internalType": "address",
          "name": "_depositor",
          "type": "address"
        }
      ],
      "name": "getDepositorWStETHGain",
      "outputs": [
        {
          "internalType": "uint256",
          "name": "",
          "type": "uint256"
        }
      ],
      "stateMutability": "view",
      "type": "function"
    },
    {
      "inputs": [],
      "name": "getEntireSystemColl",
      "outputs": [
        {
          "internalType": "uint256",
          "name": "entireSystemColl",
          "type": "uint256"
        }
      ],
      "stateMutability": "view",
      "type": "function"
    },
    {
      "inputs": [],
      "name": "getEntireSystemDebt",
      "outputs": [
        {
          "internalType": "uint256",
          "name": "entireSystemDebt",
          "type": "uint256"
        }
      ],
      "stateMutability": "view",
      "type": "function"
    },
    {
      "inputs": [],
      "name": "getTotalBaseFeeLMADeposits",
      "outputs": [
        {
          "internalType": "uint256",
          "name": "",
          "type": "uint256"
        }
      ],
      "stateMutability": "view",
      "type": "function"
    },
    {
      "inputs": [],
      "name": "getWStETH",
      "outputs": [
        {
          "internalType": "uint256",
          "name": "",
          "type": "uint256"
        }
      ],
      "stateMutability": "view",
      "type": "function"
    },
    {
      "inputs": [],
      "name": "lastBaseFeeLMALossError_Offset",
      "outputs": [
        {
          "internalType": "uint256",
          "name": "",
          "type": "uint256"
        }
      ],
      "stateMutability": "view",
      "type": "function"
    },
    {
      "inputs": [],
      "name": "lastHOGError",
      "outputs": [
        {
          "internalType": "uint256",
          "name": "",
          "type": "uint256"
        }
      ],
      "stateMutability": "view",
      "type": "function"
    },
    {
      "inputs": [],
      "name": "lastWStETHError_Offset",
      "outputs": [
        {
          "internalType": "uint256",
          "name": "",
          "type": "uint256"
        }
      ],
      "stateMutability": "view",
      "type": "function"
    },
    {
      "inputs": [
        {
          "internalType": "uint256",
          "name": "_debtToOffset",
          "type": "uint256"
        },
        {
          "internalType": "uint256",
          "name": "_collToAdd",
          "type": "uint256"
        }
      ],
      "name": "offset",
      "outputs": [],
      "stateMutability": "nonpayable",
      "type": "function"
    },
    {
      "inputs": [],
      "name": "owner",
      "outputs": [
        {
          "internalType": "address",
          "name": "",
          "type": "address"
        }
      ],
      "stateMutability": "view",
      "type": "function"
    },
    {
      "inputs": [],
      "name": "priceFeed",
      "outputs": [
        {
          "internalType": "contract IPriceFeed",
          "name": "",
          "type": "address"
        }
      ],
      "stateMutability": "view",
      "type": "function"
    },
    {
      "inputs": [
        {
          "internalType": "uint256",
          "name": "_amount",
          "type": "uint256"
        }
      ],
      "name": "provideToSP",
      "outputs": [],
      "stateMutability": "nonpayable",
      "type": "function"
    },
    {
      "inputs": [],
      "name": "renounceOwnership",
      "outputs": [],
      "stateMutability": "nonpayable",
      "type": "function"
    },
    {
      "inputs": [
        {
          "internalType": "address",
          "name": "_borrowerOperationsAddress",
          "type": "address"
        },
        {
          "internalType": "address",
          "name": "_troveManagerAddress",
          "type": "address"
        },
        {
          "internalType": "address",
          "name": "_activePoolAddress",
          "type": "address"
        },
        {
          "internalType": "address",
          "name": "_baseFeeLMATokenAddress",
          "type": "address"
        },
        {
          "internalType": "address",
          "name": "_sortedTrovesAddress",
          "type": "address"
        },
        {
          "internalType": "address",
          "name": "_priceFeedAddress",
          "type": "address"
        },
        {
          "internalType": "address",
          "name": "_communityIssuanceAddress",
          "type": "address"
        },
        {
          "internalType": "contract IERC20",
          "name": "_WStETHTokenAddress",
          "type": "address"
        }
      ],
      "name": "setAddresses",
      "outputs": [],
      "stateMutability": "nonpayable",
      "type": "function"
    },
    {
      "inputs": [],
      "name": "sortedTroves",
      "outputs": [
        {
          "internalType": "contract ISortedTroves",
          "name": "",
          "type": "address"
        }
      ],
      "stateMutability": "view",
      "type": "function"
    },
    {
      "inputs": [
        {
          "internalType": "address",
          "name": "newOwner",
          "type": "address"
        }
      ],
      "name": "transferOwnership",
      "outputs": [],
      "stateMutability": "nonpayable",
      "type": "function"
    },
    {
      "inputs": [],
      "name": "troveManager",
      "outputs": [
        {
          "internalType": "contract ITroveManager",
          "name": "",
          "type": "address"
        }
      ],
      "stateMutability": "view",
      "type": "function"
    },
    {
      "inputs": [
        {
          "internalType": "uint256",
          "name": "_amount",
          "type": "uint256"
        }
      ],
      "name": "withdrawFromSP",
      "outputs": [],
      "stateMutability": "nonpayable",
      "type": "function"
    },
    {
      "inputs": [
        {
          "internalType": "address",
          "name": "_upperHint",
          "type": "address"
        },
        {
          "internalType": "address",
          "name": "_lowerHint",
          "type": "address"
        }
      ],
      "name": "withdrawWStETHGainToTrove",
      "outputs": [],
      "stateMutability": "nonpayable",
      "type": "function"
    }
  ],
  "transactionHash": "0x0c843bdb76e0c7d560abf6fa9de51b69866612d622d9d2940f133043c774c025",
  "args": [
    "100000",
    "100000"
  ],
  "numDeployments": 1,
  "solcInputHash": "26b7e46187074ecdc3b4eda7be7ea101",
  "bytecode": "0x60c0604052670de0b6b3a7640000600e553480156200001d57600080fd5b5060405162002cf338038062002cf38339810160408190526200004091620000af565b608082905260a081905262000055336200005d565b5050620000d4565b600380546001600160a01b038381166001600160a01b0319831681179093556040519116919082907f8be0079c531659141344cd1fd0a4f28419497f9722a3daafe3b4186f6b6457e090600090a35050565b60008060408385031215620000c357600080fd5b505080516020909101519092909150565b60805160a051612bf9620000fa600039600061027e015260006105150152612bf96000f3fe608060405234801561001057600080fd5b50600436106102745760003560e01c80638b8fbd9211610151578063bde61006116100c3578063ee2ec97011610087578063ee2ec970146105f6578063f2fde38b146105fe578063f92d343314610611578063fc7e286d14610619578063fca1c4d314610639578063fded29111461064257600080fd5b8063bde61006146105a9578063ce4b5bbe146105bc578063d733cfd0146105c7578063d77b35b1146105da578063dae8ddf3146105e357600080fd5b8063a201415211610115578063a201415214610510578063a20baee614610373578063a3f4df7e14610537578063a4e59ac814610570578063ae91875414610583578063b987e41d1461059657600080fd5b80638b8fbd92146104c75780638da5cb5b146104d05780638f913789146104e157806393dc89fc146104f457806395fb16bb146104fd57600080fd5b806372fe25aa116101ea578063794e5724116101ae578063794e5724146103ed578063795d26c3146103fc5780637f7dde4a1461040457806382e0a5741461041757806386da082414610442578063887105d3146104bf57600080fd5b806372fe25aa14610373578063741bef1a14610382578063766718081461039557806377553ad4146103c757806378c77a24146103da57600080fd5b80633d83908a1161023c5780633d83908a146103265780634870dd9a14610339578063488df0fc146103415780635733d58f14610349578063681cb60414610358578063715018a61461036b57600080fd5b80631bf435551461027957806328a0a04d146102b35780632e54bf95146102de578063335525ad146102f35780633cc7422514610306575b600080fd5b6102a07f000000000000000000000000000000000000000000000000000000000000000081565b6040519081526020015b60405180910390f35b6102a06102c1366004612813565b601060209081526000928352604080842090915290825290205481565b6102f16102ec366004612846565b610655565b005b6102f161030136600461285f565b610752565b600154610319906001600160a01b031681565b6040516102aa9190612881565b600554610319906001600160a01b031681565b6102a060c881565b600b546102a0565b6102a0674563918244f4000081565b6102f16103663660046128aa565b6107b4565b6102f1610978565b6102a0670de0b6b3a764000081565b600254610319906001600160a01b031681565b600f546103af90600160801b90046001600160801b031681565b6040516001600160801b0390911681526020016102aa565b600454610319906001600160a01b031681565b6102f16103e8366004612846565b61098c565b6102a06714d1120d7b16000081565b6102a0610a6c565b600054610319906001600160a01b031681565b6102a0610425366004612813565b601160209081526000928352604080842090915290825290205481565b61048b6104503660046128e3565b600d602052600090815260409020805460018201546002830154600390930154919290916001600160801b0380821691600160801b90041685565b604080519586526020860194909452928401919091526001600160801b03908116606084015216608082015260a0016102aa565b6102a0610b68565b6102a0600e5481565b6003546001600160a01b0316610319565b600654610319906001600160a01b031681565b6102a060135481565b600854610319906001600160a01b031681565b6102a07f000000000000000000000000000000000000000000000000000000000000000081565b6105636040518060400160405280600d81526020016c14dd18589a5b1a5d1e541bdbdb609a1b81525081565b6040516102aa9190612924565b600f546103af906001600160801b031681565b600754610319906001600160a01b031681565b6102a06105a43660046128e3565b610c2d565b6102a06105b73660046128e3565b610ccb565b6102a0633b9aca0081565b6102f16105d5366004612957565b610d60565b6102a060145481565b6102a06105f13660046128e3565b610feb565b6009546102a0565b6102f161060c3660046128e3565b611080565b6102a06110fe565b6102a06106273660046128e3565b600c6020526000908152604090205481565b6102a060125481565b600a54610319906001600160a01b031681565b801561066357610663611120565b336000908152600c602052604090205461067c81611316565b6008546001600160a01b03166106918161137f565b600061069c33610ccb565b905060006106a933610feb565b905060006106b786836113f3565b905060006106c5868461140d565b90506106d18533611419565b6106db33836114cf565b60006106e7848461140d565b90506106f3338261154a565b6040518181523390600080516020612ba48339815191529060200160405180910390a260408051868152602081018490523391600080516020612b84833981519152910160405180910390a2610748856116ad565b5050505050505050565b61075a611753565b600b54801580610768575082155b1561077257505050565b600854610787906001600160a01b031661137f565b6000806107958486856117bf565b915091506107a3828261188d565b6107ad8486611b68565b5050505050565b336000908152600c60205260409020546107cd81611316565b6107d633611c9a565b6107df33611d92565b6008546001600160a01b03166107f48161137f565b60006107ff33610ccb565b9050600061080c33610feb565b9050600061081a858361140d565b90506108268433611419565b610830338361154a565b60408051848152602081018390523391600080516020612b84833981519152910160405180910390a26040518281523390600080516020612ba48339815191529060200160405180910390a2600954610889908461140d565b60098190556040519081527fce5a3066c58707c75bf54a318d216f461dfa3d09973dc76ac53f99d679d5e96c9060200160405180910390a17f9a5b7586c9b4a7dfde4e7e9fc43ea321a640878174243b7973581b604d3fed2733846040516108f2929190612a00565b60405180910390a1600480546040516360a8b10f60e01b815233928101929092526001600160a01b03898116602484015288811660448401526064830186905216906360a8b10f90608401600060405180830381600087803b15801561095757600080fd5b505af115801561096b573d6000803e3d6000fd5b5050505050505050505050565b610980611e0c565b61098a6000611e66565b565b61099581611eb8565b336000908152600c60205260409020546008546001600160a01b03166109ba8161137f565b60006109c533610ccb565b905060006109d233610feb565b905060006109e0858361140d565b90506109ec8433611419565b6109f63387611f17565b6000610a028388611fcd565b9050610a0e338261154a565b6040518181523390600080516020612ba48339815191529060200160405180910390a260408051858152602081018490523391600080516020612b84833981519152910160405180910390a2610a63846116ad565b50505050505050565b60008054604080516315b3137b60e21b8152905183926001600160a01b0316916356cc4dec9160048083019260209291908290030181865afa158015610ab6573d6000803e3d6000fd5b505050506040513d601f19601f82011682018060405250810190610ada9190612a19565b90506000600160009054906101000a90046001600160a01b03166001600160a01b03166356cc4dec6040518163ffffffff1660e01b8152600401602060405180830381865afa158015610b31573d6000803e3d6000fd5b505050506040513d601f19601f82011682018060405250810190610b559190612a19565b9050610b618282611fcd565b9250505090565b6000805460408051630ee2ec9760e41b8152905183926001600160a01b03169163ee2ec9709160048083019260209291908290030181865afa158015610bb2573d6000803e3d6000fd5b505050506040513d601f19601f82011682018060405250810190610bd69190612a19565b90506000600160009054906101000a90046001600160a01b03166001600160a01b031663ee2ec9706040518163ffffffff1660e01b8152600401602060405180830381865afa158015610b31573d6000803e3d6000fd5b6001600160a01b0381166000908152600c6020526040812054808203610c565750600092915050565b6001600160a01b0383166000908152600d60209081526040808320815160a08101835281548152600182015493810193909352600281015491830191909152600301546001600160801b038082166060840152600160801b90910416608082015290610cc28383611fd9565b95945050505050565b6001600160a01b0381166000908152600c6020526040812054808203610cf45750600092915050565b6001600160a01b0383166000908152600d60209081526040808320815160a08101835281548152600182015493810193909352600281015491830191909152600301546001600160801b038082166060840152600160801b90910416608082015290610cc283836120ad565b610d68611e0c565b610d718861212c565b610d7a8761212c565b610d838661212c565b610d8c8561212c565b610d958461212c565b610d9e8361212c565b610da78261212c565b610db08161212c565b600480546001600160a01b03199081166001600160a01b038b8116919091179092556005805482168a8416179055600080548216898416179055600680548216888416179055600780548216878416179055600280548216868416179055600880548216858416179055600a80549091169183169190911790556040517f3ca631ffcd2a9b5d9ae18543fc82f58eb4ca33af9e6ab01b7a8e95331e6ed98590610e5a908a90612881565b60405180910390a17f143219c9e69b09e07e095fcc889b43d8f46ca892bba65f08dc3a0050869a567887604051610e919190612881565b60405180910390a17f78f058b189175430c48dc02699e3a0031ea4ff781536dc2fab847de4babdd88286604051610ec89190612881565b60405180910390a17f7faa560f2889840c377209fbc4b6b92d05f43f1fc60bf336ab546fd60c0051ad85604051610eff9190612881565b60405180910390a17f65f4cf077bc01e4742eb5ad98326f6e95b63548ea24b17f8d5e823111fe7880084604051610f369190612881565b60405180910390a17f8c537274438aa850a330284665d81a85dd38267d09e4050d416bfc94142db26483604051610f6d9190612881565b60405180910390a17f3055265812fb8447b9ada4a5d804ec43bd528ec40e89c952bbc7b85dc5ac681182604051610fa49190612881565b60405180910390a17fa10b18a97e87c5b49c90aaeba95303db140aa131ee9cbdb946ffce5b50ccf16481604051610fdb9190612881565b60405180910390a1610748610978565b6001600160a01b0381166000908152600c60205260408120548082036110145750600092915050565b6001600160a01b0383166000908152600d60209081526040808320815160a08101835281548152600182015493810193909352600281015491830191909152600301546001600160801b038082166060840152600160801b90910416608082015290610cc283836121d1565b611088611e0c565b6001600160a01b0381166110f25760405162461bcd60e51b815260206004820152602660248201527f4f776e61626c653a206e6577206f776e657220697320746865207a65726f206160448201526564647265737360d01b60648201526084015b60405180910390fd5b6110fb81611e66565b50565b6111126103e8670de0b6b3a7640000612a48565b61111d906005612a6a565b81565b60025460408051630fdb11cf60e01b815290516000926001600160a01b031691630fdb11cf916004808301926020929190829003018187875af115801561116b573d6000803e3d6000fd5b505050506040513d601f19601f8201168201806040525081019061118f9190612a19565b90506000600760009054906101000a90046001600160a01b03166001600160a01b0316634d6228316040518163ffffffff1660e01b8152600401602060405180830381865afa1580156111e6573d6000803e3d6000fd5b505050506040513d601f19601f8201168201806040525081019061120a9190612a81565b600554604051630d293c7160e41b81529192506000916001600160a01b039091169063d293c710906112429085908790600401612a00565b602060405180830381865afa15801561125f573d6000803e3d6000fd5b505050506040513d601f19601f820116820180604052508101906112839190612a19565b90506714d1120d7b1600008110156113115760405162461bcd60e51b8152602060048201526044602482018190527f53746162696c697479506f6f6c3a2043616e6e6f742077697468647261772077908201527f68696c65207468657265206172652074726f766573207769746820494352203c6064820152631026a1a960e11b608482015260a4016110e9565b505050565b600081116110fb5760405162461bcd60e51b815260206004820152603060248201527f53746162696c697479506f6f6c3a2055736572206d757374206861766520612060448201526f1b9bdb8b5e995c9bc819195c1bdcda5d60821b60648201526084016110e9565b6000816001600160a01b0316624b33196040518163ffffffff1660e01b81526004016020604051808303816000875af11580156113c0573d6000803e3d6000fd5b505050506040513d601f19601f820116820180604052508101906113e49190612a19565b90506113ef816122c3565b5050565b60008183106114025781611404565b825b90505b92915050565b60006114048284612a9e565b600061142482610c2d565b6040516313be223160e31b81529091506001600160a01b03841690639df11188906114559085908590600401612a00565b600060405180830381600087803b15801561146f57600080fd5b505af1158015611483573d6000803e3d6000fd5b50505050816001600160a01b03167f3b78de4c49e618f0164775bab57429a0c7b04df658c5c8809a8d79fe40d2614b826040516114c291815260200190565b60405180910390a2505050565b806000036114db575050565b600654604051631062c15f60e11b81526001600160a01b03909116906320c582be9061150f90309086908690600401612ab1565b600060405180830381600087803b15801561152957600080fd5b505af115801561153d573d6000803e3d6000fd5b505050506113ef816123d4565b6001600160a01b0382166000908152600c602052604081208290558190036115e0576001600160a01b0382166000818152600d60209081526040808320838155600181018490556002810184905560030183905580518381529182018390528101919091527f2d6cc0bcdf72c9486f6451bde6b80f44066f4558f77f44dbfedbe7d8b295225a9060600160405180910390a25050565b600f54600e546001600160801b03600160801b808404821660008181526010602090815260408083209590971680835294815286822054838352601182528783208684528252878320546001600160a01b038b16808552600d84529389902060018101899055828155600281018290559585028717600390960195909555875187815291820181905296810184905293959194939192917f2d6cc0bcdf72c9486f6451bde6b80f44066f4558f77f44dbfedbe7d8b295225a9060600160405180910390a250505050505050565b806000036116b85750565b6009546000906116c8908361140d565b60098190556040518181529091507fce5a3066c58707c75bf54a318d216f461dfa3d09973dc76ac53f99d679d5e96c9060200160405180910390a17f9a5b7586c9b4a7dfde4e7e9fc43ea321a640878174243b7973581b604d3fed273383604051611734929190612a00565b60405180910390a1600a546113ef906001600160a01b03163384612423565b6005546001600160a01b0316331461098a5760405162461bcd60e51b815260206004820152602960248201527f53746162696c697479506f6f6c3a2043616c6c6572206973206e6f742054726f6044820152683b32a6b0b730b3b2b960b91b60648201526084016110e9565b60008060006117eb6013546117e5670de0b6b3a76400008961247990919063ffffffff16565b90611fcd565b9050838511156117fd576117fd612ad5565b838503611819576000601455670de0b6b3a76400009150611861565b60145460009061183b9061183588670de0b6b3a7640000612479565b9061140d565b905061184c60016117e58388612485565b925061185c816118358588612479565b601455505b61186b8185612485565b925061188161187a8486612479565b829061140d565b60135550935093915050565b600e546000670de0b6b3a76400008311156118aa576118aa612ad5565b60006118be670de0b6b3a76400008561140d565b600f546001600160801b03600160801b8204811660008181526010602090815260408083209490951680835293905292832054939450909290916119028988612479565b905060006119108383611fcd565b6001600160801b038581166000818152601060209081526040808320948b16808452948252918290208590558151858152908101929092528101919091529091507fe12e2cd2c9afa8069203ca07e7eff1edce4a075686d0736a8e7e0d593597b2079060600160405180910390a185600003611a435761199a6001600160801b0385166001612491565b600f80546001600160801b03908116600160801b93821684021791829055604051929091041681527fb50f0f59e7cb5b421dc77581c3a9919e3806e076e5fa78a874c3f120cb7d874d9060200160405180910390a1600f80546001600160801b0319169055604051600081527f1f9dfc70cd666adb18a39d60a797518f7b4febf4b6e24ef37d44f6e1e7219fbe9060200160405180910390a1670de0b6b3a76400009650611b14565b633b9aca00611a64670de0b6b3a7640000611a5e8b8a612479565b90612485565b1015611afb57611a8e670de0b6b3a7640000611a5e633b9aca00611a888c8b612479565b90612479565b9650611aa46001600160801b0386166001612491565b600f80546001600160801b0319166001600160801b039290921691821790556040519081527f1f9dfc70cd666adb18a39d60a797518f7b4febf4b6e24ef37d44f6e1e7219fbe9060200160405180910390a1611b14565b611b11670de0b6b3a7640000611a5e8a89612479565b96505b60008711611b2457611b24612ad5565b600e8790556040518781527fc1a9618cb59ebca77cbdbc2949f126823c407ff13edb285fd0262519a9c18e8c9060200160405180910390a150505050505050505050565b600054604051633b4009ff60e11b8152600481018390526001600160a01b0390911690819063768013fe90602401600060405180830381600087803b158015611bb057600080fd5b505af1158015611bc4573d6000803e3d6000fd5b50505050611bd1826123d4565b600654604051632770a7eb60e21b81526001600160a01b0390911690639dc29fac90611c039030908690600401612a00565b600060405180830381600087803b158015611c1d57600080fd5b505af1158015611c31573d6000803e3d6000fd5b50505050611c3e83612510565b6040516316daab2160e01b81526001600160a01b038216906316daab2190611c6c9030908790600401612a00565b600060405180830381600087803b158015611c8657600080fd5b505af1158015610a63573d6000803e3d6000fd5b6005546040516321e3780160e01b81526001600160a01b03909116906321e3780190611cca908490600401612881565b602060405180830381865afa158015611ce7573d6000803e3d6000fd5b505050506040513d601f19601f82011682018060405250810190611d0b9190612a19565b6001146110fb5760405162461bcd60e51b815260206004820152604960248201527f53746162696c697479506f6f6c3a2063616c6c6572206d75737420686176652060448201527f616e206163746976652074726f766520746f207769746864726177205753744560648201526854484761696e20746f60b81b608482015260a4016110e9565b6000611d9d82610ccb565b9050600081116113ef5760405162461bcd60e51b815260206004820152603460248201527f53746162696c697479506f6f6c3a2063616c6c6572206d7573742068617665206044820152733737b716bd32b937902ba9ba22aa241023b0b4b760611b60648201526084016110e9565b6003546001600160a01b0316331461098a5760405162461bcd60e51b815260206004820181905260248201527f4f776e61626c653a2063616c6c6572206973206e6f7420746865206f776e657260448201526064016110e9565b600380546001600160a01b038381166001600160a01b0319831681179093556040519116919082907f8be0079c531659141344cd1fd0a4f28419497f9722a3daafe3b4186f6b6457e090600090a35050565b600081116110fb5760405162461bcd60e51b815260206004820152602660248201527f53746162696c697479506f6f6c3a20416d6f756e74206d757374206265206e6f6044820152656e2d7a65726f60d01b60648201526084016110e9565b600654604051632ee65eeb60e21b81526001600160a01b039091169063bb997bac90611f4b90859030908690600401612ab1565b600060405180830381600087803b158015611f6557600080fd5b505af1158015611f79573d6000803e3d6000fd5b5050600b5460009250611f8d915083611fcd565b600b8190556040518181529091507f86e501e8d2b9dbc3dc01201117d33c738d636cb164feab96725f9b635202728f9060200160405180910390a1505050565b60006114048284612aeb565b608081015160608201516040808401516020808601516001600160801b03808716600090815260118452858120918716815292529281205490949392908590612022908461140d565b6001600160801b0380871660009081526011602052604081209293509161207991633b9aca0091908490612059908a166001612491565b6001600160801b0316815260208101919091526040016000205490612485565b9050600061209f670de0b6b3a7640000611a5e86816120988888611fcd565b8f90612479565b9a9950505050505050505050565b6080810151606082015182516020808501516001600160801b038086166000908152601084526040808220928716825291909352822054919493929185906120f5908461140d565b6001600160801b0380871660009081526010602052604081209293509161207991633b9aca0091908490612059908a166001612491565b6001600160a01b0381166121825760405162461bcd60e51b815260206004820152601e60248201527f4163636f756e742063616e6e6f74206265207a65726f2061646472657373000060448201526064016110e9565b803b806113ef5760405162461bcd60e51b815260206004820181905260248201527f4163636f756e7420636f64652073697a652063616e6e6f74206265207a65726f60448201526064016110e9565b602081015160608201516080830151600f546000939291906001600160801b03600160801b909104811690821610156122105760009350505050611407565b600f54600090819061222b906001600160801b031685612523565b9050806001600160801b031660000361225e5761225785611a5e600e548b61247990919063ffffffff16565b9150612295565b806001600160801b031660010361229057612257633b9aca00611a5e87611a5e600e548d61247990919063ffffffff16565b600091505b6122a388633b9aca00612485565b8210156122b857600095505050505050611407565b509695505050505050565b600b548015806122d1575081155b156122da575050565b60006122e683836125ac565b905060006122ff600e548361247990919063ffffffff16565b600f546001600160801b03600160801b82048116600090815260116020908152604080832093909416825291909152205490915061233d9082611fcd565b600f8054600160801b8082046001600160801b0390811660009081526011602081815260408084209685168452958152858320979097559454928304821680825294865283812092909116808252918552829020548251908152938401929092528201527f2d6127771b164a9cc8827d24b5955db2a77e7a81dac389107ebb8bce9fb649689060600160405180910390a150505050565b600b546000906123e4908361140d565b600b8190556040518181529091507f86e501e8d2b9dbc3dc01201117d33c738d636cb164feab96725f9b635202728f9060200160405180910390a15050565b6113118363a9059cbb60e01b8484604051602401612442929190612a00565b60408051601f198184030181529190526020810180516001600160e01b03166001600160e01b0319909316929092179091526125ff565b60006114048284612a6a565b60006114048284612a48565b60008061249e8385612afe565b9050836001600160801b0316816001600160801b031610156114045760405162461bcd60e51b815260206004820152602560248201527f4c697175697479536166654d6174683132383a206164646974696f6e206f766560448201526472666c6f7760d81b60648201526084016110e9565b60095461251d9082611fcd565b60095550565b6000826001600160801b0316826001600160801b031611156125985760405162461bcd60e51b815260206004820152602860248201527f4c697175697479536166654d6174683132383a207375627472616374696f6e206044820152676f766572666c6f7760c01b60648201526084016110e9565b60006125a48385612b25565b949350505050565b6000806125d06012546117e5670de0b6b3a76400008761247990919063ffffffff16565b905060006125de8285612485565b90506125f46125ed8286612479565b839061140d565b601255949350505050565b6000612654826040518060400160405280602081526020017f5361666545524332303a206c6f772d6c6576656c2063616c6c206661696c6564815250856001600160a01b03166126d49092919063ffffffff16565b90508051600014806126755750808060200190518101906126759190612b45565b6113115760405162461bcd60e51b815260206004820152602a60248201527f5361666545524332303a204552433230206f7065726174696f6e20646964206e6044820152691bdd081cdd58d8d9595960b21b60648201526084016110e9565b60606125a4848460008585600080866001600160a01b031685876040516126fb9190612b67565b60006040518083038185875af1925050503d8060008114612738576040519150601f19603f3d011682016040523d82523d6000602084013e61273d565b606091505b509150915061274e87838387612759565b979650505050505050565b606083156127c85782516000036127c1576001600160a01b0385163b6127c15760405162461bcd60e51b815260206004820152601d60248201527f416464726573733a2063616c6c20746f206e6f6e2d636f6e747261637400000060448201526064016110e9565b50816125a4565b6125a483838151156127dd5781518083602001fd5b8060405162461bcd60e51b81526004016110e99190612924565b80356001600160801b038116811461280e57600080fd5b919050565b6000806040838503121561282657600080fd5b61282f836127f7565b915061283d602084016127f7565b90509250929050565b60006020828403121561285857600080fd5b5035919050565b6000806040838503121561287257600080fd5b50508035926020909101359150565b6001600160a01b0391909116815260200190565b6001600160a01b03811681146110fb57600080fd5b600080604083850312156128bd57600080fd5b82356128c881612895565b915060208301356128d881612895565b809150509250929050565b6000602082840312156128f557600080fd5b813561140481612895565b60005b8381101561291b578181015183820152602001612903565b50506000910152565b6020815260008251806020840152612943816040850160208701612900565b601f01601f19169190910160400192915050565b600080600080600080600080610100898b03121561297457600080fd5b883561297f81612895565b9750602089013561298f81612895565b9650604089013561299f81612895565b955060608901356129af81612895565b945060808901356129bf81612895565b935060a08901356129cf81612895565b925060c08901356129df81612895565b915060e08901356129ef81612895565b809150509295985092959890939650565b6001600160a01b03929092168252602082015260400190565b600060208284031215612a2b57600080fd5b5051919050565b634e487b7160e01b600052601160045260246000fd5b600082612a6557634e487b7160e01b600052601260045260246000fd5b500490565b808202811582820484141761140757611407612a32565b600060208284031215612a9357600080fd5b815161140481612895565b8181038181111561140757611407612a32565b6001600160a01b039384168152919092166020820152604081019190915260600190565b634e487b7160e01b600052600160045260246000fd5b8082018082111561140757611407612a32565b6001600160801b03818116838216019080821115612b1e57612b1e612a32565b5092915050565b6001600160801b03828116828216039080821115612b1e57612b1e612a32565b600060208284031215612b5757600080fd5b8151801515811461140457600080fd5b60008251612b79818460208701612900565b919091019291505056fee01921b04a7bb1474d43392aee0da4e562f5427e90be9954e084bcd27981f578bce78369dccab09eec1986f4d409ab09ffbb47d65423e5148fcf98411c5111c9a2646970667358221220b545d7847fc7ad28003ceb0f7d05e48960f51fa6d55e7f4068c0b859300e86e464736f6c63430008130033",
  "devdoc": {
    "kind": "dev",
    "methods": {
      "owner()": {
        "details": "Returns the address of the current owner."
      },
      "renounceOwnership()": {
        "details": "Leaves the contract without owner. It will not be possible to call `onlyOwner` functions. Can only be called by the current owner. NOTE: Renouncing ownership will leave the contract without an owner, thereby disabling any functionality that is only available to the owner."
      },
      "transferOwnership(address)": {
        "details": "Transfers ownership of the contract to a new account (`newOwner`). Can only be called by the current owner."
      }
    },
    "version": 1
  },
  "userdoc": {
    "kind": "user",
    "methods": {
      "setAddresses(address,address,address,address,address,address,address,address)": {
        "notice": "HEDGEHOG UPDATES: ERC20 is used as a collateral instead of native token. Setting erc20 address in the initialisation"
      }
    },
    "notice": "Fork of Liquity's Stability Pool. Logic remains unchanged. Changes to the contract: - Raised pragma version - Removed an import of IStabilityPool Interface Even though SafeMath is no longer required, the decision was made to keep it to avoid human factor errors The Stability Pool holds BaseFeeLMA tokens deposited by Stability Pool depositors. When a trove is liquidated, then depending on system conditions, some of its BaseFeeLMA debt gets offset with BaseFeeLMA in the Stability Pool:  that is, the offset debt evaporates, and an equal amount of BaseFeeLMA tokens in the Stability Pool is burned. Thus, a liquidation causes each depositor to receive a BaseFeeLMA loss, in proportion to their deposit as a share of total deposits. They also receive an WStETH gain, as the WStETH collateral of the liquidated trove is distributed among Stability depositors, in the same proportion. When a liquidation occurs, it depletes every deposit by the same fraction: for example, a liquidation that depletes 40% of the total BaseFeeLMA in the Stability Pool, depletes 40% of each deposit. A deposit that has experienced a series of liquidations is termed a \"compounded deposit\": each liquidation depletes the deposit, multiplying it by some factor in range ]0,1[ --- IMPLEMENTATION --- We use a highly scalable method of tracking deposits and WStETH gains that has O(1) complexity. When a liquidation occurs, rather than updating each depositor's deposit and WStETH gain, we simply update two state variables: a product P, and a sum S. A mathematical manipulation allows us to factor out the initial deposit, and accurately track all depositors' compounded deposits and accumulated WStETH gains over time, as liquidations occur, using just these two variables P and S. When depositors join the Stability Pool, they get a snapshot of the latest P and S: P_t and S_t, respectively. The formula for a depositor's accumulated WStETH gain is derived here: https://github.com/liquity/dev/blob/main/papers/Scalable_Reward_Distribution_with_Compounding_Stakes.pdf For a given deposit d_t, the ratio P/P_t tells us the factor by which a deposit has decreased since it joined the Stability Pool, and the term d_t * (S - S_t)/P_t gives us the deposit's total accumulated WStETH gain. Each liquidation updates the product P and sum S. After a series of liquidations, a compounded deposit and corresponding WStETH gain can be calculated using the initial deposit, the depositors snapshots of P and S, and the latest values of P and S. Any time a depositor updates their deposit (withdrawal, top-up) their accumulated WStETH gain is paid out, their new deposit is recorded (based on their latest compounded deposit and modified by the withdrawal/top-up), and they receive new snapshots of the latest P and S. Essentially, they make a fresh deposit that overwrites the old one. --- SCALE FACTOR --- Since P is a running product in range ]0,1] that is always-decreasing, it should never reach 0 when multiplied by a number in range ]0,1[. Unfortunately, Solidity floor division always reaches 0, sooner or later. A series of liquidations that nearly empty the Pool (and thus each multiply P by a very small number in range ]0,1[ ) may push P to its 18 digit decimal limit, and round it to 0, when in fact the Pool hasn't been emptied: this would break deposit tracking. So, to track P accurately, we use a scale factor: if a liquidation would cause P to decrease to <1e-9 (and be rounded to 0 by Solidity), we first multiply P by 1e9, and increment a currentScale factor by 1. The added benefit of using 1e9 for the scale factor (rather than 1e18) is that it ensures negligible precision loss close to the scale boundary: when P is at its minimum value of 1e9, the relative precision loss in P due to floor division is only on the order of 1e-9. --- EPOCHS --- Whenever a liquidation fully empties the Stability Pool, all deposits should become 0. However, setting P to 0 would make P be 0 forever, and break all future reward calculations. So, every time the Stability Pool is emptied by a liquidation, we reset P = 1 and currentScale = 0, and increment the currentEpoch by 1. --- TRACKING DEPOSIT OVER SCALE CHANGES AND EPOCHS --- When a deposit is made, it gets snapshots of the currentEpoch and the currentScale. When calculating a compounded deposit, we compare the current epoch to the deposit's epoch snapshot. If the current epoch is newer, then the deposit was present during a pool-emptying liquidation, and necessarily has been depleted to 0. Otherwise, we then compare the current scale to the deposit's scale snapshot. If they're equal, the compounded deposit is given by d_t * P/P_t. If it spans one scale change, it is given by d_t * P/(P_t * 1e9). If it spans more than one scale change, we define the compounded deposit as 0, since it is now less than 1e-9'th of its initial value (e.g. a deposit of 1 billion BaseFeeLMA has depleted to < 1 BaseFeeLMA).  --- TRACKING DEPOSITOR'S WStETH GAIN OVER SCALE CHANGES AND EPOCHS --- In the current epoch, the latest value of S is stored upon each scale change, and the mapping (scale -> S) is stored for each epoch. This allows us to calculate a deposit's accumulated WStETH gain, during the epoch in which the deposit was non-zero and earned WStETH. We calculate the depositor's accumulated WStETH gain for the scale at which they made the deposit, using the WStETH gain formula: e_1 = d_t * (S - S_t) / P_t and also for scale after, taking care to divide the latter by a factor of 1e9: e_2 = d_t * S / (P_t * 1e9) The gain in the second scale will be full, as the starting point was in the previous scale, thus no need to subtract anything. The deposit therefore was present for reward events from the beginning of that second scale.        S_i-S_t + S_{i+1}      .<--------.------------>      .         .      . S_i     .   S_{i+1}   <--.-------->.<----------->   S_t.         .   <->.         .      t         .  |---+---------|-------------|-----...         i            i+1 The sum of (e_1 + e_2) captures the depositor's total accumulated WStETH gain, handling the case where their deposit spanned one scale change. We only care about gains across one scale change, since the compounded deposit is defined as being 0 once it has spanned more than one scale change. --- UPDATING P WHEN A LIQUIDATION OCCURS --- Please see the implementation spec in the proof document, which closely follows on from the compounded deposit / WStETH gain derivations: https://github.com/liquity/liquity/blob/master/papers/Scalable_Reward_Distribution_with_Compounding_Stakes.pdf --- HOG ISSUANCE TO STABILITY POOL DEPOSITORS --- A HOG issuance event occurs at every deposit operation, and every liquidation. Each deposit is tagged with the address of the front end through which it was made. All deposits earn a share of the issued HOG in proportion to the deposit as a share of total deposits. The HOG earned by a given deposit, is split between the depositor and the front end through which the deposit was made, based on the front end's kickbackRate. Please see the system Readme for an overview: https://github.com/liquity/dev/blob/main/README.md#hog-issuance-to-stability-providers We use the same mathematical product-sum approach to track HOG gains for depositors, where 'G' is the sum corresponding to HOG gains. The product P (and snapshot P_t) is re-used, as the ratio P/P_t tracks a deposit's depletion due to liquidations.",
    "version": 1
  },
  "storageLayout": {
    "storage": [
      {
        "astId": 19774,
        "contract": "contracts/StabilityPool.sol:StabilityPool",
        "label": "activePool",
        "offset": 0,
        "slot": "0",
        "type": "t_contract(IActivePool)20569"
      },
      {
        "astId": 19777,
        "contract": "contracts/StabilityPool.sol:StabilityPool",
        "label": "defaultPool",
        "offset": 0,
        "slot": "1",
        "type": "t_contract(IDefaultPool)20973"
      },
      {
        "astId": 19781,
        "contract": "contracts/StabilityPool.sol:StabilityPool",
        "label": "priceFeed",
        "offset": 0,
        "slot": "2",
        "type": "t_contract(IPriceFeed)21107"
      },
      {
        "astId": 396,
        "contract": "contracts/StabilityPool.sol:StabilityPool",
        "label": "_owner",
        "offset": 0,
        "slot": "3",
        "type": "t_address"
      },
      {
        "astId": 12716,
        "contract": "contracts/StabilityPool.sol:StabilityPool",
        "label": "borrowerOperations",
        "offset": 0,
        "slot": "4",
        "type": "t_contract(IBorrowerOperations)20846"
      },
      {
        "astId": 12719,
        "contract": "contracts/StabilityPool.sol:StabilityPool",
        "label": "troveManager",
        "offset": 0,
        "slot": "5",
        "type": "t_contract(ITroveManager)21853"
      },
      {
        "astId": 12722,
        "contract": "contracts/StabilityPool.sol:StabilityPool",
        "label": "baseFeeLMAToken",
        "offset": 0,
        "slot": "6",
        "type": "t_contract(IBaseFeeLMAToken)20633"
      },
      {
        "astId": 12725,
        "contract": "contracts/StabilityPool.sol:StabilityPool",
        "label": "sortedTroves",
        "offset": 0,
        "slot": "7",
        "type": "t_contract(ISortedTroves)21239"
      },
      {
        "astId": 12728,
        "contract": "contracts/StabilityPool.sol:StabilityPool",
        "label": "communityIssuance",
        "offset": 0,
        "slot": "8",
        "type": "t_contract(ICommunityIssuance)20945"
      },
      {
        "astId": 12730,
        "contract": "contracts/StabilityPool.sol:StabilityPool",
        "label": "WStETH",
        "offset": 0,
        "slot": "9",
        "type": "t_uint256"
      },
      {
        "astId": 12733,
        "contract": "contracts/StabilityPool.sol:StabilityPool",
        "label": "WStETHToken",
        "offset": 0,
        "slot": "10",
        "type": "t_contract(IERC20)1166"
      },
      {
        "astId": 12735,
        "contract": "contracts/StabilityPool.sol:StabilityPool",
        "label": "totalBaseFeeLMADeposits",
        "offset": 0,
        "slot": "11",
        "type": "t_uint256"
      },
      {
        "astId": 12754,
        "contract": "contracts/StabilityPool.sol:StabilityPool",
        "label": "deposits",
        "offset": 0,
        "slot": "12",
        "type": "t_mapping(t_address,t_struct(Deposit)12738_storage)"
      },
      {
        "astId": 12759,
        "contract": "contracts/StabilityPool.sol:StabilityPool",
        "label": "depositSnapshots",
        "offset": 0,
        "slot": "13",
        "type": "t_mapping(t_address,t_struct(Snapshots)12749_storage)"
      },
      {
        "astId": 12762,
        "contract": "contracts/StabilityPool.sol:StabilityPool",
        "label": "P",
        "offset": 0,
        "slot": "14",
        "type": "t_uint256"
      },
      {
        "astId": 12767,
        "contract": "contracts/StabilityPool.sol:StabilityPool",
        "label": "currentScale",
        "offset": 0,
        "slot": "15",
        "type": "t_uint128"
      },
      {
        "astId": 12769,
        "contract": "contracts/StabilityPool.sol:StabilityPool",
        "label": "currentEpoch",
        "offset": 16,
        "slot": "15",
        "type": "t_uint128"
      },
      {
        "astId": 12775,
        "contract": "contracts/StabilityPool.sol:StabilityPool",
        "label": "epochToScaleToSum",
        "offset": 0,
        "slot": "16",
        "type": "t_mapping(t_uint128,t_mapping(t_uint128,t_uint256))"
      },
      {
        "astId": 12781,
        "contract": "contracts/StabilityPool.sol:StabilityPool",
        "label": "epochToScaleToG",
        "offset": 0,
        "slot": "17",
        "type": "t_mapping(t_uint128,t_mapping(t_uint128,t_uint256))"
      },
      {
        "astId": 12783,
        "contract": "contracts/StabilityPool.sol:StabilityPool",
        "label": "lastHOGError",
        "offset": 0,
        "slot": "18",
        "type": "t_uint256"
      },
      {
        "astId": 12785,
        "contract": "contracts/StabilityPool.sol:StabilityPool",
        "label": "lastWStETHError_Offset",
        "offset": 0,
        "slot": "19",
        "type": "t_uint256"
      },
      {
        "astId": 12787,
        "contract": "contracts/StabilityPool.sol:StabilityPool",
        "label": "lastBaseFeeLMALossError_Offset",
        "offset": 0,
        "slot": "20",
        "type": "t_uint256"
      }
    ],
    "types": {
      "t_address": {
        "encoding": "inplace",
        "label": "address",
        "numberOfBytes": "20"
      },
      "t_contract(IActivePool)20569": {
        "encoding": "inplace",
        "label": "contract IActivePool",
        "numberOfBytes": "20"
      },
      "t_contract(IBaseFeeLMAToken)20633": {
        "encoding": "inplace",
        "label": "contract IBaseFeeLMAToken",
        "numberOfBytes": "20"
      },
      "t_contract(IBorrowerOperations)20846": {
        "encoding": "inplace",
        "label": "contract IBorrowerOperations",
        "numberOfBytes": "20"
      },
      "t_contract(ICommunityIssuance)20945": {
        "encoding": "inplace",
        "label": "contract ICommunityIssuance",
        "numberOfBytes": "20"
      },
      "t_contract(IDefaultPool)20973": {
        "encoding": "inplace",
        "label": "contract IDefaultPool",
        "numberOfBytes": "20"
      },
      "t_contract(IERC20)1166": {
        "encoding": "inplace",
        "label": "contract IERC20",
        "numberOfBytes": "20"
      },
      "t_contract(IPriceFeed)21107": {
        "encoding": "inplace",
        "label": "contract IPriceFeed",
        "numberOfBytes": "20"
      },
      "t_contract(ISortedTroves)21239": {
        "encoding": "inplace",
        "label": "contract ISortedTroves",
        "numberOfBytes": "20"
      },
      "t_contract(ITroveManager)21853": {
        "encoding": "inplace",
        "label": "contract ITroveManager",
        "numberOfBytes": "20"
      },
      "t_mapping(t_address,t_struct(Deposit)12738_storage)": {
        "encoding": "mapping",
        "key": "t_address",
        "label": "mapping(address => struct StabilityPool.Deposit)",
        "numberOfBytes": "32",
        "value": "t_struct(Deposit)12738_storage"
      },
      "t_mapping(t_address,t_struct(Snapshots)12749_storage)": {
        "encoding": "mapping",
        "key": "t_address",
        "label": "mapping(address => struct StabilityPool.Snapshots)",
        "numberOfBytes": "32",
        "value": "t_struct(Snapshots)12749_storage"
      },
      "t_mapping(t_uint128,t_mapping(t_uint128,t_uint256))": {
        "encoding": "mapping",
        "key": "t_uint128",
        "label": "mapping(uint128 => mapping(uint128 => uint256))",
        "numberOfBytes": "32",
        "value": "t_mapping(t_uint128,t_uint256)"
      },
      "t_mapping(t_uint128,t_uint256)": {
        "encoding": "mapping",
        "key": "t_uint128",
        "label": "mapping(uint128 => uint256)",
        "numberOfBytes": "32",
        "value": "t_uint256"
      },
      "t_struct(Deposit)12738_storage": {
        "encoding": "inplace",
        "label": "struct StabilityPool.Deposit",
        "members": [
          {
            "astId": 12737,
            "contract": "contracts/StabilityPool.sol:StabilityPool",
            "label": "initialValue",
            "offset": 0,
            "slot": "0",
            "type": "t_uint256"
          }
        ],
        "numberOfBytes": "32"
      },
      "t_struct(Snapshots)12749_storage": {
        "encoding": "inplace",
        "label": "struct StabilityPool.Snapshots",
        "members": [
          {
            "astId": 12740,
            "contract": "contracts/StabilityPool.sol:StabilityPool",
            "label": "S",
            "offset": 0,
            "slot": "0",
            "type": "t_uint256"
          },
          {
            "astId": 12742,
            "contract": "contracts/StabilityPool.sol:StabilityPool",
            "label": "P",
            "offset": 0,
            "slot": "1",
            "type": "t_uint256"
          },
          {
            "astId": 12744,
            "contract": "contracts/StabilityPool.sol:StabilityPool",
            "label": "G",
            "offset": 0,
            "slot": "2",
            "type": "t_uint256"
          },
          {
            "astId": 12746,
            "contract": "contracts/StabilityPool.sol:StabilityPool",
            "label": "scale",
            "offset": 0,
            "slot": "3",
            "type": "t_uint128"
          },
          {
            "astId": 12748,
            "contract": "contracts/StabilityPool.sol:StabilityPool",
            "label": "epoch",
            "offset": 16,
            "slot": "3",
            "type": "t_uint128"
          }
        ],
        "numberOfBytes": "128"
      },
      "t_uint128": {
        "encoding": "inplace",
        "label": "uint128",
        "numberOfBytes": "16"
      },
      "t_uint256": {
        "encoding": "inplace",
        "label": "uint256",
        "numberOfBytes": "32"
      }
    }
  }
}