{
  "address": "0x62728EdC0017ad22629919e47B2B046F9EB526A7",
  "abi": [
    {
      "inputs": [
        {
          "internalType": "uint256",
          "name": "_gasComp",
          "type": "uint256"
        },
        {
          "internalType": "uint256",
          "name": "_minNetDebt",
          "type": "uint256"
        }
      ],
      "stateMutability": "nonpayable",
      "type": "constructor"
    },
    {
      "anonymous": false,
      "inputs": [
        {
          "indexed": false,
          "internalType": "address",
          "name": "_activePoolAddress",
          "type": "address"
        }
      ],
      "name": "ActivePoolAddressChanged",
      "type": "event"
    },
    {
      "anonymous": false,
      "inputs": [
        {
          "indexed": false,
          "internalType": "address",
          "name": "_newBaseFeeLMATokenAddress",
          "type": "address"
        }
      ],
      "name": "BaseFeeLMATokenAddressChanged",
      "type": "event"
    },
    {
      "anonymous": false,
      "inputs": [
        {
          "indexed": false,
          "internalType": "uint256",
          "name": "_borrowBaseRate",
          "type": "uint256"
        }
      ],
      "name": "BorrowBaseRateUpdated",
      "type": "event"
    },
    {
      "anonymous": false,
      "inputs": [
        {
          "indexed": false,
          "internalType": "address",
          "name": "_newBorrowerOperationsAddress",
          "type": "address"
        }
      ],
      "name": "BorrowerOperationsAddressChanged",
      "type": "event"
    },
    {
      "anonymous": false,
      "inputs": [
        {
          "indexed": false,
          "internalType": "address",
          "name": "_collSurplusPoolAddress",
          "type": "address"
        }
      ],
      "name": "CollSurplusPoolAddressChanged",
      "type": "event"
    },
    {
      "anonymous": false,
      "inputs": [
        {
          "indexed": false,
          "internalType": "address",
          "name": "_defaultPoolAddress",
          "type": "address"
        }
      ],
      "name": "DefaultPoolAddressChanged",
      "type": "event"
    },
    {
      "anonymous": false,
      "inputs": [
        {
          "indexed": false,
          "internalType": "contract IFeesRouter",
          "name": "_feesRouter",
          "type": "address"
        }
      ],
      "name": "FeesRouterAddressUpdated",
      "type": "event"
    },
    {
      "anonymous": false,
      "inputs": [
        {
          "indexed": false,
          "internalType": "address",
          "name": "_gasPoolAddress",
          "type": "address"
        }
      ],
      "name": "GasPoolAddressChanged",
      "type": "event"
    },
    {
      "anonymous": false,
      "inputs": [
        {
          "indexed": false,
          "internalType": "address",
          "name": "_hogTokenAddress",
          "type": "address"
        }
      ],
      "name": "HOGTokenAddressChanged",
      "type": "event"
    },
    {
      "anonymous": false,
      "inputs": [
        {
          "indexed": false,
          "internalType": "uint256",
          "name": "_L_WStETH",
          "type": "uint256"
        },
        {
          "indexed": false,
          "internalType": "uint256",
          "name": "_L_BaseFeeLMADebt",
          "type": "uint256"
        }
      ],
      "name": "LTermsUpdated",
      "type": "event"
    },
    {
      "anonymous": false,
      "inputs": [
        {
          "indexed": false,
          "internalType": "uint256",
          "name": "_lastBorrowTime",
          "type": "uint256"
        }
      ],
      "name": "LastBorrowTimeUpdated",
      "type": "event"
    },
    {
      "anonymous": false,
      "inputs": [
        {
          "indexed": false,
          "internalType": "uint256",
          "name": "_lastRedemptionTime",
          "type": "uint256"
        }
      ],
      "name": "LastRedemptionTimeUpdated",
      "type": "event"
    },
    {
      "anonymous": false,
      "inputs": [
        {
          "indexed": false,
          "internalType": "uint256",
          "name": "_liquidatedDebt",
          "type": "uint256"
        },
        {
          "indexed": false,
          "internalType": "uint256",
          "name": "_liquidatedColl",
          "type": "uint256"
        },
        {
          "indexed": false,
          "internalType": "uint256",
          "name": "_collGasCompensation",
          "type": "uint256"
        },
        {
          "indexed": false,
          "internalType": "uint256",
          "name": "_BaseFeeLMAGasCompensation",
          "type": "uint256"
        }
      ],
      "name": "Liquidation",
      "type": "event"
    },
    {
      "anonymous": false,
      "inputs": [
        {
          "indexed": true,
          "internalType": "address",
          "name": "previousOwner",
          "type": "address"
        },
        {
          "indexed": true,
          "internalType": "address",
          "name": "newOwner",
          "type": "address"
        }
      ],
      "name": "OwnershipTransferred",
      "type": "event"
    },
    {
      "anonymous": false,
      "inputs": [
        {
          "indexed": false,
          "internalType": "address",
          "name": "_newPriceFeedAddress",
          "type": "address"
        }
      ],
      "name": "PriceFeedAddressChanged",
      "type": "event"
    },
    {
      "anonymous": false,
      "inputs": [
        {
          "indexed": false,
          "internalType": "uint256",
          "name": "_attemptedBaseFeeLMAAmount",
          "type": "uint256"
        },
        {
          "indexed": false,
          "internalType": "uint256",
          "name": "_actualBaseFeeLMAAmount",
          "type": "uint256"
        },
        {
          "indexed": false,
          "internalType": "uint256",
          "name": "_WStETHSent",
          "type": "uint256"
        },
        {
          "indexed": false,
          "internalType": "uint256",
          "name": "_WStETHFee",
          "type": "uint256"
        }
      ],
      "name": "Redemption",
      "type": "event"
    },
    {
      "anonymous": false,
      "inputs": [
        {
          "indexed": false,
          "internalType": "uint256",
          "name": "_redemptionBaseRate",
          "type": "uint256"
        }
      ],
      "name": "RedemptionBaseRateUpdated",
      "type": "event"
    },
    {
      "anonymous": false,
      "inputs": [
        {
          "indexed": false,
          "internalType": "address",
          "name": "_sortedTrovesAddress",
          "type": "address"
        }
      ],
      "name": "SortedTrovesAddressChanged",
      "type": "event"
    },
    {
      "anonymous": false,
      "inputs": [
        {
          "indexed": false,
          "internalType": "address",
          "name": "_stabilityPoolAddress",
          "type": "address"
        }
      ],
      "name": "StabilityPoolAddressChanged",
      "type": "event"
    },
    {
      "anonymous": false,
      "inputs": [
        {
          "indexed": false,
          "internalType": "uint256",
          "name": "_totalStakesSnapshot",
          "type": "uint256"
        },
        {
          "indexed": false,
          "internalType": "uint256",
          "name": "_totalCollateralSnapshot",
          "type": "uint256"
        }
      ],
      "name": "SystemSnapshotsUpdated",
      "type": "event"
    },
    {
      "anonymous": false,
      "inputs": [
        {
          "indexed": false,
          "internalType": "uint256",
          "name": "_newTotalStakes",
          "type": "uint256"
        }
      ],
      "name": "TotalStakesUpdated",
      "type": "event"
    },
    {
      "anonymous": false,
      "inputs": [
        {
          "indexed": false,
          "internalType": "address",
          "name": "_borrower",
          "type": "address"
        },
        {
          "indexed": false,
          "internalType": "uint256",
          "name": "_newIndex",
          "type": "uint256"
        }
      ],
      "name": "TroveIndexUpdated",
      "type": "event"
    },
    {
      "anonymous": false,
      "inputs": [
        {
          "indexed": true,
          "internalType": "address",
          "name": "_borrower",
          "type": "address"
        },
        {
          "indexed": false,
          "internalType": "uint256",
          "name": "_debt",
          "type": "uint256"
        },
        {
          "indexed": false,
          "internalType": "uint256",
          "name": "_coll",
          "type": "uint256"
        },
        {
          "indexed": false,
          "internalType": "enum TroveManager.TroveManagerOperation",
          "name": "_operation",
          "type": "uint8"
        }
      ],
      "name": "TroveLiquidated",
      "type": "event"
    },
    {
      "anonymous": false,
      "inputs": [
        {
          "indexed": false,
          "internalType": "uint256",
          "name": "_L_WStETH",
          "type": "uint256"
        },
        {
          "indexed": false,
          "internalType": "uint256",
          "name": "_L_BaseFeeLMADebt",
          "type": "uint256"
        }
      ],
      "name": "TroveSnapshotsUpdated",
      "type": "event"
    },
    {
      "anonymous": false,
      "inputs": [
        {
          "indexed": true,
          "internalType": "address",
          "name": "_borrower",
          "type": "address"
        },
        {
          "indexed": false,
          "internalType": "uint256",
          "name": "_debt",
          "type": "uint256"
        },
        {
          "indexed": false,
          "internalType": "uint256",
          "name": "_coll",
          "type": "uint256"
        },
        {
          "indexed": false,
          "internalType": "uint256",
          "name": "_stake",
          "type": "uint256"
        },
        {
          "indexed": false,
          "internalType": "enum TroveManager.TroveManagerOperation",
          "name": "_operation",
          "type": "uint8"
        }
      ],
      "name": "TroveUpdated",
      "type": "event"
    },
    {
      "inputs": [],
      "name": "BETA",
      "outputs": [
        {
          "internalType": "uint256",
          "name": "",
          "type": "uint256"
        }
      ],
      "stateMutability": "view",
      "type": "function"
    },
    {
      "inputs": [],
      "name": "BOOTSTRAP_PERIOD",
      "outputs": [
        {
          "internalType": "uint256",
          "name": "",
          "type": "uint256"
        }
      ],
      "stateMutability": "view",
      "type": "function"
    },
    {
      "inputs": [],
      "name": "BORROWING_FEE_FLOOR",
      "outputs": [
        {
          "internalType": "uint256",
          "name": "",
          "type": "uint256"
        }
      ],
      "stateMutability": "view",
      "type": "function"
    },
    {
      "inputs": [],
      "name": "BaseFeeLMA_GAS_COMPENSATION",
      "outputs": [
        {
          "internalType": "uint256",
          "name": "",
          "type": "uint256"
        }
      ],
      "stateMutability": "view",
      "type": "function"
    },
    {
      "inputs": [],
      "name": "CCR",
      "outputs": [
        {
          "internalType": "uint256",
          "name": "",
          "type": "uint256"
        }
      ],
      "stateMutability": "view",
      "type": "function"
    },
    {
      "inputs": [],
      "name": "DECIMAL_PRECISION",
      "outputs": [
        {
          "internalType": "uint256",
          "name": "",
          "type": "uint256"
        }
      ],
      "stateMutability": "view",
      "type": "function"
    },
    {
      "inputs": [],
      "name": "L_BaseFeeLMADebt",
      "outputs": [
        {
          "internalType": "uint256",
          "name": "",
          "type": "uint256"
        }
      ],
      "stateMutability": "view",
      "type": "function"
    },
    {
      "inputs": [],
      "name": "L_WStETH",
      "outputs": [
        {
          "internalType": "uint256",
          "name": "",
          "type": "uint256"
        }
      ],
      "stateMutability": "view",
      "type": "function"
    },
    {
      "inputs": [],
      "name": "MAX_BORROWING_FEE",
      "outputs": [
        {
          "internalType": "uint256",
          "name": "",
          "type": "uint256"
        }
      ],
      "stateMutability": "view",
      "type": "function"
    },
    {
      "inputs": [],
      "name": "MCR",
      "outputs": [
        {
          "internalType": "uint256",
          "name": "",
          "type": "uint256"
        }
      ],
      "stateMutability": "view",
      "type": "function"
    },
    {
      "inputs": [],
      "name": "MINUTE_DECAY_BORROWING_FACTOR",
      "outputs": [
        {
          "internalType": "uint256",
          "name": "",
          "type": "uint256"
        }
      ],
      "stateMutability": "view",
      "type": "function"
    },
    {
      "inputs": [],
      "name": "MINUTE_DECAY_REDEMPTION_FACTOR",
      "outputs": [
        {
          "internalType": "uint256",
          "name": "",
          "type": "uint256"
        }
      ],
      "stateMutability": "view",
      "type": "function"
    },
    {
      "inputs": [],
      "name": "MIN_NET_DEBT",
      "outputs": [
        {
          "internalType": "uint256",
          "name": "",
          "type": "uint256"
        }
      ],
      "stateMutability": "view",
      "type": "function"
    },
    {
      "inputs": [],
      "name": "NAME",
      "outputs": [
        {
          "internalType": "string",
          "name": "",
          "type": "string"
        }
      ],
      "stateMutability": "view",
      "type": "function"
    },
    {
      "inputs": [],
      "name": "PERCENT_DIVISOR",
      "outputs": [
        {
          "internalType": "uint256",
          "name": "",
          "type": "uint256"
        }
      ],
      "stateMutability": "view",
      "type": "function"
    },
    {
      "inputs": [],
      "name": "REDEMPTION_FEE_FLOOR",
      "outputs": [
        {
          "internalType": "uint256",
          "name": "",
          "type": "uint256"
        }
      ],
      "stateMutability": "view",
      "type": "function"
    },
    {
      "inputs": [],
      "name": "SECONDS_IN_ONE_MINUTE",
      "outputs": [
        {
          "internalType": "uint256",
          "name": "",
          "type": "uint256"
        }
      ],
      "stateMutability": "view",
      "type": "function"
    },
    {
      "inputs": [
        {
          "internalType": "uint256",
          "name": "",
          "type": "uint256"
        }
      ],
      "name": "TroveOwners",
      "outputs": [
        {
          "internalType": "address",
          "name": "",
          "type": "address"
        }
      ],
      "stateMutability": "view",
      "type": "function"
    },
    {
      "inputs": [
        {
          "internalType": "address",
          "name": "",
          "type": "address"
        }
      ],
      "name": "Troves",
      "outputs": [
        {
          "internalType": "uint256",
          "name": "debt",
          "type": "uint256"
        },
        {
          "internalType": "uint256",
          "name": "coll",
          "type": "uint256"
        },
        {
          "internalType": "uint256",
          "name": "stake",
          "type": "uint256"
        },
        {
          "internalType": "enum TroveManager.Status",
          "name": "status",
          "type": "uint8"
        },
        {
          "internalType": "uint128",
          "name": "arrayIndex",
          "type": "uint128"
        }
      ],
      "stateMutability": "view",
      "type": "function"
    },
    {
      "inputs": [],
      "name": "_100pct",
      "outputs": [
        {
          "internalType": "uint256",
          "name": "",
          "type": "uint256"
        }
      ],
      "stateMutability": "view",
      "type": "function"
    },
    {
      "inputs": [],
      "name": "activePool",
      "outputs": [
        {
          "internalType": "contract IActivePool",
          "name": "",
          "type": "address"
        }
      ],
      "stateMutability": "view",
      "type": "function"
    },
    {
      "inputs": [
        {
          "internalType": "address",
          "name": "_borrower",
          "type": "address"
        }
      ],
      "name": "addTroveOwnerToArray",
      "outputs": [
        {
          "internalType": "uint256",
          "name": "index",
          "type": "uint256"
        }
      ],
      "stateMutability": "nonpayable",
      "type": "function"
    },
    {
      "inputs": [
        {
          "internalType": "address",
          "name": "_borrower",
          "type": "address"
        }
      ],
      "name": "applyPendingRewards",
      "outputs": [],
      "stateMutability": "nonpayable",
      "type": "function"
    },
    {
      "inputs": [],
      "name": "baseFeeLMAToken",
      "outputs": [
        {
          "internalType": "contract IBaseFeeLMAToken",
          "name": "",
          "type": "address"
        }
      ],
      "stateMutability": "view",
      "type": "function"
    },
    {
      "inputs": [
        {
          "internalType": "address[]",
          "name": "_troveArray",
          "type": "address[]"
        }
      ],
      "name": "batchLiquidateTroves",
      "outputs": [],
      "stateMutability": "nonpayable",
      "type": "function"
    },
    {
      "inputs": [],
      "name": "borrowBaseRate",
      "outputs": [
        {
          "internalType": "uint256",
          "name": "",
          "type": "uint256"
        }
      ],
      "stateMutability": "view",
      "type": "function"
    },
    {
      "inputs": [],
      "name": "borrowerOperationsAddress",
      "outputs": [
        {
          "internalType": "address",
          "name": "",
          "type": "address"
        }
      ],
      "stateMutability": "view",
      "type": "function"
    },
    {
      "inputs": [
        {
          "internalType": "uint256",
          "name": "_price",
          "type": "uint256"
        }
      ],
      "name": "checkRecoveryMode",
      "outputs": [
        {
          "internalType": "bool",
          "name": "",
          "type": "bool"
        }
      ],
      "stateMutability": "view",
      "type": "function"
    },
    {
      "inputs": [],
      "name": "checkUnreliableRecoveryMode",
      "outputs": [
        {
          "internalType": "bool",
          "name": "",
          "type": "bool"
        }
      ],
      "stateMutability": "view",
      "type": "function"
    },
    {
      "inputs": [
        {
          "internalType": "address",
          "name": "_borrower",
          "type": "address"
        }
      ],
      "name": "closeTrove",
      "outputs": [],
      "stateMutability": "nonpayable",
      "type": "function"
    },
    {
      "inputs": [],
      "name": "decayBaseRateFromBorrowing",
      "outputs": [],
      "stateMutability": "nonpayable",
      "type": "function"
    },
    {
      "inputs": [
        {
          "internalType": "address",
          "name": "_borrower",
          "type": "address"
        },
        {
          "internalType": "uint256",
          "name": "_collDecrease",
          "type": "uint256"
        }
      ],
      "name": "decreaseTroveColl",
      "outputs": [
        {
          "internalType": "uint256",
          "name": "",
          "type": "uint256"
        }
      ],
      "stateMutability": "nonpayable",
      "type": "function"
    },
    {
      "inputs": [
        {
          "internalType": "address",
          "name": "_borrower",
          "type": "address"
        },
        {
          "internalType": "uint256",
          "name": "_debtDecrease",
          "type": "uint256"
        }
      ],
      "name": "decreaseTroveDebt",
      "outputs": [
        {
          "internalType": "uint256",
          "name": "",
          "type": "uint256"
        }
      ],
      "stateMutability": "nonpayable",
      "type": "function"
    },
    {
      "inputs": [],
      "name": "defaultPool",
      "outputs": [
        {
          "internalType": "contract IDefaultPool",
          "name": "",
          "type": "address"
        }
      ],
      "stateMutability": "view",
      "type": "function"
    },
    {
      "inputs": [],
      "name": "feesRouter",
      "outputs": [
        {
          "internalType": "contract IFeesRouter",
          "name": "",
          "type": "address"
        }
      ],
      "stateMutability": "view",
      "type": "function"
    },
    {
      "inputs": [
        {
          "internalType": "uint256",
          "name": "_BaseFeeLMADebt",
          "type": "uint256"
        }
      ],
      "name": "getBorrowingFee",
      "outputs": [
        {
          "internalType": "uint256",
          "name": "",
          "type": "uint256"
        },
        {
          "internalType": "uint256",
          "name": "",
          "type": "uint256"
        }
      ],
      "stateMutability": "view",
      "type": "function"
    },
    {
      "inputs": [
        {
          "internalType": "uint256",
          "name": "_BaseFeeLMADebt",
          "type": "uint256"
        }
      ],
      "name": "getBorrowingFeeWithDecay",
      "outputs": [
        {
          "internalType": "uint256",
          "name": "",
          "type": "uint256"
        }
      ],
      "stateMutability": "view",
      "type": "function"
    },
    {
      "inputs": [
        {
          "internalType": "uint256",
          "name": "_issuedBaseFeeLMA",
          "type": "uint256"
        }
      ],
      "name": "getBorrowingRate",
      "outputs": [
        {
          "internalType": "uint256",
          "name": "",
          "type": "uint256"
        }
      ],
      "stateMutability": "view",
      "type": "function"
    },
    {
      "inputs": [
        {
          "internalType": "uint256",
          "name": "_issuedBaseFeeLMA",
          "type": "uint256"
        }
      ],
      "name": "getBorrowingRateWithDecay",
      "outputs": [
        {
          "internalType": "uint256",
          "name": "",
          "type": "uint256"
        }
      ],
      "stateMutability": "view",
      "type": "function"
    },
    {
      "inputs": [
        {
          "internalType": "address",
          "name": "_borrower",
          "type": "address"
        },
        {
          "internalType": "uint256",
          "name": "_price",
          "type": "uint256"
        }
      ],
      "name": "getCurrentICR",
      "outputs": [
        {
          "internalType": "uint256",
          "name": "",
          "type": "uint256"
        }
      ],
      "stateMutability": "view",
      "type": "function"
    },
    {
      "inputs": [
        {
          "internalType": "address",
          "name": "_borrower",
          "type": "address"
        }
      ],
      "name": "getEntireDebtAndColl",
      "outputs": [
        {
          "internalType": "uint256",
          "name": "debt",
          "type": "uint256"
        },
        {
          "internalType": "uint256",
          "name": "coll",
          "type": "uint256"
        },
        {
          "internalType": "uint256",
          "name": "pendingBaseFeeLMADebtReward",
          "type": "uint256"
        },
        {
          "internalType": "uint256",
          "name": "pendingWStETHReward",
          "type": "uint256"
        }
      ],
      "stateMutability": "view",
      "type": "function"
    },
    {
      "inputs": [],
      "name": "getEntireSystemColl",
      "outputs": [
        {
          "internalType": "uint256",
          "name": "entireSystemColl",
          "type": "uint256"
        }
      ],
      "stateMutability": "view",
      "type": "function"
    },
    {
      "inputs": [],
      "name": "getEntireSystemDebt",
      "outputs": [
        {
          "internalType": "uint256",
          "name": "entireSystemDebt",
          "type": "uint256"
        }
      ],
      "stateMutability": "view",
      "type": "function"
    },
    {
      "inputs": [
        {
          "internalType": "address",
          "name": "_borrower",
          "type": "address"
        }
      ],
      "name": "getNominalICR",
      "outputs": [
        {
          "internalType": "uint256",
          "name": "",
          "type": "uint256"
        }
      ],
      "stateMutability": "view",
      "type": "function"
    },
    {
      "inputs": [
        {
          "internalType": "uint256",
          "name": "_coll",
          "type": "uint256"
        },
        {
          "internalType": "uint256",
          "name": "_debt",
          "type": "uint256"
        }
      ],
      "name": "getNormalLiquidationPrice",
      "outputs": [
        {
          "internalType": "uint256",
          "name": "",
          "type": "uint256"
        }
      ],
      "stateMutability": "pure",
      "type": "function"
    },
    {
      "inputs": [
        {
          "internalType": "address",
          "name": "_borrower",
          "type": "address"
        }
      ],
      "name": "getPendingBaseFeeLMADebtReward",
      "outputs": [
        {
          "internalType": "uint256",
          "name": "",
          "type": "uint256"
        }
      ],
      "stateMutability": "view",
      "type": "function"
    },
    {
      "inputs": [
        {
          "internalType": "address",
          "name": "_borrower",
          "type": "address"
        }
      ],
      "name": "getPendingWStETHReward",
      "outputs": [
        {
          "internalType": "uint256",
          "name": "",
          "type": "uint256"
        }
      ],
      "stateMutability": "view",
      "type": "function"
    },
    {
      "inputs": [
        {
          "internalType": "uint256",
          "name": "_coll",
          "type": "uint256"
        },
        {
          "internalType": "uint256",
          "name": "_debt",
          "type": "uint256"
        }
      ],
      "name": "getRecoveryLiquidationPrice",
      "outputs": [
        {
          "internalType": "uint256",
          "name": "",
          "type": "uint256"
        }
      ],
      "stateMutability": "pure",
      "type": "function"
    },
    {
      "inputs": [
        {
          "internalType": "uint256",
          "name": "_WStETHDrawn",
          "type": "uint256"
        }
      ],
      "name": "getRedemptionFeeWithDecay",
      "outputs": [
        {
          "internalType": "uint256",
          "name": "",
          "type": "uint256"
        }
      ],
      "stateMutability": "view",
      "type": "function"
    },
    {
      "inputs": [
        {
          "internalType": "uint256",
          "name": "_redemptionColl",
          "type": "uint256"
        }
      ],
      "name": "getRedemptionRate",
      "outputs": [
        {
          "internalType": "uint256",
          "name": "",
          "type": "uint256"
        }
      ],
      "stateMutability": "view",
      "type": "function"
    },
    {
      "inputs": [
        {
          "internalType": "uint256",
          "name": "_redemptionColl",
          "type": "uint256"
        }
      ],
      "name": "getRedemptionRateWithDecay",
      "outputs": [
        {
          "internalType": "uint256",
          "name": "",
          "type": "uint256"
        }
      ],
      "stateMutability": "view",
      "type": "function"
    },
    {
      "inputs": [
        {
          "internalType": "uint256",
          "name": "_price",
          "type": "uint256"
        }
      ],
      "name": "getTCR",
      "outputs": [
        {
          "internalType": "uint256",
          "name": "",
          "type": "uint256"
        }
      ],
      "stateMutability": "view",
      "type": "function"
    },
    {
      "inputs": [
        {
          "internalType": "address",
          "name": "_borrower",
          "type": "address"
        }
      ],
      "name": "getTroveColl",
      "outputs": [
        {
          "internalType": "uint256",
          "name": "",
          "type": "uint256"
        }
      ],
      "stateMutability": "view",
      "type": "function"
    },
    {
      "inputs": [
        {
          "internalType": "address",
          "name": "_borrower",
          "type": "address"
        }
      ],
      "name": "getTroveDebt",
      "outputs": [
        {
          "internalType": "uint256",
          "name": "",
          "type": "uint256"
        }
      ],
      "stateMutability": "view",
      "type": "function"
    },
    {
      "inputs": [
        {
          "internalType": "uint256",
          "name": "_index",
          "type": "uint256"
        }
      ],
      "name": "getTroveFromTroveOwnersArray",
      "outputs": [
        {
          "internalType": "address",
          "name": "",
          "type": "address"
        }
      ],
      "stateMutability": "view",
      "type": "function"
    },
    {
      "inputs": [],
      "name": "getTroveOwnersCount",
      "outputs": [
        {
          "internalType": "uint256",
          "name": "",
          "type": "uint256"
        }
      ],
      "stateMutability": "view",
      "type": "function"
    },
    {
      "inputs": [
        {
          "internalType": "address",
          "name": "_borrower",
          "type": "address"
        }
      ],
      "name": "getTroveStake",
      "outputs": [
        {
          "internalType": "uint256",
          "name": "",
          "type": "uint256"
        }
      ],
      "stateMutability": "view",
      "type": "function"
    },
    {
      "inputs": [
        {
          "internalType": "address",
          "name": "_borrower",
          "type": "address"
        }
      ],
      "name": "getTroveStatus",
      "outputs": [
        {
          "internalType": "uint256",
          "name": "",
          "type": "uint256"
        }
      ],
      "stateMutability": "view",
      "type": "function"
    },
    {
      "inputs": [],
      "name": "getUnreliableTCR",
      "outputs": [
        {
          "internalType": "uint256",
          "name": "",
          "type": "uint256"
        }
      ],
      "stateMutability": "view",
      "type": "function"
    },
    {
      "inputs": [
        {
          "internalType": "address",
          "name": "_borrower",
          "type": "address"
        }
      ],
      "name": "getUnreliableTroveICR",
      "outputs": [
        {
          "internalType": "uint256",
          "name": "",
          "type": "uint256"
        }
      ],
      "stateMutability": "view",
      "type": "function"
    },
    {
      "inputs": [
        {
          "internalType": "address",
          "name": "_borrower",
          "type": "address"
        }
      ],
      "name": "hasPendingRewards",
      "outputs": [
        {
          "internalType": "bool",
          "name": "",
          "type": "bool"
        }
      ],
      "stateMutability": "view",
      "type": "function"
    },
    {
      "inputs": [],
      "name": "hogToken",
      "outputs": [
        {
          "internalType": "contract IHOGToken",
          "name": "",
          "type": "address"
        }
      ],
      "stateMutability": "view",
      "type": "function"
    },
    {
      "inputs": [
        {
          "internalType": "address",
          "name": "_borrower",
          "type": "address"
        },
        {
          "internalType": "uint256",
          "name": "_collIncrease",
          "type": "uint256"
        }
      ],
      "name": "increaseTroveColl",
      "outputs": [
        {
          "internalType": "uint256",
          "name": "",
          "type": "uint256"
        }
      ],
      "stateMutability": "nonpayable",
      "type": "function"
    },
    {
      "inputs": [
        {
          "internalType": "address",
          "name": "_borrower",
          "type": "address"
        },
        {
          "internalType": "uint256",
          "name": "_debtIncrease",
          "type": "uint256"
        }
      ],
      "name": "increaseTroveDebt",
      "outputs": [
        {
          "internalType": "uint256",
          "name": "",
          "type": "uint256"
        }
      ],
      "stateMutability": "nonpayable",
      "type": "function"
    },
    {
      "inputs": [],
      "name": "lastBaseFeeLMADebtError_Redistribution",
      "outputs": [
        {
          "internalType": "uint256",
          "name": "",
          "type": "uint256"
        }
      ],
      "stateMutability": "view",
      "type": "function"
    },
    {
      "inputs": [],
      "name": "lastBorrowTime",
      "outputs": [
        {
          "internalType": "uint256",
          "name": "",
          "type": "uint256"
        }
      ],
      "stateMutability": "view",
      "type": "function"
    },
    {
      "inputs": [],
      "name": "lastRedemptionTime",
      "outputs": [
        {
          "internalType": "uint256",
          "name": "",
          "type": "uint256"
        }
      ],
      "stateMutability": "view",
      "type": "function"
    },
    {
      "inputs": [],
      "name": "lastWStETHError_Redistribution",
      "outputs": [
        {
          "internalType": "uint256",
          "name": "",
          "type": "uint256"
        }
      ],
      "stateMutability": "view",
      "type": "function"
    },
    {
      "inputs": [
        {
          "internalType": "address",
          "name": "_borrower",
          "type": "address"
        }
      ],
      "name": "liquidate",
      "outputs": [],
      "stateMutability": "nonpayable",
      "type": "function"
    },
    {
      "inputs": [
        {
          "internalType": "uint256",
          "name": "_n",
          "type": "uint256"
        }
      ],
      "name": "liquidateTroves",
      "outputs": [],
      "stateMutability": "nonpayable",
      "type": "function"
    },
    {
      "inputs": [],
      "name": "owner",
      "outputs": [
        {
          "internalType": "address",
          "name": "",
          "type": "address"
        }
      ],
      "stateMutability": "view",
      "type": "function"
    },
    {
      "inputs": [],
      "name": "priceFeed",
      "outputs": [
        {
          "internalType": "contract IPriceFeed",
          "name": "",
          "type": "address"
        }
      ],
      "stateMutability": "view",
      "type": "function"
    },
    {
      "inputs": [
        {
          "internalType": "uint256",
          "name": "_BaseFeeLMAamount",
          "type": "uint256"
        },
        {
          "internalType": "address",
          "name": "_firstRedemptionHint",
          "type": "address"
        },
        {
          "internalType": "address",
          "name": "_upperPartialRedemptionHint",
          "type": "address"
        },
        {
          "internalType": "address",
          "name": "_lowerPartialRedemptionHint",
          "type": "address"
        },
        {
          "internalType": "uint256",
          "name": "_partialRedemptionHintNICR",
          "type": "uint256"
        },
        {
          "internalType": "uint256",
          "name": "_maxIterations",
          "type": "uint256"
        },
        {
          "internalType": "uint256",
          "name": "_maxFeePercentage",
          "type": "uint256"
        }
      ],
      "name": "redeemCollateral",
      "outputs": [],
      "stateMutability": "nonpayable",
      "type": "function"
    },
    {
      "inputs": [],
      "name": "redemptionBaseRate",
      "outputs": [
        {
          "internalType": "uint256",
          "name": "",
          "type": "uint256"
        }
      ],
      "stateMutability": "view",
      "type": "function"
    },
    {
      "inputs": [
        {
          "internalType": "address",
          "name": "_borrower",
          "type": "address"
        }
      ],
      "name": "removeStake",
      "outputs": [],
      "stateMutability": "nonpayable",
      "type": "function"
    },
    {
      "inputs": [],
      "name": "renounceOwnership",
      "outputs": [],
      "stateMutability": "nonpayable",
      "type": "function"
    },
    {
      "inputs": [
        {
          "internalType": "address",
          "name": "",
          "type": "address"
        }
      ],
      "name": "rewardSnapshots",
      "outputs": [
        {
          "internalType": "uint256",
          "name": "WStETH",
          "type": "uint256"
        },
        {
          "internalType": "uint256",
          "name": "BaseFeeLMADebt",
          "type": "uint256"
        }
      ],
      "stateMutability": "view",
      "type": "function"
    },
    {
      "inputs": [
        {
          "internalType": "address",
          "name": "_borrowerOperationsAddress",
          "type": "address"
        },
        {
          "internalType": "address",
          "name": "_activePoolAddress",
          "type": "address"
        },
        {
          "internalType": "address",
          "name": "_defaultPoolAddress",
          "type": "address"
        },
        {
          "internalType": "address",
          "name": "_stabilityPoolAddress",
          "type": "address"
        },
        {
          "internalType": "address",
          "name": "_gasPoolAddress",
          "type": "address"
        },
        {
          "internalType": "address",
          "name": "_collSurplusPoolAddress",
          "type": "address"
        },
        {
          "internalType": "address",
          "name": "_priceFeedAddress",
          "type": "address"
        },
        {
          "internalType": "address",
          "name": "_baseFeeLMATokenAddress",
          "type": "address"
        },
        {
          "internalType": "address",
          "name": "_sortedTrovesAddress",
          "type": "address"
        },
        {
          "internalType": "address",
          "name": "_hogTokenAddress",
          "type": "address"
        },
        {
          "internalType": "contract IFeesRouter",
          "name": "_feesRouterAddress",
          "type": "address"
        }
      ],
      "name": "setAddresses",
      "outputs": [],
      "stateMutability": "nonpayable",
      "type": "function"
    },
    {
      "inputs": [
        {
          "internalType": "address",
          "name": "_borrower",
          "type": "address"
        },
        {
          "internalType": "uint256",
          "name": "_num",
          "type": "uint256"
        }
      ],
      "name": "setTroveStatus",
      "outputs": [],
      "stateMutability": "nonpayable",
      "type": "function"
    },
    {
      "inputs": [],
      "name": "sortedTroves",
      "outputs": [
        {
          "internalType": "contract ISortedTroves",
          "name": "",
          "type": "address"
        }
      ],
      "stateMutability": "view",
      "type": "function"
    },
    {
      "inputs": [],
      "name": "stabilityPool",
      "outputs": [
        {
          "internalType": "contract IStabilityPool",
          "name": "",
          "type": "address"
        }
      ],
      "stateMutability": "view",
      "type": "function"
    },
    {
      "inputs": [],
      "name": "totalCollateralSnapshot",
      "outputs": [
        {
          "internalType": "uint256",
          "name": "",
          "type": "uint256"
        }
      ],
      "stateMutability": "view",
      "type": "function"
    },
    {
      "inputs": [],
      "name": "totalStakes",
      "outputs": [
        {
          "internalType": "uint256",
          "name": "",
          "type": "uint256"
        }
      ],
      "stateMutability": "view",
      "type": "function"
    },
    {
      "inputs": [],
      "name": "totalStakesSnapshot",
      "outputs": [
        {
          "internalType": "uint256",
          "name": "",
          "type": "uint256"
        }
      ],
      "stateMutability": "view",
      "type": "function"
    },
    {
      "inputs": [
        {
          "internalType": "address",
          "name": "newOwner",
          "type": "address"
        }
      ],
      "name": "transferOwnership",
      "outputs": [],
      "stateMutability": "nonpayable",
      "type": "function"
    },
    {
      "inputs": [
        {
          "internalType": "uint256",
          "name": "_newBaseRate",
          "type": "uint256"
        }
      ],
      "name": "updateBaseRateFromBorrowing",
      "outputs": [],
      "stateMutability": "nonpayable",
      "type": "function"
    },
    {
      "inputs": [
        {
          "internalType": "address",
          "name": "_borrower",
          "type": "address"
        }
      ],
      "name": "updateStakeAndTotalStakes",
      "outputs": [
        {
          "internalType": "uint256",
          "name": "",
          "type": "uint256"
        }
      ],
      "stateMutability": "nonpayable",
      "type": "function"
    },
    {
      "inputs": [
        {
          "internalType": "address",
          "name": "_borrower",
          "type": "address"
        }
      ],
      "name": "updateTroveRewardSnapshots",
      "outputs": [],
      "stateMutability": "nonpayable",
      "type": "function"
    }
  ],
  "transactionHash": "0xa8651469ca5923f762ce134ad0ebaab898561ffdf0e264aecbedf85a83e2c60e",
  "args": [
    "100000",
    "100000"
  ],
  "numDeployments": 1,
  "solcInputHash": "26b7e46187074ecdc3b4eda7be7ea101",
  "bytecode": "0x60c06040523480156200001157600080fd5b5060405162005e0738038062005e078339810160408190526200003491620000a3565b608082905260a0819052620000493362000051565b5050620000c8565b600380546001600160a01b038381166001600160a01b0319831681179093556040519116919082907f8be0079c531659141344cd1fd0a4f28419497f9722a3daafe3b4186f6b6457e090600090a35050565b60008060408385031215620000b757600080fd5b505080516020909101519092909150565b60805160a051615cef62000118600039600081816105d6015261447701526000818161092c015281816143bb015281816143fb01528181614a8001528181614ea4015261558e0152615cef6000f3fe608060405234801561001057600080fd5b50600436106104d85760003560e01c80637e024ad611610283578063b91af97c1161015c578063d5b35635116100ce578063e2ac77b011610092578063e2ac77b014610b2b578063e324634914610b3e578063f2fde38b14610b47578063f92d343314610636578063fb0cbd4b14610b5a578063fe2ba84814610b6957600080fd5b8063d5b3563514610ac1578063d66a255314610ad4578063d696629714610afd578063d9a7244414610b10578063e1f787e914610b2357600080fd5b8063c35bc55011610120578063c35bc55014610a62578063c3eb5c6714610a6c578063c42dab9914610a75578063cbd138ae14610a88578063d293c71014610a9b578063d3d6f84314610aae57600080fd5b8063b91af97c14610a01578063bb6f030c14610a34578063bcd3752614610a3d578063bf9befb114610a50578063c26c880014610a5957600080fd5b80639f7adb5e116101f5578063ae918754116101b9578063ae91875414610999578063b0d8e181146109ac578063b25c3183146109bf578063b36cd07f146109c8578063b7f8cf9b146109db578063b82f263d146109ee57600080fd5b80639f7adb5e14610914578063a201415214610927578063a20baee614610627578063a22b7d681461094e578063a3f4df7e1461096157600080fd5b80638da5cb5b116102475780638da5cb5b146108b85780638f913789146108c9578063900e664b146108dc578063948ba6d2146108e557806396d711ff146108f85780639976cf451461090157600080fd5b80637e024ad6146108725780637f7dde4a14610881578063807d138d1461089457806382fe3eb91461089d578063887105d3146108b057600080fd5b80634870dd9a116103b5578063653d46e71161032757806372fe25aa116102eb57806372fe25aa14610627578063741bef1a14610822578063756b253e14610835578063794e572414610848578063795d26c3146108575780637985c5e41461085f57600080fd5b8063653d46e7146107935780636ef64338146107a6578063715018a6146107ff57806371f256e21461080757806372423c171461080f57600080fd5b806358b8a5d61161037957806358b8a5d61461071e5780635d6b480f146107315780635dba4c4a1461074457806361ec893d1461074c578063631203b01461075457806364cee2601461076757600080fd5b80634870dd9a146106c957806349eefeee146106d15780634e443d9e146106d9578063570dc45e146106fc5780635733d58f1461070f57600080fd5b80631e8b1c2b1161044e5780632d81dd56116104125780632d81dd561461063e5780632f865568146106515780633cc742251461066457806347142aa314610677578063477d66cf1461068a578063480cd5781461069d57600080fd5b80631e8b1c2b146105f857806321e378011461060b57806322afd9f11461061e578063240926691461062757806328d28b5b1461063657600080fd5b806312610e92116104a057806312610e921461055357806315d549f1146105665780631673c79a1461057957806318f2817a146105b55780631b199a64146105c85780631bf43555146105d157600080fd5b8063030c5a0f146104dd578063048c661d14610503578063071a7541146105235780630b0765571461052b5780630c08ff5f14610540575b600080fd5b6104f06104eb366004615709565b610b7c565b6040519081526020015b60405180910390f35b600554610516906001600160a01b031681565b6040516104fa9190615726565b6104f0600281565b61053e610539366004615709565b610c35565b005b6104f061054e366004615709565b610c5d565b6104f061056136600461573a565b610c88565b6104f0610574366004615709565b610cda565b6105a0610587366004615709565b6016602052600090815260409020805460019091015482565b604080519283526020830191909152016104fa565b6104f06105c3366004615709565b610cfc565b6104f060195481565b6104f07f000000000000000000000000000000000000000000000000000000000000000081565b61053e61060636600461577c565b610d0f565b6104f0610619366004615709565b611118565b6104f060145481565b6104f0670de0b6b3a764000081565b6104f0611148565b6104f061064c366004615841565b61116a565b61053e61065f366004615709565b61118a565b600154610516906001600160a01b031681565b6104f0610685366004615841565b6111f6565b6104f0610698366004615863565b61120e565b6104f06106ab366004615709565b6001600160a01b031660009081526010602052604090206001015490565b6104f060c881565b6017546104f0565b6106ec6106e7366004615863565b611222565b60405190151581526020016104fa565b600954610516906001600160a01b031681565b6104f0674563918244f4000081565b6104f061072c366004615863565b61122d565b61053e61073f36600461573a565b61123b565b61053e611293565b6104f0603c81565b6105a0610762366004615863565b6112ff565b6104f0610775366004615709565b6001600160a01b031660009081526010602052604090206002015490565b61053e6107a1366004615863565b611322565b6107ee6107b4366004615709565b60106020526000908152604090208054600182015460028301546003909301549192909160ff81169061010090046001600160801b031685565b6040516104fa959493929190615892565b61053e61168c565b6106ec6116a0565b6104f061081d36600461573a565b611726565b600254610516906001600160a01b031681565b610516610843366004615863565b61177d565b6104f06714d1120d7b16000081565b6104f06117a7565b61053e61086d3660046158d8565b6118a3565b6104f0670ddd4b8c6c7d70d881565b600054610516906001600160a01b031681565b6104f060125481565b61053e6108ab366004615709565b611c1f565b6104f0611c30565b6003546001600160a01b0316610516565b600854610516906001600160a01b031681565b6104f060155481565b6104f06108f3366004615863565b611cf5565b6104f060135481565b6104f061090f36600461573a565b611d08565b61053e610922366004615863565b611d35565b6104f07f000000000000000000000000000000000000000000000000000000000000000081565b6104f061095c366004615863565b611e3a565b61098c6040518060400160405280600c81526020016b2a3937bb32a6b0b730b3b2b960a11b81525081565b6040516104fa91906159b6565b600b54610516906001600160a01b031681565b6104f06109ba366004615709565b611e4d565b6104f060185481565b6104f06109d6366004615863565b611e74565b600454610516906001600160a01b031681565b6104f06109fc366004615863565b611e82565b610a14610a0f366004615709565b611e8d565b6040805194855260208501939093529183015260608201526080016104fa565b6104f0600c5481565b61053e610a4b366004615a04565b611ee5565b6104f060115481565b6104f0600f5481565b6104f06212750081565b6104f0600d5481565b600a54610516906001600160a01b031681565b61053e610a96366004615709565b6125ef565b6104f0610aa936600461573a565b612602565b6104f0610abc36600461573a565b612621565b6104f0610acf366004615863565b612651565b6104f0610ae2366004615709565b6001600160a01b031660009081526010602052604090205490565b6104f0610b0b366004615709565b612665565b610516610b1e366004615863565b6126fe565b6104f061272e565b6106ec610b39366004615709565b6127af565b6104f0600e5481565b61053e610b55366004615709565b612812565b6104f0670dc14847bcc53b2081565b61053e610b77366004615709565b612888565b6001600160a01b0381166000908152601660205260408120546014548290610ba49083612899565b9050801580610be3575060016001600160a01b03851660009081526010602052604090206003015460ff166004811115610be057610be061587c565b14155b15610bf2575060009392505050565b6001600160a01b03841660009081526010602052604081206002015490610c2b670de0b6b3a7640000610c2584866128ac565b906128b8565b9695505050505050565b610c3d6128c4565b600054600154610c5a916001600160a01b03908116911683612944565b50565b6001600160a01b0381166000908152601660205260408120600101546015548290610ba49083612899565b6000610c926128c4565b6001600160a01b038316600090815260106020526040812054610cb59084612899565b6001600160a01b03851660009081526010602052604090208190559150505b92915050565b6000610ce46128c4565b610ced82612a4a565b6001600160801b031692915050565b6000610d066128c4565b610cd482612ae4565b8051600003610d845760405162461bcd60e51b815260206004820152603660248201527f54726f76654d616e616765723a2043616c6c646174612061646472657373206160448201527572726179206d757374206e6f7420626520656d70747960501b60648201526084015b60405180910390fd5b6000546001546005546001600160a01b03928316929182169116610da661561f565b610dae615650565b600260009054906101000a90046001600160a01b03166001600160a01b0316630fdb11cf6040518163ffffffff1660e01b81526004016020604051808303816000875af1158015610e03573d6000803e3d6000fd5b505050506040513d601f19601f82011682018060405250810190610e279190615a72565b826000018181525050826001600160a01b031663488df0fc6040518163ffffffff1660e01b8152600401602060405180830381865afa158015610e6e573d6000803e3d6000fd5b505050506040513d601f19601f82011682018060405250810190610e929190615a72565b60208301528151610ea290612b88565b1580156040840152610eca57610ec38585846000015185602001518a612ba5565b9050610ee2565b610edf8585846000015185602001518a612dcc565b90505b6000816020015111610f065760405162461bcd60e51b8152600401610d7b90615a8b565b608081015160a082015160405163335525ad60e01b81526001600160a01b0386169263335525ad92610f4392600401918252602082015260400190565b600060405180830381600087803b158015610f5d57600080fd5b505af1158015610f71573d6000803e3d6000fd5b50505050610f8985858360c001518460e00151612e9c565b610100810151156110675760075461010082015160405162f9332d60e61b81526001600160a01b0390921691633e4ccb4091610fcb9160040190815260200190565b600060405180830381600087803b158015610fe557600080fd5b505af1158015610ff9573d6000803e3d6000fd5b50506007546101008401516040516316daab2160e01b81526001600160a01b03808b1695506316daab21945061103493169190600401615acd565b600060405180830381600087803b15801561104e57600080fd5b505af1158015611062573d6000803e3d6000fd5b505050505b611075858260400151613130565b60208101516060830152610100810151604082015182516110a1929161109b9190612899565b90612899565b6080838101829052606080850151604085810151868401518251938452602084019690965290820152908101929092527f4152c73dd2614c4f9fc35e8c9cf16013cd588c75b49a4c1673ecffdcbcda9403910160405180910390a1611110853383606001518460400151613274565b505050505050565b6001600160a01b03811660009081526010602052604081206003015460ff166004811115610cd457610cd461587c565b61115c6103e8670de0b6b3a7640000615b12565b611167906005615b26565b81565b60008061118284846014670de0b6b3a7640000613357565b949350505050565b61119381613462565b6040805160018082528183019092526000916020808301908036833701905050905081816000815181106111c9576111c9615b3d565b60200260200101906001600160a01b031690816001600160a01b0316815250506111f281610d0f565b5050565b600080611182848460146714d1120d7b160000613357565b6000610cd461121c83611cf5565b836134f9565b6000610cd482612b88565b6000610cd4600c5483613511565b6112436128c4565b8060048111156112555761125561587c565b6001600160a01b0383166000908152601060205260409020600301805460ff1916600183600481111561128a5761128a61587c565b02179055505050565b61129b6128c4565b60006112a561364a565b9050670de0b6b3a76400008111156112bf576112bf615b53565b600d8190556040518181527fca870d46d67e9a1444a6b8f97a147e06e4cf71ee2a0f172d7ecd5441ae7c12019060200160405180910390a1610c5a61368e565b600080600061130d84611e74565b905061131981856134f9565b94909350915050565b6040805160c081018252600080546001600160a01b03908116835260015481166020840152928201819052600b54831660608301526080820181905260a082015260055490911661137161561f565b611379615650565b600260009054906101000a90046001600160a01b03166001600160a01b0316630fdb11cf6040518163ffffffff1660e01b81526004016020604051808303816000875af11580156113ce573d6000803e3d6000fd5b505050506040513d601f19601f820116820180604052508101906113f29190615a72565b826000018181525050826001600160a01b031663488df0fc6040518163ffffffff1660e01b8152600401602060405180830381865afa158015611439573d6000803e3d6000fd5b505050506040513d601f19601f8201168201806040525081019061145d9190615a72565b6020830152815161146d90612b88565b15801560408401526114945761148d8483600001518460200151886136e5565b90506114b4565b6114b1846000015185602001518460000151856020015189613a62565b90505b60008160200151116114d85760405162461bcd60e51b8152600401610d7b90615a8b565b608081015160a082015160405163335525ad60e01b81526001600160a01b0386169263335525ad9261151592600401918252602082015260400190565b600060405180830381600087803b15801561152f57600080fd5b505af1158015611543573d6000803e3d6000fd5b50505050611563846000015185602001518360c001518460e00151612e9c565b610100810151156115da5783516007546101008301516040516316daab2160e01b81526001600160a01b03938416936316daab21936115a793911691600401615acd565b600060405180830381600087803b1580156115c157600080fd5b505af11580156115d5573d6000803e3d6000fd5b505050505b6115ec84600001518260400151613130565b6020810151606083015261010081015160408201518251611612929161109b9190612899565b6080838101829052606080850151604085810151868401518251938452602084019690965290820152908101929092527f4152c73dd2614c4f9fc35e8c9cf16013cd588c75b49a4c1673ecffdcbcda9403910160405180910390a161168584600001513383606001518460400151613274565b5050505050565b611694613b93565b61169e6000613bed565b565b6000611721600260009054906101000a90046001600160a01b03166001600160a01b0316630490be836040518163ffffffff1660e01b8152600401602060405180830381865afa1580156116f8573d6000803e3d6000fd5b505050506040513d601f19601f8201168201806040525081019061171c9190615a72565b612b88565b905090565b60006117306128c4565b6001600160a01b0383166000908152601060205260408120600101546117569084613c3f565b6001600160a01b038516600090815260106020526040902060010181905591505092915050565b6017818154811061178d57600080fd5b6000918252602090912001546001600160a01b0316905081565b60008054604080516315b3137b60e21b8152905183926001600160a01b0316916356cc4dec9160048083019260209291908290030181865afa1580156117f1573d6000803e3d6000fd5b505050506040513d601f19601f820116820180604052508101906118159190615a72565b90506000600160009054906101000a90046001600160a01b03166001600160a01b03166356cc4dec6040518163ffffffff1660e01b8152600401602060405180830381865afa15801561186c573d6000803e3d6000fd5b505050506040513d601f19601f820116820180604052508101906118909190615a72565b905061189c8282613c3f565b9250505090565b6118ab613b93565b6118b48b613c4b565b6118bd8a613c4b565b6118c689613c4b565b6118cf88613c4b565b6118d887613c4b565b6118e186613c4b565b6118ea85613c4b565b6118f384613c4b565b6118fc83613c4b565b61190582613c4b565b61190e81613c4b565b600480546001600160a01b03199081166001600160a01b038e8116919091179092556000805482168d84161790556001805482168c84161790556005805482168b84161790556006805482168a8416179055600780548216898416179055600280548216888416179055600880548216878416179055600b80548216868416179055600980548216858416179055600a80549091169183169190911790556040517f3ca631ffcd2a9b5d9ae18543fc82f58eb4ca33af9e6ab01b7a8e95331e6ed985906119dc908d90615726565b60405180910390a17f78f058b189175430c48dc02699e3a0031ea4ff781536dc2fab847de4babdd8828a604051611a139190615726565b60405180910390a17f5ee0cae2f063ed938bb55046f6a932fb6ae792bf43624806bb90abe68a50be9b89604051611a4a9190615726565b60405180910390a17f82966d27eea39b038ee0fa30cd16532bb24f6e65d31cb58fb227aa5766cdcc7f88604051611a819190615726565b60405180910390a17fcfb07d791fcafc032b35837b50eb84b74df518cf4cc287e8084f47630fa70fa087604051611ab89190615726565b60405180910390a17fe67f36a6e961157d6eff83b91f3af5a62131ceb6f04954ef74f51c1c05e7f88d86604051611aef9190615726565b60405180910390a17f8c537274438aa850a330284665d81a85dd38267d09e4050d416bfc94142db26485604051611b269190615726565b60405180910390a17f7faa560f2889840c377209fbc4b6b92d05f43f1fc60bf336ab546fd60c0051ad84604051611b5d9190615726565b60405180910390a17f65f4cf077bc01e4742eb5ad98326f6e95b63548ea24b17f8d5e823111fe7880083604051611b949190615726565b60405180910390a17f0d32e4ef3d389440323b172cfc07c6c01bdd1d3e8334379048eec21e8d919b7782604051611bcb9190615726565b60405180910390a17f6877e00d9059f8716bd795b5d4c2c89a4bc3cef71ba3dd99b168ac9cc1f2a6c281604051611c029190615726565b60405180910390a1611c1261168c565b5050505050505050505050565b611c276128c4565b610c5a81613cf0565b6000805460408051630ee2ec9760e41b8152905183926001600160a01b03169163ee2ec9709160048083019260209291908290030181865afa158015611c7a573d6000803e3d6000fd5b505050506040513d601f19601f82011682018060405250810190611c9e9190615a72565b90506000600160009054906101000a90046001600160a01b03166001600160a01b031663ee2ec9706040518163ffffffff1660e01b8152600401602060405180830381865afa15801561186c573d6000803e3d6000fd5b6000610cd4611d02613d54565b83613d98565b6000611d126128c4565b6001600160a01b038316600090815260106020526040812054610cb59084613c3f565b6004546001600160a01b03163314611da75760405162461bcd60e51b815260206004820152602f60248201527f54726f76654d616e616765723a204f6e6c7920426f72726f776572206f70657260448201526e185d1a5bdb9cc81b585e4818d85b1b608a1b6064820152608401610d7b565b611dbb6103e8670de0b6b3a7640000615b12565b611dc6906005615b26565b8110611dfd57611de06103e8670de0b6b3a7640000615b12565b611deb906005615b26565b611df59082615b69565b600d55611e03565b6000600d555b6040518181527fca870d46d67e9a1444a6b8f97a147e06e4cf71ee2a0f172d7ecd5441ae7c1201906020015b60405180910390a150565b6000610cd4611e47613d54565b83613511565b6000806000611e5b84613e77565b915091506000611e6b8383613ef1565b95945050505050565b6000610cd4600d5483613d98565b6000610cd482613f20565b6001600160a01b03811660009081526010602052604081208054600190910154909180611eb985610c5d565b9150611ec485610b7c565b9050611ed08483613c3f565b9350611edc8382613c3f565b92509193509193565b6040805160c08082018352600080546001600160a01b0390811684526001548116602080860191909152600854821685870152600b548216606080870191909152600754831660808088019190915260065490931660a080880191909152875161010081018952858152928301859052968201849052810183905290810182905293840181905290830181905260e083015290611f8183613f44565b600260009054906101000a90046001600160a01b03166001600160a01b0316630fdb11cf6040518163ffffffff1660e01b81526004016020604051808303816000875af1158015611fd6573d6000803e3d6000fd5b505050506040513d601f19601f82011682018060405250810190611ffa9190615a72565b60c0820181905261200a90613fdf565b61201389614052565b6120228260400151338b6140b9565b61202a6117a7565b60e0820181905260408084015190516370a0823160e01b81526001600160a01b03909116906370a0823190612063903390600401615726565b602060405180830381865afa158015612080573d6000803e3d6000fd5b505050506040513d601f19601f820116820180604052508101906120a49190615a72565b11156120b2576120b2615b53565b888152606082015160c08201516000916120cd918b906141b9565b156120d95750876121eb565b82606001516001600160a01b0316634d6228316040518163ffffffff1660e01b8152600401602060405180830381865afa15801561211b573d6000803e3d6000fd5b505050506040513d601f19601f8201168201806040525081019061213f9190615b7c565b90505b6001600160a01b0381161580159061216e57506714d1120d7b16000061216c828460c00151612602565b105b156121eb5782606001516001600160a01b031663b72703ac826040518263ffffffff1660e01b81526004016121a39190615726565b602060405180830381865afa1580156121c0573d6000803e3d6000fd5b505050506040513d601f19601f820116820180604052508101906121e49190615b7c565b9050612142565b846000036121f95760001994505b6001600160a01b038116158015906122115750815115155b801561221d5750600085115b15612329578461222c81615b99565b955050600083606001516001600160a01b031663b72703ac836040518263ffffffff1660e01b81526004016122619190615726565b602060405180830381865afa15801561227e573d6000803e3d6000fd5b505050506040513d601f19601f820116820180604052508101906122a29190615b7c565b90506122b78460000151856020015184612944565b60006122d0858486600001518760c001518e8e8e614303565b90508060400151156122e3575050612329565b805160208501516122f391613c3f565b602080860191909152810151604085015161230d91613c3f565b60408501528051845161231f91612899565b84525090506121f9565b600082604001511161238f5760405162461bcd60e51b815260206004820152602960248201527f54726f76654d616e616765723a20556e61626c6520746f2072656465656d20616044820152681b9e48185b5bdd5b9d60ba1b6064820152608401610d7b565b61239c82604001516145a8565b506123aa82604001516146b5565b6060830181905260408301516123c19190866146c3565b600a54604080840151606085015191516318ddad8960e21b81526001600160a01b0390931692636376b624926124039291600401918252602082015260400190565b600060405180830381600087803b15801561241d57600080fd5b505af1158015612431573d6000803e3d6000fd5b505050506060820151604083015161244891612899565b60808301526020820151604080840151606085015191517f43a3f4082a4dbc33d78e317d2497d3a730bc7fc3574159dcea1056e62e5d9ad8936124a4938f93919293845260208401929092526040830152606082015260800190565b60405180910390a182604001516001600160a01b0316639dc29fac3384602001516040518363ffffffff1660e01b81526004016124e2929190615acd565b600060405180830381600087803b1580156124fc57600080fd5b505af1158015612510573d6000803e3d6000fd5b505084516020850151604051633b4009ff60e11b81526001600160a01b03909216935063768013fe925061254a9160040190815260200190565b600060405180830381600087803b15801561256457600080fd5b505af1158015612578573d6000803e3d6000fd5b5050845160808501516040516316daab2160e01b81526001600160a01b0390921693506316daab2192506125b191339190600401615acd565b600060405180830381600087803b1580156125cb57600080fd5b505af11580156125df573d6000803e3d6000fd5b5050505050505050505050505050565b6125f76128c4565b610c5a81600261472d565b600080600061261085613e77565b915091506000610c2b83838761485a565b600061262b6128c4565b6001600160a01b0383166000908152601060205260408120600101546117569084612899565b6000610cd461265f83611e3a565b8361488e565b600080600260009054906101000a90046001600160a01b03166001600160a01b0316630490be836040518163ffffffff1660e01b8152600401602060405180830381865afa1580156126bb573d6000803e3d6000fd5b505050506040513d601f19601f820116820180604052508101906126df9190615a72565b90506000806126ed85613e77565b915091506000610c2b83838661485a565b60006017828154811061271357612713615b3d565b6000918252602090912001546001600160a01b031692915050565b6000611721600260009054906101000a90046001600160a01b03166001600160a01b0316630490be836040518163ffffffff1660e01b8152600401602060405180830381865afa158015612786573d6000803e3d6000fd5b505050506040513d601f19601f820116820180604052508101906127aa9190615a72565b613f20565b600060016001600160a01b03831660009081526010602052604090206003015460ff1660048111156127e3576127e361587c565b146127f057506000919050565b506014546001600160a01b039091166000908152601660205260409020541090565b61281a613b93565b6001600160a01b03811661287f5760405162461bcd60e51b815260206004820152602660248201527f4f776e61626c653a206e6577206f776e657220697320746865207a65726f206160448201526564647265737360d01b6064820152608401610d7b565b610c5a81613bed565b6128906128c4565b610c5a816148a7565b60006128a58284615b69565b9392505050565b60006128a58284615b26565b60006128a58284615b12565b6004546001600160a01b0316331461169e5760405162461bcd60e51b815260206004820152603b60248201527f54726f76654d616e616765723a2043616c6c6572206973206e6f74207468652060448201527f426f72726f7765724f7065726174696f6e7320636f6e747261637400000000006064820152608401610d7b565b61294d816127af565b15612a455761295b81613462565b600061296682610b7c565b9050600061297383610c5d565b6001600160a01b03841660009081526010602052604090206001015490915061299c9083613c3f565b6001600160a01b03841660009081526010602052604090206001810191909155546129c79082613c3f565b6001600160a01b0384166000908152601060205260409020556129e983613cf0565b6129f5858583856148f1565b6001600160a01b038316600081815260106020526040808220805460018201546002909201549251600080516020615c9a83398151915294612a3a9492939291615bc4565b60405180910390a250505b505050565b601780546001808201835560008381527fc624b66cc0138b8fabc209247f72d758e1cf3343756d543badbf24212bed8c1590920180546001600160a01b0319166001600160a01b03861617905591549091612aa59190612899565b6001600160a01b039290921660009081526010602052604090206003018054610100600160881b0319166101006001600160801b038516021790555090565b6001600160a01b0381166000908152601060205260408120600101548190612b0b906149d2565b6001600160a01b038416600090815260106020526040902060020180549082905560115491925090612b49908390612b439084612899565b90613c3f565b60118190556040519081527f6bac5e0eb3c44eb03a60ab11ec3a2c051771616aecadbcfff2630aabae5203829060200160405180910390a15092915050565b600080612b9483613f20565b674563918244f40000119392505050565b612bad615650565b612bb561569c565b612bbd615650565b84825260006080830152612bcf6117a7565b60a0830152612bdc611c30565b60c0830152600060208301525b835182602001511015612dc15783826020015181518110612c0c57612c0c615b3d565b6020908102919091018101516001600160a01b03166060840181905260009081526010909152604090206003015460019060ff166004811115612c5157612c5161587c565b03612da957612c64826060015187612602565b60408301526080820151612d51576714d1120d7b160000826040015110158015612c8d57508151155b612da9576000612ca68360c001518460a001518961485a565b9050612cc38989856060015186604001518760000151868d614a13565b60808101518451919350612cd79190612899565b8352608082015160a0840151612cec91612899565b8360a0018181525050612d2182610100015161109b846040015161109b8660a001518860c0015161289990919063ffffffff16565b60c0840152612d308483614d24565b9350612d458360c001518460a0015189614e05565b15608084015250612da9565b81608001518015612d6d57506714d1120d7b1600008260400151105b15612da957612d86888884606001518560000151614e26565b60808101518351919250612d9a9190612899565b8252612da68382614d24565b92505b60208201805190612db982615be6565b905250612be9565b505095945050505050565b612dd4615650565b612ddc61569c565b612de4615650565b848252600060208301525b835182602001511015612dc15783826020015181518110612e1257612e12615b3d565b60209081029190910101516001600160a01b031660608301819052612e379087612602565b604083018190526714d1120d7b1600001115612e8457612e61888884606001518560000151614e26565b60808101518351919250612e759190612899565b8252612e818382614d24565b92505b60208201805190612e9482615be6565b905250612def565b811561312a57601854600090612ebe90612b4384670de0b6b3a76400006128ac565b90506000612ee3601954612b43670de0b6b3a7640000876128ac90919063ffffffff16565b90506000612efc601154846128b890919063ffffffff16565b90506000612f15601154846128b890919063ffffffff16565b9050612f36612f2f601154846128ac90919063ffffffff16565b8590612899565b601855601154612f5290612f4b9083906128ac565b8490612899565b601955601454612f629083613c3f565b601455601554612f729082613c3f565b60158190556014546040517f9f8bc8ab0daf5bceef75ecfd2085d1fcc6548c657ea970d9a23a60610d0737e392612fb0928252602082015260400190565b60405180910390a1604051633b4009ff60e11b8152600481018790526001600160a01b0389169063768013fe90602401600060405180830381600087803b158015612ffa57600080fd5b505af115801561300e573d6000803e3d6000fd5b505060405163262b890160e01b8152600481018990526001600160a01b038a16925063262b89019150602401600060405180830381600087803b15801561305457600080fd5b505af1158015613068573d6000803e3d6000fd5b505060405162f9332d60e61b8152600481018890526001600160a01b038a169250633e4ccb409150602401600060405180830381600087803b1580156130ad57600080fd5b505af11580156130c1573d6000803e3d6000fd5b50506040516316daab2160e01b81526001600160a01b038b1692506316daab2191506130f3908a908990600401615acd565b600060405180830381600087803b15801561310d57600080fd5b505af1158015613121573d6000803e3d6000fd5b50505050505050505b50505050565b6011546012819055506000826001600160a01b031663ee2ec9706040518163ffffffff1660e01b8152600401602060405180830381865afa158015613179573d6000803e3d6000fd5b505050506040513d601f19601f8201168201806040525081019061319d9190615a72565b90506000600160009054906101000a90046001600160a01b03166001600160a01b031663ee2ec9706040518163ffffffff1660e01b8152600401602060405180830381865afa1580156131f4573d6000803e3d6000fd5b505050506040513d601f19601f820116820180604052508101906132189190615a72565b905061322881612b438486612899565b60138190556012546040517f51bf4c63ec3cba9d03d43238abbdd979dd91bd16d9895c74ceea9118c7baaf6092613266928252602082015260400190565b60405180910390a150505050565b81156132eb57600854600654604051631062c15f60e11b81526001600160a01b0391821660048201528582166024820152604481018590529116906320c582be90606401600060405180830381600087803b1580156132d257600080fd5b505af11580156132e6573d6000803e3d6000fd5b505050505b801561312a576040516316daab2160e01b81526001600160a01b038516906316daab219061331f9086908590600401615acd565b600060405180830381600087803b15801561333957600080fd5b505af115801561334d573d6000803e3d6000fd5b5050505050505050565b60006001633b9aca008261336b8287615b26565b905060006133798388615b26565b90505b613388836102ee615b26565b811161345357600061339b8a8a8461485a565b9050868110156133f757825b8281111580156133c057506133bc858a615b26565b8110155b156133f557876133d18c8c8461485a565b10156133e4579550611182945050505050565b6133ee8582615b69565b90506133a7565b505b6134096702c68af0bb14000088615b69565b8110156134225761341b846014615b26565b945061343e565b6134338766b1a2bc2ec50000615bff565b81111561343e578394505b5090508061344c8482615bff565b905061337c565b50600098975050505050505050565b60016001600160a01b03821660009081526010602052604090206003015460ff1660048111156134945761349461587c565b14610c5a5760405162461bcd60e51b815260206004820152602f60248201527f54726f76654d616e616765723a2054726f766520646f6573206e6f742065786960448201526e1cdd081bdc881a5cc818db1bdcd959608a1b6064820152608401610d7b565b60006128a5670de0b6b3a7640000610c2585856128ac565b60006128a561363c613619600160009054906101000a90046001600160a01b03166001600160a01b031663ee2ec9706040518163ffffffff1660e01b8152600401602060405180830381865afa15801561356f573d6000803e3d6000fd5b505050506040513d601f19601f820116820180604052508101906135939190615a72565b60008054906101000a90046001600160a01b03166001600160a01b031663ee2ec9706040518163ffffffff1660e01b8152600401602060405180830381865afa1580156135e4573d6000803e3d6000fd5b505050506040513d601f19601f820116820180604052508101906136089190615a72565b6136129190615bff565b85906128b8565b612b43866136316103e8670de0b6b3a7640000615b12565b612b43906005615b26565b670de0b6b3a7640000614f85565b600080613655614f9b565b9050600061366b670dc14847bcc53b2083614fb7565b905061189c670de0b6b3a7640000610c2583600d546128ac90919063ffffffff16565b60006136a5600f544261289990919063ffffffff16565b9050603c8110610c5a5742600f8190556040519081527f4ac50c32a269c2cfea9cf04e466da1ab839008441fadf7108e4f05410c2bfd5f90602001611e2f565b6136ed615650565b6136f561569c565b6136fd615650565b8482526000608083015261370f6117a7565b60a083015261371c611c30565b8260c001818152505086606001516001600160a01b0316634d6228316040518163ffffffff1660e01b8152600401602060405180830381865afa158015613767573d6000803e3d6000fd5b505050506040513d601f19601f8201168201806040525081019061378b9190615b7c565b82606001906001600160a01b031690816001600160a01b031681525050600087606001516001600160a01b0316631e2231436040518163ffffffff1660e01b8152600401602060405180830381865afa1580156137ec573d6000803e3d6000fd5b505050506040513d601f19601f820116820180604052508101906138109190615b7c565b6000602085015290505b8483602001511080156138435750806001600160a01b031683606001516001600160a01b031614155b15613a5757600088606001516001600160a01b031663b72703ac85606001516040518263ffffffff1660e01b815260040161387e9190615726565b602060405180830381865afa15801561389b573d6000803e3d6000fd5b505050506040513d601f19601f820116820180604052508101906138bf9190615b7c565b90506138cf846060015189612602565b604085015260808401516139c7576714d1120d7b1600008460400151101580156138f857508351155b156139035750613a57565b60006139188560c001518660a001518b61485a565b8a5160208c015160608801516040890151895194955061393994868f614a13565b6080810151865191955061394d9190612899565b8552608084015160a086015161396291612899565b8560a001818152505061399784610100015161109b866040015161109b8860a001518a60c0015161289990919063ffffffff16565b60c08601526139a68685614d24565b95506139bb8560c001518660a001518b614e05565b15608086015250613a31565b836080015180156139e357506714d1120d7b1600008460400151105b15613a2b57613a0489600001518a6020015186606001518760000151614e26565b60808101518551919450613a189190612899565b8452613a248584614d24565b9450613a31565b50613a57565b6001600160a01b0316606084015260208301805190613a4f82615be6565b90525061381a565b505050949350505050565b613a6a615650565b613a7261569c565b613a7a615650565b600b54858352600060208401526001600160a01b03165b8483602001511015613b8757806001600160a01b0316634d6228316040518163ffffffff1660e01b8152600401602060405180830381865afa158015613adb573d6000803e3d6000fd5b505050506040513d601f19601f82011682018060405250810190613aff9190615b7c565b6001600160a01b031660608401819052613b199088612602565b604084018190526714d1120d7b1600001115613b6a57613b43898985606001518660000151614e26565b60808101518451919350613b579190612899565b8352613b638483614d24565b9350613b6f565b613b87565b60208301805190613b7f82615be6565b905250613a91565b50505095945050505050565b6003546001600160a01b0316331461169e5760405162461bcd60e51b815260206004820181905260248201527f4f776e61626c653a2063616c6c6572206973206e6f7420746865206f776e65726044820152606401610d7b565b600380546001600160a01b038381166001600160a01b0319831681179093556040519116919082907f8be0079c531659141344cd1fd0a4f28419497f9722a3daafe3b4186f6b6457e090600090a35050565b60006128a58284615bff565b6001600160a01b038116613ca15760405162461bcd60e51b815260206004820152601e60248201527f4163636f756e742063616e6e6f74206265207a65726f206164647265737300006044820152606401610d7b565b803b806111f25760405162461bcd60e51b815260206004820181905260248201527f4163636f756e7420636f64652073697a652063616e6e6f74206265207a65726f6044820152606401610d7b565b601480546001600160a01b038316600090815260166020526040908190209182556015546001909201829055915491517fc437f324d85e369394148dd9d62f98f534b382e01ed3dd2eb98138fb6d3ab49a92611e2f92908252602082015260400190565b600080613d5f61505b565b90506000613d75670ddd4b8c6c7d70d883614fb7565b905061189c670de0b6b3a7640000610c2583600c546128ac90919063ffffffff16565b600080600860009054906101000a90046001600160a01b03166001600160a01b03166318160ddd6040518163ffffffff1660e01b8152600401602060405180830381865afa158015613dee573d6000803e3d6000fd5b505050506040513d601f19601f82011682018060405250810190613e129190615a72565b905080600003613e4357613e306103e8670de0b6b3a7640000615b12565b613e3b906005615b26565b915050610cd4565b61118261363c613e5f83610c2587670de0b6b3a76400006128ac565b612b43876136316103e8670de0b6b3a7640000615b12565b6000806000613e8584610b7c565b90506000613e9285610c5d565b6001600160a01b03861660009081526010602052604081206001015491925090613ebc9084613c3f565b6001600160a01b03871660009081526010602052604081205491925090613ee39084613c3f565b919791965090945050505050565b60008115613f1757613f1082610c258568056bc75e2d631000006128ac565b9050610cd4565b50600019610cd4565b600080613f2b611c30565b90506000613f376117a7565b905061118282828661485a565b613f586103e8670de0b6b3a7640000615b12565b613f63906005615b26565b8110158015613f7a5750670de0b6b3a76400008111155b610c5a5760405162461bcd60e51b815260206004820152603060248201527f4d6178206665652070657263656e74616765206d75737420626520626574776560448201526f656e20302e352520616e64203130302560801b6064820152608401610d7b565b6714d1120d7b160000613ff182613f20565b1015610c5a5760405162461bcd60e51b815260206004820152602a60248201527f54726f76654d616e616765723a2043616e6e6f742072656465656d207768656e604482015269102a21a9101e1026a1a960b11b6064820152608401610d7b565b60008111610c5a5760405162461bcd60e51b815260206004820152602e60248201527f54726f76654d616e616765723a20416d6f756e74206d7573742062652067726560448201526d61746572207468616e207a65726f60901b6064820152608401610d7b565b6040516370a0823160e01b815281906001600160a01b038516906370a08231906140e7908690600401615726565b602060405180830381865afa158015614104573d6000803e3d6000fd5b505050506040513d601f19601f820116820180604052508101906141289190615a72565b1015612a455760405162461bcd60e51b815260206004820152605460248201527f54726f76654d616e616765723a2052657175657374656420726564656d70746960448201527f6f6e20616d6f756e74206d757374206265203c3d2075736572277320426173656064820152734665654c4d4120746f6b656e2062616c616e636560601b608482015260a401610d7b565b60006001600160a01b038316158061423b5750604051630bb7c8fd60e31b81526001600160a01b03851690635dbe47e8906141f8908690600401615726565b602060405180830381865afa158015614215573d6000803e3d6000fd5b505050506040513d601f19601f820116820180604052508101906142399190615c12565b155b8061425657506714d1120d7b1600006142548484612602565b105b15614263575060006128a5565b60405163765e015960e01b81526000906001600160a01b0386169063765e015990614292908790600401615726565b602060405180830381865afa1580156142af573d6000803e3d6000fd5b505050506040513d601f19601f820116820180604052508101906142d39190615b7c565b90506001600160a01b0381161580611e6b57506714d1120d7b1600006142f98285612602565b1095945050505050565b614329604051806060016040528060008152602001600081526020016000151581525090565b6001600160a01b03871660009081526010602052604090205461434d908790614f85565b80825261435a90866128ac565b60208083019190915281516001600160a01b03891660009081526010909252604082205461438791612899565b6020808401516001600160a01b038b1660009081526010909252604082206001015492935090916143b791612899565b90507f0000000000000000000000000000000000000000000000000000000000000000820361445d576143e9896148a7565b6143f489600461472d565b6144208a8a7f000000000000000000000000000000000000000000000000000000000000000084615077565b886001600160a01b0316600080516020615c9a833981519152600080600060036040516144509493929190615bc4565b60405180910390a261459a565b60006144698284613ef1565b9050848114158061449957507f000000000000000000000000000000000000000000000000000000000000000083105b156144ad575050600160408301525061459d565b60608b015160405163015f109360e51b81526001600160a01b038c81166004830152602482018490528981166044830152888116606483015290911690632be2126090608401600060405180830381600087803b15801561450d57600080fd5b505af1158015614521573d6000803e3d6000fd5b5050506001600160a01b038b1660009081526010602052604090208481556001018390555061454f8a612ae4565b506001600160a01b038a1660008181526010602052604090819020600201549051600080516020615c9a833981519152916145909187918791600390615bc4565b60405180910390a2505b50505b979650505050505050565b6000806145b3613d54565b9050600061464160008054906101000a90046001600160a01b03166001600160a01b031663ee2ec9706040518163ffffffff1660e01b8152600401602060405180830381865afa15801561460b573d6000803e3d6000fd5b505050506040513d601f19601f8201168201806040525081019061462f9190615a72565b610c2586670de0b6b3a76400006128ac565b9050600061464f8383613c3f565b905061466381670de0b6b3a7640000614f85565b90506000811161467557614675615b53565b600c8190556040518181527fbcd47f9685f1ffa254d0ac495b2e47d57feda8840e9d1f2a54d9d499650502a89060200160405180910390a16111826151d6565b6000610cd461265f8361122d565b60006146db83610c2586670de0b6b3a76400006128ac565b90508181111561312a5760405162461bcd60e51b815260206004820152601d60248201527f4665652065786365656465642070726f7669646564206d6178696d756d0000006044820152606401610d7b565b60008160048111156147415761474161587c565b141580156147615750600181600481111561475e5761475e61587c565b14155b61476d5761476d615b53565b6017546147798161522d565b6001600160a01b0383166000908152601060205260409020600301805483919060ff191660018360048111156147b1576147b161587c565b02179055506001600160a01b03831660009081526010602090815260408083206001808201859055908490556016909252822082815501556147f38382615307565b600b54604051631484968760e11b81526001600160a01b03909116906329092d0e90614823908690600401615726565b600060405180830381600087803b15801561483d57600080fd5b505af1158015614851573d6000803e3d6000fd5b50505050505050565b6000821561488557600061487c83610c25868189670de0b6b3a76400006128ac565b91506128a59050565b506000196128a5565b600080611182670de0b6b3a7640000610c2586866128ac565b6001600160a01b0381166000908152601060205260409020600201546011546148d09082612899565b601155506001600160a01b0316600090815260106020526040812060020155565b604051633b4009ff60e11b8152600481018390526001600160a01b0384169063768013fe90602401600060405180830381600087803b15801561493357600080fd5b505af1158015614947573d6000803e3d6000fd5b505060405163262b890160e01b8152600481018590526001600160a01b038716925063262b89019150602401600060405180830381600087803b15801561498d57600080fd5b505af11580156149a1573d6000803e3d6000fd5b505060405163051eb59960e11b8152600481018490526001600160a01b0386169250630a3d6b32915060240161331f565b6000806013546000036149e6575081610cd4565b6000601254116149f8576149f8615b53565b6128a5601354610c25601254866128ac90919063ffffffff16565b614a1b615650565b614a3f60405180606001604052806000815260200160008152602001600081525090565b601754600110614a4f575061459d565b614a5887611e8d565b60408501526020848101919091528401819052908352614a77906154d7565b604083018190527f000000000000000000000000000000000000000000000000000000000000000060608401526020830151614ab291612899565b8152670de0b6b3a76400008611614b7d57614ad78989836020015184604001516148f1565b614ae0876148a7565b60006080830181905260a0830152815160c0830152805160e0830152614b0787600361472d565b815160208301516040516001600160a01b038a1692600080516020615c7a83398151915292614b3892600290615c34565b60405180910390a2866001600160a01b0316600080516020615c9a83398151915260008060006002604051614b709493929190615bc4565b60405180910390a2614d18565b670de0b6b3a764000086118015614b9b57506714d1120d7b16000086105b15614beb57614bb48989836020015184604001516148f1565b614bbd876148a7565b81518151614bcc9190876154e4565b60e086015260c085015260a08401526080830152614b0787600361472d565b6714d1120d7b1600008610158015614c0257508386105b8015614c0f575081518510155b15614d0757614c288989836020015184604001516148f1565b84600003614c3857614c38615b53565b614c41876148a7565b614c54826000015183602001518561553e565b9150614c6187600361472d565b61010082015115614cd657600754610100830151604051633f10abab60e01b81526001600160a01b0390921691633f10abab91614ca3918b9190600401615acd565b600060405180830381600087803b158015614cbd57600080fd5b505af1158015614cd1573d6000803e3d6000fd5b505050505b815160a08301516040516001600160a01b038a1692600080516020615c7a83398151915292614b3892600290615c34565b614d0f615650565b915061459d9050565b50979650505050505050565b614d2c615650565b60408083015190840151614d3f91613c3f565b604082015260608083015190840151614d5791613c3f565b606082015281516020840151614d6c91613c3f565b6020808301919091528201518351614d8391613c3f565b815260808083015190840151614d9891613c3f565b608082015260a08083015190840151614db091613c3f565b60a082015260c08083015190840151614dc891613c3f565b60c082015260e08083015190840151614de091613c3f565b60e08201526101008083015190840151614df991613c3f565b61010082015292915050565b600080614e1385858561485a565b674563918244f400001195945050505050565b614e2e615650565b614e5260405180606001604052806000815260200160008152602001600081525090565b614e5b84611e8d565b60408501908152602085810192835286019290925291845290519051614e859188918891906148f1565b614e8e846148a7565b614e9b82602001516154d7565b604083018190527f000000000000000000000000000000000000000000000000000000000000000060608401526020830151600091614eda9190612899565b9050614eeb836000015182866154e4565b60e087015260c086015260a08501526080840152614f0a85600361472d565b825160208401516040516001600160a01b03881692600080516020615c7a83398151915292614f3b92600190615c34565b60405180910390a2846001600160a01b0316600080516020615c9a83398151915260008060006001604051614f739493929190615bc4565b60405180910390a25050949350505050565b6000818310614f9457816128a5565b5090919050565b6000611721603c610c25600f544261289990919063ffffffff16565b6000631f540500821115614fcd57631f54050091505b81600003614fe45750670de0b6b3a7640000610cd4565b670de0b6b3a764000083835b600181111561505157615004600282615c4f565b6000036150295761501582836155ef565b91506150228160026128b8565b9050614ff0565b61503382846155ef565b925061503f82836155ef565b91506150226002610c25836001612899565b610c2b82846155ef565b6000611721603c610c25600e544261289990919063ffffffff16565b6040808501516006549151632770a7eb60e21b81526001600160a01b0391821692639dc29fac926150af929116908690600401615acd565b600060405180830381600087803b1580156150c957600080fd5b505af11580156150dd573d6000803e3d6000fd5b50508551604051633b4009ff60e11b8152600481018690526001600160a01b03909116925063768013fe9150602401600060405180830381600087803b15801561512657600080fd5b505af115801561513a573d6000803e3d6000fd5b5050505083608001516001600160a01b0316633f10abab84836040518363ffffffff1660e01b8152600401615170929190615acd565b600060405180830381600087803b15801561518a57600080fd5b505af115801561519e573d6000803e3d6000fd5b5050855160808701516040516316daab2160e01b81526001600160a01b0390921693506316daab21925061331f918590600401615acd565b60006151ed600e544261289990919063ffffffff16565b9050603c8110610c5a5742600e8190556040519081527fbab964312bdd13595266f3e549bca3102965a6d718c6c1f8cd7eaac076b9c6c290602001611e2f565b6001811180156152a85750600b546040805163de8fa43160e01b815290516001926001600160a01b03169163de8fa4319160048083019260209291908290030181865afa158015615282573d6000803e3d6000fd5b505050506040513d601f19601f820116820180604052508101906152a69190615a72565b115b610c5a5760405162461bcd60e51b815260206004820152602a60248201527f54726f76654d616e616765723a204f6e6c79206f6e652074726f766520696e206044820152697468652073797374656d60b01b6064820152608401610d7b565b6001600160a01b03821660009081526010602052604081206003015460ff16908160048111156153395761533961587c565b14158015615359575060018160048111156153565761535661587c565b14155b61536557615365615b53565b6001600160a01b03831660009081526010602052604081206003015461010090046001600160801b031690839061539d826001612899565b905080836001600160801b031611156153b8576153b8615b53565b6000601782815481106153cd576153cd615b3d565b600091825260209091200154601780546001600160a01b03909216925082916001600160801b03871690811061540557615405615b3d565b600091825260208083209190910180546001600160a01b0319166001600160a01b03948516179055918316808252601083526040918290206003018054610100600160881b0319166101006001600160801b038a16908102919091179091558251918252928101929092527f02b04ae5f7be9ca7c103293a2aa15f3c339d15d6eda53b721fef7b0e609c831a910160405180910390a160178054806154ac576154ac615c63565b600082815260209020810160001990810180546001600160a01b031916905501905550505050505050565b6000610cd460c883615b12565b60008080808415615528576154f98786614f85565b935061550987610c2588876128ac565b92506155158785612899565b91506155218684612899565b9050615535565b5060009250829150859050845b93509350935093565b615546615650565b83815260208101839052600061557a670de0b6b3a7640000610c2585615574896714d1120d7b1600006128ac565b906128ac565b9050615585816154d7565b604083018190527f00000000000000000000000000000000000000000000000000000000000000006060840152608083018690526155c4908290612899565b60a08301526155d38482612899565b61010083015250600060c0820181905260e08201529392505050565b6000806155fc84846128ac565b9050611182670de0b6b3a7640000610c25615618600283615b12565b8490613c3f565b6040518060a00160405280600081526020016000815260200160001515815260200160008152602001600081525090565b6040518061012001604052806000815260200160008152602001600081526020016000815260200160008152602001600081526020016000815260200160008152602001600081525090565b6040518060e0016040528060008152602001600081526020016000815260200160006001600160a01b0316815260200160001515815260200160008152602001600081525090565b6001600160a01b0381168114610c5a57600080fd5b8035615704816156e4565b919050565b60006020828403121561571b57600080fd5b81356128a5816156e4565b6001600160a01b0391909116815260200190565b6000806040838503121561574d57600080fd5b8235615758816156e4565b946020939093013593505050565b634e487b7160e01b600052604160045260246000fd5b6000602080838503121561578f57600080fd5b823567ffffffffffffffff808211156157a757600080fd5b818501915085601f8301126157bb57600080fd5b8135818111156157cd576157cd615766565b8060051b604051601f19603f830116810181811085821117156157f2576157f2615766565b60405291825284820192508381018501918883111561581057600080fd5b938501935b8285101561583557615826856156f9565b84529385019392850192615815565b98975050505050505050565b6000806040838503121561585457600080fd5b50508035926020909101359150565b60006020828403121561587557600080fd5b5035919050565b634e487b7160e01b600052602160045260246000fd5b858152602081018590526040810184905260a08101600584106158b7576158b761587c565b60608201939093526001600160801b03919091166080909101529392505050565b60008060008060008060008060008060006101608c8e0312156158fa57600080fd5b8b35615905816156e4565b9a5060208c0135615915816156e4565b995060408c0135615925816156e4565b985060608c0135615935816156e4565b975060808c0135615945816156e4565b965060a08c0135615955816156e4565b955060c08c0135615965816156e4565b945060e08c0135615975816156e4565b93506101008c0135615986816156e4565b92506159956101208d016156f9565b91506159a46101408d016156f9565b90509295989b509295989b9093969950565b600060208083528351808285015260005b818110156159e3578581018301518582016040015282016159c7565b506000604082860101526040601f19601f8301168501019250505092915050565b600080600080600080600060e0888a031215615a1f57600080fd5b873596506020880135615a31816156e4565b95506040880135615a41816156e4565b94506060880135615a51816156e4565b9699959850939660808101359560a0820135955060c0909101359350915050565b600060208284031215615a8457600080fd5b5051919050565b60208082526022908201527f54726f76654d616e616765723a206e6f7468696e6720746f206c697175696461604082015261746560f01b606082015260800190565b6001600160a01b03929092168252602082015260400190565b634e487b7160e01b600052601260045260246000fd5b634e487b7160e01b600052601160045260246000fd5b600082615b2157615b21615ae6565b500490565b8082028115828204841417610cd457610cd4615afc565b634e487b7160e01b600052603260045260246000fd5b634e487b7160e01b600052600160045260246000fd5b81810381811115610cd457610cd4615afc565b600060208284031215615b8e57600080fd5b81516128a5816156e4565b600081615ba857615ba8615afc565b506000190190565b60048110615bc057615bc061587c565b9052565b848152602081018490526040810183905260808101611e6b6060830184615bb0565b600060018201615bf857615bf8615afc565b5060010190565b80820180821115610cd457610cd4615afc565b600060208284031215615c2457600080fd5b815180151581146128a557600080fd5b83815260208101839052606081016111826040830184615bb0565b600082615c5e57615c5e615ae6565b500690565b634e487b7160e01b600052603160045260246000fdfeea67486ed7ebe3eea8ab3390efd4a3c8aae48be5bea27df104a8af786c408434c3770d654ed33aeea6bf11ac8ef05d02a6a04ed4686dd2f624d853bbec43cc8ba264697066735822122006f9b4bb6a28f23d4b666f63ead1ca781e05c3d9f1b2412ddb0c252096863a8e64736f6c63430008130033",
  "devdoc": {
    "kind": "dev",
    "methods": {
      "owner()": {
        "details": "Returns the address of the current owner."
      },
      "renounceOwnership()": {
        "details": "Leaves the contract without owner. It will not be possible to call `onlyOwner` functions. Can only be called by the current owner. NOTE: Renouncing ownership will leave the contract without an owner, thereby disabling any functionality that is only available to the owner."
      },
      "transferOwnership(address)": {
        "details": "Transfers ownership of the contract to a new account (`newOwner`). Can only be called by the current owner."
      }
    },
    "version": 1
  },
  "userdoc": {
    "kind": "user",
    "methods": {
      "checkUnreliableRecoveryMode()": {
        "notice": "HEDGEHOG UPDATES: New view method to help with getting the data on frontends"
      },
      "getCurrentICR(address,uint256)": {
        "notice": "Hedgehog changes: Get Price directly from the price feed instead of param passing"
      },
      "getUnreliableTCR()": {
        "notice": "HEDGEHOG UPDATES: New view method to help with getting the data on frontends"
      },
      "getUnreliableTroveICR(address)": {
        "notice": "HEDGEHOG UPDATES: New view method to help with getting the data on frontends"
      }
    },
    "notice": "Fork of Liquity's TroveManager. Most of the Logic remains unchanged. Changes to the contract: - Raised pragma version - Removed an import of ActivePool Interface - Logic updates with redemption & borrowing fees calculation and their distribution Even though SafeMath is no longer required, the decision was made to keep it to avoid human factor errors",
    "version": 1
  },
  "storageLayout": {
    "storage": [
      {
        "astId": 19774,
        "contract": "contracts/TroveManager.sol:TroveManager",
        "label": "activePool",
        "offset": 0,
        "slot": "0",
        "type": "t_contract(IActivePool)20569"
      },
      {
        "astId": 19777,
        "contract": "contracts/TroveManager.sol:TroveManager",
        "label": "defaultPool",
        "offset": 0,
        "slot": "1",
        "type": "t_contract(IDefaultPool)20973"
      },
      {
        "astId": 19781,
        "contract": "contracts/TroveManager.sol:TroveManager",
        "label": "priceFeed",
        "offset": 0,
        "slot": "2",
        "type": "t_contract(IPriceFeed)21107"
      },
      {
        "astId": 396,
        "contract": "contracts/TroveManager.sol:TroveManager",
        "label": "_owner",
        "offset": 0,
        "slot": "3",
        "type": "t_address"
      },
      {
        "astId": 14655,
        "contract": "contracts/TroveManager.sol:TroveManager",
        "label": "borrowerOperationsAddress",
        "offset": 0,
        "slot": "4",
        "type": "t_address"
      },
      {
        "astId": 14658,
        "contract": "contracts/TroveManager.sol:TroveManager",
        "label": "stabilityPool",
        "offset": 0,
        "slot": "5",
        "type": "t_contract(IStabilityPool)21412"
      },
      {
        "astId": 14660,
        "contract": "contracts/TroveManager.sol:TroveManager",
        "label": "gasPoolAddress",
        "offset": 0,
        "slot": "6",
        "type": "t_address"
      },
      {
        "astId": 14663,
        "contract": "contracts/TroveManager.sol:TroveManager",
        "label": "collSurplusPool",
        "offset": 0,
        "slot": "7",
        "type": "t_contract(ICollSurplusPool)20911"
      },
      {
        "astId": 14666,
        "contract": "contracts/TroveManager.sol:TroveManager",
        "label": "baseFeeLMAToken",
        "offset": 0,
        "slot": "8",
        "type": "t_contract(IBaseFeeLMAToken)20633"
      },
      {
        "astId": 14669,
        "contract": "contracts/TroveManager.sol:TroveManager",
        "label": "hogToken",
        "offset": 0,
        "slot": "9",
        "type": "t_contract(IHOGToken)21031"
      },
      {
        "astId": 14672,
        "contract": "contracts/TroveManager.sol:TroveManager",
        "label": "feesRouter",
        "offset": 0,
        "slot": "10",
        "type": "t_contract(IFeesRouter)20990"
      },
      {
        "astId": 14675,
        "contract": "contracts/TroveManager.sol:TroveManager",
        "label": "sortedTroves",
        "offset": 0,
        "slot": "11",
        "type": "t_contract(ISortedTroves)21239"
      },
      {
        "astId": 14703,
        "contract": "contracts/TroveManager.sol:TroveManager",
        "label": "redemptionBaseRate",
        "offset": 0,
        "slot": "12",
        "type": "t_uint256"
      },
      {
        "astId": 14705,
        "contract": "contracts/TroveManager.sol:TroveManager",
        "label": "borrowBaseRate",
        "offset": 0,
        "slot": "13",
        "type": "t_uint256"
      },
      {
        "astId": 14707,
        "contract": "contracts/TroveManager.sol:TroveManager",
        "label": "lastRedemptionTime",
        "offset": 0,
        "slot": "14",
        "type": "t_uint256"
      },
      {
        "astId": 14709,
        "contract": "contracts/TroveManager.sol:TroveManager",
        "label": "lastBorrowTime",
        "offset": 0,
        "slot": "15",
        "type": "t_uint256"
      },
      {
        "astId": 14732,
        "contract": "contracts/TroveManager.sol:TroveManager",
        "label": "Troves",
        "offset": 0,
        "slot": "16",
        "type": "t_mapping(t_address,t_struct(Trove)14727_storage)"
      },
      {
        "astId": 14734,
        "contract": "contracts/TroveManager.sol:TroveManager",
        "label": "totalStakes",
        "offset": 0,
        "slot": "17",
        "type": "t_uint256"
      },
      {
        "astId": 14736,
        "contract": "contracts/TroveManager.sol:TroveManager",
        "label": "totalStakesSnapshot",
        "offset": 0,
        "slot": "18",
        "type": "t_uint256"
      },
      {
        "astId": 14738,
        "contract": "contracts/TroveManager.sol:TroveManager",
        "label": "totalCollateralSnapshot",
        "offset": 0,
        "slot": "19",
        "type": "t_uint256"
      },
      {
        "astId": 14740,
        "contract": "contracts/TroveManager.sol:TroveManager",
        "label": "L_WStETH",
        "offset": 0,
        "slot": "20",
        "type": "t_uint256"
      },
      {
        "astId": 14742,
        "contract": "contracts/TroveManager.sol:TroveManager",
        "label": "L_BaseFeeLMADebt",
        "offset": 0,
        "slot": "21",
        "type": "t_uint256"
      },
      {
        "astId": 14747,
        "contract": "contracts/TroveManager.sol:TroveManager",
        "label": "rewardSnapshots",
        "offset": 0,
        "slot": "22",
        "type": "t_mapping(t_address,t_struct(RewardSnapshot)14752_storage)"
      },
      {
        "astId": 14755,
        "contract": "contracts/TroveManager.sol:TroveManager",
        "label": "TroveOwners",
        "offset": 0,
        "slot": "23",
        "type": "t_array(t_address)dyn_storage"
      },
      {
        "astId": 14757,
        "contract": "contracts/TroveManager.sol:TroveManager",
        "label": "lastWStETHError_Redistribution",
        "offset": 0,
        "slot": "24",
        "type": "t_uint256"
      },
      {
        "astId": 14759,
        "contract": "contracts/TroveManager.sol:TroveManager",
        "label": "lastBaseFeeLMADebtError_Redistribution",
        "offset": 0,
        "slot": "25",
        "type": "t_uint256"
      }
    ],
    "types": {
      "t_address": {
        "encoding": "inplace",
        "label": "address",
        "numberOfBytes": "20"
      },
      "t_array(t_address)dyn_storage": {
        "base": "t_address",
        "encoding": "dynamic_array",
        "label": "address[]",
        "numberOfBytes": "32"
      },
      "t_contract(IActivePool)20569": {
        "encoding": "inplace",
        "label": "contract IActivePool",
        "numberOfBytes": "20"
      },
      "t_contract(IBaseFeeLMAToken)20633": {
        "encoding": "inplace",
        "label": "contract IBaseFeeLMAToken",
        "numberOfBytes": "20"
      },
      "t_contract(ICollSurplusPool)20911": {
        "encoding": "inplace",
        "label": "contract ICollSurplusPool",
        "numberOfBytes": "20"
      },
      "t_contract(IDefaultPool)20973": {
        "encoding": "inplace",
        "label": "contract IDefaultPool",
        "numberOfBytes": "20"
      },
      "t_contract(IFeesRouter)20990": {
        "encoding": "inplace",
        "label": "contract IFeesRouter",
        "numberOfBytes": "20"
      },
      "t_contract(IHOGToken)21031": {
        "encoding": "inplace",
        "label": "contract IHOGToken",
        "numberOfBytes": "20"
      },
      "t_contract(IPriceFeed)21107": {
        "encoding": "inplace",
        "label": "contract IPriceFeed",
        "numberOfBytes": "20"
      },
      "t_contract(ISortedTroves)21239": {
        "encoding": "inplace",
        "label": "contract ISortedTroves",
        "numberOfBytes": "20"
      },
      "t_contract(IStabilityPool)21412": {
        "encoding": "inplace",
        "label": "contract IStabilityPool",
        "numberOfBytes": "20"
      },
      "t_enum(Status)14715": {
        "encoding": "inplace",
        "label": "enum TroveManager.Status",
        "numberOfBytes": "1"
      },
      "t_mapping(t_address,t_struct(RewardSnapshot)14752_storage)": {
        "encoding": "mapping",
        "key": "t_address",
        "label": "mapping(address => struct TroveManager.RewardSnapshot)",
        "numberOfBytes": "32",
        "value": "t_struct(RewardSnapshot)14752_storage"
      },
      "t_mapping(t_address,t_struct(Trove)14727_storage)": {
        "encoding": "mapping",
        "key": "t_address",
        "label": "mapping(address => struct TroveManager.Trove)",
        "numberOfBytes": "32",
        "value": "t_struct(Trove)14727_storage"
      },
      "t_struct(RewardSnapshot)14752_storage": {
        "encoding": "inplace",
        "label": "struct TroveManager.RewardSnapshot",
        "members": [
          {
            "astId": 14749,
            "contract": "contracts/TroveManager.sol:TroveManager",
            "label": "WStETH",
            "offset": 0,
            "slot": "0",
            "type": "t_uint256"
          },
          {
            "astId": 14751,
            "contract": "contracts/TroveManager.sol:TroveManager",
            "label": "BaseFeeLMADebt",
            "offset": 0,
            "slot": "1",
            "type": "t_uint256"
          }
        ],
        "numberOfBytes": "64"
      },
      "t_struct(Trove)14727_storage": {
        "encoding": "inplace",
        "label": "struct TroveManager.Trove",
        "members": [
          {
            "astId": 14717,
            "contract": "contracts/TroveManager.sol:TroveManager",
            "label": "debt",
            "offset": 0,
            "slot": "0",
            "type": "t_uint256"
          },
          {
            "astId": 14719,
            "contract": "contracts/TroveManager.sol:TroveManager",
            "label": "coll",
            "offset": 0,
            "slot": "1",
            "type": "t_uint256"
          },
          {
            "astId": 14721,
            "contract": "contracts/TroveManager.sol:TroveManager",
            "label": "stake",
            "offset": 0,
            "slot": "2",
            "type": "t_uint256"
          },
          {
            "astId": 14724,
            "contract": "contracts/TroveManager.sol:TroveManager",
            "label": "status",
            "offset": 0,
            "slot": "3",
            "type": "t_enum(Status)14715"
          },
          {
            "astId": 14726,
            "contract": "contracts/TroveManager.sol:TroveManager",
            "label": "arrayIndex",
            "offset": 1,
            "slot": "3",
            "type": "t_uint128"
          }
        ],
        "numberOfBytes": "128"
      },
      "t_uint128": {
        "encoding": "inplace",
        "label": "uint128",
        "numberOfBytes": "16"
      },
      "t_uint256": {
        "encoding": "inplace",
        "label": "uint256",
        "numberOfBytes": "32"
      }
    }
  }
}