{
  "address": "0xDc9519aDAC6e011550AA45b3a63348EB8Be28DF2",
  "abi": [
    {
      "inputs": [],
      "stateMutability": "nonpayable",
      "type": "constructor"
    },
    {
      "anonymous": false,
      "inputs": [
        {
          "indexed": false,
          "internalType": "address",
          "name": "_hogTokenAddress",
          "type": "address"
        }
      ],
      "name": "HOGTokenAddressSet",
      "type": "event"
    },
    {
      "anonymous": false,
      "inputs": [
        {
          "indexed": true,
          "internalType": "address",
          "name": "previousOwner",
          "type": "address"
        },
        {
          "indexed": true,
          "internalType": "address",
          "name": "newOwner",
          "type": "address"
        }
      ],
      "name": "OwnershipTransferred",
      "type": "event"
    },
    {
      "anonymous": false,
      "inputs": [
        {
          "indexed": false,
          "internalType": "address",
          "name": "_stabilityPoolAddress",
          "type": "address"
        }
      ],
      "name": "StabilityPoolAddressSet",
      "type": "event"
    },
    {
      "anonymous": false,
      "inputs": [
        {
          "indexed": false,
          "internalType": "uint256",
          "name": "_totalHOGIssued",
          "type": "uint256"
        }
      ],
      "name": "TotalHOGIssuedUpdated",
      "type": "event"
    },
    {
      "inputs": [],
      "name": "DECIMAL_PRECISION",
      "outputs": [
        {
          "internalType": "uint256",
          "name": "",
          "type": "uint256"
        }
      ],
      "stateMutability": "view",
      "type": "function"
    },
    {
      "inputs": [],
      "name": "HOGSupplyCap",
      "outputs": [
        {
          "internalType": "uint256",
          "name": "",
          "type": "uint256"
        }
      ],
      "stateMutability": "view",
      "type": "function"
    },
    {
      "inputs": [],
      "name": "ISSUANCE_FACTOR",
      "outputs": [
        {
          "internalType": "uint256",
          "name": "",
          "type": "uint256"
        }
      ],
      "stateMutability": "view",
      "type": "function"
    },
    {
      "inputs": [],
      "name": "NAME",
      "outputs": [
        {
          "internalType": "string",
          "name": "",
          "type": "string"
        }
      ],
      "stateMutability": "view",
      "type": "function"
    },
    {
      "inputs": [],
      "name": "SECONDS_IN_ONE_MINUTE",
      "outputs": [
        {
          "internalType": "uint256",
          "name": "",
          "type": "uint256"
        }
      ],
      "stateMutability": "view",
      "type": "function"
    },
    {
      "inputs": [],
      "name": "deploymentTime",
      "outputs": [
        {
          "internalType": "uint256",
          "name": "",
          "type": "uint256"
        }
      ],
      "stateMutability": "view",
      "type": "function"
    },
    {
      "inputs": [],
      "name": "hogToken",
      "outputs": [
        {
          "internalType": "contract IHOGToken",
          "name": "",
          "type": "address"
        }
      ],
      "stateMutability": "view",
      "type": "function"
    },
    {
      "inputs": [],
      "name": "issueHOG",
      "outputs": [
        {
          "internalType": "uint256",
          "name": "",
          "type": "uint256"
        }
      ],
      "stateMutability": "nonpayable",
      "type": "function"
    },
    {
      "inputs": [],
      "name": "owner",
      "outputs": [
        {
          "internalType": "address",
          "name": "",
          "type": "address"
        }
      ],
      "stateMutability": "view",
      "type": "function"
    },
    {
      "inputs": [],
      "name": "renounceOwnership",
      "outputs": [],
      "stateMutability": "nonpayable",
      "type": "function"
    },
    {
      "inputs": [
        {
          "internalType": "address",
          "name": "_account",
          "type": "address"
        },
        {
          "internalType": "uint256",
          "name": "_HOGamount",
          "type": "uint256"
        }
      ],
      "name": "sendHOG",
      "outputs": [],
      "stateMutability": "nonpayable",
      "type": "function"
    },
    {
      "inputs": [
        {
          "internalType": "address",
          "name": "_hogTokenAddress",
          "type": "address"
        },
        {
          "internalType": "address",
          "name": "_stabilityPoolAddress",
          "type": "address"
        }
      ],
      "name": "setAddresses",
      "outputs": [],
      "stateMutability": "nonpayable",
      "type": "function"
    },
    {
      "inputs": [],
      "name": "stabilityPoolAddress",
      "outputs": [
        {
          "internalType": "address",
          "name": "",
          "type": "address"
        }
      ],
      "stateMutability": "view",
      "type": "function"
    },
    {
      "inputs": [],
      "name": "totalHOGIssued",
      "outputs": [
        {
          "internalType": "uint256",
          "name": "",
          "type": "uint256"
        }
      ],
      "stateMutability": "view",
      "type": "function"
    },
    {
      "inputs": [
        {
          "internalType": "address",
          "name": "newOwner",
          "type": "address"
        }
      ],
      "name": "transferOwnership",
      "outputs": [],
      "stateMutability": "nonpayable",
      "type": "function"
    }
  ],
  "transactionHash": "0x05907e6ee0a538087970359bb2a7c307de54f121d5d931f272474f20c3f2911d",
  "args": [],
  "numDeployments": 1,
  "solcInputHash": "4395580b39b76e594f91578b784e4915",
  "bytecode": "0x60a060405234801561001057600080fd5b5061001a33610023565b42608052610073565b600080546001600160a01b038381166001600160a01b0319831681178455604051919092169283917f8be0079c531659141344cd1fd0a4f28419497f9722a3daafe3b4186f6b6457e09190a35050565b608051610ab1610095600039600081816101eb01526105c00152610ab16000f3fe608060405234801561001057600080fd5b50600436106100d45760003560e01c806379b7e2071161008757806379b7e2071461015a5780638da5cb5b1461016357806390107afe146101745780639df1118814610187578063a20baee61461019a578063a3f4df7e146101a9578063ecda10f5146101e6578063f2fde38b1461020d57600080fd5b80624b3319146100d95780630b622ab2146100f45780630fc83da314610114578063570dc45e1461012357806361ec893d14610136578063715018a61461013e57806378e5baec14610148575b600080fd5b6100e1610220565b6040519081526020015b60405180910390f35b600254610107906001600160a01b031681565b6040516100eb91906108a3565b6100e1670de0b5809a6f939881565b600154610107906001600160a01b031681565b6100e1603c81565b6101466102b5565b005b6100e16a1a784379d99db42000000081565b6100e160035481565b6000546001600160a01b0316610107565b6101466101823660046108d3565b6102c9565b610146610195366004610906565b610454565b6100e1670de0b6b3a764000081565b6101d960405180604001604052806011815260200170436f6d6d756e69747949737375616e636560781b81525081565b6040516100eb9190610930565b6100e17f000000000000000000000000000000000000000000000000000000000000000081565b61014661021b36600461097e565b6104d3565b600061022a61054c565b600061025b670de0b6b3a76400006102556102436105b2565b6a1a784379d99db42000000090610631565b90610646565b905060006102746003548361065290919063ffffffff16565b60038390556040518381529091507fc39c4a12ccfc8d687432c13df0fed2a043068f0db11632ab629f8d80caffb1469060200160405180910390a192915050565b6102bd61065e565b6102c760006106b8565b565b6102d161065e565b6102da82610708565b6102e381610708565b600180546001600160a01b038085166001600160a01b0319928316811790935560028054918516919092161790556040516370a0823160e01b8152600091906370a08231906103369030906004016108a3565b602060405180830381865afa158015610353573d6000803e3d6000fd5b505050506040513d601f19601f820116820180604052508101906103779190610999565b90506a1a784379d99db4200000008110156103d95760405162461bcd60e51b815260206004820152601a60248201527f43493a2042616c6c616e6365206973206e6f7420656e6f75676800000000000060448201526064015b60405180910390fd5b7f2228d43367ece49cb99c3d3ac6d6df4a289d31f4a2bd9ab1ff590c66f3a4d6c08360405161040891906108a3565b60405180910390a17f45c53611bc8ba9e11f4f8173bda9e3faf89c395ddb83f9a55230b156828db3158260405161043f91906108a3565b60405180910390a161044f6102b5565b505050565b61045c61054c565b60015460405163a9059cbb60e01b81526001600160a01b038481166004830152602482018490529091169063a9059cbb906044016020604051808303816000875af11580156104af573d6000803e3d6000fd5b505050506040513d601f19601f8201168201806040525081019061044f91906109b2565b6104db61065e565b6001600160a01b0381166105405760405162461bcd60e51b815260206004820152602660248201527f4f776e61626c653a206e6577206f776e657220697320746865207a65726f206160448201526564647265737360d01b60648201526084016103d0565b610549816106b8565b50565b6002546001600160a01b031633146102c75760405162461bcd60e51b815260206004820152602360248201527f436f6d6d756e69747949737375616e63653a2063616c6c6572206973206e6f7460448201526202053560ec1b60648201526084016103d0565b6000806105e4603c610255427f0000000000000000000000000000000000000000000000000000000000000000610652565b905060006105fa670de0b5809a6f9398836107b1565b90506000610610670de0b6b3a764000083610652565b9050670de0b6b3a764000081111561062a5761062a6109d4565b9392505050565b600061063d8284610a00565b90505b92915050565b600061063d8284610a2d565b600061063d8284610a41565b6000546001600160a01b031633146102c75760405162461bcd60e51b815260206004820181905260248201527f4f776e61626c653a2063616c6c6572206973206e6f7420746865206f776e657260448201526064016103d0565b600080546001600160a01b038381166001600160a01b0319831681178455604051919092169283917f8be0079c531659141344cd1fd0a4f28419497f9722a3daafe3b4186f6b6457e09190a35050565b6001600160a01b03811661075e5760405162461bcd60e51b815260206004820152601e60248201527f4163636f756e742063616e6e6f74206265207a65726f2061646472657373000060448201526064016103d0565b803b806107ad5760405162461bcd60e51b815260206004820181905260248201527f4163636f756e7420636f64652073697a652063616e6e6f74206265207a65726f60448201526064016103d0565b5050565b6000631f5405008211156107c757631f54050091505b816000036107de5750670de0b6b3a7640000610640565b670de0b6b3a764000083835b600181111561084b576107fe600282610a54565b6000036108235761080f828361085f565b915061081c816002610646565b90506107ea565b61082d828461085f565b9250610839828361085f565b915061081c6002610255836001610652565b610855828461085f565b9695505050505050565b60008061086c8484610631565b905061088f670de0b6b3a7640000610255610888600283610a2d565b8490610897565b949350505050565b600061063d8284610a68565b6001600160a01b0391909116815260200190565b80356001600160a01b03811681146108ce57600080fd5b919050565b600080604083850312156108e657600080fd5b6108ef836108b7565b91506108fd602084016108b7565b90509250929050565b6000806040838503121561091957600080fd5b610922836108b7565b946020939093013593505050565b600060208083528351808285015260005b8181101561095d57858101830151858201604001528201610941565b506000604082860101526040601f19601f8301168501019250505092915050565b60006020828403121561099057600080fd5b61063d826108b7565b6000602082840312156109ab57600080fd5b5051919050565b6000602082840312156109c457600080fd5b8151801515811461062a57600080fd5b634e487b7160e01b600052600160045260246000fd5b634e487b7160e01b600052601160045260246000fd5b8082028115828204841417610640576106406109ea565b634e487b7160e01b600052601260045260246000fd5b600082610a3c57610a3c610a17565b500490565b81810381811115610640576106406109ea565b600082610a6357610a63610a17565b500690565b80820180821115610640576106406109ea56fea264697066735822122056de535268febccf6d66c213626446b45455b7a0a114a5881017124826a7585064736f6c63430008130033",
  "devdoc": {
    "kind": "dev",
    "methods": {
      "owner()": {
        "details": "Returns the address of the current owner."
      },
      "renounceOwnership()": {
        "details": "Leaves the contract without owner. It will not be possible to call `onlyOwner` functions. Can only be called by the current owner. NOTE: Renouncing ownership will leave the contract without an owner, thereby disabling any functionality that is only available to the owner."
      },
      "transferOwnership(address)": {
        "details": "Transfers ownership of the contract to a new account (`newOwner`). Can only be called by the current owner."
      }
    },
    "version": 1
  },
  "userdoc": {
    "kind": "user",
    "methods": {},
    "version": 1
  },
  "storageLayout": {
    "storage": [
      {
        "astId": 7,
        "contract": "contracts/HOG/CommunityIssuance.sol:CommunityIssuance",
        "label": "_owner",
        "offset": 0,
        "slot": "0",
        "type": "t_address"
      },
      {
        "astId": 3533,
        "contract": "contracts/HOG/CommunityIssuance.sol:CommunityIssuance",
        "label": "hogToken",
        "offset": 0,
        "slot": "1",
        "type": "t_contract(IHOGToken)17443"
      },
      {
        "astId": 3535,
        "contract": "contracts/HOG/CommunityIssuance.sol:CommunityIssuance",
        "label": "stabilityPoolAddress",
        "offset": 0,
        "slot": "2",
        "type": "t_address"
      },
      {
        "astId": 3537,
        "contract": "contracts/HOG/CommunityIssuance.sol:CommunityIssuance",
        "label": "totalHOGIssued",
        "offset": 0,
        "slot": "3",
        "type": "t_uint256"
      }
    ],
    "types": {
      "t_address": {
        "encoding": "inplace",
        "label": "address",
        "numberOfBytes": "20"
      },
      "t_contract(IHOGToken)17443": {
        "encoding": "inplace",
        "label": "contract IHOGToken",
        "numberOfBytes": "20"
      },
      "t_uint256": {
        "encoding": "inplace",
        "label": "uint256",
        "numberOfBytes": "32"
      }
    }
  }
}