{
  "address": "0xE55C5a1a27d97AF06E2D97aDBc16Dc2D5dA8F3B9",
  "abi": [
    {
      "inputs": [
        {
          "internalType": "address",
          "name": "_defaultAdmin",
          "type": "address"
        },
        {
          "internalType": "address",
          "name": "_ultimateAdmin",
          "type": "address"
        }
      ],
      "stateMutability": "nonpayable",
      "type": "constructor"
    },
    {
      "inputs": [],
      "name": "InvalidAddress",
      "type": "error"
    },
    {
      "inputs": [],
      "name": "InvalidIndex",
      "type": "error"
    },
    {
      "inputs": [],
      "name": "InvalidInput",
      "type": "error"
    },
    {
      "anonymous": false,
      "inputs": [
        {
          "indexed": true,
          "internalType": "address",
          "name": "setter",
          "type": "address"
        },
        {
          "indexed": true,
          "internalType": "uint256",
          "name": "percentage",
          "type": "uint256"
        },
        {
          "indexed": false,
          "internalType": "uint256",
          "name": "amountA",
          "type": "uint256"
        },
        {
          "indexed": false,
          "internalType": "uint256",
          "name": "amountB",
          "type": "uint256"
        },
        {
          "indexed": false,
          "internalType": "uint256",
          "name": "amountC",
          "type": "uint256"
        },
        {
          "indexed": false,
          "internalType": "address",
          "name": "addressA",
          "type": "address"
        },
        {
          "indexed": false,
          "internalType": "address",
          "name": "addressB",
          "type": "address"
        },
        {
          "indexed": false,
          "internalType": "address",
          "name": "addressC",
          "type": "address"
        }
      ],
      "name": "CollFeeConfigUpdated",
      "type": "event"
    },
    {
      "anonymous": false,
      "inputs": [
        {
          "indexed": true,
          "internalType": "address",
          "name": "setter",
          "type": "address"
        },
        {
          "indexed": true,
          "internalType": "uint256",
          "name": "percentage",
          "type": "uint256"
        },
        {
          "indexed": false,
          "internalType": "uint256",
          "name": "amountA",
          "type": "uint256"
        },
        {
          "indexed": false,
          "internalType": "uint256",
          "name": "amountB",
          "type": "uint256"
        },
        {
          "indexed": false,
          "internalType": "uint256",
          "name": "amountC",
          "type": "uint256"
        },
        {
          "indexed": false,
          "internalType": "address",
          "name": "addressA",
          "type": "address"
        },
        {
          "indexed": false,
          "internalType": "address",
          "name": "addressB",
          "type": "address"
        },
        {
          "indexed": false,
          "internalType": "address",
          "name": "addressC",
          "type": "address"
        }
      ],
      "name": "DebtFeeConfigUpdated",
      "type": "event"
    },
    {
      "anonymous": false,
      "inputs": [
        {
          "indexed": true,
          "internalType": "bytes32",
          "name": "role",
          "type": "bytes32"
        },
        {
          "indexed": true,
          "internalType": "bytes32",
          "name": "previousAdminRole",
          "type": "bytes32"
        },
        {
          "indexed": true,
          "internalType": "bytes32",
          "name": "newAdminRole",
          "type": "bytes32"
        }
      ],
      "name": "RoleAdminChanged",
      "type": "event"
    },
    {
      "anonymous": false,
      "inputs": [
        {
          "indexed": true,
          "internalType": "bytes32",
          "name": "role",
          "type": "bytes32"
        },
        {
          "indexed": true,
          "internalType": "address",
          "name": "account",
          "type": "address"
        },
        {
          "indexed": true,
          "internalType": "address",
          "name": "sender",
          "type": "address"
        }
      ],
      "name": "RoleGranted",
      "type": "event"
    },
    {
      "anonymous": false,
      "inputs": [
        {
          "indexed": true,
          "internalType": "bytes32",
          "name": "role",
          "type": "bytes32"
        },
        {
          "indexed": true,
          "internalType": "address",
          "name": "account",
          "type": "address"
        },
        {
          "indexed": true,
          "internalType": "address",
          "name": "sender",
          "type": "address"
        }
      ],
      "name": "RoleRevoked",
      "type": "event"
    },
    {
      "inputs": [],
      "name": "DEFAULT_ADMIN_ROLE",
      "outputs": [
        {
          "internalType": "bytes32",
          "name": "",
          "type": "bytes32"
        }
      ],
      "stateMutability": "view",
      "type": "function"
    },
    {
      "inputs": [
        {
          "internalType": "uint256",
          "name": "",
          "type": "uint256"
        }
      ],
      "name": "collFeeConfigs",
      "outputs": [
        {
          "internalType": "uint256",
          "name": "amountA",
          "type": "uint256"
        },
        {
          "internalType": "uint256",
          "name": "amountB",
          "type": "uint256"
        },
        {
          "internalType": "uint256",
          "name": "amountC",
          "type": "uint256"
        },
        {
          "internalType": "address",
          "name": "addressA",
          "type": "address"
        },
        {
          "internalType": "address",
          "name": "addressB",
          "type": "address"
        },
        {
          "internalType": "address",
          "name": "addressC",
          "type": "address"
        }
      ],
      "stateMutability": "view",
      "type": "function"
    },
    {
      "inputs": [
        {
          "internalType": "uint256",
          "name": "",
          "type": "uint256"
        }
      ],
      "name": "debtFeeConfigs",
      "outputs": [
        {
          "internalType": "uint256",
          "name": "amountA",
          "type": "uint256"
        },
        {
          "internalType": "uint256",
          "name": "amountB",
          "type": "uint256"
        },
        {
          "internalType": "uint256",
          "name": "amountC",
          "type": "uint256"
        },
        {
          "internalType": "address",
          "name": "addressA",
          "type": "address"
        },
        {
          "internalType": "address",
          "name": "addressB",
          "type": "address"
        },
        {
          "internalType": "address",
          "name": "addressC",
          "type": "address"
        }
      ],
      "stateMutability": "view",
      "type": "function"
    },
    {
      "inputs": [
        {
          "internalType": "uint256",
          "name": "_debt",
          "type": "uint256"
        },
        {
          "internalType": "uint256",
          "name": "_fee",
          "type": "uint256"
        }
      ],
      "name": "distributeCollFee",
      "outputs": [],
      "stateMutability": "nonpayable",
      "type": "function"
    },
    {
      "inputs": [
        {
          "internalType": "uint256",
          "name": "_debt",
          "type": "uint256"
        },
        {
          "internalType": "uint256",
          "name": "_fee",
          "type": "uint256"
        }
      ],
      "name": "distributeDebtFee",
      "outputs": [],
      "stateMutability": "nonpayable",
      "type": "function"
    },
    {
      "inputs": [],
      "name": "feeCount",
      "outputs": [
        {
          "internalType": "uint256",
          "name": "",
          "type": "uint256"
        }
      ],
      "stateMutability": "view",
      "type": "function"
    },
    {
      "inputs": [
        {
          "internalType": "bytes32",
          "name": "role",
          "type": "bytes32"
        }
      ],
      "name": "getRoleAdmin",
      "outputs": [
        {
          "internalType": "bytes32",
          "name": "",
          "type": "bytes32"
        }
      ],
      "stateMutability": "view",
      "type": "function"
    },
    {
      "inputs": [
        {
          "internalType": "bytes32",
          "name": "role",
          "type": "bytes32"
        },
        {
          "internalType": "address",
          "name": "account",
          "type": "address"
        }
      ],
      "name": "grantRole",
      "outputs": [],
      "stateMutability": "nonpayable",
      "type": "function"
    },
    {
      "inputs": [
        {
          "internalType": "bytes32",
          "name": "role",
          "type": "bytes32"
        },
        {
          "internalType": "address",
          "name": "account",
          "type": "address"
        }
      ],
      "name": "hasRole",
      "outputs": [
        {
          "internalType": "bool",
          "name": "",
          "type": "bool"
        }
      ],
      "stateMutability": "view",
      "type": "function"
    },
    {
      "inputs": [
        {
          "internalType": "bytes32",
          "name": "role",
          "type": "bytes32"
        },
        {
          "internalType": "address",
          "name": "account",
          "type": "address"
        }
      ],
      "name": "renounceRole",
      "outputs": [],
      "stateMutability": "nonpayable",
      "type": "function"
    },
    {
      "inputs": [
        {
          "internalType": "bytes32",
          "name": "role",
          "type": "bytes32"
        },
        {
          "internalType": "address",
          "name": "account",
          "type": "address"
        }
      ],
      "name": "revokeRole",
      "outputs": [],
      "stateMutability": "nonpayable",
      "type": "function"
    },
    {
      "inputs": [
        {
          "internalType": "contract IActivePool",
          "name": "_activePool",
          "type": "address"
        },
        {
          "internalType": "contract IBaseFeeLMAToken",
          "name": "_baseFeeLMAToken",
          "type": "address"
        },
        {
          "internalType": "contract IHOGStaking",
          "name": "_hogStaking",
          "type": "address"
        }
      ],
      "name": "setAddresses",
      "outputs": [],
      "stateMutability": "nonpayable",
      "type": "function"
    },
    {
      "inputs": [
        {
          "internalType": "uint256",
          "name": "_percentage",
          "type": "uint256"
        },
        {
          "internalType": "uint256",
          "name": "_amountA",
          "type": "uint256"
        },
        {
          "internalType": "uint256",
          "name": "_amountB",
          "type": "uint256"
        },
        {
          "internalType": "uint256",
          "name": "_amountC",
          "type": "uint256"
        },
        {
          "internalType": "address",
          "name": "_addressA",
          "type": "address"
        },
        {
          "internalType": "address",
          "name": "_addressB",
          "type": "address"
        },
        {
          "internalType": "address",
          "name": "_addressC",
          "type": "address"
        }
      ],
      "name": "setCollFeeConfig",
      "outputs": [],
      "stateMutability": "nonpayable",
      "type": "function"
    },
    {
      "inputs": [
        {
          "internalType": "uint256",
          "name": "_percentage",
          "type": "uint256"
        },
        {
          "internalType": "uint256",
          "name": "_amountA",
          "type": "uint256"
        },
        {
          "internalType": "uint256",
          "name": "_amountB",
          "type": "uint256"
        },
        {
          "internalType": "uint256",
          "name": "_amountC",
          "type": "uint256"
        },
        {
          "internalType": "address",
          "name": "_addressA",
          "type": "address"
        },
        {
          "internalType": "address",
          "name": "_addressB",
          "type": "address"
        },
        {
          "internalType": "address",
          "name": "_addressC",
          "type": "address"
        }
      ],
      "name": "setDebtFeeConfig",
      "outputs": [],
      "stateMutability": "nonpayable",
      "type": "function"
    },
    {
      "inputs": [
        {
          "internalType": "uint256",
          "name": "_percentage",
          "type": "uint256"
        },
        {
          "internalType": "uint256",
          "name": "_amountA",
          "type": "uint256"
        },
        {
          "internalType": "uint256",
          "name": "_amountB",
          "type": "uint256"
        },
        {
          "internalType": "uint256",
          "name": "_amountC",
          "type": "uint256"
        },
        {
          "internalType": "address",
          "name": "_addressA",
          "type": "address"
        },
        {
          "internalType": "address",
          "name": "_addressB",
          "type": "address"
        },
        {
          "internalType": "address",
          "name": "_addressC",
          "type": "address"
        }
      ],
      "name": "setFeeConfigs",
      "outputs": [],
      "stateMutability": "nonpayable",
      "type": "function"
    },
    {
      "inputs": [
        {
          "internalType": "bytes4",
          "name": "interfaceId",
          "type": "bytes4"
        }
      ],
      "name": "supportsInterface",
      "outputs": [
        {
          "internalType": "bool",
          "name": "",
          "type": "bool"
        }
      ],
      "stateMutability": "view",
      "type": "function"
    }
  ],
  "transactionHash": "0x85b7c5439757961d92b7144f040c226a4b359bd02979220ff9aca307eaa8ba7c",
  "args": [
    "0x796EcfBe7a2A424f9D905dfC38b8994aB2db9FD6",
    "0x796EcfBe7a2A424f9D905dfC38b8994aB2db9FD6"
  ],
  "numDeployments": 1,
  "solcInputHash": "e95d48125b0f8ef685355c5c400bdee8",
  "bytecode": "0x60806040523480156200001157600080fd5b5060405162001bb638038062001bb6833981016040819052620000349162000221565b6001600160a01b0382166200005c5760405163e6c4247b60e01b815260040160405180910390fd5b6001600160a01b038116620000845760405163e6c4247b60e01b815260040160405180910390fd5b6200009f60008051602062001b968339815191528262000118565b620000c960008051602062001b7683398151915260008051602062001b96833981519152620001b9565b620000e460008051602062001b768339815191528362000118565b620001107f503cf060389b91af8851125bd70ce66d16d12330718b103fc7674ef6d27e70c93362000118565b505062000259565b6000828152602081815260408083206001600160a01b038516845290915290205460ff16620001b5576000828152602081815260408083206001600160a01b03851684529091529020805460ff19166001179055620001743390565b6001600160a01b0316816001600160a01b0316837f2f8788117e7eff1d82e926ec794901d17c78024a50270940304540a733656f0d60405160405180910390a45b5050565b600082815260208190526040808220600101805490849055905190918391839186917fbd79b86ffe0ab8e8776151514217cd7cacd52c909f66475c3af44e129f0b00ff9190a4505050565b80516001600160a01b03811681146200021c57600080fd5b919050565b600080604083850312156200023557600080fd5b620002408362000204565b9150620002506020840162000204565b90509250929050565b61190d80620002696000396000f3fe608060405234801561001057600080fd5b50600436106100e05760003560e01c8063a217fddf11610087578063a217fddf146101b2578063ca866c7f146101ba578063d547741f146101cd578063e1c38ed9146101e0578063eaa378ca146101e9578063f8c713e81461024c578063fd3b9e681461025f578063fee004491461027257600080fd5b806301ffc9a7146100e5578063248a9ca31461010d5780632f2ff15d1461013e578063363bf9641461015357806336568abe146101665780635b05e5bd146101795780636376b6241461018c57806391d148541461019f575b600080fd5b6100f86100f3366004611566565b6102c4565b60405190151581526020015b60405180910390f35b61013061011b366004611590565b60009081526020819052604090206001015490565b604051908152602001610104565b61015161014c3660046115be565b6102fb565b005b6101516101613660046115ee565b610325565b6101516101743660046115be565b610431565b610151610187366004611639565b6104b4565b61015161019a3660046116ab565b610696565b6100f86101ad3660046115be565b610976565b610130600081565b6101516101c8366004611639565b61099f565b6101516101db3660046115be565b610b6f565b61013060035481565b61023a6101f7366004611590565b6001602081905260009182526040909120805491810154600282015460038301546004840154600590940154929391926001600160a01b03918216928216911686565b604051610104969594939291906116cd565b61015161025a366004611639565b610b94565b61015161026d3660046116ab565b610eb3565b61023a610280366004611590565b600260208190526000918252604090912080546001820154928201546003830154600484015460059094015492949391926001600160a01b03918216928216911686565b60006001600160e01b03198216637965db0b60e01b14806102f557506301ffc9a760e01b6001600160e01b03198316145b92915050565b60008281526020819052604090206001015461031681611188565b6103208383611195565b505050565b7f503cf060389b91af8851125bd70ce66d16d12330718b103fc7674ef6d27e70c961034f81611188565b6001600160a01b0384166103765760405163e6c4247b60e01b815260040160405180910390fd5b6001600160a01b03831661039d5760405163e6c4247b60e01b815260040160405180910390fd5b6001600160a01b0382166103c45760405163e6c4247b60e01b815260040160405180910390fd5b600580546001600160a01b038087166001600160a01b03199283161790925560048054868416908316179055600680549285169290911691909117905561042b7f503cf060389b91af8851125bd70ce66d16d12330718b103fc7674ef6d27e70c933611219565b50505050565b6001600160a01b03811633146104a65760405162461bcd60e51b815260206004820152602f60248201527f416363657373436f6e74726f6c3a2063616e206f6e6c792072656e6f756e636560448201526e103937b632b9903337b91039b2b63360891b60648201526084015b60405180910390fd5b6104b08282611219565b5050565b6000805160206118b88339815191526104cc81611188565b6104d760058961171a565b156104f5576040516363df817160e01b815260040160405180910390fd5b6001600160a01b03841661051c5760405163e6c4247b60e01b815260040160405180910390fd5b8660000361053d5760405163b4fa3fb360e01b815260040160405180910390fd5b6040518060c00160405280888152602001878152602001868152602001856001600160a01b03168152602001846001600160a01b03168152602001836001600160a01b0316815250600260008a815260200190815260200160002060008201518160000155602082015181600101556040820151816002015560608201518160030160006101000a8154816001600160a01b0302191690836001600160a01b0316021790555060808201518160040160006101000a8154816001600160a01b0302191690836001600160a01b0316021790555060a08201518160050160006101000a8154816001600160a01b0302191690836001600160a01b0316021790555090505087336001600160a01b03167f5348ea1904340e964d9091cfa5c4d28860f58c3d5030493a2a91aed33c8c594a898989898989604051610684969594939291906116cd565b60405180910390a35050505050505050565b60006002816005856106a9866064611744565b6106b3919061175b565b6106bd919061171a565b6106c8906005611744565b815260208082019290925260409081016000908120825160c081018452815480825260018301549582019590955260028201549381019390935260038101546001600160a01b0390811660608501526004820154811660808501526005909101541660a08301529092509061073e90849061127e565b9050600061075084846020015161127e565b9050600061076285856040015161127e565b9050600081610771848661176f565b61077b919061176f565b90508581111561079d5785610790828661176f565b61079a9190611782565b93505b6005546006546001600160a01b03918216911685158015906107cb575060608701516001600160a01b031615155b1561084357606087015160405163a51ba3b760e01b81526001600160a01b0384169163a51ba3b79161080291908a90600401611795565b600060405180830381600087803b15801561081c57600080fd5b505af1158015610830573d6000803e3d6000fd5b505050506108438760600151878361129d565b60008511801561085f575060808701516001600160a01b031615155b156108d757608087015160405163a51ba3b760e01b81526001600160a01b0384169163a51ba3b79161089691908990600401611795565b600060405180830381600087803b1580156108b057600080fd5b505af11580156108c4573d6000803e3d6000fd5b505050506108d78760600151878361129d565b6000841180156108f3575060a08701516001600160a01b031615155b1561096b5760a087015160405163a51ba3b760e01b81526001600160a01b0384169163a51ba3b79161092a91908890600401611795565b600060405180830381600087803b15801561094457600080fd5b505af1158015610958573d6000803e3d6000fd5b5050505061096b8760600151878361129d565b505050505050505050565b6000918252602082815260408084206001600160a01b0393909316845291905290205460ff1690565b6000805160206118b88339815191526109b781611188565b6109c260058961171a565b156109e0576040516363df817160e01b815260040160405180910390fd5b6001600160a01b038416610a075760405163e6c4247b60e01b815260040160405180910390fd5b86600003610a285760405163b4fa3fb360e01b815260040160405180910390fd5b6040518060c00160405280888152602001878152602001868152602001856001600160a01b03168152602001846001600160a01b03168152602001836001600160a01b0316815250600160008a815260200190815260200160002060008201518160000155602082015181600101556040820151816002015560608201518160030160006101000a8154816001600160a01b0302191690836001600160a01b0316021790555060808201518160040160006101000a8154816001600160a01b0302191690836001600160a01b0316021790555060a08201518160050160006101000a8154816001600160a01b0302191690836001600160a01b0316021790555090505087336001600160a01b03167fbc99ed43606ac935e4dc17dab93250c9bd493b5160a7e3b7bf0a96a3c3961309898989898989604051610684969594939291906116cd565b600082815260208190526040902060010154610b8a81611188565b6103208383611219565b6000805160206118b8833981519152610bac81611188565b610bb760058961171a565b15610bd5576040516363df817160e01b815260040160405180910390fd5b6001600160a01b038416610bfc5760405163e6c4247b60e01b815260040160405180910390fd5b86600003610c1d5760405163b4fa3fb360e01b815260040160405180910390fd5b6040518060c00160405280888152602001878152602001868152602001856001600160a01b03168152602001846001600160a01b03168152602001836001600160a01b0316815250600160008a815260200190815260200160002060008201518160000155602082015181600101556040820151816002015560608201518160030160006101000a8154816001600160a01b0302191690836001600160a01b0316021790555060808201518160040160006101000a8154816001600160a01b0302191690836001600160a01b0316021790555060a08201518160050160006101000a8154816001600160a01b0302191690836001600160a01b031602179055509050506040518060c00160405280888152602001878152602001868152602001856001600160a01b03168152602001846001600160a01b03168152602001836001600160a01b0316815250600260008a815260200190815260200160002060008201518160000155602082015181600101556040820151816002015560608201518160030160006101000a8154816001600160a01b0302191690836001600160a01b0316021790555060808201518160040160006101000a8154816001600160a01b0302191690836001600160a01b0316021790555060a08201518160050160006101000a8154816001600160a01b0302191690836001600160a01b0316021790555090505087336001600160a01b03167fbc99ed43606ac935e4dc17dab93250c9bd493b5160a7e3b7bf0a96a3c3961309898989898989604051610e67969594939291906116cd565b60405180910390a387336001600160a01b03167f5348ea1904340e964d9091cfa5c4d28860f58c3d5030493a2a91aed33c8c594a898989898989604051610684969594939291906116cd565b6000600181600585610ec6866064611744565b610ed0919061175b565b610eda919061171a565b610ee5906005611744565b815260208082019290925260409081016000908120825160c081018452815480825260018301549582019590955260028201549381019390935260038101546001600160a01b0390811660608501526004820154811660808501526005909101541660a083015290925090610f5b90849061127e565b90506000610f6d84846020015161127e565b90506000610f7f85856040015161127e565b9050600081610f8e848661176f565b610f98919061176f565b905085811115610fba5785610fad828661176f565b610fb79190611782565b93505b6004546006546001600160a01b0391821691168515801590610fe8575060608701516001600160a01b031615155b156110605760608701516040516340c10f1960e01b81526001600160a01b038416916340c10f199161101f91908a90600401611795565b600060405180830381600087803b15801561103957600080fd5b505af115801561104d573d6000803e3d6000fd5b5050505061106087606001518783611316565b60008511801561107c575060808701516001600160a01b031615155b156110f45760808701516040516340c10f1960e01b81526001600160a01b038416916340c10f19916110b391908990600401611795565b600060405180830381600087803b1580156110cd57600080fd5b505af11580156110e1573d6000803e3d6000fd5b505050506110f487608001518683611316565b600084118015611110575060a08701516001600160a01b031615155b1561096b5760808701516040516340c10f1960e01b81526001600160a01b038416916340c10f199161114791908890600401611795565b600060405180830381600087803b15801561116157600080fd5b505af1158015611175573d6000803e3d6000fd5b5050505061096b8760a001518583611316565b611192813361135f565b50565b61119f8282610976565b6104b0576000828152602081815260408083206001600160a01b03851684529091529020805460ff191660011790556111d53390565b6001600160a01b0316816001600160a01b0316837f2f8788117e7eff1d82e926ec794901d17c78024a50270940304540a733656f0d60405160405180910390a45050565b6112238282610976565b156104b0576000828152602081815260408083206001600160a01b0385168085529252808320805460ff1916905551339285917ff6391f5c32d9c69d2a47ea670b442974b53935d1edc7fd64eb21e047a839171b9190a45050565b6000606461128c8385611744565b611296919061175b565b9392505050565b806001600160a01b0316836001600160a01b0316036103205760405163b307829d60e01b8152600481018390526001600160a01b0382169063b307829d906024015b600060405180830381600087803b1580156112f957600080fd5b505af115801561130d573d6000803e3d6000fd5b50505050505050565b806001600160a01b0316836001600160a01b0316036103205760065460405162697fb760e71b8152600481018490526001600160a01b03909116906334bfdb80906024016112df565b6113698282610976565b6104b057611376816113b8565b6113818360206113ca565b6040516020016113929291906117d2565b60408051601f198184030181529082905262461bcd60e51b825261049d91600401611841565b60606102f56001600160a01b03831660145b606060006113d9836002611744565b6113e490600261176f565b67ffffffffffffffff8111156113fc576113fc611874565b6040519080825280601f01601f191660200182016040528015611426576020820181803683370190505b509050600360fc1b816000815181106114415761144161188a565b60200101906001600160f81b031916908160001a905350600f60fb1b816001815181106114705761147061188a565b60200101906001600160f81b031916908160001a9053506000611494846002611744565b61149f90600161176f565b90505b6001811115611517576f181899199a1a9b1b9c1cb0b131b232b360811b85600f16601081106114d3576114d361188a565b1a60f81b8282815181106114e9576114e961188a565b60200101906001600160f81b031916908160001a90535060049490941c93611510816118a0565b90506114a2565b5083156112965760405162461bcd60e51b815260206004820181905260248201527f537472696e67733a20686578206c656e67746820696e73756666696369656e74604482015260640161049d565b60006020828403121561157857600080fd5b81356001600160e01b03198116811461129657600080fd5b6000602082840312156115a257600080fd5b5035919050565b6001600160a01b038116811461119257600080fd5b600080604083850312156115d157600080fd5b8235915060208301356115e3816115a9565b809150509250929050565b60008060006060848603121561160357600080fd5b833561160e816115a9565b9250602084013561161e816115a9565b9150604084013561162e816115a9565b809150509250925092565b600080600080600080600060e0888a03121561165457600080fd5b87359650602088013595506040880135945060608801359350608088013561167b816115a9565b925060a088013561168b816115a9565b915060c088013561169b816115a9565b8091505092959891949750929550565b600080604083850312156116be57600080fd5b50508035926020909101359150565b958652602086019490945260408501929092526001600160a01b03908116606085015290811660808401521660a082015260c00190565b634e487b7160e01b600052601260045260246000fd5b60008261172957611729611704565b500690565b634e487b7160e01b600052601160045260246000fd5b80820281158282048414176102f5576102f561172e565b60008261176a5761176a611704565b500490565b808201808211156102f5576102f561172e565b818103818111156102f5576102f561172e565b6001600160a01b03929092168252602082015260400190565b60005b838110156117c95781810151838201526020016117b1565b50506000910152565b76020b1b1b2b9b9a1b7b73a3937b61d1030b1b1b7bab73a1604d1b8152600083516118048160178501602088016117ae565b7001034b99036b4b9b9b4b733903937b6329607d1b60179184019182015283516118358160288401602088016117ae565b01602801949350505050565b60208152600082518060208401526118608160408501602087016117ae565b601f01601f19169190910160400192915050565b634e487b7160e01b600052604160045260246000fd5b634e487b7160e01b600052603260045260246000fd5b6000816118af576118af61172e565b50600019019056fe8e4f01b2ef10e587f670bbfd448bba9a57a36fd9c81549b587269120cb62b24da2646970667358221220fa1bcf4e5f6ed952221d522061fa755287f51cc8913b8572f74e39c35486e22c64736f6c634300081300338e4f01b2ef10e587f670bbfd448bba9a57a36fd9c81549b587269120cb62b24d6ce44ac19daa541a3cad4667c612cff8964428a20ce88eca8a6022803dbffc32",
  "devdoc": {
    "events": {
      "RoleAdminChanged(bytes32,bytes32,bytes32)": {
        "details": "Emitted when `newAdminRole` is set as ``role``'s admin role, replacing `previousAdminRole` `DEFAULT_ADMIN_ROLE` is the starting admin for all roles, despite {RoleAdminChanged} not being emitted signaling this. _Available since v3.1._"
      },
      "RoleGranted(bytes32,address,address)": {
        "details": "Emitted when `account` is granted `role`. `sender` is the account that originated the contract call, an admin role bearer except when using {AccessControl-_setupRole}."
      },
      "RoleRevoked(bytes32,address,address)": {
        "details": "Emitted when `account` is revoked `role`. `sender` is the account that originated the contract call:   - if using `revokeRole`, it is the admin role bearer   - if using `renounceRole`, it is the role bearer (i.e. `account`)"
      }
    },
    "kind": "dev",
    "methods": {
      "getRoleAdmin(bytes32)": {
        "details": "Returns the admin role that controls `role`. See {grantRole} and {revokeRole}. To change a role's admin, use {_setRoleAdmin}."
      },
      "grantRole(bytes32,address)": {
        "details": "Grants `role` to `account`. If `account` had not been already granted `role`, emits a {RoleGranted} event. Requirements: - the caller must have ``role``'s admin role. May emit a {RoleGranted} event."
      },
      "hasRole(bytes32,address)": {
        "details": "Returns `true` if `account` has been granted `role`."
      },
      "renounceRole(bytes32,address)": {
        "details": "Revokes `role` from the calling account. Roles are often managed via {grantRole} and {revokeRole}: this function's purpose is to provide a mechanism for accounts to lose their privileges if they are compromised (such as when a trusted device is misplaced). If the calling account had been revoked `role`, emits a {RoleRevoked} event. Requirements: - the caller must be `account`. May emit a {RoleRevoked} event."
      },
      "revokeRole(bytes32,address)": {
        "details": "Revokes `role` from `account`. If `account` had been granted `role`, emits a {RoleRevoked} event. Requirements: - the caller must have ``role``'s admin role. May emit a {RoleRevoked} event."
      },
      "supportsInterface(bytes4)": {
        "details": "See {IERC165-supportsInterface}."
      }
    },
    "version": 1
  },
  "userdoc": {
    "kind": "user",
    "methods": {},
    "version": 1
  },
  "storageLayout": {
    "storage": [
      {
        "astId": 24,
        "contract": "contracts/FeesRouter.sol:FeesRouter",
        "label": "_roles",
        "offset": 0,
        "slot": "0",
        "type": "t_mapping(t_bytes32,t_struct(RoleData)19_storage)"
      },
      {
        "astId": 5170,
        "contract": "contracts/FeesRouter.sol:FeesRouter",
        "label": "debtFeeConfigs",
        "offset": 0,
        "slot": "1",
        "type": "t_mapping(t_uint256,t_struct(FeeConfig)5165_storage)"
      },
      {
        "astId": 5175,
        "contract": "contracts/FeesRouter.sol:FeesRouter",
        "label": "collFeeConfigs",
        "offset": 0,
        "slot": "2",
        "type": "t_mapping(t_uint256,t_struct(FeeConfig)5165_storage)"
      },
      {
        "astId": 5177,
        "contract": "contracts/FeesRouter.sol:FeesRouter",
        "label": "feeCount",
        "offset": 0,
        "slot": "3",
        "type": "t_uint256"
      },
      {
        "astId": 5180,
        "contract": "contracts/FeesRouter.sol:FeesRouter",
        "label": "baseFeeLMAToken",
        "offset": 0,
        "slot": "4",
        "type": "t_contract(IBaseFeeLMAToken)6771"
      },
      {
        "astId": 5183,
        "contract": "contracts/FeesRouter.sol:FeesRouter",
        "label": "activePool",
        "offset": 0,
        "slot": "5",
        "type": "t_contract(IActivePool)6707"
      },
      {
        "astId": 5186,
        "contract": "contracts/FeesRouter.sol:FeesRouter",
        "label": "hogStaking",
        "offset": 0,
        "slot": "6",
        "type": "t_contract(IHOGStaking)6991"
      }
    ],
    "types": {
      "t_address": {
        "encoding": "inplace",
        "label": "address",
        "numberOfBytes": "20"
      },
      "t_bool": {
        "encoding": "inplace",
        "label": "bool",
        "numberOfBytes": "1"
      },
      "t_bytes32": {
        "encoding": "inplace",
        "label": "bytes32",
        "numberOfBytes": "32"
      },
      "t_contract(IActivePool)6707": {
        "encoding": "inplace",
        "label": "contract IActivePool",
        "numberOfBytes": "20"
      },
      "t_contract(IBaseFeeLMAToken)6771": {
        "encoding": "inplace",
        "label": "contract IBaseFeeLMAToken",
        "numberOfBytes": "20"
      },
      "t_contract(IHOGStaking)6991": {
        "encoding": "inplace",
        "label": "contract IHOGStaking",
        "numberOfBytes": "20"
      },
      "t_mapping(t_address,t_bool)": {
        "encoding": "mapping",
        "key": "t_address",
        "label": "mapping(address => bool)",
        "numberOfBytes": "32",
        "value": "t_bool"
      },
      "t_mapping(t_bytes32,t_struct(RoleData)19_storage)": {
        "encoding": "mapping",
        "key": "t_bytes32",
        "label": "mapping(bytes32 => struct AccessControl.RoleData)",
        "numberOfBytes": "32",
        "value": "t_struct(RoleData)19_storage"
      },
      "t_mapping(t_uint256,t_struct(FeeConfig)5165_storage)": {
        "encoding": "mapping",
        "key": "t_uint256",
        "label": "mapping(uint256 => struct FeesRouter.FeeConfig)",
        "numberOfBytes": "32",
        "value": "t_struct(FeeConfig)5165_storage"
      },
      "t_struct(FeeConfig)5165_storage": {
        "encoding": "inplace",
        "label": "struct FeesRouter.FeeConfig",
        "members": [
          {
            "astId": 5154,
            "contract": "contracts/FeesRouter.sol:FeesRouter",
            "label": "amountA",
            "offset": 0,
            "slot": "0",
            "type": "t_uint256"
          },
          {
            "astId": 5156,
            "contract": "contracts/FeesRouter.sol:FeesRouter",
            "label": "amountB",
            "offset": 0,
            "slot": "1",
            "type": "t_uint256"
          },
          {
            "astId": 5158,
            "contract": "contracts/FeesRouter.sol:FeesRouter",
            "label": "amountC",
            "offset": 0,
            "slot": "2",
            "type": "t_uint256"
          },
          {
            "astId": 5160,
            "contract": "contracts/FeesRouter.sol:FeesRouter",
            "label": "addressA",
            "offset": 0,
            "slot": "3",
            "type": "t_address"
          },
          {
            "astId": 5162,
            "contract": "contracts/FeesRouter.sol:FeesRouter",
            "label": "addressB",
            "offset": 0,
            "slot": "4",
            "type": "t_address"
          },
          {
            "astId": 5164,
            "contract": "contracts/FeesRouter.sol:FeesRouter",
            "label": "addressC",
            "offset": 0,
            "slot": "5",
            "type": "t_address"
          }
        ],
        "numberOfBytes": "192"
      },
      "t_struct(RoleData)19_storage": {
        "encoding": "inplace",
        "label": "struct AccessControl.RoleData",
        "members": [
          {
            "astId": 16,
            "contract": "contracts/FeesRouter.sol:FeesRouter",
            "label": "members",
            "offset": 0,
            "slot": "0",
            "type": "t_mapping(t_address,t_bool)"
          },
          {
            "astId": 18,
            "contract": "contracts/FeesRouter.sol:FeesRouter",
            "label": "adminRole",
            "offset": 0,
            "slot": "1",
            "type": "t_bytes32"
          }
        ],
        "numberOfBytes": "64"
      },
      "t_uint256": {
        "encoding": "inplace",
        "label": "uint256",
        "numberOfBytes": "32"
      }
    }
  }
}