{
  "address": "0xC6834207aB2D64365d10d98Cc37FA993a442B6De",
  "abi": [
    {
      "anonymous": false,
      "inputs": [
        {
          "indexed": true,
          "internalType": "address",
          "name": "previousOwner",
          "type": "address"
        },
        {
          "indexed": true,
          "internalType": "address",
          "name": "newOwner",
          "type": "address"
        }
      ],
      "name": "OwnershipTransferred",
      "type": "event"
    },
    {
      "anonymous": false,
      "inputs": [
        {
          "indexed": false,
          "internalType": "address",
          "name": "_sortedTrovesAddress",
          "type": "address"
        }
      ],
      "name": "SortedTrovesAddressChanged",
      "type": "event"
    },
    {
      "anonymous": false,
      "inputs": [
        {
          "indexed": false,
          "internalType": "address",
          "name": "_troveManagerAddress",
          "type": "address"
        }
      ],
      "name": "TroveManagerAddressChanged",
      "type": "event"
    },
    {
      "inputs": [],
      "name": "BORROWING_FEE_FLOOR",
      "outputs": [
        {
          "internalType": "uint256",
          "name": "",
          "type": "uint256"
        }
      ],
      "stateMutability": "view",
      "type": "function"
    },
    {
      "inputs": [],
      "name": "BaseFeeLMA_GAS_COMPENSATION",
      "outputs": [
        {
          "internalType": "uint256",
          "name": "",
          "type": "uint256"
        }
      ],
      "stateMutability": "view",
      "type": "function"
    },
    {
      "inputs": [],
      "name": "CCR",
      "outputs": [
        {
          "internalType": "uint256",
          "name": "",
          "type": "uint256"
        }
      ],
      "stateMutability": "view",
      "type": "function"
    },
    {
      "inputs": [],
      "name": "DECIMAL_PRECISION",
      "outputs": [
        {
          "internalType": "uint256",
          "name": "",
          "type": "uint256"
        }
      ],
      "stateMutability": "view",
      "type": "function"
    },
    {
      "inputs": [],
      "name": "MCR",
      "outputs": [
        {
          "internalType": "uint256",
          "name": "",
          "type": "uint256"
        }
      ],
      "stateMutability": "view",
      "type": "function"
    },
    {
      "inputs": [],
      "name": "MIN_NET_DEBT",
      "outputs": [
        {
          "internalType": "uint256",
          "name": "",
          "type": "uint256"
        }
      ],
      "stateMutability": "view",
      "type": "function"
    },
    {
      "inputs": [],
      "name": "NAME",
      "outputs": [
        {
          "internalType": "string",
          "name": "",
          "type": "string"
        }
      ],
      "stateMutability": "view",
      "type": "function"
    },
    {
      "inputs": [],
      "name": "PERCENT_DIVISOR",
      "outputs": [
        {
          "internalType": "uint256",
          "name": "",
          "type": "uint256"
        }
      ],
      "stateMutability": "view",
      "type": "function"
    },
    {
      "inputs": [],
      "name": "_100pct",
      "outputs": [
        {
          "internalType": "uint256",
          "name": "",
          "type": "uint256"
        }
      ],
      "stateMutability": "view",
      "type": "function"
    },
    {
      "inputs": [],
      "name": "activePool",
      "outputs": [
        {
          "internalType": "contract IActivePool",
          "name": "",
          "type": "address"
        }
      ],
      "stateMutability": "view",
      "type": "function"
    },
    {
      "inputs": [
        {
          "internalType": "uint256",
          "name": "_coll",
          "type": "uint256"
        },
        {
          "internalType": "uint256",
          "name": "_debt",
          "type": "uint256"
        },
        {
          "internalType": "uint256",
          "name": "_price",
          "type": "uint256"
        }
      ],
      "name": "computeCR",
      "outputs": [
        {
          "internalType": "uint256",
          "name": "",
          "type": "uint256"
        }
      ],
      "stateMutability": "pure",
      "type": "function"
    },
    {
      "inputs": [
        {
          "internalType": "uint256",
          "name": "_coll",
          "type": "uint256"
        },
        {
          "internalType": "uint256",
          "name": "_debt",
          "type": "uint256"
        }
      ],
      "name": "computeNominalCR",
      "outputs": [
        {
          "internalType": "uint256",
          "name": "",
          "type": "uint256"
        }
      ],
      "stateMutability": "pure",
      "type": "function"
    },
    {
      "inputs": [],
      "name": "defaultPool",
      "outputs": [
        {
          "internalType": "contract IDefaultPool",
          "name": "",
          "type": "address"
        }
      ],
      "stateMutability": "view",
      "type": "function"
    },
    {
      "inputs": [
        {
          "internalType": "uint256",
          "name": "_CR",
          "type": "uint256"
        },
        {
          "internalType": "uint256",
          "name": "_numTrials",
          "type": "uint256"
        },
        {
          "internalType": "uint256",
          "name": "_inputRandomSeed",
          "type": "uint256"
        }
      ],
      "name": "getApproxHint",
      "outputs": [
        {
          "internalType": "address",
          "name": "hintAddress",
          "type": "address"
        },
        {
          "internalType": "uint256",
          "name": "diff",
          "type": "uint256"
        },
        {
          "internalType": "uint256",
          "name": "latestRandomSeed",
          "type": "uint256"
        }
      ],
      "stateMutability": "view",
      "type": "function"
    },
    {
      "inputs": [],
      "name": "getEntireSystemColl",
      "outputs": [
        {
          "internalType": "uint256",
          "name": "entireSystemColl",
          "type": "uint256"
        }
      ],
      "stateMutability": "view",
      "type": "function"
    },
    {
      "inputs": [],
      "name": "getEntireSystemDebt",
      "outputs": [
        {
          "internalType": "uint256",
          "name": "entireSystemDebt",
          "type": "uint256"
        }
      ],
      "stateMutability": "view",
      "type": "function"
    },
    {
      "inputs": [
        {
          "internalType": "uint256",
          "name": "_BaseFeeLMAamount",
          "type": "uint256"
        },
        {
          "internalType": "uint256",
          "name": "_price",
          "type": "uint256"
        },
        {
          "internalType": "uint256",
          "name": "_maxIterations",
          "type": "uint256"
        }
      ],
      "name": "getRedemptionHints",
      "outputs": [
        {
          "internalType": "address",
          "name": "firstRedemptionHint",
          "type": "address"
        },
        {
          "internalType": "uint256",
          "name": "partialRedemptionHintNICR",
          "type": "uint256"
        },
        {
          "internalType": "uint256",
          "name": "truncatedBaseFeeLMAamount",
          "type": "uint256"
        }
      ],
      "stateMutability": "view",
      "type": "function"
    },
    {
      "inputs": [],
      "name": "owner",
      "outputs": [
        {
          "internalType": "address",
          "name": "",
          "type": "address"
        }
      ],
      "stateMutability": "view",
      "type": "function"
    },
    {
      "inputs": [],
      "name": "priceFeed",
      "outputs": [
        {
          "internalType": "contract IPriceFeed",
          "name": "",
          "type": "address"
        }
      ],
      "stateMutability": "view",
      "type": "function"
    },
    {
      "inputs": [],
      "name": "renounceOwnership",
      "outputs": [],
      "stateMutability": "nonpayable",
      "type": "function"
    },
    {
      "inputs": [
        {
          "internalType": "address",
          "name": "_sortedTrovesAddress",
          "type": "address"
        },
        {
          "internalType": "address",
          "name": "_troveManagerAddress",
          "type": "address"
        }
      ],
      "name": "setAddresses",
      "outputs": [],
      "stateMutability": "nonpayable",
      "type": "function"
    },
    {
      "inputs": [],
      "name": "sortedTroves",
      "outputs": [
        {
          "internalType": "contract ISortedTroves",
          "name": "",
          "type": "address"
        }
      ],
      "stateMutability": "view",
      "type": "function"
    },
    {
      "inputs": [
        {
          "internalType": "address",
          "name": "newOwner",
          "type": "address"
        }
      ],
      "name": "transferOwnership",
      "outputs": [],
      "stateMutability": "nonpayable",
      "type": "function"
    },
    {
      "inputs": [],
      "name": "troveManager",
      "outputs": [
        {
          "internalType": "contract ITroveManager",
          "name": "",
          "type": "address"
        }
      ],
      "stateMutability": "view",
      "type": "function"
    }
  ],
  "transactionHash": "0x338e9c5f5fc23e1ab051817b1e28865b8b3ae379b1fd3a115de299a7745be655",
  "args": [],
  "numDeployments": 1,
  "solcInputHash": "2129e9ec7e04fd631c603a52e715af2b",
  "bytecode": "0x608060405234801561001057600080fd5b5061001a3361001f565b610071565b600380546001600160a01b038381166001600160a01b0319831681179093556040519116919082907f8be0079c531659141344cd1fd0a4f28419497f9722a3daafe3b4186f6b6457e090600090a35050565b61128a806100806000396000f3fe608060405234801561001057600080fd5b50600436106101585760003560e01c80637b41bdbe116100c3578063a20baee61161007c578063a20baee614610217578063a3f4df7e1461029c578063ae918754146102d3578063c394a7fa146102e6578063f2fde38b146102f9578063f92d34331461030c57600080fd5b80637b41bdbe146102415780637f7dde4a14610254578063887105d3146102675780638da5cb5b1461026f57806390107afe14610280578063a20141521461029357600080fd5b80635733d58f116101155780635733d58f146101fe578063715018a61461020d57806372fe25aa14610217578063741bef1a14610226578063794e5724146101fe578063795d26c31461023957600080fd5b806313144dba1461015d5780631bf435551461019a5780633cc74225146101b05780633d83908a146101d05780634870dd9a146101e3578063525acdbb146101eb575b600080fd5b61017061016b366004611042565b610314565b604080516001600160a01b0390941684526020840192909252908201526060015b60405180910390f35b6101a2600181565b604051908152602001610191565b6001546101c3906001600160a01b031681565b604051610191919061106e565b6005546101c3906001600160a01b031681565b6101a260c881565b6101a26101f9366004611042565b6107cd565b6101a26714d1120d7b16000081565b6102156107e4565b005b6101a2670de0b6b3a764000081565b6002546101c3906001600160a01b031681565b6101a26107f8565b61017061024f366004611042565b6108f4565b6000546101c3906001600160a01b031681565b6101a2610be0565b6003546001600160a01b03166101c3565b61021561028e366004611097565b610ca5565b6101a261c35081565b6102c66040518060400160405280600b81526020016a48696e7448656c7065727360a81b81525081565b60405161019191906110d0565b6004546101c3906001600160a01b031681565b6101a26102f436600461111e565b610d6a565b610215610307366004611140565b610d7f565b6101a2610dfd565b6004805460408051634d62283160e01b81529051600093849384936001600160a01b0390911692899285928592634d622831928281019260209291908290030181865afa158015610369573d6000803e3d6000fd5b505050506040513d601f19601f8201168201806040525081019061038d919061115d565b90505b6001600160a01b038116158015906104225750600554604051630d293c7160e41b81526001600160a01b038381166004830152602482018b90526714d1120d7b16000092169063d293c71090604401602060405180830381865afa1580156103fc573d6000803e3d6000fd5b505050506040513d601f19601f82011682018060405250810190610420919061117a565b105b1561049b57604051632dc9c0eb60e21b81526001600160a01b0384169063b72703ac9061045390849060040161106e565b602060405180830381865afa158015610470573d6000803e3d6000fd5b505050506040513d601f19601f82011682018060405250810190610494919061115d565b9050610390565b809550866000036104ac5760001996505b6001600160a01b038116158015906104c45750600082115b80156104db57506000876104d7816111a9565b9850115b156107b557600554604051630c08ff5f60e01b81526000916105d4916001600160a01b0390911690630c08ff5f9061051790869060040161106e565b602060405180830381865afa158015610534573d6000803e3d6000fd5b505050506040513d601f19601f82011682018060405250810190610558919061117a565b60055460405163d66a255360e01b81526105ce916001600160a01b03169063d66a25539061058a90889060040161106e565b602060405180830381865afa1580156105a7573d6000803e3d6000fd5b505050506040513d601f19601f820116820180604052508101906105cb919061117a565b90565b90610e1f565b90508281111561073457600181111561072e5760006105fd846105f8846001610e2b565b610e37565b60055460405163130389e960e31b81529192506000916106e7916001600160a01b03169063981c4f489061063590889060040161106e565b602060405180830381865afa158015610652573d6000803e3d6000fd5b505050506040513d601f19601f82011682018060405250810190610676919061117a565b6005546040516309019aaf60e31b81526001600160a01b039091169063480cd578906106a690899060040161106e565b602060405180830381865afa1580156106c3573d6000803e3d6000fd5b505050506040513d601f19601f820116820180604052508101906105ce919061117a565b905060006106ff6106f8848e610e4d565b8390610e2b565b9050600061070d8585610e2b565b90508061071a8382610e59565b9a506107268886610e2b565b975050505050505b506107b5565b61073e8382610e2b565b9250604051632dc9c0eb60e21b81526001600160a01b0385169063b72703ac9061076c90859060040161106e565b602060405180830381865afa158015610789573d6000803e3d6000fd5b505050506040513d601f19601f820116820180604052508101906107ad919061115d565b9150506104ac565b6107bf8983610e2b565b935050505093509350939050565b60006107da848484610e8e565b90505b9392505050565b6107ec610ec2565b6107f66000610f1c565b565b60008054604080516315b3137b60e21b8152905183926001600160a01b0316916356cc4dec9160048083019260209291908290030181865afa158015610842573d6000803e3d6000fd5b505050506040513d601f19601f82011682018060405250810190610866919061117a565b90506000600160009054906101000a90046001600160a01b03166001600160a01b03166356cc4dec6040518163ffffffff1660e01b8152600401602060405180830381865afa1580156108bd573d6000803e3d6000fd5b505050506040513d601f19601f820116820180604052508101906108e1919061117a565b90506108ed8282610e1f565b9250505090565b600080600080600560009054906101000a90046001600160a01b03166001600160a01b03166349eefeee6040518163ffffffff1660e01b8152600401602060405180830381865afa15801561094d573d6000803e3d6000fd5b505050506040513d601f19601f82011682018060405250810190610971919061117a565b90508060000361098b576000808693509350935050610bd7565b6004805460408051634d62283160e01b815290516001600160a01b0390921692634d6228319282820192602092908290030181865afa1580156109d2573d6000803e3d6000fd5b505050506040513d601f19601f820116820180604052508101906109f6919061115d565b60055460405163b0d8e18160e01b8152919550610a739189916001600160a01b03169063b0d8e18190610a2d90899060040161106e565b602060405180830381865afa158015610a4a573d6000803e3d6000fd5b505050506040513d601f19601f82011682018060405250810190610a6e919061117a565b610f6e565b925084915060015b86811015610bd45760408051602081018590520160408051601f19818403018152919052805160209091012092506000610ab583856111d6565b600554604051633669c91160e21b8152600481018390529192506000916001600160a01b039091169063d9a7244490602401602060405180830381865afa158015610b04573d6000803e3d6000fd5b505050506040513d601f19601f82011682018060405250810190610b28919061115d565b60055460405163b0d8e18160e01b81529192506000916001600160a01b039091169063b0d8e18190610b5e90859060040161106e565b602060405180830381865afa158015610b7b573d6000803e3d6000fd5b505050506040513d601f19601f82011682018060405250810190610b9f919061117a565b90506000610bad828d610f6e565b905087811015610bbe578097508298505b84610bc8816111ea565b95505050505050610a7b565b50505b93509350939050565b600080546040805163a2f0398360e01b8152905183926001600160a01b03169163a2f039839160048083019260209291908290030181865afa158015610c2a573d6000803e3d6000fd5b505050506040513d601f19601f82011682018060405250810190610c4e919061117a565b90506000600160009054906101000a90046001600160a01b03166001600160a01b031663a2f039836040518163ffffffff1660e01b8152600401602060405180830381865afa1580156108bd573d6000803e3d6000fd5b610cad610ec2565b610cb682610f91565b610cbf81610f91565b600480546001600160a01b038085166001600160a01b03199283161790925560058054928416929091169190911790556040517f65f4cf077bc01e4742eb5ad98326f6e95b63548ea24b17f8d5e823111fe7880090610d1f90849061106e565b60405180910390a17f143219c9e69b09e07e095fcc889b43d8f46ca892bba65f08dc3a0050869a567881604051610d56919061106e565b60405180910390a1610d666107e4565b5050565b6000610d768383610e59565b90505b92915050565b610d87610ec2565b6001600160a01b038116610df15760405162461bcd60e51b815260206004820152602660248201527f4f776e61626c653a206e6577206f776e657220697320746865207a65726f206160448201526564647265737360d01b60648201526084015b60405180910390fd5b610dfa81610f1c565b50565b610e116103e8670de0b6b3a7640000611203565b610e1c906005611217565b81565b6000610d76828461122e565b6000610d768284611241565b6000818310610e465781610d76565b5090919050565b6000610d768284611217565b60008115610e8557610e7e82610e788568056bc75e2d63100000610e4d565b90611036565b9050610d79565b50600019610d79565b60008215610eb9576000610eb083610e78868189670de0b6b3a7640000610e4d565b91506107dd9050565b506000196107dd565b6003546001600160a01b031633146107f65760405162461bcd60e51b815260206004820181905260248201527f4f776e61626c653a2063616c6c6572206973206e6f7420746865206f776e65726044820152606401610de8565b600380546001600160a01b038381166001600160a01b0319831681179093556040519116919082907f8be0079c531659141344cd1fd0a4f28419497f9722a3daafe3b4186f6b6457e090600090a35050565b600081831015610f8757610f828284610e2b565b610d76565b610d768383610e2b565b6001600160a01b038116610fe75760405162461bcd60e51b815260206004820152601e60248201527f4163636f756e742063616e6e6f74206265207a65726f206164647265737300006044820152606401610de8565b803b80610d665760405162461bcd60e51b815260206004820181905260248201527f4163636f756e7420636f64652073697a652063616e6e6f74206265207a65726f6044820152606401610de8565b6000610d768284611203565b60008060006060848603121561105757600080fd5b505081359360208301359350604090920135919050565b6001600160a01b0391909116815260200190565b6001600160a01b0381168114610dfa57600080fd5b600080604083850312156110aa57600080fd5b82356110b581611082565b915060208301356110c581611082565b809150509250929050565b600060208083528351808285015260005b818110156110fd578581018301518582016040015282016110e1565b506000604082860101526040601f19601f8301168501019250505092915050565b6000806040838503121561113157600080fd5b50508035926020909101359150565b60006020828403121561115257600080fd5b81356107dd81611082565b60006020828403121561116f57600080fd5b81516107dd81611082565b60006020828403121561118c57600080fd5b5051919050565b634e487b7160e01b600052601160045260246000fd5b6000816111b8576111b8611193565b506000190190565b634e487b7160e01b600052601260045260246000fd5b6000826111e5576111e56111c0565b500690565b6000600182016111fc576111fc611193565b5060010190565b600082611212576112126111c0565b500490565b8082028115828204841417610d7957610d79611193565b80820180821115610d7957610d79611193565b81810381811115610d7957610d7961119356fea264697066735822122029d47cf5308e73688b0c127bef264a776c8526f8933081978d897ac9de4b135e64736f6c63430008130033",
  "devdoc": {
    "kind": "dev",
    "methods": {
      "owner()": {
        "details": "Returns the address of the current owner."
      },
      "renounceOwnership()": {
        "details": "Leaves the contract without owner. It will not be possible to call `onlyOwner` functions. Can only be called by the current owner. NOTE: Renouncing ownership will leave the contract without an owner, thereby disabling any functionality that is only available to the owner."
      },
      "transferOwnership(address)": {
        "details": "Transfers ownership of the contract to a new account (`newOwner`). Can only be called by the current owner."
      }
    },
    "version": 1
  },
  "userdoc": {
    "kind": "user",
    "methods": {},
    "version": 1
  },
  "storageLayout": {
    "storage": [
      {
        "astId": 14541,
        "contract": "contracts/HintHelpers.sol:HintHelpers",
        "label": "activePool",
        "offset": 0,
        "slot": "0",
        "type": "t_contract(IActivePool)15229"
      },
      {
        "astId": 14544,
        "contract": "contracts/HintHelpers.sol:HintHelpers",
        "label": "defaultPool",
        "offset": 0,
        "slot": "1",
        "type": "t_contract(IDefaultPool)15602"
      },
      {
        "astId": 14548,
        "contract": "contracts/HintHelpers.sol:HintHelpers",
        "label": "priceFeed",
        "offset": 0,
        "slot": "2",
        "type": "t_contract(IPriceFeed)15844"
      },
      {
        "astId": 396,
        "contract": "contracts/HintHelpers.sol:HintHelpers",
        "label": "_owner",
        "offset": 0,
        "slot": "3",
        "type": "t_address"
      },
      {
        "astId": 5484,
        "contract": "contracts/HintHelpers.sol:HintHelpers",
        "label": "sortedTroves",
        "offset": 0,
        "slot": "4",
        "type": "t_contract(ISortedTroves)15976"
      },
      {
        "astId": 5487,
        "contract": "contracts/HintHelpers.sol:HintHelpers",
        "label": "troveManager",
        "offset": 0,
        "slot": "5",
        "type": "t_contract(ITroveManager)16603"
      }
    ],
    "types": {
      "t_address": {
        "encoding": "inplace",
        "label": "address",
        "numberOfBytes": "20"
      },
      "t_contract(IActivePool)15229": {
        "encoding": "inplace",
        "label": "contract IActivePool",
        "numberOfBytes": "20"
      },
      "t_contract(IDefaultPool)15602": {
        "encoding": "inplace",
        "label": "contract IDefaultPool",
        "numberOfBytes": "20"
      },
      "t_contract(IPriceFeed)15844": {
        "encoding": "inplace",
        "label": "contract IPriceFeed",
        "numberOfBytes": "20"
      },
      "t_contract(ISortedTroves)15976": {
        "encoding": "inplace",
        "label": "contract ISortedTroves",
        "numberOfBytes": "20"
      },
      "t_contract(ITroveManager)16603": {
        "encoding": "inplace",
        "label": "contract ITroveManager",
        "numberOfBytes": "20"
      }
    }
  }
}