{
  "address": "0x063588Aa1DFe88CA9b96789BE10111CbbA867F8E",
  "abi": [
    {
      "inputs": [
        {
          "internalType": "address",
          "name": "_defaultAdmin",
          "type": "address"
        },
        {
          "internalType": "address",
          "name": "_ultimateAdmin",
          "type": "address"
        }
      ],
      "stateMutability": "nonpayable",
      "type": "constructor"
    },
    {
      "inputs": [],
      "name": "CallerIsNotHDGProtocol",
      "type": "error"
    },
    {
      "inputs": [],
      "name": "ConfigNotFound",
      "type": "error"
    },
    {
      "inputs": [],
      "name": "InvalidAddress",
      "type": "error"
    },
    {
      "inputs": [],
      "name": "InvalidIndex",
      "type": "error"
    },
    {
      "inputs": [],
      "name": "InvalidInput",
      "type": "error"
    },
    {
      "anonymous": false,
      "inputs": [
        {
          "indexed": true,
          "internalType": "address",
          "name": "setter",
          "type": "address"
        },
        {
          "indexed": true,
          "internalType": "uint256",
          "name": "percentage",
          "type": "uint256"
        },
        {
          "indexed": false,
          "internalType": "uint256",
          "name": "amountA",
          "type": "uint256"
        },
        {
          "indexed": false,
          "internalType": "uint256",
          "name": "amountB",
          "type": "uint256"
        },
        {
          "indexed": false,
          "internalType": "uint256",
          "name": "amountC",
          "type": "uint256"
        },
        {
          "indexed": false,
          "internalType": "address",
          "name": "addressA",
          "type": "address"
        },
        {
          "indexed": false,
          "internalType": "address",
          "name": "addressB",
          "type": "address"
        },
        {
          "indexed": false,
          "internalType": "address",
          "name": "addressC",
          "type": "address"
        }
      ],
      "name": "CollFeeConfigUpdated",
      "type": "event"
    },
    {
      "anonymous": false,
      "inputs": [
        {
          "indexed": true,
          "internalType": "address",
          "name": "setter",
          "type": "address"
        },
        {
          "indexed": true,
          "internalType": "uint256",
          "name": "percentage",
          "type": "uint256"
        },
        {
          "indexed": false,
          "internalType": "uint256",
          "name": "amountA",
          "type": "uint256"
        },
        {
          "indexed": false,
          "internalType": "uint256",
          "name": "amountB",
          "type": "uint256"
        },
        {
          "indexed": false,
          "internalType": "uint256",
          "name": "amountC",
          "type": "uint256"
        },
        {
          "indexed": false,
          "internalType": "address",
          "name": "addressA",
          "type": "address"
        },
        {
          "indexed": false,
          "internalType": "address",
          "name": "addressB",
          "type": "address"
        },
        {
          "indexed": false,
          "internalType": "address",
          "name": "addressC",
          "type": "address"
        }
      ],
      "name": "DebtFeeConfigUpdated",
      "type": "event"
    },
    {
      "anonymous": false,
      "inputs": [
        {
          "indexed": true,
          "internalType": "bytes32",
          "name": "role",
          "type": "bytes32"
        },
        {
          "indexed": true,
          "internalType": "bytes32",
          "name": "previousAdminRole",
          "type": "bytes32"
        },
        {
          "indexed": true,
          "internalType": "bytes32",
          "name": "newAdminRole",
          "type": "bytes32"
        }
      ],
      "name": "RoleAdminChanged",
      "type": "event"
    },
    {
      "anonymous": false,
      "inputs": [
        {
          "indexed": true,
          "internalType": "bytes32",
          "name": "role",
          "type": "bytes32"
        },
        {
          "indexed": true,
          "internalType": "address",
          "name": "account",
          "type": "address"
        },
        {
          "indexed": true,
          "internalType": "address",
          "name": "sender",
          "type": "address"
        }
      ],
      "name": "RoleGranted",
      "type": "event"
    },
    {
      "anonymous": false,
      "inputs": [
        {
          "indexed": true,
          "internalType": "bytes32",
          "name": "role",
          "type": "bytes32"
        },
        {
          "indexed": true,
          "internalType": "address",
          "name": "account",
          "type": "address"
        },
        {
          "indexed": true,
          "internalType": "address",
          "name": "sender",
          "type": "address"
        }
      ],
      "name": "RoleRevoked",
      "type": "event"
    },
    {
      "inputs": [],
      "name": "DEFAULT_ADMIN_ROLE",
      "outputs": [
        {
          "internalType": "bytes32",
          "name": "",
          "type": "bytes32"
        }
      ],
      "stateMutability": "view",
      "type": "function"
    },
    {
      "inputs": [],
      "name": "activePool",
      "outputs": [
        {
          "internalType": "contract IActivePool",
          "name": "",
          "type": "address"
        }
      ],
      "stateMutability": "view",
      "type": "function"
    },
    {
      "inputs": [],
      "name": "baseFeeLMAToken",
      "outputs": [
        {
          "internalType": "contract IBaseFeeLMAToken",
          "name": "",
          "type": "address"
        }
      ],
      "stateMutability": "view",
      "type": "function"
    },
    {
      "inputs": [],
      "name": "borrowersOp",
      "outputs": [
        {
          "internalType": "address",
          "name": "",
          "type": "address"
        }
      ],
      "stateMutability": "view",
      "type": "function"
    },
    {
      "inputs": [
        {
          "internalType": "uint256",
          "name": "",
          "type": "uint256"
        }
      ],
      "name": "collFeeConfigs",
      "outputs": [
        {
          "internalType": "uint256",
          "name": "amountA",
          "type": "uint256"
        },
        {
          "internalType": "uint256",
          "name": "amountB",
          "type": "uint256"
        },
        {
          "internalType": "uint256",
          "name": "amountC",
          "type": "uint256"
        },
        {
          "internalType": "address",
          "name": "addressA",
          "type": "address"
        },
        {
          "internalType": "address",
          "name": "addressB",
          "type": "address"
        },
        {
          "internalType": "address",
          "name": "addressC",
          "type": "address"
        }
      ],
      "stateMutability": "view",
      "type": "function"
    },
    {
      "inputs": [
        {
          "internalType": "uint256",
          "name": "",
          "type": "uint256"
        }
      ],
      "name": "debtFeeConfigs",
      "outputs": [
        {
          "internalType": "uint256",
          "name": "amountA",
          "type": "uint256"
        },
        {
          "internalType": "uint256",
          "name": "amountB",
          "type": "uint256"
        },
        {
          "internalType": "uint256",
          "name": "amountC",
          "type": "uint256"
        },
        {
          "internalType": "address",
          "name": "addressA",
          "type": "address"
        },
        {
          "internalType": "address",
          "name": "addressB",
          "type": "address"
        },
        {
          "internalType": "address",
          "name": "addressC",
          "type": "address"
        }
      ],
      "stateMutability": "view",
      "type": "function"
    },
    {
      "inputs": [
        {
          "internalType": "uint256",
          "name": "_debt",
          "type": "uint256"
        },
        {
          "internalType": "uint256",
          "name": "_fee",
          "type": "uint256"
        }
      ],
      "name": "distributeCollFee",
      "outputs": [],
      "stateMutability": "nonpayable",
      "type": "function"
    },
    {
      "inputs": [
        {
          "internalType": "uint256",
          "name": "_debt",
          "type": "uint256"
        },
        {
          "internalType": "uint256",
          "name": "_fee",
          "type": "uint256"
        }
      ],
      "name": "distributeDebtFee",
      "outputs": [],
      "stateMutability": "nonpayable",
      "type": "function"
    },
    {
      "inputs": [],
      "name": "feeCount",
      "outputs": [
        {
          "internalType": "uint256",
          "name": "",
          "type": "uint256"
        }
      ],
      "stateMutability": "view",
      "type": "function"
    },
    {
      "inputs": [
        {
          "internalType": "bytes32",
          "name": "role",
          "type": "bytes32"
        }
      ],
      "name": "getRoleAdmin",
      "outputs": [
        {
          "internalType": "bytes32",
          "name": "",
          "type": "bytes32"
        }
      ],
      "stateMutability": "view",
      "type": "function"
    },
    {
      "inputs": [
        {
          "internalType": "bytes32",
          "name": "role",
          "type": "bytes32"
        },
        {
          "internalType": "address",
          "name": "account",
          "type": "address"
        }
      ],
      "name": "grantRole",
      "outputs": [],
      "stateMutability": "nonpayable",
      "type": "function"
    },
    {
      "inputs": [
        {
          "internalType": "bytes32",
          "name": "role",
          "type": "bytes32"
        },
        {
          "internalType": "address",
          "name": "account",
          "type": "address"
        }
      ],
      "name": "hasRole",
      "outputs": [
        {
          "internalType": "bool",
          "name": "",
          "type": "bool"
        }
      ],
      "stateMutability": "view",
      "type": "function"
    },
    {
      "inputs": [
        {
          "internalType": "bytes32",
          "name": "role",
          "type": "bytes32"
        },
        {
          "internalType": "address",
          "name": "account",
          "type": "address"
        }
      ],
      "name": "renounceRole",
      "outputs": [],
      "stateMutability": "nonpayable",
      "type": "function"
    },
    {
      "inputs": [
        {
          "internalType": "bytes32",
          "name": "role",
          "type": "bytes32"
        },
        {
          "internalType": "address",
          "name": "account",
          "type": "address"
        }
      ],
      "name": "revokeRole",
      "outputs": [],
      "stateMutability": "nonpayable",
      "type": "function"
    },
    {
      "inputs": [
        {
          "internalType": "contract IActivePool",
          "name": "_activePool",
          "type": "address"
        },
        {
          "internalType": "contract IBaseFeeLMAToken",
          "name": "_baseFeeLMAToken",
          "type": "address"
        },
        {
          "internalType": "address",
          "name": "_borrowersOp",
          "type": "address"
        },
        {
          "internalType": "address",
          "name": "_troveManager",
          "type": "address"
        }
      ],
      "name": "setAddresses",
      "outputs": [],
      "stateMutability": "nonpayable",
      "type": "function"
    },
    {
      "inputs": [
        {
          "internalType": "uint256",
          "name": "_percentage",
          "type": "uint256"
        },
        {
          "internalType": "uint256",
          "name": "_amountA",
          "type": "uint256"
        },
        {
          "internalType": "uint256",
          "name": "_amountB",
          "type": "uint256"
        },
        {
          "internalType": "uint256",
          "name": "_amountC",
          "type": "uint256"
        },
        {
          "internalType": "address",
          "name": "_addressA",
          "type": "address"
        },
        {
          "internalType": "address",
          "name": "_addressB",
          "type": "address"
        },
        {
          "internalType": "address",
          "name": "_addressC",
          "type": "address"
        }
      ],
      "name": "setCollFeeConfig",
      "outputs": [],
      "stateMutability": "nonpayable",
      "type": "function"
    },
    {
      "inputs": [
        {
          "internalType": "uint256",
          "name": "_percentage",
          "type": "uint256"
        },
        {
          "internalType": "uint256",
          "name": "_amountA",
          "type": "uint256"
        },
        {
          "internalType": "uint256",
          "name": "_amountB",
          "type": "uint256"
        },
        {
          "internalType": "uint256",
          "name": "_amountC",
          "type": "uint256"
        },
        {
          "internalType": "address",
          "name": "_addressA",
          "type": "address"
        },
        {
          "internalType": "address",
          "name": "_addressB",
          "type": "address"
        },
        {
          "internalType": "address",
          "name": "_addressC",
          "type": "address"
        }
      ],
      "name": "setDebtFeeConfig",
      "outputs": [],
      "stateMutability": "nonpayable",
      "type": "function"
    },
    {
      "inputs": [
        {
          "internalType": "uint256",
          "name": "_percentage",
          "type": "uint256"
        },
        {
          "internalType": "uint256",
          "name": "_amountA",
          "type": "uint256"
        },
        {
          "internalType": "uint256",
          "name": "_amountB",
          "type": "uint256"
        },
        {
          "internalType": "uint256",
          "name": "_amountC",
          "type": "uint256"
        },
        {
          "internalType": "address",
          "name": "_addressA",
          "type": "address"
        },
        {
          "internalType": "address",
          "name": "_addressB",
          "type": "address"
        },
        {
          "internalType": "address",
          "name": "_addressC",
          "type": "address"
        }
      ],
      "name": "setFeeConfigs",
      "outputs": [],
      "stateMutability": "nonpayable",
      "type": "function"
    },
    {
      "inputs": [
        {
          "internalType": "bytes4",
          "name": "interfaceId",
          "type": "bytes4"
        }
      ],
      "name": "supportsInterface",
      "outputs": [
        {
          "internalType": "bool",
          "name": "",
          "type": "bool"
        }
      ],
      "stateMutability": "view",
      "type": "function"
    },
    {
      "inputs": [],
      "name": "troveManager",
      "outputs": [
        {
          "internalType": "address",
          "name": "",
          "type": "address"
        }
      ],
      "stateMutability": "view",
      "type": "function"
    }
  ],
  "transactionHash": "0x9cf1edb65e62b1729dbafd6de0881062fe4649f6897c1639d5dcdd50aba7bf1b",
  "args": [
    "0x20CCd22C0Cb18F6fbEDCC08aC93E9787c1e98a89",
    "0x20CCd22C0Cb18F6fbEDCC08aC93E9787c1e98a89"
  ],
  "numDeployments": 1,
  "solcInputHash": "33b47dd82d2ae5cde270371aff45adfa",
  "bytecode": "0x60806040523480156200001157600080fd5b5060405162001ce638038062001ce6833981016040819052620000349162000221565b6001600160a01b0382166200005c5760405163e6c4247b60e01b815260040160405180910390fd5b6001600160a01b038116620000845760405163e6c4247b60e01b815260040160405180910390fd5b6200009f60008051602062001cc68339815191528262000118565b620000c960008051602062001ca683398151915260008051602062001cc6833981519152620001b9565b620000e460008051602062001ca68339815191528362000118565b620001107f503cf060389b91af8851125bd70ce66d16d12330718b103fc7674ef6d27e70c93362000118565b505062000259565b6000828152602081815260408083206001600160a01b038516845290915290205460ff16620001b5576000828152602081815260408083206001600160a01b03851684529091529020805460ff19166001179055620001743390565b6001600160a01b0316816001600160a01b0316837f2f8788117e7eff1d82e926ec794901d17c78024a50270940304540a733656f0d60405160405180910390a45b5050565b600082815260208190526040808220600101805490849055905190918391839186917fbd79b86ffe0ab8e8776151514217cd7cacd52c909f66475c3af44e129f0b00ff9190a4505050565b80516001600160a01b03811681146200021c57600080fd5b919050565b600080604083850312156200023557600080fd5b620002408362000204565b9150620002506020840162000204565b90509250929050565b611a3d80620002696000396000f3fe608060405234801561001057600080fd5b506004361061012c5760003560e01c80638f913789116100ad578063e1c38ed911610071578063e1c38ed914610290578063eaa378ca14610299578063f8c713e8146102fc578063fd3b9e681461030f578063fee004491461032257600080fd5b80638f9137891461023c57806391d148541461024f578063a217fddf14610262578063ca866c7f1461026a578063d547741f1461027d57600080fd5b80634a945f8d116100f45780634a945f8d146101dd5780635b05e5bd146101f05780636376b624146102035780637f7dde4a14610216578063813154a01461022957600080fd5b806301ffc9a714610131578063248a9ca3146101595780632f2ff15d1461018a57806336568abe1461019f5780633d83908a146101b2575b600080fd5b61014461013f366004611685565b610374565b60405190151581526020015b60405180910390f35b61017c6101673660046116af565b60009081526020819052604090206001015490565b604051908152602001610150565b61019d6101983660046116dd565b6103ab565b005b61019d6101ad3660046116dd565b6103d5565b6007546101c5906001600160a01b031681565b6040516001600160a01b039091168152602001610150565b61019d6101eb36600461170d565b610458565b61019d6101fe366004611769565b610599565b61019d6102113660046117db565b610719565b6005546101c5906001600160a01b031681565b6006546101c5906001600160a01b031681565b6004546101c5906001600160a01b031681565b61014461025d3660046116dd565b610a3c565b61017c600081565b61019d610278366004611769565b610a65565b61019d61028b3660046116dd565b610bd3565b61017c60035481565b6102ea6102a73660046116af565b6001602081905260009182526040909120805491810154600282015460038301546004840154600590940154929391926001600160a01b03918216928216911686565b604051610150969594939291906117fd565b61019d61030a366004611769565b610bf8565b61019d61031d3660046117db565b610eb5565b6102ea6103303660046116af565b600260208190526000918252604090912080546001820154928201546003830154600484015460059094015492949391926001600160a01b03918216928216911686565b60006001600160e01b03198216637965db0b60e01b14806103a557506301ffc9a760e01b6001600160e01b03198316145b92915050565b6000828152602081905260409020600101546103c68161119b565b6103d083836111a8565b505050565b6001600160a01b038116331461044a5760405162461bcd60e51b815260206004820152602f60248201527f416363657373436f6e74726f6c3a2063616e206f6e6c792072656e6f756e636560448201526e103937b632b9903337b91039b2b63360891b60648201526084015b60405180910390fd5b610454828261122c565b5050565b7f503cf060389b91af8851125bd70ce66d16d12330718b103fc7674ef6d27e70c96104828161119b565b6001600160a01b0383166104a95760405163e6c4247b60e01b815260040160405180910390fd5b6001600160a01b0382166104d05760405163e6c4247b60e01b815260040160405180910390fd5b6001600160a01b0385166104f75760405163e6c4247b60e01b815260040160405180910390fd5b6001600160a01b03841661051e5760405163e6c4247b60e01b815260040160405180910390fd5b600580546001600160a01b038088166001600160a01b031992831617909255600480548784169083161790556006805486841690831617905560078054928516929091169190911790556105927f503cf060389b91af8851125bd70ce66d16d12330718b103fc7674ef6d27e70c93361122c565b5050505050565b6000805160206119e88339815191526105b18161119b565b6105c088888888888888611291565b6040518060c00160405280888152602001878152602001868152602001856001600160a01b03168152602001846001600160a01b03168152602001836001600160a01b0316815250600260008a815260200190815260200160002060008201518160000155602082015181600101556040820151816002015560608201518160030160006101000a8154816001600160a01b0302191690836001600160a01b0316021790555060808201518160040160006101000a8154816001600160a01b0302191690836001600160a01b0316021790555060a08201518160050160006101000a8154816001600160a01b0302191690836001600160a01b0316021790555090505087336001600160a01b03167f5348ea1904340e964d9091cfa5c4d28860f58c3d5030493a2a91aed33c8c594a898989898989604051610707969594939291906117fd565b60405180910390a35050505050505050565b6006546001600160a01b03163314610756576007546001600160a01b031633146107565760405163293f7ccf60e01b815260040160405180910390fd5b60006002600061076685856113aa565b815260208082019290925260409081016000908120825160c081018452815480825260018301549582019590955260028201549381019390935260038101546001600160a01b0390811660608501526004820154811660808501526005909101541660a0830152909250906107dc90849061145f565b905060006107ee84846020015161145f565b9050600061080085856040015161145f565b905060008161080f848661184a565b610819919061184a565b905085811461083a578061082d878661184a565b610837919061185d565b93505b60608501516001600160a01b0316158015610860575060808501516001600160a01b0316155b8015610877575060a08501516001600160a01b0316155b1561089557604051634a29b9a360e11b815260040160405180910390fd5b6005546001600160a01b031684158015906108bc575060608601516001600160a01b031615155b156109265760608601516040516316daab2160e01b81526001600160a01b038316916316daab21916108f391908990600401611870565b600060405180830381600087803b15801561090d57600080fd5b505af1158015610921573d6000803e3d6000fd5b505050505b600084118015610942575060808601516001600160a01b031615155b156109ac5760808601516040516316daab2160e01b81526001600160a01b038316916316daab219161097991908890600401611870565b600060405180830381600087803b15801561099357600080fd5b505af11580156109a7573d6000803e3d6000fd5b505050505b6000831180156109c8575060a08601516001600160a01b031615155b15610a325760a08601516040516316daab2160e01b81526001600160a01b038316916316daab21916109ff91908790600401611870565b600060405180830381600087803b158015610a1957600080fd5b505af1158015610a2d573d6000803e3d6000fd5b505050505b5050505050505050565b6000918252602082815260408084206001600160a01b0393909316845291905290205460ff1690565b6000805160206119e8833981519152610a7d8161119b565b610a8c88888888888888611291565b6040518060c00160405280888152602001878152602001868152602001856001600160a01b03168152602001846001600160a01b03168152602001836001600160a01b0316815250600160008a815260200190815260200160002060008201518160000155602082015181600101556040820151816002015560608201518160030160006101000a8154816001600160a01b0302191690836001600160a01b0316021790555060808201518160040160006101000a8154816001600160a01b0302191690836001600160a01b0316021790555060a08201518160050160006101000a8154816001600160a01b0302191690836001600160a01b0316021790555090505087336001600160a01b03167fbc99ed43606ac935e4dc17dab93250c9bd493b5160a7e3b7bf0a96a3c3961309898989898989604051610707969594939291906117fd565b600082815260208190526040902060010154610bee8161119b565b6103d0838361122c565b6000805160206119e8833981519152610c108161119b565b610c1f88888888888888611291565b6040518060c00160405280888152602001878152602001868152602001856001600160a01b03168152602001846001600160a01b03168152602001836001600160a01b0316815250600160008a815260200190815260200160002060008201518160000155602082015181600101556040820151816002015560608201518160030160006101000a8154816001600160a01b0302191690836001600160a01b0316021790555060808201518160040160006101000a8154816001600160a01b0302191690836001600160a01b0316021790555060a08201518160050160006101000a8154816001600160a01b0302191690836001600160a01b031602179055509050506040518060c00160405280888152602001878152602001868152602001856001600160a01b03168152602001846001600160a01b03168152602001836001600160a01b0316815250600260008a815260200190815260200160002060008201518160000155602082015181600101556040820151816002015560608201518160030160006101000a8154816001600160a01b0302191690836001600160a01b0316021790555060808201518160040160006101000a8154816001600160a01b0302191690836001600160a01b0316021790555060a08201518160050160006101000a8154816001600160a01b0302191690836001600160a01b0316021790555090505087336001600160a01b03167fbc99ed43606ac935e4dc17dab93250c9bd493b5160a7e3b7bf0a96a3c3961309898989898989604051610e69969594939291906117fd565b60405180910390a387336001600160a01b03167f5348ea1904340e964d9091cfa5c4d28860f58c3d5030493a2a91aed33c8c594a898989898989604051610707969594939291906117fd565b6006546001600160a01b03163314610ef2576007546001600160a01b03163314610ef25760405163293f7ccf60e01b815260040160405180910390fd5b600060016000610f0285856113aa565b815260208082019290925260409081016000908120825160c081018452815480825260018301549582019590955260028201549381019390935260038101546001600160a01b0390811660608501526004820154811660808501526005909101541660a083015290925090610f7890849061145f565b90506000610f8a84846020015161145f565b90506000610f9c85856040015161145f565b9050600081610fab848661184a565b610fb5919061184a565b9050858114610fd65780610fc9878661184a565b610fd3919061185d565b93505b60608501516001600160a01b0316158015610ffc575060808501516001600160a01b0316155b8015611013575060a08501516001600160a01b0316155b1561103157604051634a29b9a360e11b815260040160405180910390fd5b6004546001600160a01b03168415801590611058575060608601516001600160a01b031615155b156110c25760608601516040516340c10f1960e01b81526001600160a01b038316916340c10f199161108f91908990600401611870565b600060405180830381600087803b1580156110a957600080fd5b505af11580156110bd573d6000803e3d6000fd5b505050505b6000841180156110de575060808601516001600160a01b031615155b156111485760808601516040516340c10f1960e01b81526001600160a01b038316916340c10f199161111591908890600401611870565b600060405180830381600087803b15801561112f57600080fd5b505af1158015611143573d6000803e3d6000fd5b505050505b600083118015611164575060a08601516001600160a01b031615155b15610a325760a08601516040516340c10f1960e01b81526001600160a01b038316916340c10f19916109ff91908790600401611870565b6111a5813361147e565b50565b6111b28282610a3c565b610454576000828152602081815260408083206001600160a01b03851684529091529020805460ff191660011790556111e83390565b6001600160a01b0316816001600160a01b0316837f2f8788117e7eff1d82e926ec794901d17c78024a50270940304540a733656f0d60405160405180910390a45050565b6112368282610a3c565b15610454576000828152602081815260408083206001600160a01b0385168085529252808320805460ff1916905551339285917ff6391f5c32d9c69d2a47ea670b442974b53935d1edc7fd64eb21e047a839171b9190a45050565b61129c60058861189f565b156112ba576040516363df817160e01b815260040160405180910390fd5b6001600160a01b0383166112e15760405163e6c4247b60e01b815260040160405180910390fd5b856000036113025760405163b4fa3fb360e01b815260040160405180910390fd5b60008511801561131957506001600160a01b038216155b156113375760405163b4fa3fb360e01b815260040160405180910390fd5b60008411801561134e57506001600160a01b038116155b1561136c5760405163b4fa3fb360e01b815260040160405180910390fd5b83611377868861184a565b611381919061184a565b6064146113a15760405163b4fa3fb360e01b815260040160405180910390fd5b50505050505050565b60006003836113ba8460646118b3565b6113c491906118ca565b1080156113e657506000836113da8460646118b3565b6113e491906118ca565b115b156113f3575060056103a5565b60036005846114038560646118b3565b61140d91906118ca565b611417919061189f565b61142191906118ca565b60058461142f8560646118b3565b61143991906118ca565b61144391906118ca565b61144d919061184a565b6114589060056118b3565b90506103a5565b6000606461146d83856118b3565b61147791906118ca565b9392505050565b6114888282610a3c565b61045457611495816114d7565b6114a08360206114e9565b6040516020016114b1929190611902565b60408051601f198184030181529082905262461bcd60e51b825261044191600401611971565b60606103a56001600160a01b03831660145b606060006114f88360026118b3565b61150390600261184a565b67ffffffffffffffff81111561151b5761151b6119a4565b6040519080825280601f01601f191660200182016040528015611545576020820181803683370190505b509050600360fc1b81600081518110611560576115606119ba565b60200101906001600160f81b031916908160001a905350600f60fb1b8160018151811061158f5761158f6119ba565b60200101906001600160f81b031916908160001a90535060006115b38460026118b3565b6115be90600161184a565b90505b6001811115611636576f181899199a1a9b1b9c1cb0b131b232b360811b85600f16601081106115f2576115f26119ba565b1a60f81b828281518110611608576116086119ba565b60200101906001600160f81b031916908160001a90535060049490941c9361162f816119d0565b90506115c1565b5083156114775760405162461bcd60e51b815260206004820181905260248201527f537472696e67733a20686578206c656e67746820696e73756666696369656e746044820152606401610441565b60006020828403121561169757600080fd5b81356001600160e01b03198116811461147757600080fd5b6000602082840312156116c157600080fd5b5035919050565b6001600160a01b03811681146111a557600080fd5b600080604083850312156116f057600080fd5b823591506020830135611702816116c8565b809150509250929050565b6000806000806080858703121561172357600080fd5b843561172e816116c8565b9350602085013561173e816116c8565b9250604085013561174e816116c8565b9150606085013561175e816116c8565b939692955090935050565b600080600080600080600060e0888a03121561178457600080fd5b8735965060208801359550604088013594506060880135935060808801356117ab816116c8565b925060a08801356117bb816116c8565b915060c08801356117cb816116c8565b8091505092959891949750929550565b600080604083850312156117ee57600080fd5b50508035926020909101359150565b958652602086019490945260408501929092526001600160a01b03908116606085015290811660808401521660a082015260c00190565b634e487b7160e01b600052601160045260246000fd5b808201808211156103a5576103a5611834565b818103818111156103a5576103a5611834565b6001600160a01b03929092168252602082015260400190565b634e487b7160e01b600052601260045260246000fd5b6000826118ae576118ae611889565b500690565b80820281158282048414176103a5576103a5611834565b6000826118d9576118d9611889565b500490565b60005b838110156118f95781810151838201526020016118e1565b50506000910152565b76020b1b1b2b9b9a1b7b73a3937b61d1030b1b1b7bab73a1604d1b8152600083516119348160178501602088016118de565b7001034b99036b4b9b9b4b733903937b6329607d1b60179184019182015283516119658160288401602088016118de565b01602801949350505050565b60208152600082518060208401526119908160408501602087016118de565b601f01601f19169190910160400192915050565b634e487b7160e01b600052604160045260246000fd5b634e487b7160e01b600052603260045260246000fd5b6000816119df576119df611834565b50600019019056fe8e4f01b2ef10e587f670bbfd448bba9a57a36fd9c81549b587269120cb62b24da264697066735822122026e18faabbf95d2ce21a612edc729dd6e7395007953eb27a74302572dc56a81264736f6c634300081300338e4f01b2ef10e587f670bbfd448bba9a57a36fd9c81549b587269120cb62b24d6ce44ac19daa541a3cad4667c612cff8964428a20ce88eca8a6022803dbffc32",
  "devdoc": {
    "events": {
      "RoleAdminChanged(bytes32,bytes32,bytes32)": {
        "details": "Emitted when `newAdminRole` is set as ``role``'s admin role, replacing `previousAdminRole` `DEFAULT_ADMIN_ROLE` is the starting admin for all roles, despite {RoleAdminChanged} not being emitted signaling this. _Available since v3.1._"
      },
      "RoleGranted(bytes32,address,address)": {
        "details": "Emitted when `account` is granted `role`. `sender` is the account that originated the contract call, an admin role bearer except when using {AccessControl-_setupRole}."
      },
      "RoleRevoked(bytes32,address,address)": {
        "details": "Emitted when `account` is revoked `role`. `sender` is the account that originated the contract call:   - if using `revokeRole`, it is the admin role bearer   - if using `renounceRole`, it is the role bearer (i.e. `account`)"
      }
    },
    "kind": "dev",
    "methods": {
      "distributeCollFee(uint256,uint256)": {
        "params": {
          "_debt": "amount of BFE tokens that user receives in the event of succesful borrowing op",
          "_fee": "amount of fee that user is getting cut with in the event of succseful borrowing op"
        }
      },
      "distributeDebtFee(uint256,uint256)": {
        "params": {
          "_debt": "amount of BFE tokens that user receives in the event of succesful borrowing op",
          "_fee": "amount of fee that user is getting cut with in the event of succseful borrowing op"
        }
      },
      "getRoleAdmin(bytes32)": {
        "details": "Returns the admin role that controls `role`. See {grantRole} and {revokeRole}. To change a role's admin, use {_setRoleAdmin}."
      },
      "grantRole(bytes32,address)": {
        "details": "Grants `role` to `account`. If `account` had not been already granted `role`, emits a {RoleGranted} event. Requirements: - the caller must have ``role``'s admin role. May emit a {RoleGranted} event."
      },
      "hasRole(bytes32,address)": {
        "details": "Returns `true` if `account` has been granted `role`."
      },
      "renounceRole(bytes32,address)": {
        "details": "Revokes `role` from the calling account. Roles are often managed via {grantRole} and {revokeRole}: this function's purpose is to provide a mechanism for accounts to lose their privileges if they are compromised (such as when a trusted device is misplaced). If the calling account had been revoked `role`, emits a {RoleRevoked} event. Requirements: - the caller must be `account`. May emit a {RoleRevoked} event."
      },
      "revokeRole(bytes32,address)": {
        "details": "Revokes `role` from `account`. If `account` had been granted `role`, emits a {RoleRevoked} event. Requirements: - the caller must have ``role``'s admin role. May emit a {RoleRevoked} event."
      },
      "setCollFeeConfig(uint256,uint256,uint256,uint256,address,address,address)": {
        "params": {
          "_addressA": "_addressA that receives tokens in the event of tx fee appears in _percentage range. Can't be an address(0)",
          "_addressB": "_addressB that receives tokens in the event of tx fee appears in _percentage range. Set to address(0) to skip",
          "_addressC": "_addressC that receives tokens in the event of tx fee appears in _percentage range. Set to address(0) to skip",
          "_amountA": "amount of tokens that _addressA is going to receive in the event of tx fee appears in _percentage range. Must be > 0",
          "_amountB": "amount of tokens that _addressB is going to receive in the event of tx fee appears in _percentage range. Set to 0 to skip",
          "_amountC": "amount of tokens that _addressC is going to receive in the event of tx fee appears in _percentage range Set to 0 to skip",
          "_percentage": "range at which new config is valid"
        }
      },
      "setDebtFeeConfig(uint256,uint256,uint256,uint256,address,address,address)": {
        "params": {
          "_addressA": "_addressA that receives tokens in the event of tx fee appears in _percentage range. Can't be an address(0)",
          "_addressB": "_addressB that receives tokens in the event of tx fee appears in _percentage range. Set to address(0) to skip",
          "_addressC": "_addressC that receives tokens in the event of tx fee appears in _percentage range. Set to address(0) to skip",
          "_amountA": "amount of tokens that _addressA is going to receive in the event of tx fee appears in _percentage range. Must be > 0",
          "_amountB": "amount of tokens that _addressB is going to receive in the event of tx fee appears in _percentage range. Set to 0 to skip",
          "_amountC": "amount of tokens that _addressC is going to receive in the event of tx fee appears in _percentage range Set to 0 to skip",
          "_percentage": "range at which new config is valid"
        }
      },
      "setFeeConfigs(uint256,uint256,uint256,uint256,address,address,address)": {
        "params": {
          "_addressA": "_addressA that receives tokens in the event of tx fee appears in _percentage range. Can't be an address(0)",
          "_addressB": "_addressB that receives tokens in the event of tx fee appears in _percentage range. Set to address(0) to skip",
          "_addressC": "_addressC that receives tokens in the event of tx fee appears in _percentage range. Set to address(0) to skip",
          "_amountA": "amount of tokens that _addressA is going to receive in the event of tx fee appears in _percentage range. Must be > 0",
          "_amountB": "amount of tokens that _addressB is going to receive in the event of tx fee appears in _percentage range. Set to 0 to skip",
          "_amountC": "amount of tokens that _addressC is going to receive in the event of tx fee appears in _percentage range Set to 0 to skip",
          "_percentage": "range at which new config is valid"
        }
      },
      "supportsInterface(bytes4)": {
        "details": "See {IERC165-supportsInterface}."
      }
    },
    "version": 1
  },
  "userdoc": {
    "kind": "user",
    "methods": {
      "setAddresses(address,address,address,address)": {
        "notice": "An initialiser function where HDG protocol address are getting set"
      },
      "setCollFeeConfig(uint256,uint256,uint256,uint256,address,address,address)": {
        "notice": "Sets coll fees configs. Should be used if routing logic is unique for WWStETH token fees."
      },
      "setDebtFeeConfig(uint256,uint256,uint256,uint256,address,address,address)": {
        "notice": "Sets debt fees configs. Should be used if routing logic is unique for BFE token fees."
      },
      "setFeeConfigs(uint256,uint256,uint256,uint256,address,address,address)": {
        "notice": "Sets both debt and coll fees configs. Should be used if routing logic is the same for both procesesses."
      }
    },
    "notice": "Completely new contract in Hedgehog Protocol, that was never a part of Liquity Protocol Accepts fees and routes it to different places(or a single one) assigned by the account with \"SETTER\" rights Contract overall is a config of addresses assigned for each 5% range from 0 to 100.",
    "version": 1
  },
  "storageLayout": {
    "storage": [
      {
        "astId": 24,
        "contract": "contracts/FeesRouter.sol:FeesRouter",
        "label": "_roles",
        "offset": 0,
        "slot": "0",
        "type": "t_mapping(t_bytes32,t_struct(RoleData)19_storage)"
      },
      {
        "astId": 7818,
        "contract": "contracts/FeesRouter.sol:FeesRouter",
        "label": "debtFeeConfigs",
        "offset": 0,
        "slot": "1",
        "type": "t_mapping(t_uint256,t_struct(FeeConfig)7813_storage)"
      },
      {
        "astId": 7823,
        "contract": "contracts/FeesRouter.sol:FeesRouter",
        "label": "collFeeConfigs",
        "offset": 0,
        "slot": "2",
        "type": "t_mapping(t_uint256,t_struct(FeeConfig)7813_storage)"
      },
      {
        "astId": 7825,
        "contract": "contracts/FeesRouter.sol:FeesRouter",
        "label": "feeCount",
        "offset": 0,
        "slot": "3",
        "type": "t_uint256"
      },
      {
        "astId": 7828,
        "contract": "contracts/FeesRouter.sol:FeesRouter",
        "label": "baseFeeLMAToken",
        "offset": 0,
        "slot": "4",
        "type": "t_contract(IBaseFeeLMAToken)20738"
      },
      {
        "astId": 7831,
        "contract": "contracts/FeesRouter.sol:FeesRouter",
        "label": "activePool",
        "offset": 0,
        "slot": "5",
        "type": "t_contract(IActivePool)20674"
      },
      {
        "astId": 7833,
        "contract": "contracts/FeesRouter.sol:FeesRouter",
        "label": "borrowersOp",
        "offset": 0,
        "slot": "6",
        "type": "t_address"
      },
      {
        "astId": 7835,
        "contract": "contracts/FeesRouter.sol:FeesRouter",
        "label": "troveManager",
        "offset": 0,
        "slot": "7",
        "type": "t_address"
      }
    ],
    "types": {
      "t_address": {
        "encoding": "inplace",
        "label": "address",
        "numberOfBytes": "20"
      },
      "t_bool": {
        "encoding": "inplace",
        "label": "bool",
        "numberOfBytes": "1"
      },
      "t_bytes32": {
        "encoding": "inplace",
        "label": "bytes32",
        "numberOfBytes": "32"
      },
      "t_contract(IActivePool)20674": {
        "encoding": "inplace",
        "label": "contract IActivePool",
        "numberOfBytes": "20"
      },
      "t_contract(IBaseFeeLMAToken)20738": {
        "encoding": "inplace",
        "label": "contract IBaseFeeLMAToken",
        "numberOfBytes": "20"
      },
      "t_mapping(t_address,t_bool)": {
        "encoding": "mapping",
        "key": "t_address",
        "label": "mapping(address => bool)",
        "numberOfBytes": "32",
        "value": "t_bool"
      },
      "t_mapping(t_bytes32,t_struct(RoleData)19_storage)": {
        "encoding": "mapping",
        "key": "t_bytes32",
        "label": "mapping(bytes32 => struct AccessControl.RoleData)",
        "numberOfBytes": "32",
        "value": "t_struct(RoleData)19_storage"
      },
      "t_mapping(t_uint256,t_struct(FeeConfig)7813_storage)": {
        "encoding": "mapping",
        "key": "t_uint256",
        "label": "mapping(uint256 => struct FeesRouter.FeeConfig)",
        "numberOfBytes": "32",
        "value": "t_struct(FeeConfig)7813_storage"
      },
      "t_struct(FeeConfig)7813_storage": {
        "encoding": "inplace",
        "label": "struct FeesRouter.FeeConfig",
        "members": [
          {
            "astId": 7802,
            "contract": "contracts/FeesRouter.sol:FeesRouter",
            "label": "amountA",
            "offset": 0,
            "slot": "0",
            "type": "t_uint256"
          },
          {
            "astId": 7804,
            "contract": "contracts/FeesRouter.sol:FeesRouter",
            "label": "amountB",
            "offset": 0,
            "slot": "1",
            "type": "t_uint256"
          },
          {
            "astId": 7806,
            "contract": "contracts/FeesRouter.sol:FeesRouter",
            "label": "amountC",
            "offset": 0,
            "slot": "2",
            "type": "t_uint256"
          },
          {
            "astId": 7808,
            "contract": "contracts/FeesRouter.sol:FeesRouter",
            "label": "addressA",
            "offset": 0,
            "slot": "3",
            "type": "t_address"
          },
          {
            "astId": 7810,
            "contract": "contracts/FeesRouter.sol:FeesRouter",
            "label": "addressB",
            "offset": 0,
            "slot": "4",
            "type": "t_address"
          },
          {
            "astId": 7812,
            "contract": "contracts/FeesRouter.sol:FeesRouter",
            "label": "addressC",
            "offset": 0,
            "slot": "5",
            "type": "t_address"
          }
        ],
        "numberOfBytes": "192"
      },
      "t_struct(RoleData)19_storage": {
        "encoding": "inplace",
        "label": "struct AccessControl.RoleData",
        "members": [
          {
            "astId": 16,
            "contract": "contracts/FeesRouter.sol:FeesRouter",
            "label": "members",
            "offset": 0,
            "slot": "0",
            "type": "t_mapping(t_address,t_bool)"
          },
          {
            "astId": 18,
            "contract": "contracts/FeesRouter.sol:FeesRouter",
            "label": "adminRole",
            "offset": 0,
            "slot": "1",
            "type": "t_bytes32"
          }
        ],
        "numberOfBytes": "64"
      },
      "t_uint256": {
        "encoding": "inplace",
        "label": "uint256",
        "numberOfBytes": "32"
      }
    }
  }
}