{
  "address": "0x1aBFF6d4d720f54a20C738Aa7d942ABA5a13EFd1",
  "abi": [
    {
      "inputs": [
        {
          "internalType": "uint256",
          "name": "_bootsrapDaysAmount",
          "type": "uint256"
        }
      ],
      "stateMutability": "nonpayable",
      "type": "constructor"
    },
    {
      "anonymous": false,
      "inputs": [
        {
          "indexed": false,
          "internalType": "address",
          "name": "_activePoolAddress",
          "type": "address"
        }
      ],
      "name": "ActivePoolAddressChanged",
      "type": "event"
    },
    {
      "anonymous": false,
      "inputs": [
        {
          "indexed": false,
          "internalType": "address",
          "name": "_newBaseFeeLMATokenAddress",
          "type": "address"
        }
      ],
      "name": "BaseFeeLMATokenAddressChanged",
      "type": "event"
    },
    {
      "anonymous": false,
      "inputs": [
        {
          "indexed": false,
          "internalType": "uint256",
          "name": "_borrowBaseRate",
          "type": "uint256"
        }
      ],
      "name": "BorrowBaseRateUpdated",
      "type": "event"
    },
    {
      "anonymous": false,
      "inputs": [
        {
          "indexed": false,
          "internalType": "address",
          "name": "_newBorrowerOperationsAddress",
          "type": "address"
        }
      ],
      "name": "BorrowerOperationsAddressChanged",
      "type": "event"
    },
    {
      "anonymous": false,
      "inputs": [
        {
          "indexed": false,
          "internalType": "address",
          "name": "_collSurplusPoolAddress",
          "type": "address"
        }
      ],
      "name": "CollSurplusPoolAddressChanged",
      "type": "event"
    },
    {
      "anonymous": false,
      "inputs": [
        {
          "indexed": false,
          "internalType": "address",
          "name": "_defaultPoolAddress",
          "type": "address"
        }
      ],
      "name": "DefaultPoolAddressChanged",
      "type": "event"
    },
    {
      "anonymous": false,
      "inputs": [
        {
          "indexed": false,
          "internalType": "contract IFeesRouter",
          "name": "_feesRouter",
          "type": "address"
        }
      ],
      "name": "FeesRouterAddressUpdated",
      "type": "event"
    },
    {
      "anonymous": false,
      "inputs": [
        {
          "indexed": false,
          "internalType": "address",
          "name": "_gasPoolAddress",
          "type": "address"
        }
      ],
      "name": "GasPoolAddressChanged",
      "type": "event"
    },
    {
      "anonymous": false,
      "inputs": [
        {
          "indexed": false,
          "internalType": "address",
          "name": "_hogTokenAddress",
          "type": "address"
        }
      ],
      "name": "HOGTokenAddressChanged",
      "type": "event"
    },
    {
      "anonymous": false,
      "inputs": [
        {
          "indexed": false,
          "internalType": "uint256",
          "name": "_L_WStETH",
          "type": "uint256"
        },
        {
          "indexed": false,
          "internalType": "uint256",
          "name": "_L_BaseFeeLMADebt",
          "type": "uint256"
        }
      ],
      "name": "LTermsUpdated",
      "type": "event"
    },
    {
      "anonymous": false,
      "inputs": [
        {
          "indexed": false,
          "internalType": "uint256",
          "name": "_lastBorrowTime",
          "type": "uint256"
        }
      ],
      "name": "LastBorrowTimeUpdated",
      "type": "event"
    },
    {
      "anonymous": false,
      "inputs": [
        {
          "indexed": false,
          "internalType": "uint256",
          "name": "_lastRedemptionTime",
          "type": "uint256"
        }
      ],
      "name": "LastRedemptionTimeUpdated",
      "type": "event"
    },
    {
      "anonymous": false,
      "inputs": [
        {
          "indexed": false,
          "internalType": "uint256",
          "name": "_liquidatedDebt",
          "type": "uint256"
        },
        {
          "indexed": false,
          "internalType": "uint256",
          "name": "_liquidatedColl",
          "type": "uint256"
        },
        {
          "indexed": false,
          "internalType": "uint256",
          "name": "_collGasCompensation",
          "type": "uint256"
        },
        {
          "indexed": false,
          "internalType": "uint256",
          "name": "_BaseFeeLMAGasCompensation",
          "type": "uint256"
        }
      ],
      "name": "Liquidation",
      "type": "event"
    },
    {
      "anonymous": false,
      "inputs": [
        {
          "indexed": true,
          "internalType": "address",
          "name": "previousOwner",
          "type": "address"
        },
        {
          "indexed": true,
          "internalType": "address",
          "name": "newOwner",
          "type": "address"
        }
      ],
      "name": "OwnershipTransferred",
      "type": "event"
    },
    {
      "anonymous": false,
      "inputs": [
        {
          "indexed": false,
          "internalType": "address",
          "name": "_newPriceFeedAddress",
          "type": "address"
        }
      ],
      "name": "PriceFeedAddressChanged",
      "type": "event"
    },
    {
      "anonymous": false,
      "inputs": [
        {
          "indexed": false,
          "internalType": "uint256",
          "name": "_attemptedBaseFeeLMAAmount",
          "type": "uint256"
        },
        {
          "indexed": false,
          "internalType": "uint256",
          "name": "_actualBaseFeeLMAAmount",
          "type": "uint256"
        },
        {
          "indexed": false,
          "internalType": "uint256",
          "name": "_WStETHSent",
          "type": "uint256"
        },
        {
          "indexed": false,
          "internalType": "uint256",
          "name": "_WStETHFee",
          "type": "uint256"
        }
      ],
      "name": "Redemption",
      "type": "event"
    },
    {
      "anonymous": false,
      "inputs": [
        {
          "indexed": false,
          "internalType": "uint256",
          "name": "_redemptionBaseRate",
          "type": "uint256"
        }
      ],
      "name": "RedemptionBaseRateUpdated",
      "type": "event"
    },
    {
      "anonymous": false,
      "inputs": [
        {
          "indexed": false,
          "internalType": "address",
          "name": "_sortedTrovesAddress",
          "type": "address"
        }
      ],
      "name": "SortedTrovesAddressChanged",
      "type": "event"
    },
    {
      "anonymous": false,
      "inputs": [
        {
          "indexed": false,
          "internalType": "address",
          "name": "_stabilityPoolAddress",
          "type": "address"
        }
      ],
      "name": "StabilityPoolAddressChanged",
      "type": "event"
    },
    {
      "anonymous": false,
      "inputs": [
        {
          "indexed": false,
          "internalType": "uint256",
          "name": "_totalStakesSnapshot",
          "type": "uint256"
        },
        {
          "indexed": false,
          "internalType": "uint256",
          "name": "_totalCollateralSnapshot",
          "type": "uint256"
        }
      ],
      "name": "SystemSnapshotsUpdated",
      "type": "event"
    },
    {
      "anonymous": false,
      "inputs": [
        {
          "indexed": false,
          "internalType": "uint256",
          "name": "_newTotalStakes",
          "type": "uint256"
        }
      ],
      "name": "TotalStakesUpdated",
      "type": "event"
    },
    {
      "anonymous": false,
      "inputs": [
        {
          "indexed": false,
          "internalType": "address",
          "name": "_borrower",
          "type": "address"
        },
        {
          "indexed": false,
          "internalType": "uint256",
          "name": "_newIndex",
          "type": "uint256"
        }
      ],
      "name": "TroveIndexUpdated",
      "type": "event"
    },
    {
      "anonymous": false,
      "inputs": [
        {
          "indexed": true,
          "internalType": "address",
          "name": "_borrower",
          "type": "address"
        },
        {
          "indexed": false,
          "internalType": "uint256",
          "name": "_debt",
          "type": "uint256"
        },
        {
          "indexed": false,
          "internalType": "uint256",
          "name": "_coll",
          "type": "uint256"
        },
        {
          "indexed": false,
          "internalType": "enum TroveManager.TroveManagerOperation",
          "name": "_operation",
          "type": "uint8"
        }
      ],
      "name": "TroveLiquidated",
      "type": "event"
    },
    {
      "anonymous": false,
      "inputs": [
        {
          "indexed": false,
          "internalType": "uint256",
          "name": "_L_WStETH",
          "type": "uint256"
        },
        {
          "indexed": false,
          "internalType": "uint256",
          "name": "_L_BaseFeeLMADebt",
          "type": "uint256"
        }
      ],
      "name": "TroveSnapshotsUpdated",
      "type": "event"
    },
    {
      "anonymous": false,
      "inputs": [
        {
          "indexed": true,
          "internalType": "address",
          "name": "_borrower",
          "type": "address"
        },
        {
          "indexed": false,
          "internalType": "uint256",
          "name": "_debt",
          "type": "uint256"
        },
        {
          "indexed": false,
          "internalType": "uint256",
          "name": "_coll",
          "type": "uint256"
        },
        {
          "indexed": false,
          "internalType": "uint256",
          "name": "_stake",
          "type": "uint256"
        },
        {
          "indexed": false,
          "internalType": "enum TroveManager.TroveManagerOperation",
          "name": "_operation",
          "type": "uint8"
        }
      ],
      "name": "TroveUpdated",
      "type": "event"
    },
    {
      "inputs": [],
      "name": "BETA",
      "outputs": [
        {
          "internalType": "uint256",
          "name": "",
          "type": "uint256"
        }
      ],
      "stateMutability": "view",
      "type": "function"
    },
    {
      "inputs": [],
      "name": "BOOTSTRAP_PERIOD",
      "outputs": [
        {
          "internalType": "uint256",
          "name": "",
          "type": "uint256"
        }
      ],
      "stateMutability": "view",
      "type": "function"
    },
    {
      "inputs": [],
      "name": "BORROWING_FEE_FLOOR",
      "outputs": [
        {
          "internalType": "uint256",
          "name": "",
          "type": "uint256"
        }
      ],
      "stateMutability": "view",
      "type": "function"
    },
    {
      "inputs": [],
      "name": "BaseFeeLMA_GAS_COMPENSATION",
      "outputs": [
        {
          "internalType": "uint256",
          "name": "",
          "type": "uint256"
        }
      ],
      "stateMutability": "view",
      "type": "function"
    },
    {
      "inputs": [],
      "name": "CCR",
      "outputs": [
        {
          "internalType": "uint256",
          "name": "",
          "type": "uint256"
        }
      ],
      "stateMutability": "view",
      "type": "function"
    },
    {
      "inputs": [],
      "name": "DECIMAL_PRECISION",
      "outputs": [
        {
          "internalType": "uint256",
          "name": "",
          "type": "uint256"
        }
      ],
      "stateMutability": "view",
      "type": "function"
    },
    {
      "inputs": [],
      "name": "L_BaseFeeLMADebt",
      "outputs": [
        {
          "internalType": "uint256",
          "name": "",
          "type": "uint256"
        }
      ],
      "stateMutability": "view",
      "type": "function"
    },
    {
      "inputs": [],
      "name": "L_WStETH",
      "outputs": [
        {
          "internalType": "uint256",
          "name": "",
          "type": "uint256"
        }
      ],
      "stateMutability": "view",
      "type": "function"
    },
    {
      "inputs": [],
      "name": "MAX_BORROWING_FEE",
      "outputs": [
        {
          "internalType": "uint256",
          "name": "",
          "type": "uint256"
        }
      ],
      "stateMutability": "view",
      "type": "function"
    },
    {
      "inputs": [],
      "name": "MCR",
      "outputs": [
        {
          "internalType": "uint256",
          "name": "",
          "type": "uint256"
        }
      ],
      "stateMutability": "view",
      "type": "function"
    },
    {
      "inputs": [],
      "name": "MINUTE_DECAY_BORROWING_FACTOR",
      "outputs": [
        {
          "internalType": "uint256",
          "name": "",
          "type": "uint256"
        }
      ],
      "stateMutability": "view",
      "type": "function"
    },
    {
      "inputs": [],
      "name": "MINUTE_DECAY_REDEMPTION_FACTOR",
      "outputs": [
        {
          "internalType": "uint256",
          "name": "",
          "type": "uint256"
        }
      ],
      "stateMutability": "view",
      "type": "function"
    },
    {
      "inputs": [],
      "name": "MIN_NET_DEBT",
      "outputs": [
        {
          "internalType": "uint256",
          "name": "",
          "type": "uint256"
        }
      ],
      "stateMutability": "view",
      "type": "function"
    },
    {
      "inputs": [],
      "name": "NAME",
      "outputs": [
        {
          "internalType": "string",
          "name": "",
          "type": "string"
        }
      ],
      "stateMutability": "view",
      "type": "function"
    },
    {
      "inputs": [],
      "name": "PERCENT_DIVISOR",
      "outputs": [
        {
          "internalType": "uint256",
          "name": "",
          "type": "uint256"
        }
      ],
      "stateMutability": "view",
      "type": "function"
    },
    {
      "inputs": [],
      "name": "REDEMPTION_FEE_FLOOR",
      "outputs": [
        {
          "internalType": "uint256",
          "name": "",
          "type": "uint256"
        }
      ],
      "stateMutability": "view",
      "type": "function"
    },
    {
      "inputs": [],
      "name": "SECONDS_IN_ONE_MINUTE",
      "outputs": [
        {
          "internalType": "uint256",
          "name": "",
          "type": "uint256"
        }
      ],
      "stateMutability": "view",
      "type": "function"
    },
    {
      "inputs": [],
      "name": "SYSTEM_DEPLOYMENT_TIME",
      "outputs": [
        {
          "internalType": "uint256",
          "name": "",
          "type": "uint256"
        }
      ],
      "stateMutability": "view",
      "type": "function"
    },
    {
      "inputs": [
        {
          "internalType": "uint256",
          "name": "",
          "type": "uint256"
        }
      ],
      "name": "TroveOwners",
      "outputs": [
        {
          "internalType": "address",
          "name": "",
          "type": "address"
        }
      ],
      "stateMutability": "view",
      "type": "function"
    },
    {
      "inputs": [
        {
          "internalType": "address",
          "name": "",
          "type": "address"
        }
      ],
      "name": "Troves",
      "outputs": [
        {
          "internalType": "uint256",
          "name": "debt",
          "type": "uint256"
        },
        {
          "internalType": "uint256",
          "name": "coll",
          "type": "uint256"
        },
        {
          "internalType": "uint256",
          "name": "stake",
          "type": "uint256"
        },
        {
          "internalType": "enum TroveManager.Status",
          "name": "status",
          "type": "uint8"
        },
        {
          "internalType": "uint128",
          "name": "arrayIndex",
          "type": "uint128"
        },
        {
          "internalType": "uint256",
          "name": "lastBlockUpdated",
          "type": "uint256"
        }
      ],
      "stateMutability": "view",
      "type": "function"
    },
    {
      "inputs": [],
      "name": "_100pct",
      "outputs": [
        {
          "internalType": "uint256",
          "name": "",
          "type": "uint256"
        }
      ],
      "stateMutability": "view",
      "type": "function"
    },
    {
      "inputs": [],
      "name": "activePool",
      "outputs": [
        {
          "internalType": "contract IActivePool",
          "name": "",
          "type": "address"
        }
      ],
      "stateMutability": "view",
      "type": "function"
    },
    {
      "inputs": [
        {
          "internalType": "address",
          "name": "_borrower",
          "type": "address"
        }
      ],
      "name": "addTroveOwnerToArray",
      "outputs": [
        {
          "internalType": "uint256",
          "name": "index",
          "type": "uint256"
        }
      ],
      "stateMutability": "nonpayable",
      "type": "function"
    },
    {
      "inputs": [
        {
          "internalType": "address",
          "name": "_borrower",
          "type": "address"
        }
      ],
      "name": "applyPendingRewards",
      "outputs": [],
      "stateMutability": "nonpayable",
      "type": "function"
    },
    {
      "inputs": [],
      "name": "baseFeeLMAToken",
      "outputs": [
        {
          "internalType": "contract IBaseFeeLMAToken",
          "name": "",
          "type": "address"
        }
      ],
      "stateMutability": "view",
      "type": "function"
    },
    {
      "inputs": [
        {
          "internalType": "address[]",
          "name": "_troveArray",
          "type": "address[]"
        }
      ],
      "name": "batchLiquidateTroves",
      "outputs": [],
      "stateMutability": "nonpayable",
      "type": "function"
    },
    {
      "inputs": [],
      "name": "borrowBaseRate",
      "outputs": [
        {
          "internalType": "uint256",
          "name": "",
          "type": "uint256"
        }
      ],
      "stateMutability": "view",
      "type": "function"
    },
    {
      "inputs": [],
      "name": "borrowerOperationsAddress",
      "outputs": [
        {
          "internalType": "address",
          "name": "",
          "type": "address"
        }
      ],
      "stateMutability": "view",
      "type": "function"
    },
    {
      "inputs": [
        {
          "internalType": "uint256",
          "name": "_price",
          "type": "uint256"
        }
      ],
      "name": "checkRecoveryMode",
      "outputs": [
        {
          "internalType": "bool",
          "name": "",
          "type": "bool"
        }
      ],
      "stateMutability": "view",
      "type": "function"
    },
    {
      "inputs": [],
      "name": "checkUnreliableRecoveryMode",
      "outputs": [
        {
          "internalType": "bool",
          "name": "",
          "type": "bool"
        }
      ],
      "stateMutability": "view",
      "type": "function"
    },
    {
      "inputs": [
        {
          "internalType": "address",
          "name": "_borrower",
          "type": "address"
        }
      ],
      "name": "closeTrove",
      "outputs": [],
      "stateMutability": "nonpayable",
      "type": "function"
    },
    {
      "inputs": [],
      "name": "decayBaseRateFromBorrowing",
      "outputs": [],
      "stateMutability": "nonpayable",
      "type": "function"
    },
    {
      "inputs": [
        {
          "internalType": "address",
          "name": "_borrower",
          "type": "address"
        },
        {
          "internalType": "uint256",
          "name": "_collDecrease",
          "type": "uint256"
        }
      ],
      "name": "decreaseTroveColl",
      "outputs": [
        {
          "internalType": "uint256",
          "name": "",
          "type": "uint256"
        }
      ],
      "stateMutability": "nonpayable",
      "type": "function"
    },
    {
      "inputs": [
        {
          "internalType": "address",
          "name": "_borrower",
          "type": "address"
        },
        {
          "internalType": "uint256",
          "name": "_debtDecrease",
          "type": "uint256"
        }
      ],
      "name": "decreaseTroveDebt",
      "outputs": [
        {
          "internalType": "uint256",
          "name": "",
          "type": "uint256"
        }
      ],
      "stateMutability": "nonpayable",
      "type": "function"
    },
    {
      "inputs": [],
      "name": "defaultPool",
      "outputs": [
        {
          "internalType": "contract IDefaultPool",
          "name": "",
          "type": "address"
        }
      ],
      "stateMutability": "view",
      "type": "function"
    },
    {
      "inputs": [],
      "name": "feesRouter",
      "outputs": [
        {
          "internalType": "contract IFeesRouter",
          "name": "",
          "type": "address"
        }
      ],
      "stateMutability": "view",
      "type": "function"
    },
    {
      "inputs": [
        {
          "internalType": "uint256",
          "name": "_BaseFeeLMADebt",
          "type": "uint256"
        }
      ],
      "name": "getBorrowingFee",
      "outputs": [
        {
          "internalType": "uint256",
          "name": "",
          "type": "uint256"
        },
        {
          "internalType": "uint256",
          "name": "",
          "type": "uint256"
        }
      ],
      "stateMutability": "view",
      "type": "function"
    },
    {
      "inputs": [
        {
          "internalType": "uint256",
          "name": "_BaseFeeLMADebt",
          "type": "uint256"
        }
      ],
      "name": "getBorrowingFeeWithDecay",
      "outputs": [
        {
          "internalType": "uint256",
          "name": "",
          "type": "uint256"
        }
      ],
      "stateMutability": "view",
      "type": "function"
    },
    {
      "inputs": [
        {
          "internalType": "uint256",
          "name": "_issuedBaseFeeLMA",
          "type": "uint256"
        }
      ],
      "name": "getBorrowingRate",
      "outputs": [
        {
          "internalType": "uint256",
          "name": "",
          "type": "uint256"
        }
      ],
      "stateMutability": "view",
      "type": "function"
    },
    {
      "inputs": [
        {
          "internalType": "uint256",
          "name": "_issuedBaseFeeLMA",
          "type": "uint256"
        }
      ],
      "name": "getBorrowingRateWithDecay",
      "outputs": [
        {
          "internalType": "uint256",
          "name": "",
          "type": "uint256"
        }
      ],
      "stateMutability": "view",
      "type": "function"
    },
    {
      "inputs": [
        {
          "internalType": "address",
          "name": "_borrower",
          "type": "address"
        },
        {
          "internalType": "uint256",
          "name": "_price",
          "type": "uint256"
        }
      ],
      "name": "getCurrentICR",
      "outputs": [
        {
          "internalType": "uint256",
          "name": "",
          "type": "uint256"
        }
      ],
      "stateMutability": "view",
      "type": "function"
    },
    {
      "inputs": [
        {
          "internalType": "address",
          "name": "_borrower",
          "type": "address"
        }
      ],
      "name": "getEntireDebtAndColl",
      "outputs": [
        {
          "internalType": "uint256",
          "name": "debt",
          "type": "uint256"
        },
        {
          "internalType": "uint256",
          "name": "coll",
          "type": "uint256"
        },
        {
          "internalType": "uint256",
          "name": "pendingBaseFeeLMADebtReward",
          "type": "uint256"
        },
        {
          "internalType": "uint256",
          "name": "pendingWStETHReward",
          "type": "uint256"
        }
      ],
      "stateMutability": "view",
      "type": "function"
    },
    {
      "inputs": [],
      "name": "getEntireSystemColl",
      "outputs": [
        {
          "internalType": "uint256",
          "name": "entireSystemColl",
          "type": "uint256"
        }
      ],
      "stateMutability": "view",
      "type": "function"
    },
    {
      "inputs": [],
      "name": "getEntireSystemDebt",
      "outputs": [
        {
          "internalType": "uint256",
          "name": "entireSystemDebt",
          "type": "uint256"
        }
      ],
      "stateMutability": "view",
      "type": "function"
    },
    {
      "inputs": [
        {
          "internalType": "address",
          "name": "_borrower",
          "type": "address"
        }
      ],
      "name": "getNominalICR",
      "outputs": [
        {
          "internalType": "uint256",
          "name": "",
          "type": "uint256"
        }
      ],
      "stateMutability": "view",
      "type": "function"
    },
    {
      "inputs": [
        {
          "internalType": "uint256",
          "name": "_coll",
          "type": "uint256"
        },
        {
          "internalType": "uint256",
          "name": "_debt",
          "type": "uint256"
        }
      ],
      "name": "getNormalLiquidationPrice",
      "outputs": [
        {
          "internalType": "uint256",
          "name": "",
          "type": "uint256"
        }
      ],
      "stateMutability": "pure",
      "type": "function"
    },
    {
      "inputs": [
        {
          "internalType": "address",
          "name": "_borrower",
          "type": "address"
        }
      ],
      "name": "getPendingBaseFeeLMADebtReward",
      "outputs": [
        {
          "internalType": "uint256",
          "name": "",
          "type": "uint256"
        }
      ],
      "stateMutability": "view",
      "type": "function"
    },
    {
      "inputs": [
        {
          "internalType": "address",
          "name": "_borrower",
          "type": "address"
        }
      ],
      "name": "getPendingWStETHReward",
      "outputs": [
        {
          "internalType": "uint256",
          "name": "",
          "type": "uint256"
        }
      ],
      "stateMutability": "view",
      "type": "function"
    },
    {
      "inputs": [
        {
          "internalType": "uint256",
          "name": "_WStETHDrawn",
          "type": "uint256"
        }
      ],
      "name": "getRedemptionFeeWithDecay",
      "outputs": [
        {
          "internalType": "uint256",
          "name": "",
          "type": "uint256"
        }
      ],
      "stateMutability": "view",
      "type": "function"
    },
    {
      "inputs": [],
      "name": "getRedemptionRate",
      "outputs": [
        {
          "internalType": "uint256",
          "name": "",
          "type": "uint256"
        }
      ],
      "stateMutability": "view",
      "type": "function"
    },
    {
      "inputs": [],
      "name": "getRedemptionRateWithDecay",
      "outputs": [
        {
          "internalType": "uint256",
          "name": "",
          "type": "uint256"
        }
      ],
      "stateMutability": "view",
      "type": "function"
    },
    {
      "inputs": [
        {
          "internalType": "uint256",
          "name": "_price",
          "type": "uint256"
        }
      ],
      "name": "getTCR",
      "outputs": [
        {
          "internalType": "uint256",
          "name": "",
          "type": "uint256"
        }
      ],
      "stateMutability": "view",
      "type": "function"
    },
    {
      "inputs": [
        {
          "internalType": "address",
          "name": "_borrower",
          "type": "address"
        }
      ],
      "name": "getTroveColl",
      "outputs": [
        {
          "internalType": "uint256",
          "name": "",
          "type": "uint256"
        }
      ],
      "stateMutability": "view",
      "type": "function"
    },
    {
      "inputs": [
        {
          "internalType": "address",
          "name": "_borrower",
          "type": "address"
        }
      ],
      "name": "getTroveDebt",
      "outputs": [
        {
          "internalType": "uint256",
          "name": "",
          "type": "uint256"
        }
      ],
      "stateMutability": "view",
      "type": "function"
    },
    {
      "inputs": [
        {
          "internalType": "uint256",
          "name": "_index",
          "type": "uint256"
        }
      ],
      "name": "getTroveFromTroveOwnersArray",
      "outputs": [
        {
          "internalType": "address",
          "name": "",
          "type": "address"
        }
      ],
      "stateMutability": "view",
      "type": "function"
    },
    {
      "inputs": [],
      "name": "getTroveOwnersCount",
      "outputs": [
        {
          "internalType": "uint256",
          "name": "",
          "type": "uint256"
        }
      ],
      "stateMutability": "view",
      "type": "function"
    },
    {
      "inputs": [
        {
          "internalType": "address",
          "name": "_borrower",
          "type": "address"
        }
      ],
      "name": "getTroveStake",
      "outputs": [
        {
          "internalType": "uint256",
          "name": "",
          "type": "uint256"
        }
      ],
      "stateMutability": "view",
      "type": "function"
    },
    {
      "inputs": [
        {
          "internalType": "address",
          "name": "_borrower",
          "type": "address"
        }
      ],
      "name": "getTroveStatus",
      "outputs": [
        {
          "internalType": "uint256",
          "name": "",
          "type": "uint256"
        }
      ],
      "stateMutability": "view",
      "type": "function"
    },
    {
      "inputs": [
        {
          "internalType": "address",
          "name": "_borrower",
          "type": "address"
        }
      ],
      "name": "getTroveUpdateBlock",
      "outputs": [
        {
          "internalType": "uint256",
          "name": "",
          "type": "uint256"
        }
      ],
      "stateMutability": "view",
      "type": "function"
    },
    {
      "inputs": [],
      "name": "getUnreliableTCR",
      "outputs": [
        {
          "internalType": "uint256",
          "name": "",
          "type": "uint256"
        }
      ],
      "stateMutability": "view",
      "type": "function"
    },
    {
      "inputs": [
        {
          "internalType": "address",
          "name": "_borrower",
          "type": "address"
        }
      ],
      "name": "getUnreliableTroveICR",
      "outputs": [
        {
          "internalType": "uint256",
          "name": "",
          "type": "uint256"
        }
      ],
      "stateMutability": "view",
      "type": "function"
    },
    {
      "inputs": [
        {
          "internalType": "address",
          "name": "_borrower",
          "type": "address"
        }
      ],
      "name": "hasPendingRewards",
      "outputs": [
        {
          "internalType": "bool",
          "name": "",
          "type": "bool"
        }
      ],
      "stateMutability": "view",
      "type": "function"
    },
    {
      "inputs": [],
      "name": "hogToken",
      "outputs": [
        {
          "internalType": "contract IHOGToken",
          "name": "",
          "type": "address"
        }
      ],
      "stateMutability": "view",
      "type": "function"
    },
    {
      "inputs": [
        {
          "internalType": "address",
          "name": "_borrower",
          "type": "address"
        },
        {
          "internalType": "uint256",
          "name": "_collIncrease",
          "type": "uint256"
        }
      ],
      "name": "increaseTroveColl",
      "outputs": [
        {
          "internalType": "uint256",
          "name": "",
          "type": "uint256"
        }
      ],
      "stateMutability": "nonpayable",
      "type": "function"
    },
    {
      "inputs": [
        {
          "internalType": "address",
          "name": "_borrower",
          "type": "address"
        },
        {
          "internalType": "uint256",
          "name": "_debtIncrease",
          "type": "uint256"
        }
      ],
      "name": "increaseTroveDebt",
      "outputs": [
        {
          "internalType": "uint256",
          "name": "",
          "type": "uint256"
        }
      ],
      "stateMutability": "nonpayable",
      "type": "function"
    },
    {
      "inputs": [],
      "name": "lastBaseFeeLMADebtError_Redistribution",
      "outputs": [
        {
          "internalType": "uint256",
          "name": "",
          "type": "uint256"
        }
      ],
      "stateMutability": "view",
      "type": "function"
    },
    {
      "inputs": [],
      "name": "lastBorrowTime",
      "outputs": [
        {
          "internalType": "uint256",
          "name": "",
          "type": "uint256"
        }
      ],
      "stateMutability": "view",
      "type": "function"
    },
    {
      "inputs": [],
      "name": "lastRedemptionTime",
      "outputs": [
        {
          "internalType": "uint256",
          "name": "",
          "type": "uint256"
        }
      ],
      "stateMutability": "view",
      "type": "function"
    },
    {
      "inputs": [],
      "name": "lastWStETHError_Redistribution",
      "outputs": [
        {
          "internalType": "uint256",
          "name": "",
          "type": "uint256"
        }
      ],
      "stateMutability": "view",
      "type": "function"
    },
    {
      "inputs": [
        {
          "internalType": "address",
          "name": "_borrower",
          "type": "address"
        }
      ],
      "name": "liquidate",
      "outputs": [],
      "stateMutability": "nonpayable",
      "type": "function"
    },
    {
      "inputs": [
        {
          "internalType": "uint256",
          "name": "_n",
          "type": "uint256"
        }
      ],
      "name": "liquidateTroves",
      "outputs": [],
      "stateMutability": "nonpayable",
      "type": "function"
    },
    {
      "inputs": [],
      "name": "owner",
      "outputs": [
        {
          "internalType": "address",
          "name": "",
          "type": "address"
        }
      ],
      "stateMutability": "view",
      "type": "function"
    },
    {
      "inputs": [],
      "name": "priceFeed",
      "outputs": [
        {
          "internalType": "contract IPriceFeed",
          "name": "",
          "type": "address"
        }
      ],
      "stateMutability": "view",
      "type": "function"
    },
    {
      "inputs": [
        {
          "internalType": "uint256",
          "name": "_BaseFeeLMAamount",
          "type": "uint256"
        },
        {
          "internalType": "address",
          "name": "_firstRedemptionHint",
          "type": "address"
        },
        {
          "internalType": "address",
          "name": "_upperPartialRedemptionHint",
          "type": "address"
        },
        {
          "internalType": "address",
          "name": "_lowerPartialRedemptionHint",
          "type": "address"
        },
        {
          "internalType": "uint256",
          "name": "_partialRedemptionHintNICR",
          "type": "uint256"
        },
        {
          "internalType": "uint256",
          "name": "_maxIterations",
          "type": "uint256"
        },
        {
          "internalType": "uint256",
          "name": "_maxFeePercentage",
          "type": "uint256"
        }
      ],
      "name": "redeemCollateral",
      "outputs": [],
      "stateMutability": "nonpayable",
      "type": "function"
    },
    {
      "inputs": [],
      "name": "redemptionBaseRate",
      "outputs": [
        {
          "internalType": "uint256",
          "name": "",
          "type": "uint256"
        }
      ],
      "stateMutability": "view",
      "type": "function"
    },
    {
      "inputs": [
        {
          "internalType": "address",
          "name": "_borrower",
          "type": "address"
        }
      ],
      "name": "removeStake",
      "outputs": [],
      "stateMutability": "nonpayable",
      "type": "function"
    },
    {
      "inputs": [],
      "name": "renounceOwnership",
      "outputs": [],
      "stateMutability": "nonpayable",
      "type": "function"
    },
    {
      "inputs": [
        {
          "internalType": "address",
          "name": "",
          "type": "address"
        }
      ],
      "name": "rewardSnapshots",
      "outputs": [
        {
          "internalType": "uint256",
          "name": "WStETH",
          "type": "uint256"
        },
        {
          "internalType": "uint256",
          "name": "BaseFeeLMADebt",
          "type": "uint256"
        }
      ],
      "stateMutability": "view",
      "type": "function"
    },
    {
      "inputs": [
        {
          "internalType": "address",
          "name": "_borrowerOperationsAddress",
          "type": "address"
        },
        {
          "internalType": "address",
          "name": "_activePoolAddress",
          "type": "address"
        },
        {
          "internalType": "address",
          "name": "_defaultPoolAddress",
          "type": "address"
        },
        {
          "internalType": "address",
          "name": "_stabilityPoolAddress",
          "type": "address"
        },
        {
          "internalType": "address",
          "name": "_gasPoolAddress",
          "type": "address"
        },
        {
          "internalType": "address",
          "name": "_collSurplusPoolAddress",
          "type": "address"
        },
        {
          "internalType": "address",
          "name": "_priceFeedAddress",
          "type": "address"
        },
        {
          "internalType": "address",
          "name": "_baseFeeLMATokenAddress",
          "type": "address"
        },
        {
          "internalType": "address",
          "name": "_sortedTrovesAddress",
          "type": "address"
        },
        {
          "internalType": "address",
          "name": "_hogTokenAddress",
          "type": "address"
        },
        {
          "internalType": "contract IFeesRouter",
          "name": "_feesRouterAddress",
          "type": "address"
        }
      ],
      "name": "setAddresses",
      "outputs": [],
      "stateMutability": "nonpayable",
      "type": "function"
    },
    {
      "inputs": [
        {
          "internalType": "address",
          "name": "_borrower",
          "type": "address"
        }
      ],
      "name": "setTroveLastUpdatedBlock",
      "outputs": [],
      "stateMutability": "nonpayable",
      "type": "function"
    },
    {
      "inputs": [
        {
          "internalType": "address",
          "name": "_borrower",
          "type": "address"
        },
        {
          "internalType": "uint256",
          "name": "_num",
          "type": "uint256"
        }
      ],
      "name": "setTroveStatus",
      "outputs": [],
      "stateMutability": "nonpayable",
      "type": "function"
    },
    {
      "inputs": [],
      "name": "sortedTroves",
      "outputs": [
        {
          "internalType": "contract ISortedTroves",
          "name": "",
          "type": "address"
        }
      ],
      "stateMutability": "view",
      "type": "function"
    },
    {
      "inputs": [],
      "name": "stabilityPool",
      "outputs": [
        {
          "internalType": "contract IStabilityPool",
          "name": "",
          "type": "address"
        }
      ],
      "stateMutability": "view",
      "type": "function"
    },
    {
      "inputs": [],
      "name": "totalCollateralSnapshot",
      "outputs": [
        {
          "internalType": "uint256",
          "name": "",
          "type": "uint256"
        }
      ],
      "stateMutability": "view",
      "type": "function"
    },
    {
      "inputs": [],
      "name": "totalStakes",
      "outputs": [
        {
          "internalType": "uint256",
          "name": "",
          "type": "uint256"
        }
      ],
      "stateMutability": "view",
      "type": "function"
    },
    {
      "inputs": [],
      "name": "totalStakesSnapshot",
      "outputs": [
        {
          "internalType": "uint256",
          "name": "",
          "type": "uint256"
        }
      ],
      "stateMutability": "view",
      "type": "function"
    },
    {
      "inputs": [
        {
          "internalType": "address",
          "name": "newOwner",
          "type": "address"
        }
      ],
      "name": "transferOwnership",
      "outputs": [],
      "stateMutability": "nonpayable",
      "type": "function"
    },
    {
      "inputs": [
        {
          "internalType": "uint256",
          "name": "_newBaseRate",
          "type": "uint256"
        }
      ],
      "name": "updateBaseRateFromBorrowing",
      "outputs": [],
      "stateMutability": "nonpayable",
      "type": "function"
    },
    {
      "inputs": [
        {
          "internalType": "address",
          "name": "_borrower",
          "type": "address"
        }
      ],
      "name": "updateStakeAndTotalStakes",
      "outputs": [
        {
          "internalType": "uint256",
          "name": "",
          "type": "uint256"
        }
      ],
      "stateMutability": "nonpayable",
      "type": "function"
    },
    {
      "inputs": [
        {
          "internalType": "address",
          "name": "_borrower",
          "type": "address"
        }
      ],
      "name": "updateTroveRewardSnapshots",
      "outputs": [],
      "stateMutability": "nonpayable",
      "type": "function"
    }
  ],
  "transactionHash": "0x54608868c0c6ec96564d386e8386da492e58f891b31fb922300d21c6a792dbe0",
  "args": [
    0
  ],
  "numDeployments": 1,
  "solcInputHash": "33b47dd82d2ae5cde270371aff45adfa",
  "bytecode": "0x60c06040523480156200001157600080fd5b5060405162005dec38038062005dec8339810160408190526200003491620000c6565b6200003f3362000074565b6200004c81603c620000e0565b6200005990603c620000e0565b62000066906018620000e0565b608052504260a0526200010c565b600380546001600160a01b038381166001600160a01b0319831681179093556040519116919082907f8be0079c531659141344cd1fd0a4f28419497f9722a3daafe3b4186f6b6457e090600090a35050565b600060208284031215620000d957600080fd5b5051919050565b80820281158282048414176200010657634e487b7160e01b600052601160045260246000fd5b92915050565b60805160a051615cac6200014060003960008181610b420152613e52015260008181610a5c0152613e730152615cac6000f3fe608060405234801561001057600080fd5b50600436106104ee5760003560e01c80637f7dde4a1161028e578063bb6f030c11610167578063d5b35635116100d9578063e2ac77b011610092578063e2ac77b014610b6c578063e324634914610b7f578063f2fde38b14610b88578063f92d343314610630578063fb0cbd4b14610b9b578063fe2ba84814610baa57600080fd5b8063d5b3563514610adb578063d66a255314610aee578063d696629714610b17578063d9a7244414610b2a578063e030c10c14610b3d578063e1f787e914610b6457600080fd5b8063c3eb5c671161012b578063c3eb5c6714610a7e578063c42dab9914610a87578063c52861f214610a9a578063cbd138ae14610aa2578063d293c71014610ab5578063d3d6f84314610ac857600080fd5b8063bb6f030c14610a29578063bcd3752614610a32578063bf9befb114610a45578063c26c880014610a4e578063c35bc55014610a5757600080fd5b8063a201415211610200578063b0d8e181116101c4578063b0d8e181146109a1578063b25c3183146109b4578063b36cd07f146109bd578063b7f8cf9b146109d0578063b82f263d146109e3578063b91af97c146109f657600080fd5b8063a201415214610939578063a20baee614610621578063a3f4df7e14610943578063acef5b8d1461097b578063ae9187541461098e57600080fd5b80638f913789116102525780638f913789146108db578063900e664b146108ee578063948ba6d2146108f757806396d711ff1461090a5780639976cf45146109135780639f7adb5e1461092657600080fd5b80637f7dde4a14610893578063807d138d146108a657806382fe3eb9146108af578063887105d3146108c25780638da5cb5b146108ca57600080fd5b8063480cd578116103cb578063653d46e71161033d578063741bef1a116102f6578063741bef1a14610834578063756b253e14610847578063794e57241461085a578063795d26c3146108695780637985c5e4146108715780637e024ad61461088457600080fd5b8063653d46e71461079b5780636ef64338146107ae578063715018a61461081157806371f256e21461081957806372423c171461082157806372fe25aa1461062157600080fd5b80635733d58f1161038f5780635733d58f1461072a5780635d6b480f146107395780635dba4c4a1461074c57806361ec893d14610754578063631203b01461075c57806364cee2601461076f57600080fd5b8063480cd578146106b85780634870dd9a146106e457806349eefeee146106ec5780634e443d9e146106f4578063570dc45e1461071757600080fd5b80631e8b1c2b116104645780632b11551a116104285780632b11551a146106385780632f865568146106405780633cc74225146106535780634194d9661461066657806347142aa314610692578063477d66cf146106a557600080fd5b80631e8b1c2b146105f257806321e378011461060557806322afd9f114610618578063240926691461062157806328d28b5b1461063057600080fd5b806312610e92116104b657806312610e921461056957806315d549f11461057c5780631673c79a1461058f57806318f2817a146105cb5780631b199a64146105de5780631bf43555146105e757600080fd5b8063030c5a0f146104f3578063048c661d14610519578063071a7541146105395780630b076557146105415780630c08ff5f14610556575b600080fd5b6105066105013660046156c1565b610bbd565b6040519081526020015b60405180910390f35b60055461052c906001600160a01b031681565b60405161051091906156de565b610506600281565b61055461054f3660046156c1565b610c76565b005b6105066105643660046156c1565b610c9e565b6105066105773660046156f2565b610cc9565b61050661058a3660046156c1565b610d1b565b6105b661059d3660046156c1565b6016602052600090815260409020805460019091015482565b60408051928352602083019190915201610510565b6105066105d93660046156c1565b610d3d565b61050660195481565b6105066314dc938081565b610554610600366004615734565b610d50565b6105066106133660046156c1565b611159565b61050660145481565b610506670de0b6b3a764000081565b610506611189565b6105066111ab565b61055461064e3660046156c1565b6111bd565b60015461052c906001600160a01b031681565b6105066106743660046156c1565b6001600160a01b031660009081526010602052604090206004015490565b6105066106a03660046157f9565b611229565b6105066106b336600461581b565b611247565b6105066106c63660046156c1565b6001600160a01b031660009081526010602052604090206001015490565b61050660c881565b601754610506565b61070761070236600461581b565b61125b565b6040519015158152602001610510565b60095461052c906001600160a01b031681565b610506671bc16d674ec8000081565b6105546107473660046156f2565b611266565b6105546112be565b610506603c81565b6105b661076a36600461581b565b6112f7565b61050661077d3660046156c1565b6001600160a01b031660009081526010602052604090206002015490565b6105546107a936600461581b565b61131a565b6107ff6107bc3660046156c1565b6010602052600090815260409020805460018201546002830154600384015460049094015492939192909160ff8116916101009091046001600160801b03169086565b6040516105109695949392919061584a565b6105546116ee565b610707611702565b61050661082f3660046156f2565b611783565b60025461052c906001600160a01b031681565b61052c61085536600461581b565b6117da565b6105066714d1120d7b16000081565b610506611804565b61055461087f366004615895565b611900565b610506670ddd4b8c6c7d70d881565b60005461052c906001600160a01b031681565b61050660125481565b6105546108bd3660046156c1565b611c7c565b610506611c8d565b6003546001600160a01b031661052c565b60085461052c906001600160a01b031681565b61050660155481565b61050661090536600461581b565b611d52565b61050660135481565b6105066109213660046156f2565b611d65565b61055461093436600461581b565b611d92565b610506620186a081565b61096e6040518060400160405280600c81526020016b2a3937bb32a6b0b730b3b2b960a11b81525081565b6040516105109190615973565b6105546109893660046156c1565b611e97565b600b5461052c906001600160a01b031681565b6105066109af3660046156c1565b611ebf565b61050660185481565b6105066109cb36600461581b565b611ee6565b60045461052c906001600160a01b031681565b6105066109f136600461581b565b611ef4565b610a09610a043660046156c1565b611eff565b604080519485526020850193909352918301526060820152608001610510565b610506600c5481565b610554610a403660046159c1565b611f57565b61050660115481565b610506600f5481565b6105067f000000000000000000000000000000000000000000000000000000000000000081565b610506600d5481565b600a5461052c906001600160a01b031681565b610506612669565b610554610ab03660046156c1565b61267b565b610506610ac33660046156f2565b61268e565b610506610ad63660046156f2565b6126ad565b610506610ae936600461581b565b6126dd565b610506610afc3660046156c1565b6001600160a01b031660009081526010602052604090205490565b610506610b253660046156c1565b6126f0565b61052c610b3836600461581b565b612789565b6105067f000000000000000000000000000000000000000000000000000000000000000081565b6105066127b9565b610707610b7a3660046156c1565b61283a565b610506600e5481565b610554610b963660046156c1565b61289d565b610506670dc14847bcc53b2081565b610554610bb83660046156c1565b612913565b6001600160a01b0381166000908152601660205260408120546014548290610be59083612924565b9050801580610c24575060016001600160a01b03851660009081526010602052604090206003015460ff166004811115610c2157610c21615834565b14155b15610c33575060009392505050565b6001600160a01b03841660009081526010602052604081206002015490610c6c670de0b6b3a7640000610c668486612937565b90612943565b9695505050505050565b610c7e61294f565b600054600154610c9b916001600160a01b039081169116836129cf565b50565b6001600160a01b0381166000908152601660205260408120600101546015548290610be59083612924565b6000610cd361294f565b6001600160a01b038316600090815260106020526040812054610cf69084612924565b6001600160a01b03851660009081526010602052604090208190559150505b92915050565b6000610d2561294f565b610d2e82612ad5565b6001600160801b031692915050565b6000610d4761294f565b610d1582612b6f565b8051600003610dc55760405162461bcd60e51b815260206004820152603660248201527f54726f76654d616e616765723a2043616c6c646174612061646472657373206160448201527572726179206d757374206e6f7420626520656d70747960501b60648201526084015b60405180910390fd5b6000546001546005546001600160a01b03928316929182169116610de76155d7565b610def615608565b600260009054906101000a90046001600160a01b03166001600160a01b0316630fdb11cf6040518163ffffffff1660e01b81526004016020604051808303816000875af1158015610e44573d6000803e3d6000fd5b505050506040513d601f19601f82011682018060405250810190610e689190615a2f565b826000018181525050826001600160a01b031663488df0fc6040518163ffffffff1660e01b8152600401602060405180830381865afa158015610eaf573d6000803e3d6000fd5b505050506040513d601f19601f82011682018060405250810190610ed39190615a2f565b60208301528151610ee390612c13565b1580156040840152610f0b57610f048585846000015185602001518a612c30565b9050610f23565b610f208585846000015185602001518a612e57565b90505b6000816020015111610f475760405162461bcd60e51b8152600401610dbc90615a48565b608081015160a082015160405163335525ad60e01b81526001600160a01b0386169263335525ad92610f8492600401918252602082015260400190565b600060405180830381600087803b158015610f9e57600080fd5b505af1158015610fb2573d6000803e3d6000fd5b50505050610fca85858360c001518460e00151612f27565b610100810151156110a85760075461010082015160405162f9332d60e61b81526001600160a01b0390921691633e4ccb409161100c9160040190815260200190565b600060405180830381600087803b15801561102657600080fd5b505af115801561103a573d6000803e3d6000fd5b50506007546101008401516040516316daab2160e01b81526001600160a01b03808b1695506316daab21945061107593169190600401615a8a565b600060405180830381600087803b15801561108f57600080fd5b505af11580156110a3573d6000803e3d6000fd5b505050505b6110b68582604001516131bb565b60208101516060830152610100810151604082015182516110e292916110dc9190612924565b90612924565b6080838101829052606080850151604085810151868401518251938452602084019690965290820152908101929092527f4152c73dd2614c4f9fc35e8c9cf16013cd588c75b49a4c1673ecffdcbcda9403910160405180910390a16111518533836060015184604001516132ff565b505050505050565b6001600160a01b03811660009081526010602052604081206003015460ff166004811115610d1557610d15615834565b61119d6103e8670de0b6b3a7640000615acf565b6111a8906005615ae3565b81565b60006111b8600c546133e2565b905090565b6111c681613418565b6040805160018082528183019092526000916020808301908036833701905050905081816000815181106111fc576111fc615afa565b60200260200101906001600160a01b031690816001600160a01b03168152505061122581610d50565b5050565b60008061123f84846714d1120d7b1600006134af565b949350505050565b6000610d1561125583611d52565b836134e4565b6000610d1582612c13565b61126e61294f565b80600481111561128057611280615834565b6001600160a01b0383166000908152601060205260409020600301805460ff191660018360048111156112b5576112b5615834565b02179055505050565b6112c661294f565b60006112d06134fc565b9050670de0b6b3a76400008111156112ea576112ea615b10565b600d819055610c9b613540565b600080600061130584611ee6565b905061131181856134e4565b94909350915050565b6040805160c081018252600080546001600160a01b03908116835260015481166020840152928201819052600b54831660608301526080820181905260a08201526005549091166113696155d7565b611371615608565b600260009054906101000a90046001600160a01b03166001600160a01b0316630fdb11cf6040518163ffffffff1660e01b81526004016020604051808303816000875af11580156113c6573d6000803e3d6000fd5b505050506040513d601f19601f820116820180604052508101906113ea9190615a2f565b826000018181525050826001600160a01b031663488df0fc6040518163ffffffff1660e01b8152600401602060405180830381865afa158015611431573d6000803e3d6000fd5b505050506040513d601f19601f820116820180604052508101906114559190615a2f565b6020830152815161146590612c13565b158015604084015261148c57611485848360000151846020015188613597565b90506114ac565b6114a9846000015185602001518460000151856020015189613914565b90505b60008160200151116114d05760405162461bcd60e51b8152600401610dbc90615a48565b608081015160a082015160405163335525ad60e01b81526001600160a01b0386169263335525ad9261150d92600401918252602082015260400190565b600060405180830381600087803b15801561152757600080fd5b505af115801561153b573d6000803e3d6000fd5b5050505061155b846000015185602001518360c001518460e00151612f27565b6101008101511561163c5760075461010082015160405162f9332d60e61b81526001600160a01b0390921691633e4ccb409161159d9160040190815260200190565b600060405180830381600087803b1580156115b757600080fd5b505af11580156115cb573d6000803e3d6000fd5b505085516007546101008501516040516316daab2160e01b81526001600160a01b0393841695506316daab2194506116099390921691600401615a8a565b600060405180830381600087803b15801561162357600080fd5b505af1158015611637573d6000803e3d6000fd5b505050505b61164e846000015182604001516131bb565b602081015160608301526101008101516040820151825161167492916110dc9190612924565b6080838101829052606080850151604085810151868401518251938452602084019690965290820152908101929092527f4152c73dd2614c4f9fc35e8c9cf16013cd588c75b49a4c1673ecffdcbcda9403910160405180910390a16116e7846000015133836060015184604001516132ff565b5050505050565b6116f6613a45565b6117006000613a9f565b565b60006111b8600260009054906101000a90046001600160a01b03166001600160a01b0316630490be836040518163ffffffff1660e01b8152600401602060405180830381865afa15801561175a573d6000803e3d6000fd5b505050506040513d601f19601f8201168201806040525081019061177e9190615a2f565b612c13565b600061178d61294f565b6001600160a01b0383166000908152601060205260408120600101546117b39084613af1565b6001600160a01b038516600090815260106020526040902060010181905591505092915050565b601781815481106117ea57600080fd5b6000918252602090912001546001600160a01b0316905081565b60008054604080516315b3137b60e21b8152905183926001600160a01b0316916356cc4dec9160048083019260209291908290030181865afa15801561184e573d6000803e3d6000fd5b505050506040513d601f19601f820116820180604052508101906118729190615a2f565b90506000600160009054906101000a90046001600160a01b03166001600160a01b03166356cc4dec6040518163ffffffff1660e01b8152600401602060405180830381865afa1580156118c9573d6000803e3d6000fd5b505050506040513d601f19601f820116820180604052508101906118ed9190615a2f565b90506118f98282613af1565b9250505090565b611908613a45565b6119118b613afd565b61191a8a613afd565b61192389613afd565b61192c88613afd565b61193587613afd565b61193e86613afd565b61194785613afd565b61195084613afd565b61195983613afd565b61196282613afd565b61196b81613afd565b600480546001600160a01b03199081166001600160a01b038e8116919091179092556000805482168d84161790556001805482168c84161790556005805482168b84161790556006805482168a8416179055600780548216898416179055600280548216888416179055600880548216878416179055600b80548216868416179055600980548216858416179055600a80549091169183169190911790556040517f3ca631ffcd2a9b5d9ae18543fc82f58eb4ca33af9e6ab01b7a8e95331e6ed98590611a39908d906156de565b60405180910390a17f78f058b189175430c48dc02699e3a0031ea4ff781536dc2fab847de4babdd8828a604051611a7091906156de565b60405180910390a17f5ee0cae2f063ed938bb55046f6a932fb6ae792bf43624806bb90abe68a50be9b89604051611aa791906156de565b60405180910390a17f82966d27eea39b038ee0fa30cd16532bb24f6e65d31cb58fb227aa5766cdcc7f88604051611ade91906156de565b60405180910390a17fcfb07d791fcafc032b35837b50eb84b74df518cf4cc287e8084f47630fa70fa087604051611b1591906156de565b60405180910390a17fe67f36a6e961157d6eff83b91f3af5a62131ceb6f04954ef74f51c1c05e7f88d86604051611b4c91906156de565b60405180910390a17f8c537274438aa850a330284665d81a85dd38267d09e4050d416bfc94142db26485604051611b8391906156de565b60405180910390a17f7faa560f2889840c377209fbc4b6b92d05f43f1fc60bf336ab546fd60c0051ad84604051611bba91906156de565b60405180910390a17f65f4cf077bc01e4742eb5ad98326f6e95b63548ea24b17f8d5e823111fe7880083604051611bf191906156de565b60405180910390a17f0d32e4ef3d389440323b172cfc07c6c01bdd1d3e8334379048eec21e8d919b7782604051611c2891906156de565b60405180910390a17f6877e00d9059f8716bd795b5d4c2c89a4bc3cef71ba3dd99b168ac9cc1f2a6c281604051611c5f91906156de565b60405180910390a1611c6f6116ee565b5050505050505050505050565b611c8461294f565b610c9b81613ba2565b6000805460408051630ee2ec9760e41b8152905183926001600160a01b03169163ee2ec9709160048083019260209291908290030181865afa158015611cd7573d6000803e3d6000fd5b505050506040513d601f19601f82011682018060405250810190611cfb9190615a2f565b90506000600160009054906101000a90046001600160a01b03166001600160a01b031663ee2ec9706040518163ffffffff1660e01b8152600401602060405180830381865afa1580156118c9573d6000803e3d6000fd5b6000610d15611d5f6134fc565b83613c06565b6000611d6f61294f565b6001600160a01b038316600090815260106020526040812054610cf69084613af1565b6004546001600160a01b03163314611e045760405162461bcd60e51b815260206004820152602f60248201527f54726f76654d616e616765723a204f6e6c7920426f72726f776572206f70657260448201526e185d1a5bdb9cc81b585e4818d85b1b608a1b6064820152608401610dbc565b611e186103e8670de0b6b3a7640000615acf565b611e23906005615ae3565b8110611e5a57611e3d6103e8670de0b6b3a7640000615acf565b611e48906005615ae3565b611e529082615b26565b600d55611e60565b6000600d555b6040518181527fca870d46d67e9a1444a6b8f97a147e06e4cf71ee2a0f172d7ecd5441ae7c1201906020015b60405180910390a150565b611e9f61294f565b6001600160a01b0316600090815260106020526040902043600490910155565b6000806000611ecd84613ce5565b915091506000611edd8383613d5f565b95945050505050565b6000610d15600d5483613c06565b6000610d1582613d8e565b6001600160a01b03811660009081526010602052604081208054600190910154909180611f2b85610c9e565b9150611f3685610bbd565b9050611f428483613af1565b9350611f4e8382613af1565b92509193509193565b6040805160c08082018352600080546001600160a01b0390811684526001548116602080860191909152600854821685870152600b548216606080870191909152600754831660808088019190915260065490931660a080880191909152875161010081018952858152928301859052968201849052810183905290810182905293840181905290830181905260e083015290611ff383613db2565b611ffb613e4d565b600260009054906101000a90046001600160a01b03166001600160a01b0316630fdb11cf6040518163ffffffff1660e01b81526004016020604051808303816000875af1158015612050573d6000803e3d6000fd5b505050506040513d601f19601f820116820180604052508101906120749190615a2f565b60c0820181905261208490613f0e565b61208d89613f81565b61209c8260400151338b613fe8565b6120a4611804565b60e0820181905260408084015190516370a0823160e01b81526001600160a01b03909116906370a08231906120dd9033906004016156de565b602060405180830381865afa1580156120fa573d6000803e3d6000fd5b505050506040513d601f19601f8201168201806040525081019061211e9190615a2f565b111561212c5761212c615b10565b888152606082015160c0820151600091612147918b906140e8565b15612153575087612265565b82606001516001600160a01b0316634d6228316040518163ffffffff1660e01b8152600401602060405180830381865afa158015612195573d6000803e3d6000fd5b505050506040513d601f19601f820116820180604052508101906121b99190615b39565b90505b6001600160a01b038116158015906121e857506714d1120d7b1600006121e6828460c0015161268e565b105b156122655782606001516001600160a01b031663b72703ac826040518263ffffffff1660e01b815260040161221d91906156de565b602060405180830381865afa15801561223a573d6000803e3d6000fd5b505050506040513d601f19601f8201168201806040525081019061225e9190615b39565b90506121bc565b846000036122735760001994505b6001600160a01b0381161580159061228b5750815115155b80156122975750600085115b156123a357846122a681615b56565b955050600083606001516001600160a01b031663b72703ac836040518263ffffffff1660e01b81526004016122db91906156de565b602060405180830381865afa1580156122f8573d6000803e3d6000fd5b505050506040513d601f19601f8201168201806040525081019061231c9190615b39565b905061233184600001518560200151846129cf565b600061234a858486600001518760c001518e8e8e614232565b905080604001511561235d5750506123a3565b8051602085015161236d91613af1565b602080860191909152810151604085015161238791613af1565b60408501528051845161239991612924565b8452509050612273565b60008260400151116124095760405162461bcd60e51b815260206004820152602960248201527f54726f76654d616e616765723a20556e61626c6520746f2072656465656d20616044820152681b9e48185b5bdd5b9d60ba1b6064820152608401610dbc565b6124168260400151614496565b506124248260400151614615565b60608301819052604083015161243b919086614622565b600a54604080840151606085015191516318ddad8960e21b81526001600160a01b0390931692636376b6249261247d9291600401918252602082015260400190565b600060405180830381600087803b15801561249757600080fd5b505af11580156124ab573d6000803e3d6000fd5b50505050606082015160408301516124c291612924565b60808301526020820151604080840151606085015191517f43a3f4082a4dbc33d78e317d2497d3a730bc7fc3574159dcea1056e62e5d9ad89361251e938f93919293845260208401929092526040830152606082015260800190565b60405180910390a182604001516001600160a01b0316639dc29fac3384602001516040518363ffffffff1660e01b815260040161255c929190615a8a565b600060405180830381600087803b15801561257657600080fd5b505af115801561258a573d6000803e3d6000fd5b505084516020850151604051633b4009ff60e11b81526001600160a01b03909216935063768013fe92506125c49160040190815260200190565b600060405180830381600087803b1580156125de57600080fd5b505af11580156125f2573d6000803e3d6000fd5b5050845160808501516040516316daab2160e01b81526001600160a01b0390921693506316daab21925061262b91339190600401615a8a565b600060405180830381600087803b15801561264557600080fd5b505af1158015612659573d6000803e3d6000fd5b5050505050505050505050505050565b60006111b861267661468c565b6133e2565b61268361294f565b610c9b8160026146d0565b600080600061269c85613ce5565b915091506000610c6c8383876147fd565b60006126b761294f565b6001600160a01b0383166000908152601060205260408120600101546117b39084612924565b6000610d156126ea612669565b83614831565b600080600260009054906101000a90046001600160a01b03166001600160a01b0316630490be836040518163ffffffff1660e01b8152600401602060405180830381865afa158015612746573d6000803e3d6000fd5b505050506040513d601f19601f8201168201806040525081019061276a9190615a2f565b905060008061277885613ce5565b915091506000610c6c8383866147fd565b60006017828154811061279e5761279e615afa565b6000918252602090912001546001600160a01b031692915050565b60006111b8600260009054906101000a90046001600160a01b03166001600160a01b0316630490be836040518163ffffffff1660e01b8152600401602060405180830381865afa158015612811573d6000803e3d6000fd5b505050506040513d601f19601f820116820180604052508101906128359190615a2f565b613d8e565b600060016001600160a01b03831660009081526010602052604090206003015460ff16600481111561286e5761286e615834565b1461287b57506000919050565b506014546001600160a01b039091166000908152601660205260409020541090565b6128a5613a45565b6001600160a01b03811661290a5760405162461bcd60e51b815260206004820152602660248201527f4f776e61626c653a206e6577206f776e657220697320746865207a65726f206160448201526564647265737360d01b6064820152608401610dbc565b610c9b81613a9f565b61291b61294f565b610c9b8161484a565b60006129308284615b26565b9392505050565b60006129308284615ae3565b60006129308284615acf565b6004546001600160a01b031633146117005760405162461bcd60e51b815260206004820152603b60248201527f54726f76654d616e616765723a2043616c6c6572206973206e6f74207468652060448201527f426f72726f7765724f7065726174696f6e7320636f6e747261637400000000006064820152608401610dbc565b6129d88161283a565b15612ad0576129e681613418565b60006129f182610bbd565b905060006129fe83610c9e565b6001600160a01b038416600090815260106020526040902060010154909150612a279083613af1565b6001600160a01b0384166000908152601060205260409020600181019190915554612a529082613af1565b6001600160a01b038416600090815260106020526040902055612a7483613ba2565b612a8085858385614894565b6001600160a01b038316600081815260106020526040808220805460018201546002909201549251600080516020615c5783398151915294612ac59492939291615b81565b60405180910390a250505b505050565b601780546001808201835560008381527fc624b66cc0138b8fabc209247f72d758e1cf3343756d543badbf24212bed8c1590920180546001600160a01b0319166001600160a01b03861617905591549091612b309190612924565b6001600160a01b039290921660009081526010602052604090206003018054610100600160881b0319166101006001600160801b038516021790555090565b6001600160a01b0381166000908152601060205260408120600101548190612b9690614975565b6001600160a01b038416600090815260106020526040902060020180549082905560115491925090612bd4908390612bce9084612924565b90613af1565b60118190556040519081527f6bac5e0eb3c44eb03a60ab11ec3a2c051771616aecadbcfff2630aabae5203829060200160405180910390a15092915050565b600080612c1f83613d8e565b671bc16d674ec80000119392505050565b612c38615608565b612c40615654565b612c48615608565b84825260006080830152612c5a611804565b60a0830152612c67611c8d565b60c0830152600060208301525b835182602001511015612e4c5783826020015181518110612c9757612c97615afa565b6020908102919091018101516001600160a01b03166060840181905260009081526010909152604090206003015460019060ff166004811115612cdc57612cdc615834565b03612e3457612cef82606001518761268e565b60408301526080820151612ddc576714d1120d7b160000826040015110158015612d1857508151155b612e34576000612d318360c001518460a00151896147fd565b9050612d4e8989856060015186604001518760000151868d6149b6565b60808101518451919350612d629190612924565b8352608082015160a0840151612d7791612924565b8360a0018181525050612dac8261010001516110dc84604001516110dc8660a001518860c0015161292490919063ffffffff16565b60c0840152612dbb8483614caa565b9350612dd08360c001518460a0015189614d8b565b15608084015250612e34565b81608001518015612df857506714d1120d7b1600008260400151105b15612e3457612e11888884606001518560000151614dac565b60808101518351919250612e259190612924565b8252612e318382614caa565b92505b60208201805190612e4482615ba3565b905250612c74565b505095945050505050565b612e5f615608565b612e67615654565b612e6f615608565b848252600060208301525b835182602001511015612e4c5783826020015181518110612e9d57612e9d615afa565b60209081029190910101516001600160a01b031660608301819052612ec2908761268e565b604083018190526714d1120d7b1600001115612f0f57612eec888884606001518560000151614dac565b60808101518351919250612f009190612924565b8252612f0c8382614caa565b92505b60208201805190612f1f82615ba3565b905250612e7a565b81156131b557601854600090612f4990612bce84670de0b6b3a7640000612937565b90506000612f6e601954612bce670de0b6b3a76400008761293790919063ffffffff16565b90506000612f876011548461294390919063ffffffff16565b90506000612fa06011548461294390919063ffffffff16565b9050612fc1612fba6011548461293790919063ffffffff16565b8590612924565b601855601154612fdd90612fd6908390612937565b8490612924565b601955601454612fed9083613af1565b601455601554612ffd9082613af1565b60158190556014546040517f9f8bc8ab0daf5bceef75ecfd2085d1fcc6548c657ea970d9a23a60610d0737e39261303b928252602082015260400190565b60405180910390a1604051633b4009ff60e11b8152600481018790526001600160a01b0389169063768013fe90602401600060405180830381600087803b15801561308557600080fd5b505af1158015613099573d6000803e3d6000fd5b505060405163262b890160e01b8152600481018990526001600160a01b038a16925063262b89019150602401600060405180830381600087803b1580156130df57600080fd5b505af11580156130f3573d6000803e3d6000fd5b505060405162f9332d60e61b8152600481018890526001600160a01b038a169250633e4ccb409150602401600060405180830381600087803b15801561313857600080fd5b505af115801561314c573d6000803e3d6000fd5b50506040516316daab2160e01b81526001600160a01b038b1692506316daab21915061317e908a908990600401615a8a565b600060405180830381600087803b15801561319857600080fd5b505af11580156131ac573d6000803e3d6000fd5b50505050505050505b50505050565b6011546012819055506000826001600160a01b031663ee2ec9706040518163ffffffff1660e01b8152600401602060405180830381865afa158015613204573d6000803e3d6000fd5b505050506040513d601f19601f820116820180604052508101906132289190615a2f565b90506000600160009054906101000a90046001600160a01b03166001600160a01b031663ee2ec9706040518163ffffffff1660e01b8152600401602060405180830381865afa15801561327f573d6000803e3d6000fd5b505050506040513d601f19601f820116820180604052508101906132a39190615a2f565b90506132b381612bce8486612924565b60138190556012546040517f51bf4c63ec3cba9d03d43238abbdd979dd91bd16d9895c74ceea9118c7baaf60926132f1928252602082015260400190565b60405180910390a150505050565b811561337657600854600654604051631062c15f60e11b81526001600160a01b0391821660048201528582166024820152604481018590529116906320c582be90606401600060405180830381600087803b15801561335d57600080fd5b505af1158015613371573d6000803e3d6000fd5b505050505b80156131b5576040516316daab2160e01b81526001600160a01b038516906316daab21906133aa9086908590600401615a8a565b600060405180830381600087803b1580156133c457600080fd5b505af11580156133d8573d6000803e3d6000fd5b5050505050505050565b6000610d1561340a836133ff6103e8670de0b6b3a7640000615acf565b612bce906005615ae3565b670de0b6b3a7640000614eee565b60016001600160a01b03821660009081526010602052604090206003015460ff16600481111561344a5761344a615834565b14610c9b5760405162461bcd60e51b815260206004820152602f60248201527f54726f76654d616e616765723a2054726f766520646f6573206e6f742065786960448201526e1cdd081bdc881a5cc818db1bdcd959608a1b6064820152608401610dbc565b600081836134c5670de0b6b3a764000087615ae3565b6134cf9190615acf565b6134d99190615acf565b61123f906001615bbc565b6000612930670de0b6b3a7640000610c668585612937565b600080613507614f04565b9050600061351d670dc14847bcc53b2083614f20565b90506118f9670de0b6b3a7640000610c6683600d5461293790919063ffffffff16565b6000613557600f544261292490919063ffffffff16565b9050603c8110610c9b5742600f8190556040519081527f4ac50c32a269c2cfea9cf04e466da1ab839008441fadf7108e4f05410c2bfd5f90602001611e8c565b61359f615608565b6135a7615654565b6135af615608565b848252600060808301526135c1611804565b60a08301526135ce611c8d565b8260c001818152505086606001516001600160a01b0316634d6228316040518163ffffffff1660e01b8152600401602060405180830381865afa158015613619573d6000803e3d6000fd5b505050506040513d601f19601f8201168201806040525081019061363d9190615b39565b82606001906001600160a01b031690816001600160a01b031681525050600087606001516001600160a01b0316631e2231436040518163ffffffff1660e01b8152600401602060405180830381865afa15801561369e573d6000803e3d6000fd5b505050506040513d601f19601f820116820180604052508101906136c29190615b39565b6000602085015290505b8483602001511080156136f55750806001600160a01b031683606001516001600160a01b031614155b1561390957600088606001516001600160a01b031663b72703ac85606001516040518263ffffffff1660e01b815260040161373091906156de565b602060405180830381865afa15801561374d573d6000803e3d6000fd5b505050506040513d601f19601f820116820180604052508101906137719190615b39565b905061378184606001518961268e565b60408501526080840151613879576714d1120d7b1600008460400151101580156137aa57508351155b156137b55750613909565b60006137ca8560c001518660a001518b6147fd565b8a5160208c01516060880151604089015189519495506137eb94868f6149b6565b608081015186519195506137ff9190612924565b8552608084015160a086015161381491612924565b8560a00181815250506138498461010001516110dc86604001516110dc8860a001518a60c0015161292490919063ffffffff16565b60c08601526138588685614caa565b955061386d8560c001518660a001518b614d8b565b156080860152506138e3565b8360800151801561389557506714d1120d7b1600008460400151105b156138dd576138b689600001518a6020015186606001518760000151614dac565b608081015185519194506138ca9190612924565b84526138d68584614caa565b94506138e3565b50613909565b6001600160a01b031660608401526020830180519061390182615ba3565b9052506136cc565b505050949350505050565b61391c615608565b613924615654565b61392c615608565b600b54858352600060208401526001600160a01b03165b8483602001511015613a3957806001600160a01b0316634d6228316040518163ffffffff1660e01b8152600401602060405180830381865afa15801561398d573d6000803e3d6000fd5b505050506040513d601f19601f820116820180604052508101906139b19190615b39565b6001600160a01b0316606084018190526139cb908861268e565b604084018190526714d1120d7b1600001115613a1c576139f5898985606001518660000151614dac565b60808101518451919350613a099190612924565b8352613a158483614caa565b9350613a21565b613a39565b60208301805190613a3182615ba3565b905250613943565b50505095945050505050565b6003546001600160a01b031633146117005760405162461bcd60e51b815260206004820181905260248201527f4f776e61626c653a2063616c6c6572206973206e6f7420746865206f776e65726044820152606401610dbc565b600380546001600160a01b038381166001600160a01b0319831681179093556040519116919082907f8be0079c531659141344cd1fd0a4f28419497f9722a3daafe3b4186f6b6457e090600090a35050565b60006129308284615bbc565b6001600160a01b038116613b535760405162461bcd60e51b815260206004820152601e60248201527f4163636f756e742063616e6e6f74206265207a65726f206164647265737300006044820152606401610dbc565b803b806112255760405162461bcd60e51b815260206004820181905260248201527f4163636f756e7420636f64652073697a652063616e6e6f74206265207a65726f6044820152606401610dbc565b601480546001600160a01b038316600090815260166020526040908190209182556015546001909201829055915491517fc437f324d85e369394148dd9d62f98f534b382e01ed3dd2eb98138fb6d3ab49a92611e8c92908252602082015260400190565b600080600860009054906101000a90046001600160a01b03166001600160a01b03166318160ddd6040518163ffffffff1660e01b8152600401602060405180830381865afa158015613c5c573d6000803e3d6000fd5b505050506040513d601f19601f82011682018060405250810190613c809190615a2f565b905080600003613cb157613c9e6103e8670de0b6b3a7640000615acf565b613ca9906005615ae3565b915050610d15565b61123f61340a613ccd83610c6687670de0b6b3a7640000612937565b612bce876133ff6103e8670de0b6b3a7640000615acf565b6000806000613cf384610bbd565b90506000613d0085610c9e565b6001600160a01b03861660009081526010602052604081206001015491925090613d2a9084613af1565b6001600160a01b03871660009081526010602052604081205491925090613d519084613af1565b919791965090945050505050565b60008115613d8557613d7e82610c668568056bc75e2d63100000612937565b9050610d15565b50600019610d15565b600080613d99611c8d565b90506000613da5611804565b905061123f8282866147fd565b613dc66103e8670de0b6b3a7640000615acf565b613dd1906005615ae3565b8110158015613de85750670de0b6b3a76400008111155b610c9b5760405162461bcd60e51b815260206004820152603060248201527f4d6178206665652070657263656e74616765206d75737420626520626574776560448201526f656e20302e352520616e64203130302560801b6064820152608401610dbc565b613e977f00000000000000000000000000000000000000000000000000000000000000007f0000000000000000000000000000000000000000000000000000000000000000613af1565b421015611700576040805162461bcd60e51b81526020600482015260248101919091527f54726f76654d616e616765723a20526564656d7074696f6e7320617265206e6f60448201527f7420616c6c6f77656420647572696e6720626f6f7473747261702070686173656064820152608401610dbc565b6714d1120d7b160000613f2082613d8e565b1015610c9b5760405162461bcd60e51b815260206004820152602a60248201527f54726f76654d616e616765723a2043616e6e6f742072656465656d207768656e604482015269102a21a9101e1026a1a960b11b6064820152608401610dbc565b60008111610c9b5760405162461bcd60e51b815260206004820152602e60248201527f54726f76654d616e616765723a20416d6f756e74206d7573742062652067726560448201526d61746572207468616e207a65726f60901b6064820152608401610dbc565b6040516370a0823160e01b815281906001600160a01b038516906370a08231906140169086906004016156de565b602060405180830381865afa158015614033573d6000803e3d6000fd5b505050506040513d601f19601f820116820180604052508101906140579190615a2f565b1015612ad05760405162461bcd60e51b815260206004820152605460248201527f54726f76654d616e616765723a2052657175657374656420726564656d70746960448201527f6f6e20616d6f756e74206d757374206265203c3d2075736572277320426173656064820152734665654c4d4120746f6b656e2062616c616e636560601b608482015260a401610dbc565b60006001600160a01b038316158061416a5750604051630bb7c8fd60e31b81526001600160a01b03851690635dbe47e8906141279086906004016156de565b602060405180830381865afa158015614144573d6000803e3d6000fd5b505050506040513d601f19601f820116820180604052508101906141689190615bcf565b155b8061418557506714d1120d7b160000614183848461268e565b105b1561419257506000612930565b60405163765e015960e01b81526000906001600160a01b0386169063765e0159906141c19087906004016156de565b602060405180830381865afa1580156141de573d6000803e3d6000fd5b505050506040513d601f19601f820116820180604052508101906142029190615b39565b90506001600160a01b0381161580611edd57506714d1120d7b160000614228828561268e565b1095945050505050565b614258604051806060016040528060008152602001600081526020016000151581525090565b6001600160a01b03871660009081526010602052604090205461428990879061428490620186a0612924565b614eee565b8082526142969086612937565b60208083019190915281516001600160a01b0389166000908152601090925260408220546142c391612924565b6020808401516001600160a01b038b1660009081526010909252604082206001015492935090916142f391612924565b9050620186a0820361435f576143088961484a565b6143138960046146d0565b6143228a8a620186a084614fc4565b886001600160a01b0316600080516020615c57833981519152600080600060036040516143529493929190615b81565b60405180910390a2614488565b600061436b8284613d5f565b9050848114158061438757506314dc938061438584615180565b105b1561439b575050600160408301525061448b565b60608b015160405163015f109360e51b81526001600160a01b038c81166004830152602482018490528981166044830152888116606483015290911690632be2126090608401600060405180830381600087803b1580156143fb57600080fd5b505af115801561440f573d6000803e3d6000fd5b5050506001600160a01b038b1660009081526010602052604090208481556001018390555061443d8a612b6f565b506001600160a01b038a1660008181526010602052604090819020600201549051600080516020615c578339815191529161447e9187918791600390615b81565b60405180910390a2505b50505b979650505050505050565b6000806144a161468c565b905060006145b0600160009054906101000a90046001600160a01b03166001600160a01b031663ee2ec9706040518163ffffffff1660e01b8152600401602060405180830381865afa1580156144fb573d6000803e3d6000fd5b505050506040513d601f19601f8201168201806040525081019061451f9190615a2f565b60008054906101000a90046001600160a01b03166001600160a01b031663ee2ec9706040518163ffffffff1660e01b8152600401602060405180830381865afa158015614570573d6000803e3d6000fd5b505050506040513d601f19601f820116820180604052508101906145949190615a2f565b61459e9190615bbc565b610c6686670de0b6b3a7640000612937565b905060006145be8383613af1565b90506145d281670de0b6b3a7640000614eee565b600c8190556040518181529091507fbcd47f9685f1ffa254d0ac495b2e47d57feda8840e9d1f2a54d9d499650502a89060200160405180910390a161123f61518f565b6000610d156126ea6111ab565b600061463a83610c6686670de0b6b3a7640000612937565b9050818111156131b55760405162461bcd60e51b815260206004820152601d60248201527f4665652065786365656465642070726f7669646564206d6178696d756d0000006044820152606401610dbc565b6000806146976151e6565b905060006146ad670ddd4b8c6c7d70d883614f20565b90506118f9670de0b6b3a7640000610c6683600c5461293790919063ffffffff16565b60008160048111156146e4576146e4615834565b141580156147045750600181600481111561470157614701615834565b14155b61471057614710615b10565b60175461471c81615202565b6001600160a01b0383166000908152601060205260409020600301805483919060ff1916600183600481111561475457614754615834565b02179055506001600160a01b038316600090815260106020908152604080832060018082018590559084905560169092528220828155015561479683826152dc565b600b54604051631484968760e11b81526001600160a01b03909116906329092d0e906147c69086906004016156de565b600060405180830381600087803b1580156147e057600080fd5b505af11580156147f4573d6000803e3d6000fd5b50505050505050565b6000821561482857600061481f83610c66868189670de0b6b3a7640000612937565b91506129309050565b50600019612930565b60008061123f670de0b6b3a7640000610c668686612937565b6001600160a01b0381166000908152601060205260409020600201546011546148739082612924565b601155506001600160a01b0316600090815260106020526040812060020155565b604051633b4009ff60e11b8152600481018390526001600160a01b0384169063768013fe90602401600060405180830381600087803b1580156148d657600080fd5b505af11580156148ea573d6000803e3d6000fd5b505060405163262b890160e01b8152600481018590526001600160a01b038716925063262b89019150602401600060405180830381600087803b15801561493057600080fd5b505af1158015614944573d6000803e3d6000fd5b505060405163051eb59960e11b8152600481018490526001600160a01b0386169250630a3d6b3291506024016133aa565b600080601354600003614989575081610d15565b60006012541161499b5761499b615b10565b612930601354610c666012548661293790919063ffffffff16565b6149be615608565b6149e260405180606001604052806000815260200160008152602001600081525090565b6017546001106149f2575061448b565b6149fb87611eff565b60408501526020848101919091528401819052908352614a1a906154ac565b60408301819052620186a060608401526020830151614a3891612924565b8152670de0b6b3a76400008611614b0357614a5d898983602001518460400151614894565b614a668761484a565b60006080830181905260a0830152815160c0830152805160e0830152614a8d8760036146d0565b815160208301516040516001600160a01b038a1692600080516020615c3783398151915292614abe92600290615bf1565b60405180910390a2866001600160a01b0316600080516020615c5783398151915260008060006002604051614af69493929190615b81565b60405180910390a2614c9e565b670de0b6b3a764000086118015614b2157506714d1120d7b16000086105b15614b7157614b3a898983602001518460400151614894565b614b438761484a565b81518151614b529190876154b9565b60e086015260c085015260a08401526080830152614a8d8760036146d0565b6714d1120d7b1600008610158015614b8857508386105b8015614b95575081518510155b15614c8d57614bae898983602001518460400151614894565b84600003614bbe57614bbe615b10565b614bc78761484a565b614bda8260000151836020015185615513565b9150614be78760036146d0565b61010082015115614c5c57600754610100830151604051633f10abab60e01b81526001600160a01b0390921691633f10abab91614c29918b9190600401615a8a565b600060405180830381600087803b158015614c4357600080fd5b505af1158015614c57573d6000803e3d6000fd5b505050505b815160a08301516040516001600160a01b038a1692600080516020615c3783398151915292614abe92600290615bf1565b614c95615608565b915061448b9050565b50979650505050505050565b614cb2615608565b60408083015190840151614cc591613af1565b604082015260608083015190840151614cdd91613af1565b606082015281516020840151614cf291613af1565b6020808301919091528201518351614d0991613af1565b815260808083015190840151614d1e91613af1565b608082015260a08083015190840151614d3691613af1565b60a082015260c08083015190840151614d4e91613af1565b60c082015260e08083015190840151614d6691613af1565b60e08201526101008083015190840151614d7f91613af1565b61010082015292915050565b600080614d998585856147fd565b671bc16d674ec800001195945050505050565b614db4615608565b614dd860405180606001604052806000815260200160008152602001600081525090565b614de184611eff565b60408501908152602085810192835286019290925291845290519051614e0b918891889190614894565b614e148461484a565b614e2182602001516154ac565b60408301819052620186a060608401526020830151600091614e439190612924565b9050614e54836000015182866154b9565b60e087015260c086015260a08501526080840152614e738560036146d0565b825160208401516040516001600160a01b03881692600080516020615c3783398151915292614ea492600190615bf1565b60405180910390a2846001600160a01b0316600080516020615c5783398151915260008060006001604051614edc9493929190615b81565b60405180910390a25050949350505050565b6000818310614efd5781612930565b5090919050565b60006111b8603c610c66600f544261292490919063ffffffff16565b6000631f540500821115614f3657631f54050091505b81600003614f4d5750670de0b6b3a7640000610d15565b670de0b6b3a764000083835b6001811115614fba57614f6d600282615c0c565b600003614f9257614f7e82836155a7565b9150614f8b816002612943565b9050614f59565b614f9c82846155a7565b9250614fa882836155a7565b9150614f8b6002610c66836001612924565b610c6c82846155a7565b6040808501516006549151632770a7eb60e21b81526001600160a01b0391821692639dc29fac92614ffc929116908690600401615a8a565b600060405180830381600087803b15801561501657600080fd5b505af115801561502a573d6000803e3d6000fd5b50508551604051633b4009ff60e11b8152600481018690526001600160a01b03909116925063768013fe9150602401600060405180830381600087803b15801561507357600080fd5b505af1158015615087573d6000803e3d6000fd5b505060075460405162f9332d60e61b8152600481018590526001600160a01b039091169250633e4ccb409150602401600060405180830381600087803b1580156150d057600080fd5b505af11580156150e4573d6000803e3d6000fd5b5050505083608001516001600160a01b0316633f10abab84836040518363ffffffff1660e01b815260040161511a929190615a8a565b600060405180830381600087803b15801561513457600080fd5b505af1158015615148573d6000803e3d6000fd5b5050855160808701516040516316daab2160e01b81526001600160a01b0390921693506316daab2192506133aa918590600401615a8a565b6000610d1582620186a0612924565b60006151a6600e544261292490919063ffffffff16565b9050603c8110610c9b5742600e8190556040519081527fbab964312bdd13595266f3e549bca3102965a6d718c6c1f8cd7eaac076b9c6c290602001611e8c565b60006111b8603c610c66600e544261292490919063ffffffff16565b60018111801561527d5750600b546040805163de8fa43160e01b815290516001926001600160a01b03169163de8fa4319160048083019260209291908290030181865afa158015615257573d6000803e3d6000fd5b505050506040513d601f19601f8201168201806040525081019061527b9190615a2f565b115b610c9b5760405162461bcd60e51b815260206004820152602a60248201527f54726f76654d616e616765723a204f6e6c79206f6e652074726f766520696e206044820152697468652073797374656d60b01b6064820152608401610dbc565b6001600160a01b03821660009081526010602052604081206003015460ff169081600481111561530e5761530e615834565b1415801561532e5750600181600481111561532b5761532b615834565b14155b61533a5761533a615b10565b6001600160a01b03831660009081526010602052604081206003015461010090046001600160801b0316908390615372826001612924565b905080836001600160801b0316111561538d5761538d615b10565b6000601782815481106153a2576153a2615afa565b600091825260209091200154601780546001600160a01b03909216925082916001600160801b0387169081106153da576153da615afa565b600091825260208083209190910180546001600160a01b0319166001600160a01b03948516179055918316808252601083526040918290206003018054610100600160881b0319166101006001600160801b038a16908102919091179091558251918252928101929092527f02b04ae5f7be9ca7c103293a2aa15f3c339d15d6eda53b721fef7b0e609c831a910160405180910390a1601780548061548157615481615c20565b600082815260209020810160001990810180546001600160a01b031916905501905550505050505050565b6000610d1560c883615acf565b600080808084156154fd576154ce8786614eee565b93506154de87610c668887612937565b92506154ea8785612924565b91506154f68684612924565b905061550a565b5060009250829150859050845b93509350935093565b61551b615608565b83815260208101839052600061554f670de0b6b3a7640000610c6685615549896714d1120d7b160000612937565b90612937565b905061555a816154ac565b60408301819052620186a060608401526080830186905261557c908290612924565b60a083015261558b8482612924565b61010083015250600060c0820181905260e08201529392505050565b6000806155b48484612937565b905061123f670de0b6b3a7640000610c666155d0600283615acf565b8490613af1565b6040518060a00160405280600081526020016000815260200160001515815260200160008152602001600081525090565b6040518061012001604052806000815260200160008152602001600081526020016000815260200160008152602001600081526020016000815260200160008152602001600081525090565b6040518060e0016040528060008152602001600081526020016000815260200160006001600160a01b0316815260200160001515815260200160008152602001600081525090565b6001600160a01b0381168114610c9b57600080fd5b80356156bc8161569c565b919050565b6000602082840312156156d357600080fd5b81356129308161569c565b6001600160a01b0391909116815260200190565b6000806040838503121561570557600080fd5b82356157108161569c565b946020939093013593505050565b634e487b7160e01b600052604160045260246000fd5b6000602080838503121561574757600080fd5b823567ffffffffffffffff8082111561575f57600080fd5b818501915085601f83011261577357600080fd5b8135818111156157855761578561571e565b8060051b604051601f19603f830116810181811085821117156157aa576157aa61571e565b6040529182528482019250838101850191888311156157c857600080fd5b938501935b828510156157ed576157de856156b1565b845293850193928501926157cd565b98975050505050505050565b6000806040838503121561580c57600080fd5b50508035926020909101359150565b60006020828403121561582d57600080fd5b5035919050565b634e487b7160e01b600052602160045260246000fd5b868152602081018690526040810185905260c081016005851061586f5761586f615834565b60608201949094526001600160801b0392909216608083015260a0909101529392505050565b60008060008060008060008060008060006101608c8e0312156158b757600080fd5b8b356158c28161569c565b9a5060208c01356158d28161569c565b995060408c01356158e28161569c565b985060608c01356158f28161569c565b975060808c01356159028161569c565b965060a08c01356159128161569c565b955060c08c01356159228161569c565b945060e08c01356159328161569c565b93506101008c01356159438161569c565b92506159526101208d016156b1565b91506159616101408d016156b1565b90509295989b509295989b9093969950565b600060208083528351808285015260005b818110156159a057858101830151858201604001528201615984565b506000604082860101526040601f19601f8301168501019250505092915050565b600080600080600080600060e0888a0312156159dc57600080fd5b8735965060208801356159ee8161569c565b955060408801356159fe8161569c565b94506060880135615a0e8161569c565b9699959850939660808101359560a0820135955060c0909101359350915050565b600060208284031215615a4157600080fd5b5051919050565b60208082526022908201527f54726f76654d616e616765723a206e6f7468696e6720746f206c697175696461604082015261746560f01b606082015260800190565b6001600160a01b03929092168252602082015260400190565b634e487b7160e01b600052601260045260246000fd5b634e487b7160e01b600052601160045260246000fd5b600082615ade57615ade615aa3565b500490565b8082028115828204841417610d1557610d15615ab9565b634e487b7160e01b600052603260045260246000fd5b634e487b7160e01b600052600160045260246000fd5b81810381811115610d1557610d15615ab9565b600060208284031215615b4b57600080fd5b81516129308161569c565b600081615b6557615b65615ab9565b506000190190565b60048110615b7d57615b7d615834565b9052565b848152602081018490526040810183905260808101611edd6060830184615b6d565b600060018201615bb557615bb5615ab9565b5060010190565b80820180821115610d1557610d15615ab9565b600060208284031215615be157600080fd5b8151801515811461293057600080fd5b838152602081018390526060810161123f6040830184615b6d565b600082615c1b57615c1b615aa3565b500690565b634e487b7160e01b600052603160045260246000fdfeea67486ed7ebe3eea8ab3390efd4a3c8aae48be5bea27df104a8af786c408434c3770d654ed33aeea6bf11ac8ef05d02a6a04ed4686dd2f624d853bbec43cc8ba264697066735822122000e97980e1c99b747b04f827a1bcb164686bd7483c5910d1eb7f1cfbdcb56fd964736f6c63430008130033",
  "devdoc": {
    "kind": "dev",
    "methods": {
      "owner()": {
        "details": "Returns the address of the current owner."
      },
      "renounceOwnership()": {
        "details": "Leaves the contract without owner. It will not be possible to call `onlyOwner` functions. Can only be called by the current owner. NOTE: Renouncing ownership will leave the contract without an owner, thereby disabling any functionality that is only available to the owner."
      },
      "transferOwnership(address)": {
        "details": "Transfers ownership of the contract to a new account (`newOwner`). Can only be called by the current owner."
      }
    },
    "version": 1
  },
  "userdoc": {
    "kind": "user",
    "methods": {
      "checkUnreliableRecoveryMode()": {
        "notice": "HEDGEHOG UPDATES: New view method to help with getting the data on frontends"
      },
      "getCurrentICR(address,uint256)": {
        "notice": "HEDGEHOG UPDATES: Get Price directly from the price feed instead of param passing"
      },
      "getUnreliableTCR()": {
        "notice": "HEDGEHOG UPDATES: New view method to help with getting the data on frontends"
      },
      "getUnreliableTroveICR(address)": {
        "notice": "HEDGEHOG UPDATES: New view method to help with getting the data on frontends"
      }
    },
    "notice": "Fork of Liquity's TroveManager. Most of the Logic remains unchanged. Changes to the contract: - Raised pragma version - Removed an import of ActivePool Interface - Logic updates with redemption & borrowing fees calculation and their distribution Even though SafeMath is no longer required, the decision was made to keep it to avoid human factor errors",
    "version": 1
  },
  "storageLayout": {
    "storage": [
      {
        "astId": 19723,
        "contract": "contracts/TroveManager.sol:TroveManager",
        "label": "activePool",
        "offset": 0,
        "slot": "0",
        "type": "t_contract(IActivePool)20674"
      },
      {
        "astId": 19726,
        "contract": "contracts/TroveManager.sol:TroveManager",
        "label": "defaultPool",
        "offset": 0,
        "slot": "1",
        "type": "t_contract(IDefaultPool)21082"
      },
      {
        "astId": 19730,
        "contract": "contracts/TroveManager.sol:TroveManager",
        "label": "priceFeed",
        "offset": 0,
        "slot": "2",
        "type": "t_contract(IPriceFeed)21216"
      },
      {
        "astId": 396,
        "contract": "contracts/TroveManager.sol:TroveManager",
        "label": "_owner",
        "offset": 0,
        "slot": "3",
        "type": "t_address"
      },
      {
        "astId": 14599,
        "contract": "contracts/TroveManager.sol:TroveManager",
        "label": "borrowerOperationsAddress",
        "offset": 0,
        "slot": "4",
        "type": "t_address"
      },
      {
        "astId": 14602,
        "contract": "contracts/TroveManager.sol:TroveManager",
        "label": "stabilityPool",
        "offset": 0,
        "slot": "5",
        "type": "t_contract(IStabilityPool)21521"
      },
      {
        "astId": 14604,
        "contract": "contracts/TroveManager.sol:TroveManager",
        "label": "gasPoolAddress",
        "offset": 0,
        "slot": "6",
        "type": "t_address"
      },
      {
        "astId": 14607,
        "contract": "contracts/TroveManager.sol:TroveManager",
        "label": "collSurplusPool",
        "offset": 0,
        "slot": "7",
        "type": "t_contract(ICollSurplusPool)21020"
      },
      {
        "astId": 14610,
        "contract": "contracts/TroveManager.sol:TroveManager",
        "label": "baseFeeLMAToken",
        "offset": 0,
        "slot": "8",
        "type": "t_contract(IBaseFeeLMAToken)20738"
      },
      {
        "astId": 14613,
        "contract": "contracts/TroveManager.sol:TroveManager",
        "label": "hogToken",
        "offset": 0,
        "slot": "9",
        "type": "t_contract(IHOGToken)21140"
      },
      {
        "astId": 14616,
        "contract": "contracts/TroveManager.sol:TroveManager",
        "label": "feesRouter",
        "offset": 0,
        "slot": "10",
        "type": "t_contract(IFeesRouter)21099"
      },
      {
        "astId": 14619,
        "contract": "contracts/TroveManager.sol:TroveManager",
        "label": "sortedTroves",
        "offset": 0,
        "slot": "11",
        "type": "t_contract(ISortedTroves)21348"
      },
      {
        "astId": 14648,
        "contract": "contracts/TroveManager.sol:TroveManager",
        "label": "redemptionBaseRate",
        "offset": 0,
        "slot": "12",
        "type": "t_uint256"
      },
      {
        "astId": 14650,
        "contract": "contracts/TroveManager.sol:TroveManager",
        "label": "borrowBaseRate",
        "offset": 0,
        "slot": "13",
        "type": "t_uint256"
      },
      {
        "astId": 14652,
        "contract": "contracts/TroveManager.sol:TroveManager",
        "label": "lastRedemptionTime",
        "offset": 0,
        "slot": "14",
        "type": "t_uint256"
      },
      {
        "astId": 14654,
        "contract": "contracts/TroveManager.sol:TroveManager",
        "label": "lastBorrowTime",
        "offset": 0,
        "slot": "15",
        "type": "t_uint256"
      },
      {
        "astId": 14679,
        "contract": "contracts/TroveManager.sol:TroveManager",
        "label": "Troves",
        "offset": 0,
        "slot": "16",
        "type": "t_mapping(t_address,t_struct(Trove)14674_storage)"
      },
      {
        "astId": 14681,
        "contract": "contracts/TroveManager.sol:TroveManager",
        "label": "totalStakes",
        "offset": 0,
        "slot": "17",
        "type": "t_uint256"
      },
      {
        "astId": 14683,
        "contract": "contracts/TroveManager.sol:TroveManager",
        "label": "totalStakesSnapshot",
        "offset": 0,
        "slot": "18",
        "type": "t_uint256"
      },
      {
        "astId": 14685,
        "contract": "contracts/TroveManager.sol:TroveManager",
        "label": "totalCollateralSnapshot",
        "offset": 0,
        "slot": "19",
        "type": "t_uint256"
      },
      {
        "astId": 14687,
        "contract": "contracts/TroveManager.sol:TroveManager",
        "label": "L_WStETH",
        "offset": 0,
        "slot": "20",
        "type": "t_uint256"
      },
      {
        "astId": 14689,
        "contract": "contracts/TroveManager.sol:TroveManager",
        "label": "L_BaseFeeLMADebt",
        "offset": 0,
        "slot": "21",
        "type": "t_uint256"
      },
      {
        "astId": 14694,
        "contract": "contracts/TroveManager.sol:TroveManager",
        "label": "rewardSnapshots",
        "offset": 0,
        "slot": "22",
        "type": "t_mapping(t_address,t_struct(RewardSnapshot)14699_storage)"
      },
      {
        "astId": 14702,
        "contract": "contracts/TroveManager.sol:TroveManager",
        "label": "TroveOwners",
        "offset": 0,
        "slot": "23",
        "type": "t_array(t_address)dyn_storage"
      },
      {
        "astId": 14704,
        "contract": "contracts/TroveManager.sol:TroveManager",
        "label": "lastWStETHError_Redistribution",
        "offset": 0,
        "slot": "24",
        "type": "t_uint256"
      },
      {
        "astId": 14706,
        "contract": "contracts/TroveManager.sol:TroveManager",
        "label": "lastBaseFeeLMADebtError_Redistribution",
        "offset": 0,
        "slot": "25",
        "type": "t_uint256"
      }
    ],
    "types": {
      "t_address": {
        "encoding": "inplace",
        "label": "address",
        "numberOfBytes": "20"
      },
      "t_array(t_address)dyn_storage": {
        "base": "t_address",
        "encoding": "dynamic_array",
        "label": "address[]",
        "numberOfBytes": "32"
      },
      "t_contract(IActivePool)20674": {
        "encoding": "inplace",
        "label": "contract IActivePool",
        "numberOfBytes": "20"
      },
      "t_contract(IBaseFeeLMAToken)20738": {
        "encoding": "inplace",
        "label": "contract IBaseFeeLMAToken",
        "numberOfBytes": "20"
      },
      "t_contract(ICollSurplusPool)21020": {
        "encoding": "inplace",
        "label": "contract ICollSurplusPool",
        "numberOfBytes": "20"
      },
      "t_contract(IDefaultPool)21082": {
        "encoding": "inplace",
        "label": "contract IDefaultPool",
        "numberOfBytes": "20"
      },
      "t_contract(IFeesRouter)21099": {
        "encoding": "inplace",
        "label": "contract IFeesRouter",
        "numberOfBytes": "20"
      },
      "t_contract(IHOGToken)21140": {
        "encoding": "inplace",
        "label": "contract IHOGToken",
        "numberOfBytes": "20"
      },
      "t_contract(IPriceFeed)21216": {
        "encoding": "inplace",
        "label": "contract IPriceFeed",
        "numberOfBytes": "20"
      },
      "t_contract(ISortedTroves)21348": {
        "encoding": "inplace",
        "label": "contract ISortedTroves",
        "numberOfBytes": "20"
      },
      "t_contract(IStabilityPool)21521": {
        "encoding": "inplace",
        "label": "contract IStabilityPool",
        "numberOfBytes": "20"
      },
      "t_enum(Status)14660": {
        "encoding": "inplace",
        "label": "enum TroveManager.Status",
        "numberOfBytes": "1"
      },
      "t_mapping(t_address,t_struct(RewardSnapshot)14699_storage)": {
        "encoding": "mapping",
        "key": "t_address",
        "label": "mapping(address => struct TroveManager.RewardSnapshot)",
        "numberOfBytes": "32",
        "value": "t_struct(RewardSnapshot)14699_storage"
      },
      "t_mapping(t_address,t_struct(Trove)14674_storage)": {
        "encoding": "mapping",
        "key": "t_address",
        "label": "mapping(address => struct TroveManager.Trove)",
        "numberOfBytes": "32",
        "value": "t_struct(Trove)14674_storage"
      },
      "t_struct(RewardSnapshot)14699_storage": {
        "encoding": "inplace",
        "label": "struct TroveManager.RewardSnapshot",
        "members": [
          {
            "astId": 14696,
            "contract": "contracts/TroveManager.sol:TroveManager",
            "label": "WStETH",
            "offset": 0,
            "slot": "0",
            "type": "t_uint256"
          },
          {
            "astId": 14698,
            "contract": "contracts/TroveManager.sol:TroveManager",
            "label": "BaseFeeLMADebt",
            "offset": 0,
            "slot": "1",
            "type": "t_uint256"
          }
        ],
        "numberOfBytes": "64"
      },
      "t_struct(Trove)14674_storage": {
        "encoding": "inplace",
        "label": "struct TroveManager.Trove",
        "members": [
          {
            "astId": 14662,
            "contract": "contracts/TroveManager.sol:TroveManager",
            "label": "debt",
            "offset": 0,
            "slot": "0",
            "type": "t_uint256"
          },
          {
            "astId": 14664,
            "contract": "contracts/TroveManager.sol:TroveManager",
            "label": "coll",
            "offset": 0,
            "slot": "1",
            "type": "t_uint256"
          },
          {
            "astId": 14666,
            "contract": "contracts/TroveManager.sol:TroveManager",
            "label": "stake",
            "offset": 0,
            "slot": "2",
            "type": "t_uint256"
          },
          {
            "astId": 14669,
            "contract": "contracts/TroveManager.sol:TroveManager",
            "label": "status",
            "offset": 0,
            "slot": "3",
            "type": "t_enum(Status)14660"
          },
          {
            "astId": 14671,
            "contract": "contracts/TroveManager.sol:TroveManager",
            "label": "arrayIndex",
            "offset": 1,
            "slot": "3",
            "type": "t_uint128"
          },
          {
            "astId": 14673,
            "contract": "contracts/TroveManager.sol:TroveManager",
            "label": "lastBlockUpdated",
            "offset": 0,
            "slot": "4",
            "type": "t_uint256"
          }
        ],
        "numberOfBytes": "160"
      },
      "t_uint128": {
        "encoding": "inplace",
        "label": "uint128",
        "numberOfBytes": "16"
      },
      "t_uint256": {
        "encoding": "inplace",
        "label": "uint256",
        "numberOfBytes": "32"
      }
    }
  }
}