{
  "address": "0x6227708902A66c560710D67cD131aBEF659B5b38",
  "abi": [
    {
      "inputs": [],
      "name": "TroveAdjustedThisBlock",
      "type": "error"
    },
    {
      "anonymous": false,
      "inputs": [
        {
          "indexed": false,
          "internalType": "address",
          "name": "_activePoolAddress",
          "type": "address"
        }
      ],
      "name": "ActivePoolAddressChanged",
      "type": "event"
    },
    {
      "anonymous": false,
      "inputs": [
        {
          "indexed": true,
          "internalType": "address",
          "name": "_borrower",
          "type": "address"
        },
        {
          "indexed": false,
          "internalType": "uint256",
          "name": "_BaseFeeLMAFee",
          "type": "uint256"
        }
      ],
      "name": "BaseFeeLMABorrowingFeePaid",
      "type": "event"
    },
    {
      "anonymous": false,
      "inputs": [
        {
          "indexed": false,
          "internalType": "address",
          "name": "_BaseFeeLMATokenAddress",
          "type": "address"
        }
      ],
      "name": "BaseFeeLMATokenAddressChanged",
      "type": "event"
    },
    {
      "anonymous": false,
      "inputs": [
        {
          "indexed": false,
          "internalType": "address",
          "name": "_collSurplusPoolAddress",
          "type": "address"
        }
      ],
      "name": "CollSurplusPoolAddressChanged",
      "type": "event"
    },
    {
      "anonymous": false,
      "inputs": [
        {
          "indexed": false,
          "internalType": "address",
          "name": "_defaultPoolAddress",
          "type": "address"
        }
      ],
      "name": "DefaultPoolAddressChanged",
      "type": "event"
    },
    {
      "anonymous": false,
      "inputs": [
        {
          "indexed": false,
          "internalType": "contract IFeesRouter",
          "name": "_feesRouter",
          "type": "address"
        }
      ],
      "name": "FeesRouterAddressUpdated",
      "type": "event"
    },
    {
      "anonymous": false,
      "inputs": [
        {
          "indexed": false,
          "internalType": "address",
          "name": "_gasPoolAddress",
          "type": "address"
        }
      ],
      "name": "GasPoolAddressChanged",
      "type": "event"
    },
    {
      "anonymous": false,
      "inputs": [
        {
          "indexed": true,
          "internalType": "address",
          "name": "previousOwner",
          "type": "address"
        },
        {
          "indexed": true,
          "internalType": "address",
          "name": "newOwner",
          "type": "address"
        }
      ],
      "name": "OwnershipTransferred",
      "type": "event"
    },
    {
      "anonymous": false,
      "inputs": [
        {
          "indexed": false,
          "internalType": "address",
          "name": "_newPriceFeedAddress",
          "type": "address"
        }
      ],
      "name": "PriceFeedAddressChanged",
      "type": "event"
    },
    {
      "anonymous": false,
      "inputs": [
        {
          "indexed": false,
          "internalType": "address",
          "name": "_sortedTrovesAddress",
          "type": "address"
        }
      ],
      "name": "SortedTrovesAddressChanged",
      "type": "event"
    },
    {
      "anonymous": false,
      "inputs": [
        {
          "indexed": false,
          "internalType": "address",
          "name": "_stabilityPoolAddress",
          "type": "address"
        }
      ],
      "name": "StabilityPoolAddressChanged",
      "type": "event"
    },
    {
      "anonymous": false,
      "inputs": [
        {
          "indexed": true,
          "internalType": "address",
          "name": "_borrower",
          "type": "address"
        },
        {
          "indexed": false,
          "internalType": "uint256",
          "name": "arrayIndex",
          "type": "uint256"
        }
      ],
      "name": "TroveCreated",
      "type": "event"
    },
    {
      "anonymous": false,
      "inputs": [
        {
          "indexed": false,
          "internalType": "address",
          "name": "_newTroveManagerAddress",
          "type": "address"
        }
      ],
      "name": "TroveManagerAddressChanged",
      "type": "event"
    },
    {
      "anonymous": false,
      "inputs": [
        {
          "indexed": true,
          "internalType": "address",
          "name": "_borrower",
          "type": "address"
        },
        {
          "indexed": false,
          "internalType": "uint256",
          "name": "_debt",
          "type": "uint256"
        },
        {
          "indexed": false,
          "internalType": "uint256",
          "name": "_coll",
          "type": "uint256"
        },
        {
          "indexed": false,
          "internalType": "uint256",
          "name": "stake",
          "type": "uint256"
        },
        {
          "indexed": false,
          "internalType": "enum BorrowerOperations.BorrowerOperation",
          "name": "operation",
          "type": "uint8"
        }
      ],
      "name": "TroveUpdated",
      "type": "event"
    },
    {
      "anonymous": false,
      "inputs": [
        {
          "indexed": false,
          "internalType": "contract IERC20",
          "name": "_WStEthAddress",
          "type": "address"
        }
      ],
      "name": "WStETHTokenAddressUpdated",
      "type": "event"
    },
    {
      "inputs": [],
      "name": "BORROWING_FEE_FLOOR",
      "outputs": [
        {
          "internalType": "uint256",
          "name": "",
          "type": "uint256"
        }
      ],
      "stateMutability": "view",
      "type": "function"
    },
    {
      "inputs": [],
      "name": "BaseFeeLMA_GAS_COMPENSATION",
      "outputs": [
        {
          "internalType": "uint256",
          "name": "",
          "type": "uint256"
        }
      ],
      "stateMutability": "view",
      "type": "function"
    },
    {
      "inputs": [],
      "name": "CCR",
      "outputs": [
        {
          "internalType": "uint256",
          "name": "",
          "type": "uint256"
        }
      ],
      "stateMutability": "view",
      "type": "function"
    },
    {
      "inputs": [],
      "name": "DECIMAL_PRECISION",
      "outputs": [
        {
          "internalType": "uint256",
          "name": "",
          "type": "uint256"
        }
      ],
      "stateMutability": "view",
      "type": "function"
    },
    {
      "inputs": [],
      "name": "MCR",
      "outputs": [
        {
          "internalType": "uint256",
          "name": "",
          "type": "uint256"
        }
      ],
      "stateMutability": "view",
      "type": "function"
    },
    {
      "inputs": [],
      "name": "MIN_NET_DEBT",
      "outputs": [
        {
          "internalType": "uint256",
          "name": "",
          "type": "uint256"
        }
      ],
      "stateMutability": "view",
      "type": "function"
    },
    {
      "inputs": [],
      "name": "NAME",
      "outputs": [
        {
          "internalType": "string",
          "name": "",
          "type": "string"
        }
      ],
      "stateMutability": "view",
      "type": "function"
    },
    {
      "inputs": [],
      "name": "PERCENT_DIVISOR",
      "outputs": [
        {
          "internalType": "uint256",
          "name": "",
          "type": "uint256"
        }
      ],
      "stateMutability": "view",
      "type": "function"
    },
    {
      "inputs": [],
      "name": "_100pct",
      "outputs": [
        {
          "internalType": "uint256",
          "name": "",
          "type": "uint256"
        }
      ],
      "stateMutability": "view",
      "type": "function"
    },
    {
      "inputs": [],
      "name": "activePool",
      "outputs": [
        {
          "internalType": "contract IActivePool",
          "name": "",
          "type": "address"
        }
      ],
      "stateMutability": "view",
      "type": "function"
    },
    {
      "inputs": [
        {
          "internalType": "address",
          "name": "_upperHint",
          "type": "address"
        },
        {
          "internalType": "address",
          "name": "_lowerHint",
          "type": "address"
        },
        {
          "internalType": "uint256",
          "name": "_amount",
          "type": "uint256"
        }
      ],
      "name": "addColl",
      "outputs": [],
      "stateMutability": "nonpayable",
      "type": "function"
    },
    {
      "inputs": [
        {
          "internalType": "uint256",
          "name": "_maxFeePercentage",
          "type": "uint256"
        },
        {
          "internalType": "uint256",
          "name": "_collWithdrawal",
          "type": "uint256"
        },
        {
          "internalType": "uint256",
          "name": "_collIncrease",
          "type": "uint256"
        },
        {
          "internalType": "uint256",
          "name": "_BaseFeeLMAChange",
          "type": "uint256"
        },
        {
          "internalType": "bool",
          "name": "_isDebtIncrease",
          "type": "bool"
        },
        {
          "internalType": "address",
          "name": "_upperHint",
          "type": "address"
        },
        {
          "internalType": "address",
          "name": "_lowerHint",
          "type": "address"
        }
      ],
      "name": "adjustTrove",
      "outputs": [],
      "stateMutability": "nonpayable",
      "type": "function"
    },
    {
      "inputs": [],
      "name": "claimCollateral",
      "outputs": [],
      "stateMutability": "nonpayable",
      "type": "function"
    },
    {
      "inputs": [],
      "name": "closeTrove",
      "outputs": [],
      "stateMutability": "nonpayable",
      "type": "function"
    },
    {
      "inputs": [
        {
          "internalType": "uint256",
          "name": "_coll",
          "type": "uint256"
        },
        {
          "internalType": "uint256",
          "name": "_debt",
          "type": "uint256"
        }
      ],
      "name": "computeUnreliableCR",
      "outputs": [
        {
          "internalType": "uint256",
          "name": "",
          "type": "uint256"
        }
      ],
      "stateMutability": "view",
      "type": "function"
    },
    {
      "inputs": [],
      "name": "defaultPool",
      "outputs": [
        {
          "internalType": "contract IDefaultPool",
          "name": "",
          "type": "address"
        }
      ],
      "stateMutability": "view",
      "type": "function"
    },
    {
      "inputs": [],
      "name": "feesRouter",
      "outputs": [
        {
          "internalType": "contract IFeesRouter",
          "name": "",
          "type": "address"
        }
      ],
      "stateMutability": "view",
      "type": "function"
    },
    {
      "inputs": [
        {
          "internalType": "uint256",
          "name": "_debt",
          "type": "uint256"
        }
      ],
      "name": "getCompositeDebt",
      "outputs": [
        {
          "internalType": "uint256",
          "name": "",
          "type": "uint256"
        }
      ],
      "stateMutability": "pure",
      "type": "function"
    },
    {
      "inputs": [],
      "name": "getEntireSystemColl",
      "outputs": [
        {
          "internalType": "uint256",
          "name": "entireSystemColl",
          "type": "uint256"
        }
      ],
      "stateMutability": "view",
      "type": "function"
    },
    {
      "inputs": [],
      "name": "getEntireSystemDebt",
      "outputs": [
        {
          "internalType": "uint256",
          "name": "entireSystemDebt",
          "type": "uint256"
        }
      ],
      "stateMutability": "view",
      "type": "function"
    },
    {
      "inputs": [
        {
          "internalType": "address",
          "name": "_borrower",
          "type": "address"
        },
        {
          "internalType": "address",
          "name": "_upperHint",
          "type": "address"
        },
        {
          "internalType": "address",
          "name": "_lowerHint",
          "type": "address"
        },
        {
          "internalType": "uint256",
          "name": "_amount",
          "type": "uint256"
        }
      ],
      "name": "moveWStETHGainToTrove",
      "outputs": [],
      "stateMutability": "nonpayable",
      "type": "function"
    },
    {
      "inputs": [
        {
          "internalType": "uint256",
          "name": "_maxFeePercentage",
          "type": "uint256"
        },
        {
          "internalType": "uint256",
          "name": "_BaseFeeLMAAmount",
          "type": "uint256"
        },
        {
          "internalType": "uint256",
          "name": "_collAmount",
          "type": "uint256"
        },
        {
          "internalType": "address",
          "name": "_upperHint",
          "type": "address"
        },
        {
          "internalType": "address",
          "name": "_lowerHint",
          "type": "address"
        }
      ],
      "name": "openTrove",
      "outputs": [],
      "stateMutability": "nonpayable",
      "type": "function"
    },
    {
      "inputs": [],
      "name": "owner",
      "outputs": [
        {
          "internalType": "address",
          "name": "",
          "type": "address"
        }
      ],
      "stateMutability": "view",
      "type": "function"
    },
    {
      "inputs": [],
      "name": "priceFeed",
      "outputs": [
        {
          "internalType": "contract IPriceFeed",
          "name": "",
          "type": "address"
        }
      ],
      "stateMutability": "view",
      "type": "function"
    },
    {
      "inputs": [],
      "name": "renounceOwnership",
      "outputs": [],
      "stateMutability": "nonpayable",
      "type": "function"
    },
    {
      "inputs": [
        {
          "internalType": "uint256",
          "name": "_BaseFeeLMAAmount",
          "type": "uint256"
        },
        {
          "internalType": "address",
          "name": "_upperHint",
          "type": "address"
        },
        {
          "internalType": "address",
          "name": "_lowerHint",
          "type": "address"
        }
      ],
      "name": "repayBaseFeeLMA",
      "outputs": [],
      "stateMutability": "nonpayable",
      "type": "function"
    },
    {
      "inputs": [
        {
          "internalType": "address",
          "name": "_troveManagerAddress",
          "type": "address"
        },
        {
          "internalType": "address",
          "name": "_activePoolAddress",
          "type": "address"
        },
        {
          "internalType": "address",
          "name": "_defaultPoolAddress",
          "type": "address"
        },
        {
          "internalType": "address",
          "name": "_stabilityPoolAddress",
          "type": "address"
        },
        {
          "internalType": "address",
          "name": "_gasPoolAddress",
          "type": "address"
        },
        {
          "internalType": "address",
          "name": "_collSurplusPoolAddress",
          "type": "address"
        },
        {
          "internalType": "address",
          "name": "_priceFeedAddress",
          "type": "address"
        },
        {
          "internalType": "address",
          "name": "_sortedTrovesAddress",
          "type": "address"
        },
        {
          "internalType": "address",
          "name": "_baseFeeLMATokenAddress",
          "type": "address"
        },
        {
          "internalType": "contract IERC20",
          "name": "_wStETHTokenAddress",
          "type": "address"
        },
        {
          "internalType": "contract IFeesRouter",
          "name": "_feesRouter",
          "type": "address"
        }
      ],
      "name": "setAddresses",
      "outputs": [],
      "stateMutability": "nonpayable",
      "type": "function"
    },
    {
      "inputs": [],
      "name": "sortedTroves",
      "outputs": [
        {
          "internalType": "contract ISortedTroves",
          "name": "",
          "type": "address"
        }
      ],
      "stateMutability": "view",
      "type": "function"
    },
    {
      "inputs": [
        {
          "internalType": "address",
          "name": "newOwner",
          "type": "address"
        }
      ],
      "name": "transferOwnership",
      "outputs": [],
      "stateMutability": "nonpayable",
      "type": "function"
    },
    {
      "inputs": [],
      "name": "troveManager",
      "outputs": [
        {
          "internalType": "contract ITroveManager",
          "name": "",
          "type": "address"
        }
      ],
      "stateMutability": "view",
      "type": "function"
    },
    {
      "inputs": [
        {
          "internalType": "uint256",
          "name": "_maxFeePercentage",
          "type": "uint256"
        },
        {
          "internalType": "uint256",
          "name": "_BaseFeeLMAAmount",
          "type": "uint256"
        },
        {
          "internalType": "address",
          "name": "_upperHint",
          "type": "address"
        },
        {
          "internalType": "address",
          "name": "_lowerHint",
          "type": "address"
        }
      ],
      "name": "withdrawBaseFeeLMA",
      "outputs": [],
      "stateMutability": "nonpayable",
      "type": "function"
    },
    {
      "inputs": [
        {
          "internalType": "uint256",
          "name": "_collWithdrawal",
          "type": "uint256"
        },
        {
          "internalType": "address",
          "name": "_upperHint",
          "type": "address"
        },
        {
          "internalType": "address",
          "name": "_lowerHint",
          "type": "address"
        }
      ],
      "name": "withdrawColl",
      "outputs": [],
      "stateMutability": "nonpayable",
      "type": "function"
    }
  ],
  "transactionHash": "0xffa27c4b1c05793d82bd3bf4365a3aaf1aba82ecf687f406f0d336795d4f9d6a",
  "args": [],
  "numDeployments": 1,
  "solcInputHash": "61e630a64d2162380eb832e183d72c0c",
  "bytecode": "0x60806040523480156200001157600080fd5b506200001d3362000023565b62000075565b600380546001600160a01b038381166001600160a01b0319831681179093556040519116919082907f8be0079c531659141344cd1fd0a4f28419497f9722a3daafe3b4186f6b6457e090600090a35050565b6138c980620000856000396000f3fe608060405234801561001057600080fd5b50600436106101b05760003560e01c8063794e5724116100ef578063a201415211610092578063a20141521461034e578063a20baee6146102b0578063a3f4df7e1461035f578063ae9187541461039d578063b8a106da146103b0578063c42dab99146103c3578063f2fde38b146103d6578063f92d3433146103e957600080fd5b8063794e5724146102d2578063795d26c3146102e15780637985c5e4146102e95780637e88d408146102fc5780637f7dde4a1461030f578063887105d3146103225780638da5cb5b1461032a5780638f09162b1461033b57600080fd5b80635530273c116101575780635530273c146102585780635733d58f1461026b5780635da8b1c31461027a57806360a8b10f1461028d5780636f0b0c1c146102a0578063715018a6146102a857806372fe25aa146102b0578063741bef1a146102bf57600080fd5b80630e704d50146101b557806317138bdb146101bf5780631bf43555146101e55780633cc74225146101f75780633d83908a1461021757806347a6e7131461022a5780634870dd9a1461023d5780634ff8144314610245575b600080fd5b6101bd6103f1565b005b6101d26101cd3660046132ed565b6107b3565b6040519081526020015b60405180910390f35b6101d26a295be96e6406697200000081565b60015461020a906001600160a01b031681565b6040516101dc919061330f565b60045461020a906001600160a01b031681565b6101bd610238366004613348565b610844565b6101d260c881565b6101d261025336600461338a565b61085c565b6101bd610266366004613348565b610867565b6101d2671bc16d674ec8000081565b6101bd6102883660046133b1565b61087a565b6101bd61029b366004613423565b610893565b6101bd6108dd565b6101bd61093b565b6101d2670de0b6b3a764000081565b60025461020a906001600160a01b031681565b6101d26714d1120d7b16000081565b6101d261094f565b6101bd6102f7366004613474565b610a4b565b6101bd61030a366004613552565b610dba565b60005461020a906001600160a01b031681565b6101d2610ded565b6003546001600160a01b031661020a565b6101bd610349366004613593565b610eb2565b6101d269152d02c7e14af680000081565b61039060405180604001604052806012815260200171426f72726f7765724f7065726174696f6e7360701b81525081565b6040516101dc919061360d565b600b5461020a906001600160a01b031681565b6101bd6103be366004613640565b6114f2565b60095461020a906001600160a01b031681565b6101bd6103e436600461368a565b611504565b6101d261157d565b6103fa3361159f565b600454600054600a546001600160a01b0392831692918216911661041e8333611693565b60025460408051630fdb11cf60e01b815290516000926001600160a01b031691630fdb11cf916004808301926020929190829003018187875af1158015610469573d6000803e3d6000fd5b505050506040513d601f19601f8201168201806040525081019061048d91906136a7565b90506104988161176c565b604051630b07655760e01b81526001600160a01b03851690630b076557906104c490339060040161330f565b600060405180830381600087803b1580156104de57600080fd5b505af11580156104f2573d6000803e3d6000fd5b50506040516309019aaf60e31b8152600092506001600160a01b038716915063480cd5789061052590339060040161330f565b602060405180830381865afa158015610542573d6000803e3d6000fd5b505050506040513d601f19601f8201168201806040525081019061056691906136a7565b90506000856001600160a01b031663d66a2553336040518263ffffffff1660e01b8152600401610596919061330f565b602060405180830381865afa1580156105b3573d6000803e3d6000fd5b505050506040513d601f19601f820116820180604052508101906105d791906136a7565b90506105f784336105f28469152d02c7e14af68000006117e4565b6117f7565b6000610608836000846000886118e6565b90506106138161195b565b604051631fc5750960e31b81526001600160a01b0388169063fe2ba8489061063f90339060040161330f565b600060405180830381600087803b15801561065957600080fd5b505af115801561066d573d6000803e3d6000fd5b50506040516365e89c5760e11b81526001600160a01b038a16925063cbd138ae915061069d90339060040161330f565b600060405180830381600087803b1580156106b757600080fd5b505af11580156106cb573d6000803e3d6000fd5b50505050336001600160a01b0316600080516020613874833981519152600080600060016040516106ff94939291906136e2565b60405180910390a26107268686336107218669152d02c7e14af68000006117e4565b6119eb565b60065461074a90879087906001600160a01b031669152d02c7e14af68000006119eb565b6040516316daab2160e01b81526001600160a01b038716906316daab21906107789033908790600401613704565b600060405180830381600087803b15801561079257600080fd5b505af11580156107a6573d6000803e3d6000fd5b5050505050505050505050565b600080600260009054906101000a90046001600160a01b03166001600160a01b0316630490be836040518163ffffffff1660e01b8152600401602060405180830381865afa158015610809573d6000803e3d6000fd5b505050506040513d601f19601f8201168201806040525081019061082d91906136a7565b905061083a848483611aab565b9150505b92915050565b6108573360008086600087876000611af1565b505050565b600061083e826120bc565b6108573384600080600087876000611af1565b61088a338787878787878e611af1565b50505050505050565b600081116108bc5760405162461bcd60e51b81526004016108b39061371d565b60405180910390fd5b6108c46120d2565b6108d78460008360008088886000611af1565b50505050565b60085460405163b32beb5b60e01b81526001600160a01b039091169063b32beb5b9061090d90339060040161330f565b600060405180830381600087803b15801561092757600080fd5b505af11580156108d7573d6000803e3d6000fd5b61094361213e565b61094d6000612198565b565b60008054604080516315b3137b60e21b8152905183926001600160a01b0316916356cc4dec9160048083019260209291908290030181865afa158015610999573d6000803e3d6000fd5b505050506040513d601f19601f820116820180604052508101906109bd91906136a7565b90506000600160009054906101000a90046001600160a01b03166001600160a01b03166356cc4dec6040518163ffffffff1660e01b8152600401602060405180830381865afa158015610a14573d6000803e3d6000fd5b505050506040513d601f19601f82011682018060405250810190610a3891906136a7565b9050610a4482826121ea565b9250505090565b610a5361213e565b610a5c8b6121f6565b610a658a6121f6565b610a6e896121f6565b610a77886121f6565b610a80876121f6565b610a89866121f6565b610a92856121f6565b610a9b846121f6565b610aa4836121f6565b610aad826121f6565b610ab6816121f6565b600480546001600160a01b03199081166001600160a01b038e8116919091179092556000805482168d84161790556001805482168c84161790556005805482168b84161790556006805482168a8416179055600880548216898416179055600280548216888416179055600b80548216878416179055600a80548216868416179055600780548216858416179055600980549091169183169190911790556040517f143219c9e69b09e07e095fcc889b43d8f46ca892bba65f08dc3a0050869a567890610b84908d9061330f565b60405180910390a17f78f058b189175430c48dc02699e3a0031ea4ff781536dc2fab847de4babdd8828a604051610bbb919061330f565b60405180910390a17f5ee0cae2f063ed938bb55046f6a932fb6ae792bf43624806bb90abe68a50be9b89604051610bf2919061330f565b60405180910390a17f82966d27eea39b038ee0fa30cd16532bb24f6e65d31cb58fb227aa5766cdcc7f88604051610c29919061330f565b60405180910390a17fcfb07d791fcafc032b35837b50eb84b74df518cf4cc287e8084f47630fa70fa087604051610c60919061330f565b60405180910390a17fe67f36a6e961157d6eff83b91f3af5a62131ceb6f04954ef74f51c1c05e7f88d86604051610c97919061330f565b60405180910390a17f8c537274438aa850a330284665d81a85dd38267d09e4050d416bfc94142db26485604051610cce919061330f565b60405180910390a17f65f4cf077bc01e4742eb5ad98326f6e95b63548ea24b17f8d5e823111fe7880084604051610d05919061330f565b60405180910390a17f7faa560f2889840c377209fbc4b6b92d05f43f1fc60bf336ab546fd60c0051ad83604051610d3c919061330f565b60405180910390a17fa10b18a97e87c5b49c90aaeba95303db140aa131ee9cbdb946ffce5b50ccf16482604051610d73919061330f565b60405180910390a17f6877e00d9059f8716bd795b5d4c2c89a4bc3cef71ba3dd99b168ac9cc1f2a6c281604051610daa919061330f565b60405180910390a16107a661093b565b60008111610dda5760405162461bcd60e51b81526004016108b39061371d565b6108573360008360008088886000611af1565b6000805460408051630ee2ec9760e41b8152905183926001600160a01b03169163ee2ec9709160048083019260209291908290030181865afa158015610e37573d6000803e3d6000fd5b505050506040513d601f19601f82011682018060405250810190610e5b91906136a7565b90506000600160009054906101000a90046001600160a01b03166001600160a01b031663ee2ec9706040518163ffffffff1660e01b8152600401602060405180830381865afa158015610a14573d6000803e3d6000fd5b610ebb3361159f565b6040805160608082018352600480546001600160a01b039081168452600080548216602080870191909152600a548316868801528651610100810188528281528082018390528088018390529485018290526080850182905260a0850182905260c0850182905260e085018290526002548751630fdb11cf60e01b8152975196979596931694630fdb11cf948181019492939183900301908290875af1158015610f69573d6000803e3d6000fd5b505050506040513d601f19601f82011682018060405250810190610f8d91906136a7565b808252600090610f9c9061229f565b9050610fa888826122bc565b8251610fb490336123d0565b604082018790528251610fc890888a612492565b60208301526040820151610fdb90612632565b610fe882604001516120bc565b60608301819052610ffb57610ffb613760565b61100e8683606001518460000151611aab565b608083015260608201516110239087906126b3565b60a083015280156110405761103b82608001516126e2565b611073565b61104d826080015161275a565b60006110668760018560600151600187600001516118e6565b90506110718161195b565b505b8251604051635d6b480f60e01b81526001600160a01b0390911690635d6b480f906110a5903390600190600401613704565b600060405180830381600087803b1580156110bf57600080fd5b505af11580156110d3573d6000803e3d6000fd5b505084516040516372423c1760e01b81526001600160a01b0390911692506372423c1791506111089033908a90600401613704565b6020604051808303816000875af1158015611127573d6000803e3d6000fd5b505050506040513d601f19601f8201168201806040525081019061114b91906136a7565b5082516060830151604051639976cf4560e01b81526001600160a01b0390921691639976cf459161118191339190600401613704565b6020604051808303816000875af11580156111a0573d6000803e3d6000fd5b505050506040513d601f19601f820116820180604052508101906111c491906136a7565b5082516040516382fe3eb960e01b81526001600160a01b03909116906382fe3eb9906111f490339060040161330f565b600060405180830381600087803b15801561120e57600080fd5b505af1158015611222573d6000803e3d6000fd5b50508451604051630c7940bd60e11b81526001600160a01b0390911692506318f2817a915061125590339060040161330f565b6020604051808303816000875af1158015611274573d6000803e3d6000fd5b505050506040513d601f19601f8201168201806040525081019061129891906136a7565b60c0830152600b5460a08301516040516346f7cf8760e01b81526001600160a01b03909216916346f7cf87916112d7913391908a908a90600401613776565b600060405180830381600087803b1580156112f157600080fd5b505af1158015611305573d6000803e3d6000fd5b505084516040516315d549f160e01b81526001600160a01b0390911692506315d549f1915061133890339060040161330f565b6020604051808303816000875af1158015611357573d6000803e3d6000fd5b505050506040513d601f19601f8201168201806040525081019061137b91906136a7565b60e0830181905260405190815233907f59cfd0cd754bc5748b6770e94a4ffa5f678d885cb899dcfadc5734edb97c67ab9060200160405180910390a26113c58360200151876127ea565b69152d02c7e14af680000082602001516113df91906137b7565b87116114245760405162461bcd60e51b815260206004820152601460248201527321279d102332b29032bc31b2b2b2399033b0b4b760611b60448201526064016108b3565b61144c836020015184604001513385602001518b61144291906137ca565b8660400151612863565b602083015160408401516006546114799291906001600160a01b031669152d02c7e14af680000080612863565b606082015160c08301516040513392600080516020613874833981519152926114a7928b91906000906136e2565b60405180910390a260208083015160405190815233917f909ac017b31fd41edf1bf9a7ed7d4a7af4343fe034023db2d0220a77ba25e7ee910160405180910390a25050505050505050565b6108d73360008086600187878b611af1565b61150c61213e565b6001600160a01b0381166115715760405162461bcd60e51b815260206004820152602660248201527f4f776e61626c653a206e6577206f776e657220697320746865207a65726f206160448201526564647265737360d01b60648201526084016108b3565b61157a81612198565b50565b6115916103e8670de0b6b3a76400006137dd565b61159c9060056137ff565b81565b600480546040516320ca6cb360e11b815243926001600160a01b0390921691634194d966916115d09186910161330f565b602060405180830381865afa1580156115ed573d6000803e3d6000fd5b505050506040513d601f19601f8201168201806040525081019061161191906136a7565b0361162f576040516360a67ce360e01b815260040160405180910390fd5b6004805460405163acef5b8d60e01b81526001600160a01b039091169163acef5b8d9161165e9185910161330f565b600060405180830381600087803b15801561167857600080fd5b505af115801561168c573d6000803e3d6000fd5b5050505050565b6040516321e3780160e01b81526000906001600160a01b038416906321e37801906116c290859060040161330f565b602060405180830381865afa1580156116df573d6000803e3d6000fd5b505050506040513d601f19601f8201168201806040525081019061170391906136a7565b9050806001146108575760405162461bcd60e51b815260206004820152602e60248201527f426f72726f7765724f70733a2054726f766520646f6573206e6f74206578697360448201526d1d081bdc881a5cc818db1bdcd95960921b60648201526084016108b3565b6117758161229f565b1561157a5760405162461bcd60e51b815260206004820152603960248201527f426f72726f7765724f70733a204f7065726174696f6e206e6f74207065726d696044820152787474656420647572696e67205265636f76657279204d6f646560381b60648201526084016108b3565b60006117f082846137ca565b9392505050565b6040516370a0823160e01b815281906001600160a01b038516906370a082319061182590869060040161330f565b602060405180830381865afa158015611842573d6000803e3d6000fd5b505050506040513d601f19601f8201168201806040525081019061186691906136a7565b10156108575760405162461bcd60e51b815260206004820152604360248201527f426f72726f7765724f70733a2043616c6c657220646f65736e7420686176652060448201527f656e6f75676820426173654665654c4d4120746f206d616b652072657061796d606482015262195b9d60ea1b608482015260a4016108b3565b6000806118f1610ded565b905060006118fd61094f565b9050866119135761190e82896117e4565b61191d565b61191d82896121ea565b9150846119335761192e81876117e4565b61193d565b61193d81876121ea565b9050600061194c838387611aab565b93505050505b95945050505050565b671bc16d674ec8000081101561157a5760405162461bcd60e51b815260206004820152604960248201527f426f72726f7765724f70733a20416e206f7065726174696f6e2074686174207760448201527f6f756c6420726573756c7420696e20544352203c20434352206973206e6f74206064820152681c195c9b5a5d1d195960ba1b608482015260a4016108b3565b604051633b4009ff60e11b8152600481018290526001600160a01b0385169063768013fe90602401600060405180830381600087803b158015611a2d57600080fd5b505af1158015611a41573d6000803e3d6000fd5b5050604051632770a7eb60e21b81526001600160a01b0386169250639dc29fac9150611a739085908590600401613704565b600060405180830381600087803b158015611a8d57600080fd5b505af1158015611aa1573d6000803e3d6000fd5b5050505050505050565b60008215611ae6576000611add83611ad1670de0b6b3a7640000611ad788838b84612924565b90612930565b90612924565b91506117f09050565b506000199392505050565b611afa3361159f565b6040805160608082018352600480546001600160a01b039081168452600080548216602080870191909152600a5483168688015286516101a0810188528281528082018390528088018390529485018290526080850182905260a0850182905260c0850182905260e08501829052610100850182905261012085018290526101408501829052610160850182905261018085018290526002548751630fdb11cf60e01b8152975196979596931694630fdb11cf948181019492939183900301908290875af1158015611bd0573d6000803e3d6000fd5b505050506040513d601f19601f82011682018060405250810190611bf491906136a7565b808252600090611c039061229f565b90508615611c1e57611c1584826122bc565b611c1e8861293c565b611c288a8a6129ac565b611c338a8a8a612a1c565b8251611c3f908c611693565b336001600160a01b038c161480611c7557506005546001600160a01b031633148015611c6b5750600089115b8015611c75575087155b611c8157611c81613760565b8251604051630b07655760e01b81526001600160a01b0390911690630b07655790611cb0908e9060040161330f565b600060405180830381600087803b158015611cca57600080fd5b505af1158015611cde573d6000803e3d6000fd5b50505050611cec898b612ab4565b151560608401526020830152604082018890528615611d19578251611d12908986612492565b6101208301525b825160405163d66a255360e01b81526001600160a01b039091169063d66a255390611d48908e9060040161330f565b602060405180830381865afa158015611d65573d6000803e3d6000fd5b505050506040513d601f19601f82011682018060405250810190611d8991906136a7565b608083015282516040516309019aaf60e31b81526001600160a01b039091169063480cd57890611dbd908e9060040161330f565b602060405180830381865afa158015611dda573d6000803e3d6000fd5b505050506040513d601f19601f82011682018060405250810190611dfe91906136a7565b60a0830181905260808301518351611e17929190611aab565b8260c0018181525050611e478260a0015183608001518460200151856060015186604001518c8860000151612ad3565b60e083015260a08201518a1115611e6057611e60613760565b611e6c818b8985612b06565b86158015611e7a5750600088115b15611ec757611ea2611e9d8360400151611e978560800151612b7a565b906117e4565b612632565b611eb482608001518360400151612b90565b611ec783604001518c84604001516117f7565b611ee583600001518c8460200151856060015186604001518c612c25565b6101408401526101608301528251604051630c7940bd60e11b81526001600160a01b03909116906318f2817a90611f20908e9060040161330f565b6020604051808303816000875af1158015611f3f573d6000803e3d6000fd5b505050506040513d601f19601f82011682018060405250810190611f6391906136a7565b826101800181815250506000611f918360a0015184608001518560200151866060015187604001518d612e17565b600b5460405163015f109360e51b81529192506001600160a01b031690632be2126090611fc8908f9085908c908c90600401613776565b600060405180830381600087803b158015611fe257600080fd5b505af1158015611ff6573d6000803e3d6000fd5b505050508b6001600160a01b0316600080516020613874833981519152846101400151856101600151866101800151600260405161203794939291906136e2565b60405180910390a261012083015160405190815233907f909ac017b31fd41edf1bf9a7ed7d4a7af4343fe034023db2d0220a77ba25e7ee9060200160405180910390a26120ae8460200151856040015133866020015187606001518861012001518f6120a391906137ca565b8e8a60400151612e48565b505050505050505050505050565b600061083e8269152d02c7e14af68000006121ea565b6005546001600160a01b0316331461094d5760405162461bcd60e51b815260206004820152602960248201527f426f72726f7765724f70733a2043616c6c6572206973206e6f742053746162696044820152681b1a5d1e48141bdbdb60ba1b60648201526084016108b3565b6003546001600160a01b0316331461094d5760405162461bcd60e51b815260206004820181905260248201527f4f776e61626c653a2063616c6c6572206973206e6f7420746865206f776e657260448201526064016108b3565b600380546001600160a01b038381166001600160a01b0319831681179093556040519116919082907f8be0079c531659141344cd1fd0a4f28419497f9722a3daafe3b4186f6b6457e090600090a35050565b60006117f082846137b7565b6001600160a01b03811661224c5760405162461bcd60e51b815260206004820152601e60248201527f4163636f756e742063616e6e6f74206265207a65726f2061646472657373000060448201526064016108b3565b803b8061229b5760405162461bcd60e51b815260206004820181905260248201527f4163636f756e7420636f64652073697a652063616e6e6f74206265207a65726f60448201526064016108b3565b5050565b6000806122ab83612edd565b671bc16d674ec80000119392505050565b801561233557670de0b6b3a764000082111561229b5760405162461bcd60e51b815260206004820152603260248201527f4d6178206665652070657263656e74616765206d757374206c657373207468616044820152716e206f7220657175616c20746f203130302560701b60648201526084016108b3565b6123496103e8670de0b6b3a76400006137dd565b6123549060056137ff565b821015801561236b5750670de0b6b3a76400008211155b61229b5760405162461bcd60e51b815260206004820152603060248201527f4d6178206665652070657263656e74616765206d75737420626520626574776560448201526f656e20302e352520616e64203130302560801b60648201526084016108b3565b6040516321e3780160e01b81526000906001600160a01b038416906321e37801906123ff90859060040161330f565b602060405180830381865afa15801561241c573d6000803e3d6000fd5b505050506040513d601f19601f8201168201806040525081019061244091906136a7565b9050806001036108575760405162461bcd60e51b815260206004820152601c60248201527f426f72726f7765724f70733a2054726f7665206973206163746976650000000060448201526064016108b3565b6000836001600160a01b0316635dba4c4a6040518163ffffffff1660e01b8152600401600060405180830381600087803b1580156124cf57600080fd5b505af11580156124e3573d6000803e3d6000fd5b5050604051630631203b60e41b815260048101869052600092508291506001600160a01b0387169063631203b0906024016040805180830381865afa158015612530573d6000803e3d6000fd5b505050506040513d601f19601f820116820180604052508101906125549190613816565b60048054604051634fbd6daf60e11b81529182018390529294509092506001600160a01b0390911690639f7adb5e90602401600060405180830381600087803b1580156125a057600080fd5b505af11580156125b4573d6000803e3d6000fd5b505050506125c3828686612f09565b600954604051631fa773cd60e31b815260048101879052602481018490526001600160a01b039091169063fd3b9e6890604401600060405180830381600087803b15801561261057600080fd5b505af1158015612624573d6000803e3d6000fd5b509398975050505050505050565b6a295be96e6406697200000081101561157a5760405162461bcd60e51b815260206004820152603a60248201527f426f72726f7765724f70733a2054726f76652773206e65742064656274206d7560448201527f73742062652067726561746572207468616e206d696e696d756d00000000000060648201526084016108b3565b600081156126d9576126d282611ad18568056bc75e2d63100000612924565b905061083e565b5060001961083e565b671bc16d674ec8000081101561157a5760405162461bcd60e51b815260206004820152603760248201527f426f72726f7765724f70733a204f7065726174696f6e206d757374206c65617660448201527632903a3937bb32903bb4ba341024a1a9101f1e9021a1a960491b60648201526084016108b3565b6714d1120d7b16000081101561157a5760405162461bcd60e51b815260206004820152604960248201527f426f72726f7765724f70733a20416e206f7065726174696f6e2074686174207760448201527f6f756c6420726573756c7420696e20494352203c204d4352206973206e6f74206064820152681c195c9b5a5d1d195960ba1b608482015260a4016108b3565b600754612802906001600160a01b0316338484612f73565b60005460405162f9332d60e61b8152600481018390526001600160a01b0390911690633e4ccb4090602401600060405180830381600087803b15801561284757600080fd5b505af115801561285b573d6000803e3d6000fd5b505050505050565b60405163262b890160e01b8152600481018290526001600160a01b0386169063262b890190602401600060405180830381600087803b1580156128a557600080fd5b505af11580156128b9573d6000803e3d6000fd5b50506040516340c10f1960e01b81526001600160a01b03871692506340c10f1991506128eb9086908690600401613704565b600060405180830381600087803b15801561290557600080fd5b505af1158015612919573d6000803e3d6000fd5b505050505050505050565b60006117f082846137ff565b60006117f082846137dd565b6000811161157a5760405162461bcd60e51b815260206004820152603760248201527f426f72726f7765724f70733a204465627420696e637265617365207265717569604482015276726573206e6f6e2d7a65726f20646562744368616e676560481b60648201526084016108b3565b8015806129b7575081155b61229b5760405162461bcd60e51b815260206004820152603060248201527f426f72726f7765724f7065726174696f6e733a2043616e6e6f7420776974686460448201526f1c985dc8185b99081859190818dbdb1b60821b60648201526084016108b3565b81151580612a2957508215155b80612a3357508015155b6108575760405162461bcd60e51b815260206004820152604660248201527f426f72726f7765724f70733a205468657265206d75737420626520656974686560448201527f72206120636f6c6c61746572616c206368616e6765206f7220612064656274206064820152656368616e676560d01b608482015260a4016108b3565b6000808315612ac857508290506001612acc565b8291505b9250929050565b6000806000612ae68a8a8a8a8a8a612fcd565b915091506000612af7838387611aab565b9b9a5050505050505050505050565b8315612b3f57612b158361300b565b8115612b3a57612b288160e001516126e2565b612b3a8160e001518260c0015161307f565b6108d7565b612b4c8160e0015161275a565b612b698160200151826060015183604001518585600001516118e6565b61010082018190526108d79061195b565b600061083e8269152d02c7e14af68000006117e4565b612ba48269152d02c7e14af68000006117e4565b81111561229b5760405162461bcd60e51b815260206004820152604360248201527f426f72726f7765724f70733a20416d6f756e7420726570616964206d7573742060448201527f6e6f74206265206c6172676572207468616e207468652054726f76652773206460648201526219589d60ea1b608482015260a4016108b3565b600080600085612ca55760405163d3d6f84360e01b81526001600160a01b038a169063d3d6f84390612c5d908b908b90600401613704565b6020604051808303816000875af1158015612c7c573d6000803e3d6000fd5b505050506040513d601f19601f82011682018060405250810190612ca091906136a7565b612d16565b6040516372423c1760e01b81526001600160a01b038a16906372423c1790612cd3908b908b90600401613704565b6020604051808303816000875af1158015612cf2573d6000803e3d6000fd5b505050506040513d601f19601f82011682018060405250810190612d1691906136a7565b9050600084612d9557604051630930874960e11b81526001600160a01b038b16906312610e9290612d4d908c908a90600401613704565b6020604051808303816000875af1158015612d6c573d6000803e3d6000fd5b505050506040513d601f19601f82011682018060405250810190612d9091906136a7565b612e06565b604051639976cf4560e01b81526001600160a01b038b1690639976cf4590612dc3908c908a90600401613704565b6020604051808303816000875af1158015612de2573d6000803e3d6000fd5b505050506040513d601f19601f82011682018060405250810190612e0691906136a7565b919a91995090975050505050505050565b6000806000612e2a898989898989612fcd565b915091506000612e3a83836126b3565b9a9950505050505050505050565b8115612e6057612e5b8888888685612863565b612e6c565b612e6c888888866119eb565b8315612e8157612e7c88866127ea565b611aa1565b6040516316daab2160e01b81526001600160a01b038916906316daab2190612eaf9089908990600401613704565b600060405180830381600087803b158015612ec957600080fd5b505af11580156120ae573d6000803e3d6000fd5b600080612ee8610ded565b90506000612ef461094f565b9050612f01828286611aab565b949350505050565b6000612f2183611ad186670de0b6b3a7640000612924565b9050818111156108d75760405162461bcd60e51b815260206004820152601d60248201527f4665652065786365656465642070726f7669646564206d6178696d756d00000060448201526064016108b3565b604080516001600160a01b0385811660248301528416604482015260648082018490528251808303909101815260849091019091526020810180516001600160e01b03166323b872dd60e01b1790526108d79085906130f5565b600080878786612fe657612fe18a896117e4565b612ff0565b612ff08a896121ea565b91508461300157612d9089876117e4565b612e0689876121ea565b801561157a5760405162461bcd60e51b815260206004820152603e60248201527f426f72726f7765724f70733a20436f6c6c61746572616c20776974686472617760448201527f616c206e6f74207065726d6974746564205265636f76657279204d6f6465000060648201526084016108b3565b8082101561229b5760405162461bcd60e51b815260206004820152603e60248201527f426f72726f7765724f70733a2043616e6e6f7420646563726561736520796f7560448201527f722054726f766527732049435220696e205265636f76657279204d6f6465000060648201526084016108b3565b600061314a826040518060400160405280602081526020017f5361666545524332303a206c6f772d6c6576656c2063616c6c206661696c6564815250856001600160a01b03166131ca9092919063ffffffff16565b905080516000148061316b57508080602001905181019061316b919061383a565b6108575760405162461bcd60e51b815260206004820152602a60248201527f5361666545524332303a204552433230206f7065726174696f6e20646964206e6044820152691bdd081cdd58d8d9595960b21b60648201526084016108b3565b6060612f01848460008585600080866001600160a01b031685876040516131f19190613857565b60006040518083038185875af1925050503d806000811461322e576040519150601f19603f3d011682016040523d82523d6000602084013e613233565b606091505b50915091506132448783838761324f565b979650505050505050565b606083156132be5782516000036132b7576001600160a01b0385163b6132b75760405162461bcd60e51b815260206004820152601d60248201527f416464726573733a2063616c6c20746f206e6f6e2d636f6e747261637400000060448201526064016108b3565b5081612f01565b612f0183838151156132d35781518083602001fd5b8060405162461bcd60e51b81526004016108b3919061360d565b6000806040838503121561330057600080fd5b50508035926020909101359150565b6001600160a01b0391909116815260200190565b6001600160a01b038116811461157a57600080fd5b803561334381613323565b919050565b60008060006060848603121561335d57600080fd5b83359250602084013561336f81613323565b9150604084013561337f81613323565b809150509250925092565b60006020828403121561339c57600080fd5b5035919050565b801515811461157a57600080fd5b600080600080600080600060e0888a0312156133cc57600080fd5b8735965060208801359550604088013594506060880135935060808801356133f3816133a3565b925060a088013561340381613323565b915060c088013561341381613323565b8091505092959891949750929550565b6000806000806080858703121561343957600080fd5b843561344481613323565b9350602085013561345481613323565b9250604085013561346481613323565b9396929550929360600135925050565b60008060008060008060008060008060006101608c8e03121561349657600080fd5b8b356134a181613323565b9a5060208c01356134b181613323565b995060408c01356134c181613323565b985060608c01356134d181613323565b975060808c01356134e181613323565b965060a08c01356134f181613323565b955060c08c013561350181613323565b945060e08c013561351181613323565b93506101008c013561352281613323565b92506135316101208d01613338565b91506135406101408d01613338565b90509295989b509295989b9093969950565b60008060006060848603121561356757600080fd5b833561357281613323565b9250602084013561358281613323565b929592945050506040919091013590565b600080600080600060a086880312156135ab57600080fd5b85359450602086013593506040860135925060608601356135cb81613323565b915060808601356135db81613323565b809150509295509295909350565b60005b838110156136045781810151838201526020016135ec565b50506000910152565b602081526000825180602084015261362c8160408501602087016135e9565b601f01601f19169190910160400192915050565b6000806000806080858703121561365657600080fd5b8435935060208501359250604085013561366f81613323565b9150606085013561367f81613323565b939692955090935050565b60006020828403121561369c57600080fd5b81356117f081613323565b6000602082840312156136b957600080fd5b5051919050565b600381106136de57634e487b7160e01b600052602160045260246000fd5b9052565b84815260208101849052604081018390526080810161195260608301846136c0565b6001600160a01b03929092168252602082015260400190565b60208082526023908201527f426f72726f776572204f7065726174696f6e733a20496e76616c696420616d6f6040820152621d5b9d60ea1b606082015260800190565b634e487b7160e01b600052600160045260246000fd5b6001600160a01b03948516815260208101939093529083166040830152909116606082015260800190565b634e487b7160e01b600052601160045260246000fd5b8082018082111561083e5761083e6137a1565b8181038181111561083e5761083e6137a1565b6000826137fa57634e487b7160e01b600052601260045260246000fd5b500490565b808202811582820484141761083e5761083e6137a1565b6000806040838503121561382957600080fd5b505080516020909101519092909150565b60006020828403121561384c57600080fd5b81516117f0816133a3565b600082516138698184602087016135e9565b919091019291505056fec3770d654ed33aeea6bf11ac8ef05d02a6a04ed4686dd2f624d853bbec43cc8ba2646970667358221220eecbb718868bea88c1c28da2c674f5ba4bb6bde155282ba0bdcaffb17f254c7c64736f6c63430008130033",
  "devdoc": {
    "kind": "dev",
    "methods": {
      "owner()": {
        "details": "Returns the address of the current owner."
      },
      "renounceOwnership()": {
        "details": "Leaves the contract without owner. It will not be possible to call `onlyOwner` functions. Can only be called by the current owner. NOTE: Renouncing ownership will leave the contract without an owner, thereby disabling any functionality that is only available to the owner."
      },
      "transferOwnership(address)": {
        "details": "Transfers ownership of the contract to a new account (`newOwner`). Can only be called by the current owner."
      }
    },
    "version": 1
  },
  "userdoc": {
    "kind": "user",
    "methods": {
      "addColl(address,address,uint256)": {
        "notice": "HEDGEHOG UPDATES: ERC20 is used as a collateral, therefore function may not rely on msg.value anymore now passing a new param _collIncrease in _adjustTrove function - in this particular case it is a passed param _amount checking if _amount is greater then 0 Function is no longer payable"
      },
      "adjustTrove(uint256,uint256,uint256,uint256,bool,address,address)": {
        "notice": "HEDGEHOG UPDATES: ERC20 is used as a collateral, therefore function may not rely on msg.value anymore now passing a new param _collIncrease Function is no longer payable"
      },
      "claimCollateral()": {
        "notice": "Claim remaining collateral from a redemption or from a liquidation with ICR > MCR in Recovery Mode"
      },
      "computeUnreliableCR(uint256,uint256)": {
        "notice": "HEDGEHOG UPDATES: New view method to help with getting the data on frontends"
      },
      "moveWStETHGainToTrove(address,address,address,uint256)": {
        "notice": "HEDGEHOG UPDATES: ERC20 is used as a collateral, therefore function may not rely on msg.value anymore now passing a new param _collIncrease in _adjustTrove function - in this particular case it is a passed param _amount checking if _amount is greater then 0 Function is no longer payable"
      },
      "openTrove(uint256,uint256,uint256,address,address)": {
        "notice": "HEDGEHOG UPDATES: ERC20 is used as a collateral, therefore function may not rely on msg.value anymore now passing a new param _collAmount checking if _amount is greater then 0 Function is no longer payable"
      },
      "repayBaseFeeLMA(uint256,address,address)": {
        "notice": "HEDGEHOG UPDATES: ERC20 is used as a collateral, therefore function may not rely on msg.value anymore now passing a new param _collIncrease - in this particular case it is 0"
      },
      "setAddresses(address,address,address,address,address,address,address,address,address,address,address)": {
        "notice": "HEDGEHOG UPDATES: ERC20 is used as a collateral instead of native token. Setting erc20 address in the initialisation"
      },
      "withdrawBaseFeeLMA(uint256,uint256,address,address)": {
        "notice": "HEDGEHOG UPDATES: ERC20 is used as a collateral, therefore function may not rely on msg.value anymore now passing a new param _collIncrease - in this particular case it is 0"
      },
      "withdrawColl(uint256,address,address)": {
        "notice": "HEDGEHOG UPDATES: ERC20 is used as a collateral, therefore function may not rely on msg.value anymore now passing a new param _collIncrease - in this particular case it is 0"
      }
    },
    "notice": "Fork of Liquity's BorrowerOperations. . Most of the Logic remains unchanged.. Changes to the contract: - Raised pragma version - Removed an import of IBorrowerOperations Interface - Collateral is now an ERC20 token instead of a native one - Updated variable names and docs to refer to BaseFeeLMA token and wwstETH as a collateral - Logic updates with borrowing fees calculation and their distribution - Removed Native Liquity Protocol Token Staking - Remove _getUSDValue view method as it's not used anymore Even though SafeMath is no longer required, the decision was made to keep it to avoid human factor errors",
    "version": 1
  },
  "storageLayout": {
    "storage": [
      {
        "astId": 11043,
        "contract": "contracts/BorrowerOperations.sol:BorrowerOperations",
        "label": "activePool",
        "offset": 0,
        "slot": "0",
        "type": "t_contract(IActivePool)11643"
      },
      {
        "astId": 11046,
        "contract": "contracts/BorrowerOperations.sol:BorrowerOperations",
        "label": "defaultPool",
        "offset": 0,
        "slot": "1",
        "type": "t_contract(IDefaultPool)12010"
      },
      {
        "astId": 11050,
        "contract": "contracts/BorrowerOperations.sol:BorrowerOperations",
        "label": "priceFeed",
        "offset": 0,
        "slot": "2",
        "type": "t_contract(IPriceFeed)12144"
      },
      {
        "astId": 7,
        "contract": "contracts/BorrowerOperations.sol:BorrowerOperations",
        "label": "_owner",
        "offset": 0,
        "slot": "3",
        "type": "t_address"
      },
      {
        "astId": 1300,
        "contract": "contracts/BorrowerOperations.sol:BorrowerOperations",
        "label": "troveManager",
        "offset": 0,
        "slot": "4",
        "type": "t_contract(ITroveManager)12902"
      },
      {
        "astId": 1302,
        "contract": "contracts/BorrowerOperations.sol:BorrowerOperations",
        "label": "stabilityPoolAddress",
        "offset": 0,
        "slot": "5",
        "type": "t_address"
      },
      {
        "astId": 1304,
        "contract": "contracts/BorrowerOperations.sol:BorrowerOperations",
        "label": "gasPoolAddress",
        "offset": 0,
        "slot": "6",
        "type": "t_address"
      },
      {
        "astId": 1307,
        "contract": "contracts/BorrowerOperations.sol:BorrowerOperations",
        "label": "WStETHToken",
        "offset": 0,
        "slot": "7",
        "type": "t_contract(IERC20)190"
      },
      {
        "astId": 1310,
        "contract": "contracts/BorrowerOperations.sol:BorrowerOperations",
        "label": "collSurplusPool",
        "offset": 0,
        "slot": "8",
        "type": "t_contract(ICollSurplusPool)11948"
      },
      {
        "astId": 1313,
        "contract": "contracts/BorrowerOperations.sol:BorrowerOperations",
        "label": "feesRouter",
        "offset": 0,
        "slot": "9",
        "type": "t_contract(IFeesRouter)12027"
      },
      {
        "astId": 1316,
        "contract": "contracts/BorrowerOperations.sol:BorrowerOperations",
        "label": "baseFeeLMAToken",
        "offset": 0,
        "slot": "10",
        "type": "t_contract(IBaseFeeLMAToken)11707"
      },
      {
        "astId": 1319,
        "contract": "contracts/BorrowerOperations.sol:BorrowerOperations",
        "label": "sortedTroves",
        "offset": 0,
        "slot": "11",
        "type": "t_contract(ISortedTroves)12276"
      }
    ],
    "types": {
      "t_address": {
        "encoding": "inplace",
        "label": "address",
        "numberOfBytes": "20"
      },
      "t_contract(IActivePool)11643": {
        "encoding": "inplace",
        "label": "contract IActivePool",
        "numberOfBytes": "20"
      },
      "t_contract(IBaseFeeLMAToken)11707": {
        "encoding": "inplace",
        "label": "contract IBaseFeeLMAToken",
        "numberOfBytes": "20"
      },
      "t_contract(ICollSurplusPool)11948": {
        "encoding": "inplace",
        "label": "contract ICollSurplusPool",
        "numberOfBytes": "20"
      },
      "t_contract(IDefaultPool)12010": {
        "encoding": "inplace",
        "label": "contract IDefaultPool",
        "numberOfBytes": "20"
      },
      "t_contract(IERC20)190": {
        "encoding": "inplace",
        "label": "contract IERC20",
        "numberOfBytes": "20"
      },
      "t_contract(IFeesRouter)12027": {
        "encoding": "inplace",
        "label": "contract IFeesRouter",
        "numberOfBytes": "20"
      },
      "t_contract(IPriceFeed)12144": {
        "encoding": "inplace",
        "label": "contract IPriceFeed",
        "numberOfBytes": "20"
      },
      "t_contract(ISortedTroves)12276": {
        "encoding": "inplace",
        "label": "contract ISortedTroves",
        "numberOfBytes": "20"
      },
      "t_contract(ITroveManager)12902": {
        "encoding": "inplace",
        "label": "contract ITroveManager",
        "numberOfBytes": "20"
      }
    }
  }
}