{
  "address": "0xEEA5516b577f0c9Ee7008a3ed5502ada7e828bbB",
  "abi": [
    {
      "inputs": [],
      "stateMutability": "nonpayable",
      "type": "constructor"
    },
    {
      "anonymous": false,
      "inputs": [
        {
          "indexed": false,
          "internalType": "uint256",
          "name": "_newCap",
          "type": "uint256"
        }
      ],
      "name": "HOGSupplyCapUpdated",
      "type": "event"
    },
    {
      "anonymous": false,
      "inputs": [
        {
          "indexed": false,
          "internalType": "address",
          "name": "_hogTokenAddress",
          "type": "address"
        }
      ],
      "name": "HOGTokenAddressSet",
      "type": "event"
    },
    {
      "anonymous": false,
      "inputs": [
        {
          "indexed": false,
          "internalType": "uint256",
          "name": "_newFactor",
          "type": "uint256"
        }
      ],
      "name": "ISSUANCE_FACTORUpdated",
      "type": "event"
    },
    {
      "anonymous": false,
      "inputs": [
        {
          "indexed": true,
          "internalType": "address",
          "name": "previousOwner",
          "type": "address"
        },
        {
          "indexed": true,
          "internalType": "address",
          "name": "newOwner",
          "type": "address"
        }
      ],
      "name": "OwnershipTransferred",
      "type": "event"
    },
    {
      "anonymous": false,
      "inputs": [
        {
          "indexed": true,
          "internalType": "bytes32",
          "name": "role",
          "type": "bytes32"
        },
        {
          "indexed": true,
          "internalType": "bytes32",
          "name": "previousAdminRole",
          "type": "bytes32"
        },
        {
          "indexed": true,
          "internalType": "bytes32",
          "name": "newAdminRole",
          "type": "bytes32"
        }
      ],
      "name": "RoleAdminChanged",
      "type": "event"
    },
    {
      "anonymous": false,
      "inputs": [
        {
          "indexed": true,
          "internalType": "bytes32",
          "name": "role",
          "type": "bytes32"
        },
        {
          "indexed": true,
          "internalType": "address",
          "name": "account",
          "type": "address"
        },
        {
          "indexed": true,
          "internalType": "address",
          "name": "sender",
          "type": "address"
        }
      ],
      "name": "RoleGranted",
      "type": "event"
    },
    {
      "anonymous": false,
      "inputs": [
        {
          "indexed": true,
          "internalType": "bytes32",
          "name": "role",
          "type": "bytes32"
        },
        {
          "indexed": true,
          "internalType": "address",
          "name": "account",
          "type": "address"
        },
        {
          "indexed": true,
          "internalType": "address",
          "name": "sender",
          "type": "address"
        }
      ],
      "name": "RoleRevoked",
      "type": "event"
    },
    {
      "anonymous": false,
      "inputs": [
        {
          "indexed": false,
          "internalType": "address",
          "name": "_stabilityPoolAddress",
          "type": "address"
        }
      ],
      "name": "StabilityPoolAddressSet",
      "type": "event"
    },
    {
      "anonymous": false,
      "inputs": [
        {
          "indexed": false,
          "internalType": "uint256",
          "name": "_totalHOGIssued",
          "type": "uint256"
        }
      ],
      "name": "TotalHOGIssuedUpdated",
      "type": "event"
    },
    {
      "inputs": [],
      "name": "DECIMAL_PRECISION",
      "outputs": [
        {
          "internalType": "uint256",
          "name": "",
          "type": "uint256"
        }
      ],
      "stateMutability": "view",
      "type": "function"
    },
    {
      "inputs": [],
      "name": "DEFAULT_ADMIN_ROLE",
      "outputs": [
        {
          "internalType": "bytes32",
          "name": "",
          "type": "bytes32"
        }
      ],
      "stateMutability": "view",
      "type": "function"
    },
    {
      "inputs": [],
      "name": "HOGSupplyCap",
      "outputs": [
        {
          "internalType": "uint256",
          "name": "",
          "type": "uint256"
        }
      ],
      "stateMutability": "view",
      "type": "function"
    },
    {
      "inputs": [],
      "name": "ISSUANCE_FACTOR",
      "outputs": [
        {
          "internalType": "uint256",
          "name": "",
          "type": "uint256"
        }
      ],
      "stateMutability": "view",
      "type": "function"
    },
    {
      "inputs": [],
      "name": "NAME",
      "outputs": [
        {
          "internalType": "string",
          "name": "",
          "type": "string"
        }
      ],
      "stateMutability": "view",
      "type": "function"
    },
    {
      "inputs": [],
      "name": "SECONDS_IN_ONE_MINUTE",
      "outputs": [
        {
          "internalType": "uint256",
          "name": "",
          "type": "uint256"
        }
      ],
      "stateMutability": "view",
      "type": "function"
    },
    {
      "inputs": [],
      "name": "deploymentTime",
      "outputs": [
        {
          "internalType": "uint256",
          "name": "",
          "type": "uint256"
        }
      ],
      "stateMutability": "view",
      "type": "function"
    },
    {
      "inputs": [
        {
          "internalType": "bytes32",
          "name": "role",
          "type": "bytes32"
        }
      ],
      "name": "getRoleAdmin",
      "outputs": [
        {
          "internalType": "bytes32",
          "name": "",
          "type": "bytes32"
        }
      ],
      "stateMutability": "view",
      "type": "function"
    },
    {
      "inputs": [
        {
          "internalType": "bytes32",
          "name": "role",
          "type": "bytes32"
        },
        {
          "internalType": "address",
          "name": "account",
          "type": "address"
        }
      ],
      "name": "grantRole",
      "outputs": [],
      "stateMutability": "nonpayable",
      "type": "function"
    },
    {
      "inputs": [
        {
          "internalType": "bytes32",
          "name": "role",
          "type": "bytes32"
        },
        {
          "internalType": "address",
          "name": "account",
          "type": "address"
        }
      ],
      "name": "hasRole",
      "outputs": [
        {
          "internalType": "bool",
          "name": "",
          "type": "bool"
        }
      ],
      "stateMutability": "view",
      "type": "function"
    },
    {
      "inputs": [],
      "name": "hogToken",
      "outputs": [
        {
          "internalType": "contract IHOGToken",
          "name": "",
          "type": "address"
        }
      ],
      "stateMutability": "view",
      "type": "function"
    },
    {
      "inputs": [],
      "name": "issueHOG",
      "outputs": [
        {
          "internalType": "uint256",
          "name": "",
          "type": "uint256"
        }
      ],
      "stateMutability": "nonpayable",
      "type": "function"
    },
    {
      "inputs": [],
      "name": "owner",
      "outputs": [
        {
          "internalType": "address",
          "name": "",
          "type": "address"
        }
      ],
      "stateMutability": "view",
      "type": "function"
    },
    {
      "inputs": [],
      "name": "renounceOwnership",
      "outputs": [],
      "stateMutability": "nonpayable",
      "type": "function"
    },
    {
      "inputs": [
        {
          "internalType": "bytes32",
          "name": "role",
          "type": "bytes32"
        },
        {
          "internalType": "address",
          "name": "account",
          "type": "address"
        }
      ],
      "name": "renounceRole",
      "outputs": [],
      "stateMutability": "nonpayable",
      "type": "function"
    },
    {
      "inputs": [
        {
          "internalType": "bytes32",
          "name": "role",
          "type": "bytes32"
        },
        {
          "internalType": "address",
          "name": "account",
          "type": "address"
        }
      ],
      "name": "revokeRole",
      "outputs": [],
      "stateMutability": "nonpayable",
      "type": "function"
    },
    {
      "inputs": [
        {
          "internalType": "address",
          "name": "_account",
          "type": "address"
        },
        {
          "internalType": "uint256",
          "name": "_HOGamount",
          "type": "uint256"
        }
      ],
      "name": "sendHOG",
      "outputs": [],
      "stateMutability": "nonpayable",
      "type": "function"
    },
    {
      "inputs": [
        {
          "internalType": "address",
          "name": "_hogTokenAddress",
          "type": "address"
        },
        {
          "internalType": "address",
          "name": "_stabilityPoolAddress",
          "type": "address"
        },
        {
          "internalType": "address",
          "name": "_setter",
          "type": "address"
        },
        {
          "internalType": "address",
          "name": "_setterAdmin",
          "type": "address"
        }
      ],
      "name": "setAddresses",
      "outputs": [],
      "stateMutability": "nonpayable",
      "type": "function"
    },
    {
      "inputs": [
        {
          "internalType": "uint256",
          "name": "_newCap",
          "type": "uint256"
        }
      ],
      "name": "setHOGSupplyCap",
      "outputs": [],
      "stateMutability": "nonpayable",
      "type": "function"
    },
    {
      "inputs": [
        {
          "internalType": "uint256",
          "name": "_newIssFactor",
          "type": "uint256"
        }
      ],
      "name": "setISSUANCE_FACTOR",
      "outputs": [],
      "stateMutability": "nonpayable",
      "type": "function"
    },
    {
      "inputs": [],
      "name": "stabilityPoolAddress",
      "outputs": [
        {
          "internalType": "address",
          "name": "",
          "type": "address"
        }
      ],
      "stateMutability": "view",
      "type": "function"
    },
    {
      "inputs": [
        {
          "internalType": "bytes4",
          "name": "interfaceId",
          "type": "bytes4"
        }
      ],
      "name": "supportsInterface",
      "outputs": [
        {
          "internalType": "bool",
          "name": "",
          "type": "bool"
        }
      ],
      "stateMutability": "view",
      "type": "function"
    },
    {
      "inputs": [],
      "name": "totalHOGIssued",
      "outputs": [
        {
          "internalType": "uint256",
          "name": "",
          "type": "uint256"
        }
      ],
      "stateMutability": "view",
      "type": "function"
    },
    {
      "inputs": [
        {
          "internalType": "address",
          "name": "newOwner",
          "type": "address"
        }
      ],
      "name": "transferOwnership",
      "outputs": [],
      "stateMutability": "nonpayable",
      "type": "function"
    }
  ],
  "transactionHash": "0x725a03c06606fdda848e00bb0fa70c69a8a6c0475a005590bdb084c033a71def",
  "args": [],
  "numDeployments": 1,
  "solcInputHash": "98723532e957e7baa9fc1cb1a940c8da",
  "bytecode": "0x60a0604052670de0b5809a6f939860025534801561001c57600080fd5b506100263361002f565b42608052610081565b600180546001600160a01b038381166001600160a01b0319831681179093556040519116919082907f8be0079c531659141344cd1fd0a4f28419497f9722a3daafe3b4186f6b6457e090600090a35050565b6080516111ff6100a36000396000818161031f015261088801526111ff6000f3fe608060405234801561001057600080fd5b50600436106101575760003560e01c806378e5baec116100c3578063a217fddf1161007c578063a217fddf146102af578063a3f4df7e146102b7578063bfa3539d146102f4578063d547741f14610307578063ecda10f51461031a578063f2fde38b1461034157600080fd5b806378e5baec1461025757806379b7e207146102605780638da5cb5b1461026957806391d148541461027a5780639df111881461028d578063a20baee6146102a057600080fd5b80632f2ff15d116101155780632f2ff15d146101fb57806336568abe1461020e5780634a945f8d14610221578063570dc45e1461023457806361ec893d14610247578063715018a61461024f57600080fd5b80624b33191461015c57806301ffc9a7146101775780630b622ab21461019a5780630fc83da3146101ba5780631dc9727e146101c3578063248a9ca3146101d8575b600080fd5b610164610354565b6040519081526020015b60405180910390f35b61018a610185366004610e9f565b6103e0565b604051901515815260200161016e565b6005546101ad906001600160a01b031681565b60405161016e9190610ec9565b61016460025481565b6101d66101d1366004610edd565b610417565b005b6101646101e6366004610edd565b60009081526020819052604090206001015490565b6101d6610209366004610f12565b61046c565b6101d661021c366004610f12565b610496565b6101d661022f366004610f3e565b610519565b6004546101ad906001600160a01b031681565b610164603c81565b6101d661066b565b61016460035481565b61016460065481565b6001546001600160a01b03166101ad565b61018a610288366004610f12565b61067f565b6101d661029b366004610f92565b6106a8565b610164670de0b6b3a764000081565b610164600081565b6102e760405180604001604052806011815260200170436f6d6d756e69747949737375616e636560781b81525081565b60405161016e9190610fe0565b6101d6610302366004610edd565b610729565b6101d6610315366004610f12565b610776565b6101647f000000000000000000000000000000000000000000000000000000000000000081565b6101d661034f366004611013565b61079b565b600061035e610814565b6000610386670de0b6b3a764000061038061037761087a565b600354906108f3565b906108ff565b9050600061039f6006548361090b90919063ffffffff16565b60068390556040518381529091507fc39c4a12ccfc8d687432c13df0fed2a043068f0db11632ab629f8d80caffb1469060200160405180910390a192915050565b60006001600160e01b03198216637965db0b60e01b148061041157506301ffc9a760e01b6001600160e01b03198316145b92915050565b6000805160206111aa83398151915261042f81610917565b60038290556040518281527fbdeac150b65b39f5b236c6da7d080a19e9cfd976d941b024ce45d0553958061b906020015b60405180910390a15050565b60008281526020819052604090206001015461048781610917565b6104918383610921565b505050565b6001600160a01b038116331461050b5760405162461bcd60e51b815260206004820152602f60248201527f416363657373436f6e74726f6c3a2063616e206f6e6c792072656e6f756e636560448201526e103937b632b9903337b91039b2b63360891b60648201526084015b60405180910390fd5b61051582826109a5565b5050565b610521610a0a565b61052a84610a64565b61053383610a64565b61054b6000805160206111aa83398151915283610921565b6105836000805160206111aa8339815191527f8cbcadebe301ddcb67de73a9e365d5bce9a45f6cc9cb310264d01612b073e191610b09565b6105ad7f8cbcadebe301ddcb67de73a9e365d5bce9a45f6cc9cb310264d01612b073e19182610921565b600480546001600160a01b038087166001600160a01b0319928316179092556005805492861692909116919091179055670de0b5809a6f939860025560006003556040517f2228d43367ece49cb99c3d3ac6d6df4a289d31f4a2bd9ab1ff590c66f3a4d6c09061061e908690610ec9565b60405180910390a17f45c53611bc8ba9e11f4f8173bda9e3faf89c395ddb83f9a55230b156828db315836040516106559190610ec9565b60405180910390a161066561066b565b50505050565b610673610a0a565b61067d6000610b54565b565b6000918252602082815260408084206001600160a01b0393909316845291905290205460ff1690565b6106b0610814565b6004805460405163a9059cbb60e01b81526001600160a01b03858116938201939093526024810184905291169063a9059cbb906044016020604051808303816000875af1158015610705573d6000803e3d6000fd5b505050506040513d601f19601f82011682018060405250810190610491919061102e565b6000805160206111aa83398151915261074181610917565b60028290556040518281527f7e6a74d71c757a262f972c24851c456e04ba24718b8d96c4beba3e42495355c790602001610460565b60008281526020819052604090206001015461079181610917565b61049183836109a5565b6107a3610a0a565b6001600160a01b0381166108085760405162461bcd60e51b815260206004820152602660248201527f4f776e61626c653a206e6577206f776e657220697320746865207a65726f206160448201526564647265737360d01b6064820152608401610502565b61081181610b54565b50565b6005546001600160a01b0316331461067d5760405162461bcd60e51b815260206004820152602360248201527f436f6d6d756e69747949737375616e63653a2063616c6c6572206973206e6f7460448201526202053560ec1b6064820152608401610502565b6000806108ac603c610380427f000000000000000000000000000000000000000000000000000000000000000061090b565b905060006108bc60025483610ba6565b905060006108d2670de0b6b3a76400008361090b565b9050670de0b6b3a76400008111156108ec576108ec611050565b9392505050565b60006108ec828461107c565b60006108ec82846110a9565b60006108ec82846110bd565b6108118133610c54565b61092b828261067f565b610515576000828152602081815260408083206001600160a01b03851684529091529020805460ff191660011790556109613390565b6001600160a01b0316816001600160a01b0316837f2f8788117e7eff1d82e926ec794901d17c78024a50270940304540a733656f0d60405160405180910390a45050565b6109af828261067f565b15610515576000828152602081815260408083206001600160a01b0385168085529252808320805460ff1916905551339285917ff6391f5c32d9c69d2a47ea670b442974b53935d1edc7fd64eb21e047a839171b9190a45050565b6001546001600160a01b0316331461067d5760405162461bcd60e51b815260206004820181905260248201527f4f776e61626c653a2063616c6c6572206973206e6f7420746865206f776e65726044820152606401610502565b6001600160a01b038116610aba5760405162461bcd60e51b815260206004820152601e60248201527f4163636f756e742063616e6e6f74206265207a65726f206164647265737300006044820152606401610502565b803b806105155760405162461bcd60e51b815260206004820181905260248201527f4163636f756e7420636f64652073697a652063616e6e6f74206265207a65726f6044820152606401610502565b600082815260208190526040808220600101805490849055905190918391839186917fbd79b86ffe0ab8e8776151514217cd7cacd52c909f66475c3af44e129f0b00ff9190a4505050565b600180546001600160a01b038381166001600160a01b0319831681179093556040519116919082907f8be0079c531659141344cd1fd0a4f28419497f9722a3daafe3b4186f6b6457e090600090a35050565b6000631f540500821115610bbc57631f54050091505b81600003610bd35750670de0b6b3a7640000610411565b670de0b6b3a764000083835b6001811115610c4057610bf36002826110d0565b600003610c1857610c048283610cad565b9150610c118160026108ff565b9050610bdf565b610c228284610cad565b9250610c2e8283610cad565b9150610c11600261038083600161090b565b610c4a8284610cad565b9695505050505050565b610c5e828261067f565b61051557610c6b81610ce5565b610c76836020610cf7565b604051602001610c879291906110e4565b60408051601f198184030181529082905262461bcd60e51b825261050291600401610fe0565b600080610cba84846108f3565b9050610cdd670de0b6b3a7640000610380610cd66002836110a9565b8490610e93565b949350505050565b60606104116001600160a01b03831660145b60606000610d0683600261107c565b610d11906002611153565b67ffffffffffffffff811115610d2957610d29611166565b6040519080825280601f01601f191660200182016040528015610d53576020820181803683370190505b509050600360fc1b81600081518110610d6e57610d6e61117c565b60200101906001600160f81b031916908160001a905350600f60fb1b81600181518110610d9d57610d9d61117c565b60200101906001600160f81b031916908160001a9053506000610dc184600261107c565b610dcc906001611153565b90505b6001811115610e44576f181899199a1a9b1b9c1cb0b131b232b360811b85600f1660108110610e0057610e0061117c565b1a60f81b828281518110610e1657610e1661117c565b60200101906001600160f81b031916908160001a90535060049490941c93610e3d81611192565b9050610dcf565b5083156108ec5760405162461bcd60e51b815260206004820181905260248201527f537472696e67733a20686578206c656e67746820696e73756666696369656e746044820152606401610502565b60006108ec8284611153565b600060208284031215610eb157600080fd5b81356001600160e01b0319811681146108ec57600080fd5b6001600160a01b0391909116815260200190565b600060208284031215610eef57600080fd5b5035919050565b80356001600160a01b0381168114610f0d57600080fd5b919050565b60008060408385031215610f2557600080fd5b82359150610f3560208401610ef6565b90509250929050565b60008060008060808587031215610f5457600080fd5b610f5d85610ef6565b9350610f6b60208601610ef6565b9250610f7960408601610ef6565b9150610f8760608601610ef6565b905092959194509250565b60008060408385031215610fa557600080fd5b610fae83610ef6565b946020939093013593505050565b60005b83811015610fd7578181015183820152602001610fbf565b50506000910152565b6020815260008251806020840152610fff816040850160208701610fbc565b601f01601f19169190910160400192915050565b60006020828403121561102557600080fd5b6108ec82610ef6565b60006020828403121561104057600080fd5b815180151581146108ec57600080fd5b634e487b7160e01b600052600160045260246000fd5b634e487b7160e01b600052601160045260246000fd5b808202811582820484141761041157610411611066565b634e487b7160e01b600052601260045260246000fd5b6000826110b8576110b8611093565b500490565b8181038181111561041157610411611066565b6000826110df576110df611093565b500690565b76020b1b1b2b9b9a1b7b73a3937b61d1030b1b1b7bab73a1604d1b815260008351611116816017850160208801610fbc565b7001034b99036b4b9b9b4b733903937b6329607d1b6017918401918201528351611147816028840160208801610fbc565b01602801949350505050565b8082018082111561041157610411611066565b634e487b7160e01b600052604160045260246000fd5b634e487b7160e01b600052603260045260246000fd5b6000816111a1576111a1611066565b50600019019056fe8f2b346f6ec617eaf7893fff30b9bc73166e158df38e66309ddad8b1fa988a7ea2646970667358221220b68eddd4094ea58f77e996173d225edca30c821c48003ac6786adf3ebad80b5b64736f6c63430008130033",
  "devdoc": {
    "events": {
      "RoleAdminChanged(bytes32,bytes32,bytes32)": {
        "details": "Emitted when `newAdminRole` is set as ``role``'s admin role, replacing `previousAdminRole` `DEFAULT_ADMIN_ROLE` is the starting admin for all roles, despite {RoleAdminChanged} not being emitted signaling this. _Available since v3.1._"
      },
      "RoleGranted(bytes32,address,address)": {
        "details": "Emitted when `account` is granted `role`. `sender` is the account that originated the contract call, an admin role bearer except when using {AccessControl-_setupRole}."
      },
      "RoleRevoked(bytes32,address,address)": {
        "details": "Emitted when `account` is revoked `role`. `sender` is the account that originated the contract call:   - if using `revokeRole`, it is the admin role bearer   - if using `renounceRole`, it is the role bearer (i.e. `account`)"
      }
    },
    "kind": "dev",
    "methods": {
      "getRoleAdmin(bytes32)": {
        "details": "Returns the admin role that controls `role`. See {grantRole} and {revokeRole}. To change a role's admin, use {_setRoleAdmin}."
      },
      "grantRole(bytes32,address)": {
        "details": "Grants `role` to `account`. If `account` had not been already granted `role`, emits a {RoleGranted} event. Requirements: - the caller must have ``role``'s admin role. May emit a {RoleGranted} event."
      },
      "hasRole(bytes32,address)": {
        "details": "Returns `true` if `account` has been granted `role`."
      },
      "owner()": {
        "details": "Returns the address of the current owner."
      },
      "renounceOwnership()": {
        "details": "Leaves the contract without owner. It will not be possible to call `onlyOwner` functions. Can only be called by the current owner. NOTE: Renouncing ownership will leave the contract without an owner, thereby disabling any functionality that is only available to the owner."
      },
      "renounceRole(bytes32,address)": {
        "details": "Revokes `role` from the calling account. Roles are often managed via {grantRole} and {revokeRole}: this function's purpose is to provide a mechanism for accounts to lose their privileges if they are compromised (such as when a trusted device is misplaced). If the calling account had been revoked `role`, emits a {RoleRevoked} event. Requirements: - the caller must be `account`. May emit a {RoleRevoked} event."
      },
      "revokeRole(bytes32,address)": {
        "details": "Revokes `role` from `account`. If `account` had been granted `role`, emits a {RoleRevoked} event. Requirements: - the caller must have ``role``'s admin role. May emit a {RoleRevoked} event."
      },
      "supportsInterface(bytes4)": {
        "details": "See {IERC165-supportsInterface}."
      },
      "transferOwnership(address)": {
        "details": "Transfers ownership of the contract to a new account (`newOwner`). Can only be called by the current owner."
      }
    },
    "version": 1
  },
  "userdoc": {
    "kind": "user",
    "methods": {},
    "version": 1
  },
  "storageLayout": {
    "storage": [
      {
        "astId": 24,
        "contract": "contracts/HOG/CommunityIssuance.sol:CommunityIssuance",
        "label": "_roles",
        "offset": 0,
        "slot": "0",
        "type": "t_mapping(t_bytes32,t_struct(RoleData)19_storage)"
      },
      {
        "astId": 396,
        "contract": "contracts/HOG/CommunityIssuance.sol:CommunityIssuance",
        "label": "_owner",
        "offset": 0,
        "slot": "1",
        "type": "t_address"
      },
      {
        "astId": 5536,
        "contract": "contracts/HOG/CommunityIssuance.sol:CommunityIssuance",
        "label": "ISSUANCE_FACTOR",
        "offset": 0,
        "slot": "2",
        "type": "t_uint256"
      },
      {
        "astId": 5538,
        "contract": "contracts/HOG/CommunityIssuance.sol:CommunityIssuance",
        "label": "HOGSupplyCap",
        "offset": 0,
        "slot": "3",
        "type": "t_uint256"
      },
      {
        "astId": 5549,
        "contract": "contracts/HOG/CommunityIssuance.sol:CommunityIssuance",
        "label": "hogToken",
        "offset": 0,
        "slot": "4",
        "type": "t_contract(IHOGToken)14355"
      },
      {
        "astId": 5551,
        "contract": "contracts/HOG/CommunityIssuance.sol:CommunityIssuance",
        "label": "stabilityPoolAddress",
        "offset": 0,
        "slot": "5",
        "type": "t_address"
      },
      {
        "astId": 5553,
        "contract": "contracts/HOG/CommunityIssuance.sol:CommunityIssuance",
        "label": "totalHOGIssued",
        "offset": 0,
        "slot": "6",
        "type": "t_uint256"
      }
    ],
    "types": {
      "t_address": {
        "encoding": "inplace",
        "label": "address",
        "numberOfBytes": "20"
      },
      "t_bool": {
        "encoding": "inplace",
        "label": "bool",
        "numberOfBytes": "1"
      },
      "t_bytes32": {
        "encoding": "inplace",
        "label": "bytes32",
        "numberOfBytes": "32"
      },
      "t_contract(IHOGToken)14355": {
        "encoding": "inplace",
        "label": "contract IHOGToken",
        "numberOfBytes": "20"
      },
      "t_mapping(t_address,t_bool)": {
        "encoding": "mapping",
        "key": "t_address",
        "label": "mapping(address => bool)",
        "numberOfBytes": "32",
        "value": "t_bool"
      },
      "t_mapping(t_bytes32,t_struct(RoleData)19_storage)": {
        "encoding": "mapping",
        "key": "t_bytes32",
        "label": "mapping(bytes32 => struct AccessControl.RoleData)",
        "numberOfBytes": "32",
        "value": "t_struct(RoleData)19_storage"
      },
      "t_struct(RoleData)19_storage": {
        "encoding": "inplace",
        "label": "struct AccessControl.RoleData",
        "members": [
          {
            "astId": 16,
            "contract": "contracts/HOG/CommunityIssuance.sol:CommunityIssuance",
            "label": "members",
            "offset": 0,
            "slot": "0",
            "type": "t_mapping(t_address,t_bool)"
          },
          {
            "astId": 18,
            "contract": "contracts/HOG/CommunityIssuance.sol:CommunityIssuance",
            "label": "adminRole",
            "offset": 0,
            "slot": "1",
            "type": "t_bytes32"
          }
        ],
        "numberOfBytes": "64"
      },
      "t_uint256": {
        "encoding": "inplace",
        "label": "uint256",
        "numberOfBytes": "32"
      }
    }
  }
}