{
  "address": "0xBD713e4123f15a9543eb6c7d17F4166FDBFc6905",
  "abi": [
    {
      "inputs": [
        {
          "internalType": "address",
          "name": "_troveManagerAddress",
          "type": "address"
        },
        {
          "internalType": "address",
          "name": "_stabilityPoolAddress",
          "type": "address"
        },
        {
          "internalType": "address",
          "name": "_borrowerOperationsAddress",
          "type": "address"
        },
        {
          "internalType": "address",
          "name": "_feesRouter",
          "type": "address"
        }
      ],
      "stateMutability": "nonpayable",
      "type": "constructor"
    },
    {
      "anonymous": false,
      "inputs": [
        {
          "indexed": true,
          "internalType": "address",
          "name": "owner",
          "type": "address"
        },
        {
          "indexed": true,
          "internalType": "address",
          "name": "spender",
          "type": "address"
        },
        {
          "indexed": false,
          "internalType": "uint256",
          "name": "value",
          "type": "uint256"
        }
      ],
      "name": "Approval",
      "type": "event"
    },
    {
      "anonymous": false,
      "inputs": [
        {
          "indexed": false,
          "internalType": "address",
          "name": "_user",
          "type": "address"
        },
        {
          "indexed": false,
          "internalType": "uint256",
          "name": "_amount",
          "type": "uint256"
        }
      ],
      "name": "BaseFeeLMATokenBalanceUpdated",
      "type": "event"
    },
    {
      "anonymous": false,
      "inputs": [
        {
          "indexed": false,
          "internalType": "address",
          "name": "_newBorrowerOperationsAddress",
          "type": "address"
        }
      ],
      "name": "BorrowerOperationsAddressChanged",
      "type": "event"
    },
    {
      "anonymous": false,
      "inputs": [
        {
          "indexed": false,
          "internalType": "address",
          "name": "_feesRouter",
          "type": "address"
        }
      ],
      "name": "FeesRouterAddressUpdated",
      "type": "event"
    },
    {
      "anonymous": false,
      "inputs": [
        {
          "indexed": false,
          "internalType": "address",
          "name": "_newStabilityPoolAddress",
          "type": "address"
        }
      ],
      "name": "StabilityPoolAddressChanged",
      "type": "event"
    },
    {
      "anonymous": false,
      "inputs": [
        {
          "indexed": true,
          "internalType": "address",
          "name": "from",
          "type": "address"
        },
        {
          "indexed": true,
          "internalType": "address",
          "name": "to",
          "type": "address"
        },
        {
          "indexed": false,
          "internalType": "uint256",
          "name": "value",
          "type": "uint256"
        }
      ],
      "name": "Transfer",
      "type": "event"
    },
    {
      "anonymous": false,
      "inputs": [
        {
          "indexed": false,
          "internalType": "address",
          "name": "_troveManagerAddress",
          "type": "address"
        }
      ],
      "name": "TroveManagerAddressChanged",
      "type": "event"
    },
    {
      "inputs": [
        {
          "internalType": "address",
          "name": "owner",
          "type": "address"
        },
        {
          "internalType": "address",
          "name": "spender",
          "type": "address"
        }
      ],
      "name": "allowance",
      "outputs": [
        {
          "internalType": "uint256",
          "name": "",
          "type": "uint256"
        }
      ],
      "stateMutability": "view",
      "type": "function"
    },
    {
      "inputs": [
        {
          "internalType": "address",
          "name": "spender",
          "type": "address"
        },
        {
          "internalType": "uint256",
          "name": "amount",
          "type": "uint256"
        }
      ],
      "name": "approve",
      "outputs": [
        {
          "internalType": "bool",
          "name": "",
          "type": "bool"
        }
      ],
      "stateMutability": "nonpayable",
      "type": "function"
    },
    {
      "inputs": [
        {
          "internalType": "address",
          "name": "account",
          "type": "address"
        }
      ],
      "name": "balanceOf",
      "outputs": [
        {
          "internalType": "uint256",
          "name": "",
          "type": "uint256"
        }
      ],
      "stateMutability": "view",
      "type": "function"
    },
    {
      "inputs": [],
      "name": "borrowerOperationsAddress",
      "outputs": [
        {
          "internalType": "address",
          "name": "",
          "type": "address"
        }
      ],
      "stateMutability": "view",
      "type": "function"
    },
    {
      "inputs": [
        {
          "internalType": "address",
          "name": "_account",
          "type": "address"
        },
        {
          "internalType": "uint256",
          "name": "_amount",
          "type": "uint256"
        }
      ],
      "name": "burn",
      "outputs": [],
      "stateMutability": "nonpayable",
      "type": "function"
    },
    {
      "inputs": [],
      "name": "decimals",
      "outputs": [
        {
          "internalType": "uint8",
          "name": "",
          "type": "uint8"
        }
      ],
      "stateMutability": "pure",
      "type": "function"
    },
    {
      "inputs": [
        {
          "internalType": "address",
          "name": "spender",
          "type": "address"
        },
        {
          "internalType": "uint256",
          "name": "subtractedValue",
          "type": "uint256"
        }
      ],
      "name": "decreaseAllowance",
      "outputs": [
        {
          "internalType": "bool",
          "name": "",
          "type": "bool"
        }
      ],
      "stateMutability": "nonpayable",
      "type": "function"
    },
    {
      "inputs": [],
      "name": "domainSeparator",
      "outputs": [
        {
          "internalType": "bytes32",
          "name": "",
          "type": "bytes32"
        }
      ],
      "stateMutability": "view",
      "type": "function"
    },
    {
      "inputs": [],
      "name": "feesRouter",
      "outputs": [
        {
          "internalType": "address",
          "name": "",
          "type": "address"
        }
      ],
      "stateMutability": "view",
      "type": "function"
    },
    {
      "inputs": [
        {
          "internalType": "address",
          "name": "spender",
          "type": "address"
        },
        {
          "internalType": "uint256",
          "name": "addedValue",
          "type": "uint256"
        }
      ],
      "name": "increaseAllowance",
      "outputs": [
        {
          "internalType": "bool",
          "name": "",
          "type": "bool"
        }
      ],
      "stateMutability": "nonpayable",
      "type": "function"
    },
    {
      "inputs": [
        {
          "internalType": "address",
          "name": "_account",
          "type": "address"
        },
        {
          "internalType": "uint256",
          "name": "_amount",
          "type": "uint256"
        }
      ],
      "name": "mint",
      "outputs": [],
      "stateMutability": "nonpayable",
      "type": "function"
    },
    {
      "inputs": [],
      "name": "name",
      "outputs": [
        {
          "internalType": "string",
          "name": "",
          "type": "string"
        }
      ],
      "stateMutability": "pure",
      "type": "function"
    },
    {
      "inputs": [
        {
          "internalType": "address",
          "name": "owner",
          "type": "address"
        }
      ],
      "name": "nonces",
      "outputs": [
        {
          "internalType": "uint256",
          "name": "",
          "type": "uint256"
        }
      ],
      "stateMutability": "view",
      "type": "function"
    },
    {
      "inputs": [
        {
          "internalType": "address",
          "name": "owner",
          "type": "address"
        },
        {
          "internalType": "address",
          "name": "spender",
          "type": "address"
        },
        {
          "internalType": "uint256",
          "name": "amount",
          "type": "uint256"
        },
        {
          "internalType": "uint256",
          "name": "deadline",
          "type": "uint256"
        },
        {
          "internalType": "uint8",
          "name": "v",
          "type": "uint8"
        },
        {
          "internalType": "bytes32",
          "name": "r",
          "type": "bytes32"
        },
        {
          "internalType": "bytes32",
          "name": "s",
          "type": "bytes32"
        }
      ],
      "name": "permit",
      "outputs": [],
      "stateMutability": "nonpayable",
      "type": "function"
    },
    {
      "inputs": [],
      "name": "permitTypeHash",
      "outputs": [
        {
          "internalType": "bytes32",
          "name": "",
          "type": "bytes32"
        }
      ],
      "stateMutability": "pure",
      "type": "function"
    },
    {
      "inputs": [
        {
          "internalType": "address",
          "name": "_poolAddress",
          "type": "address"
        },
        {
          "internalType": "address",
          "name": "_receiver",
          "type": "address"
        },
        {
          "internalType": "uint256",
          "name": "_amount",
          "type": "uint256"
        }
      ],
      "name": "returnFromPool",
      "outputs": [],
      "stateMutability": "nonpayable",
      "type": "function"
    },
    {
      "inputs": [
        {
          "internalType": "address",
          "name": "_sender",
          "type": "address"
        },
        {
          "internalType": "address",
          "name": "_poolAddress",
          "type": "address"
        },
        {
          "internalType": "uint256",
          "name": "_amount",
          "type": "uint256"
        }
      ],
      "name": "sendToPool",
      "outputs": [],
      "stateMutability": "nonpayable",
      "type": "function"
    },
    {
      "inputs": [],
      "name": "stabilityPoolAddress",
      "outputs": [
        {
          "internalType": "address",
          "name": "",
          "type": "address"
        }
      ],
      "stateMutability": "view",
      "type": "function"
    },
    {
      "inputs": [],
      "name": "symbol",
      "outputs": [
        {
          "internalType": "string",
          "name": "",
          "type": "string"
        }
      ],
      "stateMutability": "pure",
      "type": "function"
    },
    {
      "inputs": [],
      "name": "totalSupply",
      "outputs": [
        {
          "internalType": "uint256",
          "name": "",
          "type": "uint256"
        }
      ],
      "stateMutability": "view",
      "type": "function"
    },
    {
      "inputs": [
        {
          "internalType": "address",
          "name": "recipient",
          "type": "address"
        },
        {
          "internalType": "uint256",
          "name": "amount",
          "type": "uint256"
        }
      ],
      "name": "transfer",
      "outputs": [
        {
          "internalType": "bool",
          "name": "",
          "type": "bool"
        }
      ],
      "stateMutability": "nonpayable",
      "type": "function"
    },
    {
      "inputs": [
        {
          "internalType": "address",
          "name": "sender",
          "type": "address"
        },
        {
          "internalType": "address",
          "name": "recipient",
          "type": "address"
        },
        {
          "internalType": "uint256",
          "name": "amount",
          "type": "uint256"
        }
      ],
      "name": "transferFrom",
      "outputs": [
        {
          "internalType": "bool",
          "name": "",
          "type": "bool"
        }
      ],
      "stateMutability": "nonpayable",
      "type": "function"
    },
    {
      "inputs": [],
      "name": "troveManagerAddress",
      "outputs": [
        {
          "internalType": "address",
          "name": "",
          "type": "address"
        }
      ],
      "stateMutability": "view",
      "type": "function"
    },
    {
      "inputs": [],
      "name": "version",
      "outputs": [
        {
          "internalType": "string",
          "name": "",
          "type": "string"
        }
      ],
      "stateMutability": "pure",
      "type": "function"
    }
  ],
  "transactionHash": "0xf83768ca8893e18afd45bff6cd3c7c9c5055b1050dfe56a399779dd9c16b03b4",
  "args": [
    "0x385F5D492AB54cCD7e10736c45C1cA241E010af1",
    "0xfc3B12B60f88AB063281bD57052dfaC1C012bb77",
    "0x450810CA62c86d3caa11ff228C9468cE128D003F",
    "0x939D6eac9912605F14B0071516C2eC73B55c4152"
  ],
  "numDeployments": 1,
  "solcInputHash": "d5f53fb866e459e87a9a24e89566d411",
  "bytecode": "0x6101606040523480156200001257600080fd5b50604051620018433803806200184383398101604081905262000035916200034e565b620000408462000280565b6200004b8362000280565b620000568262000280565b620000618162000280565b6001600160a01b0384166101008190526040519081527f143219c9e69b09e07e095fcc889b43d8f46ca892bba65f08dc3a0050869a56789060200160405180910390a16001600160a01b0383166101208190526040519081527f82966d27eea39b038ee0fa30cd16532bb24f6e65d31cb58fb227aa5766cdcc7f9060200160405180910390a16001600160a01b0382166101408190526040519081527f3ca631ffcd2a9b5d9ae18543fc82f58eb4ca33af9e6ab01b7a8e95331e6ed9859060200160405180910390a1600480546001600160a01b0319166001600160a01b0383169081179091556040519081527f6877e00d9059f8716bd795b5d4c2c89a4bc3cef71ba3dd99b168ac9cc1f2a6c29060200160405180910390a1604080518082018252601581527f426173654665654c4d4120537461626c65636f696e00000000000000000000006020918201528151808301835260018152603160f81b908201527fcbc621ded3e712ca54ea9966de521bc174b57462f1d656a408469d904a9a0ff260c08181527fc89efdaa54c0f20c7adf612882df0950f5a951637e0307cdcb4c672f298b8bc660e08190524660a081815286517f8b73c3c69bb8fe3d512ecc4cf759cc79239f7b179b0ffacaa9a75d522b39400f818801528088018690526060810184905260808101929092523082820152865180830390910181529201909452805192019190912090919060805250620003ab945050505050565b6001600160a01b038116620002dc5760405162461bcd60e51b815260206004820152601e60248201527f4163636f756e742063616e6e6f74206265207a65726f2061646472657373000060448201526064015b60405180910390fd5b803b806200032d5760405162461bcd60e51b815260206004820181905260248201527f4163636f756e7420636f64652073697a652063616e6e6f74206265207a65726f6044820152606401620002d3565b5050565b80516001600160a01b03811681146200034957600080fd5b919050565b600080600080608085870312156200036557600080fd5b620003708562000331565b9350620003806020860162000331565b9250620003906040860162000331565b9150620003a06060860162000331565b905092959194509250565b60805160a05160c05160e0516101005161012051610140516113f76200044c6000396000818161039101528181610c3001528181610d4a0152610e840152600081816101c80152818161098a01528181610bb501528181610ee9015261104c0152600081816102b90152818161095801528181610bf20152610eb6015260006108510152600061082c015260006107b1015260006107d901526113f76000f3fe608060405234801561001057600080fd5b50600436106101585760003560e01c806370a08231116100c3578063b7f8cf9b1161007c578063b7f8cf9b1461038c578063bb997bac146103b3578063c42dab99146103c6578063d505accf146103d9578063dd62ed3e146103ec578063f698da251461042557600080fd5b806370a08231146102db5780637ecebe001461030457806395d89b411461032d5780639dc29fac14610353578063a457c2d714610366578063a9059cbb1461037957600080fd5b806323b872dd1161011557806323b872dd1461024f578063313ce56714610262578063395093511461027157806340c10f191461028457806354fd4d50146102975780635a4d28bb146102b457600080fd5b806306fdde031461015d578063095ea7b3146101a05780630b622ab2146101c357806310ce43bd1461020257806318160ddd1461023257806320c582be1461023a575b600080fd5b6040805180820190915260158152742130b9b2a332b2a626a09029ba30b13632b1b7b4b760591b60208201525b60405161019791906110d9565b60405180910390f35b6101b36101ae366004611143565b61042d565b6040519015158152602001610197565b6101ea7f000000000000000000000000000000000000000000000000000000000000000081565b6040516001600160a01b039091168152602001610197565b7f6e71edae12b1b97f4d1f60370fef10105fa2faae0126114a169c64845d6126c95b604051908152602001610197565b600054610224565b61024d61024836600461116d565b610444565b005b6101b361025d36600461116d565b61045c565b60405160128152602001610197565b6101b361027f366004611143565b6104ce565b61024d610292366004611143565b610504565b6040805180820190915260018152603160f81b602082015261018a565b6101ea7f000000000000000000000000000000000000000000000000000000000000000081565b6102246102e93660046111a9565b6001600160a01b031660009081526002602052604090205490565b6102246103123660046111a9565b6001600160a01b031660009081526001602052604090205490565b60408051808201909152600a815269426173654665654c4d4160b01b602082015261018a565b61024d610361366004611143565b61051a565b6101b3610374366004611143565b61052c565b6101b3610387366004611143565b61057b565b6101ea7f000000000000000000000000000000000000000000000000000000000000000081565b61024d6103c136600461116d565b610591565b6004546101ea906001600160a01b031681565b61024d6103e73660046111c4565b610599565b6102246103fa366004611237565b6001600160a01b03918216600090815260036020908152604080832093909416825291909152205490565b6102246107ad565b600061043a33848461089f565b5060015b92915050565b61044c61094d565b610457838383610a20565b505050565b600061046783610afa565b610472848484610a20565b6104c484336104bf85604051806060016040528060288152602001611355602891396001600160a01b038a1660009081526003602090815260408083203384529091529020549190610d00565b61089f565b5060019392505050565b3360008181526003602090815260408083206001600160a01b0387168452909152812054909161043a9185906104bf9086610d2c565b61050c610d3f565b6105168282610de6565b5050565b610522610e79565b6105168282610f99565b600061043a33846104bf8560405180606001604052806025815260200161139d602591393360009081526003602090815260408083206001600160a01b038d1684529091529020549190610d00565b600061058683610afa565b61043a338484610a20565b61044c611041565b428410156105ee5760405162461bcd60e51b815260206004820152601c60248201527f426173654665654c4d413a206578706972656420646561646c696e650000000060448201526064015b60405180910390fd5b60006105f86107ad565b6001600160a01b038916600090815260016020526040812080547f6e71edae12b1b97f4d1f60370fef10105fa2faae0126114a169c64845d6126c9928c928c928c9290919061064683611280565b909155506040805160208101969096526001600160a01b0394851690860152929091166060840152608083015260a082015260c0810187905260e001604051602081830303815290604052805190602001206040516020016106bf92919061190160f01b81526002810192909252602282015260420190565b60408051601f198184030181528282528051602091820120600080855291840180845281905260ff88169284019290925260608301869052608083018590529092509060019060a0016020604051602081039080840390855afa15801561072a573d6000803e3d6000fd5b505050602060405103519050886001600160a01b0316816001600160a01b0316146107975760405162461bcd60e51b815260206004820152601d60248201527f426173654665654c4d413a20696e76616c6964207369676e617475726500000060448201526064016105e5565b6107a289898961089f565b505050505050505050565b60007f000000000000000000000000000000000000000000000000000000000000000046036107fb57507f000000000000000000000000000000000000000000000000000000000000000090565b50604080517f8b73c3c69bb8fe3d512ecc4cf759cc79239f7b179b0ffacaa9a75d522b39400f6020808301919091527f0000000000000000000000000000000000000000000000000000000000000000828401527f000000000000000000000000000000000000000000000000000000000000000060608301524660808301523060a0808401919091528351808403909101815260c0909201909252805191012090565b6001600160a01b0383166108c55760405162461bcd60e51b81526004016105e590611299565b6001600160a01b0382166108eb5760405162461bcd60e51b81526004016105e590611299565b6001600160a01b0383811660008181526003602090815260408083209487168084529482529182902085905590518481527f8c5be1e5ebec7d5bd14f71427d1e84f3dd0314c0f7b2291e5b200ac8c7c3b92591015b60405180910390a3505050565b336001600160a01b037f00000000000000000000000000000000000000000000000000000000000000001614806109ac5750336001600160a01b037f000000000000000000000000000000000000000000000000000000000000000016145b610a1e5760405162461bcd60e51b815260206004820152603c60248201527f426173654665654c4d413a2043616c6c6572206973206e65697468657220547260448201527f6f76654d616e61676572206e6f722053746162696c697479506f6f6c0000000060648201526084016105e5565b565b6001600160a01b038316610a3657610a366112d0565b6001600160a01b038216610a4c57610a4c6112d0565b610a898160405180606001604052806026815260200161132f602691396001600160a01b0386166000908152600260205260409020549190610d00565b6001600160a01b038085166000908152600260205260408082209390935590841681522054610ab89082610d2c565b6001600160a01b03808416600081815260026020526040908190209390935591519085169060008051602061137d833981519152906109409085815260200190565b6001600160a01b03811615801590610b1b57506001600160a01b0381163014155b610bb35760405162461bcd60e51b815260206004820152606060248201527f426173654665654c4d413a2043616e6e6f74207472616e7366657220746f6b6560448201527f6e73206469726563746c7920746f2074686520426173654665654c4d4120746f60648201527f6b656e20636f6e7472616374206f7220746865207a65726f2061646472657373608482015260a4016105e5565b7f00000000000000000000000000000000000000000000000000000000000000006001600160a01b0316816001600160a01b031614158015610c2757507f00000000000000000000000000000000000000000000000000000000000000006001600160a01b0316816001600160a01b031614155b8015610c6557507f00000000000000000000000000000000000000000000000000000000000000006001600160a01b0316816001600160a01b031614155b610cfd5760405162461bcd60e51b815260206004820152605d60248201527f426173654665654c4d413a2043616e6e6f74207472616e7366657220746f6b6560448201527f6e73206469726563746c7920746f207468652053746162696c697479506f6f6c60648201527f2c2054726f76654d616e61676572206f7220426f72726f7765724f7073000000608482015260a4016105e5565b50565b60008184841115610d245760405162461bcd60e51b81526004016105e591906110d9565b505050900390565b6000610d3882846112e6565b9392505050565b336001600160a01b037f0000000000000000000000000000000000000000000000000000000000000000161480610d8057506004546001600160a01b031633145b610a1e5760405162461bcd60e51b815260206004820152603160248201527f426173654665654c4d41546f6b656e3a2043616c6c6572206973206e6f7420426044820152706f72726f7765724f7065726174696f6e7360781b60648201526084016105e5565b6001600160a01b038216610dfc57610dfc6112d0565b600054610e099082610d2c565b60009081556001600160a01b038316815260026020526040902054610e2e9082610d2c565b6001600160a01b03831660008181526002602052604080822093909355915190919060008051602061137d83398151915290610e6d9085815260200190565b60405180910390a35050565b336001600160a01b037f0000000000000000000000000000000000000000000000000000000000000000161480610ed85750336001600160a01b037f000000000000000000000000000000000000000000000000000000000000000016145b80610f0b5750336001600160a01b037f000000000000000000000000000000000000000000000000000000000000000016145b610a1e5760405162461bcd60e51b815260206004820152605360248201527f426173654665654c4d413a2043616c6c6572206973206e65697468657220426f60448201527f72726f7765724f7065726174696f6e73206e6f722054726f76654d616e6167656064820152721c881b9bdc8814dd18589a5b1a5d1e541bdbdb606a1b608482015260a4016105e5565b6001600160a01b038216610faf57610faf6112d0565b610fec8160405180606001604052806022815260200161130d602291396001600160a01b0385166000908152600260205260409020549190610d00565b6001600160a01b0383166000908152600260205260408120919091555461101390826110cd565b60009081556040518281526001600160a01b0384169060008051602061137d83398151915290602001610e6d565b336001600160a01b037f00000000000000000000000000000000000000000000000000000000000000001614610a1e5760405162461bcd60e51b815260206004820152602b60248201527f426173654665654c4d413a2043616c6c6572206973206e6f742074686520537460448201526a18589a5b1a5d1e541bdbdb60aa1b60648201526084016105e5565b6000610d3882846112f9565b600060208083528351808285015260005b81811015611106578581018301518582016040015282016110ea565b506000604082860101526040601f19601f8301168501019250505092915050565b80356001600160a01b038116811461113e57600080fd5b919050565b6000806040838503121561115657600080fd5b61115f83611127565b946020939093013593505050565b60008060006060848603121561118257600080fd5b61118b84611127565b925061119960208501611127565b9150604084013590509250925092565b6000602082840312156111bb57600080fd5b610d3882611127565b600080600080600080600060e0888a0312156111df57600080fd5b6111e888611127565b96506111f660208901611127565b95506040880135945060608801359350608088013560ff8116811461121a57600080fd5b9699959850939692959460a0840135945060c09093013592915050565b6000806040838503121561124a57600080fd5b61125383611127565b915061126160208401611127565b90509250929050565b634e487b7160e01b600052601160045260246000fd5b6000600182016112925761129261126a565b5060010190565b6020808252601e908201527f426173654665654c4d413a207a65726f206164647265737320706172616d0000604082015260600190565b634e487b7160e01b600052600160045260246000fd5b8082018082111561043e5761043e61126a565b8181038181111561043e5761043e61126a56fe45524332303a206275726e20616d6f756e7420657863656564732062616c616e636545524332303a207472616e7366657220616d6f756e7420657863656564732062616c616e636545524332303a207472616e7366657220616d6f756e74206578636565647320616c6c6f77616e6365ddf252ad1be2c89b69c2b068fc378daa952ba7f163c4a11628f55a4df523b3ef45524332303a2064656372656173656420616c6c6f77616e63652062656c6f77207a65726fa2646970667358221220051eeb5f40f8bd055487d6d223191b9a91578e8bab797efbc7cc6d768330ee9864736f6c63430008130033",
  "devdoc": {
    "events": {
      "Approval(address,address,uint256)": {
        "details": "Emitted when the allowance of a `spender` for an `owner` is set by a call to {approve}. `value` is the new allowance."
      },
      "Transfer(address,address,uint256)": {
        "details": "Emitted when `value` tokens are moved from one account (`from`) to another (`to`). Note that `value` may be zero."
      }
    },
    "kind": "dev",
    "methods": {
      "allowance(address,address)": {
        "details": "Returns the remaining number of tokens that `spender` will be allowed to spend on behalf of `owner` through {transferFrom}. This is zero by default. This value changes when {approve} or {transferFrom} are called."
      },
      "approve(address,uint256)": {
        "details": "Sets `amount` as the allowance of `spender` over the caller's tokens. Returns a boolean value indicating whether the operation succeeded. IMPORTANT: Beware that changing an allowance with this method brings the risk that someone may use both the old and the new allowance by unfortunate transaction ordering. One possible solution to mitigate this race condition is to first reduce the spender's allowance to 0 and set the desired value afterwards: https://github.com/ethereum/EIPs/issues/20#issuecomment-263524729 Emits an {Approval} event."
      },
      "balanceOf(address)": {
        "details": "Returns the amount of tokens owned by `account`."
      },
      "nonces(address)": {
        "details": "Returns the current ERC2612 nonce for `owner`. This value must be included whenever a signature is generated for {permit}. Every successful call to {permit} increases `owner`'s nonce by one. This prevents a signature from being used multiple times. `owner` can limit the time a Permit is valid for by setting `deadline` to a value in the near future. The deadline argument can be set to uint(-1) to create Permits that effectively never expire."
      },
      "permit(address,address,uint256,uint256,uint8,bytes32,bytes32)": {
        "details": "Sets `amount` as the allowance of `spender` over `owner`'s tokens, given `owner`'s signed approval. IMPORTANT: The same issues {IERC20-approve} has related to transaction ordering also apply here. Emits an {Approval} event. Requirements: - `owner` cannot be the zero address. - `spender` cannot be the zero address. - `deadline` must be a timestamp in the future. - `v`, `r` and `s` must be a valid `secp256k1` signature from `owner` over the EIP712-formatted function arguments. - the signature must use ``owner``'s current nonce (see {nonces}). For more information on the signature format, see the https://eips.stETHeum.org/EIPS/eip-2612#specification[relevant EIP section]."
      },
      "totalSupply()": {
        "details": "Returns the amount of tokens in existence."
      }
    },
    "version": 1
  },
  "userdoc": {
    "kind": "user",
    "methods": {},
    "version": 1
  },
  "storageLayout": {
    "storage": [
      {
        "astId": 3890,
        "contract": "contracts/BaseFeeLMAToken.sol:BaseFeeLMAToken",
        "label": "_totalSupply",
        "offset": 0,
        "slot": "0",
        "type": "t_uint256"
      },
      {
        "astId": 3920,
        "contract": "contracts/BaseFeeLMAToken.sol:BaseFeeLMAToken",
        "label": "_nonces",
        "offset": 0,
        "slot": "1",
        "type": "t_mapping(t_address,t_uint256)"
      },
      {
        "astId": 3924,
        "contract": "contracts/BaseFeeLMAToken.sol:BaseFeeLMAToken",
        "label": "_balances",
        "offset": 0,
        "slot": "2",
        "type": "t_mapping(t_address,t_uint256)"
      },
      {
        "astId": 3930,
        "contract": "contracts/BaseFeeLMAToken.sol:BaseFeeLMAToken",
        "label": "_allowances",
        "offset": 0,
        "slot": "3",
        "type": "t_mapping(t_address,t_mapping(t_address,t_uint256))"
      },
      {
        "astId": 3938,
        "contract": "contracts/BaseFeeLMAToken.sol:BaseFeeLMAToken",
        "label": "feesRouter",
        "offset": 0,
        "slot": "4",
        "type": "t_address"
      }
    ],
    "types": {
      "t_address": {
        "encoding": "inplace",
        "label": "address",
        "numberOfBytes": "20"
      },
      "t_mapping(t_address,t_mapping(t_address,t_uint256))": {
        "encoding": "mapping",
        "key": "t_address",
        "label": "mapping(address => mapping(address => uint256))",
        "numberOfBytes": "32",
        "value": "t_mapping(t_address,t_uint256)"
      },
      "t_mapping(t_address,t_uint256)": {
        "encoding": "mapping",
        "key": "t_address",
        "label": "mapping(address => uint256)",
        "numberOfBytes": "32",
        "value": "t_uint256"
      },
      "t_uint256": {
        "encoding": "inplace",
        "label": "uint256",
        "numberOfBytes": "32"
      }
    }
  }
}