{
  "address": "0x385F5D492AB54cCD7e10736c45C1cA241E010af1",
  "abi": [
    {
      "anonymous": false,
      "inputs": [
        {
          "indexed": false,
          "internalType": "address",
          "name": "_activePoolAddress",
          "type": "address"
        }
      ],
      "name": "ActivePoolAddressChanged",
      "type": "event"
    },
    {
      "anonymous": false,
      "inputs": [
        {
          "indexed": false,
          "internalType": "address",
          "name": "_newBaseFeeLMATokenAddress",
          "type": "address"
        }
      ],
      "name": "BaseFeeLMATokenAddressChanged",
      "type": "event"
    },
    {
      "anonymous": false,
      "inputs": [
        {
          "indexed": false,
          "internalType": "uint256",
          "name": "_borrowBaseRate",
          "type": "uint256"
        }
      ],
      "name": "BorrowBaseRateUpdated",
      "type": "event"
    },
    {
      "anonymous": false,
      "inputs": [
        {
          "indexed": false,
          "internalType": "address",
          "name": "_newBorrowerOperationsAddress",
          "type": "address"
        }
      ],
      "name": "BorrowerOperationsAddressChanged",
      "type": "event"
    },
    {
      "anonymous": false,
      "inputs": [
        {
          "indexed": false,
          "internalType": "address",
          "name": "_collSurplusPoolAddress",
          "type": "address"
        }
      ],
      "name": "CollSurplusPoolAddressChanged",
      "type": "event"
    },
    {
      "anonymous": false,
      "inputs": [
        {
          "indexed": false,
          "internalType": "address",
          "name": "_defaultPoolAddress",
          "type": "address"
        }
      ],
      "name": "DefaultPoolAddressChanged",
      "type": "event"
    },
    {
      "anonymous": false,
      "inputs": [
        {
          "indexed": false,
          "internalType": "contract IFeesRouter",
          "name": "_feesRouter",
          "type": "address"
        }
      ],
      "name": "FeesRouterAddressUpdated",
      "type": "event"
    },
    {
      "anonymous": false,
      "inputs": [
        {
          "indexed": false,
          "internalType": "address",
          "name": "_gasPoolAddress",
          "type": "address"
        }
      ],
      "name": "GasPoolAddressChanged",
      "type": "event"
    },
    {
      "anonymous": false,
      "inputs": [
        {
          "indexed": false,
          "internalType": "address",
          "name": "_hogStakingAddress",
          "type": "address"
        }
      ],
      "name": "HOGStakingAddressChanged",
      "type": "event"
    },
    {
      "anonymous": false,
      "inputs": [
        {
          "indexed": false,
          "internalType": "address",
          "name": "_hogTokenAddress",
          "type": "address"
        }
      ],
      "name": "HOGTokenAddressChanged",
      "type": "event"
    },
    {
      "anonymous": false,
      "inputs": [
        {
          "indexed": false,
          "internalType": "uint256",
          "name": "_L_StETH",
          "type": "uint256"
        },
        {
          "indexed": false,
          "internalType": "uint256",
          "name": "_L_BaseFeeLMADebt",
          "type": "uint256"
        }
      ],
      "name": "LTermsUpdated",
      "type": "event"
    },
    {
      "anonymous": false,
      "inputs": [
        {
          "indexed": false,
          "internalType": "uint256",
          "name": "_lastBorrowTime",
          "type": "uint256"
        }
      ],
      "name": "LastBorrowTimeUpdated",
      "type": "event"
    },
    {
      "anonymous": false,
      "inputs": [
        {
          "indexed": false,
          "internalType": "uint256",
          "name": "_lastRedemptionTime",
          "type": "uint256"
        }
      ],
      "name": "LastRedemptionTimeUpdated",
      "type": "event"
    },
    {
      "anonymous": false,
      "inputs": [
        {
          "indexed": false,
          "internalType": "uint256",
          "name": "_liquidatedDebt",
          "type": "uint256"
        },
        {
          "indexed": false,
          "internalType": "uint256",
          "name": "_liquidatedColl",
          "type": "uint256"
        },
        {
          "indexed": false,
          "internalType": "uint256",
          "name": "_collGasCompensation",
          "type": "uint256"
        },
        {
          "indexed": false,
          "internalType": "uint256",
          "name": "_BaseFeeLMAGasCompensation",
          "type": "uint256"
        }
      ],
      "name": "Liquidation",
      "type": "event"
    },
    {
      "anonymous": false,
      "inputs": [
        {
          "indexed": true,
          "internalType": "address",
          "name": "previousOwner",
          "type": "address"
        },
        {
          "indexed": true,
          "internalType": "address",
          "name": "newOwner",
          "type": "address"
        }
      ],
      "name": "OwnershipTransferred",
      "type": "event"
    },
    {
      "anonymous": false,
      "inputs": [
        {
          "indexed": false,
          "internalType": "address",
          "name": "_newPriceFeedAddress",
          "type": "address"
        }
      ],
      "name": "PriceFeedAddressChanged",
      "type": "event"
    },
    {
      "anonymous": false,
      "inputs": [
        {
          "indexed": false,
          "internalType": "uint256",
          "name": "_attemptedBaseFeeLMAAmount",
          "type": "uint256"
        },
        {
          "indexed": false,
          "internalType": "uint256",
          "name": "_actualBaseFeeLMAAmount",
          "type": "uint256"
        },
        {
          "indexed": false,
          "internalType": "uint256",
          "name": "_StETHSent",
          "type": "uint256"
        },
        {
          "indexed": false,
          "internalType": "uint256",
          "name": "_StETHFee",
          "type": "uint256"
        }
      ],
      "name": "Redemption",
      "type": "event"
    },
    {
      "anonymous": false,
      "inputs": [
        {
          "indexed": false,
          "internalType": "uint256",
          "name": "_redemptionBaseRate",
          "type": "uint256"
        }
      ],
      "name": "RedemptionBaseRateUpdated",
      "type": "event"
    },
    {
      "anonymous": false,
      "inputs": [
        {
          "indexed": false,
          "internalType": "address",
          "name": "_sortedTrovesAddress",
          "type": "address"
        }
      ],
      "name": "SortedTrovesAddressChanged",
      "type": "event"
    },
    {
      "anonymous": false,
      "inputs": [
        {
          "indexed": false,
          "internalType": "address",
          "name": "_stabilityPoolAddress",
          "type": "address"
        }
      ],
      "name": "StabilityPoolAddressChanged",
      "type": "event"
    },
    {
      "anonymous": false,
      "inputs": [
        {
          "indexed": false,
          "internalType": "uint256",
          "name": "_totalStakesSnapshot",
          "type": "uint256"
        },
        {
          "indexed": false,
          "internalType": "uint256",
          "name": "_totalCollateralSnapshot",
          "type": "uint256"
        }
      ],
      "name": "SystemSnapshotsUpdated",
      "type": "event"
    },
    {
      "anonymous": false,
      "inputs": [
        {
          "indexed": false,
          "internalType": "uint256",
          "name": "_newTotalStakes",
          "type": "uint256"
        }
      ],
      "name": "TotalStakesUpdated",
      "type": "event"
    },
    {
      "anonymous": false,
      "inputs": [
        {
          "indexed": false,
          "internalType": "address",
          "name": "_borrower",
          "type": "address"
        },
        {
          "indexed": false,
          "internalType": "uint256",
          "name": "_newIndex",
          "type": "uint256"
        }
      ],
      "name": "TroveIndexUpdated",
      "type": "event"
    },
    {
      "anonymous": false,
      "inputs": [
        {
          "indexed": true,
          "internalType": "address",
          "name": "_borrower",
          "type": "address"
        },
        {
          "indexed": false,
          "internalType": "uint256",
          "name": "_debt",
          "type": "uint256"
        },
        {
          "indexed": false,
          "internalType": "uint256",
          "name": "_coll",
          "type": "uint256"
        },
        {
          "indexed": false,
          "internalType": "enum TroveManager.TroveManagerOperation",
          "name": "_operation",
          "type": "uint8"
        }
      ],
      "name": "TroveLiquidated",
      "type": "event"
    },
    {
      "anonymous": false,
      "inputs": [
        {
          "indexed": false,
          "internalType": "uint256",
          "name": "_L_StETH",
          "type": "uint256"
        },
        {
          "indexed": false,
          "internalType": "uint256",
          "name": "_L_BaseFeeLMADebt",
          "type": "uint256"
        }
      ],
      "name": "TroveSnapshotsUpdated",
      "type": "event"
    },
    {
      "anonymous": false,
      "inputs": [
        {
          "indexed": true,
          "internalType": "address",
          "name": "_borrower",
          "type": "address"
        },
        {
          "indexed": false,
          "internalType": "uint256",
          "name": "_debt",
          "type": "uint256"
        },
        {
          "indexed": false,
          "internalType": "uint256",
          "name": "_coll",
          "type": "uint256"
        },
        {
          "indexed": false,
          "internalType": "uint256",
          "name": "_stake",
          "type": "uint256"
        },
        {
          "indexed": false,
          "internalType": "enum TroveManager.TroveManagerOperation",
          "name": "_operation",
          "type": "uint8"
        }
      ],
      "name": "TroveUpdated",
      "type": "event"
    },
    {
      "inputs": [],
      "name": "BETA",
      "outputs": [
        {
          "internalType": "uint256",
          "name": "",
          "type": "uint256"
        }
      ],
      "stateMutability": "view",
      "type": "function"
    },
    {
      "inputs": [],
      "name": "BOOTSTRAP_PERIOD",
      "outputs": [
        {
          "internalType": "uint256",
          "name": "",
          "type": "uint256"
        }
      ],
      "stateMutability": "view",
      "type": "function"
    },
    {
      "inputs": [],
      "name": "BORROWING_FEE_FLOOR",
      "outputs": [
        {
          "internalType": "uint256",
          "name": "",
          "type": "uint256"
        }
      ],
      "stateMutability": "view",
      "type": "function"
    },
    {
      "inputs": [],
      "name": "BaseFeeLMA_GAS_COMPENSATION",
      "outputs": [
        {
          "internalType": "uint256",
          "name": "",
          "type": "uint256"
        }
      ],
      "stateMutability": "view",
      "type": "function"
    },
    {
      "inputs": [],
      "name": "CCR",
      "outputs": [
        {
          "internalType": "uint256",
          "name": "",
          "type": "uint256"
        }
      ],
      "stateMutability": "view",
      "type": "function"
    },
    {
      "inputs": [],
      "name": "DECIMAL_PRECISION",
      "outputs": [
        {
          "internalType": "uint256",
          "name": "",
          "type": "uint256"
        }
      ],
      "stateMutability": "view",
      "type": "function"
    },
    {
      "inputs": [],
      "name": "L_BaseFeeLMADebt",
      "outputs": [
        {
          "internalType": "uint256",
          "name": "",
          "type": "uint256"
        }
      ],
      "stateMutability": "view",
      "type": "function"
    },
    {
      "inputs": [],
      "name": "L_StETH",
      "outputs": [
        {
          "internalType": "uint256",
          "name": "",
          "type": "uint256"
        }
      ],
      "stateMutability": "view",
      "type": "function"
    },
    {
      "inputs": [],
      "name": "MAX_BORROWING_FEE",
      "outputs": [
        {
          "internalType": "uint256",
          "name": "",
          "type": "uint256"
        }
      ],
      "stateMutability": "view",
      "type": "function"
    },
    {
      "inputs": [],
      "name": "MCR",
      "outputs": [
        {
          "internalType": "uint256",
          "name": "",
          "type": "uint256"
        }
      ],
      "stateMutability": "view",
      "type": "function"
    },
    {
      "inputs": [],
      "name": "MINUTE_DECAY_BORROWING_FACTOR",
      "outputs": [
        {
          "internalType": "uint256",
          "name": "",
          "type": "uint256"
        }
      ],
      "stateMutability": "view",
      "type": "function"
    },
    {
      "inputs": [],
      "name": "MINUTE_DECAY_REDEMPTION_FACTOR",
      "outputs": [
        {
          "internalType": "uint256",
          "name": "",
          "type": "uint256"
        }
      ],
      "stateMutability": "view",
      "type": "function"
    },
    {
      "inputs": [],
      "name": "MIN_NET_DEBT",
      "outputs": [
        {
          "internalType": "uint256",
          "name": "",
          "type": "uint256"
        }
      ],
      "stateMutability": "view",
      "type": "function"
    },
    {
      "inputs": [],
      "name": "NAME",
      "outputs": [
        {
          "internalType": "string",
          "name": "",
          "type": "string"
        }
      ],
      "stateMutability": "view",
      "type": "function"
    },
    {
      "inputs": [],
      "name": "PERCENT_DIVISOR",
      "outputs": [
        {
          "internalType": "uint256",
          "name": "",
          "type": "uint256"
        }
      ],
      "stateMutability": "view",
      "type": "function"
    },
    {
      "inputs": [],
      "name": "REDEMPTION_FEE_FLOOR",
      "outputs": [
        {
          "internalType": "uint256",
          "name": "",
          "type": "uint256"
        }
      ],
      "stateMutability": "view",
      "type": "function"
    },
    {
      "inputs": [],
      "name": "SECONDS_IN_ONE_MINUTE",
      "outputs": [
        {
          "internalType": "uint256",
          "name": "",
          "type": "uint256"
        }
      ],
      "stateMutability": "view",
      "type": "function"
    },
    {
      "inputs": [
        {
          "internalType": "uint256",
          "name": "",
          "type": "uint256"
        }
      ],
      "name": "TroveOwners",
      "outputs": [
        {
          "internalType": "address",
          "name": "",
          "type": "address"
        }
      ],
      "stateMutability": "view",
      "type": "function"
    },
    {
      "inputs": [
        {
          "internalType": "address",
          "name": "",
          "type": "address"
        }
      ],
      "name": "Troves",
      "outputs": [
        {
          "internalType": "uint256",
          "name": "debt",
          "type": "uint256"
        },
        {
          "internalType": "uint256",
          "name": "coll",
          "type": "uint256"
        },
        {
          "internalType": "uint256",
          "name": "stake",
          "type": "uint256"
        },
        {
          "internalType": "enum TroveManager.Status",
          "name": "status",
          "type": "uint8"
        },
        {
          "internalType": "uint128",
          "name": "arrayIndex",
          "type": "uint128"
        }
      ],
      "stateMutability": "view",
      "type": "function"
    },
    {
      "inputs": [],
      "name": "_100pct",
      "outputs": [
        {
          "internalType": "uint256",
          "name": "",
          "type": "uint256"
        }
      ],
      "stateMutability": "view",
      "type": "function"
    },
    {
      "inputs": [],
      "name": "activePool",
      "outputs": [
        {
          "internalType": "contract IActivePool",
          "name": "",
          "type": "address"
        }
      ],
      "stateMutability": "view",
      "type": "function"
    },
    {
      "inputs": [
        {
          "internalType": "address",
          "name": "_borrower",
          "type": "address"
        }
      ],
      "name": "addTroveOwnerToArray",
      "outputs": [
        {
          "internalType": "uint256",
          "name": "index",
          "type": "uint256"
        }
      ],
      "stateMutability": "nonpayable",
      "type": "function"
    },
    {
      "inputs": [
        {
          "internalType": "address",
          "name": "_borrower",
          "type": "address"
        }
      ],
      "name": "applyPendingRewards",
      "outputs": [],
      "stateMutability": "nonpayable",
      "type": "function"
    },
    {
      "inputs": [],
      "name": "baseFeeLMAToken",
      "outputs": [
        {
          "internalType": "contract IBaseFeeLMAToken",
          "name": "",
          "type": "address"
        }
      ],
      "stateMutability": "view",
      "type": "function"
    },
    {
      "inputs": [
        {
          "internalType": "address[]",
          "name": "_troveArray",
          "type": "address[]"
        }
      ],
      "name": "batchLiquidateTroves",
      "outputs": [],
      "stateMutability": "nonpayable",
      "type": "function"
    },
    {
      "inputs": [],
      "name": "borrowBaseRate",
      "outputs": [
        {
          "internalType": "uint256",
          "name": "",
          "type": "uint256"
        }
      ],
      "stateMutability": "view",
      "type": "function"
    },
    {
      "inputs": [],
      "name": "borrowerOperationsAddress",
      "outputs": [
        {
          "internalType": "address",
          "name": "",
          "type": "address"
        }
      ],
      "stateMutability": "view",
      "type": "function"
    },
    {
      "inputs": [
        {
          "internalType": "uint256",
          "name": "_price",
          "type": "uint256"
        }
      ],
      "name": "checkRecoveryMode",
      "outputs": [
        {
          "internalType": "bool",
          "name": "",
          "type": "bool"
        }
      ],
      "stateMutability": "view",
      "type": "function"
    },
    {
      "inputs": [],
      "name": "checkUnreliableRecoveryMode",
      "outputs": [
        {
          "internalType": "bool",
          "name": "",
          "type": "bool"
        }
      ],
      "stateMutability": "view",
      "type": "function"
    },
    {
      "inputs": [
        {
          "internalType": "address",
          "name": "_borrower",
          "type": "address"
        }
      ],
      "name": "closeTrove",
      "outputs": [],
      "stateMutability": "nonpayable",
      "type": "function"
    },
    {
      "inputs": [],
      "name": "decayBaseRateFromBorrowing",
      "outputs": [],
      "stateMutability": "nonpayable",
      "type": "function"
    },
    {
      "inputs": [
        {
          "internalType": "address",
          "name": "_borrower",
          "type": "address"
        },
        {
          "internalType": "uint256",
          "name": "_collDecrease",
          "type": "uint256"
        }
      ],
      "name": "decreaseTroveColl",
      "outputs": [
        {
          "internalType": "uint256",
          "name": "",
          "type": "uint256"
        }
      ],
      "stateMutability": "nonpayable",
      "type": "function"
    },
    {
      "inputs": [
        {
          "internalType": "address",
          "name": "_borrower",
          "type": "address"
        },
        {
          "internalType": "uint256",
          "name": "_debtDecrease",
          "type": "uint256"
        }
      ],
      "name": "decreaseTroveDebt",
      "outputs": [
        {
          "internalType": "uint256",
          "name": "",
          "type": "uint256"
        }
      ],
      "stateMutability": "nonpayable",
      "type": "function"
    },
    {
      "inputs": [],
      "name": "defaultPool",
      "outputs": [
        {
          "internalType": "contract IDefaultPool",
          "name": "",
          "type": "address"
        }
      ],
      "stateMutability": "view",
      "type": "function"
    },
    {
      "inputs": [],
      "name": "feesRouter",
      "outputs": [
        {
          "internalType": "contract IFeesRouter",
          "name": "",
          "type": "address"
        }
      ],
      "stateMutability": "view",
      "type": "function"
    },
    {
      "inputs": [
        {
          "internalType": "uint256",
          "name": "_BaseFeeLMADebt",
          "type": "uint256"
        }
      ],
      "name": "getBorrowingFee",
      "outputs": [
        {
          "internalType": "uint256",
          "name": "",
          "type": "uint256"
        },
        {
          "internalType": "uint256",
          "name": "",
          "type": "uint256"
        }
      ],
      "stateMutability": "view",
      "type": "function"
    },
    {
      "inputs": [
        {
          "internalType": "uint256",
          "name": "_BaseFeeLMADebt",
          "type": "uint256"
        }
      ],
      "name": "getBorrowingFeeWithDecay",
      "outputs": [
        {
          "internalType": "uint256",
          "name": "",
          "type": "uint256"
        }
      ],
      "stateMutability": "view",
      "type": "function"
    },
    {
      "inputs": [
        {
          "internalType": "uint256",
          "name": "_issuedBaseFeeLMA",
          "type": "uint256"
        }
      ],
      "name": "getBorrowingRate",
      "outputs": [
        {
          "internalType": "uint256",
          "name": "",
          "type": "uint256"
        }
      ],
      "stateMutability": "view",
      "type": "function"
    },
    {
      "inputs": [
        {
          "internalType": "uint256",
          "name": "_issuedBaseFeeLMA",
          "type": "uint256"
        }
      ],
      "name": "getBorrowingRateWithDecay",
      "outputs": [
        {
          "internalType": "uint256",
          "name": "",
          "type": "uint256"
        }
      ],
      "stateMutability": "view",
      "type": "function"
    },
    {
      "inputs": [
        {
          "internalType": "address",
          "name": "_borrower",
          "type": "address"
        },
        {
          "internalType": "uint256",
          "name": "_price",
          "type": "uint256"
        }
      ],
      "name": "getCurrentICR",
      "outputs": [
        {
          "internalType": "uint256",
          "name": "",
          "type": "uint256"
        }
      ],
      "stateMutability": "view",
      "type": "function"
    },
    {
      "inputs": [
        {
          "internalType": "address",
          "name": "_borrower",
          "type": "address"
        }
      ],
      "name": "getEntireDebtAndColl",
      "outputs": [
        {
          "internalType": "uint256",
          "name": "debt",
          "type": "uint256"
        },
        {
          "internalType": "uint256",
          "name": "coll",
          "type": "uint256"
        },
        {
          "internalType": "uint256",
          "name": "pendingBaseFeeLMADebtReward",
          "type": "uint256"
        },
        {
          "internalType": "uint256",
          "name": "pendingStETHReward",
          "type": "uint256"
        }
      ],
      "stateMutability": "view",
      "type": "function"
    },
    {
      "inputs": [],
      "name": "getEntireSystemColl",
      "outputs": [
        {
          "internalType": "uint256",
          "name": "entireSystemColl",
          "type": "uint256"
        }
      ],
      "stateMutability": "view",
      "type": "function"
    },
    {
      "inputs": [],
      "name": "getEntireSystemDebt",
      "outputs": [
        {
          "internalType": "uint256",
          "name": "entireSystemDebt",
          "type": "uint256"
        }
      ],
      "stateMutability": "view",
      "type": "function"
    },
    {
      "inputs": [
        {
          "internalType": "address",
          "name": "_borrower",
          "type": "address"
        }
      ],
      "name": "getNominalICR",
      "outputs": [
        {
          "internalType": "uint256",
          "name": "",
          "type": "uint256"
        }
      ],
      "stateMutability": "view",
      "type": "function"
    },
    {
      "inputs": [
        {
          "internalType": "uint256",
          "name": "_coll",
          "type": "uint256"
        },
        {
          "internalType": "uint256",
          "name": "_debt",
          "type": "uint256"
        }
      ],
      "name": "getNormalLiquidationPrice",
      "outputs": [
        {
          "internalType": "uint256",
          "name": "",
          "type": "uint256"
        }
      ],
      "stateMutability": "pure",
      "type": "function"
    },
    {
      "inputs": [
        {
          "internalType": "address",
          "name": "_borrower",
          "type": "address"
        }
      ],
      "name": "getPendingBaseFeeLMADebtReward",
      "outputs": [
        {
          "internalType": "uint256",
          "name": "",
          "type": "uint256"
        }
      ],
      "stateMutability": "view",
      "type": "function"
    },
    {
      "inputs": [
        {
          "internalType": "address",
          "name": "_borrower",
          "type": "address"
        }
      ],
      "name": "getPendingStETHReward",
      "outputs": [
        {
          "internalType": "uint256",
          "name": "",
          "type": "uint256"
        }
      ],
      "stateMutability": "view",
      "type": "function"
    },
    {
      "inputs": [
        {
          "internalType": "uint256",
          "name": "_coll",
          "type": "uint256"
        },
        {
          "internalType": "uint256",
          "name": "_debt",
          "type": "uint256"
        }
      ],
      "name": "getRecoveryLiquidationPrice",
      "outputs": [
        {
          "internalType": "uint256",
          "name": "",
          "type": "uint256"
        }
      ],
      "stateMutability": "pure",
      "type": "function"
    },
    {
      "inputs": [
        {
          "internalType": "uint256",
          "name": "_StETHDrawn",
          "type": "uint256"
        }
      ],
      "name": "getRedemptionFeeWithDecay",
      "outputs": [
        {
          "internalType": "uint256",
          "name": "",
          "type": "uint256"
        }
      ],
      "stateMutability": "view",
      "type": "function"
    },
    {
      "inputs": [
        {
          "internalType": "uint256",
          "name": "_redemptionColl",
          "type": "uint256"
        }
      ],
      "name": "getRedemptionRate",
      "outputs": [
        {
          "internalType": "uint256",
          "name": "",
          "type": "uint256"
        }
      ],
      "stateMutability": "view",
      "type": "function"
    },
    {
      "inputs": [
        {
          "internalType": "uint256",
          "name": "_redemptionColl",
          "type": "uint256"
        }
      ],
      "name": "getRedemptionRateWithDecay",
      "outputs": [
        {
          "internalType": "uint256",
          "name": "",
          "type": "uint256"
        }
      ],
      "stateMutability": "view",
      "type": "function"
    },
    {
      "inputs": [
        {
          "internalType": "uint256",
          "name": "_price",
          "type": "uint256"
        }
      ],
      "name": "getTCR",
      "outputs": [
        {
          "internalType": "uint256",
          "name": "",
          "type": "uint256"
        }
      ],
      "stateMutability": "view",
      "type": "function"
    },
    {
      "inputs": [
        {
          "internalType": "address",
          "name": "_borrower",
          "type": "address"
        }
      ],
      "name": "getTroveColl",
      "outputs": [
        {
          "internalType": "uint256",
          "name": "",
          "type": "uint256"
        }
      ],
      "stateMutability": "view",
      "type": "function"
    },
    {
      "inputs": [
        {
          "internalType": "address",
          "name": "_borrower",
          "type": "address"
        }
      ],
      "name": "getTroveDebt",
      "outputs": [
        {
          "internalType": "uint256",
          "name": "",
          "type": "uint256"
        }
      ],
      "stateMutability": "view",
      "type": "function"
    },
    {
      "inputs": [
        {
          "internalType": "uint256",
          "name": "_index",
          "type": "uint256"
        }
      ],
      "name": "getTroveFromTroveOwnersArray",
      "outputs": [
        {
          "internalType": "address",
          "name": "",
          "type": "address"
        }
      ],
      "stateMutability": "view",
      "type": "function"
    },
    {
      "inputs": [],
      "name": "getTroveOwnersCount",
      "outputs": [
        {
          "internalType": "uint256",
          "name": "",
          "type": "uint256"
        }
      ],
      "stateMutability": "view",
      "type": "function"
    },
    {
      "inputs": [
        {
          "internalType": "address",
          "name": "_borrower",
          "type": "address"
        }
      ],
      "name": "getTroveStake",
      "outputs": [
        {
          "internalType": "uint256",
          "name": "",
          "type": "uint256"
        }
      ],
      "stateMutability": "view",
      "type": "function"
    },
    {
      "inputs": [
        {
          "internalType": "address",
          "name": "_borrower",
          "type": "address"
        }
      ],
      "name": "getTroveStatus",
      "outputs": [
        {
          "internalType": "uint256",
          "name": "",
          "type": "uint256"
        }
      ],
      "stateMutability": "view",
      "type": "function"
    },
    {
      "inputs": [],
      "name": "getUnreliableTCR",
      "outputs": [
        {
          "internalType": "uint256",
          "name": "",
          "type": "uint256"
        }
      ],
      "stateMutability": "view",
      "type": "function"
    },
    {
      "inputs": [
        {
          "internalType": "address",
          "name": "_borrower",
          "type": "address"
        }
      ],
      "name": "getUnreliableTroveICR",
      "outputs": [
        {
          "internalType": "uint256",
          "name": "",
          "type": "uint256"
        }
      ],
      "stateMutability": "view",
      "type": "function"
    },
    {
      "inputs": [
        {
          "internalType": "address",
          "name": "_borrower",
          "type": "address"
        }
      ],
      "name": "hasPendingRewards",
      "outputs": [
        {
          "internalType": "bool",
          "name": "",
          "type": "bool"
        }
      ],
      "stateMutability": "view",
      "type": "function"
    },
    {
      "inputs": [],
      "name": "hogStaking",
      "outputs": [
        {
          "internalType": "contract IHOGStaking",
          "name": "",
          "type": "address"
        }
      ],
      "stateMutability": "view",
      "type": "function"
    },
    {
      "inputs": [],
      "name": "hogToken",
      "outputs": [
        {
          "internalType": "contract IHOGToken",
          "name": "",
          "type": "address"
        }
      ],
      "stateMutability": "view",
      "type": "function"
    },
    {
      "inputs": [
        {
          "internalType": "address",
          "name": "_borrower",
          "type": "address"
        },
        {
          "internalType": "uint256",
          "name": "_collIncrease",
          "type": "uint256"
        }
      ],
      "name": "increaseTroveColl",
      "outputs": [
        {
          "internalType": "uint256",
          "name": "",
          "type": "uint256"
        }
      ],
      "stateMutability": "nonpayable",
      "type": "function"
    },
    {
      "inputs": [
        {
          "internalType": "address",
          "name": "_borrower",
          "type": "address"
        },
        {
          "internalType": "uint256",
          "name": "_debtIncrease",
          "type": "uint256"
        }
      ],
      "name": "increaseTroveDebt",
      "outputs": [
        {
          "internalType": "uint256",
          "name": "",
          "type": "uint256"
        }
      ],
      "stateMutability": "nonpayable",
      "type": "function"
    },
    {
      "inputs": [],
      "name": "lastBaseFeeLMADebtError_Redistribution",
      "outputs": [
        {
          "internalType": "uint256",
          "name": "",
          "type": "uint256"
        }
      ],
      "stateMutability": "view",
      "type": "function"
    },
    {
      "inputs": [],
      "name": "lastBorrowTime",
      "outputs": [
        {
          "internalType": "uint256",
          "name": "",
          "type": "uint256"
        }
      ],
      "stateMutability": "view",
      "type": "function"
    },
    {
      "inputs": [],
      "name": "lastRedemptionTime",
      "outputs": [
        {
          "internalType": "uint256",
          "name": "",
          "type": "uint256"
        }
      ],
      "stateMutability": "view",
      "type": "function"
    },
    {
      "inputs": [],
      "name": "lastStETHError_Redistribution",
      "outputs": [
        {
          "internalType": "uint256",
          "name": "",
          "type": "uint256"
        }
      ],
      "stateMutability": "view",
      "type": "function"
    },
    {
      "inputs": [
        {
          "internalType": "address",
          "name": "_borrower",
          "type": "address"
        }
      ],
      "name": "liquidate",
      "outputs": [],
      "stateMutability": "nonpayable",
      "type": "function"
    },
    {
      "inputs": [
        {
          "internalType": "uint256",
          "name": "_n",
          "type": "uint256"
        }
      ],
      "name": "liquidateTroves",
      "outputs": [],
      "stateMutability": "nonpayable",
      "type": "function"
    },
    {
      "inputs": [],
      "name": "owner",
      "outputs": [
        {
          "internalType": "address",
          "name": "",
          "type": "address"
        }
      ],
      "stateMutability": "view",
      "type": "function"
    },
    {
      "inputs": [],
      "name": "priceFeed",
      "outputs": [
        {
          "internalType": "contract IPriceFeed",
          "name": "",
          "type": "address"
        }
      ],
      "stateMutability": "view",
      "type": "function"
    },
    {
      "inputs": [
        {
          "internalType": "uint256",
          "name": "_BaseFeeLMAamount",
          "type": "uint256"
        },
        {
          "internalType": "address",
          "name": "_firstRedemptionHint",
          "type": "address"
        },
        {
          "internalType": "address",
          "name": "_upperPartialRedemptionHint",
          "type": "address"
        },
        {
          "internalType": "address",
          "name": "_lowerPartialRedemptionHint",
          "type": "address"
        },
        {
          "internalType": "uint256",
          "name": "_partialRedemptionHintNICR",
          "type": "uint256"
        },
        {
          "internalType": "uint256",
          "name": "_maxIterations",
          "type": "uint256"
        },
        {
          "internalType": "uint256",
          "name": "_maxFeePercentage",
          "type": "uint256"
        }
      ],
      "name": "redeemCollateral",
      "outputs": [],
      "stateMutability": "nonpayable",
      "type": "function"
    },
    {
      "inputs": [],
      "name": "redemptionBaseRate",
      "outputs": [
        {
          "internalType": "uint256",
          "name": "",
          "type": "uint256"
        }
      ],
      "stateMutability": "view",
      "type": "function"
    },
    {
      "inputs": [
        {
          "internalType": "address",
          "name": "_borrower",
          "type": "address"
        }
      ],
      "name": "removeStake",
      "outputs": [],
      "stateMutability": "nonpayable",
      "type": "function"
    },
    {
      "inputs": [],
      "name": "renounceOwnership",
      "outputs": [],
      "stateMutability": "nonpayable",
      "type": "function"
    },
    {
      "inputs": [
        {
          "internalType": "address",
          "name": "",
          "type": "address"
        }
      ],
      "name": "rewardSnapshots",
      "outputs": [
        {
          "internalType": "uint256",
          "name": "StETH",
          "type": "uint256"
        },
        {
          "internalType": "uint256",
          "name": "BaseFeeLMADebt",
          "type": "uint256"
        }
      ],
      "stateMutability": "view",
      "type": "function"
    },
    {
      "inputs": [
        {
          "internalType": "address",
          "name": "_borrowerOperationsAddress",
          "type": "address"
        },
        {
          "internalType": "address",
          "name": "_activePoolAddress",
          "type": "address"
        },
        {
          "internalType": "address",
          "name": "_defaultPoolAddress",
          "type": "address"
        },
        {
          "internalType": "address",
          "name": "_stabilityPoolAddress",
          "type": "address"
        },
        {
          "internalType": "address",
          "name": "_gasPoolAddress",
          "type": "address"
        },
        {
          "internalType": "address",
          "name": "_collSurplusPoolAddress",
          "type": "address"
        },
        {
          "internalType": "address",
          "name": "_priceFeedAddress",
          "type": "address"
        },
        {
          "internalType": "address",
          "name": "_baseFeeLMATokenAddress",
          "type": "address"
        },
        {
          "internalType": "address",
          "name": "_sortedTrovesAddress",
          "type": "address"
        },
        {
          "internalType": "address",
          "name": "_hogTokenAddress",
          "type": "address"
        },
        {
          "internalType": "address",
          "name": "_hogStakingAddress",
          "type": "address"
        },
        {
          "internalType": "contract IFeesRouter",
          "name": "_feesRouterAddress",
          "type": "address"
        }
      ],
      "name": "setAddresses",
      "outputs": [],
      "stateMutability": "nonpayable",
      "type": "function"
    },
    {
      "inputs": [
        {
          "internalType": "address",
          "name": "_borrower",
          "type": "address"
        },
        {
          "internalType": "uint256",
          "name": "_num",
          "type": "uint256"
        }
      ],
      "name": "setTroveStatus",
      "outputs": [],
      "stateMutability": "nonpayable",
      "type": "function"
    },
    {
      "inputs": [],
      "name": "sortedTroves",
      "outputs": [
        {
          "internalType": "contract ISortedTroves",
          "name": "",
          "type": "address"
        }
      ],
      "stateMutability": "view",
      "type": "function"
    },
    {
      "inputs": [],
      "name": "stabilityPool",
      "outputs": [
        {
          "internalType": "contract IStabilityPool",
          "name": "",
          "type": "address"
        }
      ],
      "stateMutability": "view",
      "type": "function"
    },
    {
      "inputs": [],
      "name": "totalCollateralSnapshot",
      "outputs": [
        {
          "internalType": "uint256",
          "name": "",
          "type": "uint256"
        }
      ],
      "stateMutability": "view",
      "type": "function"
    },
    {
      "inputs": [],
      "name": "totalStakes",
      "outputs": [
        {
          "internalType": "uint256",
          "name": "",
          "type": "uint256"
        }
      ],
      "stateMutability": "view",
      "type": "function"
    },
    {
      "inputs": [],
      "name": "totalStakesSnapshot",
      "outputs": [
        {
          "internalType": "uint256",
          "name": "",
          "type": "uint256"
        }
      ],
      "stateMutability": "view",
      "type": "function"
    },
    {
      "inputs": [
        {
          "internalType": "address",
          "name": "newOwner",
          "type": "address"
        }
      ],
      "name": "transferOwnership",
      "outputs": [],
      "stateMutability": "nonpayable",
      "type": "function"
    },
    {
      "inputs": [
        {
          "internalType": "uint256",
          "name": "_newBaseRate",
          "type": "uint256"
        }
      ],
      "name": "updateBaseRateFromBorrowing",
      "outputs": [],
      "stateMutability": "nonpayable",
      "type": "function"
    },
    {
      "inputs": [
        {
          "internalType": "address",
          "name": "_borrower",
          "type": "address"
        }
      ],
      "name": "updateStakeAndTotalStakes",
      "outputs": [
        {
          "internalType": "uint256",
          "name": "",
          "type": "uint256"
        }
      ],
      "stateMutability": "nonpayable",
      "type": "function"
    },
    {
      "inputs": [
        {
          "internalType": "address",
          "name": "_borrower",
          "type": "address"
        }
      ],
      "name": "updateTroveRewardSnapshots",
      "outputs": [],
      "stateMutability": "nonpayable",
      "type": "function"
    }
  ],
  "transactionHash": "0x20c9061a0e384227387dce610454bda2d330ae24eaba89ec7a0eb961cad03812",
  "args": [],
  "numDeployments": 1,
  "solcInputHash": "38381ae1cf0ba5ed5e8152cd6d46b5bc",
  "bytecode": "0x60806040523480156200001157600080fd5b506200001d3362000023565b62000075565b600380546001600160a01b038381166001600160a01b0319831681179093556040519116919082907f8be0079c531659141344cd1fd0a4f28419497f9722a3daafe3b4186f6b6457e090600090a35050565b615d6c80620000856000396000f3fe608060405234801561001057600080fd5b50600436106104e35760003560e01c8063807d138d1161028e578063bb6f030c11610167578063d3d6f843116100d9578063e2ac77b011610092578063e2ac77b014610b01578063e324634914610b14578063f2fde38b14610b1d578063f92d34331461060a578063fb0cbd4b14610b30578063fe2ba84814610b3f57600080fd5b8063d3d6f84314610a84578063d5b3563514610a97578063d66a255314610aaa578063d696629714610ad3578063d9a7244414610ae6578063e1f787e914610af957600080fd5b8063c35bc5501161012b578063c35bc55014610a2f578063c3eb5c6714610a39578063c42dab9914610a42578063c91a7e2f14610a55578063cbd138ae14610a5e578063d293c71014610a7157600080fd5b8063bb6f030c146109f8578063bcd3752614610a01578063bf9befb114610a14578063bf9ebee214610a1d578063c26c880014610a2657600080fd5b8063a201415211610200578063aead9dcc116101c4578063aead9dcc14610966578063b0d8e18114610979578063b36cd07f1461098c578063b7f8cf9b1461099f578063b82f263d146109b2578063b91af97c146109c557600080fd5b8063a2014152146108ff578063a20baee6146105fb578063a22b7d6814610908578063a3f4df7e1461091b578063ae9187541461095357600080fd5b8063900e664b11610252578063900e664b146108a1578063948ba6d2146108aa57806396d711ff146108bd578063981c4f48146108c65780639976cf45146108d95780639f7adb5e146108ec57600080fd5b8063807d138d1461085957806382fe3eb914610862578063887105d3146108755780638da5cb5b1461087d5780638f9137891461088e57600080fd5b80634e443d9e116103c0578063715018a611610332578063741bef1a116102f6578063741bef1a146107fa578063756b253e1461080d578063794e572414610820578063795d26c31461082f5780637e024ad6146108375780637f7dde4a1461084657600080fd5b8063715018a6146107c457806371f256e2146107cc57806372423c17146107d457806372fe25aa146105fb578063734f622d146107e757600080fd5b80635dba4c4a116103845780635dba4c4a1461070957806361ec893d14610711578063631203b01461071957806364cee2601461072c578063653d46e7146107585780636ef643381461076b57600080fd5b80634e443d9e146106ad578063570dc45e146106d05780635733d58f146105cd57806358b8a5d6146106e35780635d6b480f146106f657600080fd5b806321e37801116104595780633cc742251161041d5780633cc742251461063857806347142aa31461064b578063477d66cf1461065e578063480cd578146106715780634870dd9a1461069d57806349eefeee146106a557600080fd5b806321e37801146105e857806324092669146105fb57806328d28b5b1461060a5780632d81dd56146106125780632f8655681461062557600080fd5b806315d549f1116104ab57806315d549f1146105625780631673c79a1461057557806318f2817a146105b15780631b199a64146105c45780631bf43555146105cd5780631e8b1c2b146105d557600080fd5b8063048c661d146104e8578063071a7541146105115780630b076557146105275780630c08ff5f1461053c57806312610e921461054f575b600080fd5b6005546104fb906001600160a01b031681565b604051610508919061572a565b60405180910390f35b610519600281565b604051908152602001610508565b61053a610535366004615763565b610b52565b005b61051961054a366004615763565b610b7a565b61051961055d366004615780565b610c36565b610519610570366004615763565b610c88565b61059c610583366004615763565b6017602052600090815260409020805460019091015482565b60408051928352602083019190915201610508565b6105196105bf366004615763565b610caa565b610519601a5481565b610519600181565b61053a6105e33660046157c2565b610cbd565b6105196105f6366004615763565b61110a565b610519670de0b6b3a764000081565b61051961113a565b610519610620366004615887565b61115c565b61053a610633366004615763565b61117c565b6001546104fb906001600160a01b031681565b610519610659366004615887565b6111e8565b61051961066c3660046158a9565b611200565b61051961067f366004615763565b6001600160a01b031660009081526011602052604090206001015490565b61051960c881565b601854610519565b6106c06106bb3660046158a9565b611214565b6040519015158152602001610508565b6009546104fb906001600160a01b031681565b6105196106f13660046158a9565b61121f565b61053a610704366004615780565b61122d565b61053a611285565b610519603c81565b61059c6107273660046158a9565b6112f1565b61051961073a366004615763565b6001600160a01b031660009081526011602052604090206002015490565b61053a6107663660046158a9565b611314565b6107b3610779366004615763565b60116020526000908152604090208054600182015460028301546003909301549192909160ff81169061010090046001600160801b031685565b6040516105089594939291906158d8565b61053a611685565b6106c0611699565b6105196107e2366004615780565b61171f565b61053a6107f536600461591e565b611776565b6002546104fb906001600160a01b031681565b6104fb61081b3660046158a9565b611b3f565b6105196714d1120d7b16000081565b610519611b69565b610519670ddd4b8c6c7d70d881565b6000546104fb906001600160a01b031681565b61051960135481565b61053a610870366004615763565b611c65565b610519611c76565b6003546001600160a01b03166104fb565b6008546104fb906001600160a01b031681565b61051960165481565b6105196108b83660046158a9565b611d3b565b61051960145481565b6105196108d4366004615763565b611d4e565b6105196108e7366004615780565b611d76565b61053a6108fa3660046158a9565b611da3565b61051961c35081565b6105196109163660046158a9565b611ea8565b6109466040518060400160405280600c81526020016b2a3937bb32a6b0b730b3b2b960a11b81525081565b6040516105089190615a4c565b600c546104fb906001600160a01b031681565b600a546104fb906001600160a01b031681565b610519610987366004615763565b611ebb565b61051961099a3660046158a9565b611ee2565b6004546104fb906001600160a01b031681565b6105196109c03660046158a9565b611ef0565b6109d86109d3366004615763565b611efb565b604080519485526020850193909352918301526060820152608001610508565b610519600d5481565b61053a610a0f366004615a5f565b611f53565b61051960125481565b61051960155481565b61051960105481565b6105196212750081565b610519600e5481565b600b546104fb906001600160a01b031681565b61051960195481565b61053a610a6c366004615763565b612674565b610519610a7f366004615780565b612687565b610519610a92366004615780565b6126a6565b610519610aa53660046158a9565b6126d6565b610519610ab8366004615763565b6001600160a01b031660009081526011602052604090205490565b610519610ae1366004615763565b6126ea565b6104fb610af43660046158a9565b612783565b6105196127b3565b6106c0610b0f366004615763565b612834565b610519600f5481565b61053a610b2b366004615763565b612897565b610519670dc14847bcc53b2081565b61053a610b4d366004615763565b61290d565b610b5a61291e565b600054600154610b77916001600160a01b0390811691168361299e565b50565b6001600160a01b0381166000908152601760205260408120600101546016548290610ba59083612aa4565b9050801580610be4575060016001600160a01b03851660009081526011602052604090206003015460ff166004811115610be157610be16158c2565b14155b15610bf3575060009392505050565b6001600160a01b03841660009081526011602052604081206002015490610c2c670de0b6b3a7640000610c268486612ab7565b90612ac3565b9695505050505050565b6000610c4061291e565b6001600160a01b038316600090815260116020526040812054610c639084612aa4565b6001600160a01b03851660009081526011602052604090208190559150505b92915050565b6000610c9261291e565b610c9b82612acf565b6001600160801b031692915050565b6000610cb461291e565b610c8282612b69565b8051600003610d325760405162461bcd60e51b815260206004820152603660248201527f54726f76654d616e616765723a2043616c6c646174612061646472657373206160448201527572726179206d757374206e6f7420626520656d70747960501b60648201526084015b60405180910390fd5b6000546001546005546001600160a01b03928316929182169116610d54615665565b610d5c615696565b600260009054906101000a90046001600160a01b03166001600160a01b0316630fdb11cf6040518163ffffffff1660e01b81526004016020604051808303816000875af1158015610db1573d6000803e3d6000fd5b505050506040513d601f19601f82011682018060405250810190610dd59190615acd565b826000018181525050826001600160a01b031663488df0fc6040518163ffffffff1660e01b8152600401602060405180830381865afa158015610e1c573d6000803e3d6000fd5b505050506040513d601f19601f82011682018060405250810190610e409190615acd565b60208301528151610e5090612c0d565b1580156040840152610e7857610e718585846000015185602001518a612c23565b9050610e90565b610e8d8585846000015185602001518a612e4a565b90505b6000816020015111610eb45760405162461bcd60e51b8152600401610d2990615ae6565b608081015160a082015160405163335525ad60e01b81526001600160a01b0386169263335525ad92610ef192600401918252602082015260400190565b600060405180830381600087803b158015610f0b57600080fd5b505af1158015610f1f573d6000803e3d6000fd5b50505050610f3785858360c001518460e00151612f5a565b610f7b6040518060400160405280601e81526020017f73656e64696e6720636f6c6c20746f20636f6c6c20737572706c61733a2000008152508261010001516131e5565b610100810151156110595760075461010082015160405162f9332d60e61b81526001600160a01b0390921691633e4ccb4091610fbd9160040190815260200190565b600060405180830381600087803b158015610fd757600080fd5b505af1158015610feb573d6000803e3d6000fd5b505060075461010084015160405163a51ba3b760e01b81526001600160a01b03808b16955063a51ba3b7945061102693169190600401615b28565b600060405180830381600087803b15801561104057600080fd5b505af1158015611054573d6000803e3d6000fd5b505050505b61106785826040015161322a565b6020810151606083015261010081015160408201518251611093929161108d9190612aa4565b90612aa4565b6080838101829052606080850151604085810151868401518251938452602084019690965290820152908101929092527f4152c73dd2614c4f9fc35e8c9cf16013cd588c75b49a4c1673ecffdcbcda9403910160405180910390a161110285338360600151846040015161336e565b505050505050565b6001600160a01b03811660009081526011602052604081206003015460ff166004811115610c8257610c826158c2565b61114e6103e8670de0b6b3a7640000615b6d565b611159906005615b81565b81565b60008061117484846014670de0b6b3a7640000613451565b949350505050565b6111858161355c565b6040805160018082528183019092526000916020808301908036833701905050905081816000815181106111bb576111bb615b98565b60200260200101906001600160a01b031690816001600160a01b0316815250506111e481610cbd565b5050565b600080611174848460146714d1120d7b160000613451565b6000610c8261120e83611d3b565b836135f3565b6000610c8282612c0d565b6000610c82600d548361360b565b61123561291e565b806004811115611247576112476158c2565b6001600160a01b0383166000908152601160205260409020600301805460ff1916600183600481111561127c5761127c6158c2565b02179055505050565b61128d61291e565b60006112976136c3565b9050670de0b6b3a76400008111156112b1576112b1615bae565b600e8190556040518181527fca870d46d67e9a1444a6b8f97a147e06e4cf71ee2a0f172d7ecd5441ae7c12019060200160405180910390a1610b77613707565b60008060006112ff84611ee2565b905061130b81856135f3565b94909350915050565b6040805160e081018252600080546001600160a01b0390811683526001548116602084015292820181905260608201819052600c548316608083015260a0820181905260c082015260055490911661136a615665565b611372615696565b600260009054906101000a90046001600160a01b03166001600160a01b0316630fdb11cf6040518163ffffffff1660e01b81526004016020604051808303816000875af11580156113c7573d6000803e3d6000fd5b505050506040513d601f19601f820116820180604052508101906113eb9190615acd565b826000018181525050826001600160a01b031663488df0fc6040518163ffffffff1660e01b8152600401602060405180830381865afa158015611432573d6000803e3d6000fd5b505050506040513d601f19601f820116820180604052508101906114569190615acd565b6020830152815161146690612c0d565b158015604084015261148d5761148684836000015184602001518861375e565b90506114ad565b6114aa846000015185602001518460000151856020015189613adc565b90505b60008160200151116114d15760405162461bcd60e51b8152600401610d2990615ae6565b608081015160a082015160405163335525ad60e01b81526001600160a01b0386169263335525ad9261150e92600401918252602082015260400190565b600060405180830381600087803b15801561152857600080fd5b505af115801561153c573d6000803e3d6000fd5b5050505061155c846000015185602001518360c001518460e00151612f5a565b610100810151156115d357835160075461010083015160405163a51ba3b760e01b81526001600160a01b039384169363a51ba3b7936115a093911691600401615b28565b600060405180830381600087803b1580156115ba57600080fd5b505af11580156115ce573d6000803e3d6000fd5b505050505b6115e58460000151826040015161322a565b602081015160608301526101008101516040820151825161160b929161108d9190612aa4565b6080838101829052606080850151604085810151868401518251938452602084019690965290820152908101929092527f4152c73dd2614c4f9fc35e8c9cf16013cd588c75b49a4c1673ecffdcbcda9403910160405180910390a161167e8460000151338360600151846040015161336e565b5050505050565b61168d613c0d565b6116976000613c67565b565b600061171a600260009054906101000a90046001600160a01b03166001600160a01b0316630490be836040518163ffffffff1660e01b8152600401602060405180830381865afa1580156116f1573d6000803e3d6000fd5b505050506040513d601f19601f820116820180604052508101906117159190615acd565b612c0d565b905090565b600061172961291e565b6001600160a01b03831660009081526011602052604081206001015461174f9084613cb9565b6001600160a01b038516600090815260116020526040902060010181905591505092915050565b61177e613c0d565b6117878c613cc5565b6117908b613cc5565b6117998a613cc5565b6117a289613cc5565b6117ab88613cc5565b6117b487613cc5565b6117bd86613cc5565b6117c685613cc5565b6117cf84613cc5565b6117d883613cc5565b6117e182613cc5565b6117ea81613cc5565b600480546001600160a01b03199081166001600160a01b038f8116919091179092556000805482168e84161790556001805482168d84161790556005805482168c84161790556006805482168b84161790556007805482168a8416179055600280548216898416179055600880548216888416179055600c80548216878416179055600980548216868416179055600a80548216858416179055600b80549091169183169190911790556040517f3ca631ffcd2a9b5d9ae18543fc82f58eb4ca33af9e6ab01b7a8e95331e6ed985906118c4908e9061572a565b60405180910390a17f78f058b189175430c48dc02699e3a0031ea4ff781536dc2fab847de4babdd8828b6040516118fb919061572a565b60405180910390a17f5ee0cae2f063ed938bb55046f6a932fb6ae792bf43624806bb90abe68a50be9b8a604051611932919061572a565b60405180910390a17f82966d27eea39b038ee0fa30cd16532bb24f6e65d31cb58fb227aa5766cdcc7f89604051611969919061572a565b60405180910390a17fcfb07d791fcafc032b35837b50eb84b74df518cf4cc287e8084f47630fa70fa0886040516119a0919061572a565b60405180910390a17fe67f36a6e961157d6eff83b91f3af5a62131ceb6f04954ef74f51c1c05e7f88d876040516119d7919061572a565b60405180910390a17f8c537274438aa850a330284665d81a85dd38267d09e4050d416bfc94142db26486604051611a0e919061572a565b60405180910390a17f7faa560f2889840c377209fbc4b6b92d05f43f1fc60bf336ab546fd60c0051ad85604051611a45919061572a565b60405180910390a17f65f4cf077bc01e4742eb5ad98326f6e95b63548ea24b17f8d5e823111fe7880084604051611a7c919061572a565b60405180910390a17f0d32e4ef3d389440323b172cfc07c6c01bdd1d3e8334379048eec21e8d919b7783604051611ab3919061572a565b60405180910390a17ffe7e5f521efd6e9fda9261f1223b2cda79ba84d0393e8b6629d27db91048126f82604051611aea919061572a565b60405180910390a17f6877e00d9059f8716bd795b5d4c2c89a4bc3cef71ba3dd99b168ac9cc1f2a6c281604051611b21919061572a565b60405180910390a1611b31611685565b505050505050505050505050565b60188181548110611b4f57600080fd5b6000918252602090912001546001600160a01b0316905081565b60008054604080516315b3137b60e21b8152905183926001600160a01b0316916356cc4dec9160048083019260209291908290030181865afa158015611bb3573d6000803e3d6000fd5b505050506040513d601f19601f82011682018060405250810190611bd79190615acd565b90506000600160009054906101000a90046001600160a01b03166001600160a01b03166356cc4dec6040518163ffffffff1660e01b8152600401602060405180830381865afa158015611c2e573d6000803e3d6000fd5b505050506040513d601f19601f82011682018060405250810190611c529190615acd565b9050611c5e8282613cb9565b9250505090565b611c6d61291e565b610b7781613d6a565b600080546040805163a2f0398360e01b8152905183926001600160a01b03169163a2f039839160048083019260209291908290030181865afa158015611cc0573d6000803e3d6000fd5b505050506040513d601f19601f82011682018060405250810190611ce49190615acd565b90506000600160009054906101000a90046001600160a01b03166001600160a01b031663a2f039836040518163ffffffff1660e01b8152600401602060405180830381865afa158015611c2e573d6000803e3d6000fd5b6000610c82611d48613dce565b83613e12565b6001600160a01b0381166000908152601760205260408120546015548290610ba59083612aa4565b6000611d8061291e565b6001600160a01b038316600090815260116020526040812054610c639084613cb9565b6004546001600160a01b03163314611e155760405162461bcd60e51b815260206004820152602f60248201527f54726f76654d616e616765723a204f6e6c7920426f72726f776572206f70657260448201526e185d1a5bdb9cc81b585e4818d85b1b608a1b6064820152608401610d29565b611e296103e8670de0b6b3a7640000615b6d565b611e34906005615b81565b8110611e6b57611e4e6103e8670de0b6b3a7640000615b6d565b611e59906005615b81565b611e639082615bc4565b600e55611e71565b6000600e555b6040518181527fca870d46d67e9a1444a6b8f97a147e06e4cf71ee2a0f172d7ecd5441ae7c1201906020015b60405180910390a150565b6000610c82611eb5613dce565b8361360b565b6000806000611ec984613ef1565b915091506000611ed98383613f6b565b95945050505050565b6000610c82600e5483613e12565b6000610c8282613f9a565b6001600160a01b03811660009081526011602052604081208054600190910154909180611f2785610b7a565b9150611f3285611d4e565b9050611f3e8483613cb9565b9350611f4a8382613cb9565b92509193509193565b6040805160e08082018352600080546001600160a01b0390811684526001548116602080860191909152600854821685870152600a548216606080870191909152600c548316608080880191909152600754841660a08089019190915260065490941660c080890191909152885161010081018a5286815293840186905297830185905290820184905281018390529081018290529384018190529083015290611ffc83613fbe565b600260009054906101000a90046001600160a01b03166001600160a01b0316630fdb11cf6040518163ffffffff1660e01b81526004016020604051808303816000875af1158015612051573d6000803e3d6000fd5b505050506040513d601f19601f820116820180604052508101906120759190615acd565b60c0820181905261208590614059565b61208e896140cc565b61209d8260400151338b614133565b6120a5611b69565b60e0820181905260408084015190516370a0823160e01b81526001600160a01b03909116906370a08231906120de90339060040161572a565b602060405180830381865afa1580156120fb573d6000803e3d6000fd5b505050506040513d601f19601f8201168201806040525081019061211f9190615acd565b111561212d5761212d615bae565b888152608082015160c0820151600091612148918b90614233565b15612154575087612266565b82608001516001600160a01b0316634d6228316040518163ffffffff1660e01b8152600401602060405180830381865afa158015612196573d6000803e3d6000fd5b505050506040513d601f19601f820116820180604052508101906121ba9190615bd7565b90505b6001600160a01b038116158015906121e957506714d1120d7b1600006121e7828460c00151612687565b105b156122665782608001516001600160a01b031663b72703ac826040518263ffffffff1660e01b815260040161221e919061572a565b602060405180830381865afa15801561223b573d6000803e3d6000fd5b505050506040513d601f19601f8201168201806040525081019061225f9190615bd7565b90506121bd565b846000036122745760001994505b6001600160a01b0381161580159061228c5750815115155b80156122985750600085115b156123a457846122a781615bf4565b955050600083608001516001600160a01b031663b72703ac836040518263ffffffff1660e01b81526004016122dc919061572a565b602060405180830381865afa1580156122f9573d6000803e3d6000fd5b505050506040513d601f19601f8201168201806040525081019061231d9190615bd7565b9050612332846000015185602001518461299e565b600061234b858486600001518760c001518e8e8e61437d565b905080604001511561235e5750506123a4565b8051602085015161236e91613cb9565b602080860191909152810151604085015161238891613cb9565b60408501528051845161239a91612aa4565b8452509050612274565b600082604001511161240a5760405162461bcd60e51b815260206004820152602960248201527f54726f76654d616e616765723a20556e61626c6520746f2072656465656d20616044820152681b9e48185b5bdd5b9d60ba1b6064820152608401610d29565b61242182604001518360c001518460e001516145c7565b5061242f82604001516146d4565b6060830181905260408301516124469190866146e2565b600b54604080840151606085015191516318ddad8960e21b81526001600160a01b0390931692636376b624926124889291600401918252602082015260400190565b600060405180830381600087803b1580156124a257600080fd5b505af11580156124b6573d6000803e3d6000fd5b50505050606082015160408301516124cd91612aa4565b60808301526020820151604080840151606085015191517f43a3f4082a4dbc33d78e317d2497d3a730bc7fc3574159dcea1056e62e5d9ad893612529938f93919293845260208401929092526040830152606082015260800190565b60405180910390a182604001516001600160a01b0316639dc29fac3384602001516040518363ffffffff1660e01b8152600401612567929190615b28565b600060405180830381600087803b15801561258157600080fd5b505af1158015612595573d6000803e3d6000fd5b505084516020850151604051633b4009ff60e11b81526001600160a01b03909216935063768013fe92506125cf9160040190815260200190565b600060405180830381600087803b1580156125e957600080fd5b505af11580156125fd573d6000803e3d6000fd5b50508451608085015160405163a51ba3b760e01b81526001600160a01b03909216935063a51ba3b7925061263691339190600401615b28565b600060405180830381600087803b15801561265057600080fd5b505af1158015612664573d6000803e3d6000fd5b5050505050505050505050505050565b61267c61291e565b610b7781600261474c565b600080600061269585613ef1565b915091506000610c2c838387614879565b60006126b061291e565b6001600160a01b03831660009081526011602052604081206001015461174f9084612aa4565b6000610c826126e483611ea8565b836148ad565b600080600260009054906101000a90046001600160a01b03166001600160a01b0316630490be836040518163ffffffff1660e01b8152600401602060405180830381865afa158015612740573d6000803e3d6000fd5b505050506040513d601f19601f820116820180604052508101906127649190615acd565b905060008061277285613ef1565b915091506000610c2c838386614879565b60006018828154811061279857612798615b98565b6000918252602090912001546001600160a01b031692915050565b600061171a600260009054906101000a90046001600160a01b03166001600160a01b0316630490be836040518163ffffffff1660e01b8152600401602060405180830381865afa15801561280b573d6000803e3d6000fd5b505050506040513d601f19601f8201168201806040525081019061282f9190615acd565b613f9a565b600060016001600160a01b03831660009081526011602052604090206003015460ff166004811115612868576128686158c2565b1461287557506000919050565b506015546001600160a01b039091166000908152601760205260409020541090565b61289f613c0d565b6001600160a01b0381166129045760405162461bcd60e51b815260206004820152602660248201527f4f776e61626c653a206e6577206f776e657220697320746865207a65726f206160448201526564647265737360d01b6064820152608401610d29565b610b7781613c67565b61291561291e565b610b7781614936565b6004546001600160a01b031633146116975760405162461bcd60e51b815260206004820152603b60248201527f54726f76654d616e616765723a2043616c6c6572206973206e6f74207468652060448201527f426f72726f7765724f7065726174696f6e7320636f6e747261637400000000006064820152608401610d29565b6129a781612834565b15612a9f576129b58161355c565b60006129c082611d4e565b905060006129cd83610b7a565b6001600160a01b0384166000908152601160205260409020600101549091506129f69083613cb9565b6001600160a01b0384166000908152601160205260409020600181019190915554612a219082613cb9565b6001600160a01b038416600090815260116020526040902055612a4383613d6a565b612a4f85858385614980565b6001600160a01b038316600081815260116020526040808220805460018201546002909201549251600080516020615d1783398151915294612a949492939291615c1f565b60405180910390a250505b505050565b6000612ab08284615bc4565b9392505050565b6000612ab08284615b81565b6000612ab08284615b6d565b601880546001808201835560008381527fb13d2d76d1f4b7be834882e410b3e3a8afaf69f83600ae24db354391d2378d2e90920180546001600160a01b0319166001600160a01b03861617905591549091612b2a9190612aa4565b6001600160a01b039290921660009081526011602052604090206003018054610100600160881b0319166101006001600160801b038516021790555090565b6001600160a01b0381166000908152601160205260408120600101548190612b9090614a61565b6001600160a01b038416600090815260116020526040902060020180549082905560125491925090612bce908390612bc89084612aa4565b90613cb9565b60128190556040519081527f6bac5e0eb3c44eb03a60ab11ec3a2c051771616aecadbcfff2630aabae5203829060200160405180910390a15092915050565b600080612c1983613f9a565b6001119392505050565b612c2b615696565b612c336156e2565b612c3b615696565b84825260006080830152612c4d611b69565b60a0830152612c5a611c76565b60c0830152600060208301525b835182602001511015612e3f5783826020015181518110612c8a57612c8a615b98565b6020908102919091018101516001600160a01b03166060840181905260009081526011909152604090206003015460019060ff166004811115612ccf57612ccf6158c2565b03612e2757612ce2826060015187612687565b60408301526080820151612dcf576714d1120d7b160000826040015110158015612d0b57508151155b612e27576000612d248360c001518460a0015189614879565b9050612d418989856060015186604001518760000151868d614aa2565b60808101518451919350612d559190612aa4565b8352608082015160a0840151612d6a91612aa4565b8360a0018181525050612d9f82610100015161108d846040015161108d8660a001518860c00151612aa490919063ffffffff16565b60c0840152612dae8483614d95565b9350612dc38360c001518460a0015189614e76565b15608084015250612e27565b81608001518015612deb57506714d1120d7b1600008260400151105b15612e2757612e04888884606001518560000151614e90565b60808101518351919250612e189190612aa4565b8252612e248382614d95565b92505b60208201805190612e3782615c41565b905250612c67565b505095945050505050565b612e52615696565b612e5a6156e2565b612e62615696565b848252600060208301525b835182602001511015612e3f5783826020015181518110612e9057612e90615b98565b60209081029190910101516001600160a01b031660608301819052612eb59087612687565b604083018190526714d1120d7b1600001115612f4257612edf888884606001518560000151614e90565b60808101518351919250612ef39190612aa4565b825260408051808201909152601c81527f72656d61696e696e672062666520696e207374616220706f6f6c3a200000000060208201528251612f3591906131e5565b612f3f8382614d95565b92505b60208201805190612f5282615c41565b905250612e6d565b81156131df57601954600090612f7c90612bc884670de0b6b3a7640000612ab7565b90506000612fa1601a54612bc8670de0b6b3a764000087612ab790919063ffffffff16565b90506000612fba60125484612ac390919063ffffffff16565b90506000612fd360125484612ac390919063ffffffff16565b9050612ff4612fed60125484612ab790919063ffffffff16565b8590612aa4565b60195560125461301090613009908390612ab7565b8490612aa4565b601a556015546130209083613cb9565b6015556016546130309082613cb9565b60168190556015546040517f9f8bc8ab0daf5bceef75ecfd2085d1fcc6548c657ea970d9a23a60610d0737e39261306e928252602082015260400190565b60405180910390a1604051633b4009ff60e11b8152600481018790526001600160a01b0389169063768013fe90602401600060405180830381600087803b1580156130b857600080fd5b505af11580156130cc573d6000803e3d6000fd5b505060405163262b890160e01b8152600481018990526001600160a01b038a16925063262b89019150602401600060405180830381600087803b15801561311257600080fd5b505af1158015613126573d6000803e3d6000fd5b505060405162f9332d60e61b8152600481018890526001600160a01b038a169250633e4ccb409150602401600060405180830381600087803b15801561316b57600080fd5b505af115801561317f573d6000803e3d6000fd5b505060405163a51ba3b760e01b81526001600160a01b038b16925063a51ba3b791506131b1908a908990600401615b28565b600060405180830381600087803b1580156131cb57600080fd5b505af1158015611b31573d6000803e3d6000fd5b50505050565b6111e482826040516024016131fb929190615c5a565b60408051601f198184030181529190526020810180516001600160e01b0316632d839cb360e21b179052614fd1565b6012546013819055506000826001600160a01b031663a2f039836040518163ffffffff1660e01b8152600401602060405180830381865afa158015613273573d6000803e3d6000fd5b505050506040513d601f19601f820116820180604052508101906132979190615acd565b90506000600160009054906101000a90046001600160a01b03166001600160a01b031663a2f039836040518163ffffffff1660e01b8152600401602060405180830381865afa1580156132ee573d6000803e3d6000fd5b505050506040513d601f19601f820116820180604052508101906133129190615acd565b905061332281612bc88486612aa4565b60148190556013546040517f51bf4c63ec3cba9d03d43238abbdd979dd91bd16d9895c74ceea9118c7baaf6092613360928252602082015260400190565b60405180910390a150505050565b81156133e557600854600654604051631062c15f60e11b81526001600160a01b0391821660048201528582166024820152604481018590529116906320c582be90606401600060405180830381600087803b1580156133cc57600080fd5b505af11580156133e0573d6000803e3d6000fd5b505050505b80156131df5760405163a51ba3b760e01b81526001600160a01b0385169063a51ba3b7906134199086908590600401615b28565b600060405180830381600087803b15801561343357600080fd5b505af1158015613447573d6000803e3d6000fd5b5050505050505050565b60006001633b9aca00826134658287615b81565b905060006134738388615b81565b90505b613482836102ee615b81565b811161354d5760006134958a8a84614879565b9050868110156134f157825b8281111580156134ba57506134b6858a615b81565b8110155b156134ef57876134cb8c8c84614879565b10156134de579550611174945050505050565b6134e88582615bc4565b90506134a1565b505b6135036702c68af0bb14000088615bc4565b81101561351c57613515846014615b81565b9450613538565b61352d8766b1a2bc2ec50000615c7c565b811115613538578394505b509050806135468482615c7c565b9050613476565b50600098975050505050505050565b60016001600160a01b03821660009081526011602052604090206003015460ff16600481111561358e5761358e6158c2565b14610b775760405162461bcd60e51b815260206004820152602f60248201527f54726f76654d616e616765723a2054726f766520646f6573206e6f742065786960448201526e1cdd081bdc881a5cc818db1bdcd959608a1b6064820152608401610d29565b6000612ab0670de0b6b3a7640000610c268585612ab7565b6000612ab06136b561369260008054906101000a90046001600160a01b03166001600160a01b031663a2f039836040518163ffffffff1660e01b8152600401602060405180830381865afa158015613667573d6000803e3d6000fd5b505050506040513d601f19601f8201168201806040525081019061368b9190615acd565b8590612ac3565b612bc8866136aa6103e8670de0b6b3a7640000615b6d565b612bc8906005615b81565b670de0b6b3a7640000614fda565b6000806136ce614ff0565b905060006136e4670dc14847bcc53b208361500c565b9050611c5e670de0b6b3a7640000610c2683600e54612ab790919063ffffffff16565b600061371e60105442612aa490919063ffffffff16565b9050603c8110610b77574260108190556040519081527f4ac50c32a269c2cfea9cf04e466da1ab839008441fadf7108e4f05410c2bfd5f90602001611e9d565b613766615696565b61376e6156e2565b613776615696565b84825260006080830152613788611b69565b60a0830152613795611c76565b8260c001818152505086608001516001600160a01b0316634d6228316040518163ffffffff1660e01b8152600401602060405180830381865afa1580156137e0573d6000803e3d6000fd5b505050506040513d601f19601f820116820180604052508101906138049190615bd7565b82606001906001600160a01b031690816001600160a01b031681525050600087608001516001600160a01b0316631e2231436040518163ffffffff1660e01b8152600401602060405180830381865afa158015613865573d6000803e3d6000fd5b505050506040513d601f19601f820116820180604052508101906138899190615bd7565b6000602085015290505b8483602001511080156138bc5750806001600160a01b031683606001516001600160a01b031614155b15613ad15760808801516060840151604051632dc9c0eb60e21b81526000926001600160a01b03169163b72703ac916138f8919060040161572a565b602060405180830381865afa158015613915573d6000803e3d6000fd5b505050506040513d601f19601f820116820180604052508101906139399190615bd7565b9050613949846060015189612687565b60408501526080840151613a41576714d1120d7b16000084604001511015801561397257508351155b1561397d5750613ad1565b60006139928560c001518660a001518b614879565b8a5160208c01516060880151604089015189519495506139b394868f614aa2565b608081015186519195506139c79190612aa4565b8552608084015160a08601516139dc91612aa4565b8560a0018181525050613a1184610100015161108d866040015161108d8860a001518a60c00151612aa490919063ffffffff16565b60c0860152613a208685614d95565b9550613a358560c001518660a001518b614e76565b15608086015250613aab565b83608001518015613a5d57506714d1120d7b1600008460400151105b15613aa557613a7e89600001518a6020015186606001518760000151614e90565b60808101518551919450613a929190612aa4565b8452613a9e8584614d95565b9450613aab565b50613ad1565b6001600160a01b0316606084015260208301805190613ac982615c41565b905250613893565b505050949350505050565b613ae4615696565b613aec6156e2565b613af4615696565b600c54858352600060208401526001600160a01b03165b8483602001511015613c0157806001600160a01b0316634d6228316040518163ffffffff1660e01b8152600401602060405180830381865afa158015613b55573d6000803e3d6000fd5b505050506040513d601f19601f82011682018060405250810190613b799190615bd7565b6001600160a01b031660608401819052613b939088612687565b604084018190526714d1120d7b1600001115613be457613bbd898985606001518660000151614e90565b60808101518451919350613bd19190612aa4565b8352613bdd8483614d95565b9350613be9565b613c01565b60208301805190613bf982615c41565b905250613b0b565b50505095945050505050565b6003546001600160a01b031633146116975760405162461bcd60e51b815260206004820181905260248201527f4f776e61626c653a2063616c6c6572206973206e6f7420746865206f776e65726044820152606401610d29565b600380546001600160a01b038381166001600160a01b0319831681179093556040519116919082907f8be0079c531659141344cd1fd0a4f28419497f9722a3daafe3b4186f6b6457e090600090a35050565b6000612ab08284615c7c565b6001600160a01b038116613d1b5760405162461bcd60e51b815260206004820152601e60248201527f4163636f756e742063616e6e6f74206265207a65726f206164647265737300006044820152606401610d29565b803b806111e45760405162461bcd60e51b815260206004820181905260248201527f4163636f756e7420636f64652073697a652063616e6e6f74206265207a65726f6044820152606401610d29565b601580546001600160a01b038316600090815260176020526040908190209182556016546001909201829055915491517fc437f324d85e369394148dd9d62f98f534b382e01ed3dd2eb98138fb6d3ab49a92611e9d92908252602082015260400190565b600080613dd96150b0565b90506000613def670ddd4b8c6c7d70d88361500c565b9050611c5e670de0b6b3a7640000610c2683600d54612ab790919063ffffffff16565b600080600860009054906101000a90046001600160a01b03166001600160a01b03166318160ddd6040518163ffffffff1660e01b8152600401602060405180830381865afa158015613e68573d6000803e3d6000fd5b505050506040513d601f19601f82011682018060405250810190613e8c9190615acd565b905080600003613ebd57613eaa6103e8670de0b6b3a7640000615b6d565b613eb5906005615b81565b915050610c82565b6111746136b5613ed983610c2687670de0b6b3a7640000612ab7565b612bc8876136aa6103e8670de0b6b3a7640000615b6d565b6000806000613eff84611d4e565b90506000613f0c85610b7a565b6001600160a01b03861660009081526011602052604081206001015491925090613f369084613cb9565b6001600160a01b03871660009081526011602052604081205491925090613f5d9084613cb9565b919791965090945050505050565b60008115613f9157613f8a82610c268568056bc75e2d63100000612ab7565b9050610c82565b50600019610c82565b600080613fa5611c76565b90506000613fb1611b69565b9050611174828286614879565b613fd26103e8670de0b6b3a7640000615b6d565b613fdd906005615b81565b8110158015613ff45750670de0b6b3a76400008111155b610b775760405162461bcd60e51b815260206004820152603060248201527f4d6178206665652070657263656e74616765206d75737420626520626574776560448201526f656e20302e352520616e64203130302560801b6064820152608401610d29565b6714d1120d7b16000061406b82613f9a565b1015610b775760405162461bcd60e51b815260206004820152602a60248201527f54726f76654d616e616765723a2043616e6e6f742072656465656d207768656e604482015269102a21a9101e1026a1a960b11b6064820152608401610d29565b60008111610b775760405162461bcd60e51b815260206004820152602e60248201527f54726f76654d616e616765723a20416d6f756e74206d7573742062652067726560448201526d61746572207468616e207a65726f60901b6064820152608401610d29565b6040516370a0823160e01b815281906001600160a01b038516906370a082319061416190869060040161572a565b602060405180830381865afa15801561417e573d6000803e3d6000fd5b505050506040513d601f19601f820116820180604052508101906141a29190615acd565b1015612a9f5760405162461bcd60e51b815260206004820152605460248201527f54726f76654d616e616765723a2052657175657374656420726564656d70746960448201527f6f6e20616d6f756e74206d757374206265203c3d2075736572277320426173656064820152734665654c4d4120746f6b656e2062616c616e636560601b608482015260a401610d29565b60006001600160a01b03831615806142b55750604051630bb7c8fd60e31b81526001600160a01b03851690635dbe47e89061427290869060040161572a565b602060405180830381865afa15801561428f573d6000803e3d6000fd5b505050506040513d601f19601f820116820180604052508101906142b39190615c8f565b155b806142d057506714d1120d7b1600006142ce8484612687565b105b156142dd57506000612ab0565b60405163765e015960e01b81526000906001600160a01b0386169063765e01599061430c90879060040161572a565b602060405180830381865afa158015614329573d6000803e3d6000fd5b505050506040513d601f19601f8201168201806040525081019061434d9190615bd7565b90506001600160a01b0381161580611ed957506714d1120d7b1600006143738285612687565b1095945050505050565b6143a3604051806060016040528060008152602001600081526020016000151581525090565b6001600160a01b0387166000908152601160205260409020546143c7908790614fda565b8082526143d49086612ab7565b60208083019190915281516001600160a01b03891660009081526011909252604082205461440191612aa4565b6020808401516001600160a01b038b16600090815260119092526040822060010154929350909161443191612aa4565b905061c350820361449b5761444589614936565b61445089600461474c565b61445e8a8a61c350846150cc565b886001600160a01b0316600080516020615d178339815191526000806000600360405161448e9493929190615c1f565b60405180910390a26145b9565b60006144a78284613f6b565b905084811415806144b85750600183105b156144cc57505060016040830152506145bc565b60808b015160405163015f109360e51b81526001600160a01b038c81166004830152602482018490528981166044830152888116606483015290911690632be2126090608401600060405180830381600087803b15801561452c57600080fd5b505af1158015614540573d6000803e3d6000fd5b5050506001600160a01b038b1660009081526011602052604090208481556001018390555061456e8a612b69565b506001600160a01b038a1660008181526011602052604090819020600201549051600080516020615d17833981519152916145af9187918791600390615c1f565b60405180910390a2505b50505b979650505050505050565b6000806145d2613dce565b9050600061466060008054906101000a90046001600160a01b03166001600160a01b031663a2f039836040518163ffffffff1660e01b8152600401602060405180830381865afa15801561462a573d6000803e3d6000fd5b505050506040513d601f19601f8201168201806040525081019061464e9190615acd565b610c2688670de0b6b3a7640000612ab7565b9050600061466e8383613cb9565b905061468281670de0b6b3a7640000614fda565b90506000811161469457614694615bae565b600d8190556040518181527fbcd47f9685f1ffa254d0ac495b2e47d57feda8840e9d1f2a54d9d499650502a89060200160405180910390a1610c2c61522b565b6000610c826126e48361121f565b60006146fa83610c2686670de0b6b3a7640000612ab7565b9050818111156131df5760405162461bcd60e51b815260206004820152601d60248201527f4665652065786365656465642070726f7669646564206d6178696d756d0000006044820152606401610d29565b6000816004811115614760576147606158c2565b141580156147805750600181600481111561477d5761477d6158c2565b14155b61478c5761478c615bae565b60185461479881615282565b6001600160a01b0383166000908152601160205260409020600301805483919060ff191660018360048111156147d0576147d06158c2565b02179055506001600160a01b0383166000908152601160209081526040808320600180820185905590849055601790925282208281550155614812838261535c565b600c54604051631484968760e11b81526001600160a01b03909116906329092d0e9061484290869060040161572a565b600060405180830381600087803b15801561485c57600080fd5b505af1158015614870573d6000803e3d6000fd5b50505050505050565b600082156148a457600061489b83610c26868189670de0b6b3a7640000612ab7565b9150612ab09050565b50600019612ab0565b6000806148c6670de0b6b3a7640000610c268686612ab7565b9050828110612ab05760405162461bcd60e51b815260206004820152603660248201527f54726f76654d616e616765723a2046656520776f756c642065617420757020616044820152751b1b081c995d1d5c9b99590818dbdb1b185d195c985b60521b6064820152608401610d29565b6001600160a01b03811660009081526011602052604090206002015460125461495f9082612aa4565b601255506001600160a01b0316600090815260116020526040812060020155565b604051633b4009ff60e11b8152600481018390526001600160a01b0384169063768013fe90602401600060405180830381600087803b1580156149c257600080fd5b505af11580156149d6573d6000803e3d6000fd5b505060405163262b890160e01b8152600481018590526001600160a01b038716925063262b89019150602401600060405180830381600087803b158015614a1c57600080fd5b505af1158015614a30573d6000803e3d6000fd5b50506040516331534de160e01b8152600481018490526001600160a01b03861692506331534de19150602401613419565b600080601454600003614a75575081610c82565b600060135411614a8757614a87615bae565b612ab0601454610c2660135486612ab790919063ffffffff16565b614aaa615696565b614ace60405180606001604052806000815260200160008152602001600081525090565b601854600110614ade57506145bc565b614ae787611efb565b60408501526020848101919091528401819052908352614b069061552c565b6040830181905261c35060608401526020830151614b2391612aa4565b8152670de0b6b3a76400008611614bee57614b48898983602001518460400151614980565b614b5187614936565b60006080830181905260a0830152815160c0830152805160e0830152614b7887600361474c565b815160208301516040516001600160a01b038a1692600080516020615cf783398151915292614ba992600290615cb1565b60405180910390a2866001600160a01b0316600080516020615d1783398151915260008060006002604051614be19493929190615c1f565b60405180910390a2614d89565b670de0b6b3a764000086118015614c0c57506714d1120d7b16000086105b15614c5c57614c25898983602001518460400151614980565b614c2e87614936565b81518151614c3d919087615539565b60e086015260c085015260a08401526080830152614b7887600361474c565b6714d1120d7b1600008610158015614c7357508386105b8015614c80575081518510155b15614d7857614c99898983602001518460400151614980565b84600003614ca957614ca9615bae565b614cb287614936565b614cc58260000151836020015185615593565b9150614cd287600361474c565b61010082015115614d4757600754610100830151604051633f10abab60e01b81526001600160a01b0390921691633f10abab91614d14918b9190600401615b28565b600060405180830381600087803b158015614d2e57600080fd5b505af1158015614d42573d6000803e3d6000fd5b505050505b815160a08301516040516001600160a01b038a1692600080516020615cf783398151915292614ba992600290615cb1565b614d80615696565b91506145bc9050565b50979650505050505050565b614d9d615696565b60408083015190840151614db091613cb9565b604082015260608083015190840151614dc891613cb9565b606082015281516020840151614ddd91613cb9565b6020808301919091528201518351614df491613cb9565b815260808083015190840151614e0991613cb9565b608082015260a08083015190840151614e2191613cb9565b60a082015260c08083015190840151614e3991613cb9565b60c082015260e08083015190840151614e5191613cb9565b60e08201526101008083015190840151614e6a91613cb9565b61010082015292915050565b600080614e84858585614879565b60011195945050505050565b614e98615696565b614ebc60405180606001604052806000815260200160008152602001600081525090565b614ec584611efb565b60408501908152602085810192835286019290925291845290519051614eef918891889190614980565b614ef884614936565b614f05826020015161552c565b6040830181905261c35060608401526020830151600091614f269190612aa4565b9050614f3783600001518286615539565b60e087015260c086015260a08501526080840152614f5685600361474c565b825160208401516040516001600160a01b03881692600080516020615cf783398151915292614f8792600190615cb1565b60405180910390a2846001600160a01b0316600080516020615d1783398151915260008060006001604051614fbf9493929190615c1f565b60405180910390a25050949350505050565b610b7781615614565b6000818310614fe95781612ab0565b5090919050565b600061171a603c610c2660105442612aa490919063ffffffff16565b6000631f54050082111561502257631f54050091505b816000036150395750670de0b6b3a7640000610c82565b670de0b6b3a764000083835b60018111156150a657615059600282615ccc565b60000361507e5761506a8283615635565b9150615077816002612ac3565b9050615045565b6150888284615635565b92506150948283615635565b91506150776002610c26836001612aa4565b610c2c8284615635565b600061171a603c610c26600f5442612aa490919063ffffffff16565b6040808501516006549151632770a7eb60e21b81526001600160a01b0391821692639dc29fac92615104929116908690600401615b28565b600060405180830381600087803b15801561511e57600080fd5b505af1158015615132573d6000803e3d6000fd5b50508551604051633b4009ff60e11b8152600481018690526001600160a01b03909116925063768013fe9150602401600060405180830381600087803b15801561517b57600080fd5b505af115801561518f573d6000803e3d6000fd5b505050508360a001516001600160a01b0316633f10abab84836040518363ffffffff1660e01b81526004016151c5929190615b28565b600060405180830381600087803b1580156151df57600080fd5b505af11580156151f3573d6000803e3d6000fd5b5050855160a087015160405163a51ba3b760e01b81526001600160a01b03909216935063a51ba3b79250613419918590600401615b28565b6000615242600f5442612aa490919063ffffffff16565b9050603c8110610b775742600f8190556040519081527fbab964312bdd13595266f3e549bca3102965a6d718c6c1f8cd7eaac076b9c6c290602001611e9d565b6001811180156152fd5750600c546040805163de8fa43160e01b815290516001926001600160a01b03169163de8fa4319160048083019260209291908290030181865afa1580156152d7573d6000803e3d6000fd5b505050506040513d601f19601f820116820180604052508101906152fb9190615acd565b115b610b775760405162461bcd60e51b815260206004820152602a60248201527f54726f76654d616e616765723a204f6e6c79206f6e652074726f766520696e206044820152697468652073797374656d60b01b6064820152608401610d29565b6001600160a01b03821660009081526011602052604081206003015460ff169081600481111561538e5761538e6158c2565b141580156153ae575060018160048111156153ab576153ab6158c2565b14155b6153ba576153ba615bae565b6001600160a01b03831660009081526011602052604081206003015461010090046001600160801b03169083906153f2826001612aa4565b905080836001600160801b0316111561540d5761540d615bae565b60006018828154811061542257615422615b98565b600091825260209091200154601880546001600160a01b03909216925082916001600160801b03871690811061545a5761545a615b98565b600091825260208083209190910180546001600160a01b0319166001600160a01b03948516179055918316808252601183526040918290206003018054610100600160881b0319166101006001600160801b038a16908102919091179091558251918252928101929092527f02b04ae5f7be9ca7c103293a2aa15f3c339d15d6eda53b721fef7b0e609c831a910160405180910390a1601880548061550157615501615ce0565b600082815260209020810160001990810180546001600160a01b031916905501905550505050505050565b6000610c8260c883615b6d565b6000808080841561557d5761554e8786614fda565b935061555e87610c268887612ab7565b925061556a8785612aa4565b91506155768684612aa4565b905061558a565b5060009250829150859050845b93509350935093565b61559b615696565b8381526020810183905260006155bd83610c26876714d1120d7b160000612ab7565b90506155c88161552c565b6040830181905261c3506060840152608083018690526155e9908290612aa4565b60a08301526155f88482612aa4565b61010083015250600060c0820181905260e08201529392505050565b60006a636f6e736f6c652e6c6f679050600080835160208501845afa505050565b6000806156428484612ab7565b9050611174670de0b6b3a7640000610c2661565e600283615b6d565b8490613cb9565b6040518060a00160405280600081526020016000815260200160001515815260200160008152602001600081525090565b6040518061012001604052806000815260200160008152602001600081526020016000815260200160008152602001600081526020016000815260200160008152602001600081525090565b6040518060e0016040528060008152602001600081526020016000815260200160006001600160a01b0316815260200160001515815260200160008152602001600081525090565b6001600160a01b0391909116815260200190565b6001600160a01b0381168114610b7757600080fd5b803561575e8161573e565b919050565b60006020828403121561577557600080fd5b8135612ab08161573e565b6000806040838503121561579357600080fd5b823561579e8161573e565b946020939093013593505050565b634e487b7160e01b600052604160045260246000fd5b600060208083850312156157d557600080fd5b823567ffffffffffffffff808211156157ed57600080fd5b818501915085601f83011261580157600080fd5b813581811115615813576158136157ac565b8060051b604051601f19603f83011681018181108582111715615838576158386157ac565b60405291825284820192508381018501918883111561585657600080fd5b938501935b8285101561587b5761586c85615753565b8452938501939285019261585b565b98975050505050505050565b6000806040838503121561589a57600080fd5b50508035926020909101359150565b6000602082840312156158bb57600080fd5b5035919050565b634e487b7160e01b600052602160045260246000fd5b858152602081018590526040810184905260a08101600584106158fd576158fd6158c2565b60608201939093526001600160801b03919091166080909101529392505050565b6000806000806000806000806000806000806101808d8f03121561594157600080fd5b8c3561594c8161573e565b9b5060208d013561595c8161573e565b9a5060408d013561596c8161573e565b995060608d013561597c8161573e565b985060808d013561598c8161573e565b975060a08d013561599c8161573e565b96506159aa60c08e01615753565b95506159b860e08e01615753565b94506159c76101008e01615753565b93506159d66101208e01615753565b92506159e56101408e01615753565b91506159f46101608e01615753565b90509295989b509295989b509295989b565b6000815180845260005b81811015615a2c57602081850181015186830182015201615a10565b506000602082860101526020601f19601f83011685010191505092915050565b602081526000612ab06020830184615a06565b600080600080600080600060e0888a031215615a7a57600080fd5b873596506020880135615a8c8161573e565b95506040880135615a9c8161573e565b94506060880135615aac8161573e565b9699959850939660808101359560a0820135955060c0909101359350915050565b600060208284031215615adf57600080fd5b5051919050565b60208082526022908201527f54726f76654d616e616765723a206e6f7468696e6720746f206c697175696461604082015261746560f01b606082015260800190565b6001600160a01b03929092168252602082015260400190565b634e487b7160e01b600052601260045260246000fd5b634e487b7160e01b600052601160045260246000fd5b600082615b7c57615b7c615b41565b500490565b8082028115828204841417610c8257610c82615b57565b634e487b7160e01b600052603260045260246000fd5b634e487b7160e01b600052600160045260246000fd5b81810381811115610c8257610c82615b57565b600060208284031215615be957600080fd5b8151612ab08161573e565b600081615c0357615c03615b57565b506000190190565b60048110615c1b57615c1b6158c2565b9052565b848152602081018490526040810183905260808101611ed96060830184615c0b565b600060018201615c5357615c53615b57565b5060010190565b604081526000615c6d6040830185615a06565b90508260208301529392505050565b80820180821115610c8257610c82615b57565b600060208284031215615ca157600080fd5b81518015158114612ab057600080fd5b83815260208101839052606081016111746040830184615c0b565b600082615cdb57615cdb615b41565b500690565b634e487b7160e01b600052603160045260246000fdfeea67486ed7ebe3eea8ab3390efd4a3c8aae48be5bea27df104a8af786c408434c3770d654ed33aeea6bf11ac8ef05d02a6a04ed4686dd2f624d853bbec43cc8ba264697066735822122032579b609fb7d4b2d51ff92e3ced239dd5e11a11100dfd9e2cfe40c1f647fbbd64736f6c63430008130033",
  "devdoc": {
    "kind": "dev",
    "methods": {
      "owner()": {
        "details": "Returns the address of the current owner."
      },
      "renounceOwnership()": {
        "details": "Leaves the contract without owner. It will not be possible to call `onlyOwner` functions. Can only be called by the current owner. NOTE: Renouncing ownership will leave the contract without an owner, thereby disabling any functionality that is only available to the owner."
      },
      "transferOwnership(address)": {
        "details": "Transfers ownership of the contract to a new account (`newOwner`). Can only be called by the current owner."
      }
    },
    "version": 1
  },
  "userdoc": {
    "kind": "user",
    "methods": {
      "getCurrentICR(address,uint256)": {
        "notice": "Hedgehog changes: Get Price directly from the price feed instead of param passing"
      }
    },
    "notice": "Fork of Liquity's TroveManager. Most of the Logic remains unchanged. Changes to the contract: - Raised pragma version - Removed an import of ActivePool Interface - Logic updates with redemption & borrowing fees calculation and their distribution Even though SafeMath is no longer required, the decision was made to keep it to avoid human factor errors",
    "version": 1
  },
  "storageLayout": {
    "storage": [
      {
        "astId": 15614,
        "contract": "contracts/TroveManager.sol:TroveManager",
        "label": "activePool",
        "offset": 0,
        "slot": "0",
        "type": "t_contract(IActivePool)16302"
      },
      {
        "astId": 15617,
        "contract": "contracts/TroveManager.sol:TroveManager",
        "label": "defaultPool",
        "offset": 0,
        "slot": "1",
        "type": "t_contract(IDefaultPool)16710"
      },
      {
        "astId": 15621,
        "contract": "contracts/TroveManager.sol:TroveManager",
        "label": "priceFeed",
        "offset": 0,
        "slot": "2",
        "type": "t_contract(IPriceFeed)16969"
      },
      {
        "astId": 396,
        "contract": "contracts/TroveManager.sol:TroveManager",
        "label": "_owner",
        "offset": 0,
        "slot": "3",
        "type": "t_address"
      },
      {
        "astId": 10451,
        "contract": "contracts/TroveManager.sol:TroveManager",
        "label": "borrowerOperationsAddress",
        "offset": 0,
        "slot": "4",
        "type": "t_address"
      },
      {
        "astId": 10454,
        "contract": "contracts/TroveManager.sol:TroveManager",
        "label": "stabilityPool",
        "offset": 0,
        "slot": "5",
        "type": "t_contract(IStabilityPool)17274"
      },
      {
        "astId": 10456,
        "contract": "contracts/TroveManager.sol:TroveManager",
        "label": "gasPoolAddress",
        "offset": 0,
        "slot": "6",
        "type": "t_address"
      },
      {
        "astId": 10459,
        "contract": "contracts/TroveManager.sol:TroveManager",
        "label": "collSurplusPool",
        "offset": 0,
        "slot": "7",
        "type": "t_contract(ICollSurplusPool)16648"
      },
      {
        "astId": 10462,
        "contract": "contracts/TroveManager.sol:TroveManager",
        "label": "baseFeeLMAToken",
        "offset": 0,
        "slot": "8",
        "type": "t_contract(IBaseFeeLMAToken)16366"
      },
      {
        "astId": 10465,
        "contract": "contracts/TroveManager.sol:TroveManager",
        "label": "hogToken",
        "offset": 0,
        "slot": "9",
        "type": "t_contract(IHOGToken)16893"
      },
      {
        "astId": 10468,
        "contract": "contracts/TroveManager.sol:TroveManager",
        "label": "hogStaking",
        "offset": 0,
        "slot": "10",
        "type": "t_contract(IHOGStaking)16837"
      },
      {
        "astId": 10471,
        "contract": "contracts/TroveManager.sol:TroveManager",
        "label": "feesRouter",
        "offset": 0,
        "slot": "11",
        "type": "t_contract(IFeesRouter)16727"
      },
      {
        "astId": 10474,
        "contract": "contracts/TroveManager.sol:TroveManager",
        "label": "sortedTroves",
        "offset": 0,
        "slot": "12",
        "type": "t_contract(ISortedTroves)17101"
      },
      {
        "astId": 10502,
        "contract": "contracts/TroveManager.sol:TroveManager",
        "label": "redemptionBaseRate",
        "offset": 0,
        "slot": "13",
        "type": "t_uint256"
      },
      {
        "astId": 10504,
        "contract": "contracts/TroveManager.sol:TroveManager",
        "label": "borrowBaseRate",
        "offset": 0,
        "slot": "14",
        "type": "t_uint256"
      },
      {
        "astId": 10506,
        "contract": "contracts/TroveManager.sol:TroveManager",
        "label": "lastRedemptionTime",
        "offset": 0,
        "slot": "15",
        "type": "t_uint256"
      },
      {
        "astId": 10508,
        "contract": "contracts/TroveManager.sol:TroveManager",
        "label": "lastBorrowTime",
        "offset": 0,
        "slot": "16",
        "type": "t_uint256"
      },
      {
        "astId": 10531,
        "contract": "contracts/TroveManager.sol:TroveManager",
        "label": "Troves",
        "offset": 0,
        "slot": "17",
        "type": "t_mapping(t_address,t_struct(Trove)10526_storage)"
      },
      {
        "astId": 10533,
        "contract": "contracts/TroveManager.sol:TroveManager",
        "label": "totalStakes",
        "offset": 0,
        "slot": "18",
        "type": "t_uint256"
      },
      {
        "astId": 10535,
        "contract": "contracts/TroveManager.sol:TroveManager",
        "label": "totalStakesSnapshot",
        "offset": 0,
        "slot": "19",
        "type": "t_uint256"
      },
      {
        "astId": 10537,
        "contract": "contracts/TroveManager.sol:TroveManager",
        "label": "totalCollateralSnapshot",
        "offset": 0,
        "slot": "20",
        "type": "t_uint256"
      },
      {
        "astId": 10539,
        "contract": "contracts/TroveManager.sol:TroveManager",
        "label": "L_StETH",
        "offset": 0,
        "slot": "21",
        "type": "t_uint256"
      },
      {
        "astId": 10541,
        "contract": "contracts/TroveManager.sol:TroveManager",
        "label": "L_BaseFeeLMADebt",
        "offset": 0,
        "slot": "22",
        "type": "t_uint256"
      },
      {
        "astId": 10546,
        "contract": "contracts/TroveManager.sol:TroveManager",
        "label": "rewardSnapshots",
        "offset": 0,
        "slot": "23",
        "type": "t_mapping(t_address,t_struct(RewardSnapshot)10551_storage)"
      },
      {
        "astId": 10554,
        "contract": "contracts/TroveManager.sol:TroveManager",
        "label": "TroveOwners",
        "offset": 0,
        "slot": "24",
        "type": "t_array(t_address)dyn_storage"
      },
      {
        "astId": 10556,
        "contract": "contracts/TroveManager.sol:TroveManager",
        "label": "lastStETHError_Redistribution",
        "offset": 0,
        "slot": "25",
        "type": "t_uint256"
      },
      {
        "astId": 10558,
        "contract": "contracts/TroveManager.sol:TroveManager",
        "label": "lastBaseFeeLMADebtError_Redistribution",
        "offset": 0,
        "slot": "26",
        "type": "t_uint256"
      }
    ],
    "types": {
      "t_address": {
        "encoding": "inplace",
        "label": "address",
        "numberOfBytes": "20"
      },
      "t_array(t_address)dyn_storage": {
        "base": "t_address",
        "encoding": "dynamic_array",
        "label": "address[]",
        "numberOfBytes": "32"
      },
      "t_contract(IActivePool)16302": {
        "encoding": "inplace",
        "label": "contract IActivePool",
        "numberOfBytes": "20"
      },
      "t_contract(IBaseFeeLMAToken)16366": {
        "encoding": "inplace",
        "label": "contract IBaseFeeLMAToken",
        "numberOfBytes": "20"
      },
      "t_contract(ICollSurplusPool)16648": {
        "encoding": "inplace",
        "label": "contract ICollSurplusPool",
        "numberOfBytes": "20"
      },
      "t_contract(IDefaultPool)16710": {
        "encoding": "inplace",
        "label": "contract IDefaultPool",
        "numberOfBytes": "20"
      },
      "t_contract(IFeesRouter)16727": {
        "encoding": "inplace",
        "label": "contract IFeesRouter",
        "numberOfBytes": "20"
      },
      "t_contract(IHOGStaking)16837": {
        "encoding": "inplace",
        "label": "contract IHOGStaking",
        "numberOfBytes": "20"
      },
      "t_contract(IHOGToken)16893": {
        "encoding": "inplace",
        "label": "contract IHOGToken",
        "numberOfBytes": "20"
      },
      "t_contract(IPriceFeed)16969": {
        "encoding": "inplace",
        "label": "contract IPriceFeed",
        "numberOfBytes": "20"
      },
      "t_contract(ISortedTroves)17101": {
        "encoding": "inplace",
        "label": "contract ISortedTroves",
        "numberOfBytes": "20"
      },
      "t_contract(IStabilityPool)17274": {
        "encoding": "inplace",
        "label": "contract IStabilityPool",
        "numberOfBytes": "20"
      },
      "t_enum(Status)10514": {
        "encoding": "inplace",
        "label": "enum TroveManager.Status",
        "numberOfBytes": "1"
      },
      "t_mapping(t_address,t_struct(RewardSnapshot)10551_storage)": {
        "encoding": "mapping",
        "key": "t_address",
        "label": "mapping(address => struct TroveManager.RewardSnapshot)",
        "numberOfBytes": "32",
        "value": "t_struct(RewardSnapshot)10551_storage"
      },
      "t_mapping(t_address,t_struct(Trove)10526_storage)": {
        "encoding": "mapping",
        "key": "t_address",
        "label": "mapping(address => struct TroveManager.Trove)",
        "numberOfBytes": "32",
        "value": "t_struct(Trove)10526_storage"
      },
      "t_struct(RewardSnapshot)10551_storage": {
        "encoding": "inplace",
        "label": "struct TroveManager.RewardSnapshot",
        "members": [
          {
            "astId": 10548,
            "contract": "contracts/TroveManager.sol:TroveManager",
            "label": "StETH",
            "offset": 0,
            "slot": "0",
            "type": "t_uint256"
          },
          {
            "astId": 10550,
            "contract": "contracts/TroveManager.sol:TroveManager",
            "label": "BaseFeeLMADebt",
            "offset": 0,
            "slot": "1",
            "type": "t_uint256"
          }
        ],
        "numberOfBytes": "64"
      },
      "t_struct(Trove)10526_storage": {
        "encoding": "inplace",
        "label": "struct TroveManager.Trove",
        "members": [
          {
            "astId": 10516,
            "contract": "contracts/TroveManager.sol:TroveManager",
            "label": "debt",
            "offset": 0,
            "slot": "0",
            "type": "t_uint256"
          },
          {
            "astId": 10518,
            "contract": "contracts/TroveManager.sol:TroveManager",
            "label": "coll",
            "offset": 0,
            "slot": "1",
            "type": "t_uint256"
          },
          {
            "astId": 10520,
            "contract": "contracts/TroveManager.sol:TroveManager",
            "label": "stake",
            "offset": 0,
            "slot": "2",
            "type": "t_uint256"
          },
          {
            "astId": 10523,
            "contract": "contracts/TroveManager.sol:TroveManager",
            "label": "status",
            "offset": 0,
            "slot": "3",
            "type": "t_enum(Status)10514"
          },
          {
            "astId": 10525,
            "contract": "contracts/TroveManager.sol:TroveManager",
            "label": "arrayIndex",
            "offset": 1,
            "slot": "3",
            "type": "t_uint128"
          }
        ],
        "numberOfBytes": "128"
      },
      "t_uint128": {
        "encoding": "inplace",
        "label": "uint128",
        "numberOfBytes": "16"
      },
      "t_uint256": {
        "encoding": "inplace",
        "label": "uint256",
        "numberOfBytes": "32"
      }
    }
  }
}