{
  "address": "0x1EC7d0B51891d920B60F3216165dc6cf891556BD",
  "abi": [
    {
      "anonymous": false,
      "inputs": [
        {
          "indexed": false,
          "internalType": "address",
          "name": "_activePoolAddress",
          "type": "address"
        }
      ],
      "name": "ActivePoolAddressChanged",
      "type": "event"
    },
    {
      "anonymous": false,
      "inputs": [
        {
          "indexed": true,
          "internalType": "address",
          "name": "_borrower",
          "type": "address"
        },
        {
          "indexed": false,
          "internalType": "uint256",
          "name": "_BaseFeeLMAFee",
          "type": "uint256"
        }
      ],
      "name": "BaseFeeLMABorrowingFeePaid",
      "type": "event"
    },
    {
      "anonymous": false,
      "inputs": [
        {
          "indexed": false,
          "internalType": "address",
          "name": "_BaseFeeLMATokenAddress",
          "type": "address"
        }
      ],
      "name": "BaseFeeLMATokenAddressChanged",
      "type": "event"
    },
    {
      "anonymous": false,
      "inputs": [
        {
          "indexed": false,
          "internalType": "address",
          "name": "_collSurplusPoolAddress",
          "type": "address"
        }
      ],
      "name": "CollSurplusPoolAddressChanged",
      "type": "event"
    },
    {
      "anonymous": false,
      "inputs": [
        {
          "indexed": false,
          "internalType": "address",
          "name": "_defaultPoolAddress",
          "type": "address"
        }
      ],
      "name": "DefaultPoolAddressChanged",
      "type": "event"
    },
    {
      "anonymous": false,
      "inputs": [
        {
          "indexed": false,
          "internalType": "address",
          "name": "_gasPoolAddress",
          "type": "address"
        }
      ],
      "name": "GasPoolAddressChanged",
      "type": "event"
    },
    {
      "anonymous": false,
      "inputs": [
        {
          "indexed": false,
          "internalType": "address",
          "name": "_hogStakingAddress",
          "type": "address"
        }
      ],
      "name": "HOGStakingAddressChanged",
      "type": "event"
    },
    {
      "anonymous": false,
      "inputs": [
        {
          "indexed": true,
          "internalType": "address",
          "name": "previousOwner",
          "type": "address"
        },
        {
          "indexed": true,
          "internalType": "address",
          "name": "newOwner",
          "type": "address"
        }
      ],
      "name": "OwnershipTransferred",
      "type": "event"
    },
    {
      "anonymous": false,
      "inputs": [
        {
          "indexed": false,
          "internalType": "address",
          "name": "_newPriceFeedAddress",
          "type": "address"
        }
      ],
      "name": "PriceFeedAddressChanged",
      "type": "event"
    },
    {
      "anonymous": false,
      "inputs": [
        {
          "indexed": false,
          "internalType": "address",
          "name": "_sortedTrovesAddress",
          "type": "address"
        }
      ],
      "name": "SortedTrovesAddressChanged",
      "type": "event"
    },
    {
      "anonymous": false,
      "inputs": [
        {
          "indexed": false,
          "internalType": "address",
          "name": "_stabilityPoolAddress",
          "type": "address"
        }
      ],
      "name": "StabilityPoolAddressChanged",
      "type": "event"
    },
    {
      "anonymous": false,
      "inputs": [
        {
          "indexed": true,
          "internalType": "address",
          "name": "_borrower",
          "type": "address"
        },
        {
          "indexed": false,
          "internalType": "uint256",
          "name": "arrayIndex",
          "type": "uint256"
        }
      ],
      "name": "TroveCreated",
      "type": "event"
    },
    {
      "anonymous": false,
      "inputs": [
        {
          "indexed": false,
          "internalType": "address",
          "name": "_newTroveManagerAddress",
          "type": "address"
        }
      ],
      "name": "TroveManagerAddressChanged",
      "type": "event"
    },
    {
      "anonymous": false,
      "inputs": [
        {
          "indexed": true,
          "internalType": "address",
          "name": "_borrower",
          "type": "address"
        },
        {
          "indexed": false,
          "internalType": "uint256",
          "name": "_debt",
          "type": "uint256"
        },
        {
          "indexed": false,
          "internalType": "uint256",
          "name": "_coll",
          "type": "uint256"
        },
        {
          "indexed": false,
          "internalType": "uint256",
          "name": "stake",
          "type": "uint256"
        },
        {
          "indexed": false,
          "internalType": "enum BorrowerOperations.BorrowerOperation",
          "name": "operation",
          "type": "uint8"
        }
      ],
      "name": "TroveUpdated",
      "type": "event"
    },
    {
      "inputs": [],
      "name": "BORROWING_FEE_FLOOR",
      "outputs": [
        {
          "internalType": "uint256",
          "name": "",
          "type": "uint256"
        }
      ],
      "stateMutability": "view",
      "type": "function"
    },
    {
      "inputs": [],
      "name": "BaseFeeLMA_GAS_COMPENSATION",
      "outputs": [
        {
          "internalType": "uint256",
          "name": "",
          "type": "uint256"
        }
      ],
      "stateMutability": "view",
      "type": "function"
    },
    {
      "inputs": [],
      "name": "CCR",
      "outputs": [
        {
          "internalType": "uint256",
          "name": "",
          "type": "uint256"
        }
      ],
      "stateMutability": "view",
      "type": "function"
    },
    {
      "inputs": [],
      "name": "DECIMAL_PRECISION",
      "outputs": [
        {
          "internalType": "uint256",
          "name": "",
          "type": "uint256"
        }
      ],
      "stateMutability": "view",
      "type": "function"
    },
    {
      "inputs": [],
      "name": "MCR",
      "outputs": [
        {
          "internalType": "uint256",
          "name": "",
          "type": "uint256"
        }
      ],
      "stateMutability": "view",
      "type": "function"
    },
    {
      "inputs": [],
      "name": "MIN_NET_DEBT",
      "outputs": [
        {
          "internalType": "uint256",
          "name": "",
          "type": "uint256"
        }
      ],
      "stateMutability": "view",
      "type": "function"
    },
    {
      "inputs": [],
      "name": "NAME",
      "outputs": [
        {
          "internalType": "string",
          "name": "",
          "type": "string"
        }
      ],
      "stateMutability": "view",
      "type": "function"
    },
    {
      "inputs": [],
      "name": "PERCENT_DIVISOR",
      "outputs": [
        {
          "internalType": "uint256",
          "name": "",
          "type": "uint256"
        }
      ],
      "stateMutability": "view",
      "type": "function"
    },
    {
      "inputs": [],
      "name": "_100pct",
      "outputs": [
        {
          "internalType": "uint256",
          "name": "",
          "type": "uint256"
        }
      ],
      "stateMutability": "view",
      "type": "function"
    },
    {
      "inputs": [],
      "name": "activePool",
      "outputs": [
        {
          "internalType": "contract IActivePool",
          "name": "",
          "type": "address"
        }
      ],
      "stateMutability": "view",
      "type": "function"
    },
    {
      "inputs": [
        {
          "internalType": "address",
          "name": "_upperHint",
          "type": "address"
        },
        {
          "internalType": "address",
          "name": "_lowerHint",
          "type": "address"
        }
      ],
      "name": "addColl",
      "outputs": [],
      "stateMutability": "payable",
      "type": "function"
    },
    {
      "inputs": [
        {
          "internalType": "uint256",
          "name": "_maxFeePercentage",
          "type": "uint256"
        },
        {
          "internalType": "uint256",
          "name": "_collWithdrawal",
          "type": "uint256"
        },
        {
          "internalType": "uint256",
          "name": "_BaseFeeLMAChange",
          "type": "uint256"
        },
        {
          "internalType": "bool",
          "name": "_isDebtIncrease",
          "type": "bool"
        },
        {
          "internalType": "address",
          "name": "_upperHint",
          "type": "address"
        },
        {
          "internalType": "address",
          "name": "_lowerHint",
          "type": "address"
        }
      ],
      "name": "adjustTrove",
      "outputs": [],
      "stateMutability": "payable",
      "type": "function"
    },
    {
      "inputs": [],
      "name": "claimCollateral",
      "outputs": [],
      "stateMutability": "nonpayable",
      "type": "function"
    },
    {
      "inputs": [],
      "name": "closeTrove",
      "outputs": [],
      "stateMutability": "nonpayable",
      "type": "function"
    },
    {
      "inputs": [],
      "name": "defaultPool",
      "outputs": [
        {
          "internalType": "contract IDefaultPool",
          "name": "",
          "type": "address"
        }
      ],
      "stateMutability": "view",
      "type": "function"
    },
    {
      "inputs": [
        {
          "internalType": "uint256",
          "name": "_debt",
          "type": "uint256"
        }
      ],
      "name": "getCompositeDebt",
      "outputs": [
        {
          "internalType": "uint256",
          "name": "",
          "type": "uint256"
        }
      ],
      "stateMutability": "pure",
      "type": "function"
    },
    {
      "inputs": [],
      "name": "getEntireSystemColl",
      "outputs": [
        {
          "internalType": "uint256",
          "name": "entireSystemColl",
          "type": "uint256"
        }
      ],
      "stateMutability": "view",
      "type": "function"
    },
    {
      "inputs": [],
      "name": "getEntireSystemDebt",
      "outputs": [
        {
          "internalType": "uint256",
          "name": "entireSystemDebt",
          "type": "uint256"
        }
      ],
      "stateMutability": "view",
      "type": "function"
    },
    {
      "inputs": [],
      "name": "hogStaking",
      "outputs": [
        {
          "internalType": "contract IHOGStaking",
          "name": "",
          "type": "address"
        }
      ],
      "stateMutability": "view",
      "type": "function"
    },
    {
      "inputs": [],
      "name": "hogStakingAddress",
      "outputs": [
        {
          "internalType": "address",
          "name": "",
          "type": "address"
        }
      ],
      "stateMutability": "view",
      "type": "function"
    },
    {
      "inputs": [
        {
          "internalType": "address",
          "name": "_borrower",
          "type": "address"
        },
        {
          "internalType": "address",
          "name": "_upperHint",
          "type": "address"
        },
        {
          "internalType": "address",
          "name": "_lowerHint",
          "type": "address"
        }
      ],
      "name": "moveStETHGainToTrove",
      "outputs": [],
      "stateMutability": "payable",
      "type": "function"
    },
    {
      "inputs": [
        {
          "internalType": "uint256",
          "name": "_maxFeePercentage",
          "type": "uint256"
        },
        {
          "internalType": "uint256",
          "name": "_BaseFeeLMAAmount",
          "type": "uint256"
        },
        {
          "internalType": "address",
          "name": "_upperHint",
          "type": "address"
        },
        {
          "internalType": "address",
          "name": "_lowerHint",
          "type": "address"
        }
      ],
      "name": "openTrove",
      "outputs": [],
      "stateMutability": "payable",
      "type": "function"
    },
    {
      "inputs": [],
      "name": "owner",
      "outputs": [
        {
          "internalType": "address",
          "name": "",
          "type": "address"
        }
      ],
      "stateMutability": "view",
      "type": "function"
    },
    {
      "inputs": [],
      "name": "priceFeed",
      "outputs": [
        {
          "internalType": "contract IPriceFeed",
          "name": "",
          "type": "address"
        }
      ],
      "stateMutability": "view",
      "type": "function"
    },
    {
      "inputs": [],
      "name": "renounceOwnership",
      "outputs": [],
      "stateMutability": "nonpayable",
      "type": "function"
    },
    {
      "inputs": [
        {
          "internalType": "uint256",
          "name": "_BaseFeeLMAAmount",
          "type": "uint256"
        },
        {
          "internalType": "address",
          "name": "_upperHint",
          "type": "address"
        },
        {
          "internalType": "address",
          "name": "_lowerHint",
          "type": "address"
        }
      ],
      "name": "repayBaseFeeLMA",
      "outputs": [],
      "stateMutability": "nonpayable",
      "type": "function"
    },
    {
      "inputs": [
        {
          "internalType": "address",
          "name": "_troveManagerAddress",
          "type": "address"
        },
        {
          "internalType": "address",
          "name": "_activePoolAddress",
          "type": "address"
        },
        {
          "internalType": "address",
          "name": "_defaultPoolAddress",
          "type": "address"
        },
        {
          "internalType": "address",
          "name": "_stabilityPoolAddress",
          "type": "address"
        },
        {
          "internalType": "address",
          "name": "_gasPoolAddress",
          "type": "address"
        },
        {
          "internalType": "address",
          "name": "_collSurplusPoolAddress",
          "type": "address"
        },
        {
          "internalType": "address",
          "name": "_priceFeedAddress",
          "type": "address"
        },
        {
          "internalType": "address",
          "name": "_sortedTrovesAddress",
          "type": "address"
        },
        {
          "internalType": "address",
          "name": "_baseFeeLMATokenAddress",
          "type": "address"
        },
        {
          "internalType": "address",
          "name": "_hogStakingAddress",
          "type": "address"
        }
      ],
      "name": "setAddresses",
      "outputs": [],
      "stateMutability": "nonpayable",
      "type": "function"
    },
    {
      "inputs": [],
      "name": "sortedTroves",
      "outputs": [
        {
          "internalType": "contract ISortedTroves",
          "name": "",
          "type": "address"
        }
      ],
      "stateMutability": "view",
      "type": "function"
    },
    {
      "inputs": [
        {
          "internalType": "address",
          "name": "newOwner",
          "type": "address"
        }
      ],
      "name": "transferOwnership",
      "outputs": [],
      "stateMutability": "nonpayable",
      "type": "function"
    },
    {
      "inputs": [],
      "name": "troveManager",
      "outputs": [
        {
          "internalType": "contract ITroveManager",
          "name": "",
          "type": "address"
        }
      ],
      "stateMutability": "view",
      "type": "function"
    },
    {
      "inputs": [
        {
          "internalType": "uint256",
          "name": "_maxFeePercentage",
          "type": "uint256"
        },
        {
          "internalType": "uint256",
          "name": "_BaseFeeLMAAmount",
          "type": "uint256"
        },
        {
          "internalType": "address",
          "name": "_upperHint",
          "type": "address"
        },
        {
          "internalType": "address",
          "name": "_lowerHint",
          "type": "address"
        }
      ],
      "name": "withdrawBaseFeeLMA",
      "outputs": [],
      "stateMutability": "nonpayable",
      "type": "function"
    },
    {
      "inputs": [
        {
          "internalType": "uint256",
          "name": "_collWithdrawal",
          "type": "uint256"
        },
        {
          "internalType": "address",
          "name": "_upperHint",
          "type": "address"
        },
        {
          "internalType": "address",
          "name": "_lowerHint",
          "type": "address"
        }
      ],
      "name": "withdrawColl",
      "outputs": [],
      "stateMutability": "nonpayable",
      "type": "function"
    }
  ],
  "transactionHash": "0x6319a562ba3104534413156ce9e5846a121e5262b3e871db85c444e12f5c0fa2",
  "args": [],
  "numDeployments": 1,
  "solcInputHash": "44ec62794a346a5bd886ca1e9d9fabaa",
  "bytecode": "0x60806040523480156200001157600080fd5b506200001d3362000023565b62000075565b600380546001600160a01b038381166001600160a01b0319831681179093556040519116919082907f8be0079c531659141344cd1fd0a4f28419497f9722a3daafe3b4186f6b6457e090600090a35050565b6133e780620000856000396000f3fe6080604052600436106101a35760003560e01c8063795d26c3116100e2578063ae91875411610085578063ae91875414610465578063ae943e7a14610485578063aead9dcc14610498578063b8a106da146104b8578063c6a6cf20146104d8578063f2fde38b146104eb578063f633e7431461050b578063f92d34331461052b57600080fd5b8063795d26c3146103825780637f7dde4a14610397578063860665b3146103b7578063887105d3146103ca5780638da5cb5b146103df578063a2014152146103fd578063a20baee61461032a578063a3f4df7e1461041a57600080fd5b80635733d58f1161014a5780635733d58f146102b157806368647db1146102cd5780636c37a4af146102e05780636f0b0c1c14610300578063715018a61461031557806372fe25aa1461032a578063741bef1a14610346578063794e57241461036657600080fd5b80630e704d50146101a85780631bf43555146101bf5780633cc74225146101ef5780633d83908a1461021c57806347a6e7131461023c5780634870dd9a1461025c5780634ff81443146102715780635530273c14610291575b600080fd5b3480156101b457600080fd5b506101bd610540565b005b3480156101cb57600080fd5b506101dc686194049f30f720000081565b6040519081526020015b60405180910390f35b3480156101fb57600080fd5b5060015461020f906001600160a01b031681565b6040516101e69190612fb2565b34801561022857600080fd5b5060045461020f906001600160a01b031681565b34801561024857600080fd5b506101bd610257366004612fe2565b6108f6565b34801561026857600080fd5b506101dc60c881565b34801561027d57600080fd5b506101dc61028c36600461301e565b61090d565b34801561029d57600080fd5b506101bd6102ac366004612fe2565b61091e565b3480156102bd57600080fd5b506101dc6714d1120d7b16000081565b6101bd6102db366004613037565b61092f565b3480156102ec57600080fd5b506101bd6102fb36600461306a565b610945565b34801561030c57600080fd5b506101bd610c7e565b34801561032157600080fd5b506101bd610ce2565b34801561033657600080fd5b506101dc670de0b6b3a764000081565b34801561035257600080fd5b5060025461020f906001600160a01b031681565b34801561037257600080fd5b506101dc670f43fc2c04ee000081565b34801561038e57600080fd5b506101dc610cf6565b3480156103a357600080fd5b5060005461020f906001600160a01b031681565b6101bd6103c5366004613124565b610df2565b3480156103d657600080fd5b506101dc6113da565b3480156103eb57600080fd5b506003546001600160a01b031661020f565b34801561040957600080fd5b506101dc680ad78ebc5ac620000081565b34801561042657600080fd5b5061045860405180604001604052806012815260200171426f72726f7765724f7065726174696f6e7360701b81525081565b6040516101e6919061316a565b34801561047157600080fd5b50600b5461020f906001600160a01b031681565b6101bd6104933660046131b8565b61149f565b3480156104a457600080fd5b5060085461020f906001600160a01b031681565b3480156104c457600080fd5b506101bd6104d3366004613124565b6114b9565b6101bd6104e63660046131e4565b6114ca565b3480156104f757600080fd5b506101bd61050636600461324a565b6114e1565b34801561051757600080fd5b5060095461020f906001600160a01b031681565b34801561053757600080fd5b506101dc61155f565b600454600054600a546001600160a01b039283169291821691166105648333611581565b60025460408051630fdb11cf60e01b815290516000926001600160a01b031691630fdb11cf916004808301926020929190829003018187875af11580156105af573d6000803e3d6000fd5b505050506040513d601f19601f820116820180604052508101906105d39190613265565b90506105de8161165a565b604051630b07655760e01b81526001600160a01b03851690630b0765579061060a903390600401612fb2565b600060405180830381600087803b15801561062457600080fd5b505af1158015610638573d6000803e3d6000fd5b50506040516309019aaf60e31b8152600092506001600160a01b038716915063480cd5789061066b903390600401612fb2565b602060405180830381865afa158015610688573d6000803e3d6000fd5b505050506040513d601f19601f820116820180604052508101906106ac9190613265565b90506000856001600160a01b031663d66a2553336040518263ffffffff1660e01b81526004016106dc9190612fb2565b602060405180830381865afa1580156106f9573d6000803e3d6000fd5b505050506040513d601f19601f8201168201806040525081019061071d9190613265565b905061073c843361073784680ad78ebc5ac62000006116d2565b6116e5565b600061074d836000846000886117d4565b905061075881611849565b604051631fc5750960e31b81526001600160a01b0388169063fe2ba84890610784903390600401612fb2565b600060405180830381600087803b15801561079e57600080fd5b505af11580156107b2573d6000803e3d6000fd5b50506040516365e89c5760e11b81526001600160a01b038a16925063cbd138ae91506107e2903390600401612fb2565b600060405180830381600087803b1580156107fc57600080fd5b505af1158015610810573d6000803e3d6000fd5b50505050336001600160a01b03166000805160206133928339815191526000806000600160405161084494939291906132a0565b60405180910390a261086a86863361086586680ad78ebc5ac62000006116d2565b6118d9565b60065461088d90879087906001600160a01b0316680ad78ebc5ac62000006118d9565b60405163a51ba3b760e01b81526001600160a01b0387169063a51ba3b7906108bb90339087906004016132c2565b600060405180830381600087803b1580156108d557600080fd5b505af11580156108e9573d6000803e3d6000fd5b5050505050505050505050565b61090833600085600086866000611999565b505050565b600061091882611f61565b92915050565b610908338460008086866000611999565b61094133600080600086866000611999565b5050565b61094d611f76565b6109568a611fd0565b61095f89611fd0565b61096888611fd0565b61097187611fd0565b61097a86611fd0565b61098385611fd0565b61098c84611fd0565b61099583611fd0565b61099e82611fd0565b6109a781611fd0565b600480546001600160a01b03199081166001600160a01b038d8116919091179092556000805482168c84161790556001805482168b84161790556005805482168a8416179055600680548216898416179055600780548216888416179055600280548216878416179055600b80548216868416179055600a8054821685841617905560098054821692841692831790556008805490911690911790556040517f143219c9e69b09e07e095fcc889b43d8f46ca892bba65f08dc3a0050869a567890610a73908c90612fb2565b60405180910390a17f78f058b189175430c48dc02699e3a0031ea4ff781536dc2fab847de4babdd88289604051610aaa9190612fb2565b60405180910390a17f5ee0cae2f063ed938bb55046f6a932fb6ae792bf43624806bb90abe68a50be9b88604051610ae19190612fb2565b60405180910390a17f82966d27eea39b038ee0fa30cd16532bb24f6e65d31cb58fb227aa5766cdcc7f87604051610b189190612fb2565b60405180910390a17fcfb07d791fcafc032b35837b50eb84b74df518cf4cc287e8084f47630fa70fa086604051610b4f9190612fb2565b60405180910390a17fe67f36a6e961157d6eff83b91f3af5a62131ceb6f04954ef74f51c1c05e7f88d85604051610b869190612fb2565b60405180910390a17f8c537274438aa850a330284665d81a85dd38267d09e4050d416bfc94142db26484604051610bbd9190612fb2565b60405180910390a17f65f4cf077bc01e4742eb5ad98326f6e95b63548ea24b17f8d5e823111fe7880083604051610bf49190612fb2565b60405180910390a17f7faa560f2889840c377209fbc4b6b92d05f43f1fc60bf336ab546fd60c0051ad82604051610c2b9190612fb2565b60405180910390a17ffe7e5f521efd6e9fda9261f1223b2cda79ba84d0393e8b6629d27db91048126f81604051610c629190612fb2565b60405180910390a1610c72610ce2565b50505050505050505050565b60075460405163b32beb5b60e01b81526001600160a01b039091169063b32beb5b90610cae903390600401612fb2565b600060405180830381600087803b158015610cc857600080fd5b505af1158015610cdc573d6000803e3d6000fd5b50505050565b610cea611f76565b610cf46000612075565b565b60008054604080516315b3137b60e21b8152905183926001600160a01b0316916356cc4dec9160048083019260209291908290030181865afa158015610d40573d6000803e3d6000fd5b505050506040513d601f19601f82011682018060405250810190610d649190613265565b90506000600160009054906101000a90046001600160a01b03166001600160a01b03166356cc4dec6040518163ffffffff1660e01b8152600401602060405180830381865afa158015610dbb573d6000803e3d6000fd5b505050506040513d601f19601f82011682018060405250810190610ddf9190613265565b9050610deb82826120c7565b9250505090565b6040805160608082018352600480546001600160a01b039081168452600080548216602080870191909152600a548316868801528651610100810188528281528082018390528088018390529485018290526080850182905260a0850182905260c0850182905260e085018290526002548751630fdb11cf60e01b8152975196979596931694630fdb11cf948181019492939183900301908290875af1158015610ea0573d6000803e3d6000fd5b505050506040513d601f19601f82011682018060405250810190610ec49190613265565b808252600090610ed3906120d3565b9050610edf87826120f0565b8251610eeb9033612204565b6040820186905280610f2657610f0b83600001518460400151888a6122c6565b602083018190526040830151610f20916120c7565b60408301525b610f33826040015161245f565b610f408260400151611f61565b60608301819052610f5357610f536132db565b610f6634836060015184600001516124de565b60808301526060820151610f7b903490612510565b60a08301528015610f9857610f93826080015161253f565b610fcb565b610fa582608001516125b7565b6000610fbe3460018560600151600187600001516117d4565b9050610fc981611849565b505b8251604051635d6b480f60e01b81526001600160a01b0390911690635d6b480f90610ffd9033906001906004016132c2565b600060405180830381600087803b15801561101757600080fd5b505af115801561102b573d6000803e3d6000fd5b505084516040516372423c1760e01b81526001600160a01b0390911692506372423c17915061106090339034906004016132c2565b6020604051808303816000875af115801561107f573d6000803e3d6000fd5b505050506040513d601f19601f820116820180604052508101906110a39190613265565b5082516060830151604051639976cf4560e01b81526001600160a01b0390921691639976cf45916110d9913391906004016132c2565b6020604051808303816000875af11580156110f8573d6000803e3d6000fd5b505050506040513d601f19601f8201168201806040525081019061111c9190613265565b5082516040516382fe3eb960e01b81526001600160a01b03909116906382fe3eb99061114c903390600401612fb2565b600060405180830381600087803b15801561116657600080fd5b505af115801561117a573d6000803e3d6000fd5b50508451604051630c7940bd60e11b81526001600160a01b0390911692506318f2817a91506111ad903390600401612fb2565b6020604051808303816000875af11580156111cc573d6000803e3d6000fd5b505050506040513d601f19601f820116820180604052508101906111f09190613265565b60c0830152600b5460a08301516040516346f7cf8760e01b81526001600160a01b03909216916346f7cf879161122f913391908a908a906004016132f1565b600060405180830381600087803b15801561124957600080fd5b505af115801561125d573d6000803e3d6000fd5b505084516040516315d549f160e01b81526001600160a01b0390911692506315d549f19150611290903390600401612fb2565b6020604051808303816000875af11580156112af573d6000803e3d6000fd5b505050506040513d601f19601f820116820180604052508101906112d39190613265565b60e0830181905260405190815233907f59cfd0cd754bc5748b6770e94a4ffa5f678d885cb899dcfadc5734edb97c67ab9060200160405180910390a261131d836020015134612647565b6113368360200151846040015133898660400151612702565b602083015160408401516006546113629291906001600160a01b0316680ad78ebc5ac620000080612702565b606082015160c0830151604051339260008051602061339283398151915292611390923491906000906132a0565b60405180910390a260208083015160405190815233917f909ac017b31fd41edf1bf9a7ed7d4a7af4343fe034023db2d0220a77ba25e7ee910160405180910390a250505050505050565b600080546040805163a2f0398360e01b8152905183926001600160a01b03169163a2f039839160048083019260209291908290030181865afa158015611424573d6000803e3d6000fd5b505050506040513d601f19601f820116820180604052508101906114489190613265565b90506000600160009054906101000a90046001600160a01b03166001600160a01b031663a2f039836040518163ffffffff1660e01b8152600401602060405180830381865afa158015610dbb573d6000803e3d6000fd5b6114a76127c3565b61090883600080600086866000611999565b610cdc33600085600186868a611999565b6114d93386868686868c611999565b505050505050565b6114e9611f76565b6001600160a01b0381166115535760405162461bcd60e51b815260206004820152602660248201527f4f776e61626c653a206e6577206f776e657220697320746865207a65726f206160448201526564647265737360d01b60648201526084015b60405180910390fd5b61155c81612075565b50565b6115736103e8670de0b6b3a7640000613332565b61157e906005613354565b81565b6040516321e3780160e01b81526000906001600160a01b038416906321e37801906115b0908590600401612fb2565b602060405180830381865afa1580156115cd573d6000803e3d6000fd5b505050506040513d601f19601f820116820180604052508101906115f19190613265565b9050806001146109085760405162461bcd60e51b815260206004820152602e60248201527f426f72726f7765724f70733a2054726f766520646f6573206e6f74206578697360448201526d1d081bdc881a5cc818db1bdcd95960921b606482015260840161154a565b611663816120d3565b1561155c5760405162461bcd60e51b815260206004820152603960248201527f426f72726f7765724f70733a204f7065726174696f6e206e6f74207065726d696044820152787474656420647572696e67205265636f76657279204d6f646560381b606482015260840161154a565b60006116de828461336b565b9392505050565b6040516370a0823160e01b815281906001600160a01b038516906370a0823190611713908690600401612fb2565b602060405180830381865afa158015611730573d6000803e3d6000fd5b505050506040513d601f19601f820116820180604052508101906117549190613265565b10156109085760405162461bcd60e51b815260206004820152604360248201527f426f72726f7765724f70733a2043616c6c657220646f65736e7420686176652060448201527f656e6f75676820426173654665654c4d4120746f206d616b652072657061796d606482015262195b9d60ea1b608482015260a40161154a565b6000806117df6113da565b905060006117eb610cf6565b905086611801576117fc82896116d2565b61180b565b61180b82896120c7565b9150846118215761181c81876116d2565b61182b565b61182b81876120c7565b9050600061183a8383876124de565b93505050505b95945050505050565b6714d1120d7b16000081101561155c5760405162461bcd60e51b815260206004820152604960248201527f426f72726f7765724f70733a20416e206f7065726174696f6e2074686174207760448201527f6f756c6420726573756c7420696e20544352203c20434352206973206e6f74206064820152681c195c9b5a5d1d195960ba1b608482015260a40161154a565b604051633b4009ff60e11b8152600481018290526001600160a01b0385169063768013fe90602401600060405180830381600087803b15801561191b57600080fd5b505af115801561192f573d6000803e3d6000fd5b5050604051632770a7eb60e21b81526001600160a01b0386169250639dc29fac915061196190859085906004016132c2565b600060405180830381600087803b15801561197b57600080fd5b505af115801561198f573d6000803e3d6000fd5b5050505050505050565b6040805160608082018352600480546001600160a01b039081168452600080548216602080870191909152600a5483168688015286516101a0810188528281528082018390528088018390529485018290526080850182905260a0850182905260c0850182905260e08501829052610100850182905261012085018290526101408501829052610160850182905261018085018290526002548751630fdb11cf60e01b8152975196979596931694630fdb11cf948181019492939183900301908290875af1158015611a6f573d6000803e3d6000fd5b505050506040513d601f19601f82011682018060405250810190611a939190613265565b808252600090611aa2906120d3565b90508615611abd57611ab484826120f0565b611abd8861282f565b611ac68961289f565b611ad0898961290f565b8251611adc908b611581565b336001600160a01b038b161480611b1257506005546001600160a01b031633148015611b085750600034115b8015611b12575087155b611b1e57611b1e6132db565b8251604051630b07655760e01b81526001600160a01b0390911690630b07655790611b4d908d90600401612fb2565b600060405180830381600087803b158015611b6757600080fd5b505af1158015611b7b573d6000803e3d6000fd5b50505050611b89348a6129a7565b15156060840152602083015260408201889052868015611ba7575080155b15611bdc57611bc0836000015184604001518a876122c6565b61012083018190526040830151611bd6916120c7565b60408301525b825160405163d66a255360e01b81526001600160a01b039091169063d66a255390611c0b908d90600401612fb2565b602060405180830381865afa158015611c28573d6000803e3d6000fd5b505050506040513d601f19601f82011682018060405250810190611c4c9190613265565b608083015282516040516309019aaf60e31b81526001600160a01b039091169063480cd57890611c80908d90600401612fb2565b602060405180830381865afa158015611c9d573d6000803e3d6000fd5b505050506040513d601f19601f82011682018060405250810190611cc19190613265565b60a0830181905260808301518351611cda9291906124de565b8260c0018181525050611d0a8260a0015183608001518460200151856060015186604001518c88600001516129c6565b60e083015260a0820151891115611d2357611d236132db565b611d2f818a89856129f9565b86158015611d3d5750600088115b15611d8a57611d65611d608360400151611d5a8560800151612a6d565b906116d2565b61245f565b611d7782608001518360400151612a82565b611d8a83604001518b84604001516116e5565b611da883600001518b8460200151856060015186604001518c612b16565b6101408401526101608301528251604051630c7940bd60e11b81526001600160a01b03909116906318f2817a90611de3908d90600401612fb2565b6020604051808303816000875af1158015611e02573d6000803e3d6000fd5b505050506040513d601f19601f82011682018060405250810190611e269190613265565b826101800181815250506000611e548360a0015184608001518560200151866060015187604001518d612d08565b600b5460405163015f109360e51b81529192506001600160a01b031690632be2126090611e8b908e9085908c908c906004016132f1565b600060405180830381600087803b158015611ea557600080fd5b505af1158015611eb9573d6000803e3d6000fd5b505050508a6001600160a01b03166000805160206133928339815191528461014001518561016001518661018001516002604051611efa94939291906132a0565b60405180910390a261012083015160405190815233907f909ac017b31fd41edf1bf9a7ed7d4a7af4343fe034023db2d0220a77ba25e7ee9060200160405180910390a26108e98460200151856040015133866020015187606001518e8e8a60400151612d39565b600061091882680ad78ebc5ac62000006120c7565b6003546001600160a01b03163314610cf45760405162461bcd60e51b815260206004820181905260248201527f4f776e61626c653a2063616c6c6572206973206e6f7420746865206f776e6572604482015260640161154a565b6001600160a01b0381166120265760405162461bcd60e51b815260206004820152601e60248201527f4163636f756e742063616e6e6f74206265207a65726f20616464726573730000604482015260640161154a565b803b806109415760405162461bcd60e51b815260206004820181905260248201527f4163636f756e7420636f64652073697a652063616e6e6f74206265207a65726f604482015260640161154a565b600380546001600160a01b038381166001600160a01b0319831681179093556040519116919082907f8be0079c531659141344cd1fd0a4f28419497f9722a3daafe3b4186f6b6457e090600090a35050565b60006116de828461337e565b6000806120df83612ddc565b6714d1120d7b160000119392505050565b801561216957670de0b6b3a76400008211156109415760405162461bcd60e51b815260206004820152603260248201527f4d6178206665652070657263656e74616765206d757374206c657373207468616044820152716e206f7220657175616c20746f203130302560701b606482015260840161154a565b61217d6103e8670de0b6b3a7640000613332565b612188906005613354565b821015801561219f5750670de0b6b3a76400008211155b6109415760405162461bcd60e51b815260206004820152603060248201527f4d6178206665652070657263656e74616765206d75737420626520626574776560448201526f656e20302e352520616e64203130302560801b606482015260840161154a565b6040516321e3780160e01b81526000906001600160a01b038416906321e3780190612233908590600401612fb2565b602060405180830381865afa158015612250573d6000803e3d6000fd5b505050506040513d601f19601f820116820180604052508101906122749190613265565b9050806001036109085760405162461bcd60e51b815260206004820152601c60248201527f426f72726f7765724f70733a2054726f76652069732061637469766500000000604482015260640161154a565b6000846001600160a01b0316635dba4c4a6040518163ffffffff1660e01b8152600401600060405180830381600087803b15801561230357600080fd5b505af1158015612317573d6000803e3d6000fd5b5050604051630631203b60e41b815260048101869052600092506001600160a01b038816915063631203b090602401602060405180830381865afa158015612363573d6000803e3d6000fd5b505050506040513d601f19601f820116820180604052508101906123879190613265565b9050612394818585612e08565b60085460405162697fb760e71b8152600481018390526001600160a01b03909116906334bfdb8090602401600060405180830381600087803b1580156123d957600080fd5b505af11580156123ed573d6000803e3d6000fd5b50506009546040516340c10f1960e01b81526001600160a01b03808a1694506340c10f19935061242392169085906004016132c2565b600060405180830381600087803b15801561243d57600080fd5b505af1158015612451573d6000803e3d6000fd5b509298975050505050505050565b686194049f30f720000081101561155c5760405162461bcd60e51b815260206004820152603a60248201527f426f72726f7765724f70733a2054726f76652773206e65742064656274206d7560448201527f73742062652067726561746572207468616e206d696e696d756d000000000000606482015260840161154a565b600082156125055760006124fc846124f68786612e72565b90612e7e565b91506116de9050565b506000199392505050565b600081156125365761252f826124f68568056bc75e2d63100000612e72565b9050610918565b50600019610918565b6714d1120d7b16000081101561155c5760405162461bcd60e51b815260206004820152603760248201527f426f72726f7765724f70733a204f7065726174696f6e206d757374206c65617660448201527632903a3937bb32903bb4ba341024a1a9101f1e9021a1a960491b606482015260840161154a565b670f43fc2c04ee000081101561155c5760405162461bcd60e51b815260206004820152604960248201527f426f72726f7765724f70733a20416e206f7065726174696f6e2074686174207760448201527f6f756c6420726573756c7420696e20494352203c204d4352206973206e6f74206064820152681c195c9b5a5d1d195960ba1b608482015260a40161154a565b6000826001600160a01b03168260405160006040518083038185875af1925050503d8060008114612694576040519150601f19603f3d011682016040523d82523d6000602084013e612699565b606091505b50509050806109085760405162461bcd60e51b815260206004820152602f60248201527f426f72726f7765724f70733a2053656e64696e6720537445544820746f20416360448201526e1d1a5d99541bdbdb0819985a5b1959608a1b606482015260840161154a565b60405163262b890160e01b8152600481018290526001600160a01b0386169063262b890190602401600060405180830381600087803b15801561274457600080fd5b505af1158015612758573d6000803e3d6000fd5b50506040516340c10f1960e01b81526001600160a01b03871692506340c10f19915061278a90869086906004016132c2565b600060405180830381600087803b1580156127a457600080fd5b505af11580156127b8573d6000803e3d6000fd5b505050505050505050565b6005546001600160a01b03163314610cf45760405162461bcd60e51b815260206004820152602960248201527f426f72726f7765724f70733a2043616c6c6572206973206e6f742053746162696044820152681b1a5d1e48141bdbdb60ba1b606482015260840161154a565b6000811161155c5760405162461bcd60e51b815260206004820152603760248201527f426f72726f7765724f70733a204465627420696e637265617365207265717569604482015276726573206e6f6e2d7a65726f20646562744368616e676560481b606482015260840161154a565b3415806128aa575080155b61155c5760405162461bcd60e51b815260206004820152603060248201527f426f72726f7765724f7065726174696f6e733a2043616e6e6f7420776974686460448201526f1c985dc8185b99081859190818dbdb1b60821b606482015260840161154a565b3415158061291c57508115155b8061292657508015155b6109415760405162461bcd60e51b815260206004820152604660248201527f426f72726f7765724f70733a205468657265206d75737420626520656974686560448201527f72206120636f6c6c61746572616c206368616e6765206f7220612064656274206064820152656368616e676560d01b608482015260a40161154a565b60008083156129bb575082905060016129bf565b8291505b9250929050565b60008060006129d98a8a8a8a8a8a612e8a565b9150915060006129ea8383876124de565b9b9a5050505050505050505050565b8315612a3257612a0883612ec8565b8115612a2d57612a1b8160e0015161253f565b612a2d8160e001518260c00151612f3c565b610cdc565b612a3f8160e001516125b7565b612a5c8160200151826060015183604001518585600001516117d4565b6101008201819052610cdc90611849565b600061091882680ad78ebc5ac62000006116d2565b612a9582680ad78ebc5ac62000006116d2565b8111156109415760405162461bcd60e51b815260206004820152604360248201527f426f72726f7765724f70733a20416d6f756e7420726570616964206d7573742060448201527f6e6f74206265206c6172676572207468616e207468652054726f76652773206460648201526219589d60ea1b608482015260a40161154a565b600080600085612b965760405163d3d6f84360e01b81526001600160a01b038a169063d3d6f84390612b4e908b908b906004016132c2565b6020604051808303816000875af1158015612b6d573d6000803e3d6000fd5b505050506040513d601f19601f82011682018060405250810190612b919190613265565b612c07565b6040516372423c1760e01b81526001600160a01b038a16906372423c1790612bc4908b908b906004016132c2565b6020604051808303816000875af1158015612be3573d6000803e3d6000fd5b505050506040513d601f19601f82011682018060405250810190612c079190613265565b9050600084612c8657604051630930874960e11b81526001600160a01b038b16906312610e9290612c3e908c908a906004016132c2565b6020604051808303816000875af1158015612c5d573d6000803e3d6000fd5b505050506040513d601f19601f82011682018060405250810190612c819190613265565b612cf7565b604051639976cf4560e01b81526001600160a01b038b1690639976cf4590612cb4908c908a906004016132c2565b6020604051808303816000875af1158015612cd3573d6000803e3d6000fd5b505050506040513d601f19601f82011682018060405250810190612cf79190613265565b919a91995090975050505050505050565b6000806000612d1b898989898989612e8a565b915091506000612d2b8383612510565b9a9950505050505050505050565b8115612d5157612d4c8888888685612702565b612d5d565b612d5d888888866118d9565b8315612d7257612d6d8886612647565b61198f565b60405163a51ba3b760e01b81526001600160a01b0389169063a51ba3b790612da090899089906004016132c2565b600060405180830381600087803b158015612dba57600080fd5b505af1158015612dce573d6000803e3d6000fd5b505050505050505050505050565b600080612de76113da565b90506000612df3610cf6565b9050612e008282866124de565b949350505050565b6000612e20836124f686670de0b6b3a7640000612e72565b905081811115610cdc5760405162461bcd60e51b815260206004820152601d60248201527f4665652065786365656465642070726f7669646564206d6178696d756d000000604482015260640161154a565b60006116de8284613354565b60006116de8284613332565b600080878786612ea357612e9e8a896116d2565b612ead565b612ead8a896120c7565b915084612ebe57612c8189876116d2565b612cf789876120c7565b801561155c5760405162461bcd60e51b815260206004820152603e60248201527f426f72726f7765724f70733a20436f6c6c61746572616c20776974686472617760448201527f616c206e6f74207065726d6974746564205265636f76657279204d6f64650000606482015260840161154a565b808210156109415760405162461bcd60e51b815260206004820152603e60248201527f426f72726f7765724f70733a2043616e6e6f7420646563726561736520796f7560448201527f722054726f766527732049435220696e205265636f76657279204d6f64650000606482015260840161154a565b6001600160a01b0391909116815260200190565b80356001600160a01b0381168114612fdd57600080fd5b919050565b600080600060608486031215612ff757600080fd5b8335925061300760208501612fc6565b915061301560408501612fc6565b90509250925092565b60006020828403121561303057600080fd5b5035919050565b6000806040838503121561304a57600080fd5b61305383612fc6565b915061306160208401612fc6565b90509250929050565b6000806000806000806000806000806101408b8d03121561308a57600080fd5b6130938b612fc6565b99506130a160208c01612fc6565b98506130af60408c01612fc6565b97506130bd60608c01612fc6565b96506130cb60808c01612fc6565b95506130d960a08c01612fc6565b94506130e760c08c01612fc6565b93506130f560e08c01612fc6565b92506131046101008c01612fc6565b91506131136101208c01612fc6565b90509295989b9194979a5092959850565b6000806000806080858703121561313a57600080fd5b843593506020850135925061315160408601612fc6565b915061315f60608601612fc6565b905092959194509250565b600060208083528351808285015260005b818110156131975785810183015185820160400152820161317b565b506000604082860101526040601f19601f8301168501019250505092915050565b6000806000606084860312156131cd57600080fd5b6131d684612fc6565b925061300760208501612fc6565b60008060008060008060c087890312156131fd57600080fd5b8635955060208701359450604087013593506060870135801515811461322257600080fd5b925061323060808801612fc6565b915061323e60a08801612fc6565b90509295509295509295565b60006020828403121561325c57600080fd5b6116de82612fc6565b60006020828403121561327757600080fd5b5051919050565b6003811061329c57634e487b7160e01b600052602160045260246000fd5b9052565b848152602081018490526040810183905260808101611840606083018461327e565b6001600160a01b03929092168252602082015260400190565b634e487b7160e01b600052600160045260246000fd5b6001600160a01b03948516815260208101939093529083166040830152909116606082015260800190565b634e487b7160e01b600052601160045260246000fd5b60008261334f57634e487b7160e01b600052601260045260246000fd5b500490565b80820281158282048414176109185761091861331c565b818103818111156109185761091861331c565b808201808211156109185761091861331c56fec3770d654ed33aeea6bf11ac8ef05d02a6a04ed4686dd2f624d853bbec43cc8ba2646970667358221220f01fcff38949b6137812ac7c0edaff6679f0f446ca70e6366074cc59c64ebeb064736f6c63430008130033",
  "devdoc": {
    "kind": "dev",
    "methods": {
      "owner()": {
        "details": "Returns the address of the current owner."
      },
      "renounceOwnership()": {
        "details": "Leaves the contract without owner. It will not be possible to call `onlyOwner` functions. Can only be called by the current owner. NOTE: Renouncing ownership will leave the contract without an owner, thereby disabling any functionality that is only available to the owner."
      },
      "transferOwnership(address)": {
        "details": "Transfers ownership of the contract to a new account (`newOwner`). Can only be called by the current owner."
      }
    },
    "version": 1
  },
  "userdoc": {
    "kind": "user",
    "methods": {
      "claimCollateral()": {
        "notice": "Claim remaining collateral from a redemption or from a liquidation with ICR > MCR in Recovery Mode"
      }
    },
    "notice": "Fork of Liquity's BorrowerOperations. Logic remains unchanged. Changes to the contract: - Raised pragma version - Removed an import of IBorrowerOperations Interface - Updated variable names and docs to refer to BaseFeeLMA token and stEth as a collateral Even though SafeMath is no longer required, the decision was made to keep it to avoid human factor errors",
    "version": 1
  },
  "storageLayout": {
    "storage": [
      {
        "astId": 14998,
        "contract": "contracts/BorrowerOperations.sol:BorrowerOperations",
        "label": "activePool",
        "offset": 0,
        "slot": "0",
        "type": "t_contract(IActivePool)25518"
      },
      {
        "astId": 15001,
        "contract": "contracts/BorrowerOperations.sol:BorrowerOperations",
        "label": "defaultPool",
        "offset": 0,
        "slot": "1",
        "type": "t_contract(IDefaultPool)25868"
      },
      {
        "astId": 15005,
        "contract": "contracts/BorrowerOperations.sol:BorrowerOperations",
        "label": "priceFeed",
        "offset": 0,
        "slot": "2",
        "type": "t_contract(IPriceFeed)26105"
      },
      {
        "astId": 7,
        "contract": "contracts/BorrowerOperations.sol:BorrowerOperations",
        "label": "_owner",
        "offset": 0,
        "slot": "3",
        "type": "t_address"
      },
      {
        "astId": 1732,
        "contract": "contracts/BorrowerOperations.sol:BorrowerOperations",
        "label": "troveManager",
        "offset": 0,
        "slot": "4",
        "type": "t_contract(ITroveManager)26910"
      },
      {
        "astId": 1734,
        "contract": "contracts/BorrowerOperations.sol:BorrowerOperations",
        "label": "stabilityPoolAddress",
        "offset": 0,
        "slot": "5",
        "type": "t_address"
      },
      {
        "astId": 1736,
        "contract": "contracts/BorrowerOperations.sol:BorrowerOperations",
        "label": "gasPoolAddress",
        "offset": 0,
        "slot": "6",
        "type": "t_address"
      },
      {
        "astId": 1739,
        "contract": "contracts/BorrowerOperations.sol:BorrowerOperations",
        "label": "collSurplusPool",
        "offset": 0,
        "slot": "7",
        "type": "t_contract(ICollSurplusPool)25811"
      },
      {
        "astId": 1742,
        "contract": "contracts/BorrowerOperations.sol:BorrowerOperations",
        "label": "hogStaking",
        "offset": 0,
        "slot": "8",
        "type": "t_contract(IHOGStaking)25978"
      },
      {
        "astId": 1744,
        "contract": "contracts/BorrowerOperations.sol:BorrowerOperations",
        "label": "hogStakingAddress",
        "offset": 0,
        "slot": "9",
        "type": "t_address"
      },
      {
        "astId": 1747,
        "contract": "contracts/BorrowerOperations.sol:BorrowerOperations",
        "label": "baseFeeLMAToken",
        "offset": 0,
        "slot": "10",
        "type": "t_contract(IBaseFeeLMAToken)25577"
      },
      {
        "astId": 1750,
        "contract": "contracts/BorrowerOperations.sol:BorrowerOperations",
        "label": "sortedTroves",
        "offset": 0,
        "slot": "11",
        "type": "t_contract(ISortedTroves)26237"
      }
    ],
    "types": {
      "t_address": {
        "encoding": "inplace",
        "label": "address",
        "numberOfBytes": "20"
      },
      "t_contract(IActivePool)25518": {
        "encoding": "inplace",
        "label": "contract IActivePool",
        "numberOfBytes": "20"
      },
      "t_contract(IBaseFeeLMAToken)25577": {
        "encoding": "inplace",
        "label": "contract IBaseFeeLMAToken",
        "numberOfBytes": "20"
      },
      "t_contract(ICollSurplusPool)25811": {
        "encoding": "inplace",
        "label": "contract ICollSurplusPool",
        "numberOfBytes": "20"
      },
      "t_contract(IDefaultPool)25868": {
        "encoding": "inplace",
        "label": "contract IDefaultPool",
        "numberOfBytes": "20"
      },
      "t_contract(IHOGStaking)25978": {
        "encoding": "inplace",
        "label": "contract IHOGStaking",
        "numberOfBytes": "20"
      },
      "t_contract(IPriceFeed)26105": {
        "encoding": "inplace",
        "label": "contract IPriceFeed",
        "numberOfBytes": "20"
      },
      "t_contract(ISortedTroves)26237": {
        "encoding": "inplace",
        "label": "contract ISortedTroves",
        "numberOfBytes": "20"
      },
      "t_contract(ITroveManager)26910": {
        "encoding": "inplace",
        "label": "contract ITroveManager",
        "numberOfBytes": "20"
      }
    }
  }
}