{
  "address": "0xA759805BCaeCF02f6f5D73910158e356770093D0",
  "abi": [
    {
      "anonymous": false,
      "inputs": [
        {
          "indexed": false,
          "internalType": "address",
          "name": "_newActivePoolAddress",
          "type": "address"
        }
      ],
      "name": "ActivePoolAddressChanged",
      "type": "event"
    },
    {
      "anonymous": false,
      "inputs": [
        {
          "indexed": false,
          "internalType": "uint256",
          "name": "_newBalance",
          "type": "uint256"
        }
      ],
      "name": "BaseFeeLMABalanceUpdated",
      "type": "event"
    },
    {
      "anonymous": false,
      "inputs": [
        {
          "indexed": false,
          "internalType": "address",
          "name": "_newDefaultPoolAddress",
          "type": "address"
        }
      ],
      "name": "DefaultPoolAddressChanged",
      "type": "event"
    },
    {
      "anonymous": false,
      "inputs": [
        {
          "indexed": false,
          "internalType": "uint256",
          "name": "_BaseFeeLMADebt",
          "type": "uint256"
        }
      ],
      "name": "DefaultPoolBaseFeeLMADebtUpdated",
      "type": "event"
    },
    {
      "anonymous": false,
      "inputs": [
        {
          "indexed": false,
          "internalType": "uint256",
          "name": "_StETH",
          "type": "uint256"
        }
      ],
      "name": "DefaultPoolStETHBalanceUpdated",
      "type": "event"
    },
    {
      "anonymous": false,
      "inputs": [
        {
          "indexed": true,
          "internalType": "address",
          "name": "previousOwner",
          "type": "address"
        },
        {
          "indexed": true,
          "internalType": "address",
          "name": "newOwner",
          "type": "address"
        }
      ],
      "name": "OwnershipTransferred",
      "type": "event"
    },
    {
      "anonymous": false,
      "inputs": [
        {
          "indexed": false,
          "internalType": "uint256",
          "name": "_newBalance",
          "type": "uint256"
        }
      ],
      "name": "StETHBalanceUpdated",
      "type": "event"
    },
    {
      "anonymous": false,
      "inputs": [
        {
          "indexed": false,
          "internalType": "address",
          "name": "_to",
          "type": "address"
        },
        {
          "indexed": false,
          "internalType": "uint256",
          "name": "_amount",
          "type": "uint256"
        }
      ],
      "name": "StETHSent",
      "type": "event"
    },
    {
      "anonymous": false,
      "inputs": [
        {
          "indexed": false,
          "internalType": "address",
          "name": "_newStabilityPoolAddress",
          "type": "address"
        }
      ],
      "name": "StabilityPoolAddressChanged",
      "type": "event"
    },
    {
      "anonymous": false,
      "inputs": [
        {
          "indexed": false,
          "internalType": "address",
          "name": "_newTroveManagerAddress",
          "type": "address"
        }
      ],
      "name": "TroveManagerAddressChanged",
      "type": "event"
    },
    {
      "inputs": [],
      "name": "NAME",
      "outputs": [
        {
          "internalType": "string",
          "name": "",
          "type": "string"
        }
      ],
      "stateMutability": "view",
      "type": "function"
    },
    {
      "inputs": [],
      "name": "activePoolAddress",
      "outputs": [
        {
          "internalType": "address",
          "name": "",
          "type": "address"
        }
      ],
      "stateMutability": "view",
      "type": "function"
    },
    {
      "inputs": [
        {
          "internalType": "uint256",
          "name": "_amount",
          "type": "uint256"
        }
      ],
      "name": "decreaseBaseFeeLMADebt",
      "outputs": [],
      "stateMutability": "nonpayable",
      "type": "function"
    },
    {
      "inputs": [],
      "name": "getBaseFeeLMADebt",
      "outputs": [
        {
          "internalType": "uint256",
          "name": "",
          "type": "uint256"
        }
      ],
      "stateMutability": "view",
      "type": "function"
    },
    {
      "inputs": [],
      "name": "getStETH",
      "outputs": [
        {
          "internalType": "uint256",
          "name": "",
          "type": "uint256"
        }
      ],
      "stateMutability": "view",
      "type": "function"
    },
    {
      "inputs": [
        {
          "internalType": "uint256",
          "name": "_amount",
          "type": "uint256"
        }
      ],
      "name": "increaseBaseFeeLMADebt",
      "outputs": [],
      "stateMutability": "nonpayable",
      "type": "function"
    },
    {
      "inputs": [],
      "name": "owner",
      "outputs": [
        {
          "internalType": "address",
          "name": "",
          "type": "address"
        }
      ],
      "stateMutability": "view",
      "type": "function"
    },
    {
      "inputs": [],
      "name": "renounceOwnership",
      "outputs": [],
      "stateMutability": "nonpayable",
      "type": "function"
    },
    {
      "inputs": [
        {
          "internalType": "uint256",
          "name": "_amount",
          "type": "uint256"
        }
      ],
      "name": "sendStETHToActivePool",
      "outputs": [],
      "stateMutability": "nonpayable",
      "type": "function"
    },
    {
      "inputs": [
        {
          "internalType": "address",
          "name": "_troveManagerAddress",
          "type": "address"
        },
        {
          "internalType": "address",
          "name": "_activePoolAddress",
          "type": "address"
        }
      ],
      "name": "setAddresses",
      "outputs": [],
      "stateMutability": "nonpayable",
      "type": "function"
    },
    {
      "inputs": [
        {
          "internalType": "address",
          "name": "newOwner",
          "type": "address"
        }
      ],
      "name": "transferOwnership",
      "outputs": [],
      "stateMutability": "nonpayable",
      "type": "function"
    },
    {
      "inputs": [],
      "name": "troveManagerAddress",
      "outputs": [
        {
          "internalType": "address",
          "name": "",
          "type": "address"
        }
      ],
      "stateMutability": "view",
      "type": "function"
    },
    {
      "stateMutability": "payable",
      "type": "receive"
    }
  ],
  "transactionHash": "0x7f3d24b27553db2a89e22e522e0a0983c443a149cc1b365ab627fa8be9fc734e",
  "args": [],
  "numDeployments": 1,
  "solcInputHash": "38c8dd2ed2953f011d2e7e97384dc754",
  "bytecode": "0x608060405234801561001057600080fd5b5061001a3361001f565b61006f565b600080546001600160a01b038381166001600160a01b0319831681178455604051919092169283917f8be0079c531659141344cd1fd0a4f28419497f9722a3daafe3b4186f6b6457e09190a35050565b6109508061007e6000396000f3fe6080604052600436106100ab5760003560e01c80638da5cb5b116100645780638da5cb5b146101cc57806390107afe146101ea578063a2f039831461020a578063a3f4df7e1461021f578063b08bc72214610263578063f2fde38b1461028357600080fd5b8063262b89011461010457806331534de11461012657806356cc4dec146101465780635a4d28bb1461016a578063715018a614610197578063768013fe146101ac57600080fd5b366100ff576100b86102a3565b6003546100c59034610316565b60038190556040519081527ffd51ec2fba9ed9a190fde84f02653ca91f9a8d28d834c0e7c8c8b7f3678911279060200160405180910390a1005b600080fd5b34801561011057600080fd5b5061012461011f3660046107f9565b61032b565b005b34801561013257600080fd5b506101246101413660046107f9565b61037b565b34801561015257600080fd5b506004545b6040519081526020015b60405180910390f35b34801561017657600080fd5b5060015461018a906001600160a01b031681565b6040516101619190610812565b3480156101a357600080fd5b506101246104cb565b3480156101b857600080fd5b506101246101c73660046107f9565b6104dd565b3480156101d857600080fd5b506000546001600160a01b031661018a565b3480156101f657600080fd5b50610124610205366004610842565b6104f2565b34801561021657600080fd5b50600354610157565b34801561022b57600080fd5b506102566040518060400160405280600b81526020016a111959985d5b1d141bdbdb60aa1b81525081565b6040516101619190610875565b34801561026f57600080fd5b5060025461018a906001600160a01b031681565b34801561028f57600080fd5b5061012461029e3660046108c3565b6105b7565b6002546001600160a01b031633146103145760405162461bcd60e51b815260206004820152602960248201527f44656661756c74506f6f6c3a2043616c6c6572206973206e6f7420746865204160448201526818dd1a5d99541bdbdb60ba1b60648201526084015b60405180910390fd5b565b600061032282846108f4565b90505b92915050565b610333610630565b6004546103409082610316565b60048190556040519081527f159eeaab0b94d2f23ff8a0664525af3927b50e5ef86b795d1ad035791681d3b49060200160405180910390a150565b610383610630565b6002546003546001600160a01b039091169061039f908361069e565b60038190556040519081527ffd51ec2fba9ed9a190fde84f02653ca91f9a8d28d834c0e7c8c8b7f3678911279060200160405180910390a1604080516001600160a01b0383168152602081018490527f6a5eb4d39360dd25d648e3e96a252255bc09ccad2dcdcfdedeb08c857555cd12910160405180910390a16000816001600160a01b03168360405160006040518083038185875af1925050503d8060008114610466576040519150601f19603f3d011682016040523d82523d6000602084013e61046b565b606091505b50509050806104c65760405162461bcd60e51b815260206004820152602160248201527f44656661756c74506f6f6c3a2073656e64696e67205374455448206661696c656044820152601960fa1b606482015260840161030b565b505050565b6104d36106aa565b6103146000610704565b6104e5610630565b600454610340908261069e565b6104fa6106aa565b61050382610754565b61050c81610754565b600180546001600160a01b038085166001600160a01b03199283161790925560028054928416929091169190911790556040517f143219c9e69b09e07e095fcc889b43d8f46ca892bba65f08dc3a0050869a56789061056c908490610812565b60405180910390a17f78f058b189175430c48dc02699e3a0031ea4ff781536dc2fab847de4babdd882816040516105a39190610812565b60405180910390a16105b36104cb565b5050565b6105bf6106aa565b6001600160a01b0381166106245760405162461bcd60e51b815260206004820152602660248201527f4f776e61626c653a206e6577206f776e657220697320746865207a65726f206160448201526564647265737360d01b606482015260840161030b565b61062d81610704565b50565b6001546001600160a01b031633146103145760405162461bcd60e51b815260206004820152602b60248201527f44656661756c74506f6f6c3a2043616c6c6572206973206e6f7420746865205460448201526a3937bb32a6b0b730b3b2b960a91b606482015260840161030b565b60006103228284610907565b6000546001600160a01b031633146103145760405162461bcd60e51b815260206004820181905260248201527f4f776e61626c653a2063616c6c6572206973206e6f7420746865206f776e6572604482015260640161030b565b600080546001600160a01b038381166001600160a01b0319831681178455604051919092169283917f8be0079c531659141344cd1fd0a4f28419497f9722a3daafe3b4186f6b6457e09190a35050565b6001600160a01b0381166107aa5760405162461bcd60e51b815260206004820152601e60248201527f4163636f756e742063616e6e6f74206265207a65726f20616464726573730000604482015260640161030b565b803b806105b35760405162461bcd60e51b815260206004820181905260248201527f4163636f756e7420636f64652073697a652063616e6e6f74206265207a65726f604482015260640161030b565b60006020828403121561080b57600080fd5b5035919050565b6001600160a01b0391909116815260200190565b80356001600160a01b038116811461083d57600080fd5b919050565b6000806040838503121561085557600080fd5b61085e83610826565b915061086c60208401610826565b90509250929050565b600060208083528351808285015260005b818110156108a257858101830151858201604001528201610886565b506000604082860101526040601f19601f8301168501019250505092915050565b6000602082840312156108d557600080fd5b61032282610826565b634e487b7160e01b600052601160045260246000fd5b80820180821115610325576103256108de565b81810381811115610325576103256108de56fea2646970667358221220990a0b16ef48b6a9ff9db68de3e197700a14fe0345063c6a0d5908b0ca77d54f64736f6c63430008130033",
  "devdoc": {
    "kind": "dev",
    "methods": {
      "owner()": {
        "details": "Returns the address of the current owner."
      },
      "renounceOwnership()": {
        "details": "Leaves the contract without owner. It will not be possible to call `onlyOwner` functions. Can only be called by the current owner. NOTE: Renouncing ownership will leave the contract without an owner, thereby disabling any functionality that is only available to the owner."
      },
      "transferOwnership(address)": {
        "details": "Transfers ownership of the contract to a new account (`newOwner`). Can only be called by the current owner."
      }
    },
    "version": 1
  },
  "userdoc": {
    "kind": "user",
    "methods": {},
    "notice": "Fork of Liquity's Default Pool. Logic remains unchanged. Changes to the contract: - Raised pragma version - Removed an import of Default Interface and updated with IPool Even though SafeMath is no longer required, the decision was made to keep it to avoid human factor errors The Default Pool holds the StETH and BaseFeeLMA debt (but not BaseFeeLMA tokens) from liquidations that have been redistributed to active troves but not yet \"applied\", i.e. not yet recorded on a recipient active trove's struct. When a trove makes an operation that applies its pending StETH and BaseFeeLMA debt, its pending StETH and BaseFeeLMA debt is moved from the Default Pool to the Active Pool.",
    "version": 1
  },
  "storageLayout": {
    "storage": [
      {
        "astId": 396,
        "contract": "contracts/DefaultPool.sol:DefaultPool",
        "label": "_owner",
        "offset": 0,
        "slot": "0",
        "type": "t_address"
      },
      {
        "astId": 7257,
        "contract": "contracts/DefaultPool.sol:DefaultPool",
        "label": "troveManagerAddress",
        "offset": 0,
        "slot": "1",
        "type": "t_address"
      },
      {
        "astId": 7259,
        "contract": "contracts/DefaultPool.sol:DefaultPool",
        "label": "activePoolAddress",
        "offset": 0,
        "slot": "2",
        "type": "t_address"
      },
      {
        "astId": 7261,
        "contract": "contracts/DefaultPool.sol:DefaultPool",
        "label": "StETH",
        "offset": 0,
        "slot": "3",
        "type": "t_uint256"
      },
      {
        "astId": 7263,
        "contract": "contracts/DefaultPool.sol:DefaultPool",
        "label": "BaseFeeLMADebt",
        "offset": 0,
        "slot": "4",
        "type": "t_uint256"
      }
    ],
    "types": {
      "t_address": {
        "encoding": "inplace",
        "label": "address",
        "numberOfBytes": "20"
      },
      "t_uint256": {
        "encoding": "inplace",
        "label": "uint256",
        "numberOfBytes": "32"
      }
    }
  }
}