{
  "address": "0x25eab32920A9E4b5a6403502D176E7ac5BB3314F",
  "abi": [
    {
      "inputs": [],
      "name": "MainOracleDisabled",
      "type": "error"
    },
    {
      "anonymous": false,
      "inputs": [
        {
          "indexed": false,
          "internalType": "uint256",
          "name": "_lastGoodPrice",
          "type": "uint256"
        }
      ],
      "name": "LastGoodPriceUpdated",
      "type": "event"
    },
    {
      "anonymous": false,
      "inputs": [
        {
          "indexed": true,
          "internalType": "address",
          "name": "previousOwner",
          "type": "address"
        },
        {
          "indexed": true,
          "internalType": "address",
          "name": "newOwner",
          "type": "address"
        }
      ],
      "name": "OwnershipTransferred",
      "type": "event"
    },
    {
      "anonymous": false,
      "inputs": [
        {
          "indexed": false,
          "internalType": "enum PriceFeed.Status",
          "name": "newStatus",
          "type": "uint8"
        }
      ],
      "name": "PriceFeedStatusChanged",
      "type": "event"
    },
    {
      "inputs": [],
      "name": "DECIMAL_PRECISION",
      "outputs": [
        {
          "internalType": "uint256",
          "name": "",
          "type": "uint256"
        }
      ],
      "stateMutability": "view",
      "type": "function"
    },
    {
      "inputs": [],
      "name": "MAX_PRICE_DEVIATION_PERCENTAGE_FROM_PREVIOUS_ROUND",
      "outputs": [
        {
          "internalType": "uint256",
          "name": "",
          "type": "uint256"
        }
      ],
      "stateMutability": "view",
      "type": "function"
    },
    {
      "inputs": [],
      "name": "MAX_PRICE_DIFFERENCE_BETWEEN_ORACLES",
      "outputs": [
        {
          "internalType": "uint256",
          "name": "",
          "type": "uint256"
        }
      ],
      "stateMutability": "view",
      "type": "function"
    },
    {
      "inputs": [],
      "name": "NAME",
      "outputs": [
        {
          "internalType": "string",
          "name": "",
          "type": "string"
        }
      ],
      "stateMutability": "view",
      "type": "function"
    },
    {
      "inputs": [],
      "name": "TARGET_DIGITS",
      "outputs": [
        {
          "internalType": "uint256",
          "name": "",
          "type": "uint256"
        }
      ],
      "stateMutability": "view",
      "type": "function"
    },
    {
      "inputs": [],
      "name": "TIMEOUT",
      "outputs": [
        {
          "internalType": "uint256",
          "name": "",
          "type": "uint256"
        }
      ],
      "stateMutability": "view",
      "type": "function"
    },
    {
      "inputs": [],
      "name": "backupOracle",
      "outputs": [
        {
          "internalType": "contract IBaseFeeOracle",
          "name": "",
          "type": "address"
        }
      ],
      "stateMutability": "view",
      "type": "function"
    },
    {
      "inputs": [],
      "name": "fetchPrice",
      "outputs": [
        {
          "internalType": "uint256",
          "name": "",
          "type": "uint256"
        }
      ],
      "stateMutability": "nonpayable",
      "type": "function"
    },
    {
      "inputs": [],
      "name": "lastGoodPrice",
      "outputs": [
        {
          "internalType": "uint256",
          "name": "",
          "type": "uint256"
        }
      ],
      "stateMutability": "view",
      "type": "function"
    },
    {
      "inputs": [],
      "name": "mainOracle",
      "outputs": [
        {
          "internalType": "contract IBaseFeeOracle",
          "name": "",
          "type": "address"
        }
      ],
      "stateMutability": "view",
      "type": "function"
    },
    {
      "inputs": [],
      "name": "owner",
      "outputs": [
        {
          "internalType": "address",
          "name": "",
          "type": "address"
        }
      ],
      "stateMutability": "view",
      "type": "function"
    },
    {
      "inputs": [],
      "name": "renounceOwnership",
      "outputs": [],
      "stateMutability": "nonpayable",
      "type": "function"
    },
    {
      "inputs": [
        {
          "internalType": "address",
          "name": "_mainOracleAddress",
          "type": "address"
        },
        {
          "internalType": "address",
          "name": "_backupOracleAddress",
          "type": "address"
        }
      ],
      "name": "setAddresses",
      "outputs": [],
      "stateMutability": "nonpayable",
      "type": "function"
    },
    {
      "inputs": [],
      "name": "status",
      "outputs": [
        {
          "internalType": "enum PriceFeed.Status",
          "name": "",
          "type": "uint8"
        }
      ],
      "stateMutability": "view",
      "type": "function"
    },
    {
      "inputs": [
        {
          "internalType": "address",
          "name": "newOwner",
          "type": "address"
        }
      ],
      "name": "transferOwnership",
      "outputs": [],
      "stateMutability": "nonpayable",
      "type": "function"
    }
  ],
  "transactionHash": "0xce5ea27ccde7fb07cdf82138841cc6a362137d3dab61a5b24f5fba2124f4b5f3",
  "args": [],
  "numDeployments": 1,
  "solcInputHash": "26b7e46187074ecdc3b4eda7be7ea101",
  "bytecode": "0x608060405234801561001057600080fd5b5061001a3361001f565b61006f565b600080546001600160a01b038381166001600160a01b0319831681178455604051919092169283917f8be0079c531659141344cd1fd0a4f28419497f9722a3daafe3b4186f6b6457e09190a35050565b6111e28061007e6000396000f3fe608060405234801561001057600080fd5b50600436106100d55760003560e01c806386800a961161008757806386800a96146101635780638da5cb5b1461016b57806390107afe1461017c578063a20baee61461018f578063a3f4df7e1461019e578063c8e07115146101d3578063f2fde38b146101e6578063f56f48f2146101f957600080fd5b80630490be83146100da5780630fdb11cf146100f65780631be5c92f146100fe578063200d2ed21461010657806345079cb414610120578063715018a61461012e578063836efd3114610138575b600080fd5b6100e360035481565b6040519081526020015b60405180910390f35b6100e3610201565b6100e3600181565b6004546101139060ff1681565b6040516100ed9190610ed2565b6100e366b1a2bc2ec5000081565b6101366106af565b005b60025461014b906001600160a01b031681565b6040516001600160a01b0390911681526020016100ed565b6100e360b081565b6000546001600160a01b031661014b565b61013661018a366004610f11565b6106c3565b6100e3670de0b6b3a764000081565b6101c660405180604001604052806009815260200168141c9a58d95199595960ba1b81525081565b6040516100ed9190610f44565b60015461014b906001600160a01b031681565b6101366101f4366004610f92565b6107e8565b6100e3604581565b600080600160009054906101000a90046001600160a01b03166001600160a01b031663313ce5676040518163ffffffff1660e01b8152600401602060405180830381865afa158015610257573d6000803e3d6000fd5b505050506040513d601f19601f8201168201806040525081019061027b9190610fad565b90506000610287610866565b905060006102988260400151610907565b905060006102a46109c0565b905060006102b58260400151610a34565b90506000600260009054906101000a90046001600160a01b03166001600160a01b031663313ce5676040518163ffffffff1660e01b8152600401602060405180830381865afa15801561030c573d6000803e3d6000fd5b505050506040513d601f19601f820116820180604052508101906103309190610fad565b905060006004805460ff169081111561034b5761034b610ebc565b0361048f5761035a8585610a58565b156103bc5761036883610a7b565b15610385576103776002610acb565b600354965050505050505090565b61038e83610b28565b1561039d576103776001610acb565b6103a76001610acb565b6103b18382610b4c565b965050505050505090565b6103c585610b28565b15610408576103d383610a7b565b156103e2576103776004610acb565b6103ec6003610acb565b6103f583610b28565b156103a757600354965050505050505090565b610413858588610b6b565b1561046d5761042183610a7b565b806104325750610432838388610b6b565b15610441576103776002610acb565b61044a83610b28565b15610459576103776001610acb565b6104636001610acb565b6103b18387610b4c565b61047683610a7b565b15610485576104856004610acb565b6103b18587610b4c565b60016004805460ff16908111156104a8576104a8610ebc565b03610517576104b8838388610b6b565b156104c7576103776002610acb565b6104d48585858985610bea565b156104e3576104856000610acb565b6104ec83610a7b565b156104fb576103776002610acb565b61050483610b28565b1561048557600354965050505050505090565b60026004805460ff169081111561053057610530610ebc565b03610551576105428585858985610bea565b15610377576104856000610acb565b60036004805460ff169081111561056a5761056a610ebc565b0361061f576105798585610a58565b156105a05761058783610a7b565b15610596576103776002610acb565b6104fb6001610acb565b6105a985610b28565b156105c6576105b783610a7b565b156104fb576103776004610acb565b6105cf83610a7b565b156105de576104856004610acb565b6105e783610b28565b156105fa57600354965050505050505090565b61060685848884610c48565b15610615576104856000610acb565b6104856001610acb565b6004805460ff168181111561063657610636610ebc565b036106a6576106458585610a58565b15610654576103776002610acb565b61065d85610b28565b1561067057600354965050505050505090565b61067d8585858985610bea565b1561068c576104856000610acb565b610697858588610b6b565b15610485576103776002610acb565b50505050505090565b6106b7610cd1565b6106c16000610d2b565b565b6106cb610cd1565b600180546001600160a01b038481166001600160a01b03199283161790925560028054928416929091169190911790556004805460ff19169055600061070f610866565b905060006107208260400151610907565b905061072c8282610a58565b8061073b575061073b82610b28565b156107595760405163062a774160e51b815260040160405180910390fd5b6107d982600160009054906101000a90046001600160a01b03166001600160a01b031663313ce5676040518163ffffffff1660e01b8152600401602060405180830381865afa1580156107b0573d6000803e3d6000fd5b505050506040513d601f19601f820116820180604052508101906107d49190610fad565b610b4c565b506107e26106af565b50505050565b6107f0610cd1565b6001600160a01b03811661085a5760405162461bcd60e51b815260206004820152602660248201527f4f776e61626c653a206e6577206f776e657220697320746865207a65726f206160448201526564647265737360d01b60648201526084015b60405180910390fd5b61086381610d2b565b50565b61086e610e9c565b600160009054906101000a90046001600160a01b03166001600160a01b031663feaf968c6040518163ffffffff1660e01b8152600401608060405180830381865afa9250505080156108dd575060408051601f3d908101601f191682019092526108da91810190610fd0565b60015b6108e45790565b6001600160501b03166040850152918352506001600160401b0316602082015290565b61090f610e9c565b600180546001600160a01b031690639a6fc8f59061092d9085611049565b6040516001600160e01b031960e084901b1681526001600160501b039091166004820152602401608060405180830381865afa92505050801561098d575060408051601f3d908101601f1916820190925261098a91810190610fd0565b60015b61099657919050565b6001600160501b03166040850152918352506001600160401b03166020820152919050565b919050565b6109c8610e9c565b600260009054906101000a90046001600160a01b03166001600160a01b031663feaf968c6040518163ffffffff1660e01b8152600401608060405180830381865afa9250505080156108dd575060408051601f3d908101601f191682019092526108da91810190610fd0565b610a3c610e9c565b6002546001600160a01b0316639a6fc8f561092d600185611049565b6000610a6383610d7b565b80610a725750610a7282610d7b565b90505b92915050565b600081602001516001600160401b031660001480610aa557504282602001516001600160401b0316115b15610ab257506001919050565b8151600003610ac357506001919050565b506000919050565b6004805482919060ff191660018383811115610ae957610ae9610ebc565b02179055507f5c57579a8214fe4f710c1c56fa829f045b9fa6d225a744225a30c32188064d4e81604051610b1d9190610ed2565b60405180910390a150565b6000604582602001516001600160401b031643610b459190611070565b1192915050565b600080610b6084600001518460ff16610dde565b9050610a7281610e41565b600080610b7f85600001518460ff16610dde565b90506000610b9485600001518560ff16610dde565b90506000610ba28383610e76565b90506000610bb08484610e8c565b90506000610bbe8383611070565b905060006103e8610bd060b085611083565b610bda919061109a565b9091119998505050505050505050565b6000610bf584610a7b565b80610c045750610c0484610b28565b80610c145750610c148686610a58565b80610c235750610c2386610b28565b15610c3057506000610c3f565b610c3c86858585610c48565b90505b95945050505050565b600080610c5c86600001518560ff16610dde565b90506000610c7186600001518560ff16610dde565b90506000610c7f8284610e76565b90506000610c8d8385610e8c565b9050600082670de0b6b3a7640000610ca58285611070565b610caf9190611083565b610cb9919061109a565b66b1a2bc2ec5000010159a9950505050505050505050565b6000546001600160a01b031633146106c15760405162461bcd60e51b815260206004820181905260248201527f4f776e61626c653a2063616c6c6572206973206e6f7420746865206f776e65726044820152606401610851565b600080546001600160a01b038381166001600160a01b0319831681178455604051919092169283917f8be0079c531659141344cd1fd0a4f28419497f9722a3daafe3b4186f6b6457e09190a35050565b600081604001516001600160501b0316600003610d9a57506001919050565b60208201516001600160401b03161580610dc057504382602001516001600160401b0316115b15610dcd57506001919050565b8151600012610ac357506001919050565b60008060018310610e1057610df4600184611070565b610dff90600a6111a0565b610e09908561109a565b9050610a72565b6001831015610a7257610e24836001611070565b610e2f90600a6111a0565b610e399085611083565b949350505050565b60038190556040518181527f4d29de21de555af78a62fc82dd4bc05e9ae5b0660a37f04729527e0f22780cd390602001610b1d565b6000818310610e855781610a72565b5090919050565b600081831015610e855781610a72565b604080516060810182526000808252602082018190529181019190915290565b634e487b7160e01b600052602160045260246000fd5b6020810160058310610ef457634e487b7160e01b600052602160045260246000fd5b91905290565b80356001600160a01b03811681146109bb57600080fd5b60008060408385031215610f2457600080fd5b610f2d83610efa565b9150610f3b60208401610efa565b90509250929050565b600060208083528351808285015260005b81811015610f7157858101830151858201604001528201610f55565b506000604082860101526040601f19601f8301168501019250505092915050565b600060208284031215610fa457600080fd5b610a7282610efa565b600060208284031215610fbf57600080fd5b815160ff81168114610a7257600080fd5b60008060008060808587031215610fe657600080fd5b8451935060208501516001600160401b038116811461100457600080fd5b6040860151606087015191945092506001600160501b038116811461102857600080fd5b939692955090935050565b634e487b7160e01b600052601160045260246000fd5b6001600160501b0382811682821603908082111561106957611069611033565b5092915050565b81810381811115610a7557610a75611033565b8082028115828204841417610a7557610a75611033565b6000826110b757634e487b7160e01b600052601260045260246000fd5b500490565b600181815b808511156110f75781600019048211156110dd576110dd611033565b808516156110ea57918102915b93841c93908002906110c1565b509250929050565b60008261110e57506001610a75565b8161111b57506000610a75565b8160018114611131576002811461113b57611157565b6001915050610a75565b60ff84111561114c5761114c611033565b50506001821b610a75565b5060208310610133831016604e8410600b841016171561117a575081810a610a75565b61118483836110bc565b806000190482111561119857611198611033565b029392505050565b6000610a7283836110ff56fea2646970667358221220b7a3f2b8b4b18042ebc41010b6e5a973a58f48733bf53d2b7aca6509f1e4eb2664736f6c63430008130033",
  "devdoc": {
    "kind": "dev",
    "methods": {
      "owner()": {
        "details": "Returns the address of the current owner."
      },
      "renounceOwnership()": {
        "details": "Leaves the contract without owner. It will not be possible to call `onlyOwner` functions. Can only be called by the current owner. NOTE: Renouncing ownership will leave the contract without an owner, thereby disabling any functionality that is only available to the owner."
      },
      "transferOwnership(address)": {
        "details": "Transfers ownership of the contract to a new account (`newOwner`). Can only be called by the current owner."
      }
    },
    "version": 1
  },
  "userdoc": {
    "kind": "user",
    "methods": {},
    "version": 1
  },
  "storageLayout": {
    "storage": [
      {
        "astId": 396,
        "contract": "contracts/PriceFeed.sol:PriceFeed",
        "label": "_owner",
        "offset": 0,
        "slot": "0",
        "type": "t_address"
      },
      {
        "astId": 10298,
        "contract": "contracts/PriceFeed.sol:PriceFeed",
        "label": "mainOracle",
        "offset": 0,
        "slot": "1",
        "type": "t_contract(IBaseFeeOracle)20670"
      },
      {
        "astId": 10301,
        "contract": "contracts/PriceFeed.sol:PriceFeed",
        "label": "backupOracle",
        "offset": 0,
        "slot": "2",
        "type": "t_contract(IBaseFeeOracle)20670"
      },
      {
        "astId": 10315,
        "contract": "contracts/PriceFeed.sol:PriceFeed",
        "label": "lastGoodPrice",
        "offset": 0,
        "slot": "3",
        "type": "t_uint256"
      },
      {
        "astId": 10331,
        "contract": "contracts/PriceFeed.sol:PriceFeed",
        "label": "status",
        "offset": 0,
        "slot": "4",
        "type": "t_enum(Status)10328"
      }
    ],
    "types": {
      "t_address": {
        "encoding": "inplace",
        "label": "address",
        "numberOfBytes": "20"
      },
      "t_contract(IBaseFeeOracle)20670": {
        "encoding": "inplace",
        "label": "contract IBaseFeeOracle",
        "numberOfBytes": "20"
      },
      "t_enum(Status)10328": {
        "encoding": "inplace",
        "label": "enum PriceFeed.Status",
        "numberOfBytes": "1"
      },
      "t_uint256": {
        "encoding": "inplace",
        "label": "uint256",
        "numberOfBytes": "32"
      }
    }
  }
}