{
  "address": "0x4f3b72855e3100e5F15fCf8A052d4a19b7342CC8",
  "abi": [
    {
      "anonymous": false,
      "inputs": [
        {
          "indexed": false,
          "internalType": "address",
          "name": "_activePoolAddress",
          "type": "address"
        }
      ],
      "name": "ActivePoolAddressChanged",
      "type": "event"
    },
    {
      "anonymous": false,
      "inputs": [
        {
          "indexed": true,
          "internalType": "address",
          "name": "_borrower",
          "type": "address"
        },
        {
          "indexed": false,
          "internalType": "uint256",
          "name": "_BaseFeeLMAFee",
          "type": "uint256"
        }
      ],
      "name": "BaseFeeLMABorrowingFeePaid",
      "type": "event"
    },
    {
      "anonymous": false,
      "inputs": [
        {
          "indexed": false,
          "internalType": "address",
          "name": "_BaseFeeLMATokenAddress",
          "type": "address"
        }
      ],
      "name": "BaseFeeLMATokenAddressChanged",
      "type": "event"
    },
    {
      "anonymous": false,
      "inputs": [
        {
          "indexed": false,
          "internalType": "address",
          "name": "_collSurplusPoolAddress",
          "type": "address"
        }
      ],
      "name": "CollSurplusPoolAddressChanged",
      "type": "event"
    },
    {
      "anonymous": false,
      "inputs": [
        {
          "indexed": false,
          "internalType": "address",
          "name": "_defaultPoolAddress",
          "type": "address"
        }
      ],
      "name": "DefaultPoolAddressChanged",
      "type": "event"
    },
    {
      "anonymous": false,
      "inputs": [
        {
          "indexed": false,
          "internalType": "address",
          "name": "_gasPoolAddress",
          "type": "address"
        }
      ],
      "name": "GasPoolAddressChanged",
      "type": "event"
    },
    {
      "anonymous": false,
      "inputs": [
        {
          "indexed": false,
          "internalType": "address",
          "name": "_hogStakingAddress",
          "type": "address"
        }
      ],
      "name": "HOGStakingAddressChanged",
      "type": "event"
    },
    {
      "anonymous": false,
      "inputs": [
        {
          "indexed": true,
          "internalType": "address",
          "name": "previousOwner",
          "type": "address"
        },
        {
          "indexed": true,
          "internalType": "address",
          "name": "newOwner",
          "type": "address"
        }
      ],
      "name": "OwnershipTransferred",
      "type": "event"
    },
    {
      "anonymous": false,
      "inputs": [
        {
          "indexed": false,
          "internalType": "address",
          "name": "_newPriceFeedAddress",
          "type": "address"
        }
      ],
      "name": "PriceFeedAddressChanged",
      "type": "event"
    },
    {
      "anonymous": false,
      "inputs": [
        {
          "indexed": false,
          "internalType": "address",
          "name": "_sortedTrovesAddress",
          "type": "address"
        }
      ],
      "name": "SortedTrovesAddressChanged",
      "type": "event"
    },
    {
      "anonymous": false,
      "inputs": [
        {
          "indexed": false,
          "internalType": "contract IERC20",
          "name": "_StEthAddress",
          "type": "address"
        }
      ],
      "name": "StETHTokenAddressUpdated",
      "type": "event"
    },
    {
      "anonymous": false,
      "inputs": [
        {
          "indexed": false,
          "internalType": "address",
          "name": "_stabilityPoolAddress",
          "type": "address"
        }
      ],
      "name": "StabilityPoolAddressChanged",
      "type": "event"
    },
    {
      "anonymous": false,
      "inputs": [
        {
          "indexed": true,
          "internalType": "address",
          "name": "_borrower",
          "type": "address"
        },
        {
          "indexed": false,
          "internalType": "uint256",
          "name": "arrayIndex",
          "type": "uint256"
        }
      ],
      "name": "TroveCreated",
      "type": "event"
    },
    {
      "anonymous": false,
      "inputs": [
        {
          "indexed": false,
          "internalType": "address",
          "name": "_newTroveManagerAddress",
          "type": "address"
        }
      ],
      "name": "TroveManagerAddressChanged",
      "type": "event"
    },
    {
      "anonymous": false,
      "inputs": [
        {
          "indexed": true,
          "internalType": "address",
          "name": "_borrower",
          "type": "address"
        },
        {
          "indexed": false,
          "internalType": "uint256",
          "name": "_debt",
          "type": "uint256"
        },
        {
          "indexed": false,
          "internalType": "uint256",
          "name": "_coll",
          "type": "uint256"
        },
        {
          "indexed": false,
          "internalType": "uint256",
          "name": "stake",
          "type": "uint256"
        },
        {
          "indexed": false,
          "internalType": "enum BorrowerOperations.BorrowerOperation",
          "name": "operation",
          "type": "uint8"
        }
      ],
      "name": "TroveUpdated",
      "type": "event"
    },
    {
      "inputs": [],
      "name": "BORROWING_FEE_FLOOR",
      "outputs": [
        {
          "internalType": "uint256",
          "name": "",
          "type": "uint256"
        }
      ],
      "stateMutability": "view",
      "type": "function"
    },
    {
      "inputs": [],
      "name": "BaseFeeLMA_GAS_COMPENSATION",
      "outputs": [
        {
          "internalType": "uint256",
          "name": "",
          "type": "uint256"
        }
      ],
      "stateMutability": "view",
      "type": "function"
    },
    {
      "inputs": [],
      "name": "CCR",
      "outputs": [
        {
          "internalType": "uint256",
          "name": "",
          "type": "uint256"
        }
      ],
      "stateMutability": "view",
      "type": "function"
    },
    {
      "inputs": [],
      "name": "DECIMAL_PRECISION",
      "outputs": [
        {
          "internalType": "uint256",
          "name": "",
          "type": "uint256"
        }
      ],
      "stateMutability": "view",
      "type": "function"
    },
    {
      "inputs": [],
      "name": "MCR",
      "outputs": [
        {
          "internalType": "uint256",
          "name": "",
          "type": "uint256"
        }
      ],
      "stateMutability": "view",
      "type": "function"
    },
    {
      "inputs": [],
      "name": "MIN_NET_DEBT",
      "outputs": [
        {
          "internalType": "uint256",
          "name": "",
          "type": "uint256"
        }
      ],
      "stateMutability": "view",
      "type": "function"
    },
    {
      "inputs": [],
      "name": "NAME",
      "outputs": [
        {
          "internalType": "string",
          "name": "",
          "type": "string"
        }
      ],
      "stateMutability": "view",
      "type": "function"
    },
    {
      "inputs": [],
      "name": "PERCENT_DIVISOR",
      "outputs": [
        {
          "internalType": "uint256",
          "name": "",
          "type": "uint256"
        }
      ],
      "stateMutability": "view",
      "type": "function"
    },
    {
      "inputs": [],
      "name": "_100pct",
      "outputs": [
        {
          "internalType": "uint256",
          "name": "",
          "type": "uint256"
        }
      ],
      "stateMutability": "view",
      "type": "function"
    },
    {
      "inputs": [],
      "name": "activePool",
      "outputs": [
        {
          "internalType": "contract IActivePool",
          "name": "",
          "type": "address"
        }
      ],
      "stateMutability": "view",
      "type": "function"
    },
    {
      "inputs": [
        {
          "internalType": "address",
          "name": "_upperHint",
          "type": "address"
        },
        {
          "internalType": "address",
          "name": "_lowerHint",
          "type": "address"
        },
        {
          "internalType": "uint256",
          "name": "_amount",
          "type": "uint256"
        }
      ],
      "name": "addColl",
      "outputs": [],
      "stateMutability": "nonpayable",
      "type": "function"
    },
    {
      "inputs": [
        {
          "internalType": "uint256",
          "name": "_maxFeePercentage",
          "type": "uint256"
        },
        {
          "internalType": "uint256",
          "name": "_collWithdrawal",
          "type": "uint256"
        },
        {
          "internalType": "uint256",
          "name": "_collIncrease",
          "type": "uint256"
        },
        {
          "internalType": "uint256",
          "name": "_BaseFeeLMAChange",
          "type": "uint256"
        },
        {
          "internalType": "bool",
          "name": "_isDebtIncrease",
          "type": "bool"
        },
        {
          "internalType": "address",
          "name": "_upperHint",
          "type": "address"
        },
        {
          "internalType": "address",
          "name": "_lowerHint",
          "type": "address"
        }
      ],
      "name": "adjustTrove",
      "outputs": [],
      "stateMutability": "nonpayable",
      "type": "function"
    },
    {
      "inputs": [],
      "name": "claimCollateral",
      "outputs": [],
      "stateMutability": "nonpayable",
      "type": "function"
    },
    {
      "inputs": [],
      "name": "closeTrove",
      "outputs": [],
      "stateMutability": "nonpayable",
      "type": "function"
    },
    {
      "inputs": [],
      "name": "defaultPool",
      "outputs": [
        {
          "internalType": "contract IDefaultPool",
          "name": "",
          "type": "address"
        }
      ],
      "stateMutability": "view",
      "type": "function"
    },
    {
      "inputs": [
        {
          "internalType": "uint256",
          "name": "_debt",
          "type": "uint256"
        }
      ],
      "name": "getCompositeDebt",
      "outputs": [
        {
          "internalType": "uint256",
          "name": "",
          "type": "uint256"
        }
      ],
      "stateMutability": "pure",
      "type": "function"
    },
    {
      "inputs": [],
      "name": "getEntireSystemColl",
      "outputs": [
        {
          "internalType": "uint256",
          "name": "entireSystemColl",
          "type": "uint256"
        }
      ],
      "stateMutability": "view",
      "type": "function"
    },
    {
      "inputs": [],
      "name": "getEntireSystemDebt",
      "outputs": [
        {
          "internalType": "uint256",
          "name": "entireSystemDebt",
          "type": "uint256"
        }
      ],
      "stateMutability": "view",
      "type": "function"
    },
    {
      "inputs": [],
      "name": "hogStaking",
      "outputs": [
        {
          "internalType": "contract IHOGStaking",
          "name": "",
          "type": "address"
        }
      ],
      "stateMutability": "view",
      "type": "function"
    },
    {
      "inputs": [],
      "name": "hogStakingAddress",
      "outputs": [
        {
          "internalType": "address",
          "name": "",
          "type": "address"
        }
      ],
      "stateMutability": "view",
      "type": "function"
    },
    {
      "inputs": [
        {
          "internalType": "address",
          "name": "_borrower",
          "type": "address"
        },
        {
          "internalType": "address",
          "name": "_upperHint",
          "type": "address"
        },
        {
          "internalType": "address",
          "name": "_lowerHint",
          "type": "address"
        },
        {
          "internalType": "uint256",
          "name": "_amount",
          "type": "uint256"
        }
      ],
      "name": "moveStETHGainToTrove",
      "outputs": [],
      "stateMutability": "nonpayable",
      "type": "function"
    },
    {
      "inputs": [
        {
          "internalType": "uint256",
          "name": "_maxFeePercentage",
          "type": "uint256"
        },
        {
          "internalType": "uint256",
          "name": "_BaseFeeLMAAmount",
          "type": "uint256"
        },
        {
          "internalType": "uint256",
          "name": "_collAmount",
          "type": "uint256"
        },
        {
          "internalType": "address",
          "name": "_upperHint",
          "type": "address"
        },
        {
          "internalType": "address",
          "name": "_lowerHint",
          "type": "address"
        }
      ],
      "name": "openTrove",
      "outputs": [],
      "stateMutability": "nonpayable",
      "type": "function"
    },
    {
      "inputs": [],
      "name": "owner",
      "outputs": [
        {
          "internalType": "address",
          "name": "",
          "type": "address"
        }
      ],
      "stateMutability": "view",
      "type": "function"
    },
    {
      "inputs": [],
      "name": "priceFeed",
      "outputs": [
        {
          "internalType": "contract IPriceFeed",
          "name": "",
          "type": "address"
        }
      ],
      "stateMutability": "view",
      "type": "function"
    },
    {
      "inputs": [],
      "name": "renounceOwnership",
      "outputs": [],
      "stateMutability": "nonpayable",
      "type": "function"
    },
    {
      "inputs": [
        {
          "internalType": "uint256",
          "name": "_BaseFeeLMAAmount",
          "type": "uint256"
        },
        {
          "internalType": "address",
          "name": "_upperHint",
          "type": "address"
        },
        {
          "internalType": "address",
          "name": "_lowerHint",
          "type": "address"
        }
      ],
      "name": "repayBaseFeeLMA",
      "outputs": [],
      "stateMutability": "nonpayable",
      "type": "function"
    },
    {
      "inputs": [
        {
          "internalType": "address",
          "name": "_troveManagerAddress",
          "type": "address"
        },
        {
          "internalType": "address",
          "name": "_activePoolAddress",
          "type": "address"
        },
        {
          "internalType": "address",
          "name": "_defaultPoolAddress",
          "type": "address"
        },
        {
          "internalType": "address",
          "name": "_stabilityPoolAddress",
          "type": "address"
        },
        {
          "internalType": "address",
          "name": "_gasPoolAddress",
          "type": "address"
        },
        {
          "internalType": "address",
          "name": "_collSurplusPoolAddress",
          "type": "address"
        },
        {
          "internalType": "address",
          "name": "_priceFeedAddress",
          "type": "address"
        },
        {
          "internalType": "address",
          "name": "_sortedTrovesAddress",
          "type": "address"
        },
        {
          "internalType": "address",
          "name": "_baseFeeLMATokenAddress",
          "type": "address"
        },
        {
          "internalType": "address",
          "name": "_hogStakingAddress",
          "type": "address"
        },
        {
          "internalType": "contract IERC20",
          "name": "_stETHTokenAddress",
          "type": "address"
        }
      ],
      "name": "setAddresses",
      "outputs": [],
      "stateMutability": "nonpayable",
      "type": "function"
    },
    {
      "inputs": [],
      "name": "sortedTroves",
      "outputs": [
        {
          "internalType": "contract ISortedTroves",
          "name": "",
          "type": "address"
        }
      ],
      "stateMutability": "view",
      "type": "function"
    },
    {
      "inputs": [
        {
          "internalType": "address",
          "name": "newOwner",
          "type": "address"
        }
      ],
      "name": "transferOwnership",
      "outputs": [],
      "stateMutability": "nonpayable",
      "type": "function"
    },
    {
      "inputs": [],
      "name": "troveManager",
      "outputs": [
        {
          "internalType": "contract ITroveManager",
          "name": "",
          "type": "address"
        }
      ],
      "stateMutability": "view",
      "type": "function"
    },
    {
      "inputs": [
        {
          "internalType": "uint256",
          "name": "_maxFeePercentage",
          "type": "uint256"
        },
        {
          "internalType": "uint256",
          "name": "_BaseFeeLMAAmount",
          "type": "uint256"
        },
        {
          "internalType": "address",
          "name": "_upperHint",
          "type": "address"
        },
        {
          "internalType": "address",
          "name": "_lowerHint",
          "type": "address"
        }
      ],
      "name": "withdrawBaseFeeLMA",
      "outputs": [],
      "stateMutability": "nonpayable",
      "type": "function"
    },
    {
      "inputs": [
        {
          "internalType": "uint256",
          "name": "_collWithdrawal",
          "type": "uint256"
        },
        {
          "internalType": "address",
          "name": "_upperHint",
          "type": "address"
        },
        {
          "internalType": "address",
          "name": "_lowerHint",
          "type": "address"
        }
      ],
      "name": "withdrawColl",
      "outputs": [],
      "stateMutability": "nonpayable",
      "type": "function"
    }
  ],
  "transactionHash": "0x0c581cec24c6f67e3de6c8c588496322ff5020ae4921ae28d71fdab9f35c1620",
  "args": [],
  "numDeployments": 1,
  "solcInputHash": "08fcf48065dfd4e5ede07c1cfd828c60",
  "bytecode": "0x60806040523480156200001157600080fd5b506200001d3362000023565b62000075565b600380546001600160a01b038381166001600160a01b0319831681179093556040519116919082907f8be0079c531659141344cd1fd0a4f28419497f9722a3daafe3b4186f6b6457e090600090a35050565b6136cf80620000856000396000f3fe608060405234801561001057600080fd5b50600436106101b05760003560e01c8063795d26c3116100ef578063a20baee611610092578063a20baee614610293578063a3f4df7e1461032b578063ae91875414610369578063aead9dcc1461037c578063b8a106da1461038f578063f2fde38b146103a2578063f633e743146103b5578063f92d3433146103c857600080fd5b8063795d26c3146102b55780637985c5e4146102bd5780637e88d408146102d05780637f7dde4a146102e3578063887105d3146102f65780638da5cb5b146102fe5780638f09162b1461030f578063a20141521461032257600080fd5b80635733d58f116101575780635733d58f1461024e5780635da8b1c31461025d57806368121231146102705780636f0b0c1c14610283578063715018a61461028b57806372fe25aa14610293578063741bef1a146102a2578063794e57241461024e57600080fd5b80630e704d50146101b55780631bf43555146101bf5780633cc74225146101da5780633d83908a146101fa57806347a6e7131461020d5780634870dd9a146102205780634ff81443146102285780635530273c1461023b575b600080fd5b6101bd6103d0565b005b6101c7600181565b6040519081526020015b60405180910390f35b6001546101ed906001600160a01b031681565b6040516101d19190613139565b6004546101ed906001600160a01b031681565b6101bd61021b366004613172565b610771565b6101c760c881565b6101c76102363660046131b4565b610789565b6101bd610249366004613172565b61079a565b6101c76714d1120d7b16000081565b6101bd61026b3660046131db565b6107ad565b6101bd61027e36600461324d565b6107c6565b6101bd610810565b6101bd61086e565b6101c7670de0b6b3a764000081565b6002546101ed906001600160a01b031681565b6101c7610882565b6101bd6102cb36600461329e565b61097e565b6101bd6102de36600461337c565b610cfb565b6000546101ed906001600160a01b031681565b6101c7610d2e565b6003546001600160a01b03166101ed565b6101bd61031d3660046133bd565b610df3565b6101c761c35081565b61035c60405180604001604052806012815260200171426f72726f7765724f7065726174696f6e7360701b81525081565b6040516101d19190613437565b600c546101ed906001600160a01b031681565b6009546101ed906001600160a01b031681565b6101bd61039d36600461346a565b6113e6565b6101bd6103b03660046134b4565b6113f8565b600a546101ed906001600160a01b031681565b6101c7611471565b600454600054600b546001600160a01b039283169291821691166103f48333611493565b60025460408051630fdb11cf60e01b815290516000926001600160a01b031691630fdb11cf916004808301926020929190829003018187875af115801561043f573d6000803e3d6000fd5b505050506040513d601f19601f8201168201806040525081019061046391906134d1565b905061046e8161156c565b604051630b07655760e01b81526001600160a01b03851690630b0765579061049a903390600401613139565b600060405180830381600087803b1580156104b457600080fd5b505af11580156104c8573d6000803e3d6000fd5b50506040516309019aaf60e31b8152600092506001600160a01b038716915063480cd578906104fb903390600401613139565b602060405180830381865afa158015610518573d6000803e3d6000fd5b505050506040513d601f19601f8201168201806040525081019061053c91906134d1565b90506000856001600160a01b031663d66a2553336040518263ffffffff1660e01b815260040161056c9190613139565b602060405180830381865afa158015610589573d6000803e3d6000fd5b505050506040513d601f19601f820116820180604052508101906105ad91906134d1565b90506105c584336105c08461c3506115e4565b6115f7565b60006105d6836000846000886116e6565b90506105e18161175b565b604051631fc5750960e31b81526001600160a01b0388169063fe2ba8489061060d903390600401613139565b600060405180830381600087803b15801561062757600080fd5b505af115801561063b573d6000803e3d6000fd5b50506040516365e89c5760e11b81526001600160a01b038a16925063cbd138ae915061066b903390600401613139565b600060405180830381600087803b15801561068557600080fd5b505af1158015610699573d6000803e3d6000fd5b50505050336001600160a01b031660008051602061367a833981519152600080600060016040516106cd949392919061350c565b60405180910390a26106ec8686336106e78661c3506115e4565b6117eb565b60065461070890879087906001600160a01b031661c3506117eb565b60405163a51ba3b760e01b81526001600160a01b0387169063a51ba3b790610736903390879060040161352e565b600060405180830381600087803b15801561075057600080fd5b505af1158015610764573d6000803e3d6000fd5b5050505050505050505050565b61078433600080866000878760006118ab565b505050565b600061079482611e83565b92915050565b61078433846000806000878760006118ab565b6107bd338787878787878e6118ab565b50505050505050565b600081116107ef5760405162461bcd60e51b81526004016107e690613547565b60405180910390fd5b6107f7611e91565b61080a84600083600080888860006118ab565b50505050565b60085460405163b32beb5b60e01b81526001600160a01b039091169063b32beb5b90610840903390600401613139565b600060405180830381600087803b15801561085a57600080fd5b505af115801561080a573d6000803e3d6000fd5b610876611efd565b6108806000611f57565b565b60008054604080516315b3137b60e21b8152905183926001600160a01b0316916356cc4dec9160048083019260209291908290030181865afa1580156108cc573d6000803e3d6000fd5b505050506040513d601f19601f820116820180604052508101906108f091906134d1565b90506000600160009054906101000a90046001600160a01b03166001600160a01b03166356cc4dec6040518163ffffffff1660e01b8152600401602060405180830381865afa158015610947573d6000803e3d6000fd5b505050506040513d601f19601f8201168201806040525081019061096b91906134d1565b90506109778282611fa9565b9250505090565b610986611efd565b61098f8b611fb5565b6109988a611fb5565b6109a189611fb5565b6109aa88611fb5565b6109b387611fb5565b6109bc86611fb5565b6109c585611fb5565b6109ce84611fb5565b6109d783611fb5565b6109e082611fb5565b6109e981611fb5565b600480546001600160a01b03199081166001600160a01b038e8116919091179092556000805482168d84161790556001805482168c84161790556005805482168b84161790556006805482168a8416179055600880548216898416179055600280548216888416179055600c80548216878416179055600b80548216868416179055600a805482168584169081179091556009805483169091179055600780549091169183169190911790556040517f143219c9e69b09e07e095fcc889b43d8f46ca892bba65f08dc3a0050869a567890610ac5908d90613139565b60405180910390a17f78f058b189175430c48dc02699e3a0031ea4ff781536dc2fab847de4babdd8828a604051610afc9190613139565b60405180910390a17f5ee0cae2f063ed938bb55046f6a932fb6ae792bf43624806bb90abe68a50be9b89604051610b339190613139565b60405180910390a17f82966d27eea39b038ee0fa30cd16532bb24f6e65d31cb58fb227aa5766cdcc7f88604051610b6a9190613139565b60405180910390a17fcfb07d791fcafc032b35837b50eb84b74df518cf4cc287e8084f47630fa70fa087604051610ba19190613139565b60405180910390a17fe67f36a6e961157d6eff83b91f3af5a62131ceb6f04954ef74f51c1c05e7f88d86604051610bd89190613139565b60405180910390a17f8c537274438aa850a330284665d81a85dd38267d09e4050d416bfc94142db26485604051610c0f9190613139565b60405180910390a17f65f4cf077bc01e4742eb5ad98326f6e95b63548ea24b17f8d5e823111fe7880084604051610c469190613139565b60405180910390a17f7faa560f2889840c377209fbc4b6b92d05f43f1fc60bf336ab546fd60c0051ad83604051610c7d9190613139565b60405180910390a17ffe7e5f521efd6e9fda9261f1223b2cda79ba84d0393e8b6629d27db91048126f82604051610cb49190613139565b60405180910390a17f0847fbaccb3e7e2f8fe1e72d819c96f0fca0131ffebf9e9dfe13eb5625b6935181604051610ceb9190613139565b60405180910390a161076461086e565b60008111610d1b5760405162461bcd60e51b81526004016107e690613547565b61078433600083600080888860006118ab565b600080546040805163a2f0398360e01b8152905183926001600160a01b03169163a2f039839160048083019260209291908290030181865afa158015610d78573d6000803e3d6000fd5b505050506040513d601f19601f82011682018060405250810190610d9c91906134d1565b90506000600160009054906101000a90046001600160a01b03166001600160a01b031663a2f039836040518163ffffffff1660e01b8152600401602060405180830381865afa158015610947573d6000803e3d6000fd5b6040805160608082018352600480546001600160a01b039081168452600080548216602080870191909152600b548316868801528651610100810188528281528082018390528088018390529485018290526080850182905260a0850182905260c0850182905260e085018290526002548751630fdb11cf60e01b8152975196979596931694630fdb11cf948181019492939183900301908290875af1158015610ea1573d6000803e3d6000fd5b505050506040513d601f19601f82011682018060405250810190610ec591906134d1565b808252600090610ed49061205e565b9050610ee0888261207b565b8251610eec903361218f565b6040820187905280610f1c57610f0c83600001518460400151898b612251565b60208301819052610f1c906123f5565b610f29826040015161243a565b610f368260400151611e83565b60608301819052610f4957610f4961358a565b610f5c86836060015184600001516124b1565b60808301526060820151610f719087906124ed565b60a08301528015610f8e57610f89826080015161251c565b610fc1565b610f9b8260800151612594565b6000610fb48760018560600151600187600001516116e6565b9050610fbf8161175b565b505b8251604051635d6b480f60e01b81526001600160a01b0390911690635d6b480f90610ff390339060019060040161352e565b600060405180830381600087803b15801561100d57600080fd5b505af1158015611021573d6000803e3d6000fd5b505084516040516372423c1760e01b81526001600160a01b0390911692506372423c1791506110569033908a9060040161352e565b6020604051808303816000875af1158015611075573d6000803e3d6000fd5b505050506040513d601f19601f8201168201806040525081019061109991906134d1565b5082516060830151604051639976cf4560e01b81526001600160a01b0390921691639976cf45916110cf9133919060040161352e565b6020604051808303816000875af11580156110ee573d6000803e3d6000fd5b505050506040513d601f19601f8201168201806040525081019061111291906134d1565b5082516040516382fe3eb960e01b81526001600160a01b03909116906382fe3eb990611142903390600401613139565b600060405180830381600087803b15801561115c57600080fd5b505af1158015611170573d6000803e3d6000fd5b50508451604051630c7940bd60e11b81526001600160a01b0390911692506318f2817a91506111a3903390600401613139565b6020604051808303816000875af11580156111c2573d6000803e3d6000fd5b505050506040513d601f19601f820116820180604052508101906111e691906134d1565b60c0830152600c5460a08301516040516346f7cf8760e01b81526001600160a01b03909216916346f7cf8791611225913391908a908a906004016135a0565b600060405180830381600087803b15801561123f57600080fd5b505af1158015611253573d6000803e3d6000fd5b505084516040516315d549f160e01b81526001600160a01b0390911692506315d549f19150611286903390600401613139565b6020604051808303816000875af11580156112a5573d6000803e3d6000fd5b505050506040513d601f19601f820116820180604052508101906112c991906134d1565b60e0830181905260405190815233907f59cfd0cd754bc5748b6770e94a4ffa5f678d885cb899dcfadc5734edb97c67ab9060200160405180910390a2611313836020015187612624565b611348836020015184604001513361c35086602001518c61133491906135e1565b61133e91906135e1565b866040015161269d565b6020830151604084015160065461136d9291906001600160a01b031661c3508061269d565b606082015160c0830151604051339260008051602061367a8339815191529261139b928b919060009061350c565b60405180910390a260208083015160405190815233917f909ac017b31fd41edf1bf9a7ed7d4a7af4343fe034023db2d0220a77ba25e7ee910160405180910390a25050505050505050565b61080a3360008086600187878b6118ab565b611400611efd565b6001600160a01b0381166114655760405162461bcd60e51b815260206004820152602660248201527f4f776e61626c653a206e6577206f776e657220697320746865207a65726f206160448201526564647265737360d01b60648201526084016107e6565b61146e81611f57565b50565b6114856103e8670de0b6b3a76400006135f4565b611490906005613616565b81565b6040516321e3780160e01b81526000906001600160a01b038416906321e37801906114c2908590600401613139565b602060405180830381865afa1580156114df573d6000803e3d6000fd5b505050506040513d601f19601f8201168201806040525081019061150391906134d1565b9050806001146107845760405162461bcd60e51b815260206004820152602e60248201527f426f72726f7765724f70733a2054726f766520646f6573206e6f74206578697360448201526d1d081bdc881a5cc818db1bdcd95960921b60648201526084016107e6565b6115758161205e565b1561146e5760405162461bcd60e51b815260206004820152603960248201527f426f72726f7765724f70733a204f7065726174696f6e206e6f74207065726d696044820152787474656420647572696e67205265636f76657279204d6f646560381b60648201526084016107e6565b60006115f082846135e1565b9392505050565b6040516370a0823160e01b815281906001600160a01b038516906370a0823190611625908690600401613139565b602060405180830381865afa158015611642573d6000803e3d6000fd5b505050506040513d601f19601f8201168201806040525081019061166691906134d1565b10156107845760405162461bcd60e51b815260206004820152604360248201527f426f72726f7765724f70733a2043616c6c657220646f65736e7420686176652060448201527f656e6f75676820426173654665654c4d4120746f206d616b652072657061796d606482015262195b9d60ea1b608482015260a4016107e6565b6000806116f1610d2e565b905060006116fd610882565b9050866117135761170e82896115e4565b61171d565b61171d8289611fa9565b9150846117335761172e81876115e4565b61173d565b61173d8187611fa9565b9050600061174c8383876124b1565b93505050505b95945050505050565b6714d1120d7b16000081101561146e5760405162461bcd60e51b815260206004820152604960248201527f426f72726f7765724f70733a20416e206f7065726174696f6e2074686174207760448201527f6f756c6420726573756c7420696e20544352203c20434352206973206e6f74206064820152681c195c9b5a5d1d195960ba1b608482015260a4016107e6565b604051633b4009ff60e11b8152600481018290526001600160a01b0385169063768013fe90602401600060405180830381600087803b15801561182d57600080fd5b505af1158015611841573d6000803e3d6000fd5b5050604051632770a7eb60e21b81526001600160a01b0386169250639dc29fac9150611873908590859060040161352e565b600060405180830381600087803b15801561188d57600080fd5b505af11580156118a1573d6000803e3d6000fd5b5050505050505050565b6040805160608082018352600480546001600160a01b039081168452600080548216602080870191909152600b5483168688015286516101a0810188528281528082018390528088018390529485018290526080850182905260a0850182905260c0850182905260e08501829052610100850182905261012085018290526101408501829052610160850182905261018085018290526002548751630fdb11cf60e01b8152975196979596931694630fdb11cf948181019492939183900301908290875af1158015611981573d6000803e3d6000fd5b505050506040513d601f19601f820116820180604052508101906119a591906134d1565b8082526000906119b49061205e565b905086156119cf576119c6848261207b565b6119cf8861275e565b6119d98a8a6127ce565b6119e48a8a8a61283e565b82516119f0908c611493565b336001600160a01b038c161480611a2657506005546001600160a01b031633148015611a1c5750600089115b8015611a26575087155b611a3257611a3261358a565b8251604051630b07655760e01b81526001600160a01b0390911690630b07655790611a61908e90600401613139565b600060405180830381600087803b158015611a7b57600080fd5b505af1158015611a8f573d6000803e3d6000fd5b50505050611a9d898b6128d6565b15156060840152602083015260408201889052868015611abb575080155b15611af057611ad4836000015184604001518a87612251565b61012083018190526040830151611aea91611fa9565b60408301525b825160405163d66a255360e01b81526001600160a01b039091169063d66a255390611b1f908e90600401613139565b602060405180830381865afa158015611b3c573d6000803e3d6000fd5b505050506040513d601f19601f82011682018060405250810190611b6091906134d1565b608083015282516040516309019aaf60e31b81526001600160a01b039091169063480cd57890611b94908e90600401613139565b602060405180830381865afa158015611bb1573d6000803e3d6000fd5b505050506040513d601f19601f82011682018060405250810190611bd591906134d1565b60a0830181905260808301518351611bee9291906124b1565b8260c0018181525050611c1e8260a0015183608001518460200151856060015186604001518c88600001516128f5565b60e083015260a08201518a1115611c3757611c3761358a565b611c43818b8985612928565b86158015611c515750600088115b15611c9e57611c79611c748360400151611c6e856080015161299c565b906115e4565b61243a565b611c8b826080015183604001516129aa565b611c9e83604001518c84604001516115f7565b611cbc83600001518c8460200151856060015186604001518c612a37565b6101408401526101608301528251604051630c7940bd60e11b81526001600160a01b03909116906318f2817a90611cf7908e90600401613139565b6020604051808303816000875af1158015611d16573d6000803e3d6000fd5b505050506040513d601f19601f82011682018060405250810190611d3a91906134d1565b826101800181815250506000611d688360a0015184608001518560200151866060015187604001518d612c29565b600c5460405163015f109360e51b81529192506001600160a01b031690632be2126090611d9f908f9085908c908c906004016135a0565b600060405180830381600087803b158015611db957600080fd5b505af1158015611dcd573d6000803e3d6000fd5b505050508b6001600160a01b031660008051602061367a8339815191528461014001518561016001518661018001516002604051611e0e949392919061350c565b60405180910390a261012083015160405190815233907f909ac017b31fd41edf1bf9a7ed7d4a7af4343fe034023db2d0220a77ba25e7ee9060200160405180910390a2611e758460200151856040015133866020015187606001518e8e8a60400151612c5a565b505050505050505050505050565b60006107948261c350611fa9565b6005546001600160a01b031633146108805760405162461bcd60e51b815260206004820152602960248201527f426f72726f7765724f70733a2043616c6c6572206973206e6f742053746162696044820152681b1a5d1e48141bdbdb60ba1b60648201526084016107e6565b6003546001600160a01b031633146108805760405162461bcd60e51b815260206004820181905260248201527f4f776e61626c653a2063616c6c6572206973206e6f7420746865206f776e657260448201526064016107e6565b600380546001600160a01b038381166001600160a01b0319831681179093556040519116919082907f8be0079c531659141344cd1fd0a4f28419497f9722a3daafe3b4186f6b6457e090600090a35050565b60006115f0828461362d565b6001600160a01b03811661200b5760405162461bcd60e51b815260206004820152601e60248201527f4163636f756e742063616e6e6f74206265207a65726f2061646472657373000060448201526064016107e6565b803b8061205a5760405162461bcd60e51b815260206004820181905260248201527f4163636f756e7420636f64652073697a652063616e6e6f74206265207a65726f60448201526064016107e6565b5050565b60008061206a83612cef565b6714d1120d7b160000119392505050565b80156120f457670de0b6b3a764000082111561205a5760405162461bcd60e51b815260206004820152603260248201527f4d6178206665652070657263656e74616765206d757374206c657373207468616044820152716e206f7220657175616c20746f203130302560701b60648201526084016107e6565b6121086103e8670de0b6b3a76400006135f4565b612113906005613616565b821015801561212a5750670de0b6b3a76400008211155b61205a5760405162461bcd60e51b815260206004820152603060248201527f4d6178206665652070657263656e74616765206d75737420626520626574776560448201526f656e20302e352520616e64203130302560801b60648201526084016107e6565b6040516321e3780160e01b81526000906001600160a01b038416906321e37801906121be908590600401613139565b602060405180830381865afa1580156121db573d6000803e3d6000fd5b505050506040513d601f19601f820116820180604052508101906121ff91906134d1565b9050806001036107845760405162461bcd60e51b815260206004820152601c60248201527f426f72726f7765724f70733a2054726f7665206973206163746976650000000060448201526064016107e6565b6000846001600160a01b0316635dba4c4a6040518163ffffffff1660e01b8152600401600060405180830381600087803b15801561228e57600080fd5b505af11580156122a2573d6000803e3d6000fd5b5050604051630631203b60e41b815260048101869052600092506001600160a01b038816915063631203b090602401602060405180830381865afa1580156122ee573d6000803e3d6000fd5b505050506040513d601f19601f8201168201806040525081019061231291906134d1565b905061231d816123f5565b612328818585612d13565b60095460405162697fb760e71b8152600481018390526001600160a01b03909116906334bfdb8090602401600060405180830381600087803b15801561236d57600080fd5b505af1158015612381573d6000803e3d6000fd5b5050600a546040516340c10f1960e01b81526001600160a01b03808a1694506340c10f1993506123b7921690859060040161352e565b600060405180830381600087803b1580156123d157600080fd5b505af11580156123e5573d6000803e3d6000fd5b509293505050505b949350505050565b61146e8160405160240161240b91815260200190565b60408051601f198184030181529190526020810180516001600160e01b031663f82c50f160e01b179052612d7d565b600181101561146e5760405162461bcd60e51b815260206004820152603a60248201527f426f72726f7765724f70733a2054726f76652773206e65742064656274206d7560448201527f73742062652067726561746572207468616e206d696e696d756d00000000000060648201526084016107e6565b600082156124e25760006124d9836124d3868189670de0b6b3a7640000612d86565b90612d92565b91506115f09050565b506000199392505050565b600081156125135761250c826124d38568056bc75e2d63100000612d86565b9050610794565b50600019610794565b6714d1120d7b16000081101561146e5760405162461bcd60e51b815260206004820152603760248201527f426f72726f7765724f70733a204f7065726174696f6e206d757374206c65617660448201527632903a3937bb32903bb4ba341024a1a9101f1e9021a1a960491b60648201526084016107e6565b6714d1120d7b16000081101561146e5760405162461bcd60e51b815260206004820152604960248201527f426f72726f7765724f70733a20416e206f7065726174696f6e2074686174207760448201527f6f756c6420726573756c7420696e20494352203c204d4352206973206e6f74206064820152681c195c9b5a5d1d195960ba1b608482015260a4016107e6565b60075461263c906001600160a01b0316338484612d9e565b60005460405162f9332d60e61b8152600481018390526001600160a01b0390911690633e4ccb4090602401600060405180830381600087803b15801561268157600080fd5b505af1158015612695573d6000803e3d6000fd5b505050505050565b60405163262b890160e01b8152600481018290526001600160a01b0386169063262b890190602401600060405180830381600087803b1580156126df57600080fd5b505af11580156126f3573d6000803e3d6000fd5b50506040516340c10f1960e01b81526001600160a01b03871692506340c10f199150612725908690869060040161352e565b600060405180830381600087803b15801561273f57600080fd5b505af1158015612753573d6000803e3d6000fd5b505050505050505050565b6000811161146e5760405162461bcd60e51b815260206004820152603760248201527f426f72726f7765724f70733a204465627420696e637265617365207265717569604482015276726573206e6f6e2d7a65726f20646562744368616e676560481b60648201526084016107e6565b8015806127d9575081155b61205a5760405162461bcd60e51b815260206004820152603060248201527f426f72726f7765724f7065726174696f6e733a2043616e6e6f7420776974686460448201526f1c985dc8185b99081859190818dbdb1b60821b60648201526084016107e6565b8115158061284b57508215155b8061285557508015155b6107845760405162461bcd60e51b815260206004820152604660248201527f426f72726f7765724f70733a205468657265206d75737420626520656974686560448201527f72206120636f6c6c61746572616c206368616e6765206f7220612064656274206064820152656368616e676560d01b608482015260a4016107e6565b60008083156128ea575082905060016128ee565b8291505b9250929050565b60008060006129088a8a8a8a8a8a612df8565b9150915060006129198383876124b1565b9b9a5050505050505050505050565b83156129615761293783612e36565b811561295c5761294a8160e0015161251c565b61295c8160e001518260c00151612eaa565b61080a565b61296e8160e00151612594565b61298b8160200151826060015183604001518585600001516116e6565b610100820181905261080a9061175b565b60006107948261c3506115e4565b6129b68261c3506115e4565b81111561205a5760405162461bcd60e51b815260206004820152604360248201527f426f72726f7765724f70733a20416d6f756e7420726570616964206d7573742060448201527f6e6f74206265206c6172676572207468616e207468652054726f76652773206460648201526219589d60ea1b608482015260a4016107e6565b600080600085612ab75760405163d3d6f84360e01b81526001600160a01b038a169063d3d6f84390612a6f908b908b9060040161352e565b6020604051808303816000875af1158015612a8e573d6000803e3d6000fd5b505050506040513d601f19601f82011682018060405250810190612ab291906134d1565b612b28565b6040516372423c1760e01b81526001600160a01b038a16906372423c1790612ae5908b908b9060040161352e565b6020604051808303816000875af1158015612b04573d6000803e3d6000fd5b505050506040513d601f19601f82011682018060405250810190612b2891906134d1565b9050600084612ba757604051630930874960e11b81526001600160a01b038b16906312610e9290612b5f908c908a9060040161352e565b6020604051808303816000875af1158015612b7e573d6000803e3d6000fd5b505050506040513d601f19601f82011682018060405250810190612ba291906134d1565b612c18565b604051639976cf4560e01b81526001600160a01b038b1690639976cf4590612bd5908c908a9060040161352e565b6020604051808303816000875af1158015612bf4573d6000803e3d6000fd5b505050506040513d601f19601f82011682018060405250810190612c1891906134d1565b919a91995090975050505050505050565b6000806000612c3c898989898989612df8565b915091506000612c4c83836124ed565b9a9950505050505050505050565b8115612c7257612c6d888888868561269d565b612c7e565b612c7e888888866117eb565b8315612c9357612c8e8886612624565b6118a1565b60405163a51ba3b760e01b81526001600160a01b0389169063a51ba3b790612cc1908990899060040161352e565b600060405180830381600087803b158015612cdb57600080fd5b505af1158015611e75573d6000803e3d6000fd5b600080612cfa610d2e565b90506000612d06610882565b90506123ed8282866124b1565b6000612d2b836124d386670de0b6b3a7640000612d86565b90508181111561080a5760405162461bcd60e51b815260206004820152601d60248201527f4665652065786365656465642070726f7669646564206d6178696d756d00000060448201526064016107e6565b61146e81612f20565b60006115f08284613616565b60006115f082846135f4565b604080516001600160a01b0385811660248301528416604482015260648082018490528251808303909101815260849091019091526020810180516001600160e01b03166323b872dd60e01b17905261080a908590612f41565b600080878786612e1157612e0c8a896115e4565b612e1b565b612e1b8a89611fa9565b915084612e2c57612ba289876115e4565b612c188987611fa9565b801561146e5760405162461bcd60e51b815260206004820152603e60248201527f426f72726f7765724f70733a20436f6c6c61746572616c20776974686472617760448201527f616c206e6f74207065726d6974746564205265636f76657279204d6f6465000060648201526084016107e6565b8082101561205a5760405162461bcd60e51b815260206004820152603e60248201527f426f72726f7765724f70733a2043616e6e6f7420646563726561736520796f7560448201527f722054726f766527732049435220696e205265636f76657279204d6f6465000060648201526084016107e6565b60006a636f6e736f6c652e6c6f679050600080835160208501845afa505050565b6000612f96826040518060400160405280602081526020017f5361666545524332303a206c6f772d6c6576656c2063616c6c206661696c6564815250856001600160a01b03166130169092919063ffffffff16565b9050805160001480612fb7575080806020019051810190612fb79190613640565b6107845760405162461bcd60e51b815260206004820152602a60248201527f5361666545524332303a204552433230206f7065726174696f6e20646964206e6044820152691bdd081cdd58d8d9595960b21b60648201526084016107e6565b60606123ed848460008585600080866001600160a01b0316858760405161303d919061365d565b60006040518083038185875af1925050503d806000811461307a576040519150601f19603f3d011682016040523d82523d6000602084013e61307f565b606091505b50915091506130908783838761309b565b979650505050505050565b6060831561310a578251600003613103576001600160a01b0385163b6131035760405162461bcd60e51b815260206004820152601d60248201527f416464726573733a2063616c6c20746f206e6f6e2d636f6e747261637400000060448201526064016107e6565b50816123ed565b6123ed838381511561311f5781518083602001fd5b8060405162461bcd60e51b81526004016107e69190613437565b6001600160a01b0391909116815260200190565b6001600160a01b038116811461146e57600080fd5b803561316d8161314d565b919050565b60008060006060848603121561318757600080fd5b8335925060208401356131998161314d565b915060408401356131a98161314d565b809150509250925092565b6000602082840312156131c657600080fd5b5035919050565b801515811461146e57600080fd5b600080600080600080600060e0888a0312156131f657600080fd5b87359650602088013595506040880135945060608801359350608088013561321d816131cd565b925060a088013561322d8161314d565b915060c088013561323d8161314d565b8091505092959891949750929550565b6000806000806080858703121561326357600080fd5b843561326e8161314d565b9350602085013561327e8161314d565b9250604085013561328e8161314d565b9396929550929360600135925050565b60008060008060008060008060008060006101608c8e0312156132c057600080fd5b8b356132cb8161314d565b9a5060208c01356132db8161314d565b995060408c01356132eb8161314d565b985060608c01356132fb8161314d565b975060808c013561330b8161314d565b965060a08c013561331b8161314d565b955060c08c013561332b8161314d565b945060e08c013561333b8161314d565b93506101008c013561334c8161314d565b925061335b6101208d01613162565b915061336a6101408d01613162565b90509295989b509295989b9093969950565b60008060006060848603121561339157600080fd5b833561339c8161314d565b925060208401356133ac8161314d565b929592945050506040919091013590565b600080600080600060a086880312156133d557600080fd5b85359450602086013593506040860135925060608601356133f58161314d565b915060808601356134058161314d565b809150509295509295909350565b60005b8381101561342e578181015183820152602001613416565b50506000910152565b6020815260008251806020840152613456816040850160208701613413565b601f01601f19169190910160400192915050565b6000806000806080858703121561348057600080fd5b843593506020850135925060408501356134998161314d565b915060608501356134a98161314d565b939692955090935050565b6000602082840312156134c657600080fd5b81356115f08161314d565b6000602082840312156134e357600080fd5b5051919050565b6003811061350857634e487b7160e01b600052602160045260246000fd5b9052565b84815260208101849052604081018390526080810161175260608301846134ea565b6001600160a01b03929092168252602082015260400190565b60208082526023908201527f426f72726f776572204f7065726174696f6e733a20496e76616c696420616d6f6040820152621d5b9d60ea1b606082015260800190565b634e487b7160e01b600052600160045260246000fd5b6001600160a01b03948516815260208101939093529083166040830152909116606082015260800190565b634e487b7160e01b600052601160045260246000fd5b81810381811115610794576107946135cb565b60008261361157634e487b7160e01b600052601260045260246000fd5b500490565b8082028115828204841417610794576107946135cb565b80820180821115610794576107946135cb565b60006020828403121561365257600080fd5b81516115f0816131cd565b6000825161366f818460208701613413565b919091019291505056fec3770d654ed33aeea6bf11ac8ef05d02a6a04ed4686dd2f624d853bbec43cc8ba26469706673582212201c6b7b56ec02ab17c8b866c072bed27dbeeab36e94ffedc22ca04a632a006f3c64736f6c63430008130033",
  "devdoc": {
    "kind": "dev",
    "methods": {
      "owner()": {
        "details": "Returns the address of the current owner."
      },
      "renounceOwnership()": {
        "details": "Leaves the contract without owner. It will not be possible to call `onlyOwner` functions. Can only be called by the current owner. NOTE: Renouncing ownership will leave the contract without an owner, thereby disabling any functionality that is only available to the owner."
      },
      "transferOwnership(address)": {
        "details": "Transfers ownership of the contract to a new account (`newOwner`). Can only be called by the current owner."
      }
    },
    "version": 1
  },
  "userdoc": {
    "kind": "user",
    "methods": {
      "addColl(address,address,uint256)": {
        "notice": "HEDGEHOG UPDATES: ERC20 is used as a collateral, therefore function may not rely on msg.value anymore now passing a new param _collIncrease in _adjustTrove function - in this particular case it is a passed param _amount checking if _amount is greater then 0 Function is no longer payable"
      },
      "adjustTrove(uint256,uint256,uint256,uint256,bool,address,address)": {
        "notice": "HEDGEHOG UPDATES: ERC20 is used as a collateral, therefore function may not rely on msg.value anymore now passing a new param _collIncrease Function is no longer payable"
      },
      "claimCollateral()": {
        "notice": "Claim remaining collateral from a redemption or from a liquidation with ICR > MCR in Recovery Mode"
      },
      "moveStETHGainToTrove(address,address,address,uint256)": {
        "notice": "HEDGEHOG UPDATES: ERC20 is used as a collateral, therefore function may not rely on msg.value anymore now passing a new param _collIncrease in _adjustTrove function - in this particular case it is a passed param _amount checking if _amount is greater then 0 Function is no longer payable"
      },
      "openTrove(uint256,uint256,uint256,address,address)": {
        "notice": "HEDGEHOG UPDATES: ERC20 is used as a collateral, therefore function may not rely on msg.value anymore now passing a new param _collAmount checking if _amount is greater then 0 Function is no longer payable"
      },
      "repayBaseFeeLMA(uint256,address,address)": {
        "notice": "HEDGEHOG UPDATES: ERC20 is used as a collateral, therefore function may not rely on msg.value anymore now passing a new param _collIncrease - in this particular case it is 0"
      },
      "setAddresses(address,address,address,address,address,address,address,address,address,address,address)": {
        "notice": "HEDGEHOG LOGIC UPDATES: ERC20 is used as a collateral instead of native token. Setting erc20 address in the initialisation"
      },
      "withdrawBaseFeeLMA(uint256,uint256,address,address)": {
        "notice": "HEDGEHOG UPDATES: ERC20 is used as a collateral, therefore function may not rely on msg.value anymore now passing a new param _collIncrease - in this particular case it is 0"
      },
      "withdrawColl(uint256,address,address)": {
        "notice": "HEDGEHOG UPDATES: ERC20 is used as a collateral, therefore function may not rely on msg.value anymore now passing a new param _collIncrease - in this particular case it is 0"
      }
    },
    "notice": "Fork of Liquity's BorrowerOperations. Logic remains unchanged. Changes to the contract: - Raised pragma version - Removed an import of IBorrowerOperations Interface - Updated variable names and docs to refer to BaseFeeLMA token and stEth as a collateral Even though SafeMath is no longer required, the decision was made to keep it to avoid human factor errors",
    "version": 1
  },
  "storageLayout": {
    "storage": [
      {
        "astId": 13090,
        "contract": "contracts/BorrowerOperations.sol:BorrowerOperations",
        "label": "activePool",
        "offset": 0,
        "slot": "0",
        "type": "t_contract(IActivePool)13784"
      },
      {
        "astId": 13093,
        "contract": "contracts/BorrowerOperations.sol:BorrowerOperations",
        "label": "defaultPool",
        "offset": 0,
        "slot": "1",
        "type": "t_contract(IDefaultPool)14147"
      },
      {
        "astId": 13097,
        "contract": "contracts/BorrowerOperations.sol:BorrowerOperations",
        "label": "priceFeed",
        "offset": 0,
        "slot": "2",
        "type": "t_contract(IPriceFeed)14389"
      },
      {
        "astId": 7,
        "contract": "contracts/BorrowerOperations.sol:BorrowerOperations",
        "label": "_owner",
        "offset": 0,
        "slot": "3",
        "type": "t_address"
      },
      {
        "astId": 1622,
        "contract": "contracts/BorrowerOperations.sol:BorrowerOperations",
        "label": "troveManager",
        "offset": 0,
        "slot": "4",
        "type": "t_contract(ITroveManager)15141"
      },
      {
        "astId": 1624,
        "contract": "contracts/BorrowerOperations.sol:BorrowerOperations",
        "label": "stabilityPoolAddress",
        "offset": 0,
        "slot": "5",
        "type": "t_address"
      },
      {
        "astId": 1626,
        "contract": "contracts/BorrowerOperations.sol:BorrowerOperations",
        "label": "gasPoolAddress",
        "offset": 0,
        "slot": "6",
        "type": "t_address"
      },
      {
        "astId": 1629,
        "contract": "contracts/BorrowerOperations.sol:BorrowerOperations",
        "label": "StETHToken",
        "offset": 0,
        "slot": "7",
        "type": "t_contract(IERC20)190"
      },
      {
        "astId": 1632,
        "contract": "contracts/BorrowerOperations.sol:BorrowerOperations",
        "label": "collSurplusPool",
        "offset": 0,
        "slot": "8",
        "type": "t_contract(ICollSurplusPool)14090"
      },
      {
        "astId": 1635,
        "contract": "contracts/BorrowerOperations.sol:BorrowerOperations",
        "label": "hogStaking",
        "offset": 0,
        "slot": "9",
        "type": "t_contract(IHOGStaking)14257"
      },
      {
        "astId": 1637,
        "contract": "contracts/BorrowerOperations.sol:BorrowerOperations",
        "label": "hogStakingAddress",
        "offset": 0,
        "slot": "10",
        "type": "t_address"
      },
      {
        "astId": 1640,
        "contract": "contracts/BorrowerOperations.sol:BorrowerOperations",
        "label": "baseFeeLMAToken",
        "offset": 0,
        "slot": "11",
        "type": "t_contract(IBaseFeeLMAToken)13848"
      },
      {
        "astId": 1643,
        "contract": "contracts/BorrowerOperations.sol:BorrowerOperations",
        "label": "sortedTroves",
        "offset": 0,
        "slot": "12",
        "type": "t_contract(ISortedTroves)14521"
      }
    ],
    "types": {
      "t_address": {
        "encoding": "inplace",
        "label": "address",
        "numberOfBytes": "20"
      },
      "t_contract(IActivePool)13784": {
        "encoding": "inplace",
        "label": "contract IActivePool",
        "numberOfBytes": "20"
      },
      "t_contract(IBaseFeeLMAToken)13848": {
        "encoding": "inplace",
        "label": "contract IBaseFeeLMAToken",
        "numberOfBytes": "20"
      },
      "t_contract(ICollSurplusPool)14090": {
        "encoding": "inplace",
        "label": "contract ICollSurplusPool",
        "numberOfBytes": "20"
      },
      "t_contract(IDefaultPool)14147": {
        "encoding": "inplace",
        "label": "contract IDefaultPool",
        "numberOfBytes": "20"
      },
      "t_contract(IERC20)190": {
        "encoding": "inplace",
        "label": "contract IERC20",
        "numberOfBytes": "20"
      },
      "t_contract(IHOGStaking)14257": {
        "encoding": "inplace",
        "label": "contract IHOGStaking",
        "numberOfBytes": "20"
      },
      "t_contract(IPriceFeed)14389": {
        "encoding": "inplace",
        "label": "contract IPriceFeed",
        "numberOfBytes": "20"
      },
      "t_contract(ISortedTroves)14521": {
        "encoding": "inplace",
        "label": "contract ISortedTroves",
        "numberOfBytes": "20"
      },
      "t_contract(ITroveManager)15141": {
        "encoding": "inplace",
        "label": "contract ITroveManager",
        "numberOfBytes": "20"
      }
    }
  }
}