{
  "address": "0x3928aC32C3b3c764cE3367Cbd3e7596b457acdbe",
  "abi": [
    {
      "anonymous": false,
      "inputs": [
        {
          "indexed": false,
          "internalType": "address",
          "name": "_hogTokenAddress",
          "type": "address"
        }
      ],
      "name": "HOGTokenAddressChanged",
      "type": "event"
    },
    {
      "anonymous": false,
      "inputs": [
        {
          "indexed": true,
          "internalType": "address",
          "name": "previousOwner",
          "type": "address"
        },
        {
          "indexed": true,
          "internalType": "address",
          "name": "newOwner",
          "type": "address"
        }
      ],
      "name": "OwnershipTransferred",
      "type": "event"
    },
    {
      "anonymous": false,
      "inputs": [
        {
          "indexed": false,
          "internalType": "uint256",
          "name": "reward",
          "type": "uint256"
        }
      ],
      "name": "RewardAdded",
      "type": "event"
    },
    {
      "anonymous": false,
      "inputs": [
        {
          "indexed": true,
          "internalType": "address",
          "name": "user",
          "type": "address"
        },
        {
          "indexed": false,
          "internalType": "uint256",
          "name": "reward",
          "type": "uint256"
        }
      ],
      "name": "RewardPaid",
      "type": "event"
    },
    {
      "anonymous": false,
      "inputs": [
        {
          "indexed": true,
          "internalType": "address",
          "name": "user",
          "type": "address"
        },
        {
          "indexed": false,
          "internalType": "uint256",
          "name": "amount",
          "type": "uint256"
        }
      ],
      "name": "Staked",
      "type": "event"
    },
    {
      "anonymous": false,
      "inputs": [
        {
          "indexed": false,
          "internalType": "address",
          "name": "_uniTokenAddress",
          "type": "address"
        }
      ],
      "name": "UniTokenAddressChanged",
      "type": "event"
    },
    {
      "anonymous": false,
      "inputs": [
        {
          "indexed": true,
          "internalType": "address",
          "name": "user",
          "type": "address"
        },
        {
          "indexed": false,
          "internalType": "uint256",
          "name": "amount",
          "type": "uint256"
        }
      ],
      "name": "Withdrawn",
      "type": "event"
    },
    {
      "inputs": [],
      "name": "NAME",
      "outputs": [
        {
          "internalType": "string",
          "name": "",
          "type": "string"
        }
      ],
      "stateMutability": "view",
      "type": "function"
    },
    {
      "inputs": [
        {
          "internalType": "address",
          "name": "account",
          "type": "address"
        }
      ],
      "name": "balanceOf",
      "outputs": [
        {
          "internalType": "uint256",
          "name": "",
          "type": "uint256"
        }
      ],
      "stateMutability": "view",
      "type": "function"
    },
    {
      "inputs": [],
      "name": "claimReward",
      "outputs": [],
      "stateMutability": "nonpayable",
      "type": "function"
    },
    {
      "inputs": [],
      "name": "duration",
      "outputs": [
        {
          "internalType": "uint256",
          "name": "",
          "type": "uint256"
        }
      ],
      "stateMutability": "view",
      "type": "function"
    },
    {
      "inputs": [
        {
          "internalType": "address",
          "name": "account",
          "type": "address"
        }
      ],
      "name": "earned",
      "outputs": [
        {
          "internalType": "uint256",
          "name": "",
          "type": "uint256"
        }
      ],
      "stateMutability": "view",
      "type": "function"
    },
    {
      "inputs": [],
      "name": "hogToken",
      "outputs": [
        {
          "internalType": "contract IHOGToken",
          "name": "",
          "type": "address"
        }
      ],
      "stateMutability": "view",
      "type": "function"
    },
    {
      "inputs": [],
      "name": "lastTimeRewardApplicable",
      "outputs": [
        {
          "internalType": "uint256",
          "name": "",
          "type": "uint256"
        }
      ],
      "stateMutability": "view",
      "type": "function"
    },
    {
      "inputs": [],
      "name": "lastUpdateTime",
      "outputs": [
        {
          "internalType": "uint256",
          "name": "",
          "type": "uint256"
        }
      ],
      "stateMutability": "view",
      "type": "function"
    },
    {
      "inputs": [],
      "name": "owner",
      "outputs": [
        {
          "internalType": "address",
          "name": "",
          "type": "address"
        }
      ],
      "stateMutability": "view",
      "type": "function"
    },
    {
      "inputs": [],
      "name": "periodFinish",
      "outputs": [
        {
          "internalType": "uint256",
          "name": "",
          "type": "uint256"
        }
      ],
      "stateMutability": "view",
      "type": "function"
    },
    {
      "inputs": [],
      "name": "renounceOwnership",
      "outputs": [],
      "stateMutability": "nonpayable",
      "type": "function"
    },
    {
      "inputs": [],
      "name": "rewardPerToken",
      "outputs": [
        {
          "internalType": "uint256",
          "name": "",
          "type": "uint256"
        }
      ],
      "stateMutability": "view",
      "type": "function"
    },
    {
      "inputs": [],
      "name": "rewardPerTokenStored",
      "outputs": [
        {
          "internalType": "uint256",
          "name": "",
          "type": "uint256"
        }
      ],
      "stateMutability": "view",
      "type": "function"
    },
    {
      "inputs": [],
      "name": "rewardRate",
      "outputs": [
        {
          "internalType": "uint256",
          "name": "",
          "type": "uint256"
        }
      ],
      "stateMutability": "view",
      "type": "function"
    },
    {
      "inputs": [
        {
          "internalType": "address",
          "name": "",
          "type": "address"
        }
      ],
      "name": "rewards",
      "outputs": [
        {
          "internalType": "uint256",
          "name": "",
          "type": "uint256"
        }
      ],
      "stateMutability": "view",
      "type": "function"
    },
    {
      "inputs": [
        {
          "internalType": "address",
          "name": "_hogTokenAddress",
          "type": "address"
        },
        {
          "internalType": "address",
          "name": "_uniTokenAddress",
          "type": "address"
        },
        {
          "internalType": "uint256",
          "name": "_duration",
          "type": "uint256"
        }
      ],
      "name": "setParams",
      "outputs": [],
      "stateMutability": "nonpayable",
      "type": "function"
    },
    {
      "inputs": [
        {
          "internalType": "uint256",
          "name": "amount",
          "type": "uint256"
        }
      ],
      "name": "stake",
      "outputs": [],
      "stateMutability": "nonpayable",
      "type": "function"
    },
    {
      "inputs": [],
      "name": "totalSupply",
      "outputs": [
        {
          "internalType": "uint256",
          "name": "",
          "type": "uint256"
        }
      ],
      "stateMutability": "view",
      "type": "function"
    },
    {
      "inputs": [
        {
          "internalType": "address",
          "name": "newOwner",
          "type": "address"
        }
      ],
      "name": "transferOwnership",
      "outputs": [],
      "stateMutability": "nonpayable",
      "type": "function"
    },
    {
      "inputs": [],
      "name": "uniToken",
      "outputs": [
        {
          "internalType": "contract IERC20",
          "name": "",
          "type": "address"
        }
      ],
      "stateMutability": "view",
      "type": "function"
    },
    {
      "inputs": [
        {
          "internalType": "address",
          "name": "",
          "type": "address"
        }
      ],
      "name": "userRewardPerTokenPaid",
      "outputs": [
        {
          "internalType": "uint256",
          "name": "",
          "type": "uint256"
        }
      ],
      "stateMutability": "view",
      "type": "function"
    },
    {
      "inputs": [
        {
          "internalType": "uint256",
          "name": "amount",
          "type": "uint256"
        }
      ],
      "name": "withdraw",
      "outputs": [],
      "stateMutability": "nonpayable",
      "type": "function"
    },
    {
      "inputs": [],
      "name": "withdrawAndClaim",
      "outputs": [],
      "stateMutability": "nonpayable",
      "type": "function"
    }
  ],
  "transactionHash": "0xc822077fa24bff572e238b69eec9dfead0b8f5f401c6ff46425f574f4e458a89",
  "args": [],
  "numDeployments": 1,
  "solcInputHash": "9fd7ce46056f9dbbdbc9fadd31443eff",
  "bytecode": "0x60806040526000600655600060075534801561001a57600080fd5b5061002433610029565b61007b565b600380546001600160a01b038381166001600160a01b0319831681179093556040519116919082907f8be0079c531659141344cd1fd0a4f28419497f9722a3daafe3b4186f6b6457e090600090a35050565b6111b68061008a6000396000f3fe608060405234801561001057600080fd5b506004361061014c5760003560e01c806385ce4fee116100c3578063c8f33c911161007c578063c8f33c91146102ae578063cd3daf9d146102b7578063d4437724146102bf578063df136d65146102c7578063ebe2b12b146102d0578063f2fde38b146102d957600080fd5b806385ce4fee1461021c5780638b8763471461022f5780638da5cb5b1461024f578063a3f4df7e14610260578063a694fc3a14610293578063b88a802f146102a657600080fd5b8063509db2f611610115578063509db2f6146101bd578063570dc45e146101d057806370a08231146101f0578063715018a6146102035780637b0a47ee1461020b57806380faa57d1461021457600080fd5b80628cc262146101515780630700037d146101775780630fb5a6b41461019757806318160ddd146101a05780632e1a7d4d146101a8575b600080fd5b61016461015f366004610f7a565b6102ec565b6040519081526020015b60405180910390f35b610164610185366004610f7a565b600b6020526000908152604090205481565b61016460045481565b600154610164565b6101bb6101b6366004610f95565b61035a565b005b6101bb6101cb366004610fae565b610416565b6005546101e3906001600160a01b031681565b60405161016e9190610fea565b6101646101fe366004610f7a565b610545565b6101bb610560565b61016460075481565b610164610574565b6000546101e3906001600160a01b031681565b61016461023d366004610f7a565b600a6020526000908152604090205481565b6003546001600160a01b03166101e3565b61028660405180604001604052806007815260200166155b9a5c1bdbdb60ca1b81525081565b60405161016e9190611022565b6101bb6102a1366004610f95565b610587565b6101bb61063c565b61016460085481565b610164610780565b6101bb6107d1565b61016460095481565b61016460065481565b6101bb6102e7366004610f7a565b6107e5565b6001600160a01b0381166000908152600b6020908152604080832054600a909252822054610354919061034e90670de0b6b3a7640000906103489061033990610333610780565b9061085e565b61034288610545565b90610871565b9061087d565b90610889565b92915050565b600081116103a35760405162461bcd60e51b8152602060048201526011602482015270043616e6e6f74207769746864726177203607c1b60448201526064015b60405180910390fd5b6000546001600160a01b03166103cb5760405162461bcd60e51b815260040161039a90611055565b6103d433610895565b6103dd816108ea565b60405181815233907f7084f5476618d8e60b11ef0d7d3f06914655adb8793e28ff7f018d4c76d505d5906020015b60405180910390a250565b61041e61093f565b61042783610999565b61043082610999565b600080546001600160a01b038085166001600160a01b031992831617909255600580549286169290911682179055600482815560408051630974f55960e41b815290516104ca939263974f5590928082019260209290918290030181865afa1580156104a0573d6000803e3d6000fd5b505050506040513d601f19601f820116820180604052508101906104c4919061109e565b82610a42565b7f0d32e4ef3d389440323b172cfc07c6c01bdd1d3e8334379048eec21e8d919b77836040516104f99190610fea565b60405180910390a17f15cb6984f76cb781da2b25c2024a3eaf5011914976381f844e09724cc9e21e94826040516105309190610fea565b60405180910390a1610540610560565b505050565b6001600160a01b031660009081526002602052604090205490565b61056861093f565b6105726000610b40565b565b600061058242600654610b92565b905090565b600081116105c85760405162461bcd60e51b815260206004820152600e60248201526d043616e6e6f74207374616b6520360941b604482015260640161039a565b6000546001600160a01b03166105f05760405162461bcd60e51b815260040161039a90611055565b6105f8610ba8565b61060133610895565b61060a81610bea565b60405181815233907f9e71bc8eea02a63969f509818f2dafb9254532904319f9dbda79b67bd34a5f3d9060200161040b565b6000546001600160a01b03166106645760405162461bcd60e51b815260040161039a90611055565b61066c610ba8565b61067533610895565b6000610680336102ec565b9050600081116106c55760405162461bcd60e51b815260206004820152601060248201526f4e6f7468696e6720746f20636c61696d60801b604482015260640161039a565b336000818152600b602052604080822091909155600554905163a9059cbb60e01b81526004810192909252602482018390526001600160a01b03169063a9059cbb906044016020604051808303816000875af1158015610729573d6000803e3d6000fd5b505050506040513d601f19601f8201168201806040525081019061074d91906110b7565b5060405181815233907fe2403640ba68fed3a2f88b7557551d1993f84b99bb10ff833f0cf8db0c5e04869060200161040b565b600061078b60015490565b600003610799575060095490565b6105826107c86107a860015490565b610348670de0b6b3a7640000610342600754610342600854610333610574565b60095490610889565b6107dd6101b633610545565b61057261063c565b6107ed61093f565b6001600160a01b0381166108525760405162461bcd60e51b815260206004820152602660248201527f4f776e61626c653a206e6577206f776e657220697320746865207a65726f206160448201526564647265737360d01b606482015260840161039a565b61085b81610b40565b50565b600061086a82846110ef565b9392505050565b600061086a8284611102565b600061086a8284611119565b600061086a828461113b565b61089d610c40565b6001600160a01b0381166108b3576108b361114e565b6108bc816102ec565b6001600160a01b039091166000908152600b6020908152604080832093909355600954600a90915291902055565b6001546108f7908261085e565b60015533600090815260026020526040902054610914908261085e565b33600081815260026020526040812092909255905461085b916001600160a01b039091169083610c58565b6003546001600160a01b031633146105725760405162461bcd60e51b815260206004820181905260248201527f4f776e61626c653a2063616c6c6572206973206e6f7420746865206f776e6572604482015260640161039a565b6001600160a01b0381166109ef5760405162461bcd60e51b815260206004820152601e60248201527f4163636f756e742063616e6e6f74206265207a65726f20616464726573730000604482015260640161039a565b803b80610a3e5760405162461bcd60e51b815260206004820181905260248201527f4163636f756e7420636f64652073697a652063616e6e6f74206265207a65726f604482015260640161039a565b5050565b60008211610a5257610a5261114e565b6005546040516370a0823160e01b81526001600160a01b03909116906370a0823190610a82903090600401610fea565b602060405180830381865afa158015610a9f573d6000803e3d6000fd5b505050506040513d601f19601f82011682018060405250810190610ac3919061109e565b8214610ad157610ad161114e565b60065415610ae157610ae161114e565b610ae9610c40565b610af3828261087d565b600755426008819055610b069082610889565b6006556040518281527fde88a922e0d3b88b24e9623efeb464919c6bf9f66857a65e2bfcf2ce87a9433d9060200160405180910390a15050565b600380546001600160a01b038381166001600160a01b0319831681179093556040519116919082907f8be0079c531659141344cd1fd0a4f28419497f9722a3daafe3b4186f6b6457e090600090a35050565b6000818310610ba1578161086a565b5090919050565b60015460000361057257600060065411610bc457610bc461114e565b610be5610bdc6008544261085e90919063ffffffff16565b60065490610889565b600655565b600154610bf79082610889565b60015533600090815260026020526040902054610c149082610889565b33600081815260026020526040812092909255905461085b916001600160a01b03909116903084610cbb565b610c48610780565b600955610c53610574565b600855565b6040516001600160a01b03831660248201526044810182905261054090849063a9059cbb60e01b906064015b60408051601f198184030181529190526020810180516001600160e01b03166001600160e01b031990931692909217909152610cf9565b6040516001600160a01b0380851660248301528316604482015260648101829052610cf39085906323b872dd60e01b90608401610c84565b50505050565b6000610d4e826040518060400160405280602081526020017f5361666545524332303a206c6f772d6c6576656c2063616c6c206661696c6564815250856001600160a01b0316610dce9092919063ffffffff16565b9050805160001480610d6f575080806020019051810190610d6f91906110b7565b6105405760405162461bcd60e51b815260206004820152602a60248201527f5361666545524332303a204552433230206f7065726174696f6e20646964206e6044820152691bdd081cdd58d8d9595960b21b606482015260840161039a565b6060610ddd8484600085610de5565b949350505050565b606082471015610e465760405162461bcd60e51b815260206004820152602660248201527f416464726573733a20696e73756666696369656e742062616c616e636520666f6044820152651c8818d85b1b60d21b606482015260840161039a565b600080866001600160a01b03168587604051610e629190611164565b60006040518083038185875af1925050503d8060008114610e9f576040519150601f19603f3d011682016040523d82523d6000602084013e610ea4565b606091505b5091509150610eb587838387610ec0565b979650505050505050565b60608315610f2f578251600003610f28576001600160a01b0385163b610f285760405162461bcd60e51b815260206004820152601d60248201527f416464726573733a2063616c6c20746f206e6f6e2d636f6e7472616374000000604482015260640161039a565b5081610ddd565b610ddd8383815115610f445781518083602001fd5b8060405162461bcd60e51b815260040161039a9190611022565b80356001600160a01b0381168114610f7557600080fd5b919050565b600060208284031215610f8c57600080fd5b61086a82610f5e565b600060208284031215610fa757600080fd5b5035919050565b600080600060608486031215610fc357600080fd5b610fcc84610f5e565b9250610fda60208501610f5e565b9150604084013590509250925092565b6001600160a01b0391909116815260200190565b60005b83811015611019578181015183820152602001611001565b50506000910152565b6020815260008251806020840152611041816040850160208701610ffe565b601f01601f19169190910160400192915050565b60208082526029908201527f4c697175696469747920506f6f6c20546f6b656e20686173206e6f74206265656040820152681b881cd95d081e595d60ba1b606082015260800190565b6000602082840312156110b057600080fd5b5051919050565b6000602082840312156110c957600080fd5b8151801515811461086a57600080fd5b634e487b7160e01b600052601160045260246000fd5b81810381811115610354576103546110d9565b8082028115828204841417610354576103546110d9565b60008261113657634e487b7160e01b600052601260045260246000fd5b500490565b80820180821115610354576103546110d9565b634e487b7160e01b600052600160045260246000fd5b60008251611176818460208701610ffe565b919091019291505056fea26469706673582212205ed9a8eba636acdbde4ee9bacde9e09aab4eebc93b170809e234d5ee27f3351c64736f6c63430008130033",
  "devdoc": {
    "kind": "dev",
    "methods": {
      "owner()": {
        "details": "Returns the address of the current owner."
      },
      "renounceOwnership()": {
        "details": "Leaves the contract without owner. It will not be possible to call `onlyOwner` functions. Can only be called by the current owner. NOTE: Renouncing ownership will leave the contract without an owner, thereby disabling any functionality that is only available to the owner."
      },
      "transferOwnership(address)": {
        "details": "Transfers ownership of the contract to a new account (`newOwner`). Can only be called by the current owner."
      }
    },
    "version": 1
  },
  "userdoc": {
    "kind": "user",
    "methods": {},
    "version": 1
  },
  "storageLayout": {
    "storage": [
      {
        "astId": 4908,
        "contract": "contracts/LPRewards/Unipool.sol:Unipool",
        "label": "uniToken",
        "offset": 0,
        "slot": "0",
        "type": "t_contract(IERC20)190"
      },
      {
        "astId": 4910,
        "contract": "contracts/LPRewards/Unipool.sol:Unipool",
        "label": "_totalSupply",
        "offset": 0,
        "slot": "1",
        "type": "t_uint256"
      },
      {
        "astId": 4914,
        "contract": "contracts/LPRewards/Unipool.sol:Unipool",
        "label": "_balances",
        "offset": 0,
        "slot": "2",
        "type": "t_mapping(t_address,t_uint256)"
      },
      {
        "astId": 7,
        "contract": "contracts/LPRewards/Unipool.sol:Unipool",
        "label": "_owner",
        "offset": 0,
        "slot": "3",
        "type": "t_address"
      },
      {
        "astId": 5021,
        "contract": "contracts/LPRewards/Unipool.sol:Unipool",
        "label": "duration",
        "offset": 0,
        "slot": "4",
        "type": "t_uint256"
      },
      {
        "astId": 5024,
        "contract": "contracts/LPRewards/Unipool.sol:Unipool",
        "label": "hogToken",
        "offset": 0,
        "slot": "5",
        "type": "t_contract(IHOGToken)17309"
      },
      {
        "astId": 5027,
        "contract": "contracts/LPRewards/Unipool.sol:Unipool",
        "label": "periodFinish",
        "offset": 0,
        "slot": "6",
        "type": "t_uint256"
      },
      {
        "astId": 5030,
        "contract": "contracts/LPRewards/Unipool.sol:Unipool",
        "label": "rewardRate",
        "offset": 0,
        "slot": "7",
        "type": "t_uint256"
      },
      {
        "astId": 5032,
        "contract": "contracts/LPRewards/Unipool.sol:Unipool",
        "label": "lastUpdateTime",
        "offset": 0,
        "slot": "8",
        "type": "t_uint256"
      },
      {
        "astId": 5034,
        "contract": "contracts/LPRewards/Unipool.sol:Unipool",
        "label": "rewardPerTokenStored",
        "offset": 0,
        "slot": "9",
        "type": "t_uint256"
      },
      {
        "astId": 5038,
        "contract": "contracts/LPRewards/Unipool.sol:Unipool",
        "label": "userRewardPerTokenPaid",
        "offset": 0,
        "slot": "10",
        "type": "t_mapping(t_address,t_uint256)"
      },
      {
        "astId": 5042,
        "contract": "contracts/LPRewards/Unipool.sol:Unipool",
        "label": "rewards",
        "offset": 0,
        "slot": "11",
        "type": "t_mapping(t_address,t_uint256)"
      }
    ],
    "types": {
      "t_address": {
        "encoding": "inplace",
        "label": "address",
        "numberOfBytes": "20"
      },
      "t_contract(IERC20)190": {
        "encoding": "inplace",
        "label": "contract IERC20",
        "numberOfBytes": "20"
      },
      "t_contract(IHOGToken)17309": {
        "encoding": "inplace",
        "label": "contract IHOGToken",
        "numberOfBytes": "20"
      },
      "t_mapping(t_address,t_uint256)": {
        "encoding": "mapping",
        "key": "t_address",
        "label": "mapping(address => uint256)",
        "numberOfBytes": "32",
        "value": "t_uint256"
      },
      "t_uint256": {
        "encoding": "inplace",
        "label": "uint256",
        "numberOfBytes": "32"
      }
    }
  }
}