{
  "address": "0xD2c104F85EAbAb3F5c4efcaF7E8aa326f171eA10",
  "abi": [
    {
      "inputs": [],
      "name": "TroveAdjustedThisBlock",
      "type": "error"
    },
    {
      "anonymous": false,
      "inputs": [
        {
          "indexed": false,
          "internalType": "address",
          "name": "_activePoolAddress",
          "type": "address"
        }
      ],
      "name": "ActivePoolAddressChanged",
      "type": "event"
    },
    {
      "anonymous": false,
      "inputs": [
        {
          "indexed": true,
          "internalType": "address",
          "name": "_borrower",
          "type": "address"
        },
        {
          "indexed": false,
          "internalType": "uint256",
          "name": "_BaseFeeLMAFee",
          "type": "uint256"
        }
      ],
      "name": "BaseFeeLMABorrowingFeePaid",
      "type": "event"
    },
    {
      "anonymous": false,
      "inputs": [
        {
          "indexed": false,
          "internalType": "address",
          "name": "_BaseFeeLMATokenAddress",
          "type": "address"
        }
      ],
      "name": "BaseFeeLMATokenAddressChanged",
      "type": "event"
    },
    {
      "anonymous": false,
      "inputs": [
        {
          "indexed": false,
          "internalType": "address",
          "name": "_collSurplusPoolAddress",
          "type": "address"
        }
      ],
      "name": "CollSurplusPoolAddressChanged",
      "type": "event"
    },
    {
      "anonymous": false,
      "inputs": [
        {
          "indexed": false,
          "internalType": "address",
          "name": "_defaultPoolAddress",
          "type": "address"
        }
      ],
      "name": "DefaultPoolAddressChanged",
      "type": "event"
    },
    {
      "anonymous": false,
      "inputs": [
        {
          "indexed": false,
          "internalType": "contract IFeesRouter",
          "name": "_feesRouter",
          "type": "address"
        }
      ],
      "name": "FeesRouterAddressUpdated",
      "type": "event"
    },
    {
      "anonymous": false,
      "inputs": [
        {
          "indexed": false,
          "internalType": "address",
          "name": "_gasPoolAddress",
          "type": "address"
        }
      ],
      "name": "GasPoolAddressChanged",
      "type": "event"
    },
    {
      "anonymous": false,
      "inputs": [
        {
          "indexed": true,
          "internalType": "address",
          "name": "previousOwner",
          "type": "address"
        },
        {
          "indexed": true,
          "internalType": "address",
          "name": "newOwner",
          "type": "address"
        }
      ],
      "name": "OwnershipTransferred",
      "type": "event"
    },
    {
      "anonymous": false,
      "inputs": [
        {
          "indexed": false,
          "internalType": "address",
          "name": "_newPriceFeedAddress",
          "type": "address"
        }
      ],
      "name": "PriceFeedAddressChanged",
      "type": "event"
    },
    {
      "anonymous": false,
      "inputs": [
        {
          "indexed": false,
          "internalType": "address",
          "name": "_sortedTrovesAddress",
          "type": "address"
        }
      ],
      "name": "SortedTrovesAddressChanged",
      "type": "event"
    },
    {
      "anonymous": false,
      "inputs": [
        {
          "indexed": false,
          "internalType": "address",
          "name": "_stabilityPoolAddress",
          "type": "address"
        }
      ],
      "name": "StabilityPoolAddressChanged",
      "type": "event"
    },
    {
      "anonymous": false,
      "inputs": [
        {
          "indexed": true,
          "internalType": "address",
          "name": "_borrower",
          "type": "address"
        },
        {
          "indexed": false,
          "internalType": "uint256",
          "name": "arrayIndex",
          "type": "uint256"
        }
      ],
      "name": "TroveCreated",
      "type": "event"
    },
    {
      "anonymous": false,
      "inputs": [
        {
          "indexed": false,
          "internalType": "address",
          "name": "_newTroveManagerAddress",
          "type": "address"
        }
      ],
      "name": "TroveManagerAddressChanged",
      "type": "event"
    },
    {
      "anonymous": false,
      "inputs": [
        {
          "indexed": true,
          "internalType": "address",
          "name": "_borrower",
          "type": "address"
        },
        {
          "indexed": false,
          "internalType": "uint256",
          "name": "_debt",
          "type": "uint256"
        },
        {
          "indexed": false,
          "internalType": "uint256",
          "name": "_coll",
          "type": "uint256"
        },
        {
          "indexed": false,
          "internalType": "uint256",
          "name": "stake",
          "type": "uint256"
        },
        {
          "indexed": false,
          "internalType": "enum BorrowerOperations.BorrowerOperation",
          "name": "operation",
          "type": "uint8"
        }
      ],
      "name": "TroveUpdated",
      "type": "event"
    },
    {
      "anonymous": false,
      "inputs": [
        {
          "indexed": false,
          "internalType": "contract IERC20",
          "name": "_WStEthAddress",
          "type": "address"
        }
      ],
      "name": "WStETHTokenAddressUpdated",
      "type": "event"
    },
    {
      "inputs": [],
      "name": "BORROWING_FEE_FLOOR",
      "outputs": [
        {
          "internalType": "uint256",
          "name": "",
          "type": "uint256"
        }
      ],
      "stateMutability": "view",
      "type": "function"
    },
    {
      "inputs": [],
      "name": "BaseFeeLMA_GAS_COMPENSATION",
      "outputs": [
        {
          "internalType": "uint256",
          "name": "",
          "type": "uint256"
        }
      ],
      "stateMutability": "view",
      "type": "function"
    },
    {
      "inputs": [],
      "name": "CCR",
      "outputs": [
        {
          "internalType": "uint256",
          "name": "",
          "type": "uint256"
        }
      ],
      "stateMutability": "view",
      "type": "function"
    },
    {
      "inputs": [],
      "name": "DECIMAL_PRECISION",
      "outputs": [
        {
          "internalType": "uint256",
          "name": "",
          "type": "uint256"
        }
      ],
      "stateMutability": "view",
      "type": "function"
    },
    {
      "inputs": [],
      "name": "MCR",
      "outputs": [
        {
          "internalType": "uint256",
          "name": "",
          "type": "uint256"
        }
      ],
      "stateMutability": "view",
      "type": "function"
    },
    {
      "inputs": [],
      "name": "MIN_NET_DEBT",
      "outputs": [
        {
          "internalType": "uint256",
          "name": "",
          "type": "uint256"
        }
      ],
      "stateMutability": "view",
      "type": "function"
    },
    {
      "inputs": [],
      "name": "NAME",
      "outputs": [
        {
          "internalType": "string",
          "name": "",
          "type": "string"
        }
      ],
      "stateMutability": "view",
      "type": "function"
    },
    {
      "inputs": [],
      "name": "PERCENT_DIVISOR",
      "outputs": [
        {
          "internalType": "uint256",
          "name": "",
          "type": "uint256"
        }
      ],
      "stateMutability": "view",
      "type": "function"
    },
    {
      "inputs": [],
      "name": "_100pct",
      "outputs": [
        {
          "internalType": "uint256",
          "name": "",
          "type": "uint256"
        }
      ],
      "stateMutability": "view",
      "type": "function"
    },
    {
      "inputs": [],
      "name": "activePool",
      "outputs": [
        {
          "internalType": "contract IActivePool",
          "name": "",
          "type": "address"
        }
      ],
      "stateMutability": "view",
      "type": "function"
    },
    {
      "inputs": [
        {
          "internalType": "address",
          "name": "_upperHint",
          "type": "address"
        },
        {
          "internalType": "address",
          "name": "_lowerHint",
          "type": "address"
        },
        {
          "internalType": "uint256",
          "name": "_amount",
          "type": "uint256"
        }
      ],
      "name": "addColl",
      "outputs": [],
      "stateMutability": "nonpayable",
      "type": "function"
    },
    {
      "inputs": [
        {
          "internalType": "uint256",
          "name": "_maxFeePercentage",
          "type": "uint256"
        },
        {
          "internalType": "uint256",
          "name": "_collWithdrawal",
          "type": "uint256"
        },
        {
          "internalType": "uint256",
          "name": "_collIncrease",
          "type": "uint256"
        },
        {
          "internalType": "uint256",
          "name": "_BaseFeeLMAChange",
          "type": "uint256"
        },
        {
          "internalType": "bool",
          "name": "_isDebtIncrease",
          "type": "bool"
        },
        {
          "internalType": "address",
          "name": "_upperHint",
          "type": "address"
        },
        {
          "internalType": "address",
          "name": "_lowerHint",
          "type": "address"
        }
      ],
      "name": "adjustTrove",
      "outputs": [],
      "stateMutability": "nonpayable",
      "type": "function"
    },
    {
      "inputs": [],
      "name": "claimCollateral",
      "outputs": [],
      "stateMutability": "nonpayable",
      "type": "function"
    },
    {
      "inputs": [],
      "name": "closeTrove",
      "outputs": [],
      "stateMutability": "nonpayable",
      "type": "function"
    },
    {
      "inputs": [
        {
          "internalType": "uint256",
          "name": "_coll",
          "type": "uint256"
        },
        {
          "internalType": "uint256",
          "name": "_debt",
          "type": "uint256"
        }
      ],
      "name": "computeUnreliableCR",
      "outputs": [
        {
          "internalType": "uint256",
          "name": "",
          "type": "uint256"
        }
      ],
      "stateMutability": "view",
      "type": "function"
    },
    {
      "inputs": [],
      "name": "defaultPool",
      "outputs": [
        {
          "internalType": "contract IDefaultPool",
          "name": "",
          "type": "address"
        }
      ],
      "stateMutability": "view",
      "type": "function"
    },
    {
      "inputs": [],
      "name": "feesRouter",
      "outputs": [
        {
          "internalType": "contract IFeesRouter",
          "name": "",
          "type": "address"
        }
      ],
      "stateMutability": "view",
      "type": "function"
    },
    {
      "inputs": [
        {
          "internalType": "uint256",
          "name": "_debt",
          "type": "uint256"
        }
      ],
      "name": "getCompositeDebt",
      "outputs": [
        {
          "internalType": "uint256",
          "name": "",
          "type": "uint256"
        }
      ],
      "stateMutability": "pure",
      "type": "function"
    },
    {
      "inputs": [],
      "name": "getEntireSystemColl",
      "outputs": [
        {
          "internalType": "uint256",
          "name": "entireSystemColl",
          "type": "uint256"
        }
      ],
      "stateMutability": "view",
      "type": "function"
    },
    {
      "inputs": [],
      "name": "getEntireSystemDebt",
      "outputs": [
        {
          "internalType": "uint256",
          "name": "entireSystemDebt",
          "type": "uint256"
        }
      ],
      "stateMutability": "view",
      "type": "function"
    },
    {
      "inputs": [
        {
          "internalType": "address",
          "name": "_borrower",
          "type": "address"
        },
        {
          "internalType": "address",
          "name": "_upperHint",
          "type": "address"
        },
        {
          "internalType": "address",
          "name": "_lowerHint",
          "type": "address"
        },
        {
          "internalType": "uint256",
          "name": "_amount",
          "type": "uint256"
        }
      ],
      "name": "moveWStETHGainToTrove",
      "outputs": [],
      "stateMutability": "nonpayable",
      "type": "function"
    },
    {
      "inputs": [
        {
          "internalType": "uint256",
          "name": "_maxFeePercentage",
          "type": "uint256"
        },
        {
          "internalType": "uint256",
          "name": "_BaseFeeLMAAmount",
          "type": "uint256"
        },
        {
          "internalType": "uint256",
          "name": "_collAmount",
          "type": "uint256"
        },
        {
          "internalType": "address",
          "name": "_upperHint",
          "type": "address"
        },
        {
          "internalType": "address",
          "name": "_lowerHint",
          "type": "address"
        }
      ],
      "name": "openTrove",
      "outputs": [],
      "stateMutability": "nonpayable",
      "type": "function"
    },
    {
      "inputs": [],
      "name": "owner",
      "outputs": [
        {
          "internalType": "address",
          "name": "",
          "type": "address"
        }
      ],
      "stateMutability": "view",
      "type": "function"
    },
    {
      "inputs": [],
      "name": "priceFeed",
      "outputs": [
        {
          "internalType": "contract IPriceFeed",
          "name": "",
          "type": "address"
        }
      ],
      "stateMutability": "view",
      "type": "function"
    },
    {
      "inputs": [],
      "name": "renounceOwnership",
      "outputs": [],
      "stateMutability": "nonpayable",
      "type": "function"
    },
    {
      "inputs": [
        {
          "internalType": "uint256",
          "name": "_BaseFeeLMAAmount",
          "type": "uint256"
        },
        {
          "internalType": "address",
          "name": "_upperHint",
          "type": "address"
        },
        {
          "internalType": "address",
          "name": "_lowerHint",
          "type": "address"
        }
      ],
      "name": "repayBaseFeeLMA",
      "outputs": [],
      "stateMutability": "nonpayable",
      "type": "function"
    },
    {
      "inputs": [
        {
          "internalType": "address",
          "name": "_troveManagerAddress",
          "type": "address"
        },
        {
          "internalType": "address",
          "name": "_activePoolAddress",
          "type": "address"
        },
        {
          "internalType": "address",
          "name": "_defaultPoolAddress",
          "type": "address"
        },
        {
          "internalType": "address",
          "name": "_stabilityPoolAddress",
          "type": "address"
        },
        {
          "internalType": "address",
          "name": "_gasPoolAddress",
          "type": "address"
        },
        {
          "internalType": "address",
          "name": "_collSurplusPoolAddress",
          "type": "address"
        },
        {
          "internalType": "address",
          "name": "_priceFeedAddress",
          "type": "address"
        },
        {
          "internalType": "address",
          "name": "_sortedTrovesAddress",
          "type": "address"
        },
        {
          "internalType": "address",
          "name": "_baseFeeLMATokenAddress",
          "type": "address"
        },
        {
          "internalType": "contract IERC20",
          "name": "_wStETHTokenAddress",
          "type": "address"
        },
        {
          "internalType": "contract IFeesRouter",
          "name": "_feesRouter",
          "type": "address"
        }
      ],
      "name": "setAddresses",
      "outputs": [],
      "stateMutability": "nonpayable",
      "type": "function"
    },
    {
      "inputs": [],
      "name": "sortedTroves",
      "outputs": [
        {
          "internalType": "contract ISortedTroves",
          "name": "",
          "type": "address"
        }
      ],
      "stateMutability": "view",
      "type": "function"
    },
    {
      "inputs": [
        {
          "internalType": "address",
          "name": "newOwner",
          "type": "address"
        }
      ],
      "name": "transferOwnership",
      "outputs": [],
      "stateMutability": "nonpayable",
      "type": "function"
    },
    {
      "inputs": [],
      "name": "troveManager",
      "outputs": [
        {
          "internalType": "contract ITroveManager",
          "name": "",
          "type": "address"
        }
      ],
      "stateMutability": "view",
      "type": "function"
    },
    {
      "inputs": [
        {
          "internalType": "uint256",
          "name": "_maxFeePercentage",
          "type": "uint256"
        },
        {
          "internalType": "uint256",
          "name": "_BaseFeeLMAAmount",
          "type": "uint256"
        },
        {
          "internalType": "address",
          "name": "_upperHint",
          "type": "address"
        },
        {
          "internalType": "address",
          "name": "_lowerHint",
          "type": "address"
        }
      ],
      "name": "withdrawBaseFeeLMA",
      "outputs": [],
      "stateMutability": "nonpayable",
      "type": "function"
    },
    {
      "inputs": [
        {
          "internalType": "uint256",
          "name": "_collWithdrawal",
          "type": "uint256"
        },
        {
          "internalType": "address",
          "name": "_upperHint",
          "type": "address"
        },
        {
          "internalType": "address",
          "name": "_lowerHint",
          "type": "address"
        }
      ],
      "name": "withdrawColl",
      "outputs": [],
      "stateMutability": "nonpayable",
      "type": "function"
    }
  ],
  "transactionHash": "0xf788b8648976fe1cdb32e628da5722785f89d105f90749c7651288f35a8b3b40",
  "args": [],
  "numDeployments": 1,
  "solcInputHash": "31a564bd62bc0fd674d5fe99a64aa9ab",
  "bytecode": "0x60806040523480156200001157600080fd5b506200001d3362000023565b62000075565b600380546001600160a01b038381166001600160a01b0319831681179093556040519116919082907f8be0079c531659141344cd1fd0a4f28419497f9722a3daafe3b4186f6b6457e090600090a35050565b6138cb80620000856000396000f3fe608060405234801561001057600080fd5b50600436106101b05760003560e01c8063794e5724116100ef578063a201415211610092578063a20141521461034f578063a20baee6146102b1578063a3f4df7e14610360578063ae9187541461039e578063b8a106da146103b1578063c42dab99146103c4578063f2fde38b146103d7578063f92d3433146103ea57600080fd5b8063794e5724146102d3578063795d26c3146102e25780637985c5e4146102ea5780637e88d408146102fd5780637f7dde4a14610310578063887105d3146103235780638da5cb5b1461032b5780638f09162b1461033c57600080fd5b80635530273c116101575780635530273c146102595780635733d58f1461026c5780635da8b1c31461027b57806360a8b10f1461028e5780636f0b0c1c146102a1578063715018a6146102a957806372fe25aa146102b1578063741bef1a146102c057600080fd5b80630e704d50146101b557806317138bdb146101bf5780631bf43555146101e55780633cc74225146101f85780633d83908a1461021857806347a6e7131461022b5780634870dd9a1461023e5780634ff8144314610246575b600080fd5b6101bd6103f2565b005b6101d26101cd3660046132ef565b6107b4565b6040519081526020015b60405180910390f35b6101d26b0121836204bc2ce21e00000081565b60015461020b906001600160a01b031681565b6040516101dc9190613311565b60045461020b906001600160a01b031681565b6101bd61023936600461334a565b610845565b6101d260c881565b6101d261025436600461338c565b61085d565b6101bd61026736600461334a565b610868565b6101d2671bc16d674ec8000081565b6101bd6102893660046133b3565b61087b565b6101bd61029c366004613425565b610894565b6101bd6108de565b6101bd61093c565b6101d2670de0b6b3a764000081565b60025461020b906001600160a01b031681565b6101d26714d1120d7b16000081565b6101d2610950565b6101bd6102f8366004613476565b610a4c565b6101bd61030b366004613554565b610dbb565b60005461020b906001600160a01b031681565b6101d2610dee565b6003546001600160a01b031661020b565b6101bd61034a366004613595565b610eb3565b6101d269152d02c7e14af680000081565b61039160405180604001604052806012815260200171426f72726f7765724f7065726174696f6e7360701b81525081565b6040516101dc919061360f565b600b5461020b906001600160a01b031681565b6101bd6103bf366004613642565b6114f3565b60095461020b906001600160a01b031681565b6101bd6103e536600461368c565b611505565b6101d261157e565b6103fb336115a0565b600454600054600a546001600160a01b0392831692918216911661041f8333611694565b60025460408051630fdb11cf60e01b815290516000926001600160a01b031691630fdb11cf916004808301926020929190829003018187875af115801561046a573d6000803e3d6000fd5b505050506040513d601f19601f8201168201806040525081019061048e91906136a9565b90506104998161176d565b604051630b07655760e01b81526001600160a01b03851690630b076557906104c5903390600401613311565b600060405180830381600087803b1580156104df57600080fd5b505af11580156104f3573d6000803e3d6000fd5b50506040516309019aaf60e31b8152600092506001600160a01b038716915063480cd57890610526903390600401613311565b602060405180830381865afa158015610543573d6000803e3d6000fd5b505050506040513d601f19601f8201168201806040525081019061056791906136a9565b90506000856001600160a01b031663d66a2553336040518263ffffffff1660e01b81526004016105979190613311565b602060405180830381865afa1580156105b4573d6000803e3d6000fd5b505050506040513d601f19601f820116820180604052508101906105d891906136a9565b90506105f884336105f38469152d02c7e14af68000006117e5565b6117f8565b6000610609836000846000886118e7565b90506106148161195c565b604051631fc5750960e31b81526001600160a01b0388169063fe2ba84890610640903390600401613311565b600060405180830381600087803b15801561065a57600080fd5b505af115801561066e573d6000803e3d6000fd5b50506040516365e89c5760e11b81526001600160a01b038a16925063cbd138ae915061069e903390600401613311565b600060405180830381600087803b1580156106b857600080fd5b505af11580156106cc573d6000803e3d6000fd5b50505050336001600160a01b03166000805160206138768339815191526000806000600160405161070094939291906136e4565b60405180910390a26107278686336107228669152d02c7e14af68000006117e5565b6119ec565b60065461074b90879087906001600160a01b031669152d02c7e14af68000006119ec565b6040516316daab2160e01b81526001600160a01b038716906316daab21906107799033908790600401613706565b600060405180830381600087803b15801561079357600080fd5b505af11580156107a7573d6000803e3d6000fd5b5050505050505050505050565b600080600260009054906101000a90046001600160a01b03166001600160a01b0316630490be836040518163ffffffff1660e01b8152600401602060405180830381865afa15801561080a573d6000803e3d6000fd5b505050506040513d601f19601f8201168201806040525081019061082e91906136a9565b905061083b848483611aac565b9150505b92915050565b6108583360008086600087876000611af2565b505050565b600061083f826120bd565b6108583384600080600087876000611af2565b61088b338787878787878e611af2565b50505050505050565b600081116108bd5760405162461bcd60e51b81526004016108b49061371f565b60405180910390fd5b6108c56120d3565b6108d88460008360008088886000611af2565b50505050565b60085460405163b32beb5b60e01b81526001600160a01b039091169063b32beb5b9061090e903390600401613311565b600060405180830381600087803b15801561092857600080fd5b505af11580156108d8573d6000803e3d6000fd5b61094461213f565b61094e6000612199565b565b60008054604080516315b3137b60e21b8152905183926001600160a01b0316916356cc4dec9160048083019260209291908290030181865afa15801561099a573d6000803e3d6000fd5b505050506040513d601f19601f820116820180604052508101906109be91906136a9565b90506000600160009054906101000a90046001600160a01b03166001600160a01b03166356cc4dec6040518163ffffffff1660e01b8152600401602060405180830381865afa158015610a15573d6000803e3d6000fd5b505050506040513d601f19601f82011682018060405250810190610a3991906136a9565b9050610a4582826121eb565b9250505090565b610a5461213f565b610a5d8b6121f7565b610a668a6121f7565b610a6f896121f7565b610a78886121f7565b610a81876121f7565b610a8a866121f7565b610a93856121f7565b610a9c846121f7565b610aa5836121f7565b610aae826121f7565b610ab7816121f7565b600480546001600160a01b03199081166001600160a01b038e8116919091179092556000805482168d84161790556001805482168c84161790556005805482168b84161790556006805482168a8416179055600880548216898416179055600280548216888416179055600b80548216878416179055600a80548216868416179055600780548216858416179055600980549091169183169190911790556040517f143219c9e69b09e07e095fcc889b43d8f46ca892bba65f08dc3a0050869a567890610b85908d90613311565b60405180910390a17f78f058b189175430c48dc02699e3a0031ea4ff781536dc2fab847de4babdd8828a604051610bbc9190613311565b60405180910390a17f5ee0cae2f063ed938bb55046f6a932fb6ae792bf43624806bb90abe68a50be9b89604051610bf39190613311565b60405180910390a17f82966d27eea39b038ee0fa30cd16532bb24f6e65d31cb58fb227aa5766cdcc7f88604051610c2a9190613311565b60405180910390a17fcfb07d791fcafc032b35837b50eb84b74df518cf4cc287e8084f47630fa70fa087604051610c619190613311565b60405180910390a17fe67f36a6e961157d6eff83b91f3af5a62131ceb6f04954ef74f51c1c05e7f88d86604051610c989190613311565b60405180910390a17f8c537274438aa850a330284665d81a85dd38267d09e4050d416bfc94142db26485604051610ccf9190613311565b60405180910390a17f65f4cf077bc01e4742eb5ad98326f6e95b63548ea24b17f8d5e823111fe7880084604051610d069190613311565b60405180910390a17f7faa560f2889840c377209fbc4b6b92d05f43f1fc60bf336ab546fd60c0051ad83604051610d3d9190613311565b60405180910390a17fa10b18a97e87c5b49c90aaeba95303db140aa131ee9cbdb946ffce5b50ccf16482604051610d749190613311565b60405180910390a17f6877e00d9059f8716bd795b5d4c2c89a4bc3cef71ba3dd99b168ac9cc1f2a6c281604051610dab9190613311565b60405180910390a16107a761093c565b60008111610ddb5760405162461bcd60e51b81526004016108b49061371f565b6108583360008360008088886000611af2565b6000805460408051630ee2ec9760e41b8152905183926001600160a01b03169163ee2ec9709160048083019260209291908290030181865afa158015610e38573d6000803e3d6000fd5b505050506040513d601f19601f82011682018060405250810190610e5c91906136a9565b90506000600160009054906101000a90046001600160a01b03166001600160a01b031663ee2ec9706040518163ffffffff1660e01b8152600401602060405180830381865afa158015610a15573d6000803e3d6000fd5b610ebc336115a0565b6040805160608082018352600480546001600160a01b039081168452600080548216602080870191909152600a548316868801528651610100810188528281528082018390528088018390529485018290526080850182905260a0850182905260c0850182905260e085018290526002548751630fdb11cf60e01b8152975196979596931694630fdb11cf948181019492939183900301908290875af1158015610f6a573d6000803e3d6000fd5b505050506040513d601f19601f82011682018060405250810190610f8e91906136a9565b808252600090610f9d906122a0565b9050610fa988826122bd565b8251610fb590336123d1565b604082018790528251610fc990888a612493565b60208301526040820151610fdc90612633565b610fe982604001516120bd565b60608301819052610ffc57610ffc613762565b61100f8683606001518460000151611aac565b608083015260608201516110249087906126b5565b60a083015280156110415761103c82608001516126e4565b611074565b61104e826080015161275c565b60006110678760018560600151600187600001516118e7565b90506110728161195c565b505b8251604051635d6b480f60e01b81526001600160a01b0390911690635d6b480f906110a6903390600190600401613706565b600060405180830381600087803b1580156110c057600080fd5b505af11580156110d4573d6000803e3d6000fd5b505084516040516372423c1760e01b81526001600160a01b0390911692506372423c1791506111099033908a90600401613706565b6020604051808303816000875af1158015611128573d6000803e3d6000fd5b505050506040513d601f19601f8201168201806040525081019061114c91906136a9565b5082516060830151604051639976cf4560e01b81526001600160a01b0390921691639976cf459161118291339190600401613706565b6020604051808303816000875af11580156111a1573d6000803e3d6000fd5b505050506040513d601f19601f820116820180604052508101906111c591906136a9565b5082516040516382fe3eb960e01b81526001600160a01b03909116906382fe3eb9906111f5903390600401613311565b600060405180830381600087803b15801561120f57600080fd5b505af1158015611223573d6000803e3d6000fd5b50508451604051630c7940bd60e11b81526001600160a01b0390911692506318f2817a9150611256903390600401613311565b6020604051808303816000875af1158015611275573d6000803e3d6000fd5b505050506040513d601f19601f8201168201806040525081019061129991906136a9565b60c0830152600b5460a08301516040516346f7cf8760e01b81526001600160a01b03909216916346f7cf87916112d8913391908a908a90600401613778565b600060405180830381600087803b1580156112f257600080fd5b505af1158015611306573d6000803e3d6000fd5b505084516040516315d549f160e01b81526001600160a01b0390911692506315d549f19150611339903390600401613311565b6020604051808303816000875af1158015611358573d6000803e3d6000fd5b505050506040513d601f19601f8201168201806040525081019061137c91906136a9565b60e0830181905260405190815233907f59cfd0cd754bc5748b6770e94a4ffa5f678d885cb899dcfadc5734edb97c67ab9060200160405180910390a26113c68360200151876127ec565b69152d02c7e14af680000082602001516113e091906137b9565b87116114255760405162461bcd60e51b815260206004820152601460248201527321279d102332b29032bc31b2b2b2399033b0b4b760611b60448201526064016108b4565b61144d836020015184604001513385602001518b61144391906137cc565b8660400151612865565b6020830151604084015160065461147a9291906001600160a01b031669152d02c7e14af680000080612865565b606082015160c08301516040513392600080516020613876833981519152926114a8928b91906000906136e4565b60405180910390a260208083015160405190815233917f909ac017b31fd41edf1bf9a7ed7d4a7af4343fe034023db2d0220a77ba25e7ee910160405180910390a25050505050505050565b6108d83360008086600187878b611af2565b61150d61213f565b6001600160a01b0381166115725760405162461bcd60e51b815260206004820152602660248201527f4f776e61626c653a206e6577206f776e657220697320746865207a65726f206160448201526564647265737360d01b60648201526084016108b4565b61157b81612199565b50565b6115926103e8670de0b6b3a76400006137df565b61159d906005613801565b81565b600480546040516320ca6cb360e11b815243926001600160a01b0390921691634194d966916115d191869101613311565b602060405180830381865afa1580156115ee573d6000803e3d6000fd5b505050506040513d601f19601f8201168201806040525081019061161291906136a9565b03611630576040516360a67ce360e01b815260040160405180910390fd5b6004805460405163acef5b8d60e01b81526001600160a01b039091169163acef5b8d9161165f91859101613311565b600060405180830381600087803b15801561167957600080fd5b505af115801561168d573d6000803e3d6000fd5b5050505050565b6040516321e3780160e01b81526000906001600160a01b038416906321e37801906116c3908590600401613311565b602060405180830381865afa1580156116e0573d6000803e3d6000fd5b505050506040513d601f19601f8201168201806040525081019061170491906136a9565b9050806001146108585760405162461bcd60e51b815260206004820152602e60248201527f426f72726f7765724f70733a2054726f766520646f6573206e6f74206578697360448201526d1d081bdc881a5cc818db1bdcd95960921b60648201526084016108b4565b611776816122a0565b1561157b5760405162461bcd60e51b815260206004820152603960248201527f426f72726f7765724f70733a204f7065726174696f6e206e6f74207065726d696044820152787474656420647572696e67205265636f76657279204d6f646560381b60648201526084016108b4565b60006117f182846137cc565b9392505050565b6040516370a0823160e01b815281906001600160a01b038516906370a0823190611826908690600401613311565b602060405180830381865afa158015611843573d6000803e3d6000fd5b505050506040513d601f19601f8201168201806040525081019061186791906136a9565b10156108585760405162461bcd60e51b815260206004820152604360248201527f426f72726f7765724f70733a2043616c6c657220646f65736e7420686176652060448201527f656e6f75676820426173654665654c4d4120746f206d616b652072657061796d606482015262195b9d60ea1b608482015260a4016108b4565b6000806118f2610dee565b905060006118fe610950565b9050866119145761190f82896117e5565b61191e565b61191e82896121eb565b9150846119345761192f81876117e5565b61193e565b61193e81876121eb565b9050600061194d838387611aac565b93505050505b95945050505050565b671bc16d674ec8000081101561157b5760405162461bcd60e51b815260206004820152604960248201527f426f72726f7765724f70733a20416e206f7065726174696f6e2074686174207760448201527f6f756c6420726573756c7420696e20544352203c20434352206973206e6f74206064820152681c195c9b5a5d1d195960ba1b608482015260a4016108b4565b604051633b4009ff60e11b8152600481018290526001600160a01b0385169063768013fe90602401600060405180830381600087803b158015611a2e57600080fd5b505af1158015611a42573d6000803e3d6000fd5b5050604051632770a7eb60e21b81526001600160a01b0386169250639dc29fac9150611a749085908590600401613706565b600060405180830381600087803b158015611a8e57600080fd5b505af1158015611aa2573d6000803e3d6000fd5b5050505050505050565b60008215611ae7576000611ade83611ad2670de0b6b3a7640000611ad888838b84612926565b90612932565b90612926565b91506117f19050565b506000199392505050565b611afb336115a0565b6040805160608082018352600480546001600160a01b039081168452600080548216602080870191909152600a5483168688015286516101a0810188528281528082018390528088018390529485018290526080850182905260a0850182905260c0850182905260e08501829052610100850182905261012085018290526101408501829052610160850182905261018085018290526002548751630fdb11cf60e01b8152975196979596931694630fdb11cf948181019492939183900301908290875af1158015611bd1573d6000803e3d6000fd5b505050506040513d601f19601f82011682018060405250810190611bf591906136a9565b808252600090611c04906122a0565b90508615611c1f57611c1684826122bd565b611c1f8861293e565b611c298a8a6129ae565b611c348a8a8a612a1e565b8251611c40908c611694565b336001600160a01b038c161480611c7657506005546001600160a01b031633148015611c6c5750600089115b8015611c76575087155b611c8257611c82613762565b8251604051630b07655760e01b81526001600160a01b0390911690630b07655790611cb1908e90600401613311565b600060405180830381600087803b158015611ccb57600080fd5b505af1158015611cdf573d6000803e3d6000fd5b50505050611ced898b612ab6565b151560608401526020830152604082018890528615611d1a578251611d13908986612493565b6101208301525b825160405163d66a255360e01b81526001600160a01b039091169063d66a255390611d49908e90600401613311565b602060405180830381865afa158015611d66573d6000803e3d6000fd5b505050506040513d601f19601f82011682018060405250810190611d8a91906136a9565b608083015282516040516309019aaf60e31b81526001600160a01b039091169063480cd57890611dbe908e90600401613311565b602060405180830381865afa158015611ddb573d6000803e3d6000fd5b505050506040513d601f19601f82011682018060405250810190611dff91906136a9565b60a0830181905260808301518351611e18929190611aac565b8260c0018181525050611e488260a0015183608001518460200151856060015186604001518c8860000151612ad5565b60e083015260a08201518a1115611e6157611e61613762565b611e6d818b8985612b08565b86158015611e7b5750600088115b15611ec857611ea3611e9e8360400151611e988560800151612b7c565b906117e5565b612633565b611eb582608001518360400151612b92565b611ec883604001518c84604001516117f8565b611ee683600001518c8460200151856060015186604001518c612c27565b6101408401526101608301528251604051630c7940bd60e11b81526001600160a01b03909116906318f2817a90611f21908e90600401613311565b6020604051808303816000875af1158015611f40573d6000803e3d6000fd5b505050506040513d601f19601f82011682018060405250810190611f6491906136a9565b826101800181815250506000611f928360a0015184608001518560200151866060015187604001518d612e19565b600b5460405163015f109360e51b81529192506001600160a01b031690632be2126090611fc9908f9085908c908c90600401613778565b600060405180830381600087803b158015611fe357600080fd5b505af1158015611ff7573d6000803e3d6000fd5b505050508b6001600160a01b0316600080516020613876833981519152846101400151856101600151866101800151600260405161203894939291906136e4565b60405180910390a261012083015160405190815233907f909ac017b31fd41edf1bf9a7ed7d4a7af4343fe034023db2d0220a77ba25e7ee9060200160405180910390a26120af8460200151856040015133866020015187606001518861012001518f6120a491906137cc565b8e8a60400151612e4a565b505050505050505050505050565b600061083f8269152d02c7e14af68000006121eb565b6005546001600160a01b0316331461094e5760405162461bcd60e51b815260206004820152602960248201527f426f72726f7765724f70733a2043616c6c6572206973206e6f742053746162696044820152681b1a5d1e48141bdbdb60ba1b60648201526084016108b4565b6003546001600160a01b0316331461094e5760405162461bcd60e51b815260206004820181905260248201527f4f776e61626c653a2063616c6c6572206973206e6f7420746865206f776e657260448201526064016108b4565b600380546001600160a01b038381166001600160a01b0319831681179093556040519116919082907f8be0079c531659141344cd1fd0a4f28419497f9722a3daafe3b4186f6b6457e090600090a35050565b60006117f182846137b9565b6001600160a01b03811661224d5760405162461bcd60e51b815260206004820152601e60248201527f4163636f756e742063616e6e6f74206265207a65726f2061646472657373000060448201526064016108b4565b803b8061229c5760405162461bcd60e51b815260206004820181905260248201527f4163636f756e7420636f64652073697a652063616e6e6f74206265207a65726f60448201526064016108b4565b5050565b6000806122ac83612edf565b671bc16d674ec80000119392505050565b801561233657670de0b6b3a764000082111561229c5760405162461bcd60e51b815260206004820152603260248201527f4d6178206665652070657263656e74616765206d757374206c657373207468616044820152716e206f7220657175616c20746f203130302560701b60648201526084016108b4565b61234a6103e8670de0b6b3a76400006137df565b612355906005613801565b821015801561236c5750670de0b6b3a76400008211155b61229c5760405162461bcd60e51b815260206004820152603060248201527f4d6178206665652070657263656e74616765206d75737420626520626574776560448201526f656e20302e352520616e64203130302560801b60648201526084016108b4565b6040516321e3780160e01b81526000906001600160a01b038416906321e3780190612400908590600401613311565b602060405180830381865afa15801561241d573d6000803e3d6000fd5b505050506040513d601f19601f8201168201806040525081019061244191906136a9565b9050806001036108585760405162461bcd60e51b815260206004820152601c60248201527f426f72726f7765724f70733a2054726f7665206973206163746976650000000060448201526064016108b4565b6000836001600160a01b0316635dba4c4a6040518163ffffffff1660e01b8152600401600060405180830381600087803b1580156124d057600080fd5b505af11580156124e4573d6000803e3d6000fd5b5050604051630631203b60e41b815260048101869052600092508291506001600160a01b0387169063631203b0906024016040805180830381865afa158015612531573d6000803e3d6000fd5b505050506040513d601f19601f820116820180604052508101906125559190613818565b60048054604051634fbd6daf60e11b81529182018390529294509092506001600160a01b0390911690639f7adb5e90602401600060405180830381600087803b1580156125a157600080fd5b505af11580156125b5573d6000803e3d6000fd5b505050506125c4828686612f0b565b600954604051631fa773cd60e31b815260048101879052602481018490526001600160a01b039091169063fd3b9e6890604401600060405180830381600087803b15801561261157600080fd5b505af1158015612625573d6000803e3d6000fd5b509398975050505050505050565b6b0121836204bc2ce21e00000081101561157b5760405162461bcd60e51b815260206004820152603a60248201527f426f72726f7765724f70733a2054726f76652773206e65742064656274206d7560448201527f73742062652067726561746572207468616e206d696e696d756d00000000000060648201526084016108b4565b600081156126db576126d482611ad28568056bc75e2d63100000612926565b905061083f565b5060001961083f565b671bc16d674ec8000081101561157b5760405162461bcd60e51b815260206004820152603760248201527f426f72726f7765724f70733a204f7065726174696f6e206d757374206c65617660448201527632903a3937bb32903bb4ba341024a1a9101f1e9021a1a960491b60648201526084016108b4565b6714d1120d7b16000081101561157b5760405162461bcd60e51b815260206004820152604960248201527f426f72726f7765724f70733a20416e206f7065726174696f6e2074686174207760448201527f6f756c6420726573756c7420696e20494352203c204d4352206973206e6f74206064820152681c195c9b5a5d1d195960ba1b608482015260a4016108b4565b600754612804906001600160a01b0316338484612f75565b60005460405162f9332d60e61b8152600481018390526001600160a01b0390911690633e4ccb4090602401600060405180830381600087803b15801561284957600080fd5b505af115801561285d573d6000803e3d6000fd5b505050505050565b60405163262b890160e01b8152600481018290526001600160a01b0386169063262b890190602401600060405180830381600087803b1580156128a757600080fd5b505af11580156128bb573d6000803e3d6000fd5b50506040516340c10f1960e01b81526001600160a01b03871692506340c10f1991506128ed9086908690600401613706565b600060405180830381600087803b15801561290757600080fd5b505af115801561291b573d6000803e3d6000fd5b505050505050505050565b60006117f18284613801565b60006117f182846137df565b6000811161157b5760405162461bcd60e51b815260206004820152603760248201527f426f72726f7765724f70733a204465627420696e637265617365207265717569604482015276726573206e6f6e2d7a65726f20646562744368616e676560481b60648201526084016108b4565b8015806129b9575081155b61229c5760405162461bcd60e51b815260206004820152603060248201527f426f72726f7765724f7065726174696f6e733a2043616e6e6f7420776974686460448201526f1c985dc8185b99081859190818dbdb1b60821b60648201526084016108b4565b81151580612a2b57508215155b80612a3557508015155b6108585760405162461bcd60e51b815260206004820152604660248201527f426f72726f7765724f70733a205468657265206d75737420626520656974686560448201527f72206120636f6c6c61746572616c206368616e6765206f7220612064656274206064820152656368616e676560d01b608482015260a4016108b4565b6000808315612aca57508290506001612ace565b8291505b9250929050565b6000806000612ae88a8a8a8a8a8a612fcf565b915091506000612af9838387611aac565b9b9a5050505050505050505050565b8315612b4157612b178361300d565b8115612b3c57612b2a8160e001516126e4565b612b3c8160e001518260c00151613081565b6108d8565b612b4e8160e0015161275c565b612b6b8160200151826060015183604001518585600001516118e7565b61010082018190526108d89061195c565b600061083f8269152d02c7e14af68000006117e5565b612ba68269152d02c7e14af68000006117e5565b81111561229c5760405162461bcd60e51b815260206004820152604360248201527f426f72726f7765724f70733a20416d6f756e7420726570616964206d7573742060448201527f6e6f74206265206c6172676572207468616e207468652054726f76652773206460648201526219589d60ea1b608482015260a4016108b4565b600080600085612ca75760405163d3d6f84360e01b81526001600160a01b038a169063d3d6f84390612c5f908b908b90600401613706565b6020604051808303816000875af1158015612c7e573d6000803e3d6000fd5b505050506040513d601f19601f82011682018060405250810190612ca291906136a9565b612d18565b6040516372423c1760e01b81526001600160a01b038a16906372423c1790612cd5908b908b90600401613706565b6020604051808303816000875af1158015612cf4573d6000803e3d6000fd5b505050506040513d601f19601f82011682018060405250810190612d1891906136a9565b9050600084612d9757604051630930874960e11b81526001600160a01b038b16906312610e9290612d4f908c908a90600401613706565b6020604051808303816000875af1158015612d6e573d6000803e3d6000fd5b505050506040513d601f19601f82011682018060405250810190612d9291906136a9565b612e08565b604051639976cf4560e01b81526001600160a01b038b1690639976cf4590612dc5908c908a90600401613706565b6020604051808303816000875af1158015612de4573d6000803e3d6000fd5b505050506040513d601f19601f82011682018060405250810190612e0891906136a9565b919a91995090975050505050505050565b6000806000612e2c898989898989612fcf565b915091506000612e3c83836126b5565b9a9950505050505050505050565b8115612e6257612e5d8888888685612865565b612e6e565b612e6e888888866119ec565b8315612e8357612e7e88866127ec565b611aa2565b6040516316daab2160e01b81526001600160a01b038916906316daab2190612eb19089908990600401613706565b600060405180830381600087803b158015612ecb57600080fd5b505af11580156120af573d6000803e3d6000fd5b600080612eea610dee565b90506000612ef6610950565b9050612f03828286611aac565b949350505050565b6000612f2383611ad286670de0b6b3a7640000612926565b9050818111156108d85760405162461bcd60e51b815260206004820152601d60248201527f4665652065786365656465642070726f7669646564206d6178696d756d00000060448201526064016108b4565b604080516001600160a01b0385811660248301528416604482015260648082018490528251808303909101815260849091019091526020810180516001600160e01b03166323b872dd60e01b1790526108d89085906130f7565b600080878786612fe857612fe38a896117e5565b612ff2565b612ff28a896121eb565b91508461300357612d9289876117e5565b612e0889876121eb565b801561157b5760405162461bcd60e51b815260206004820152603e60248201527f426f72726f7765724f70733a20436f6c6c61746572616c20776974686472617760448201527f616c206e6f74207065726d6974746564205265636f76657279204d6f6465000060648201526084016108b4565b8082101561229c5760405162461bcd60e51b815260206004820152603e60248201527f426f72726f7765724f70733a2043616e6e6f7420646563726561736520796f7560448201527f722054726f766527732049435220696e205265636f76657279204d6f6465000060648201526084016108b4565b600061314c826040518060400160405280602081526020017f5361666545524332303a206c6f772d6c6576656c2063616c6c206661696c6564815250856001600160a01b03166131cc9092919063ffffffff16565b905080516000148061316d57508080602001905181019061316d919061383c565b6108585760405162461bcd60e51b815260206004820152602a60248201527f5361666545524332303a204552433230206f7065726174696f6e20646964206e6044820152691bdd081cdd58d8d9595960b21b60648201526084016108b4565b6060612f03848460008585600080866001600160a01b031685876040516131f39190613859565b60006040518083038185875af1925050503d8060008114613230576040519150601f19603f3d011682016040523d82523d6000602084013e613235565b606091505b509150915061324687838387613251565b979650505050505050565b606083156132c05782516000036132b9576001600160a01b0385163b6132b95760405162461bcd60e51b815260206004820152601d60248201527f416464726573733a2063616c6c20746f206e6f6e2d636f6e747261637400000060448201526064016108b4565b5081612f03565b612f0383838151156132d55781518083602001fd5b8060405162461bcd60e51b81526004016108b4919061360f565b6000806040838503121561330257600080fd5b50508035926020909101359150565b6001600160a01b0391909116815260200190565b6001600160a01b038116811461157b57600080fd5b803561334581613325565b919050565b60008060006060848603121561335f57600080fd5b83359250602084013561337181613325565b9150604084013561338181613325565b809150509250925092565b60006020828403121561339e57600080fd5b5035919050565b801515811461157b57600080fd5b600080600080600080600060e0888a0312156133ce57600080fd5b8735965060208801359550604088013594506060880135935060808801356133f5816133a5565b925060a088013561340581613325565b915060c088013561341581613325565b8091505092959891949750929550565b6000806000806080858703121561343b57600080fd5b843561344681613325565b9350602085013561345681613325565b9250604085013561346681613325565b9396929550929360600135925050565b60008060008060008060008060008060006101608c8e03121561349857600080fd5b8b356134a381613325565b9a5060208c01356134b381613325565b995060408c01356134c381613325565b985060608c01356134d381613325565b975060808c01356134e381613325565b965060a08c01356134f381613325565b955060c08c013561350381613325565b945060e08c013561351381613325565b93506101008c013561352481613325565b92506135336101208d0161333a565b91506135426101408d0161333a565b90509295989b509295989b9093969950565b60008060006060848603121561356957600080fd5b833561357481613325565b9250602084013561358481613325565b929592945050506040919091013590565b600080600080600060a086880312156135ad57600080fd5b85359450602086013593506040860135925060608601356135cd81613325565b915060808601356135dd81613325565b809150509295509295909350565b60005b838110156136065781810151838201526020016135ee565b50506000910152565b602081526000825180602084015261362e8160408501602087016135eb565b601f01601f19169190910160400192915050565b6000806000806080858703121561365857600080fd5b8435935060208501359250604085013561367181613325565b9150606085013561368181613325565b939692955090935050565b60006020828403121561369e57600080fd5b81356117f181613325565b6000602082840312156136bb57600080fd5b5051919050565b600381106136e057634e487b7160e01b600052602160045260246000fd5b9052565b84815260208101849052604081018390526080810161195360608301846136c2565b6001600160a01b03929092168252602082015260400190565b60208082526023908201527f426f72726f776572204f7065726174696f6e733a20496e76616c696420616d6f6040820152621d5b9d60ea1b606082015260800190565b634e487b7160e01b600052600160045260246000fd5b6001600160a01b03948516815260208101939093529083166040830152909116606082015260800190565b634e487b7160e01b600052601160045260246000fd5b8082018082111561083f5761083f6137a3565b8181038181111561083f5761083f6137a3565b6000826137fc57634e487b7160e01b600052601260045260246000fd5b500490565b808202811582820484141761083f5761083f6137a3565b6000806040838503121561382b57600080fd5b505080516020909101519092909150565b60006020828403121561384e57600080fd5b81516117f1816133a5565b6000825161386b8184602087016135eb565b919091019291505056fec3770d654ed33aeea6bf11ac8ef05d02a6a04ed4686dd2f624d853bbec43cc8ba26469706673582212205987f20da9b6943b594c2504eaa7944d3eea2836367e546a63f5dfb25b7b360864736f6c63430008130033",
  "devdoc": {
    "kind": "dev",
    "methods": {
      "owner()": {
        "details": "Returns the address of the current owner."
      },
      "renounceOwnership()": {
        "details": "Leaves the contract without owner. It will not be possible to call `onlyOwner` functions. Can only be called by the current owner. NOTE: Renouncing ownership will leave the contract without an owner, thereby disabling any functionality that is only available to the owner."
      },
      "transferOwnership(address)": {
        "details": "Transfers ownership of the contract to a new account (`newOwner`). Can only be called by the current owner."
      }
    },
    "version": 1
  },
  "userdoc": {
    "kind": "user",
    "methods": {
      "addColl(address,address,uint256)": {
        "notice": "HEDGEHOG UPDATES: ERC20 is used as a collateral, therefore function may not rely on msg.value anymore now passing a new param _collIncrease in _adjustTrove function - in this particular case it is a passed param _amount checking if _amount is greater then 0 Function is no longer payable"
      },
      "adjustTrove(uint256,uint256,uint256,uint256,bool,address,address)": {
        "notice": "HEDGEHOG UPDATES: ERC20 is used as a collateral, therefore function may not rely on msg.value anymore now passing a new param _collIncrease Function is no longer payable"
      },
      "claimCollateral()": {
        "notice": "Claim remaining collateral from a redemption or from a liquidation with ICR > MCR in Recovery Mode"
      },
      "computeUnreliableCR(uint256,uint256)": {
        "notice": "HEDGEHOG UPDATES: New view method to help with getting the data on frontends"
      },
      "moveWStETHGainToTrove(address,address,address,uint256)": {
        "notice": "HEDGEHOG UPDATES: ERC20 is used as a collateral, therefore function may not rely on msg.value anymore now passing a new param _collIncrease in _adjustTrove function - in this particular case it is a passed param _amount checking if _amount is greater then 0 Function is no longer payable"
      },
      "openTrove(uint256,uint256,uint256,address,address)": {
        "notice": "HEDGEHOG UPDATES: ERC20 is used as a collateral, therefore function may not rely on msg.value anymore now passing a new param _collAmount checking if _amount is greater then 0 Function is no longer payable"
      },
      "repayBaseFeeLMA(uint256,address,address)": {
        "notice": "HEDGEHOG UPDATES: ERC20 is used as a collateral, therefore function may not rely on msg.value anymore now passing a new param _collIncrease - in this particular case it is 0"
      },
      "setAddresses(address,address,address,address,address,address,address,address,address,address,address)": {
        "notice": "HEDGEHOG UPDATES: ERC20 is used as a collateral instead of native token. Setting erc20 address in the initialisation"
      },
      "withdrawBaseFeeLMA(uint256,uint256,address,address)": {
        "notice": "HEDGEHOG UPDATES: ERC20 is used as a collateral, therefore function may not rely on msg.value anymore now passing a new param _collIncrease - in this particular case it is 0"
      },
      "withdrawColl(uint256,address,address)": {
        "notice": "HEDGEHOG UPDATES: ERC20 is used as a collateral, therefore function may not rely on msg.value anymore now passing a new param _collIncrease - in this particular case it is 0"
      }
    },
    "notice": "Fork of Liquity's BorrowerOperations. . Most of the Logic remains unchanged.. Changes to the contract: - Raised pragma version - Removed an import of IBorrowerOperations Interface - Collateral is now an ERC20 token instead of a native one - Updated variable names and docs to refer to BaseFeeLMA token and wwstETH as a collateral - Logic updates with borrowing fees calculation and their distribution - Removed Native Liquity Protocol Token Staking - Remove _getUSDValue view method as it's not used anymore Even though SafeMath is no longer required, the decision was made to keep it to avoid human factor errors",
    "version": 1
  },
  "storageLayout": {
    "storage": [
      {
        "astId": 11043,
        "contract": "contracts/BorrowerOperations.sol:BorrowerOperations",
        "label": "activePool",
        "offset": 0,
        "slot": "0",
        "type": "t_contract(IActivePool)11643"
      },
      {
        "astId": 11046,
        "contract": "contracts/BorrowerOperations.sol:BorrowerOperations",
        "label": "defaultPool",
        "offset": 0,
        "slot": "1",
        "type": "t_contract(IDefaultPool)12010"
      },
      {
        "astId": 11050,
        "contract": "contracts/BorrowerOperations.sol:BorrowerOperations",
        "label": "priceFeed",
        "offset": 0,
        "slot": "2",
        "type": "t_contract(IPriceFeed)12144"
      },
      {
        "astId": 7,
        "contract": "contracts/BorrowerOperations.sol:BorrowerOperations",
        "label": "_owner",
        "offset": 0,
        "slot": "3",
        "type": "t_address"
      },
      {
        "astId": 1300,
        "contract": "contracts/BorrowerOperations.sol:BorrowerOperations",
        "label": "troveManager",
        "offset": 0,
        "slot": "4",
        "type": "t_contract(ITroveManager)12902"
      },
      {
        "astId": 1302,
        "contract": "contracts/BorrowerOperations.sol:BorrowerOperations",
        "label": "stabilityPoolAddress",
        "offset": 0,
        "slot": "5",
        "type": "t_address"
      },
      {
        "astId": 1304,
        "contract": "contracts/BorrowerOperations.sol:BorrowerOperations",
        "label": "gasPoolAddress",
        "offset": 0,
        "slot": "6",
        "type": "t_address"
      },
      {
        "astId": 1307,
        "contract": "contracts/BorrowerOperations.sol:BorrowerOperations",
        "label": "WStETHToken",
        "offset": 0,
        "slot": "7",
        "type": "t_contract(IERC20)190"
      },
      {
        "astId": 1310,
        "contract": "contracts/BorrowerOperations.sol:BorrowerOperations",
        "label": "collSurplusPool",
        "offset": 0,
        "slot": "8",
        "type": "t_contract(ICollSurplusPool)11948"
      },
      {
        "astId": 1313,
        "contract": "contracts/BorrowerOperations.sol:BorrowerOperations",
        "label": "feesRouter",
        "offset": 0,
        "slot": "9",
        "type": "t_contract(IFeesRouter)12027"
      },
      {
        "astId": 1316,
        "contract": "contracts/BorrowerOperations.sol:BorrowerOperations",
        "label": "baseFeeLMAToken",
        "offset": 0,
        "slot": "10",
        "type": "t_contract(IBaseFeeLMAToken)11707"
      },
      {
        "astId": 1319,
        "contract": "contracts/BorrowerOperations.sol:BorrowerOperations",
        "label": "sortedTroves",
        "offset": 0,
        "slot": "11",
        "type": "t_contract(ISortedTroves)12276"
      }
    ],
    "types": {
      "t_address": {
        "encoding": "inplace",
        "label": "address",
        "numberOfBytes": "20"
      },
      "t_contract(IActivePool)11643": {
        "encoding": "inplace",
        "label": "contract IActivePool",
        "numberOfBytes": "20"
      },
      "t_contract(IBaseFeeLMAToken)11707": {
        "encoding": "inplace",
        "label": "contract IBaseFeeLMAToken",
        "numberOfBytes": "20"
      },
      "t_contract(ICollSurplusPool)11948": {
        "encoding": "inplace",
        "label": "contract ICollSurplusPool",
        "numberOfBytes": "20"
      },
      "t_contract(IDefaultPool)12010": {
        "encoding": "inplace",
        "label": "contract IDefaultPool",
        "numberOfBytes": "20"
      },
      "t_contract(IERC20)190": {
        "encoding": "inplace",
        "label": "contract IERC20",
        "numberOfBytes": "20"
      },
      "t_contract(IFeesRouter)12027": {
        "encoding": "inplace",
        "label": "contract IFeesRouter",
        "numberOfBytes": "20"
      },
      "t_contract(IPriceFeed)12144": {
        "encoding": "inplace",
        "label": "contract IPriceFeed",
        "numberOfBytes": "20"
      },
      "t_contract(ISortedTroves)12276": {
        "encoding": "inplace",
        "label": "contract ISortedTroves",
        "numberOfBytes": "20"
      },
      "t_contract(ITroveManager)12902": {
        "encoding": "inplace",
        "label": "contract ITroveManager",
        "numberOfBytes": "20"
      }
    }
  }
}