{
  "address": "0x5F4379c2B8829F488a2cA96D3B7779E7BC6DB08d",
  "abi": [
    {
      "inputs": [
        {
          "internalType": "uint256",
          "name": "_bootsrapDaysAmount",
          "type": "uint256"
        }
      ],
      "stateMutability": "nonpayable",
      "type": "constructor"
    },
    {
      "anonymous": false,
      "inputs": [
        {
          "indexed": false,
          "internalType": "address",
          "name": "_activePoolAddress",
          "type": "address"
        }
      ],
      "name": "ActivePoolAddressChanged",
      "type": "event"
    },
    {
      "anonymous": false,
      "inputs": [
        {
          "indexed": false,
          "internalType": "address",
          "name": "_newBaseFeeLMATokenAddress",
          "type": "address"
        }
      ],
      "name": "BaseFeeLMATokenAddressChanged",
      "type": "event"
    },
    {
      "anonymous": false,
      "inputs": [
        {
          "indexed": false,
          "internalType": "uint256",
          "name": "_borrowBaseRate",
          "type": "uint256"
        }
      ],
      "name": "BorrowBaseRateUpdated",
      "type": "event"
    },
    {
      "anonymous": false,
      "inputs": [
        {
          "indexed": false,
          "internalType": "address",
          "name": "_newBorrowerOperationsAddress",
          "type": "address"
        }
      ],
      "name": "BorrowerOperationsAddressChanged",
      "type": "event"
    },
    {
      "anonymous": false,
      "inputs": [
        {
          "indexed": false,
          "internalType": "address",
          "name": "_collSurplusPoolAddress",
          "type": "address"
        }
      ],
      "name": "CollSurplusPoolAddressChanged",
      "type": "event"
    },
    {
      "anonymous": false,
      "inputs": [
        {
          "indexed": false,
          "internalType": "address",
          "name": "_defaultPoolAddress",
          "type": "address"
        }
      ],
      "name": "DefaultPoolAddressChanged",
      "type": "event"
    },
    {
      "anonymous": false,
      "inputs": [
        {
          "indexed": false,
          "internalType": "contract IFeesRouter",
          "name": "_feesRouter",
          "type": "address"
        }
      ],
      "name": "FeesRouterAddressUpdated",
      "type": "event"
    },
    {
      "anonymous": false,
      "inputs": [
        {
          "indexed": false,
          "internalType": "address",
          "name": "_gasPoolAddress",
          "type": "address"
        }
      ],
      "name": "GasPoolAddressChanged",
      "type": "event"
    },
    {
      "anonymous": false,
      "inputs": [
        {
          "indexed": false,
          "internalType": "address",
          "name": "_hogTokenAddress",
          "type": "address"
        }
      ],
      "name": "HOGTokenAddressChanged",
      "type": "event"
    },
    {
      "anonymous": false,
      "inputs": [
        {
          "indexed": false,
          "internalType": "uint256",
          "name": "_L_WStETH",
          "type": "uint256"
        },
        {
          "indexed": false,
          "internalType": "uint256",
          "name": "_L_BaseFeeLMADebt",
          "type": "uint256"
        }
      ],
      "name": "LTermsUpdated",
      "type": "event"
    },
    {
      "anonymous": false,
      "inputs": [
        {
          "indexed": false,
          "internalType": "uint256",
          "name": "_lastBorrowTime",
          "type": "uint256"
        }
      ],
      "name": "LastBorrowTimeUpdated",
      "type": "event"
    },
    {
      "anonymous": false,
      "inputs": [
        {
          "indexed": false,
          "internalType": "uint256",
          "name": "_lastRedemptionTime",
          "type": "uint256"
        }
      ],
      "name": "LastRedemptionTimeUpdated",
      "type": "event"
    },
    {
      "anonymous": false,
      "inputs": [
        {
          "indexed": false,
          "internalType": "uint256",
          "name": "_liquidatedDebt",
          "type": "uint256"
        },
        {
          "indexed": false,
          "internalType": "uint256",
          "name": "_liquidatedColl",
          "type": "uint256"
        },
        {
          "indexed": false,
          "internalType": "uint256",
          "name": "_collGasCompensation",
          "type": "uint256"
        },
        {
          "indexed": false,
          "internalType": "uint256",
          "name": "_BaseFeeLMAGasCompensation",
          "type": "uint256"
        }
      ],
      "name": "Liquidation",
      "type": "event"
    },
    {
      "anonymous": false,
      "inputs": [
        {
          "indexed": true,
          "internalType": "address",
          "name": "previousOwner",
          "type": "address"
        },
        {
          "indexed": true,
          "internalType": "address",
          "name": "newOwner",
          "type": "address"
        }
      ],
      "name": "OwnershipTransferred",
      "type": "event"
    },
    {
      "anonymous": false,
      "inputs": [
        {
          "indexed": false,
          "internalType": "address",
          "name": "_newPriceFeedAddress",
          "type": "address"
        }
      ],
      "name": "PriceFeedAddressChanged",
      "type": "event"
    },
    {
      "anonymous": false,
      "inputs": [
        {
          "indexed": false,
          "internalType": "uint256",
          "name": "_attemptedBaseFeeLMAAmount",
          "type": "uint256"
        },
        {
          "indexed": false,
          "internalType": "uint256",
          "name": "_actualBaseFeeLMAAmount",
          "type": "uint256"
        },
        {
          "indexed": false,
          "internalType": "uint256",
          "name": "_WStETHSent",
          "type": "uint256"
        },
        {
          "indexed": false,
          "internalType": "uint256",
          "name": "_WStETHFee",
          "type": "uint256"
        }
      ],
      "name": "Redemption",
      "type": "event"
    },
    {
      "anonymous": false,
      "inputs": [
        {
          "indexed": false,
          "internalType": "uint256",
          "name": "_redemptionBaseRate",
          "type": "uint256"
        }
      ],
      "name": "RedemptionBaseRateUpdated",
      "type": "event"
    },
    {
      "anonymous": false,
      "inputs": [
        {
          "indexed": false,
          "internalType": "address",
          "name": "_sortedTrovesAddress",
          "type": "address"
        }
      ],
      "name": "SortedTrovesAddressChanged",
      "type": "event"
    },
    {
      "anonymous": false,
      "inputs": [
        {
          "indexed": false,
          "internalType": "address",
          "name": "_stabilityPoolAddress",
          "type": "address"
        }
      ],
      "name": "StabilityPoolAddressChanged",
      "type": "event"
    },
    {
      "anonymous": false,
      "inputs": [
        {
          "indexed": false,
          "internalType": "uint256",
          "name": "_totalStakesSnapshot",
          "type": "uint256"
        },
        {
          "indexed": false,
          "internalType": "uint256",
          "name": "_totalCollateralSnapshot",
          "type": "uint256"
        }
      ],
      "name": "SystemSnapshotsUpdated",
      "type": "event"
    },
    {
      "anonymous": false,
      "inputs": [
        {
          "indexed": false,
          "internalType": "uint256",
          "name": "_newTotalStakes",
          "type": "uint256"
        }
      ],
      "name": "TotalStakesUpdated",
      "type": "event"
    },
    {
      "anonymous": false,
      "inputs": [
        {
          "indexed": false,
          "internalType": "address",
          "name": "_borrower",
          "type": "address"
        },
        {
          "indexed": false,
          "internalType": "uint256",
          "name": "_newIndex",
          "type": "uint256"
        }
      ],
      "name": "TroveIndexUpdated",
      "type": "event"
    },
    {
      "anonymous": false,
      "inputs": [
        {
          "indexed": true,
          "internalType": "address",
          "name": "_borrower",
          "type": "address"
        },
        {
          "indexed": false,
          "internalType": "uint256",
          "name": "_debt",
          "type": "uint256"
        },
        {
          "indexed": false,
          "internalType": "uint256",
          "name": "_coll",
          "type": "uint256"
        },
        {
          "indexed": false,
          "internalType": "enum TroveManager.TroveManagerOperation",
          "name": "_operation",
          "type": "uint8"
        }
      ],
      "name": "TroveLiquidated",
      "type": "event"
    },
    {
      "anonymous": false,
      "inputs": [
        {
          "indexed": false,
          "internalType": "uint256",
          "name": "_L_WStETH",
          "type": "uint256"
        },
        {
          "indexed": false,
          "internalType": "uint256",
          "name": "_L_BaseFeeLMADebt",
          "type": "uint256"
        }
      ],
      "name": "TroveSnapshotsUpdated",
      "type": "event"
    },
    {
      "anonymous": false,
      "inputs": [
        {
          "indexed": true,
          "internalType": "address",
          "name": "_borrower",
          "type": "address"
        },
        {
          "indexed": false,
          "internalType": "uint256",
          "name": "_debt",
          "type": "uint256"
        },
        {
          "indexed": false,
          "internalType": "uint256",
          "name": "_coll",
          "type": "uint256"
        },
        {
          "indexed": false,
          "internalType": "uint256",
          "name": "_stake",
          "type": "uint256"
        },
        {
          "indexed": false,
          "internalType": "enum TroveManager.TroveManagerOperation",
          "name": "_operation",
          "type": "uint8"
        }
      ],
      "name": "TroveUpdated",
      "type": "event"
    },
    {
      "inputs": [],
      "name": "BETA",
      "outputs": [
        {
          "internalType": "uint256",
          "name": "",
          "type": "uint256"
        }
      ],
      "stateMutability": "view",
      "type": "function"
    },
    {
      "inputs": [],
      "name": "BOOTSTRAP_PERIOD",
      "outputs": [
        {
          "internalType": "uint256",
          "name": "",
          "type": "uint256"
        }
      ],
      "stateMutability": "view",
      "type": "function"
    },
    {
      "inputs": [],
      "name": "BORROWING_FEE_FLOOR",
      "outputs": [
        {
          "internalType": "uint256",
          "name": "",
          "type": "uint256"
        }
      ],
      "stateMutability": "view",
      "type": "function"
    },
    {
      "inputs": [],
      "name": "BaseFeeLMA_GAS_COMPENSATION",
      "outputs": [
        {
          "internalType": "uint256",
          "name": "",
          "type": "uint256"
        }
      ],
      "stateMutability": "view",
      "type": "function"
    },
    {
      "inputs": [],
      "name": "CCR",
      "outputs": [
        {
          "internalType": "uint256",
          "name": "",
          "type": "uint256"
        }
      ],
      "stateMutability": "view",
      "type": "function"
    },
    {
      "inputs": [],
      "name": "DECIMAL_PRECISION",
      "outputs": [
        {
          "internalType": "uint256",
          "name": "",
          "type": "uint256"
        }
      ],
      "stateMutability": "view",
      "type": "function"
    },
    {
      "inputs": [],
      "name": "L_BaseFeeLMADebt",
      "outputs": [
        {
          "internalType": "uint256",
          "name": "",
          "type": "uint256"
        }
      ],
      "stateMutability": "view",
      "type": "function"
    },
    {
      "inputs": [],
      "name": "L_WStETH",
      "outputs": [
        {
          "internalType": "uint256",
          "name": "",
          "type": "uint256"
        }
      ],
      "stateMutability": "view",
      "type": "function"
    },
    {
      "inputs": [],
      "name": "MAX_BORROWING_FEE",
      "outputs": [
        {
          "internalType": "uint256",
          "name": "",
          "type": "uint256"
        }
      ],
      "stateMutability": "view",
      "type": "function"
    },
    {
      "inputs": [],
      "name": "MCR",
      "outputs": [
        {
          "internalType": "uint256",
          "name": "",
          "type": "uint256"
        }
      ],
      "stateMutability": "view",
      "type": "function"
    },
    {
      "inputs": [],
      "name": "MINUTE_DECAY_BORROWING_FACTOR",
      "outputs": [
        {
          "internalType": "uint256",
          "name": "",
          "type": "uint256"
        }
      ],
      "stateMutability": "view",
      "type": "function"
    },
    {
      "inputs": [],
      "name": "MINUTE_DECAY_REDEMPTION_FACTOR",
      "outputs": [
        {
          "internalType": "uint256",
          "name": "",
          "type": "uint256"
        }
      ],
      "stateMutability": "view",
      "type": "function"
    },
    {
      "inputs": [],
      "name": "MIN_NET_DEBT",
      "outputs": [
        {
          "internalType": "uint256",
          "name": "",
          "type": "uint256"
        }
      ],
      "stateMutability": "view",
      "type": "function"
    },
    {
      "inputs": [],
      "name": "NAME",
      "outputs": [
        {
          "internalType": "string",
          "name": "",
          "type": "string"
        }
      ],
      "stateMutability": "view",
      "type": "function"
    },
    {
      "inputs": [],
      "name": "PERCENT_DIVISOR",
      "outputs": [
        {
          "internalType": "uint256",
          "name": "",
          "type": "uint256"
        }
      ],
      "stateMutability": "view",
      "type": "function"
    },
    {
      "inputs": [],
      "name": "REDEMPTION_FEE_FLOOR",
      "outputs": [
        {
          "internalType": "uint256",
          "name": "",
          "type": "uint256"
        }
      ],
      "stateMutability": "view",
      "type": "function"
    },
    {
      "inputs": [],
      "name": "SECONDS_IN_ONE_MINUTE",
      "outputs": [
        {
          "internalType": "uint256",
          "name": "",
          "type": "uint256"
        }
      ],
      "stateMutability": "view",
      "type": "function"
    },
    {
      "inputs": [],
      "name": "SYSTEM_DEPLOYMENT_TIME",
      "outputs": [
        {
          "internalType": "uint256",
          "name": "",
          "type": "uint256"
        }
      ],
      "stateMutability": "view",
      "type": "function"
    },
    {
      "inputs": [
        {
          "internalType": "uint256",
          "name": "",
          "type": "uint256"
        }
      ],
      "name": "TroveOwners",
      "outputs": [
        {
          "internalType": "address",
          "name": "",
          "type": "address"
        }
      ],
      "stateMutability": "view",
      "type": "function"
    },
    {
      "inputs": [
        {
          "internalType": "address",
          "name": "",
          "type": "address"
        }
      ],
      "name": "Troves",
      "outputs": [
        {
          "internalType": "uint256",
          "name": "debt",
          "type": "uint256"
        },
        {
          "internalType": "uint256",
          "name": "coll",
          "type": "uint256"
        },
        {
          "internalType": "uint256",
          "name": "stake",
          "type": "uint256"
        },
        {
          "internalType": "enum TroveManager.Status",
          "name": "status",
          "type": "uint8"
        },
        {
          "internalType": "uint128",
          "name": "arrayIndex",
          "type": "uint128"
        },
        {
          "internalType": "uint256",
          "name": "lastBlockUpdated",
          "type": "uint256"
        }
      ],
      "stateMutability": "view",
      "type": "function"
    },
    {
      "inputs": [],
      "name": "_100pct",
      "outputs": [
        {
          "internalType": "uint256",
          "name": "",
          "type": "uint256"
        }
      ],
      "stateMutability": "view",
      "type": "function"
    },
    {
      "inputs": [],
      "name": "activePool",
      "outputs": [
        {
          "internalType": "contract IActivePool",
          "name": "",
          "type": "address"
        }
      ],
      "stateMutability": "view",
      "type": "function"
    },
    {
      "inputs": [
        {
          "internalType": "address",
          "name": "_borrower",
          "type": "address"
        }
      ],
      "name": "addTroveOwnerToArray",
      "outputs": [
        {
          "internalType": "uint256",
          "name": "index",
          "type": "uint256"
        }
      ],
      "stateMutability": "nonpayable",
      "type": "function"
    },
    {
      "inputs": [
        {
          "internalType": "address",
          "name": "_borrower",
          "type": "address"
        }
      ],
      "name": "applyPendingRewards",
      "outputs": [],
      "stateMutability": "nonpayable",
      "type": "function"
    },
    {
      "inputs": [],
      "name": "baseFeeLMAToken",
      "outputs": [
        {
          "internalType": "contract IBaseFeeLMAToken",
          "name": "",
          "type": "address"
        }
      ],
      "stateMutability": "view",
      "type": "function"
    },
    {
      "inputs": [
        {
          "internalType": "address[]",
          "name": "_troveArray",
          "type": "address[]"
        }
      ],
      "name": "batchLiquidateTroves",
      "outputs": [],
      "stateMutability": "nonpayable",
      "type": "function"
    },
    {
      "inputs": [],
      "name": "borrowBaseRate",
      "outputs": [
        {
          "internalType": "uint256",
          "name": "",
          "type": "uint256"
        }
      ],
      "stateMutability": "view",
      "type": "function"
    },
    {
      "inputs": [],
      "name": "borrowerOperationsAddress",
      "outputs": [
        {
          "internalType": "address",
          "name": "",
          "type": "address"
        }
      ],
      "stateMutability": "view",
      "type": "function"
    },
    {
      "inputs": [
        {
          "internalType": "uint256",
          "name": "_price",
          "type": "uint256"
        }
      ],
      "name": "checkRecoveryMode",
      "outputs": [
        {
          "internalType": "bool",
          "name": "",
          "type": "bool"
        }
      ],
      "stateMutability": "view",
      "type": "function"
    },
    {
      "inputs": [],
      "name": "checkUnreliableRecoveryMode",
      "outputs": [
        {
          "internalType": "bool",
          "name": "",
          "type": "bool"
        }
      ],
      "stateMutability": "view",
      "type": "function"
    },
    {
      "inputs": [
        {
          "internalType": "address",
          "name": "_borrower",
          "type": "address"
        }
      ],
      "name": "closeTrove",
      "outputs": [],
      "stateMutability": "nonpayable",
      "type": "function"
    },
    {
      "inputs": [],
      "name": "decayBaseRateFromBorrowing",
      "outputs": [],
      "stateMutability": "nonpayable",
      "type": "function"
    },
    {
      "inputs": [
        {
          "internalType": "address",
          "name": "_borrower",
          "type": "address"
        },
        {
          "internalType": "uint256",
          "name": "_collDecrease",
          "type": "uint256"
        }
      ],
      "name": "decreaseTroveColl",
      "outputs": [
        {
          "internalType": "uint256",
          "name": "",
          "type": "uint256"
        }
      ],
      "stateMutability": "nonpayable",
      "type": "function"
    },
    {
      "inputs": [
        {
          "internalType": "address",
          "name": "_borrower",
          "type": "address"
        },
        {
          "internalType": "uint256",
          "name": "_debtDecrease",
          "type": "uint256"
        }
      ],
      "name": "decreaseTroveDebt",
      "outputs": [
        {
          "internalType": "uint256",
          "name": "",
          "type": "uint256"
        }
      ],
      "stateMutability": "nonpayable",
      "type": "function"
    },
    {
      "inputs": [],
      "name": "defaultPool",
      "outputs": [
        {
          "internalType": "contract IDefaultPool",
          "name": "",
          "type": "address"
        }
      ],
      "stateMutability": "view",
      "type": "function"
    },
    {
      "inputs": [],
      "name": "feesRouter",
      "outputs": [
        {
          "internalType": "contract IFeesRouter",
          "name": "",
          "type": "address"
        }
      ],
      "stateMutability": "view",
      "type": "function"
    },
    {
      "inputs": [
        {
          "internalType": "uint256",
          "name": "_BaseFeeLMADebt",
          "type": "uint256"
        }
      ],
      "name": "getBorrowingFee",
      "outputs": [
        {
          "internalType": "uint256",
          "name": "",
          "type": "uint256"
        },
        {
          "internalType": "uint256",
          "name": "",
          "type": "uint256"
        }
      ],
      "stateMutability": "view",
      "type": "function"
    },
    {
      "inputs": [
        {
          "internalType": "uint256",
          "name": "_BaseFeeLMADebt",
          "type": "uint256"
        }
      ],
      "name": "getBorrowingFeeWithDecay",
      "outputs": [
        {
          "internalType": "uint256",
          "name": "",
          "type": "uint256"
        }
      ],
      "stateMutability": "view",
      "type": "function"
    },
    {
      "inputs": [
        {
          "internalType": "uint256",
          "name": "_issuedBaseFeeLMA",
          "type": "uint256"
        }
      ],
      "name": "getBorrowingRate",
      "outputs": [
        {
          "internalType": "uint256",
          "name": "",
          "type": "uint256"
        }
      ],
      "stateMutability": "view",
      "type": "function"
    },
    {
      "inputs": [
        {
          "internalType": "uint256",
          "name": "_issuedBaseFeeLMA",
          "type": "uint256"
        }
      ],
      "name": "getBorrowingRateWithDecay",
      "outputs": [
        {
          "internalType": "uint256",
          "name": "",
          "type": "uint256"
        }
      ],
      "stateMutability": "view",
      "type": "function"
    },
    {
      "inputs": [
        {
          "internalType": "address",
          "name": "_borrower",
          "type": "address"
        },
        {
          "internalType": "uint256",
          "name": "_price",
          "type": "uint256"
        }
      ],
      "name": "getCurrentICR",
      "outputs": [
        {
          "internalType": "uint256",
          "name": "",
          "type": "uint256"
        }
      ],
      "stateMutability": "view",
      "type": "function"
    },
    {
      "inputs": [
        {
          "internalType": "address",
          "name": "_borrower",
          "type": "address"
        }
      ],
      "name": "getEntireDebtAndColl",
      "outputs": [
        {
          "internalType": "uint256",
          "name": "debt",
          "type": "uint256"
        },
        {
          "internalType": "uint256",
          "name": "coll",
          "type": "uint256"
        },
        {
          "internalType": "uint256",
          "name": "pendingBaseFeeLMADebtReward",
          "type": "uint256"
        },
        {
          "internalType": "uint256",
          "name": "pendingWStETHReward",
          "type": "uint256"
        }
      ],
      "stateMutability": "view",
      "type": "function"
    },
    {
      "inputs": [],
      "name": "getEntireSystemColl",
      "outputs": [
        {
          "internalType": "uint256",
          "name": "entireSystemColl",
          "type": "uint256"
        }
      ],
      "stateMutability": "view",
      "type": "function"
    },
    {
      "inputs": [],
      "name": "getEntireSystemDebt",
      "outputs": [
        {
          "internalType": "uint256",
          "name": "entireSystemDebt",
          "type": "uint256"
        }
      ],
      "stateMutability": "view",
      "type": "function"
    },
    {
      "inputs": [
        {
          "internalType": "address",
          "name": "_borrower",
          "type": "address"
        }
      ],
      "name": "getNominalICR",
      "outputs": [
        {
          "internalType": "uint256",
          "name": "",
          "type": "uint256"
        }
      ],
      "stateMutability": "view",
      "type": "function"
    },
    {
      "inputs": [
        {
          "internalType": "uint256",
          "name": "_coll",
          "type": "uint256"
        },
        {
          "internalType": "uint256",
          "name": "_debt",
          "type": "uint256"
        }
      ],
      "name": "getNormalLiquidationPrice",
      "outputs": [
        {
          "internalType": "uint256",
          "name": "",
          "type": "uint256"
        }
      ],
      "stateMutability": "pure",
      "type": "function"
    },
    {
      "inputs": [
        {
          "internalType": "address",
          "name": "_borrower",
          "type": "address"
        }
      ],
      "name": "getPendingBaseFeeLMADebtReward",
      "outputs": [
        {
          "internalType": "uint256",
          "name": "",
          "type": "uint256"
        }
      ],
      "stateMutability": "view",
      "type": "function"
    },
    {
      "inputs": [
        {
          "internalType": "address",
          "name": "_borrower",
          "type": "address"
        }
      ],
      "name": "getPendingWStETHReward",
      "outputs": [
        {
          "internalType": "uint256",
          "name": "",
          "type": "uint256"
        }
      ],
      "stateMutability": "view",
      "type": "function"
    },
    {
      "inputs": [
        {
          "internalType": "uint256",
          "name": "_WStETHDrawn",
          "type": "uint256"
        }
      ],
      "name": "getRedemptionFeeWithDecay",
      "outputs": [
        {
          "internalType": "uint256",
          "name": "",
          "type": "uint256"
        }
      ],
      "stateMutability": "view",
      "type": "function"
    },
    {
      "inputs": [],
      "name": "getRedemptionRate",
      "outputs": [
        {
          "internalType": "uint256",
          "name": "",
          "type": "uint256"
        }
      ],
      "stateMutability": "view",
      "type": "function"
    },
    {
      "inputs": [],
      "name": "getRedemptionRateWithDecay",
      "outputs": [
        {
          "internalType": "uint256",
          "name": "",
          "type": "uint256"
        }
      ],
      "stateMutability": "view",
      "type": "function"
    },
    {
      "inputs": [
        {
          "internalType": "uint256",
          "name": "_price",
          "type": "uint256"
        }
      ],
      "name": "getTCR",
      "outputs": [
        {
          "internalType": "uint256",
          "name": "",
          "type": "uint256"
        }
      ],
      "stateMutability": "view",
      "type": "function"
    },
    {
      "inputs": [
        {
          "internalType": "address",
          "name": "_borrower",
          "type": "address"
        }
      ],
      "name": "getTroveColl",
      "outputs": [
        {
          "internalType": "uint256",
          "name": "",
          "type": "uint256"
        }
      ],
      "stateMutability": "view",
      "type": "function"
    },
    {
      "inputs": [
        {
          "internalType": "address",
          "name": "_borrower",
          "type": "address"
        }
      ],
      "name": "getTroveDebt",
      "outputs": [
        {
          "internalType": "uint256",
          "name": "",
          "type": "uint256"
        }
      ],
      "stateMutability": "view",
      "type": "function"
    },
    {
      "inputs": [
        {
          "internalType": "uint256",
          "name": "_index",
          "type": "uint256"
        }
      ],
      "name": "getTroveFromTroveOwnersArray",
      "outputs": [
        {
          "internalType": "address",
          "name": "",
          "type": "address"
        }
      ],
      "stateMutability": "view",
      "type": "function"
    },
    {
      "inputs": [],
      "name": "getTroveOwnersCount",
      "outputs": [
        {
          "internalType": "uint256",
          "name": "",
          "type": "uint256"
        }
      ],
      "stateMutability": "view",
      "type": "function"
    },
    {
      "inputs": [
        {
          "internalType": "address",
          "name": "_borrower",
          "type": "address"
        }
      ],
      "name": "getTroveStake",
      "outputs": [
        {
          "internalType": "uint256",
          "name": "",
          "type": "uint256"
        }
      ],
      "stateMutability": "view",
      "type": "function"
    },
    {
      "inputs": [
        {
          "internalType": "address",
          "name": "_borrower",
          "type": "address"
        }
      ],
      "name": "getTroveStatus",
      "outputs": [
        {
          "internalType": "uint256",
          "name": "",
          "type": "uint256"
        }
      ],
      "stateMutability": "view",
      "type": "function"
    },
    {
      "inputs": [
        {
          "internalType": "address",
          "name": "_borrower",
          "type": "address"
        }
      ],
      "name": "getTroveUpdateBlock",
      "outputs": [
        {
          "internalType": "uint256",
          "name": "",
          "type": "uint256"
        }
      ],
      "stateMutability": "view",
      "type": "function"
    },
    {
      "inputs": [],
      "name": "getUnreliableTCR",
      "outputs": [
        {
          "internalType": "uint256",
          "name": "",
          "type": "uint256"
        }
      ],
      "stateMutability": "view",
      "type": "function"
    },
    {
      "inputs": [
        {
          "internalType": "address",
          "name": "_borrower",
          "type": "address"
        }
      ],
      "name": "getUnreliableTroveICR",
      "outputs": [
        {
          "internalType": "uint256",
          "name": "",
          "type": "uint256"
        }
      ],
      "stateMutability": "view",
      "type": "function"
    },
    {
      "inputs": [
        {
          "internalType": "address",
          "name": "_borrower",
          "type": "address"
        }
      ],
      "name": "hasPendingRewards",
      "outputs": [
        {
          "internalType": "bool",
          "name": "",
          "type": "bool"
        }
      ],
      "stateMutability": "view",
      "type": "function"
    },
    {
      "inputs": [],
      "name": "hogToken",
      "outputs": [
        {
          "internalType": "contract IHOGToken",
          "name": "",
          "type": "address"
        }
      ],
      "stateMutability": "view",
      "type": "function"
    },
    {
      "inputs": [
        {
          "internalType": "address",
          "name": "_borrower",
          "type": "address"
        },
        {
          "internalType": "uint256",
          "name": "_collIncrease",
          "type": "uint256"
        }
      ],
      "name": "increaseTroveColl",
      "outputs": [
        {
          "internalType": "uint256",
          "name": "",
          "type": "uint256"
        }
      ],
      "stateMutability": "nonpayable",
      "type": "function"
    },
    {
      "inputs": [
        {
          "internalType": "address",
          "name": "_borrower",
          "type": "address"
        },
        {
          "internalType": "uint256",
          "name": "_debtIncrease",
          "type": "uint256"
        }
      ],
      "name": "increaseTroveDebt",
      "outputs": [
        {
          "internalType": "uint256",
          "name": "",
          "type": "uint256"
        }
      ],
      "stateMutability": "nonpayable",
      "type": "function"
    },
    {
      "inputs": [],
      "name": "lastBaseFeeLMADebtError_Redistribution",
      "outputs": [
        {
          "internalType": "uint256",
          "name": "",
          "type": "uint256"
        }
      ],
      "stateMutability": "view",
      "type": "function"
    },
    {
      "inputs": [],
      "name": "lastBorrowTime",
      "outputs": [
        {
          "internalType": "uint256",
          "name": "",
          "type": "uint256"
        }
      ],
      "stateMutability": "view",
      "type": "function"
    },
    {
      "inputs": [],
      "name": "lastRedemptionTime",
      "outputs": [
        {
          "internalType": "uint256",
          "name": "",
          "type": "uint256"
        }
      ],
      "stateMutability": "view",
      "type": "function"
    },
    {
      "inputs": [],
      "name": "lastWStETHError_Redistribution",
      "outputs": [
        {
          "internalType": "uint256",
          "name": "",
          "type": "uint256"
        }
      ],
      "stateMutability": "view",
      "type": "function"
    },
    {
      "inputs": [
        {
          "internalType": "address",
          "name": "_borrower",
          "type": "address"
        }
      ],
      "name": "liquidate",
      "outputs": [],
      "stateMutability": "nonpayable",
      "type": "function"
    },
    {
      "inputs": [
        {
          "internalType": "uint256",
          "name": "_n",
          "type": "uint256"
        }
      ],
      "name": "liquidateTroves",
      "outputs": [],
      "stateMutability": "nonpayable",
      "type": "function"
    },
    {
      "inputs": [],
      "name": "owner",
      "outputs": [
        {
          "internalType": "address",
          "name": "",
          "type": "address"
        }
      ],
      "stateMutability": "view",
      "type": "function"
    },
    {
      "inputs": [],
      "name": "priceFeed",
      "outputs": [
        {
          "internalType": "contract IPriceFeed",
          "name": "",
          "type": "address"
        }
      ],
      "stateMutability": "view",
      "type": "function"
    },
    {
      "inputs": [
        {
          "internalType": "uint256",
          "name": "_BaseFeeLMAamount",
          "type": "uint256"
        },
        {
          "internalType": "address",
          "name": "_firstRedemptionHint",
          "type": "address"
        },
        {
          "internalType": "address",
          "name": "_upperPartialRedemptionHint",
          "type": "address"
        },
        {
          "internalType": "address",
          "name": "_lowerPartialRedemptionHint",
          "type": "address"
        },
        {
          "internalType": "uint256",
          "name": "_partialRedemptionHintNICR",
          "type": "uint256"
        },
        {
          "internalType": "uint256",
          "name": "_maxIterations",
          "type": "uint256"
        },
        {
          "internalType": "uint256",
          "name": "_maxFeePercentage",
          "type": "uint256"
        }
      ],
      "name": "redeemCollateral",
      "outputs": [],
      "stateMutability": "nonpayable",
      "type": "function"
    },
    {
      "inputs": [],
      "name": "redemptionBaseRate",
      "outputs": [
        {
          "internalType": "uint256",
          "name": "",
          "type": "uint256"
        }
      ],
      "stateMutability": "view",
      "type": "function"
    },
    {
      "inputs": [
        {
          "internalType": "address",
          "name": "_borrower",
          "type": "address"
        }
      ],
      "name": "removeStake",
      "outputs": [],
      "stateMutability": "nonpayable",
      "type": "function"
    },
    {
      "inputs": [],
      "name": "renounceOwnership",
      "outputs": [],
      "stateMutability": "nonpayable",
      "type": "function"
    },
    {
      "inputs": [
        {
          "internalType": "address",
          "name": "",
          "type": "address"
        }
      ],
      "name": "rewardSnapshots",
      "outputs": [
        {
          "internalType": "uint256",
          "name": "WStETH",
          "type": "uint256"
        },
        {
          "internalType": "uint256",
          "name": "BaseFeeLMADebt",
          "type": "uint256"
        }
      ],
      "stateMutability": "view",
      "type": "function"
    },
    {
      "inputs": [
        {
          "internalType": "address",
          "name": "_borrowerOperationsAddress",
          "type": "address"
        },
        {
          "internalType": "address",
          "name": "_activePoolAddress",
          "type": "address"
        },
        {
          "internalType": "address",
          "name": "_defaultPoolAddress",
          "type": "address"
        },
        {
          "internalType": "address",
          "name": "_stabilityPoolAddress",
          "type": "address"
        },
        {
          "internalType": "address",
          "name": "_gasPoolAddress",
          "type": "address"
        },
        {
          "internalType": "address",
          "name": "_collSurplusPoolAddress",
          "type": "address"
        },
        {
          "internalType": "address",
          "name": "_priceFeedAddress",
          "type": "address"
        },
        {
          "internalType": "address",
          "name": "_baseFeeLMATokenAddress",
          "type": "address"
        },
        {
          "internalType": "address",
          "name": "_sortedTrovesAddress",
          "type": "address"
        },
        {
          "internalType": "address",
          "name": "_hogTokenAddress",
          "type": "address"
        },
        {
          "internalType": "contract IFeesRouter",
          "name": "_feesRouterAddress",
          "type": "address"
        }
      ],
      "name": "setAddresses",
      "outputs": [],
      "stateMutability": "nonpayable",
      "type": "function"
    },
    {
      "inputs": [
        {
          "internalType": "address",
          "name": "_borrower",
          "type": "address"
        }
      ],
      "name": "setTroveLastUpdatedBlock",
      "outputs": [],
      "stateMutability": "nonpayable",
      "type": "function"
    },
    {
      "inputs": [
        {
          "internalType": "address",
          "name": "_borrower",
          "type": "address"
        },
        {
          "internalType": "uint256",
          "name": "_num",
          "type": "uint256"
        }
      ],
      "name": "setTroveStatus",
      "outputs": [],
      "stateMutability": "nonpayable",
      "type": "function"
    },
    {
      "inputs": [],
      "name": "sortedTroves",
      "outputs": [
        {
          "internalType": "contract ISortedTroves",
          "name": "",
          "type": "address"
        }
      ],
      "stateMutability": "view",
      "type": "function"
    },
    {
      "inputs": [],
      "name": "stabilityPool",
      "outputs": [
        {
          "internalType": "contract IStabilityPool",
          "name": "",
          "type": "address"
        }
      ],
      "stateMutability": "view",
      "type": "function"
    },
    {
      "inputs": [],
      "name": "totalCollateralSnapshot",
      "outputs": [
        {
          "internalType": "uint256",
          "name": "",
          "type": "uint256"
        }
      ],
      "stateMutability": "view",
      "type": "function"
    },
    {
      "inputs": [],
      "name": "totalStakes",
      "outputs": [
        {
          "internalType": "uint256",
          "name": "",
          "type": "uint256"
        }
      ],
      "stateMutability": "view",
      "type": "function"
    },
    {
      "inputs": [],
      "name": "totalStakesSnapshot",
      "outputs": [
        {
          "internalType": "uint256",
          "name": "",
          "type": "uint256"
        }
      ],
      "stateMutability": "view",
      "type": "function"
    },
    {
      "inputs": [
        {
          "internalType": "address",
          "name": "newOwner",
          "type": "address"
        }
      ],
      "name": "transferOwnership",
      "outputs": [],
      "stateMutability": "nonpayable",
      "type": "function"
    },
    {
      "inputs": [
        {
          "internalType": "uint256",
          "name": "_newBaseRate",
          "type": "uint256"
        }
      ],
      "name": "updateBaseRateFromBorrowing",
      "outputs": [],
      "stateMutability": "nonpayable",
      "type": "function"
    },
    {
      "inputs": [
        {
          "internalType": "address",
          "name": "_borrower",
          "type": "address"
        }
      ],
      "name": "updateStakeAndTotalStakes",
      "outputs": [
        {
          "internalType": "uint256",
          "name": "",
          "type": "uint256"
        }
      ],
      "stateMutability": "nonpayable",
      "type": "function"
    },
    {
      "inputs": [
        {
          "internalType": "address",
          "name": "_borrower",
          "type": "address"
        }
      ],
      "name": "updateTroveRewardSnapshots",
      "outputs": [],
      "stateMutability": "nonpayable",
      "type": "function"
    }
  ],
  "transactionHash": "0x0a99358e6829bb007af33f2681de4012100f4cdc1c6bf3afc35f86aa979177f7",
  "args": [
    0
  ],
  "numDeployments": 1,
  "solcInputHash": "31a564bd62bc0fd674d5fe99a64aa9ab",
  "bytecode": "0x60c06040523480156200001157600080fd5b5060405162005e4838038062005e488339810160408190526200003491620000c6565b6200003f3362000074565b6200004c81603c620000e0565b6200005990603c620000e0565b62000066906018620000e0565b608052504260a0526200010c565b600380546001600160a01b038381166001600160a01b0319831681179093556040519116919082907f8be0079c531659141344cd1fd0a4f28419497f9722a3daafe3b4186f6b6457e090600090a35050565b600060208284031215620000d957600080fd5b5051919050565b80820281158282048414176200010657634e487b7160e01b600052601160045260246000fd5b92915050565b60805160a051615d086200014060003960008181610b510152613e61015260008181610a6b0152613e820152615d086000f3fe608060405234801561001057600080fd5b50600436106104ee5760003560e01c80637f7dde4a1161028e578063bb6f030c11610167578063d5b35635116100d9578063e2ac77b011610092578063e2ac77b014610b7b578063e324634914610b8e578063f2fde38b14610b97578063f92d343314610638578063fb0cbd4b14610baa578063fe2ba84814610bb957600080fd5b8063d5b3563514610aea578063d66a255314610afd578063d696629714610b26578063d9a7244414610b39578063e030c10c14610b4c578063e1f787e914610b7357600080fd5b8063c3eb5c671161012b578063c3eb5c6714610a8d578063c42dab9914610a96578063c52861f214610aa9578063cbd138ae14610ab1578063d293c71014610ac4578063d3d6f84314610ad757600080fd5b8063bb6f030c14610a38578063bcd3752614610a41578063bf9befb114610a54578063c26c880014610a5d578063c35bc55014610a6657600080fd5b8063a201415211610200578063b0d8e181116101c4578063b0d8e181146109b0578063b25c3183146109c3578063b36cd07f146109cc578063b7f8cf9b146109df578063b82f263d146109f2578063b91af97c14610a0557600080fd5b8063a201415214610941578063a20baee614610629578063a3f4df7e14610952578063acef5b8d1461098a578063ae9187541461099d57600080fd5b80638f913789116102525780638f913789146108e3578063900e664b146108f6578063948ba6d2146108ff57806396d711ff146109125780639976cf451461091b5780639f7adb5e1461092e57600080fd5b80637f7dde4a1461089b578063807d138d146108ae57806382fe3eb9146108b7578063887105d3146108ca5780638da5cb5b146108d257600080fd5b8063480cd578116103cb578063653d46e71161033d578063741bef1a116102f6578063741bef1a1461083c578063756b253e1461084f578063794e572414610862578063795d26c3146108715780637985c5e4146108795780637e024ad61461088c57600080fd5b8063653d46e7146107a35780636ef64338146107b6578063715018a61461081957806371f256e21461082157806372423c171461082957806372fe25aa1461062957600080fd5b80635733d58f1161038f5780635733d58f146107325780635d6b480f146107415780635dba4c4a1461075457806361ec893d1461075c578063631203b01461076457806364cee2601461077757600080fd5b8063480cd578146106c05780634870dd9a146106ec57806349eefeee146106f45780634e443d9e146106fc578063570dc45e1461071f57600080fd5b80631e8b1c2b116104645780632b11551a116104285780632b11551a146106405780632f865568146106485780633cc742251461065b5780634194d9661461066e57806347142aa31461069a578063477d66cf146106ad57600080fd5b80631e8b1c2b146105fa57806321e378011461060d57806322afd9f114610620578063240926691461062957806328d28b5b1461063857600080fd5b806312610e92116104b657806312610e921461056957806315d549f11461057c5780631673c79a1461058f57806318f2817a146105cb5780631b199a64146105de5780631bf43555146105e757600080fd5b8063030c5a0f146104f3578063048c661d14610519578063071a7541146105395780630b076557146105415780630c08ff5f14610556575b600080fd5b61050661050136600461571d565b610bcc565b6040519081526020015b60405180910390f35b60055461052c906001600160a01b031681565b604051610510919061573a565b610506600281565b61055461054f36600461571d565b610c85565b005b61050661056436600461571d565b610cad565b61050661057736600461574e565b610cd8565b61050661058a36600461571d565b610d2a565b6105b661059d36600461571d565b6016602052600090815260409020805460019091015482565b60408051928352602083019190915201610510565b6105066105d936600461571d565b610d4c565b61050660195481565b6105066b0121836204bc2ce21e00000081565b610554610608366004615790565b610d5f565b61050661061b36600461571d565b611168565b61050660145481565b610506670de0b6b3a764000081565b610506611198565b6105066111ba565b61055461065636600461571d565b6111cc565b60015461052c906001600160a01b031681565b61050661067c36600461571d565b6001600160a01b031660009081526010602052604090206004015490565b6105066106a8366004615855565b611238565b6105066106bb366004615877565b611256565b6105066106ce36600461571d565b6001600160a01b031660009081526010602052604090206001015490565b61050660c881565b601754610506565b61070f61070a366004615877565b61126a565b6040519015158152602001610510565b60095461052c906001600160a01b031681565b610506671bc16d674ec8000081565b61055461074f36600461574e565b611275565b6105546112cd565b610506603c81565b6105b6610772366004615877565b611306565b61050661078536600461571d565b6001600160a01b031660009081526010602052604090206002015490565b6105546107b1366004615877565b611329565b6108076107c436600461571d565b6010602052600090815260409020805460018201546002830154600384015460049094015492939192909160ff8116916101009091046001600160801b03169086565b604051610510969594939291906158a6565b6105546116fd565b61070f611711565b61050661083736600461574e565b611792565b60025461052c906001600160a01b031681565b61052c61085d366004615877565b6117e9565b6105066714d1120d7b16000081565b610506611813565b6105546108873660046158f1565b61190f565b610506670ddd4b8c6c7d70d881565b60005461052c906001600160a01b031681565b61050660125481565b6105546108c536600461571d565b611c8b565b610506611c9c565b6003546001600160a01b031661052c565b60085461052c906001600160a01b031681565b61050660155481565b61050661090d366004615877565b611d61565b61050660135481565b61050661092936600461574e565b611d74565b61055461093c366004615877565b611da1565b61050669152d02c7e14af680000081565b61097d6040518060400160405280600c81526020016b2a3937bb32a6b0b730b3b2b960a11b81525081565b60405161051091906159cf565b61055461099836600461571d565b611ea6565b600b5461052c906001600160a01b031681565b6105066109be36600461571d565b611ece565b61050660185481565b6105066109da366004615877565b611ef5565b60045461052c906001600160a01b031681565b610506610a00366004615877565b611f03565b610a18610a1336600461571d565b611f0e565b604080519485526020850193909352918301526060820152608001610510565b610506600c5481565b610554610a4f366004615a1d565b611f66565b61050660115481565b610506600f5481565b6105067f000000000000000000000000000000000000000000000000000000000000000081565b610506600d5481565b600a5461052c906001600160a01b031681565b610506612678565b610554610abf36600461571d565b61268a565b610506610ad236600461574e565b61269d565b610506610ae536600461574e565b6126bc565b610506610af8366004615877565b6126ec565b610506610b0b36600461571d565b6001600160a01b031660009081526010602052604090205490565b610506610b3436600461571d565b6126ff565b61052c610b47366004615877565b612798565b6105067f000000000000000000000000000000000000000000000000000000000000000081565b6105066127c8565b61070f610b8936600461571d565b612849565b610506600e5481565b610554610ba536600461571d565b6128ac565b610506670dc14847bcc53b2081565b610554610bc736600461571d565b612922565b6001600160a01b0381166000908152601660205260408120546014548290610bf49083612933565b9050801580610c33575060016001600160a01b03851660009081526010602052604090206003015460ff166004811115610c3057610c30615890565b14155b15610c42575060009392505050565b6001600160a01b03841660009081526010602052604081206002015490610c7b670de0b6b3a7640000610c758486612946565b90612952565b9695505050505050565b610c8d61295e565b600054600154610caa916001600160a01b039081169116836129de565b50565b6001600160a01b0381166000908152601660205260408120600101546015548290610bf49083612933565b6000610ce261295e565b6001600160a01b038316600090815260106020526040812054610d059084612933565b6001600160a01b03851660009081526010602052604090208190559150505b92915050565b6000610d3461295e565b610d3d82612ae4565b6001600160801b031692915050565b6000610d5661295e565b610d2482612b7e565b8051600003610dd45760405162461bcd60e51b815260206004820152603660248201527f54726f76654d616e616765723a2043616c6c646174612061646472657373206160448201527572726179206d757374206e6f7420626520656d70747960501b60648201526084015b60405180910390fd5b6000546001546005546001600160a01b03928316929182169116610df6615633565b610dfe615664565b600260009054906101000a90046001600160a01b03166001600160a01b0316630fdb11cf6040518163ffffffff1660e01b81526004016020604051808303816000875af1158015610e53573d6000803e3d6000fd5b505050506040513d601f19601f82011682018060405250810190610e779190615a8b565b826000018181525050826001600160a01b031663488df0fc6040518163ffffffff1660e01b8152600401602060405180830381865afa158015610ebe573d6000803e3d6000fd5b505050506040513d601f19601f82011682018060405250810190610ee29190615a8b565b60208301528151610ef290612c22565b1580156040840152610f1a57610f138585846000015185602001518a612c3f565b9050610f32565b610f2f8585846000015185602001518a612e66565b90505b6000816020015111610f565760405162461bcd60e51b8152600401610dcb90615aa4565b608081015160a082015160405163335525ad60e01b81526001600160a01b0386169263335525ad92610f9392600401918252602082015260400190565b600060405180830381600087803b158015610fad57600080fd5b505af1158015610fc1573d6000803e3d6000fd5b50505050610fd985858360c001518460e00151612f36565b610100810151156110b75760075461010082015160405162f9332d60e61b81526001600160a01b0390921691633e4ccb409161101b9160040190815260200190565b600060405180830381600087803b15801561103557600080fd5b505af1158015611049573d6000803e3d6000fd5b50506007546101008401516040516316daab2160e01b81526001600160a01b03808b1695506316daab21945061108493169190600401615ae6565b600060405180830381600087803b15801561109e57600080fd5b505af11580156110b2573d6000803e3d6000fd5b505050505b6110c58582604001516131ca565b60208101516060830152610100810151604082015182516110f192916110eb9190612933565b90612933565b6080838101829052606080850151604085810151868401518251938452602084019690965290820152908101929092527f4152c73dd2614c4f9fc35e8c9cf16013cd588c75b49a4c1673ecffdcbcda9403910160405180910390a161116085338360600151846040015161330e565b505050505050565b6001600160a01b03811660009081526010602052604081206003015460ff166004811115610d2457610d24615890565b6111ac6103e8670de0b6b3a7640000615b2b565b6111b7906005615b3f565b81565b60006111c7600c546133f1565b905090565b6111d581613427565b60408051600180825281830190925260009160208083019080368337019050509050818160008151811061120b5761120b615b56565b60200260200101906001600160a01b031690816001600160a01b03168152505061123481610d5f565b5050565b60008061124e84846714d1120d7b1600006134be565b949350505050565b6000610d2461126483611d61565b836134f3565b6000610d2482612c22565b61127d61295e565b80600481111561128f5761128f615890565b6001600160a01b0383166000908152601060205260409020600301805460ff191660018360048111156112c4576112c4615890565b02179055505050565b6112d561295e565b60006112df61350b565b9050670de0b6b3a76400008111156112f9576112f9615b6c565b600d819055610caa61354f565b600080600061131484611ef5565b905061132081856134f3565b94909350915050565b6040805160c081018252600080546001600160a01b03908116835260015481166020840152928201819052600b54831660608301526080820181905260a0820152600554909116611378615633565b611380615664565b600260009054906101000a90046001600160a01b03166001600160a01b0316630fdb11cf6040518163ffffffff1660e01b81526004016020604051808303816000875af11580156113d5573d6000803e3d6000fd5b505050506040513d601f19601f820116820180604052508101906113f99190615a8b565b826000018181525050826001600160a01b031663488df0fc6040518163ffffffff1660e01b8152600401602060405180830381865afa158015611440573d6000803e3d6000fd5b505050506040513d601f19601f820116820180604052508101906114649190615a8b565b6020830152815161147490612c22565b158015604084015261149b576114948483600001518460200151886135a6565b90506114bb565b6114b8846000015185602001518460000151856020015189613923565b90505b60008160200151116114df5760405162461bcd60e51b8152600401610dcb90615aa4565b608081015160a082015160405163335525ad60e01b81526001600160a01b0386169263335525ad9261151c92600401918252602082015260400190565b600060405180830381600087803b15801561153657600080fd5b505af115801561154a573d6000803e3d6000fd5b5050505061156a846000015185602001518360c001518460e00151612f36565b6101008101511561164b5760075461010082015160405162f9332d60e61b81526001600160a01b0390921691633e4ccb40916115ac9160040190815260200190565b600060405180830381600087803b1580156115c657600080fd5b505af11580156115da573d6000803e3d6000fd5b505085516007546101008501516040516316daab2160e01b81526001600160a01b0393841695506316daab2194506116189390921691600401615ae6565b600060405180830381600087803b15801561163257600080fd5b505af1158015611646573d6000803e3d6000fd5b505050505b61165d846000015182604001516131ca565b602081015160608301526101008101516040820151825161168392916110eb9190612933565b6080838101829052606080850151604085810151868401518251938452602084019690965290820152908101929092527f4152c73dd2614c4f9fc35e8c9cf16013cd588c75b49a4c1673ecffdcbcda9403910160405180910390a16116f68460000151338360600151846040015161330e565b5050505050565b611705613a54565b61170f6000613aae565b565b60006111c7600260009054906101000a90046001600160a01b03166001600160a01b0316630490be836040518163ffffffff1660e01b8152600401602060405180830381865afa158015611769573d6000803e3d6000fd5b505050506040513d601f19601f8201168201806040525081019061178d9190615a8b565b612c22565b600061179c61295e565b6001600160a01b0383166000908152601060205260408120600101546117c29084613b00565b6001600160a01b038516600090815260106020526040902060010181905591505092915050565b601781815481106117f957600080fd5b6000918252602090912001546001600160a01b0316905081565b60008054604080516315b3137b60e21b8152905183926001600160a01b0316916356cc4dec9160048083019260209291908290030181865afa15801561185d573d6000803e3d6000fd5b505050506040513d601f19601f820116820180604052508101906118819190615a8b565b90506000600160009054906101000a90046001600160a01b03166001600160a01b03166356cc4dec6040518163ffffffff1660e01b8152600401602060405180830381865afa1580156118d8573d6000803e3d6000fd5b505050506040513d601f19601f820116820180604052508101906118fc9190615a8b565b90506119088282613b00565b9250505090565b611917613a54565b6119208b613b0c565b6119298a613b0c565b61193289613b0c565b61193b88613b0c565b61194487613b0c565b61194d86613b0c565b61195685613b0c565b61195f84613b0c565b61196883613b0c565b61197182613b0c565b61197a81613b0c565b600480546001600160a01b03199081166001600160a01b038e8116919091179092556000805482168d84161790556001805482168c84161790556005805482168b84161790556006805482168a8416179055600780548216898416179055600280548216888416179055600880548216878416179055600b80548216868416179055600980548216858416179055600a80549091169183169190911790556040517f3ca631ffcd2a9b5d9ae18543fc82f58eb4ca33af9e6ab01b7a8e95331e6ed98590611a48908d9061573a565b60405180910390a17f78f058b189175430c48dc02699e3a0031ea4ff781536dc2fab847de4babdd8828a604051611a7f919061573a565b60405180910390a17f5ee0cae2f063ed938bb55046f6a932fb6ae792bf43624806bb90abe68a50be9b89604051611ab6919061573a565b60405180910390a17f82966d27eea39b038ee0fa30cd16532bb24f6e65d31cb58fb227aa5766cdcc7f88604051611aed919061573a565b60405180910390a17fcfb07d791fcafc032b35837b50eb84b74df518cf4cc287e8084f47630fa70fa087604051611b24919061573a565b60405180910390a17fe67f36a6e961157d6eff83b91f3af5a62131ceb6f04954ef74f51c1c05e7f88d86604051611b5b919061573a565b60405180910390a17f8c537274438aa850a330284665d81a85dd38267d09e4050d416bfc94142db26485604051611b92919061573a565b60405180910390a17f7faa560f2889840c377209fbc4b6b92d05f43f1fc60bf336ab546fd60c0051ad84604051611bc9919061573a565b60405180910390a17f65f4cf077bc01e4742eb5ad98326f6e95b63548ea24b17f8d5e823111fe7880083604051611c00919061573a565b60405180910390a17f0d32e4ef3d389440323b172cfc07c6c01bdd1d3e8334379048eec21e8d919b7782604051611c37919061573a565b60405180910390a17f6877e00d9059f8716bd795b5d4c2c89a4bc3cef71ba3dd99b168ac9cc1f2a6c281604051611c6e919061573a565b60405180910390a1611c7e6116fd565b5050505050505050505050565b611c9361295e565b610caa81613bb1565b6000805460408051630ee2ec9760e41b8152905183926001600160a01b03169163ee2ec9709160048083019260209291908290030181865afa158015611ce6573d6000803e3d6000fd5b505050506040513d601f19601f82011682018060405250810190611d0a9190615a8b565b90506000600160009054906101000a90046001600160a01b03166001600160a01b031663ee2ec9706040518163ffffffff1660e01b8152600401602060405180830381865afa1580156118d8573d6000803e3d6000fd5b6000610d24611d6e61350b565b83613c15565b6000611d7e61295e565b6001600160a01b038316600090815260106020526040812054610d059084613b00565b6004546001600160a01b03163314611e135760405162461bcd60e51b815260206004820152602f60248201527f54726f76654d616e616765723a204f6e6c7920426f72726f776572206f70657260448201526e185d1a5bdb9cc81b585e4818d85b1b608a1b6064820152608401610dcb565b611e276103e8670de0b6b3a7640000615b2b565b611e32906005615b3f565b8110611e6957611e4c6103e8670de0b6b3a7640000615b2b565b611e57906005615b3f565b611e619082615b82565b600d55611e6f565b6000600d555b6040518181527fca870d46d67e9a1444a6b8f97a147e06e4cf71ee2a0f172d7ecd5441ae7c1201906020015b60405180910390a150565b611eae61295e565b6001600160a01b0316600090815260106020526040902043600490910155565b6000806000611edc84613cf4565b915091506000611eec8383613d6e565b95945050505050565b6000610d24600d5483613c15565b6000610d2482613d9d565b6001600160a01b03811660009081526010602052604081208054600190910154909180611f3a85610cad565b9150611f4585610bcc565b9050611f518483613b00565b9350611f5d8382613b00565b92509193509193565b6040805160c08082018352600080546001600160a01b0390811684526001548116602080860191909152600854821685870152600b548216606080870191909152600754831660808088019190915260065490931660a080880191909152875161010081018952858152928301859052968201849052810183905290810182905293840181905290830181905260e08301529061200283613dc1565b61200a613e5c565b600260009054906101000a90046001600160a01b03166001600160a01b0316630fdb11cf6040518163ffffffff1660e01b81526004016020604051808303816000875af115801561205f573d6000803e3d6000fd5b505050506040513d601f19601f820116820180604052508101906120839190615a8b565b60c0820181905261209390613f1d565b61209c89613f90565b6120ab8260400151338b613ff7565b6120b3611813565b60e0820181905260408084015190516370a0823160e01b81526001600160a01b03909116906370a08231906120ec90339060040161573a565b602060405180830381865afa158015612109573d6000803e3d6000fd5b505050506040513d601f19601f8201168201806040525081019061212d9190615a8b565b111561213b5761213b615b6c565b888152606082015160c0820151600091612156918b906140f7565b15612162575087612274565b82606001516001600160a01b0316634d6228316040518163ffffffff1660e01b8152600401602060405180830381865afa1580156121a4573d6000803e3d6000fd5b505050506040513d601f19601f820116820180604052508101906121c89190615b95565b90505b6001600160a01b038116158015906121f757506714d1120d7b1600006121f5828460c0015161269d565b105b156122745782606001516001600160a01b031663b72703ac826040518263ffffffff1660e01b815260040161222c919061573a565b602060405180830381865afa158015612249573d6000803e3d6000fd5b505050506040513d601f19601f8201168201806040525081019061226d9190615b95565b90506121cb565b846000036122825760001994505b6001600160a01b0381161580159061229a5750815115155b80156122a65750600085115b156123b257846122b581615bb2565b955050600083606001516001600160a01b031663b72703ac836040518263ffffffff1660e01b81526004016122ea919061573a565b602060405180830381865afa158015612307573d6000803e3d6000fd5b505050506040513d601f19601f8201168201806040525081019061232b9190615b95565b905061234084600001518560200151846129de565b6000612359858486600001518760c001518e8e8e614241565b905080604001511561236c5750506123b2565b8051602085015161237c91613b00565b602080860191909152810151604085015161239691613b00565b6040850152805184516123a891612933565b8452509050612282565b60008260400151116124185760405162461bcd60e51b815260206004820152602960248201527f54726f76654d616e616765723a20556e61626c6520746f2072656465656d20616044820152681b9e48185b5bdd5b9d60ba1b6064820152608401610dcb565b61242582604001516144d0565b50612433826040015161464f565b60608301819052604083015161244a91908661465c565b600a54604080840151606085015191516318ddad8960e21b81526001600160a01b0390931692636376b6249261248c9291600401918252602082015260400190565b600060405180830381600087803b1580156124a657600080fd5b505af11580156124ba573d6000803e3d6000fd5b50505050606082015160408301516124d191612933565b60808301526020820151604080840151606085015191517f43a3f4082a4dbc33d78e317d2497d3a730bc7fc3574159dcea1056e62e5d9ad89361252d938f93919293845260208401929092526040830152606082015260800190565b60405180910390a182604001516001600160a01b0316639dc29fac3384602001516040518363ffffffff1660e01b815260040161256b929190615ae6565b600060405180830381600087803b15801561258557600080fd5b505af1158015612599573d6000803e3d6000fd5b505084516020850151604051633b4009ff60e11b81526001600160a01b03909216935063768013fe92506125d39160040190815260200190565b600060405180830381600087803b1580156125ed57600080fd5b505af1158015612601573d6000803e3d6000fd5b5050845160808501516040516316daab2160e01b81526001600160a01b0390921693506316daab21925061263a91339190600401615ae6565b600060405180830381600087803b15801561265457600080fd5b505af1158015612668573d6000803e3d6000fd5b5050505050505050505050505050565b60006111c76126856146c6565b6133f1565b61269261295e565b610caa81600261470a565b60008060006126ab85613cf4565b915091506000610c7b838387614837565b60006126c661295e565b6001600160a01b0383166000908152601060205260408120600101546117c29084612933565b6000610d246126f9612678565b83614875565b600080600260009054906101000a90046001600160a01b03166001600160a01b0316630490be836040518163ffffffff1660e01b8152600401602060405180830381865afa158015612755573d6000803e3d6000fd5b505050506040513d601f19601f820116820180604052508101906127799190615a8b565b905060008061278785613cf4565b915091506000610c7b838386614837565b6000601782815481106127ad576127ad615b56565b6000918252602090912001546001600160a01b031692915050565b60006111c7600260009054906101000a90046001600160a01b03166001600160a01b0316630490be836040518163ffffffff1660e01b8152600401602060405180830381865afa158015612820573d6000803e3d6000fd5b505050506040513d601f19601f820116820180604052508101906128449190615a8b565b613d9d565b600060016001600160a01b03831660009081526010602052604090206003015460ff16600481111561287d5761287d615890565b1461288a57506000919050565b506014546001600160a01b039091166000908152601660205260409020541090565b6128b4613a54565b6001600160a01b0381166129195760405162461bcd60e51b815260206004820152602660248201527f4f776e61626c653a206e6577206f776e657220697320746865207a65726f206160448201526564647265737360d01b6064820152608401610dcb565b610caa81613aae565b61292a61295e565b610caa8161488e565b600061293f8284615b82565b9392505050565b600061293f8284615b3f565b600061293f8284615b2b565b6004546001600160a01b0316331461170f5760405162461bcd60e51b815260206004820152603b60248201527f54726f76654d616e616765723a2043616c6c6572206973206e6f74207468652060448201527f426f72726f7765724f7065726174696f6e7320636f6e747261637400000000006064820152608401610dcb565b6129e781612849565b15612adf576129f581613427565b6000612a0082610bcc565b90506000612a0d83610cad565b6001600160a01b038416600090815260106020526040902060010154909150612a369083613b00565b6001600160a01b0384166000908152601060205260409020600181019190915554612a619082613b00565b6001600160a01b038416600090815260106020526040902055612a8383613bb1565b612a8f858583856148d8565b6001600160a01b038316600081815260106020526040808220805460018201546002909201549251600080516020615cb383398151915294612ad49492939291615bdd565b60405180910390a250505b505050565b601780546001808201835560008381527fc624b66cc0138b8fabc209247f72d758e1cf3343756d543badbf24212bed8c1590920180546001600160a01b0319166001600160a01b03861617905591549091612b3f9190612933565b6001600160a01b039290921660009081526010602052604090206003018054610100600160881b0319166101006001600160801b038516021790555090565b6001600160a01b0381166000908152601060205260408120600101548190612ba5906149b9565b6001600160a01b038416600090815260106020526040902060020180549082905560115491925090612be3908390612bdd9084612933565b90613b00565b60118190556040519081527f6bac5e0eb3c44eb03a60ab11ec3a2c051771616aecadbcfff2630aabae5203829060200160405180910390a15092915050565b600080612c2e83613d9d565b671bc16d674ec80000119392505050565b612c47615664565b612c4f6156b0565b612c57615664565b84825260006080830152612c69611813565b60a0830152612c76611c9c565b60c0830152600060208301525b835182602001511015612e5b5783826020015181518110612ca657612ca6615b56565b6020908102919091018101516001600160a01b03166060840181905260009081526010909152604090206003015460019060ff166004811115612ceb57612ceb615890565b03612e4357612cfe82606001518761269d565b60408301526080820151612deb576714d1120d7b160000826040015110158015612d2757508151155b612e43576000612d408360c001518460a0015189614837565b9050612d5d8989856060015186604001518760000151868d6149fa565b60808101518451919350612d719190612933565b8352608082015160a0840151612d8691612933565b8360a0018181525050612dbb8261010001516110eb84604001516110eb8660a001518860c0015161293390919063ffffffff16565b60c0840152612dca8483614cf5565b9350612ddf8360c001518460a0015189614dd6565b15608084015250612e43565b81608001518015612e0757506714d1120d7b1600008260400151105b15612e4357612e20888884606001518560000151614df7565b60808101518351919250612e349190612933565b8252612e408382614cf5565b92505b60208201805190612e5382615bff565b905250612c83565b505095945050505050565b612e6e615664565b612e766156b0565b612e7e615664565b848252600060208301525b835182602001511015612e5b5783826020015181518110612eac57612eac615b56565b60209081029190910101516001600160a01b031660608301819052612ed1908761269d565b604083018190526714d1120d7b1600001115612f1e57612efb888884606001518560000151614df7565b60808101518351919250612f0f9190612933565b8252612f1b8382614cf5565b92505b60208201805190612f2e82615bff565b905250612e89565b81156131c457601854600090612f5890612bdd84670de0b6b3a7640000612946565b90506000612f7d601954612bdd670de0b6b3a76400008761294690919063ffffffff16565b90506000612f966011548461295290919063ffffffff16565b90506000612faf6011548461295290919063ffffffff16565b9050612fd0612fc96011548461294690919063ffffffff16565b8590612933565b601855601154612fec90612fe5908390612946565b8490612933565b601955601454612ffc9083613b00565b60145560155461300c9082613b00565b60158190556014546040517f9f8bc8ab0daf5bceef75ecfd2085d1fcc6548c657ea970d9a23a60610d0737e39261304a928252602082015260400190565b60405180910390a1604051633b4009ff60e11b8152600481018790526001600160a01b0389169063768013fe90602401600060405180830381600087803b15801561309457600080fd5b505af11580156130a8573d6000803e3d6000fd5b505060405163262b890160e01b8152600481018990526001600160a01b038a16925063262b89019150602401600060405180830381600087803b1580156130ee57600080fd5b505af1158015613102573d6000803e3d6000fd5b505060405162f9332d60e61b8152600481018890526001600160a01b038a169250633e4ccb409150602401600060405180830381600087803b15801561314757600080fd5b505af115801561315b573d6000803e3d6000fd5b50506040516316daab2160e01b81526001600160a01b038b1692506316daab21915061318d908a908990600401615ae6565b600060405180830381600087803b1580156131a757600080fd5b505af11580156131bb573d6000803e3d6000fd5b50505050505050505b50505050565b6011546012819055506000826001600160a01b031663ee2ec9706040518163ffffffff1660e01b8152600401602060405180830381865afa158015613213573d6000803e3d6000fd5b505050506040513d601f19601f820116820180604052508101906132379190615a8b565b90506000600160009054906101000a90046001600160a01b03166001600160a01b031663ee2ec9706040518163ffffffff1660e01b8152600401602060405180830381865afa15801561328e573d6000803e3d6000fd5b505050506040513d601f19601f820116820180604052508101906132b29190615a8b565b90506132c281612bdd8486612933565b60138190556012546040517f51bf4c63ec3cba9d03d43238abbdd979dd91bd16d9895c74ceea9118c7baaf6092613300928252602082015260400190565b60405180910390a150505050565b811561338557600854600654604051631062c15f60e11b81526001600160a01b0391821660048201528582166024820152604481018590529116906320c582be90606401600060405180830381600087803b15801561336c57600080fd5b505af1158015613380573d6000803e3d6000fd5b505050505b80156131c4576040516316daab2160e01b81526001600160a01b038516906316daab21906133b99086908590600401615ae6565b600060405180830381600087803b1580156133d357600080fd5b505af11580156133e7573d6000803e3d6000fd5b5050505050505050565b6000610d246134198361340e6103e8670de0b6b3a7640000615b2b565b612bdd906005615b3f565b670de0b6b3a7640000614f40565b60016001600160a01b03821660009081526010602052604090206003015460ff16600481111561345957613459615890565b14610caa5760405162461bcd60e51b815260206004820152602f60248201527f54726f76654d616e616765723a2054726f766520646f6573206e6f742065786960448201526e1cdd081bdc881a5cc818db1bdcd959608a1b6064820152608401610dcb565b600081836134d4670de0b6b3a764000087615b3f565b6134de9190615b2b565b6134e89190615b2b565b61124e906001615c18565b600061293f670de0b6b3a7640000610c758585612946565b600080613516614f56565b9050600061352c670dc14847bcc53b2083614f72565b9050611908670de0b6b3a7640000610c7583600d5461294690919063ffffffff16565b6000613566600f544261293390919063ffffffff16565b9050603c8110610caa5742600f8190556040519081527f4ac50c32a269c2cfea9cf04e466da1ab839008441fadf7108e4f05410c2bfd5f90602001611e9b565b6135ae615664565b6135b66156b0565b6135be615664565b848252600060808301526135d0611813565b60a08301526135dd611c9c565b8260c001818152505086606001516001600160a01b0316634d6228316040518163ffffffff1660e01b8152600401602060405180830381865afa158015613628573d6000803e3d6000fd5b505050506040513d601f19601f8201168201806040525081019061364c9190615b95565b82606001906001600160a01b031690816001600160a01b031681525050600087606001516001600160a01b0316631e2231436040518163ffffffff1660e01b8152600401602060405180830381865afa1580156136ad573d6000803e3d6000fd5b505050506040513d601f19601f820116820180604052508101906136d19190615b95565b6000602085015290505b8483602001511080156137045750806001600160a01b031683606001516001600160a01b031614155b1561391857600088606001516001600160a01b031663b72703ac85606001516040518263ffffffff1660e01b815260040161373f919061573a565b602060405180830381865afa15801561375c573d6000803e3d6000fd5b505050506040513d601f19601f820116820180604052508101906137809190615b95565b905061379084606001518961269d565b60408501526080840151613888576714d1120d7b1600008460400151101580156137b957508351155b156137c45750613918565b60006137d98560c001518660a001518b614837565b8a5160208c01516060880151604089015189519495506137fa94868f6149fa565b6080810151865191955061380e9190612933565b8552608084015160a086015161382391612933565b8560a00181815250506138588461010001516110eb86604001516110eb8860a001518a60c0015161293390919063ffffffff16565b60c08601526138678685614cf5565b955061387c8560c001518660a001518b614dd6565b156080860152506138f2565b836080015180156138a457506714d1120d7b1600008460400151105b156138ec576138c589600001518a6020015186606001518760000151614df7565b608081015185519194506138d99190612933565b84526138e58584614cf5565b94506138f2565b50613918565b6001600160a01b031660608401526020830180519061391082615bff565b9052506136db565b505050949350505050565b61392b615664565b6139336156b0565b61393b615664565b600b54858352600060208401526001600160a01b03165b8483602001511015613a4857806001600160a01b0316634d6228316040518163ffffffff1660e01b8152600401602060405180830381865afa15801561399c573d6000803e3d6000fd5b505050506040513d601f19601f820116820180604052508101906139c09190615b95565b6001600160a01b0316606084018190526139da908861269d565b604084018190526714d1120d7b1600001115613a2b57613a04898985606001518660000151614df7565b60808101518451919350613a189190612933565b8352613a248483614cf5565b9350613a30565b613a48565b60208301805190613a4082615bff565b905250613952565b50505095945050505050565b6003546001600160a01b0316331461170f5760405162461bcd60e51b815260206004820181905260248201527f4f776e61626c653a2063616c6c6572206973206e6f7420746865206f776e65726044820152606401610dcb565b600380546001600160a01b038381166001600160a01b0319831681179093556040519116919082907f8be0079c531659141344cd1fd0a4f28419497f9722a3daafe3b4186f6b6457e090600090a35050565b600061293f8284615c18565b6001600160a01b038116613b625760405162461bcd60e51b815260206004820152601e60248201527f4163636f756e742063616e6e6f74206265207a65726f206164647265737300006044820152606401610dcb565b803b806112345760405162461bcd60e51b815260206004820181905260248201527f4163636f756e7420636f64652073697a652063616e6e6f74206265207a65726f6044820152606401610dcb565b601480546001600160a01b038316600090815260166020526040908190209182556015546001909201829055915491517fc437f324d85e369394148dd9d62f98f534b382e01ed3dd2eb98138fb6d3ab49a92611e9b92908252602082015260400190565b600080600860009054906101000a90046001600160a01b03166001600160a01b03166318160ddd6040518163ffffffff1660e01b8152600401602060405180830381865afa158015613c6b573d6000803e3d6000fd5b505050506040513d601f19601f82011682018060405250810190613c8f9190615a8b565b905080600003613cc057613cad6103e8670de0b6b3a7640000615b2b565b613cb8906005615b3f565b915050610d24565b61124e613419613cdc83610c7587670de0b6b3a7640000612946565b612bdd8761340e6103e8670de0b6b3a7640000615b2b565b6000806000613d0284610bcc565b90506000613d0f85610cad565b6001600160a01b03861660009081526010602052604081206001015491925090613d399084613b00565b6001600160a01b03871660009081526010602052604081205491925090613d609084613b00565b919791965090945050505050565b60008115613d9457613d8d82610c758568056bc75e2d63100000612946565b9050610d24565b50600019610d24565b600080613da8611c9c565b90506000613db4611813565b905061124e828286614837565b613dd56103e8670de0b6b3a7640000615b2b565b613de0906005615b3f565b8110158015613df75750670de0b6b3a76400008111155b610caa5760405162461bcd60e51b815260206004820152603060248201527f4d6178206665652070657263656e74616765206d75737420626520626574776560448201526f656e20302e352520616e64203130302560801b6064820152608401610dcb565b613ea67f00000000000000000000000000000000000000000000000000000000000000007f0000000000000000000000000000000000000000000000000000000000000000613b00565b42101561170f576040805162461bcd60e51b81526020600482015260248101919091527f54726f76654d616e616765723a20526564656d7074696f6e7320617265206e6f60448201527f7420616c6c6f77656420647572696e6720626f6f7473747261702070686173656064820152608401610dcb565b6714d1120d7b160000613f2f82613d9d565b1015610caa5760405162461bcd60e51b815260206004820152602a60248201527f54726f76654d616e616765723a2043616e6e6f742072656465656d207768656e604482015269102a21a9101e1026a1a960b11b6064820152608401610dcb565b60008111610caa5760405162461bcd60e51b815260206004820152602e60248201527f54726f76654d616e616765723a20416d6f756e74206d7573742062652067726560448201526d61746572207468616e207a65726f60901b6064820152608401610dcb565b6040516370a0823160e01b815281906001600160a01b038516906370a082319061402590869060040161573a565b602060405180830381865afa158015614042573d6000803e3d6000fd5b505050506040513d601f19601f820116820180604052508101906140669190615a8b565b1015612adf5760405162461bcd60e51b815260206004820152605460248201527f54726f76654d616e616765723a2052657175657374656420726564656d70746960448201527f6f6e20616d6f756e74206d757374206265203c3d2075736572277320426173656064820152734665654c4d4120746f6b656e2062616c616e636560601b608482015260a401610dcb565b60006001600160a01b03831615806141795750604051630bb7c8fd60e31b81526001600160a01b03851690635dbe47e89061413690869060040161573a565b602060405180830381865afa158015614153573d6000803e3d6000fd5b505050506040513d601f19601f820116820180604052508101906141779190615c2b565b155b8061419457506714d1120d7b160000614192848461269d565b105b156141a15750600061293f565b60405163765e015960e01b81526000906001600160a01b0386169063765e0159906141d090879060040161573a565b602060405180830381865afa1580156141ed573d6000803e3d6000fd5b505050506040513d601f19601f820116820180604052508101906142119190615b95565b90506001600160a01b0381161580611eec57506714d1120d7b160000614237828561269d565b1095945050505050565b614267604051806060016040528060008152602001600081526020016000151581525090565b6001600160a01b03871660009081526010602052604090205461429f90879061429a9069152d02c7e14af6800000612933565b614f40565b8082526142ba90670de0b6b3a764000090610c759088612946565b60208083019190915281516001600160a01b0389166000908152601090925260408220546142e791612933565b6020808401516001600160a01b038b16600090815260109092526040822060010154929350909161431791612933565b905069152d02c7e14af68000008203614391576143338961488e565b61433e89600461470a565b6143548a8a69152d02c7e14af680000084615016565b886001600160a01b0316600080516020615cb3833981519152600080600060036040516143849493929190615bdd565b60405180910390a26144c2565b600061439d8284613d6e565b905084811415806143c157506b0121836204bc2ce21e0000006143bf846151d2565b105b156143d557505060016040830152506144c5565b60608b015160405163015f109360e51b81526001600160a01b038c81166004830152602482018490528981166044830152888116606483015290911690632be2126090608401600060405180830381600087803b15801561443557600080fd5b505af1158015614449573d6000803e3d6000fd5b5050506001600160a01b038b166000908152601060205260409020848155600101839055506144778a612b7e565b506001600160a01b038a1660008181526010602052604090819020600201549051600080516020615cb3833981519152916144b89187918791600390615bdd565b60405180910390a2505b50505b979650505050505050565b6000806144db6146c6565b905060006145ea600160009054906101000a90046001600160a01b03166001600160a01b031663ee2ec9706040518163ffffffff1660e01b8152600401602060405180830381865afa158015614535573d6000803e3d6000fd5b505050506040513d601f19601f820116820180604052508101906145599190615a8b565b60008054906101000a90046001600160a01b03166001600160a01b031663ee2ec9706040518163ffffffff1660e01b8152600401602060405180830381865afa1580156145aa573d6000803e3d6000fd5b505050506040513d601f19601f820116820180604052508101906145ce9190615a8b565b6145d89190615c18565b610c7586670de0b6b3a7640000612946565b905060006145f88383613b00565b905061460c81670de0b6b3a7640000614f40565b600c8190556040518181529091507fbcd47f9685f1ffa254d0ac495b2e47d57feda8840e9d1f2a54d9d499650502a89060200160405180910390a161124e6151e8565b6000610d246126f96111ba565b600061467483610c7586670de0b6b3a7640000612946565b9050818111156131c45760405162461bcd60e51b815260206004820152601d60248201527f4665652065786365656465642070726f7669646564206d6178696d756d0000006044820152606401610dcb565b6000806146d161523f565b905060006146e7670ddd4b8c6c7d70d883614f72565b9050611908670de0b6b3a7640000610c7583600c5461294690919063ffffffff16565b600081600481111561471e5761471e615890565b1415801561473e5750600181600481111561473b5761473b615890565b14155b61474a5761474a615b6c565b6017546147568161525b565b6001600160a01b0383166000908152601060205260409020600301805483919060ff1916600183600481111561478e5761478e615890565b02179055506001600160a01b03831660009081526010602090815260408083206001808201859055908490556016909252822082815501556147d08382615335565b600b54604051631484968760e11b81526001600160a01b03909116906329092d0e9061480090869060040161573a565b600060405180830381600087803b15801561481a57600080fd5b505af115801561482e573d6000803e3d6000fd5b50505050505050565b6000821561486c57600061486383610c75670de0b6b3a764000061485d88838b84612946565b90612946565b915061293f9050565b5060001961293f565b60008061124e670de0b6b3a7640000610c758686612946565b6001600160a01b0381166000908152601060205260409020600201546011546148b79082612933565b601155506001600160a01b0316600090815260106020526040812060020155565b604051633b4009ff60e11b8152600481018390526001600160a01b0384169063768013fe90602401600060405180830381600087803b15801561491a57600080fd5b505af115801561492e573d6000803e3d6000fd5b505060405163262b890160e01b8152600481018590526001600160a01b038716925063262b89019150602401600060405180830381600087803b15801561497457600080fd5b505af1158015614988573d6000803e3d6000fd5b505060405163051eb59960e11b8152600481018490526001600160a01b0386169250630a3d6b3291506024016133b9565b6000806013546000036149cd575081610d24565b6000601254116149df576149df615b6c565b61293f601354610c756012548661294690919063ffffffff16565b614a02615664565b614a2660405180606001604052806000815260200160008152602001600081525090565b601754600110614a3657506144c5565b614a3f87611f0e565b60408501526020848101919091528401819052908352614a5e90615505565b6040830181905269152d02c7e14af680000060608401526020830151614a8391612933565b8152670de0b6b3a76400008611614b4e57614aa88989836020015184604001516148d8565b614ab18761488e565b60006080830181905260a0830152815160c0830152805160e0830152614ad887600361470a565b815160208301516040516001600160a01b038a1692600080516020615c9383398151915292614b0992600290615c4d565b60405180910390a2866001600160a01b0316600080516020615cb383398151915260008060006002604051614b419493929190615bdd565b60405180910390a2614ce9565b670de0b6b3a764000086118015614b6c57506714d1120d7b16000086105b15614bbc57614b858989836020015184604001516148d8565b614b8e8761488e565b81518151614b9d919087615512565b60e086015260c085015260a08401526080830152614ad887600361470a565b6714d1120d7b1600008610158015614bd357508386105b8015614be0575081518510155b15614cd857614bf98989836020015184604001516148d8565b84600003614c0957614c09615b6c565b614c128761488e565b614c25826000015183602001518561556c565b9150614c3287600361470a565b61010082015115614ca757600754610100830151604051633f10abab60e01b81526001600160a01b0390921691633f10abab91614c74918b9190600401615ae6565b600060405180830381600087803b158015614c8e57600080fd5b505af1158015614ca2573d6000803e3d6000fd5b505050505b815160a08301516040516001600160a01b038a1692600080516020615c9383398151915292614b0992600290615c4d565b614ce0615664565b91506144c59050565b50979650505050505050565b614cfd615664565b60408083015190840151614d1091613b00565b604082015260608083015190840151614d2891613b00565b606082015281516020840151614d3d91613b00565b6020808301919091528201518351614d5491613b00565b815260808083015190840151614d6991613b00565b608082015260a08083015190840151614d8191613b00565b60a082015260c08083015190840151614d9991613b00565b60c082015260e08083015190840151614db191613b00565b60e08201526101008083015190840151614dca91613b00565b61010082015292915050565b600080614de4858585614837565b671bc16d674ec800001195945050505050565b614dff615664565b614e2360405180606001604052806000815260200160008152602001600081525090565b614e2c84611f0e565b60408501908152602085810192835286019290925291845290519051614e569188918891906148d8565b614e5f8461488e565b614e6c8260200151615505565b6040830181905269152d02c7e14af680000060608401526020830151600091614e959190612933565b9050614ea683600001518286615512565b60e087015260c086015260a08501526080840152614ec585600361470a565b825160208401516040516001600160a01b03881692600080516020615c9383398151915292614ef692600190615c4d565b60405180910390a2846001600160a01b0316600080516020615cb383398151915260008060006001604051614f2e9493929190615bdd565b60405180910390a25050949350505050565b6000818310614f4f578161293f565b5090919050565b60006111c7603c610c75600f544261293390919063ffffffff16565b6000631f540500821115614f8857631f54050091505b81600003614f9f5750670de0b6b3a7640000610d24565b670de0b6b3a764000083835b600181111561500c57614fbf600282615c68565b600003614fe457614fd08283615603565b9150614fdd816002612952565b9050614fab565b614fee8284615603565b9250614ffa8283615603565b9150614fdd6002610c75836001612933565b610c7b8284615603565b6040808501516006549151632770a7eb60e21b81526001600160a01b0391821692639dc29fac9261504e929116908690600401615ae6565b600060405180830381600087803b15801561506857600080fd5b505af115801561507c573d6000803e3d6000fd5b50508551604051633b4009ff60e11b8152600481018690526001600160a01b03909116925063768013fe9150602401600060405180830381600087803b1580156150c557600080fd5b505af11580156150d9573d6000803e3d6000fd5b505060075460405162f9332d60e61b8152600481018590526001600160a01b039091169250633e4ccb409150602401600060405180830381600087803b15801561512257600080fd5b505af1158015615136573d6000803e3d6000fd5b5050505083608001516001600160a01b0316633f10abab84836040518363ffffffff1660e01b815260040161516c929190615ae6565b600060405180830381600087803b15801561518657600080fd5b505af115801561519a573d6000803e3d6000fd5b5050855160808701516040516316daab2160e01b81526001600160a01b0390921693506316daab2192506133b9918590600401615ae6565b6000610d248269152d02c7e14af6800000612933565b60006151ff600e544261293390919063ffffffff16565b9050603c8110610caa5742600e8190556040519081527fbab964312bdd13595266f3e549bca3102965a6d718c6c1f8cd7eaac076b9c6c290602001611e9b565b60006111c7603c610c75600e544261293390919063ffffffff16565b6001811180156152d65750600b546040805163de8fa43160e01b815290516001926001600160a01b03169163de8fa4319160048083019260209291908290030181865afa1580156152b0573d6000803e3d6000fd5b505050506040513d601f19601f820116820180604052508101906152d49190615a8b565b115b610caa5760405162461bcd60e51b815260206004820152602a60248201527f54726f76654d616e616765723a204f6e6c79206f6e652074726f766520696e206044820152697468652073797374656d60b01b6064820152608401610dcb565b6001600160a01b03821660009081526010602052604081206003015460ff169081600481111561536757615367615890565b141580156153875750600181600481111561538457615384615890565b14155b61539357615393615b6c565b6001600160a01b03831660009081526010602052604081206003015461010090046001600160801b03169083906153cb826001612933565b905080836001600160801b031611156153e6576153e6615b6c565b6000601782815481106153fb576153fb615b56565b600091825260209091200154601780546001600160a01b03909216925082916001600160801b03871690811061543357615433615b56565b600091825260208083209190910180546001600160a01b0319166001600160a01b03948516179055918316808252601083526040918290206003018054610100600160881b0319166101006001600160801b038a16908102919091179091558251918252928101929092527f02b04ae5f7be9ca7c103293a2aa15f3c339d15d6eda53b721fef7b0e609c831a910160405180910390a160178054806154da576154da615c7c565b600082815260209020810160001990810180546001600160a01b031916905501905550505050505050565b6000610d2460c883615b2b565b60008080808415615556576155278786614f40565b935061553787610c758887612946565b92506155438785612933565b915061554f8684612933565b9050615563565b5060009250829150859050845b93509350935093565b615574615664565b8381526020810183905260006155a4670de0b6b3a7640000610c758561485d6714d1120d7b160000818b86612952565b90506155af81615505565b6040830181905269152d02c7e14af68000006060840152608083018690526155d8908290612933565b60a08301526155e78482612933565b61010083015250600060c0820181905260e08201529392505050565b6000806156108484612946565b905061124e670de0b6b3a7640000610c7561562c600283615b2b565b8490613b00565b6040518060a00160405280600081526020016000815260200160001515815260200160008152602001600081525090565b6040518061012001604052806000815260200160008152602001600081526020016000815260200160008152602001600081526020016000815260200160008152602001600081525090565b6040518060e0016040528060008152602001600081526020016000815260200160006001600160a01b0316815260200160001515815260200160008152602001600081525090565b6001600160a01b0381168114610caa57600080fd5b8035615718816156f8565b919050565b60006020828403121561572f57600080fd5b813561293f816156f8565b6001600160a01b0391909116815260200190565b6000806040838503121561576157600080fd5b823561576c816156f8565b946020939093013593505050565b634e487b7160e01b600052604160045260246000fd5b600060208083850312156157a357600080fd5b823567ffffffffffffffff808211156157bb57600080fd5b818501915085601f8301126157cf57600080fd5b8135818111156157e1576157e161577a565b8060051b604051601f19603f830116810181811085821117156158065761580661577a565b60405291825284820192508381018501918883111561582457600080fd5b938501935b828510156158495761583a8561570d565b84529385019392850192615829565b98975050505050505050565b6000806040838503121561586857600080fd5b50508035926020909101359150565b60006020828403121561588957600080fd5b5035919050565b634e487b7160e01b600052602160045260246000fd5b868152602081018690526040810185905260c08101600585106158cb576158cb615890565b60608201949094526001600160801b0392909216608083015260a0909101529392505050565b60008060008060008060008060008060006101608c8e03121561591357600080fd5b8b3561591e816156f8565b9a5060208c013561592e816156f8565b995060408c013561593e816156f8565b985060608c013561594e816156f8565b975060808c013561595e816156f8565b965060a08c013561596e816156f8565b955060c08c013561597e816156f8565b945060e08c013561598e816156f8565b93506101008c013561599f816156f8565b92506159ae6101208d0161570d565b91506159bd6101408d0161570d565b90509295989b509295989b9093969950565b600060208083528351808285015260005b818110156159fc578581018301518582016040015282016159e0565b506000604082860101526040601f19601f8301168501019250505092915050565b600080600080600080600060e0888a031215615a3857600080fd5b873596506020880135615a4a816156f8565b95506040880135615a5a816156f8565b94506060880135615a6a816156f8565b9699959850939660808101359560a0820135955060c0909101359350915050565b600060208284031215615a9d57600080fd5b5051919050565b60208082526022908201527f54726f76654d616e616765723a206e6f7468696e6720746f206c697175696461604082015261746560f01b606082015260800190565b6001600160a01b03929092168252602082015260400190565b634e487b7160e01b600052601260045260246000fd5b634e487b7160e01b600052601160045260246000fd5b600082615b3a57615b3a615aff565b500490565b8082028115828204841417610d2457610d24615b15565b634e487b7160e01b600052603260045260246000fd5b634e487b7160e01b600052600160045260246000fd5b81810381811115610d2457610d24615b15565b600060208284031215615ba757600080fd5b815161293f816156f8565b600081615bc157615bc1615b15565b506000190190565b60048110615bd957615bd9615890565b9052565b848152602081018490526040810183905260808101611eec6060830184615bc9565b600060018201615c1157615c11615b15565b5060010190565b80820180821115610d2457610d24615b15565b600060208284031215615c3d57600080fd5b8151801515811461293f57600080fd5b838152602081018390526060810161124e6040830184615bc9565b600082615c7757615c77615aff565b500690565b634e487b7160e01b600052603160045260246000fdfeea67486ed7ebe3eea8ab3390efd4a3c8aae48be5bea27df104a8af786c408434c3770d654ed33aeea6bf11ac8ef05d02a6a04ed4686dd2f624d853bbec43cc8ba2646970667358221220aea55edcd66fe0333a00aefaea9e463786837247282b048014059a92b21ae31764736f6c63430008130033",
  "devdoc": {
    "kind": "dev",
    "methods": {
      "owner()": {
        "details": "Returns the address of the current owner."
      },
      "renounceOwnership()": {
        "details": "Leaves the contract without owner. It will not be possible to call `onlyOwner` functions. Can only be called by the current owner. NOTE: Renouncing ownership will leave the contract without an owner, thereby disabling any functionality that is only available to the owner."
      },
      "transferOwnership(address)": {
        "details": "Transfers ownership of the contract to a new account (`newOwner`). Can only be called by the current owner."
      }
    },
    "version": 1
  },
  "userdoc": {
    "kind": "user",
    "methods": {
      "checkUnreliableRecoveryMode()": {
        "notice": "HEDGEHOG UPDATES: New view method to help with getting the data on frontends"
      },
      "getCurrentICR(address,uint256)": {
        "notice": "HEDGEHOG UPDATES: Get Price directly from the price feed instead of param passing"
      },
      "getUnreliableTCR()": {
        "notice": "HEDGEHOG UPDATES: New view method to help with getting the data on frontends"
      },
      "getUnreliableTroveICR(address)": {
        "notice": "HEDGEHOG UPDATES: New view method to help with getting the data on frontends"
      }
    },
    "notice": "Fork of Liquity's TroveManager. Most of the Logic remains unchanged. Changes to the contract: - Raised pragma version - Removed an import of ActivePool Interface - Logic updates with redemption & borrowing fees calculation and their distribution Even though SafeMath is no longer required, the decision was made to keep it to avoid human factor errors",
    "version": 1
  },
  "storageLayout": {
    "storage": [
      {
        "astId": 11043,
        "contract": "contracts/TroveManager.sol:TroveManager",
        "label": "activePool",
        "offset": 0,
        "slot": "0",
        "type": "t_contract(IActivePool)11643"
      },
      {
        "astId": 11046,
        "contract": "contracts/TroveManager.sol:TroveManager",
        "label": "defaultPool",
        "offset": 0,
        "slot": "1",
        "type": "t_contract(IDefaultPool)12010"
      },
      {
        "astId": 11050,
        "contract": "contracts/TroveManager.sol:TroveManager",
        "label": "priceFeed",
        "offset": 0,
        "slot": "2",
        "type": "t_contract(IPriceFeed)12144"
      },
      {
        "astId": 7,
        "contract": "contracts/TroveManager.sol:TroveManager",
        "label": "_owner",
        "offset": 0,
        "slot": "3",
        "type": "t_address"
      },
      {
        "astId": 5913,
        "contract": "contracts/TroveManager.sol:TroveManager",
        "label": "borrowerOperationsAddress",
        "offset": 0,
        "slot": "4",
        "type": "t_address"
      },
      {
        "astId": 5916,
        "contract": "contracts/TroveManager.sol:TroveManager",
        "label": "stabilityPool",
        "offset": 0,
        "slot": "5",
        "type": "t_contract(IStabilityPool)12449"
      },
      {
        "astId": 5918,
        "contract": "contracts/TroveManager.sol:TroveManager",
        "label": "gasPoolAddress",
        "offset": 0,
        "slot": "6",
        "type": "t_address"
      },
      {
        "astId": 5921,
        "contract": "contracts/TroveManager.sol:TroveManager",
        "label": "collSurplusPool",
        "offset": 0,
        "slot": "7",
        "type": "t_contract(ICollSurplusPool)11948"
      },
      {
        "astId": 5924,
        "contract": "contracts/TroveManager.sol:TroveManager",
        "label": "baseFeeLMAToken",
        "offset": 0,
        "slot": "8",
        "type": "t_contract(IBaseFeeLMAToken)11707"
      },
      {
        "astId": 5927,
        "contract": "contracts/TroveManager.sol:TroveManager",
        "label": "hogToken",
        "offset": 0,
        "slot": "9",
        "type": "t_contract(IHOGToken)12068"
      },
      {
        "astId": 5930,
        "contract": "contracts/TroveManager.sol:TroveManager",
        "label": "feesRouter",
        "offset": 0,
        "slot": "10",
        "type": "t_contract(IFeesRouter)12027"
      },
      {
        "astId": 5933,
        "contract": "contracts/TroveManager.sol:TroveManager",
        "label": "sortedTroves",
        "offset": 0,
        "slot": "11",
        "type": "t_contract(ISortedTroves)12276"
      },
      {
        "astId": 5962,
        "contract": "contracts/TroveManager.sol:TroveManager",
        "label": "redemptionBaseRate",
        "offset": 0,
        "slot": "12",
        "type": "t_uint256"
      },
      {
        "astId": 5964,
        "contract": "contracts/TroveManager.sol:TroveManager",
        "label": "borrowBaseRate",
        "offset": 0,
        "slot": "13",
        "type": "t_uint256"
      },
      {
        "astId": 5966,
        "contract": "contracts/TroveManager.sol:TroveManager",
        "label": "lastRedemptionTime",
        "offset": 0,
        "slot": "14",
        "type": "t_uint256"
      },
      {
        "astId": 5968,
        "contract": "contracts/TroveManager.sol:TroveManager",
        "label": "lastBorrowTime",
        "offset": 0,
        "slot": "15",
        "type": "t_uint256"
      },
      {
        "astId": 5993,
        "contract": "contracts/TroveManager.sol:TroveManager",
        "label": "Troves",
        "offset": 0,
        "slot": "16",
        "type": "t_mapping(t_address,t_struct(Trove)5988_storage)"
      },
      {
        "astId": 5995,
        "contract": "contracts/TroveManager.sol:TroveManager",
        "label": "totalStakes",
        "offset": 0,
        "slot": "17",
        "type": "t_uint256"
      },
      {
        "astId": 5997,
        "contract": "contracts/TroveManager.sol:TroveManager",
        "label": "totalStakesSnapshot",
        "offset": 0,
        "slot": "18",
        "type": "t_uint256"
      },
      {
        "astId": 5999,
        "contract": "contracts/TroveManager.sol:TroveManager",
        "label": "totalCollateralSnapshot",
        "offset": 0,
        "slot": "19",
        "type": "t_uint256"
      },
      {
        "astId": 6001,
        "contract": "contracts/TroveManager.sol:TroveManager",
        "label": "L_WStETH",
        "offset": 0,
        "slot": "20",
        "type": "t_uint256"
      },
      {
        "astId": 6003,
        "contract": "contracts/TroveManager.sol:TroveManager",
        "label": "L_BaseFeeLMADebt",
        "offset": 0,
        "slot": "21",
        "type": "t_uint256"
      },
      {
        "astId": 6008,
        "contract": "contracts/TroveManager.sol:TroveManager",
        "label": "rewardSnapshots",
        "offset": 0,
        "slot": "22",
        "type": "t_mapping(t_address,t_struct(RewardSnapshot)6013_storage)"
      },
      {
        "astId": 6016,
        "contract": "contracts/TroveManager.sol:TroveManager",
        "label": "TroveOwners",
        "offset": 0,
        "slot": "23",
        "type": "t_array(t_address)dyn_storage"
      },
      {
        "astId": 6018,
        "contract": "contracts/TroveManager.sol:TroveManager",
        "label": "lastWStETHError_Redistribution",
        "offset": 0,
        "slot": "24",
        "type": "t_uint256"
      },
      {
        "astId": 6020,
        "contract": "contracts/TroveManager.sol:TroveManager",
        "label": "lastBaseFeeLMADebtError_Redistribution",
        "offset": 0,
        "slot": "25",
        "type": "t_uint256"
      }
    ],
    "types": {
      "t_address": {
        "encoding": "inplace",
        "label": "address",
        "numberOfBytes": "20"
      },
      "t_array(t_address)dyn_storage": {
        "base": "t_address",
        "encoding": "dynamic_array",
        "label": "address[]",
        "numberOfBytes": "32"
      },
      "t_contract(IActivePool)11643": {
        "encoding": "inplace",
        "label": "contract IActivePool",
        "numberOfBytes": "20"
      },
      "t_contract(IBaseFeeLMAToken)11707": {
        "encoding": "inplace",
        "label": "contract IBaseFeeLMAToken",
        "numberOfBytes": "20"
      },
      "t_contract(ICollSurplusPool)11948": {
        "encoding": "inplace",
        "label": "contract ICollSurplusPool",
        "numberOfBytes": "20"
      },
      "t_contract(IDefaultPool)12010": {
        "encoding": "inplace",
        "label": "contract IDefaultPool",
        "numberOfBytes": "20"
      },
      "t_contract(IFeesRouter)12027": {
        "encoding": "inplace",
        "label": "contract IFeesRouter",
        "numberOfBytes": "20"
      },
      "t_contract(IHOGToken)12068": {
        "encoding": "inplace",
        "label": "contract IHOGToken",
        "numberOfBytes": "20"
      },
      "t_contract(IPriceFeed)12144": {
        "encoding": "inplace",
        "label": "contract IPriceFeed",
        "numberOfBytes": "20"
      },
      "t_contract(ISortedTroves)12276": {
        "encoding": "inplace",
        "label": "contract ISortedTroves",
        "numberOfBytes": "20"
      },
      "t_contract(IStabilityPool)12449": {
        "encoding": "inplace",
        "label": "contract IStabilityPool",
        "numberOfBytes": "20"
      },
      "t_enum(Status)5974": {
        "encoding": "inplace",
        "label": "enum TroveManager.Status",
        "numberOfBytes": "1"
      },
      "t_mapping(t_address,t_struct(RewardSnapshot)6013_storage)": {
        "encoding": "mapping",
        "key": "t_address",
        "label": "mapping(address => struct TroveManager.RewardSnapshot)",
        "numberOfBytes": "32",
        "value": "t_struct(RewardSnapshot)6013_storage"
      },
      "t_mapping(t_address,t_struct(Trove)5988_storage)": {
        "encoding": "mapping",
        "key": "t_address",
        "label": "mapping(address => struct TroveManager.Trove)",
        "numberOfBytes": "32",
        "value": "t_struct(Trove)5988_storage"
      },
      "t_struct(RewardSnapshot)6013_storage": {
        "encoding": "inplace",
        "label": "struct TroveManager.RewardSnapshot",
        "members": [
          {
            "astId": 6010,
            "contract": "contracts/TroveManager.sol:TroveManager",
            "label": "WStETH",
            "offset": 0,
            "slot": "0",
            "type": "t_uint256"
          },
          {
            "astId": 6012,
            "contract": "contracts/TroveManager.sol:TroveManager",
            "label": "BaseFeeLMADebt",
            "offset": 0,
            "slot": "1",
            "type": "t_uint256"
          }
        ],
        "numberOfBytes": "64"
      },
      "t_struct(Trove)5988_storage": {
        "encoding": "inplace",
        "label": "struct TroveManager.Trove",
        "members": [
          {
            "astId": 5976,
            "contract": "contracts/TroveManager.sol:TroveManager",
            "label": "debt",
            "offset": 0,
            "slot": "0",
            "type": "t_uint256"
          },
          {
            "astId": 5978,
            "contract": "contracts/TroveManager.sol:TroveManager",
            "label": "coll",
            "offset": 0,
            "slot": "1",
            "type": "t_uint256"
          },
          {
            "astId": 5980,
            "contract": "contracts/TroveManager.sol:TroveManager",
            "label": "stake",
            "offset": 0,
            "slot": "2",
            "type": "t_uint256"
          },
          {
            "astId": 5983,
            "contract": "contracts/TroveManager.sol:TroveManager",
            "label": "status",
            "offset": 0,
            "slot": "3",
            "type": "t_enum(Status)5974"
          },
          {
            "astId": 5985,
            "contract": "contracts/TroveManager.sol:TroveManager",
            "label": "arrayIndex",
            "offset": 1,
            "slot": "3",
            "type": "t_uint128"
          },
          {
            "astId": 5987,
            "contract": "contracts/TroveManager.sol:TroveManager",
            "label": "lastBlockUpdated",
            "offset": 0,
            "slot": "4",
            "type": "t_uint256"
          }
        ],
        "numberOfBytes": "160"
      },
      "t_uint128": {
        "encoding": "inplace",
        "label": "uint128",
        "numberOfBytes": "16"
      },
      "t_uint256": {
        "encoding": "inplace",
        "label": "uint256",
        "numberOfBytes": "32"
      }
    }
  }
}