{
  "address": "0x12a1BE56a3ECBD1b4b8E625EfE1AEE501703D4f5",
  "abi": [
    {
      "anonymous": false,
      "inputs": [
        {
          "indexed": false,
          "internalType": "address",
          "name": "_newActivePoolAddress",
          "type": "address"
        }
      ],
      "name": "ActivePoolAddressChanged",
      "type": "event"
    },
    {
      "anonymous": false,
      "inputs": [
        {
          "indexed": false,
          "internalType": "uint256",
          "name": "_BaseFeeLMADebt",
          "type": "uint256"
        }
      ],
      "name": "ActivePoolBaseFeeLMADebtUpdated",
      "type": "event"
    },
    {
      "anonymous": false,
      "inputs": [
        {
          "indexed": false,
          "internalType": "uint256",
          "name": "_stStETH",
          "type": "uint256"
        }
      ],
      "name": "ActivePoolStETHBalanceUpdated",
      "type": "event"
    },
    {
      "anonymous": false,
      "inputs": [
        {
          "indexed": false,
          "internalType": "uint256",
          "name": "_newBalance",
          "type": "uint256"
        }
      ],
      "name": "BaseFeeLMABalanceUpdated",
      "type": "event"
    },
    {
      "anonymous": false,
      "inputs": [
        {
          "indexed": false,
          "internalType": "address",
          "name": "_newBorrowerOperationsAddress",
          "type": "address"
        }
      ],
      "name": "BorrowerOperationsAddressChanged",
      "type": "event"
    },
    {
      "anonymous": false,
      "inputs": [
        {
          "indexed": false,
          "internalType": "address",
          "name": "_newDefaultPoolAddress",
          "type": "address"
        }
      ],
      "name": "DefaultPoolAddressChanged",
      "type": "event"
    },
    {
      "anonymous": false,
      "inputs": [
        {
          "indexed": true,
          "internalType": "address",
          "name": "previousOwner",
          "type": "address"
        },
        {
          "indexed": true,
          "internalType": "address",
          "name": "newOwner",
          "type": "address"
        }
      ],
      "name": "OwnershipTransferred",
      "type": "event"
    },
    {
      "anonymous": false,
      "inputs": [
        {
          "indexed": false,
          "internalType": "uint256",
          "name": "_newBalance",
          "type": "uint256"
        }
      ],
      "name": "StETHBalanceUpdated",
      "type": "event"
    },
    {
      "anonymous": false,
      "inputs": [
        {
          "indexed": false,
          "internalType": "address",
          "name": "_to",
          "type": "address"
        },
        {
          "indexed": false,
          "internalType": "uint256",
          "name": "_amount",
          "type": "uint256"
        }
      ],
      "name": "StETHSent",
      "type": "event"
    },
    {
      "anonymous": false,
      "inputs": [
        {
          "indexed": false,
          "internalType": "address",
          "name": "_newStabilityPoolAddress",
          "type": "address"
        }
      ],
      "name": "StabilityPoolAddressChanged",
      "type": "event"
    },
    {
      "anonymous": false,
      "inputs": [
        {
          "indexed": false,
          "internalType": "address",
          "name": "_newTroveManagerAddress",
          "type": "address"
        }
      ],
      "name": "TroveManagerAddressChanged",
      "type": "event"
    },
    {
      "inputs": [],
      "name": "NAME",
      "outputs": [
        {
          "internalType": "string",
          "name": "",
          "type": "string"
        }
      ],
      "stateMutability": "view",
      "type": "function"
    },
    {
      "inputs": [],
      "name": "borrowerOperationsAddress",
      "outputs": [
        {
          "internalType": "address",
          "name": "",
          "type": "address"
        }
      ],
      "stateMutability": "view",
      "type": "function"
    },
    {
      "inputs": [
        {
          "internalType": "uint256",
          "name": "_amount",
          "type": "uint256"
        }
      ],
      "name": "decreaseBaseFeeLMADebt",
      "outputs": [],
      "stateMutability": "nonpayable",
      "type": "function"
    },
    {
      "inputs": [],
      "name": "defaultPoolAddress",
      "outputs": [
        {
          "internalType": "address",
          "name": "",
          "type": "address"
        }
      ],
      "stateMutability": "view",
      "type": "function"
    },
    {
      "inputs": [],
      "name": "getBaseFeeLMADebt",
      "outputs": [
        {
          "internalType": "uint256",
          "name": "",
          "type": "uint256"
        }
      ],
      "stateMutability": "view",
      "type": "function"
    },
    {
      "inputs": [],
      "name": "getStETH",
      "outputs": [
        {
          "internalType": "uint256",
          "name": "",
          "type": "uint256"
        }
      ],
      "stateMutability": "view",
      "type": "function"
    },
    {
      "inputs": [
        {
          "internalType": "uint256",
          "name": "_amount",
          "type": "uint256"
        }
      ],
      "name": "increaseBaseFeeLMADebt",
      "outputs": [],
      "stateMutability": "nonpayable",
      "type": "function"
    },
    {
      "inputs": [],
      "name": "owner",
      "outputs": [
        {
          "internalType": "address",
          "name": "",
          "type": "address"
        }
      ],
      "stateMutability": "view",
      "type": "function"
    },
    {
      "inputs": [],
      "name": "renounceOwnership",
      "outputs": [],
      "stateMutability": "nonpayable",
      "type": "function"
    },
    {
      "inputs": [
        {
          "internalType": "address",
          "name": "_account",
          "type": "address"
        },
        {
          "internalType": "uint256",
          "name": "_amount",
          "type": "uint256"
        }
      ],
      "name": "sendStETH",
      "outputs": [],
      "stateMutability": "nonpayable",
      "type": "function"
    },
    {
      "inputs": [
        {
          "internalType": "address",
          "name": "_borrowerOperationsAddress",
          "type": "address"
        },
        {
          "internalType": "address",
          "name": "_troveManagerAddress",
          "type": "address"
        },
        {
          "internalType": "address",
          "name": "_stabilityPoolAddress",
          "type": "address"
        },
        {
          "internalType": "address",
          "name": "_defaultPoolAddress",
          "type": "address"
        }
      ],
      "name": "setAddresses",
      "outputs": [],
      "stateMutability": "nonpayable",
      "type": "function"
    },
    {
      "inputs": [],
      "name": "stabilityPoolAddress",
      "outputs": [
        {
          "internalType": "address",
          "name": "",
          "type": "address"
        }
      ],
      "stateMutability": "view",
      "type": "function"
    },
    {
      "inputs": [
        {
          "internalType": "address",
          "name": "newOwner",
          "type": "address"
        }
      ],
      "name": "transferOwnership",
      "outputs": [],
      "stateMutability": "nonpayable",
      "type": "function"
    },
    {
      "inputs": [],
      "name": "troveManagerAddress",
      "outputs": [
        {
          "internalType": "address",
          "name": "",
          "type": "address"
        }
      ],
      "stateMutability": "view",
      "type": "function"
    },
    {
      "stateMutability": "payable",
      "type": "receive"
    }
  ],
  "transactionHash": "0x27c4b030fb7cac908a54c032702ceac9784f2c9bc95ab7f82ee7f078a3653f00",
  "args": [],
  "numDeployments": 1,
  "solcInputHash": "a73780bff3de70a8de8f7f5f80aa09ea",
  "bytecode": "0x608060405234801561001057600080fd5b5061001a3361001f565b61006f565b600080546001600160a01b038381166001600160a01b0319831681178455604051919092169283917f8be0079c531659141344cd1fd0a4f28419497f9722a3daafe3b4186f6b6457e09190a35050565b610b8f8061007e6000396000f3fe6080604052600436106100c15760003560e01c80638da5cb5b1161006f5780638da5cb5b14610206578063a2f0398314610224578063a3f4df7e14610239578063a51ba3b71461027c578063aac1846f1461029c578063b7f8cf9b146102bc578063f2fde38b146102dc57600080fd5b80630b622ab21461011a578063262b8901146101505780634a945f8d1461017257806356cc4dec146101925780635a4d28bb146101b1578063715018a6146101d1578063768013fe146101e657600080fd5b36610115576100ce6102fc565b6005546100db903461038c565b60058190556040519081527feeee720e44c357f586d840f3c089443cc4c785c0fedd4815dd43777db0c419739060200160405180910390a1005b600080fd5b34801561012657600080fd5b5060035461013a906001600160a01b031681565b60405161014791906109ed565b60405180910390f35b34801561015c57600080fd5b5061017061016b366004610a01565b6103a1565b005b34801561017e57600080fd5b5061017061018d366004610a36565b6103f1565b34801561019e57600080fd5b506006545b604051908152602001610147565b3480156101bd57600080fd5b5060025461013a906001600160a01b031681565b3480156101dd57600080fd5b50610170610552565b3480156101f257600080fd5b50610170610201366004610a01565b610564565b34801561021257600080fd5b506000546001600160a01b031661013a565b34801561023057600080fd5b506005546101a3565b34801561024557600080fd5b5061026f6040518060400160405280600a8152602001691058dd1a5d99541bdbdb60b21b81525081565b6040516101479190610a8a565b34801561028857600080fd5b50610170610297366004610ad8565b610579565b3480156102a857600080fd5b5060045461013a906001600160a01b031681565b3480156102c857600080fd5b5060015461013a906001600160a01b031681565b3480156102e857600080fd5b506101706102f7366004610b02565b6106b0565b6001546001600160a01b031633148061031f57506004546001600160a01b031633145b61038a5760405162461bcd60e51b815260206004820152603160248201527f416374697665506f6f6c3a2043616c6c6572206973206e65697468657220424f604482015270081b9bdc88111959985d5b1d08141bdbdb607a1b60648201526084015b60405180910390fd5b565b60006103988284610b33565b90505b92915050565b6103a9610729565b6006546103b6908261038c565b60068190556040519081527f28fee89e3458b7184495b046ec470df65a39c8d93c072550bf5a91ef830772959060200160405180910390a150565b6103f96107c8565b61040284610822565b61040b83610822565b61041482610822565b61041d81610822565b600180546001600160a01b038087166001600160a01b031992831617909255600280548684169083161790556003805485841690831617905560048054928416929091169190911790556040517f3ca631ffcd2a9b5d9ae18543fc82f58eb4ca33af9e6ab01b7a8e95331e6ed985906104979086906109ed565b60405180910390a17f143219c9e69b09e07e095fcc889b43d8f46ca892bba65f08dc3a0050869a5678836040516104ce91906109ed565b60405180910390a17f82966d27eea39b038ee0fa30cd16532bb24f6e65d31cb58fb227aa5766cdcc7f8260405161050591906109ed565b60405180910390a17f5ee0cae2f063ed938bb55046f6a932fb6ae792bf43624806bb90abe68a50be9b8160405161053c91906109ed565b60405180910390a161054c610552565b50505050565b61055a6107c8565b61038a60006108cb565b61056c61091b565b6006546103b690826109e1565b61058161091b565b60055461058e90826109e1565b60058190556040519081527feeee720e44c357f586d840f3c089443cc4c785c0fedd4815dd43777db0c419739060200160405180910390a1604080516001600160a01b0384168152602081018390527f6a5eb4d39360dd25d648e3e96a252255bc09ccad2dcdcfdedeb08c857555cd12910160405180910390a16000826001600160a01b03168260405160006040518083038185875af1925050503d8060008114610655576040519150601f19603f3d011682016040523d82523d6000602084013e61065a565b606091505b50509050806106ab5760405162461bcd60e51b815260206004820181905260248201527f416374697665506f6f6c3a2073656e64696e67205374455448206661696c65646044820152606401610381565b505050565b6106b86107c8565b6001600160a01b03811661071d5760405162461bcd60e51b815260206004820152602660248201527f4f776e61626c653a206e6577206f776e657220697320746865207a65726f206160448201526564647265737360d01b6064820152608401610381565b610726816108cb565b50565b6001546001600160a01b031633148061074c57506002546001600160a01b031633145b61038a5760405162461bcd60e51b815260206004820152604160248201527f416374697665506f6f6c3a2043616c6c6572206973206e65697468657220426f60448201527f72726f7765724f7065726174696f6e73206e6f722054726f76654d616e6167656064820152603960f91b608482015260a401610381565b6000546001600160a01b0316331461038a5760405162461bcd60e51b815260206004820181905260248201527f4f776e61626c653a2063616c6c6572206973206e6f7420746865206f776e65726044820152606401610381565b6001600160a01b0381166108785760405162461bcd60e51b815260206004820152601e60248201527f4163636f756e742063616e6e6f74206265207a65726f206164647265737300006044820152606401610381565b803b806108c75760405162461bcd60e51b815260206004820181905260248201527f4163636f756e7420636f64652073697a652063616e6e6f74206265207a65726f6044820152606401610381565b5050565b600080546001600160a01b038381166001600160a01b0319831681178455604051919092169283917f8be0079c531659141344cd1fd0a4f28419497f9722a3daafe3b4186f6b6457e09190a35050565b6001546001600160a01b031633148061093e57506002546001600160a01b031633145b8061095357506003546001600160a01b031633145b61038a5760405162461bcd60e51b815260206004820152605360248201527f416374697665506f6f6c3a2043616c6c6572206973206e65697468657220426f60448201527f72726f7765724f7065726174696f6e73206e6f722054726f76654d616e6167656064820152721c881b9bdc8814dd18589a5b1a5d1e541bdbdb606a1b608482015260a401610381565b60006103988284610b46565b6001600160a01b0391909116815260200190565b600060208284031215610a1357600080fd5b5035919050565b80356001600160a01b0381168114610a3157600080fd5b919050565b60008060008060808587031215610a4c57600080fd5b610a5585610a1a565b9350610a6360208601610a1a565b9250610a7160408601610a1a565b9150610a7f60608601610a1a565b905092959194509250565b600060208083528351808285015260005b81811015610ab757858101830151858201604001528201610a9b565b506000604082860101526040601f19601f8301168501019250505092915050565b60008060408385031215610aeb57600080fd5b610af483610a1a565b946020939093013593505050565b600060208284031215610b1457600080fd5b61039882610a1a565b634e487b7160e01b600052601160045260246000fd5b8082018082111561039b5761039b610b1d565b8181038181111561039b5761039b610b1d56fea2646970667358221220567866dc3f3765f19d1a83f58ed4f570dc72942022d426e89dee4f2eadb2cb2364736f6c63430008130033",
  "devdoc": {
    "kind": "dev",
    "methods": {
      "owner()": {
        "details": "Returns the address of the current owner."
      },
      "renounceOwnership()": {
        "details": "Leaves the contract without owner. It will not be possible to call `onlyOwner` functions. Can only be called by the current owner. NOTE: Renouncing ownership will leave the contract without an owner, thereby disabling any functionality that is only available to the owner."
      },
      "transferOwnership(address)": {
        "details": "Transfers ownership of the contract to a new account (`newOwner`). Can only be called by the current owner."
      }
    },
    "version": 1
  },
  "userdoc": {
    "kind": "user",
    "methods": {},
    "notice": "Fork of Liquity's Active Pool. Logic remains unchanged. Changes to the contract: - Raised pragma version - Removed an import of ActivePool Interface - Updated variable names and docs to refer to BaseFeeLMA token and stEth as a collateral Even though SafeMath is no longer required, the decision was made to keep it to avoid human factor errors The Active Pool holds the stStETH collateral and BaseFeeLMA debt (but not BaseFeeLMA tokens) for all active troves. When a trove is liquidated, it's stStETH and BaseFeeLMA debt are transferred from the Active Pool, to either the Stability Pool, the Default Pool, or both, depending on the liquidation conditions.",
    "version": 1
  },
  "storageLayout": {
    "storage": [
      {
        "astId": 7,
        "contract": "contracts/ActivePool.sol:ActivePool",
        "label": "_owner",
        "offset": 0,
        "slot": "0",
        "type": "t_address"
      },
      {
        "astId": 546,
        "contract": "contracts/ActivePool.sol:ActivePool",
        "label": "borrowerOperationsAddress",
        "offset": 0,
        "slot": "1",
        "type": "t_address"
      },
      {
        "astId": 548,
        "contract": "contracts/ActivePool.sol:ActivePool",
        "label": "troveManagerAddress",
        "offset": 0,
        "slot": "2",
        "type": "t_address"
      },
      {
        "astId": 550,
        "contract": "contracts/ActivePool.sol:ActivePool",
        "label": "stabilityPoolAddress",
        "offset": 0,
        "slot": "3",
        "type": "t_address"
      },
      {
        "astId": 552,
        "contract": "contracts/ActivePool.sol:ActivePool",
        "label": "defaultPoolAddress",
        "offset": 0,
        "slot": "4",
        "type": "t_address"
      },
      {
        "astId": 554,
        "contract": "contracts/ActivePool.sol:ActivePool",
        "label": "StETH",
        "offset": 0,
        "slot": "5",
        "type": "t_uint256"
      },
      {
        "astId": 556,
        "contract": "contracts/ActivePool.sol:ActivePool",
        "label": "BaseFeeLMADebt",
        "offset": 0,
        "slot": "6",
        "type": "t_uint256"
      }
    ],
    "types": {
      "t_address": {
        "encoding": "inplace",
        "label": "address",
        "numberOfBytes": "20"
      },
      "t_uint256": {
        "encoding": "inplace",
        "label": "uint256",
        "numberOfBytes": "32"
      }
    }
  }
}