{
  "address": "0x2F81c2D71F9957A4164f761ec37CB08Ac64DEA91",
  "abi": [
    {
      "anonymous": false,
      "inputs": [
        {
          "indexed": true,
          "internalType": "address",
          "name": "previousOwner",
          "type": "address"
        },
        {
          "indexed": true,
          "internalType": "address",
          "name": "newOwner",
          "type": "address"
        }
      ],
      "name": "OwnershipTransferred",
      "type": "event"
    },
    {
      "anonymous": false,
      "inputs": [
        {
          "indexed": false,
          "internalType": "address",
          "name": "_sortedTrovesAddress",
          "type": "address"
        }
      ],
      "name": "SortedTrovesAddressChanged",
      "type": "event"
    },
    {
      "anonymous": false,
      "inputs": [
        {
          "indexed": false,
          "internalType": "address",
          "name": "_troveManagerAddress",
          "type": "address"
        }
      ],
      "name": "TroveManagerAddressChanged",
      "type": "event"
    },
    {
      "inputs": [],
      "name": "BORROWING_FEE_FLOOR",
      "outputs": [
        {
          "internalType": "uint256",
          "name": "",
          "type": "uint256"
        }
      ],
      "stateMutability": "view",
      "type": "function"
    },
    {
      "inputs": [],
      "name": "BaseFeeLMA_GAS_COMPENSATION",
      "outputs": [
        {
          "internalType": "uint256",
          "name": "",
          "type": "uint256"
        }
      ],
      "stateMutability": "view",
      "type": "function"
    },
    {
      "inputs": [],
      "name": "CCR",
      "outputs": [
        {
          "internalType": "uint256",
          "name": "",
          "type": "uint256"
        }
      ],
      "stateMutability": "view",
      "type": "function"
    },
    {
      "inputs": [],
      "name": "DECIMAL_PRECISION",
      "outputs": [
        {
          "internalType": "uint256",
          "name": "",
          "type": "uint256"
        }
      ],
      "stateMutability": "view",
      "type": "function"
    },
    {
      "inputs": [],
      "name": "MCR",
      "outputs": [
        {
          "internalType": "uint256",
          "name": "",
          "type": "uint256"
        }
      ],
      "stateMutability": "view",
      "type": "function"
    },
    {
      "inputs": [],
      "name": "MIN_NET_DEBT",
      "outputs": [
        {
          "internalType": "uint256",
          "name": "",
          "type": "uint256"
        }
      ],
      "stateMutability": "view",
      "type": "function"
    },
    {
      "inputs": [],
      "name": "NAME",
      "outputs": [
        {
          "internalType": "string",
          "name": "",
          "type": "string"
        }
      ],
      "stateMutability": "view",
      "type": "function"
    },
    {
      "inputs": [],
      "name": "PERCENT_DIVISOR",
      "outputs": [
        {
          "internalType": "uint256",
          "name": "",
          "type": "uint256"
        }
      ],
      "stateMutability": "view",
      "type": "function"
    },
    {
      "inputs": [],
      "name": "_100pct",
      "outputs": [
        {
          "internalType": "uint256",
          "name": "",
          "type": "uint256"
        }
      ],
      "stateMutability": "view",
      "type": "function"
    },
    {
      "inputs": [],
      "name": "activePool",
      "outputs": [
        {
          "internalType": "contract IActivePool",
          "name": "",
          "type": "address"
        }
      ],
      "stateMutability": "view",
      "type": "function"
    },
    {
      "inputs": [
        {
          "internalType": "uint256",
          "name": "_coll",
          "type": "uint256"
        },
        {
          "internalType": "uint256",
          "name": "_debt",
          "type": "uint256"
        },
        {
          "internalType": "uint256",
          "name": "_price",
          "type": "uint256"
        }
      ],
      "name": "computeCR",
      "outputs": [
        {
          "internalType": "uint256",
          "name": "",
          "type": "uint256"
        }
      ],
      "stateMutability": "pure",
      "type": "function"
    },
    {
      "inputs": [
        {
          "internalType": "uint256",
          "name": "_coll",
          "type": "uint256"
        },
        {
          "internalType": "uint256",
          "name": "_debt",
          "type": "uint256"
        }
      ],
      "name": "computeNominalCR",
      "outputs": [
        {
          "internalType": "uint256",
          "name": "",
          "type": "uint256"
        }
      ],
      "stateMutability": "pure",
      "type": "function"
    },
    {
      "inputs": [],
      "name": "defaultPool",
      "outputs": [
        {
          "internalType": "contract IDefaultPool",
          "name": "",
          "type": "address"
        }
      ],
      "stateMutability": "view",
      "type": "function"
    },
    {
      "inputs": [
        {
          "internalType": "uint256",
          "name": "_CR",
          "type": "uint256"
        },
        {
          "internalType": "uint256",
          "name": "_numTrials",
          "type": "uint256"
        },
        {
          "internalType": "uint256",
          "name": "_inputRandomSeed",
          "type": "uint256"
        }
      ],
      "name": "getApproxHint",
      "outputs": [
        {
          "internalType": "address",
          "name": "hintAddress",
          "type": "address"
        },
        {
          "internalType": "uint256",
          "name": "diff",
          "type": "uint256"
        },
        {
          "internalType": "uint256",
          "name": "latestRandomSeed",
          "type": "uint256"
        }
      ],
      "stateMutability": "view",
      "type": "function"
    },
    {
      "inputs": [],
      "name": "getEntireSystemColl",
      "outputs": [
        {
          "internalType": "uint256",
          "name": "entireSystemColl",
          "type": "uint256"
        }
      ],
      "stateMutability": "view",
      "type": "function"
    },
    {
      "inputs": [],
      "name": "getEntireSystemDebt",
      "outputs": [
        {
          "internalType": "uint256",
          "name": "entireSystemDebt",
          "type": "uint256"
        }
      ],
      "stateMutability": "view",
      "type": "function"
    },
    {
      "inputs": [
        {
          "internalType": "uint256",
          "name": "_BaseFeeLMAamount",
          "type": "uint256"
        },
        {
          "internalType": "uint256",
          "name": "_price",
          "type": "uint256"
        },
        {
          "internalType": "uint256",
          "name": "_maxIterations",
          "type": "uint256"
        }
      ],
      "name": "getRedemptionHints",
      "outputs": [
        {
          "internalType": "address",
          "name": "firstRedemptionHint",
          "type": "address"
        },
        {
          "internalType": "uint256",
          "name": "partialRedemptionHintNICR",
          "type": "uint256"
        },
        {
          "internalType": "uint256",
          "name": "truncatedBaseFeeLMAamount",
          "type": "uint256"
        }
      ],
      "stateMutability": "view",
      "type": "function"
    },
    {
      "inputs": [],
      "name": "owner",
      "outputs": [
        {
          "internalType": "address",
          "name": "",
          "type": "address"
        }
      ],
      "stateMutability": "view",
      "type": "function"
    },
    {
      "inputs": [],
      "name": "priceFeed",
      "outputs": [
        {
          "internalType": "contract IPriceFeed",
          "name": "",
          "type": "address"
        }
      ],
      "stateMutability": "view",
      "type": "function"
    },
    {
      "inputs": [],
      "name": "renounceOwnership",
      "outputs": [],
      "stateMutability": "nonpayable",
      "type": "function"
    },
    {
      "inputs": [
        {
          "internalType": "address",
          "name": "_sortedTrovesAddress",
          "type": "address"
        },
        {
          "internalType": "address",
          "name": "_troveManagerAddress",
          "type": "address"
        }
      ],
      "name": "setAddresses",
      "outputs": [],
      "stateMutability": "nonpayable",
      "type": "function"
    },
    {
      "inputs": [],
      "name": "sortedTroves",
      "outputs": [
        {
          "internalType": "contract ISortedTroves",
          "name": "",
          "type": "address"
        }
      ],
      "stateMutability": "view",
      "type": "function"
    },
    {
      "inputs": [
        {
          "internalType": "address",
          "name": "newOwner",
          "type": "address"
        }
      ],
      "name": "transferOwnership",
      "outputs": [],
      "stateMutability": "nonpayable",
      "type": "function"
    },
    {
      "inputs": [],
      "name": "troveManager",
      "outputs": [
        {
          "internalType": "contract ITroveManager",
          "name": "",
          "type": "address"
        }
      ],
      "stateMutability": "view",
      "type": "function"
    }
  ],
  "transactionHash": "0xf97cfb9a1107aaab6b3fe4e52ab9600a6d7e9627abfd66413174b48485601440",
  "args": [],
  "numDeployments": 1,
  "solcInputHash": "14e00fec193fcdb0d0eb70e8bcb85753",
  "bytecode": "0x608060405234801561001057600080fd5b5061001a3361001f565b610071565b600380546001600160a01b038381166001600160a01b0319831681179093556040519116919082907f8be0079c531659141344cd1fd0a4f28419497f9722a3daafe3b4186f6b6457e090600090a35050565b6112f2806100806000396000f3fe608060405234801561001057600080fd5b50600436106101585760003560e01c80637b41bdbe116100c3578063a20baee61161007c578063a20baee61461021f578063a3f4df7e146102ba578063ae918754146102f1578063c394a7fa14610304578063f2fde38b14610317578063f92d34331461032a57600080fd5b80637b41bdbe146102585780637f7dde4a1461026b578063887105d31461027e5780638da5cb5b1461028657806390107afe14610297578063a2014152146102aa57600080fd5b80635733d58f116101155780635733d58f14610206578063715018a61461021557806372fe25aa1461021f578063741bef1a1461022e578063794e572414610241578063795d26c31461025057600080fd5b806313144dba1461015d5780631bf435551461019a5780633cc74225146101b85780633d83908a146101d85780634870dd9a146101eb578063525acdbb146101f3575b600080fd5b61017061016b3660046110aa565b610332565b604080516001600160a01b0390941684526020840192909252908201526060015b60405180910390f35b6101aa686194049f30f720000081565b604051908152602001610191565b6001546101cb906001600160a01b031681565b60405161019191906110d6565b6005546101cb906001600160a01b031681565b6101aa60c881565b6101aa6102013660046110aa565b61081b565b6101aa6714d1120d7b16000081565b61021d610832565b005b6101aa670de0b6b3a764000081565b6002546101cb906001600160a01b031681565b6101aa670f43fc2c04ee000081565b6101aa610846565b6101706102663660046110aa565b610942565b6000546101cb906001600160a01b031681565b6101aa610c2e565b6003546001600160a01b03166101cb565b61021d6102a53660046110ff565b610cf3565b6101aa680ad78ebc5ac620000081565b6102e46040518060400160405280600b81526020016a48696e7448656c7065727360a81b81525081565b6040516101919190611138565b6004546101cb906001600160a01b031681565b6101aa610312366004611186565b610db8565b61021d6103253660046111a8565b610dcd565b6101aa610e4b565b6004805460408051634d62283160e01b81529051600093849384936001600160a01b0390911692899285928592634d622831928281019260209291908290030181865afa158015610387573d6000803e3d6000fd5b505050506040513d601f19601f820116820180604052508101906103ab91906111c5565b90505b6001600160a01b038116158015906104405750600554604051630d293c7160e41b81526001600160a01b038381166004830152602482018b9052670f43fc2c04ee000092169063d293c71090604401602060405180830381865afa15801561041a573d6000803e3d6000fd5b505050506040513d601f19601f8201168201806040525081019061043e91906111e2565b105b156104b957604051632dc9c0eb60e21b81526001600160a01b0384169063b72703ac906104719084906004016110d6565b602060405180830381865afa15801561048e573d6000803e3d6000fd5b505050506040513d601f19601f820116820180604052508101906104b291906111c5565b90506103ae565b809550866000036104ca5760001996505b6001600160a01b038116158015906104e25750600082115b80156104f957506000876104f581611211565b9850115b1561080357600554604051630c08ff5f60e01b81526000916105f4916001600160a01b0390911690630c08ff5f906105359086906004016110d6565b602060405180830381865afa158015610552573d6000803e3d6000fd5b505050506040513d601f19601f8201168201806040525081019061057691906111e2565b60055460405163d66a255360e01b81526105ee916001600160a01b03169063d66a2553906105a89088906004016110d6565b602060405180830381865afa1580156105c5573d6000803e3d6000fd5b505050506040513d601f19601f820116820180604052508101906105e991906111e2565b610e6d565b90610e82565b90508281111561078257686194049f30f720000081111561077c57600061062d8461062884686194049f30f7200000610e8e565b610e9a565b60055460405163130389e960e31b8152919250600091610717916001600160a01b03169063981c4f48906106659088906004016110d6565b602060405180830381865afa158015610682573d6000803e3d6000fd5b505050506040513d601f19601f820116820180604052508101906106a691906111e2565b6005546040516309019aaf60e31b81526001600160a01b039091169063480cd578906106d69089906004016110d6565b602060405180830381865afa1580156106f3573d6000803e3d6000fd5b505050506040513d601f19601f820116820180604052508101906105ee91906111e2565b9050600061074161073a8d61073486670de0b6b3a7640000610eb0565b90610ebc565b8390610e8e565b9050600061074f8585610e8e565b9050600061075c82610ec8565b90506107688382610edd565b9a506107748886610e8e565b975050505050505b50610803565b61078c8382610e8e565b9250604051632dc9c0eb60e21b81526001600160a01b0385169063b72703ac906107ba9085906004016110d6565b602060405180830381865afa1580156107d7573d6000803e3d6000fd5b505050506040513d601f19601f820116820180604052508101906107fb91906111c5565b9150506104ca565b61080d8983610e8e565b935050505093509350939050565b6000610828848484610f0c565b90505b9392505050565b61083a610f36565b6108446000610f90565b565b60008054604080516315b3137b60e21b8152905183926001600160a01b0316916356cc4dec9160048083019260209291908290030181865afa158015610890573d6000803e3d6000fd5b505050506040513d601f19601f820116820180604052508101906108b491906111e2565b90506000600160009054906101000a90046001600160a01b03166001600160a01b03166356cc4dec6040518163ffffffff1660e01b8152600401602060405180830381865afa15801561090b573d6000803e3d6000fd5b505050506040513d601f19601f8201168201806040525081019061092f91906111e2565b905061093b8282610e82565b9250505090565b600080600080600560009054906101000a90046001600160a01b03166001600160a01b03166349eefeee6040518163ffffffff1660e01b8152600401602060405180830381865afa15801561099b573d6000803e3d6000fd5b505050506040513d601f19601f820116820180604052508101906109bf91906111e2565b9050806000036109d9576000808693509350935050610c25565b6004805460408051634d62283160e01b815290516001600160a01b0390921692634d6228319282820192602092908290030181865afa158015610a20573d6000803e3d6000fd5b505050506040513d601f19601f82011682018060405250810190610a4491906111c5565b60055460405163b0d8e18160e01b8152919550610ac19189916001600160a01b03169063b0d8e18190610a7b9089906004016110d6565b602060405180830381865afa158015610a98573d6000803e3d6000fd5b505050506040513d601f19601f82011682018060405250810190610abc91906111e2565b610fe2565b925084915060015b86811015610c225760408051602081018590520160408051601f19818403018152919052805160209091012092506000610b03838561123e565b600554604051633669c91160e21b8152600481018390529192506000916001600160a01b039091169063d9a7244490602401602060405180830381865afa158015610b52573d6000803e3d6000fd5b505050506040513d601f19601f82011682018060405250810190610b7691906111c5565b60055460405163b0d8e18160e01b81529192506000916001600160a01b039091169063b0d8e18190610bac9085906004016110d6565b602060405180830381865afa158015610bc9573d6000803e3d6000fd5b505050506040513d601f19601f82011682018060405250810190610bed91906111e2565b90506000610bfb828d610fe2565b905087811015610c0c578097508298505b84610c1681611252565b95505050505050610ac9565b50505b93509350939050565b600080546040805163a2f0398360e01b8152905183926001600160a01b03169163a2f039839160048083019260209291908290030181865afa158015610c78573d6000803e3d6000fd5b505050506040513d601f19601f82011682018060405250810190610c9c91906111e2565b90506000600160009054906101000a90046001600160a01b03166001600160a01b031663a2f039836040518163ffffffff1660e01b8152600401602060405180830381865afa15801561090b573d6000803e3d6000fd5b610cfb610f36565b610d0482611005565b610d0d81611005565b600480546001600160a01b038085166001600160a01b03199283161790925560058054928416929091169190911790556040517f65f4cf077bc01e4742eb5ad98326f6e95b63548ea24b17f8d5e823111fe7880090610d6d9084906110d6565b60405180910390a17f143219c9e69b09e07e095fcc889b43d8f46ca892bba65f08dc3a0050869a567881604051610da491906110d6565b60405180910390a1610db4610832565b5050565b6000610dc48383610edd565b90505b92915050565b610dd5610f36565b6001600160a01b038116610e3f5760405162461bcd60e51b815260206004820152602660248201527f4f776e61626c653a206e6577206f776e657220697320746865207a65726f206160448201526564647265737360d01b60648201526084015b60405180910390fd5b610e4881610f90565b50565b610e5f6103e8670de0b6b3a764000061126b565b610e6a90600561127f565b81565b6000610dc782680ad78ebc5ac6200000610e8e565b6000610dc48284611296565b6000610dc482846112a9565b6000818310610ea95781610dc4565b5090919050565b6000610dc4828461127f565b6000610dc4828461126b565b6000610dc782680ad78ebc5ac6200000610e82565b60008115610f0357610efc826107348568056bc75e2d63100000610eb0565b9050610dc7565b50600019610dc7565b60008215610f2d576000610f24846107348786610eb0565b915061082b9050565b5060001961082b565b6003546001600160a01b031633146108445760405162461bcd60e51b815260206004820181905260248201527f4f776e61626c653a2063616c6c6572206973206e6f7420746865206f776e65726044820152606401610e36565b600380546001600160a01b038381166001600160a01b0319831681179093556040519116919082907f8be0079c531659141344cd1fd0a4f28419497f9722a3daafe3b4186f6b6457e090600090a35050565b600081831015610ffb57610ff68284610e8e565b610dc4565b610dc48383610e8e565b6001600160a01b03811661105b5760405162461bcd60e51b815260206004820152601e60248201527f4163636f756e742063616e6e6f74206265207a65726f206164647265737300006044820152606401610e36565b803b80610db45760405162461bcd60e51b815260206004820181905260248201527f4163636f756e7420636f64652073697a652063616e6e6f74206265207a65726f6044820152606401610e36565b6000806000606084860312156110bf57600080fd5b505081359360208301359350604090920135919050565b6001600160a01b0391909116815260200190565b6001600160a01b0381168114610e4857600080fd5b6000806040838503121561111257600080fd5b823561111d816110ea565b9150602083013561112d816110ea565b809150509250929050565b600060208083528351808285015260005b8181101561116557858101830151858201604001528201611149565b506000604082860101526040601f19601f8301168501019250505092915050565b6000806040838503121561119957600080fd5b50508035926020909101359150565b6000602082840312156111ba57600080fd5b813561082b816110ea565b6000602082840312156111d757600080fd5b815161082b816110ea565b6000602082840312156111f457600080fd5b5051919050565b634e487b7160e01b600052601160045260246000fd5b600081611220576112206111fb565b506000190190565b634e487b7160e01b600052601260045260246000fd5b60008261124d5761124d611228565b500690565b600060018201611264576112646111fb565b5060010190565b60008261127a5761127a611228565b500490565b8082028115828204841417610dc757610dc76111fb565b80820180821115610dc757610dc76111fb565b81810381811115610dc757610dc76111fb56fea26469706673582212205c4e3dda33929960be7afca88f91a4a4e95bbdba6aee93abe983c12b51620ee364736f6c63430008130033",
  "devdoc": {
    "kind": "dev",
    "methods": {
      "owner()": {
        "details": "Returns the address of the current owner."
      },
      "renounceOwnership()": {
        "details": "Leaves the contract without owner. It will not be possible to call `onlyOwner` functions. Can only be called by the current owner. NOTE: Renouncing ownership will leave the contract without an owner, thereby disabling any functionality that is only available to the owner."
      },
      "transferOwnership(address)": {
        "details": "Transfers ownership of the contract to a new account (`newOwner`). Can only be called by the current owner."
      }
    },
    "version": 1
  },
  "userdoc": {
    "kind": "user",
    "methods": {},
    "version": 1
  },
  "storageLayout": {
    "storage": [
      {
        "astId": 1038,
        "contract": "contracts/HintHelpers.sol:HintHelpers",
        "label": "activePool",
        "offset": 0,
        "slot": "0",
        "type": "t_contract(IActivePool)11505"
      },
      {
        "astId": 1041,
        "contract": "contracts/HintHelpers.sol:HintHelpers",
        "label": "defaultPool",
        "offset": 0,
        "slot": "1",
        "type": "t_contract(IDefaultPool)11587"
      },
      {
        "astId": 1045,
        "contract": "contracts/HintHelpers.sol:HintHelpers",
        "label": "priceFeed",
        "offset": 0,
        "slot": "2",
        "type": "t_contract(IPriceFeed)11824"
      },
      {
        "astId": 7,
        "contract": "contracts/HintHelpers.sol:HintHelpers",
        "label": "_owner",
        "offset": 0,
        "slot": "3",
        "type": "t_address"
      },
      {
        "astId": 546,
        "contract": "contracts/HintHelpers.sol:HintHelpers",
        "label": "sortedTroves",
        "offset": 0,
        "slot": "4",
        "type": "t_contract(ISortedTroves)11956"
      },
      {
        "astId": 549,
        "contract": "contracts/HintHelpers.sol:HintHelpers",
        "label": "troveManager",
        "offset": 0,
        "slot": "5",
        "type": "t_contract(ITroveManager)12629"
      }
    ],
    "types": {
      "t_address": {
        "encoding": "inplace",
        "label": "address",
        "numberOfBytes": "20"
      },
      "t_contract(IActivePool)11505": {
        "encoding": "inplace",
        "label": "contract IActivePool",
        "numberOfBytes": "20"
      },
      "t_contract(IDefaultPool)11587": {
        "encoding": "inplace",
        "label": "contract IDefaultPool",
        "numberOfBytes": "20"
      },
      "t_contract(IPriceFeed)11824": {
        "encoding": "inplace",
        "label": "contract IPriceFeed",
        "numberOfBytes": "20"
      },
      "t_contract(ISortedTroves)11956": {
        "encoding": "inplace",
        "label": "contract ISortedTroves",
        "numberOfBytes": "20"
      },
      "t_contract(ITroveManager)12629": {
        "encoding": "inplace",
        "label": "contract ITroveManager",
        "numberOfBytes": "20"
      }
    }
  }
}