{
  "address": "0xFda17F6078C037e5835bf042E09Ce9123FB27495",
  "abi": [
    {
      "anonymous": false,
      "inputs": [
        {
          "indexed": false,
          "internalType": "address",
          "name": "_activePoolAddress",
          "type": "address"
        }
      ],
      "name": "ActivePoolAddressSet",
      "type": "event"
    },
    {
      "anonymous": false,
      "inputs": [
        {
          "indexed": false,
          "internalType": "address",
          "name": "_baseFeeLMATokenAddress",
          "type": "address"
        }
      ],
      "name": "BaseFeeLMATokenAddressSet",
      "type": "event"
    },
    {
      "anonymous": false,
      "inputs": [
        {
          "indexed": false,
          "internalType": "address",
          "name": "_borrowerOperationsAddress",
          "type": "address"
        }
      ],
      "name": "BorrowerOperationsAddressSet",
      "type": "event"
    },
    {
      "anonymous": false,
      "inputs": [
        {
          "indexed": false,
          "internalType": "uint256",
          "name": "_F_BaseFeeLMA",
          "type": "uint256"
        }
      ],
      "name": "F_BaseFeeLMAUpdated",
      "type": "event"
    },
    {
      "anonymous": false,
      "inputs": [
        {
          "indexed": false,
          "internalType": "uint256",
          "name": "_F_StETH",
          "type": "uint256"
        }
      ],
      "name": "F_StETHUpdated",
      "type": "event"
    },
    {
      "anonymous": false,
      "inputs": [
        {
          "indexed": false,
          "internalType": "address",
          "name": "_hogTokenAddress",
          "type": "address"
        }
      ],
      "name": "HOGTokenAddressSet",
      "type": "event"
    },
    {
      "anonymous": false,
      "inputs": [
        {
          "indexed": true,
          "internalType": "address",
          "name": "previousOwner",
          "type": "address"
        },
        {
          "indexed": true,
          "internalType": "address",
          "name": "newOwner",
          "type": "address"
        }
      ],
      "name": "OwnershipTransferred",
      "type": "event"
    },
    {
      "anonymous": false,
      "inputs": [
        {
          "indexed": false,
          "internalType": "address",
          "name": "_account",
          "type": "address"
        },
        {
          "indexed": false,
          "internalType": "uint256",
          "name": "_amount",
          "type": "uint256"
        }
      ],
      "name": "StETHSent",
      "type": "event"
    },
    {
      "anonymous": false,
      "inputs": [
        {
          "indexed": true,
          "internalType": "address",
          "name": "staker",
          "type": "address"
        },
        {
          "indexed": false,
          "internalType": "uint256",
          "name": "newStake",
          "type": "uint256"
        }
      ],
      "name": "StakeChanged",
      "type": "event"
    },
    {
      "anonymous": false,
      "inputs": [
        {
          "indexed": false,
          "internalType": "address",
          "name": "_staker",
          "type": "address"
        },
        {
          "indexed": false,
          "internalType": "uint256",
          "name": "_F_StETH",
          "type": "uint256"
        },
        {
          "indexed": false,
          "internalType": "uint256",
          "name": "_F_BaseFeeLMA",
          "type": "uint256"
        }
      ],
      "name": "StakerSnapshotsUpdated",
      "type": "event"
    },
    {
      "anonymous": false,
      "inputs": [
        {
          "indexed": true,
          "internalType": "address",
          "name": "staker",
          "type": "address"
        },
        {
          "indexed": false,
          "internalType": "uint256",
          "name": "BaseFeeLMAGain",
          "type": "uint256"
        },
        {
          "indexed": false,
          "internalType": "uint256",
          "name": "StETHGain",
          "type": "uint256"
        }
      ],
      "name": "StakingGainsWithdrawn",
      "type": "event"
    },
    {
      "anonymous": false,
      "inputs": [
        {
          "indexed": false,
          "internalType": "uint256",
          "name": "_totalHOGStaked",
          "type": "uint256"
        }
      ],
      "name": "TotalHOGStakedUpdated",
      "type": "event"
    },
    {
      "anonymous": false,
      "inputs": [
        {
          "indexed": false,
          "internalType": "address",
          "name": "_troveManager",
          "type": "address"
        }
      ],
      "name": "TroveManagerAddressSet",
      "type": "event"
    },
    {
      "inputs": [],
      "name": "DECIMAL_PRECISION",
      "outputs": [
        {
          "internalType": "uint256",
          "name": "",
          "type": "uint256"
        }
      ],
      "stateMutability": "view",
      "type": "function"
    },
    {
      "inputs": [],
      "name": "F_BaseFeeLMA",
      "outputs": [
        {
          "internalType": "uint256",
          "name": "",
          "type": "uint256"
        }
      ],
      "stateMutability": "view",
      "type": "function"
    },
    {
      "inputs": [],
      "name": "F_StETH",
      "outputs": [
        {
          "internalType": "uint256",
          "name": "",
          "type": "uint256"
        }
      ],
      "stateMutability": "view",
      "type": "function"
    },
    {
      "inputs": [],
      "name": "NAME",
      "outputs": [
        {
          "internalType": "string",
          "name": "",
          "type": "string"
        }
      ],
      "stateMutability": "view",
      "type": "function"
    },
    {
      "inputs": [],
      "name": "activePoolAddress",
      "outputs": [
        {
          "internalType": "address",
          "name": "",
          "type": "address"
        }
      ],
      "stateMutability": "view",
      "type": "function"
    },
    {
      "inputs": [],
      "name": "baseFeeLMAToken",
      "outputs": [
        {
          "internalType": "contract IBaseFeeLMAToken",
          "name": "",
          "type": "address"
        }
      ],
      "stateMutability": "view",
      "type": "function"
    },
    {
      "inputs": [],
      "name": "borrowerOperationsAddress",
      "outputs": [
        {
          "internalType": "address",
          "name": "",
          "type": "address"
        }
      ],
      "stateMutability": "view",
      "type": "function"
    },
    {
      "inputs": [
        {
          "internalType": "address",
          "name": "_user",
          "type": "address"
        }
      ],
      "name": "getPendingBaseFeeLMAGain",
      "outputs": [
        {
          "internalType": "uint256",
          "name": "",
          "type": "uint256"
        }
      ],
      "stateMutability": "view",
      "type": "function"
    },
    {
      "inputs": [
        {
          "internalType": "address",
          "name": "_user",
          "type": "address"
        }
      ],
      "name": "getPendingStETHGain",
      "outputs": [
        {
          "internalType": "uint256",
          "name": "",
          "type": "uint256"
        }
      ],
      "stateMutability": "view",
      "type": "function"
    },
    {
      "inputs": [],
      "name": "hogToken",
      "outputs": [
        {
          "internalType": "contract IHOGToken",
          "name": "",
          "type": "address"
        }
      ],
      "stateMutability": "view",
      "type": "function"
    },
    {
      "inputs": [
        {
          "internalType": "uint256",
          "name": "_BaseFeeLMAFee",
          "type": "uint256"
        }
      ],
      "name": "increaseF_BaseFeeLMA",
      "outputs": [],
      "stateMutability": "nonpayable",
      "type": "function"
    },
    {
      "inputs": [
        {
          "internalType": "uint256",
          "name": "_StETHFee",
          "type": "uint256"
        }
      ],
      "name": "increaseF_StETH",
      "outputs": [],
      "stateMutability": "nonpayable",
      "type": "function"
    },
    {
      "inputs": [],
      "name": "owner",
      "outputs": [
        {
          "internalType": "address",
          "name": "",
          "type": "address"
        }
      ],
      "stateMutability": "view",
      "type": "function"
    },
    {
      "inputs": [],
      "name": "renounceOwnership",
      "outputs": [],
      "stateMutability": "nonpayable",
      "type": "function"
    },
    {
      "inputs": [
        {
          "internalType": "address",
          "name": "_hogTokenAddress",
          "type": "address"
        },
        {
          "internalType": "address",
          "name": "_baseFeeLMATokenAddress",
          "type": "address"
        },
        {
          "internalType": "address",
          "name": "_troveManagerAddress",
          "type": "address"
        },
        {
          "internalType": "address",
          "name": "_borrowerOperationsAddress",
          "type": "address"
        },
        {
          "internalType": "address",
          "name": "_activePoolAddress",
          "type": "address"
        }
      ],
      "name": "setAddresses",
      "outputs": [],
      "stateMutability": "nonpayable",
      "type": "function"
    },
    {
      "inputs": [
        {
          "internalType": "address",
          "name": "",
          "type": "address"
        }
      ],
      "name": "snapshots",
      "outputs": [
        {
          "internalType": "uint256",
          "name": "F_StETH_Snapshot",
          "type": "uint256"
        },
        {
          "internalType": "uint256",
          "name": "F_BaseFeeLMA_Snapshot",
          "type": "uint256"
        }
      ],
      "stateMutability": "view",
      "type": "function"
    },
    {
      "inputs": [
        {
          "internalType": "uint256",
          "name": "_HOGamount",
          "type": "uint256"
        }
      ],
      "name": "stake",
      "outputs": [],
      "stateMutability": "nonpayable",
      "type": "function"
    },
    {
      "inputs": [
        {
          "internalType": "address",
          "name": "",
          "type": "address"
        }
      ],
      "name": "stakes",
      "outputs": [
        {
          "internalType": "uint256",
          "name": "",
          "type": "uint256"
        }
      ],
      "stateMutability": "view",
      "type": "function"
    },
    {
      "inputs": [],
      "name": "totalHOGStaked",
      "outputs": [
        {
          "internalType": "uint256",
          "name": "",
          "type": "uint256"
        }
      ],
      "stateMutability": "view",
      "type": "function"
    },
    {
      "inputs": [
        {
          "internalType": "address",
          "name": "newOwner",
          "type": "address"
        }
      ],
      "name": "transferOwnership",
      "outputs": [],
      "stateMutability": "nonpayable",
      "type": "function"
    },
    {
      "inputs": [],
      "name": "troveManagerAddress",
      "outputs": [
        {
          "internalType": "address",
          "name": "",
          "type": "address"
        }
      ],
      "stateMutability": "view",
      "type": "function"
    },
    {
      "inputs": [
        {
          "internalType": "uint256",
          "name": "_HOGamount",
          "type": "uint256"
        }
      ],
      "name": "unstake",
      "outputs": [],
      "stateMutability": "nonpayable",
      "type": "function"
    },
    {
      "stateMutability": "payable",
      "type": "receive"
    }
  ],
  "transactionHash": "0xbfb12134d1eb25e5c65a6b0e9da132efa0c599fe6e486e028acc8657019cc6b5",
  "args": [],
  "numDeployments": 1,
  "solcInputHash": "38c8dd2ed2953f011d2e7e97384dc754",
  "bytecode": "0x608060405234801561001057600080fd5b5061001a3361001f565b61006f565b600080546001600160a01b038381166001600160a01b0319831681178455604051919092169283917f8be0079c531659141344cd1fd0a4f28419497f9722a3daafe3b4186f6b6457e09190a35050565b61133f8061007e6000396000f3fe6080604052600436106101395760003560e01c8063a20baee6116100ab578063b307829d1161006f578063b307829d146103ab578063b7f8cf9b146103cb578063c0e452de146103eb578063e5372b771461040b578063f2fde38b14610421578063f57fcb4e1461044157600080fd5b8063a20baee6146102f6578063a3f4df7e14610312578063a4ac46f914610355578063a694fc3a1461036b578063b08bc7221461038b57600080fd5b80635a4d28bb116100fd5780635a4d28bb146102435780635dd68acd14610263578063715018a6146102835780637472f98f146102985780638da5cb5b146102b85780638f913789146102d657600080fd5b806316934fc41461014d5780632e17de781461018d57806334b3081f146101ad57806334bfdb80146101f6578063570dc45e1461021657600080fd5b3661014857610146610457565b005b600080fd5b34801561015957600080fd5b5061017a61016836600461115e565b60016020526000908152604090205481565b6040519081526020015b60405180910390f35b34801561019957600080fd5b506101466101a8366004611179565b6104c4565b3480156101b957600080fd5b506101e16101c836600461115e565b6005602052600090815260409020805460019091015482565b60408051928352602083019190915201610184565b34801561020257600080fd5b50610146610211366004611179565b6106e8565b34801561022257600080fd5b50600654610236906001600160a01b031681565b6040516101849190611192565b34801561024f57600080fd5b50600854610236906001600160a01b031681565b34801561026f57600080fd5b5061014661027e3660046111a6565b610767565b34801561028f57600080fd5b50610146610915565b3480156102a457600080fd5b5061017a6102b336600461115e565b610927565b3480156102c457600080fd5b506000546001600160a01b0316610236565b3480156102e257600080fd5b50600754610236906001600160a01b031681565b34801561030257600080fd5b5061017a670de0b6b3a764000081565b34801561031e57600080fd5b506103486040518060400160405280600a815260200169484f475374616b696e6760b01b81525081565b604051610184919061120b565b34801561036157600080fd5b5061017a60025481565b34801561037757600080fd5b50610146610386366004611179565b610938565b34801561039757600080fd5b50600a54610236906001600160a01b031681565b3480156103b757600080fd5b506101466103c6366004611179565b610b38565b3480156103d757600080fd5b50600954610236906001600160a01b031681565b3480156103f757600080fd5b5061017a61040636600461115e565b610ba9565b34801561041757600080fd5b5061017a60035481565b34801561042d57600080fd5b5061014661043c36600461115e565b610bb4565b34801561044d57600080fd5b5061017a60045481565b600a546001600160a01b031633146104c25760405162461bcd60e51b8152602060048201526024808201527f484f475374616b696e673a2063616c6c6572206973206e6f7420416374697665604482015263141bdbdb60e21b60648201526084015b60405180910390fd5b565b336000908152600160205260409020546104dd81610c2d565b60006104e833610c91565b905060006104f533610cf2565b905061050033610d2f565b83156106285760006105128585610d9f565b905060006105208583610db7565b3360009081526001602052604090208190556002549091506105429083610db7565b60028190556040519081527feaddd2380ec5ec041901814a321c27b96cc79c77874ca35d9bfaf570584406d59060200160405180910390a160065460405163a9059cbb60e01b81526001600160a01b039091169063a9059cbb906105ac9033908690600401611259565b6020604051808303816000875af11580156105cb573d6000803e3d6000fd5b505050506040513d601f19601f820116820180604052508101906105ef9190611272565b5060405181815233907f39df0e5286a3ef2f42a0bf52f32cfe2c58e5b0405f47fe512f2c2439e4cfe2049060200160405180910390a250505b604080518281526020810184905233917ff744d34ca1cb25acfa4180df5f09a67306107110a9f4b6ed99bb3be259738215910160405180910390a260075460405163a9059cbb60e01b81526001600160a01b039091169063a9059cbb906106959033908590600401611259565b6020604051808303816000875af11580156106b4573d6000803e3d6000fd5b505050506040513d601f19601f820116820180604052508101906106d89190611272565b506106e282610dc3565b50505050565b6106f0610eb1565b6002546000901561071d5760025461071a9061071484670de0b6b3a7640000610f19565b90610f25565b90505b60045461072a9082610f31565b60048190556040519081527f9db9a90c7ce8e9e0e8224d054a73cdc2521d4b1a391e192e8206ef75f544ad3d906020015b60405180910390a15050565b61076f610f3d565b61077885610f97565b61078184610f97565b61078a83610f97565b61079382610f97565b61079c81610f97565b600680546001600160a01b03199081166001600160a01b0388811691909117909255600780548216878416179055600880548216868416179055600980548216858416179055600a80549091169183169190911790556040517f2228d43367ece49cb99c3d3ac6d6df4a289d31f4a2bd9ab1ff590c66f3a4d6c090610822908790611192565b60405180910390a17f2228d43367ece49cb99c3d3ac6d6df4a289d31f4a2bd9ab1ff590c66f3a4d6c0846040516108599190611192565b60405180910390a17f41097dcc1f7cbd663d822443d7972f05b04f71918b30fe9fc59dd6e42e228060836040516108909190611192565b60405180910390a17f5962f8af633c4df1ab230096f773a514ee5adf7785c621ecdcdb764cb7f6e391826040516108c79190611192565b60405180910390a17f8f6a6e7d20a3233e0a79883272259ffbd7a243734e397bc2b4642c79d7fa8a6d816040516108fe9190611192565b60405180910390a161090e610915565b5050505050565b61091d610f3d565b6104c2600061103c565b600061093282610c91565b92915050565b6109418161108c565b33600090815260016020526040812054908082156109705761096233610c91565b915061096d33610cf2565b90505b61097933610d2f565b60006109858486610f31565b3360009081526001602052604090208190556002549091506109a79086610f31565b60028190556040519081527feaddd2380ec5ec041901814a321c27b96cc79c77874ca35d9bfaf570584406d59060200160405180910390a16006546040516376052d4f60e11b81526001600160a01b039091169063ec0a5a9e90610a119033908990600401611259565b600060405180830381600087803b158015610a2b57600080fd5b505af1158015610a3f573d6000803e3d6000fd5b50506040518381523392507f39df0e5286a3ef2f42a0bf52f32cfe2c58e5b0405f47fe512f2c2439e4cfe204915060200160405180910390a2604080518381526020810185905233917ff744d34ca1cb25acfa4180df5f09a67306107110a9f4b6ed99bb3be259738215910160405180910390a2831561090e5760075460405163a9059cbb60e01b81526001600160a01b039091169063a9059cbb90610aeb9033908690600401611259565b6020604051808303816000875af1158015610b0a573d6000803e3d6000fd5b505050506040513d601f19601f82011682018060405250810190610b2e9190611272565b5061090e83610dc3565b610b406110e8565b60025460009015610b6757600254610b649061071484670de0b6b3a7640000610f19565b90505b600354610b749082610f31565b60038190556040519081527f50cef60b7a39e340bdc94867d1cb7f3efecd836603f2834a235fc8094987cc499060200161075b565b600061093282610cf2565b610bbc610f3d565b6001600160a01b038116610c215760405162461bcd60e51b815260206004820152602660248201527f4f776e61626c653a206e6577206f776e657220697320746865207a65726f206160448201526564647265737360d01b60648201526084016104b9565b610c2a8161103c565b50565b60008111610c2a5760405162461bcd60e51b815260206004820152602b60248201527f484f475374616b696e673a2055736572206d75737420686176652061206e6f6e60448201526a2d7a65726f207374616b6560a81b60648201526084016104b9565b6001600160a01b0381166000908152600560205260408120546003548290610cea90670de0b6b3a76400009061071490610ccb9086610db7565b6001600160a01b03881660009081526001602052604090205490610f19565b949350505050565b6001600160a01b0381166000908152600560205260408120600101546004548290610cea90670de0b6b3a76400009061071490610ccb9086610db7565b600380546001600160a01b03831660008181526005602090815260409182902093845560045460019094018490559354815192835293820193909352918201527f6b5cf27595af4428271524e0a5abd2b63f6fee1a61e31970490f5a10e257a1cd9060600160405180910390a150565b6000818310610dae5781610db0565b825b9392505050565b6000610db082846112aa565b7f6a5eb4d39360dd25d648e3e96a252255bc09ccad2dcdcfdedeb08c857555cd123382604051610df4929190611259565b60405180910390a1604051600090339083908381818185875af1925050503d8060008114610e3e576040519150601f19603f3d011682016040523d82523d6000602084013e610e43565b606091505b5050905080610ead5760405162461bcd60e51b815260206004820152603060248201527f484f475374616b696e673a204661696c656420746f2073656e6420616363756d60448201526f3ab630ba32b21029ba22aa2423b0b4b760811b60648201526084016104b9565b5050565b6009546001600160a01b031633146104c25760405162461bcd60e51b815260206004820152602560248201527f484f475374616b696e673a2063616c6c6572206973206e6f7420426f72726f7760448201526465724f707360d81b60648201526084016104b9565b6000610db082846112bd565b6000610db082846112d4565b6000610db082846112f6565b6000546001600160a01b031633146104c25760405162461bcd60e51b815260206004820181905260248201527f4f776e61626c653a2063616c6c6572206973206e6f7420746865206f776e657260448201526064016104b9565b6001600160a01b038116610fed5760405162461bcd60e51b815260206004820152601e60248201527f4163636f756e742063616e6e6f74206265207a65726f2061646472657373000060448201526064016104b9565b803b80610ead5760405162461bcd60e51b815260206004820181905260248201527f4163636f756e7420636f64652073697a652063616e6e6f74206265207a65726f60448201526064016104b9565b600080546001600160a01b038381166001600160a01b0319831681178455604051919092169283917f8be0079c531659141344cd1fd0a4f28419497f9722a3daafe3b4186f6b6457e09190a35050565b60008111610c2a5760405162461bcd60e51b815260206004820152602360248201527f484f475374616b696e673a20416d6f756e74206d757374206265206e6f6e2d7a60448201526265726f60e81b60648201526084016104b9565b6008546001600160a01b031633146104c25760405162461bcd60e51b815260206004820181905260248201527f484f475374616b696e673a2063616c6c6572206973206e6f742054726f76654d60448201526064016104b9565b80356001600160a01b038116811461115957600080fd5b919050565b60006020828403121561117057600080fd5b610db082611142565b60006020828403121561118b57600080fd5b5035919050565b6001600160a01b0391909116815260200190565b600080600080600060a086880312156111be57600080fd5b6111c786611142565b94506111d560208701611142565b93506111e360408701611142565b92506111f160608701611142565b91506111ff60808701611142565b90509295509295909350565b600060208083528351808285015260005b818110156112385785810183015185820160400152820161121c565b506000604082860101526040601f19601f8301168501019250505092915050565b6001600160a01b03929092168252602082015260400190565b60006020828403121561128457600080fd5b81518015158114610db057600080fd5b634e487b7160e01b600052601160045260246000fd5b8181038181111561093257610932611294565b808202811582820484141761093257610932611294565b6000826112f157634e487b7160e01b600052601260045260246000fd5b500490565b808201808211156109325761093261129456fea26469706673582212209a76b1262d925c05cc0e3716951365b8903c3a7ac909e208961d4b8b53b393f864736f6c63430008130033",
  "devdoc": {
    "kind": "dev",
    "methods": {
      "owner()": {
        "details": "Returns the address of the current owner."
      },
      "renounceOwnership()": {
        "details": "Leaves the contract without owner. It will not be possible to call `onlyOwner` functions. Can only be called by the current owner. NOTE: Renouncing ownership will leave the contract without an owner, thereby disabling any functionality that is only available to the owner."
      },
      "transferOwnership(address)": {
        "details": "Transfers ownership of the contract to a new account (`newOwner`). Can only be called by the current owner."
      }
    },
    "version": 1
  },
  "userdoc": {
    "kind": "user",
    "methods": {},
    "version": 1
  },
  "storageLayout": {
    "storage": [
      {
        "astId": 396,
        "contract": "contracts/HOG/HOGStaking.sol:HOGStaking",
        "label": "_owner",
        "offset": 0,
        "slot": "0",
        "type": "t_address"
      },
      {
        "astId": 7716,
        "contract": "contracts/HOG/HOGStaking.sol:HOGStaking",
        "label": "stakes",
        "offset": 0,
        "slot": "1",
        "type": "t_mapping(t_address,t_uint256)"
      },
      {
        "astId": 7718,
        "contract": "contracts/HOG/HOGStaking.sol:HOGStaking",
        "label": "totalHOGStaked",
        "offset": 0,
        "slot": "2",
        "type": "t_uint256"
      },
      {
        "astId": 7720,
        "contract": "contracts/HOG/HOGStaking.sol:HOGStaking",
        "label": "F_StETH",
        "offset": 0,
        "slot": "3",
        "type": "t_uint256"
      },
      {
        "astId": 7722,
        "contract": "contracts/HOG/HOGStaking.sol:HOGStaking",
        "label": "F_BaseFeeLMA",
        "offset": 0,
        "slot": "4",
        "type": "t_uint256"
      },
      {
        "astId": 7727,
        "contract": "contracts/HOG/HOGStaking.sol:HOGStaking",
        "label": "snapshots",
        "offset": 0,
        "slot": "5",
        "type": "t_mapping(t_address,t_struct(Snapshot)7732_storage)"
      },
      {
        "astId": 7735,
        "contract": "contracts/HOG/HOGStaking.sol:HOGStaking",
        "label": "hogToken",
        "offset": 0,
        "slot": "6",
        "type": "t_contract(IHOGToken)36913"
      },
      {
        "astId": 7738,
        "contract": "contracts/HOG/HOGStaking.sol:HOGStaking",
        "label": "baseFeeLMAToken",
        "offset": 0,
        "slot": "7",
        "type": "t_contract(IBaseFeeLMAToken)36423"
      },
      {
        "astId": 7740,
        "contract": "contracts/HOG/HOGStaking.sol:HOGStaking",
        "label": "troveManagerAddress",
        "offset": 0,
        "slot": "8",
        "type": "t_address"
      },
      {
        "astId": 7742,
        "contract": "contracts/HOG/HOGStaking.sol:HOGStaking",
        "label": "borrowerOperationsAddress",
        "offset": 0,
        "slot": "9",
        "type": "t_address"
      },
      {
        "astId": 7744,
        "contract": "contracts/HOG/HOGStaking.sol:HOGStaking",
        "label": "activePoolAddress",
        "offset": 0,
        "slot": "10",
        "type": "t_address"
      }
    ],
    "types": {
      "t_address": {
        "encoding": "inplace",
        "label": "address",
        "numberOfBytes": "20"
      },
      "t_contract(IBaseFeeLMAToken)36423": {
        "encoding": "inplace",
        "label": "contract IBaseFeeLMAToken",
        "numberOfBytes": "20"
      },
      "t_contract(IHOGToken)36913": {
        "encoding": "inplace",
        "label": "contract IHOGToken",
        "numberOfBytes": "20"
      },
      "t_mapping(t_address,t_struct(Snapshot)7732_storage)": {
        "encoding": "mapping",
        "key": "t_address",
        "label": "mapping(address => struct HOGStaking.Snapshot)",
        "numberOfBytes": "32",
        "value": "t_struct(Snapshot)7732_storage"
      },
      "t_mapping(t_address,t_uint256)": {
        "encoding": "mapping",
        "key": "t_address",
        "label": "mapping(address => uint256)",
        "numberOfBytes": "32",
        "value": "t_uint256"
      },
      "t_struct(Snapshot)7732_storage": {
        "encoding": "inplace",
        "label": "struct HOGStaking.Snapshot",
        "members": [
          {
            "astId": 7729,
            "contract": "contracts/HOG/HOGStaking.sol:HOGStaking",
            "label": "F_StETH_Snapshot",
            "offset": 0,
            "slot": "0",
            "type": "t_uint256"
          },
          {
            "astId": 7731,
            "contract": "contracts/HOG/HOGStaking.sol:HOGStaking",
            "label": "F_BaseFeeLMA_Snapshot",
            "offset": 0,
            "slot": "1",
            "type": "t_uint256"
          }
        ],
        "numberOfBytes": "64"
      },
      "t_uint256": {
        "encoding": "inplace",
        "label": "uint256",
        "numberOfBytes": "32"
      }
    }
  }
}