{
  "address": "0x4aB08274D0276B610F17d0a3669904Bba896d696",
  "abi": [
    {
      "anonymous": false,
      "inputs": [
        {
          "indexed": false,
          "internalType": "address",
          "name": "_newActivePoolAddress",
          "type": "address"
        }
      ],
      "name": "ActivePoolAddressChanged",
      "type": "event"
    },
    {
      "anonymous": false,
      "inputs": [
        {
          "indexed": false,
          "internalType": "address",
          "name": "_newBaseFeeLMATokenAddress",
          "type": "address"
        }
      ],
      "name": "BaseFeeLMATokenAddressChanged",
      "type": "event"
    },
    {
      "anonymous": false,
      "inputs": [
        {
          "indexed": false,
          "internalType": "address",
          "name": "_newBorrowerOperationsAddress",
          "type": "address"
        }
      ],
      "name": "BorrowerOperationsAddressChanged",
      "type": "event"
    },
    {
      "anonymous": false,
      "inputs": [
        {
          "indexed": false,
          "internalType": "address",
          "name": "_newCommunityIssuanceAddress",
          "type": "address"
        }
      ],
      "name": "CommunityIssuanceAddressChanged",
      "type": "event"
    },
    {
      "anonymous": false,
      "inputs": [
        {
          "indexed": false,
          "internalType": "address",
          "name": "_newDefaultPoolAddress",
          "type": "address"
        }
      ],
      "name": "DefaultPoolAddressChanged",
      "type": "event"
    },
    {
      "anonymous": false,
      "inputs": [
        {
          "indexed": true,
          "internalType": "address",
          "name": "_depositor",
          "type": "address"
        },
        {
          "indexed": false,
          "internalType": "uint256",
          "name": "_P",
          "type": "uint256"
        },
        {
          "indexed": false,
          "internalType": "uint256",
          "name": "_S",
          "type": "uint256"
        },
        {
          "indexed": false,
          "internalType": "uint256",
          "name": "_G",
          "type": "uint256"
        }
      ],
      "name": "DepositSnapshotUpdated",
      "type": "event"
    },
    {
      "anonymous": false,
      "inputs": [
        {
          "indexed": false,
          "internalType": "uint128",
          "name": "_currentEpoch",
          "type": "uint128"
        }
      ],
      "name": "EpochUpdated",
      "type": "event"
    },
    {
      "anonymous": false,
      "inputs": [
        {
          "indexed": true,
          "internalType": "address",
          "name": "_frontEnd",
          "type": "address"
        },
        {
          "indexed": false,
          "internalType": "uint256",
          "name": "_kickbackRate",
          "type": "uint256"
        }
      ],
      "name": "FrontEndRegistered",
      "type": "event"
    },
    {
      "anonymous": false,
      "inputs": [
        {
          "indexed": true,
          "internalType": "address",
          "name": "_frontEnd",
          "type": "address"
        },
        {
          "indexed": false,
          "internalType": "uint256",
          "name": "_P",
          "type": "uint256"
        },
        {
          "indexed": false,
          "internalType": "uint256",
          "name": "_G",
          "type": "uint256"
        }
      ],
      "name": "FrontEndSnapshotUpdated",
      "type": "event"
    },
    {
      "anonymous": false,
      "inputs": [
        {
          "indexed": true,
          "internalType": "address",
          "name": "_frontEnd",
          "type": "address"
        },
        {
          "indexed": false,
          "internalType": "uint256",
          "name": "_newFrontEndStake",
          "type": "uint256"
        },
        {
          "indexed": false,
          "internalType": "address",
          "name": "_depositor",
          "type": "address"
        }
      ],
      "name": "FrontEndStakeChanged",
      "type": "event"
    },
    {
      "anonymous": false,
      "inputs": [
        {
          "indexed": true,
          "internalType": "address",
          "name": "_depositor",
          "type": "address"
        },
        {
          "indexed": true,
          "internalType": "address",
          "name": "_frontEnd",
          "type": "address"
        }
      ],
      "name": "FrontEndTagSet",
      "type": "event"
    },
    {
      "anonymous": false,
      "inputs": [
        {
          "indexed": false,
          "internalType": "uint256",
          "name": "_G",
          "type": "uint256"
        },
        {
          "indexed": false,
          "internalType": "uint128",
          "name": "_epoch",
          "type": "uint128"
        },
        {
          "indexed": false,
          "internalType": "uint128",
          "name": "_scale",
          "type": "uint128"
        }
      ],
      "name": "G_Updated",
      "type": "event"
    },
    {
      "anonymous": false,
      "inputs": [
        {
          "indexed": true,
          "internalType": "address",
          "name": "_depositor",
          "type": "address"
        },
        {
          "indexed": false,
          "internalType": "uint256",
          "name": "_HOG",
          "type": "uint256"
        }
      ],
      "name": "HOGPaidToDepositor",
      "type": "event"
    },
    {
      "anonymous": false,
      "inputs": [
        {
          "indexed": true,
          "internalType": "address",
          "name": "_frontEnd",
          "type": "address"
        },
        {
          "indexed": false,
          "internalType": "uint256",
          "name": "_HOG",
          "type": "uint256"
        }
      ],
      "name": "HOGPaidToFrontEnd",
      "type": "event"
    },
    {
      "anonymous": false,
      "inputs": [
        {
          "indexed": true,
          "internalType": "address",
          "name": "previousOwner",
          "type": "address"
        },
        {
          "indexed": true,
          "internalType": "address",
          "name": "newOwner",
          "type": "address"
        }
      ],
      "name": "OwnershipTransferred",
      "type": "event"
    },
    {
      "anonymous": false,
      "inputs": [
        {
          "indexed": false,
          "internalType": "uint256",
          "name": "_P",
          "type": "uint256"
        }
      ],
      "name": "P_Updated",
      "type": "event"
    },
    {
      "anonymous": false,
      "inputs": [
        {
          "indexed": false,
          "internalType": "address",
          "name": "_newPriceFeedAddress",
          "type": "address"
        }
      ],
      "name": "PriceFeedAddressChanged",
      "type": "event"
    },
    {
      "anonymous": false,
      "inputs": [
        {
          "indexed": false,
          "internalType": "uint256",
          "name": "_S",
          "type": "uint256"
        },
        {
          "indexed": false,
          "internalType": "uint128",
          "name": "_epoch",
          "type": "uint128"
        },
        {
          "indexed": false,
          "internalType": "uint128",
          "name": "_scale",
          "type": "uint128"
        }
      ],
      "name": "S_Updated",
      "type": "event"
    },
    {
      "anonymous": false,
      "inputs": [
        {
          "indexed": false,
          "internalType": "uint128",
          "name": "_currentScale",
          "type": "uint128"
        }
      ],
      "name": "ScaleUpdated",
      "type": "event"
    },
    {
      "anonymous": false,
      "inputs": [
        {
          "indexed": false,
          "internalType": "address",
          "name": "_newSortedTrovesAddress",
          "type": "address"
        }
      ],
      "name": "SortedTrovesAddressChanged",
      "type": "event"
    },
    {
      "anonymous": false,
      "inputs": [
        {
          "indexed": true,
          "internalType": "address",
          "name": "_depositor",
          "type": "address"
        },
        {
          "indexed": false,
          "internalType": "uint256",
          "name": "_StETH",
          "type": "uint256"
        },
        {
          "indexed": false,
          "internalType": "uint256",
          "name": "_BaseFeeLMALoss",
          "type": "uint256"
        }
      ],
      "name": "StETHGainWithdrawn",
      "type": "event"
    },
    {
      "anonymous": false,
      "inputs": [
        {
          "indexed": false,
          "internalType": "address",
          "name": "_to",
          "type": "address"
        },
        {
          "indexed": false,
          "internalType": "uint256",
          "name": "_amount",
          "type": "uint256"
        }
      ],
      "name": "StETHSent",
      "type": "event"
    },
    {
      "anonymous": false,
      "inputs": [
        {
          "indexed": false,
          "internalType": "uint256",
          "name": "_newBalance",
          "type": "uint256"
        }
      ],
      "name": "StabilityPoolBaseFeeLMABalanceUpdated",
      "type": "event"
    },
    {
      "anonymous": false,
      "inputs": [
        {
          "indexed": false,
          "internalType": "uint256",
          "name": "_newBalance",
          "type": "uint256"
        }
      ],
      "name": "StabilityPoolStETHBalanceUpdated",
      "type": "event"
    },
    {
      "anonymous": false,
      "inputs": [
        {
          "indexed": false,
          "internalType": "address",
          "name": "_newTroveManagerAddress",
          "type": "address"
        }
      ],
      "name": "TroveManagerAddressChanged",
      "type": "event"
    },
    {
      "anonymous": false,
      "inputs": [
        {
          "indexed": true,
          "internalType": "address",
          "name": "_depositor",
          "type": "address"
        },
        {
          "indexed": false,
          "internalType": "uint256",
          "name": "_newDeposit",
          "type": "uint256"
        }
      ],
      "name": "UserDepositChanged",
      "type": "event"
    },
    {
      "inputs": [],
      "name": "BORROWING_FEE_FLOOR",
      "outputs": [
        {
          "internalType": "uint256",
          "name": "",
          "type": "uint256"
        }
      ],
      "stateMutability": "view",
      "type": "function"
    },
    {
      "inputs": [],
      "name": "BaseFeeLMA_GAS_COMPENSATION",
      "outputs": [
        {
          "internalType": "uint256",
          "name": "",
          "type": "uint256"
        }
      ],
      "stateMutability": "view",
      "type": "function"
    },
    {
      "inputs": [],
      "name": "CCR",
      "outputs": [
        {
          "internalType": "uint256",
          "name": "",
          "type": "uint256"
        }
      ],
      "stateMutability": "view",
      "type": "function"
    },
    {
      "inputs": [],
      "name": "DECIMAL_PRECISION",
      "outputs": [
        {
          "internalType": "uint256",
          "name": "",
          "type": "uint256"
        }
      ],
      "stateMutability": "view",
      "type": "function"
    },
    {
      "inputs": [],
      "name": "MCR",
      "outputs": [
        {
          "internalType": "uint256",
          "name": "",
          "type": "uint256"
        }
      ],
      "stateMutability": "view",
      "type": "function"
    },
    {
      "inputs": [],
      "name": "MIN_NET_DEBT",
      "outputs": [
        {
          "internalType": "uint256",
          "name": "",
          "type": "uint256"
        }
      ],
      "stateMutability": "view",
      "type": "function"
    },
    {
      "inputs": [],
      "name": "NAME",
      "outputs": [
        {
          "internalType": "string",
          "name": "",
          "type": "string"
        }
      ],
      "stateMutability": "view",
      "type": "function"
    },
    {
      "inputs": [],
      "name": "P",
      "outputs": [
        {
          "internalType": "uint256",
          "name": "",
          "type": "uint256"
        }
      ],
      "stateMutability": "view",
      "type": "function"
    },
    {
      "inputs": [],
      "name": "PERCENT_DIVISOR",
      "outputs": [
        {
          "internalType": "uint256",
          "name": "",
          "type": "uint256"
        }
      ],
      "stateMutability": "view",
      "type": "function"
    },
    {
      "inputs": [],
      "name": "SCALE_FACTOR",
      "outputs": [
        {
          "internalType": "uint256",
          "name": "",
          "type": "uint256"
        }
      ],
      "stateMutability": "view",
      "type": "function"
    },
    {
      "inputs": [],
      "name": "_100pct",
      "outputs": [
        {
          "internalType": "uint256",
          "name": "",
          "type": "uint256"
        }
      ],
      "stateMutability": "view",
      "type": "function"
    },
    {
      "inputs": [],
      "name": "activePool",
      "outputs": [
        {
          "internalType": "contract IActivePool",
          "name": "",
          "type": "address"
        }
      ],
      "stateMutability": "view",
      "type": "function"
    },
    {
      "inputs": [],
      "name": "baseFeeLMAToken",
      "outputs": [
        {
          "internalType": "contract IBaseFeeLMAToken",
          "name": "",
          "type": "address"
        }
      ],
      "stateMutability": "view",
      "type": "function"
    },
    {
      "inputs": [],
      "name": "borrowerOperations",
      "outputs": [
        {
          "internalType": "contract IBorrowerOperations",
          "name": "",
          "type": "address"
        }
      ],
      "stateMutability": "view",
      "type": "function"
    },
    {
      "inputs": [],
      "name": "communityIssuance",
      "outputs": [
        {
          "internalType": "contract ICommunityIssuance",
          "name": "",
          "type": "address"
        }
      ],
      "stateMutability": "view",
      "type": "function"
    },
    {
      "inputs": [],
      "name": "currentEpoch",
      "outputs": [
        {
          "internalType": "uint128",
          "name": "",
          "type": "uint128"
        }
      ],
      "stateMutability": "view",
      "type": "function"
    },
    {
      "inputs": [],
      "name": "currentScale",
      "outputs": [
        {
          "internalType": "uint128",
          "name": "",
          "type": "uint128"
        }
      ],
      "stateMutability": "view",
      "type": "function"
    },
    {
      "inputs": [],
      "name": "defaultPool",
      "outputs": [
        {
          "internalType": "contract IDefaultPool",
          "name": "",
          "type": "address"
        }
      ],
      "stateMutability": "view",
      "type": "function"
    },
    {
      "inputs": [
        {
          "internalType": "address",
          "name": "",
          "type": "address"
        }
      ],
      "name": "depositSnapshots",
      "outputs": [
        {
          "internalType": "uint256",
          "name": "S",
          "type": "uint256"
        },
        {
          "internalType": "uint256",
          "name": "P",
          "type": "uint256"
        },
        {
          "internalType": "uint256",
          "name": "G",
          "type": "uint256"
        },
        {
          "internalType": "uint128",
          "name": "scale",
          "type": "uint128"
        },
        {
          "internalType": "uint128",
          "name": "epoch",
          "type": "uint128"
        }
      ],
      "stateMutability": "view",
      "type": "function"
    },
    {
      "inputs": [
        {
          "internalType": "address",
          "name": "",
          "type": "address"
        }
      ],
      "name": "deposits",
      "outputs": [
        {
          "internalType": "uint256",
          "name": "initialValue",
          "type": "uint256"
        },
        {
          "internalType": "address",
          "name": "frontEndTag",
          "type": "address"
        }
      ],
      "stateMutability": "view",
      "type": "function"
    },
    {
      "inputs": [
        {
          "internalType": "uint128",
          "name": "",
          "type": "uint128"
        },
        {
          "internalType": "uint128",
          "name": "",
          "type": "uint128"
        }
      ],
      "name": "epochToScaleToG",
      "outputs": [
        {
          "internalType": "uint256",
          "name": "",
          "type": "uint256"
        }
      ],
      "stateMutability": "view",
      "type": "function"
    },
    {
      "inputs": [
        {
          "internalType": "uint128",
          "name": "",
          "type": "uint128"
        },
        {
          "internalType": "uint128",
          "name": "",
          "type": "uint128"
        }
      ],
      "name": "epochToScaleToSum",
      "outputs": [
        {
          "internalType": "uint256",
          "name": "",
          "type": "uint256"
        }
      ],
      "stateMutability": "view",
      "type": "function"
    },
    {
      "inputs": [
        {
          "internalType": "address",
          "name": "",
          "type": "address"
        }
      ],
      "name": "frontEndSnapshots",
      "outputs": [
        {
          "internalType": "uint256",
          "name": "S",
          "type": "uint256"
        },
        {
          "internalType": "uint256",
          "name": "P",
          "type": "uint256"
        },
        {
          "internalType": "uint256",
          "name": "G",
          "type": "uint256"
        },
        {
          "internalType": "uint128",
          "name": "scale",
          "type": "uint128"
        },
        {
          "internalType": "uint128",
          "name": "epoch",
          "type": "uint128"
        }
      ],
      "stateMutability": "view",
      "type": "function"
    },
    {
      "inputs": [
        {
          "internalType": "address",
          "name": "",
          "type": "address"
        }
      ],
      "name": "frontEndStakes",
      "outputs": [
        {
          "internalType": "uint256",
          "name": "",
          "type": "uint256"
        }
      ],
      "stateMutability": "view",
      "type": "function"
    },
    {
      "inputs": [
        {
          "internalType": "address",
          "name": "",
          "type": "address"
        }
      ],
      "name": "frontEnds",
      "outputs": [
        {
          "internalType": "uint256",
          "name": "kickbackRate",
          "type": "uint256"
        },
        {
          "internalType": "bool",
          "name": "registered",
          "type": "bool"
        }
      ],
      "stateMutability": "view",
      "type": "function"
    },
    {
      "inputs": [
        {
          "internalType": "address",
          "name": "_depositor",
          "type": "address"
        }
      ],
      "name": "getCompoundedBaseFeeLMADeposit",
      "outputs": [
        {
          "internalType": "uint256",
          "name": "",
          "type": "uint256"
        }
      ],
      "stateMutability": "view",
      "type": "function"
    },
    {
      "inputs": [
        {
          "internalType": "address",
          "name": "_frontEnd",
          "type": "address"
        }
      ],
      "name": "getCompoundedFrontEndStake",
      "outputs": [
        {
          "internalType": "uint256",
          "name": "",
          "type": "uint256"
        }
      ],
      "stateMutability": "view",
      "type": "function"
    },
    {
      "inputs": [
        {
          "internalType": "address",
          "name": "_depositor",
          "type": "address"
        }
      ],
      "name": "getDepositorHOGGain",
      "outputs": [
        {
          "internalType": "uint256",
          "name": "",
          "type": "uint256"
        }
      ],
      "stateMutability": "view",
      "type": "function"
    },
    {
      "inputs": [
        {
          "internalType": "address",
          "name": "_depositor",
          "type": "address"
        }
      ],
      "name": "getDepositorStETHGain",
      "outputs": [
        {
          "internalType": "uint256",
          "name": "",
          "type": "uint256"
        }
      ],
      "stateMutability": "view",
      "type": "function"
    },
    {
      "inputs": [],
      "name": "getEntireSystemColl",
      "outputs": [
        {
          "internalType": "uint256",
          "name": "entireSystemColl",
          "type": "uint256"
        }
      ],
      "stateMutability": "view",
      "type": "function"
    },
    {
      "inputs": [],
      "name": "getEntireSystemDebt",
      "outputs": [
        {
          "internalType": "uint256",
          "name": "entireSystemDebt",
          "type": "uint256"
        }
      ],
      "stateMutability": "view",
      "type": "function"
    },
    {
      "inputs": [
        {
          "internalType": "address",
          "name": "_frontEnd",
          "type": "address"
        }
      ],
      "name": "getFrontEndHOGGain",
      "outputs": [
        {
          "internalType": "uint256",
          "name": "",
          "type": "uint256"
        }
      ],
      "stateMutability": "view",
      "type": "function"
    },
    {
      "inputs": [],
      "name": "getStETH",
      "outputs": [
        {
          "internalType": "uint256",
          "name": "",
          "type": "uint256"
        }
      ],
      "stateMutability": "view",
      "type": "function"
    },
    {
      "inputs": [],
      "name": "getTotalBaseFeeLMADeposits",
      "outputs": [
        {
          "internalType": "uint256",
          "name": "",
          "type": "uint256"
        }
      ],
      "stateMutability": "view",
      "type": "function"
    },
    {
      "inputs": [],
      "name": "lastBaseFeeLMALossError_Offset",
      "outputs": [
        {
          "internalType": "uint256",
          "name": "",
          "type": "uint256"
        }
      ],
      "stateMutability": "view",
      "type": "function"
    },
    {
      "inputs": [],
      "name": "lastHOGError",
      "outputs": [
        {
          "internalType": "uint256",
          "name": "",
          "type": "uint256"
        }
      ],
      "stateMutability": "view",
      "type": "function"
    },
    {
      "inputs": [],
      "name": "lastStETHError_Offset",
      "outputs": [
        {
          "internalType": "uint256",
          "name": "",
          "type": "uint256"
        }
      ],
      "stateMutability": "view",
      "type": "function"
    },
    {
      "inputs": [
        {
          "internalType": "uint256",
          "name": "_debtToOffset",
          "type": "uint256"
        },
        {
          "internalType": "uint256",
          "name": "_collToAdd",
          "type": "uint256"
        }
      ],
      "name": "offset",
      "outputs": [],
      "stateMutability": "nonpayable",
      "type": "function"
    },
    {
      "inputs": [],
      "name": "owner",
      "outputs": [
        {
          "internalType": "address",
          "name": "",
          "type": "address"
        }
      ],
      "stateMutability": "view",
      "type": "function"
    },
    {
      "inputs": [],
      "name": "priceFeed",
      "outputs": [
        {
          "internalType": "contract IPriceFeed",
          "name": "",
          "type": "address"
        }
      ],
      "stateMutability": "view",
      "type": "function"
    },
    {
      "inputs": [
        {
          "internalType": "uint256",
          "name": "_amount",
          "type": "uint256"
        },
        {
          "internalType": "address",
          "name": "_frontEndTag",
          "type": "address"
        }
      ],
      "name": "provideToSP",
      "outputs": [],
      "stateMutability": "nonpayable",
      "type": "function"
    },
    {
      "inputs": [
        {
          "internalType": "uint256",
          "name": "_kickbackRate",
          "type": "uint256"
        }
      ],
      "name": "registerFrontEnd",
      "outputs": [],
      "stateMutability": "nonpayable",
      "type": "function"
    },
    {
      "inputs": [],
      "name": "renounceOwnership",
      "outputs": [],
      "stateMutability": "nonpayable",
      "type": "function"
    },
    {
      "inputs": [
        {
          "internalType": "address",
          "name": "_borrowerOperationsAddress",
          "type": "address"
        },
        {
          "internalType": "address",
          "name": "_troveManagerAddress",
          "type": "address"
        },
        {
          "internalType": "address",
          "name": "_activePoolAddress",
          "type": "address"
        },
        {
          "internalType": "address",
          "name": "_baseFeeLMATokenAddress",
          "type": "address"
        },
        {
          "internalType": "address",
          "name": "_sortedTrovesAddress",
          "type": "address"
        },
        {
          "internalType": "address",
          "name": "_priceFeedAddress",
          "type": "address"
        },
        {
          "internalType": "address",
          "name": "_communityIssuanceAddress",
          "type": "address"
        }
      ],
      "name": "setAddresses",
      "outputs": [],
      "stateMutability": "nonpayable",
      "type": "function"
    },
    {
      "inputs": [],
      "name": "sortedTroves",
      "outputs": [
        {
          "internalType": "contract ISortedTroves",
          "name": "",
          "type": "address"
        }
      ],
      "stateMutability": "view",
      "type": "function"
    },
    {
      "inputs": [
        {
          "internalType": "address",
          "name": "newOwner",
          "type": "address"
        }
      ],
      "name": "transferOwnership",
      "outputs": [],
      "stateMutability": "nonpayable",
      "type": "function"
    },
    {
      "inputs": [],
      "name": "troveManager",
      "outputs": [
        {
          "internalType": "contract ITroveManager",
          "name": "",
          "type": "address"
        }
      ],
      "stateMutability": "view",
      "type": "function"
    },
    {
      "inputs": [
        {
          "internalType": "uint256",
          "name": "_amount",
          "type": "uint256"
        }
      ],
      "name": "withdrawFromSP",
      "outputs": [],
      "stateMutability": "nonpayable",
      "type": "function"
    },
    {
      "inputs": [
        {
          "internalType": "address",
          "name": "_upperHint",
          "type": "address"
        },
        {
          "internalType": "address",
          "name": "_lowerHint",
          "type": "address"
        }
      ],
      "name": "withdrawStETHGainToTrove",
      "outputs": [],
      "stateMutability": "nonpayable",
      "type": "function"
    },
    {
      "stateMutability": "payable",
      "type": "receive"
    }
  ],
  "transactionHash": "0xace8c42d71cf173d1a3c5220493344f04553292353cb285ce10b911897698d06",
  "args": [],
  "numDeployments": 1,
  "solcInputHash": "38c8dd2ed2953f011d2e7e97384dc754",
  "bytecode": "0x6080604052670de0b6b3a76400006010553480156200001d57600080fd5b5062000029336200002f565b62000081565b600380546001600160a01b038381166001600160a01b0319831681179093556040519116919082907f8be0079c531659141344cd1fd0a4f28419497f9722a3daafe3b4186f6b6457e090600090a35050565b61364980620000916000396000f3fe6080604052600436106102a25760003560e01c80638b8fbd9211610165578063b987e41d116100cc578063dde2a74611610085578063dde2a746146108fd578063df9cd84f1461091d578063eaa8ba7f1461093d578063f2fde38b1461095d578063f92d34331461097d578063fc7e286d14610992578063fca1c4d3146109dd57600080fd5b8063b987e41d1461084f578063c1d3bc911461086f578063ce4b5bbe1461088f578063d5a1f4fd146108a7578063d77b35b1146108c7578063dae8ddf3146108dd57600080fd5b8063a2f039831161011e578063a2f0398314610752578063a3f4df7e14610767578063a4e59ac8146107ad578063a7bfff97146107cd578063adcc615014610819578063ae9187541461082f57600080fd5b80638b8fbd92146106c15780638da5cb5b146106d75780638f913789146106f557806395fb16bb14610715578063a201415214610735578063a20baee61461053257600080fd5b80635f788d6511610209578063794e5724116101c2578063794e5724146105cd578063795d26c3146105e95780637f7dde4a146105fe57806382e0a5741461061e57806386da082414610656578063887105d3146106ac57600080fd5b80635f788d65146104fd578063715018a61461051d57806372fe25aa14610532578063741bef1a1461054e578063766718081461056e57806377553ad4146105ad57600080fd5b80633d83908a1161025b5780633d83908a1461044a5780634870dd9a1461046a578063488df0fc1461047f578063556be101146104945780635733d58f146104b45780635d2de642146104d057600080fd5b806316b9d3c5146102e95780631bf435551461037857806328a0a04d146103a35780632e54bf95146103db578063335525ad146103fd5780633cc742251461041d57600080fd5b366102e4576102af6109f3565b6009546102bc9034610a64565b60098190556040519081526000805160206135d48339815191529060200160405180910390a1005b600080fd5b3480156102f557600080fd5b5061033f61030436600461323a565b600f602052600090815260409020805460018201546002830154600390930154919290916001600160801b0380821691600160801b90041685565b604080519586526020860194909452928401919091526001600160801b03908116606084015216608082015260a0015b60405180910390f35b34801561038457600080fd5b50610395686194049f30f720000081565b60405190815260200161036f565b3480156103af57600080fd5b506103956103be366004613273565b601260209081526000928352604080842090915290825290205481565b3480156103e757600080fd5b506103fb6103f63660046132a6565b610a79565b005b34801561040957600080fd5b506103fb6104183660046132bf565b610bf1565b34801561042957600080fd5b5060015461043d906001600160a01b031681565b60405161036f91906132e1565b34801561045657600080fd5b5060055461043d906001600160a01b031681565b34801561047657600080fd5b5061039560c881565b34801561048b57600080fd5b50600a54610395565b3480156104a057600080fd5b506103fb6104af3660046132a6565b610c53565b3480156104c057600080fd5b506103956714d1120d7b16000081565b3480156104dc57600080fd5b506103956104eb36600461323a565b600e6020526000908152604090205481565b34801561050957600080fd5b506103fb6105183660046132f5565b610ccd565b34801561052957600080fd5b506103fb610e40565b34801561053e57600080fd5b50610395670de0b6b3a764000081565b34801561055a57600080fd5b5060025461043d906001600160a01b031681565b34801561057a57600080fd5b5060115461059590600160801b90046001600160801b031681565b6040516001600160801b03909116815260200161036f565b3480156105b957600080fd5b5060045461043d906001600160a01b031681565b3480156105d957600080fd5b50610395670f43fc2c04ee000081565b3480156105f557600080fd5b50610395610e52565b34801561060a57600080fd5b5060005461043d906001600160a01b031681565b34801561062a57600080fd5b50610395610639366004613273565b601360209081526000928352604080842090915290825290205481565b34801561066257600080fd5b5061033f61067136600461323a565b600c602052600090815260409020805460018201546002830154600390930154919290916001600160801b0380821691600160801b90041685565b3480156106b857600080fd5b50610395610f4e565b3480156106cd57600080fd5b5061039560105481565b3480156106e357600080fd5b506003546001600160a01b031661043d565b34801561070157600080fd5b5060065461043d906001600160a01b031681565b34801561072157600080fd5b5060085461043d906001600160a01b031681565b34801561074157600080fd5b50610395680ad78ebc5ac620000081565b34801561075e57600080fd5b50600954610395565b34801561077357600080fd5b506107a06040518060400160405280600d81526020016c14dd18589a5b1a5d1e541bdbdb609a1b81525081565b60405161036f9190613325565b3480156107b957600080fd5b50601154610595906001600160801b031681565b3480156107d957600080fd5b506108046107e836600461323a565b600d602052600090815260409020805460019091015460ff1682565b6040805192835290151560208301520161036f565b34801561082557600080fd5b5061039560155481565b34801561083b57600080fd5b5060075461043d906001600160a01b031681565b34801561085b57600080fd5b5061039561086a36600461323a565b611013565b34801561087b57600080fd5b506103fb61088a366004613373565b611120565b34801561089b57600080fd5b50610395633b9aca0081565b3480156108b357600080fd5b506103956108c236600461323a565b61133b565b3480156108d357600080fd5b5061039560165481565b3480156108e957600080fd5b506103956108f836600461323a565b6113d9565b34801561090957600080fd5b5061039561091836600461323a565b61146e565b34801561092957600080fd5b5061039561093836600461323a565b611540565b34801561094957600080fd5b506103fb6109583660046133a1565b6115d5565b34801561096957600080fd5b506103fb61097836600461323a565b61181d565b34801561098957600080fd5b50610395611896565b34801561099e57600080fd5b506109cf6109ad36600461323a565b600b60205260009081526040902080546001909101546001600160a01b031682565b60405161036f929190613437565b3480156109e957600080fd5b5061039560145481565b6000546001600160a01b03163314610a625760405162461bcd60e51b815260206004820152602760248201527f53746162696c697479506f6f6c3a2043616c6c6572206973206e6f74204163746044820152661a5d99541bdbdb60ca1b60648201526084015b60405180910390fd5b565b6000610a708284613464565b90505b92915050565b8015610a8757610a876118b8565b336000908152600b6020526040902054610aa081611aae565b6008546001600160a01b0316610ab581611b17565b6000610ac03361133b565b90506000610acd336113d9565b90506000610adb8683611b8b565b90506000610ae98684611ba1565b336000818152600b60205260409020600101549192506001600160a01b0390911690610b1790879083611bad565b6000610b2282611540565b90506000610b308286611ba1565b9050610b3c8382611d26565b826001600160a01b03166000805160206135f48339815191528233604051610b65929190613437565b60405180910390a2610b773386611e68565b6000610b838787611ba1565b9050610b8f3382611ee3565b60405181815233906000805160206135b48339815191529060200160405180910390a260408051898152602081018790523391600080516020613594833981519152910160405180910390a2610be488612058565b5050505050505050505050565b610bf9612179565b600a54801580610c07575082155b15610c1157505050565b600854610c26906001600160a01b0316611b17565b600080610c348486856121e5565b91509150610c4282826122b3565b610c4c8486612588565b5050505050565b610c5c336126b1565b610c653361273f565b610c6e816127b7565b336000818152600d6020526040908190208381556001908101805460ff19169091179055517f19bc932fb9e16a8b5a1e41be9f4c2de59d5ddd7567b8b81405f532ca00a9880e90610cc29084815260200190565b60405180910390a250565b610cd68161282b565b610cdf336126b1565b610ce8826128dd565b336000908152600b60205260409020546008546001600160a01b0316610d0d81611b17565b81600003610d1f57610d1f338461293c565b6000610d2a3361133b565b90506000610d37336113d9565b90506000610d458583611ba1565b336000818152600b60205260409020600101549192506001600160a01b0390911690610d7390869083611bad565b6000610d7e82611540565b90506000610d8c828b610a64565b9050610d988382611d26565b826001600160a01b03166000805160206135f48339815191528233604051610dc1929190613437565b60405180910390a2610dd3338b612996565b6000610ddf868c610a64565b9050610deb3382611ee3565b60405181815233906000805160206135b48339815191529060200160405180910390a260408051888152602081018790523391600080516020613594833981519152910160405180910390a2610be487612058565b610e48612a4c565b610a626000612aa6565b60008054604080516315b3137b60e21b8152905183926001600160a01b0316916356cc4dec9160048083019260209291908290030181865afa158015610e9c573d6000803e3d6000fd5b505050506040513d601f19601f82011682018060405250810190610ec09190613477565b90506000600160009054906101000a90046001600160a01b03166001600160a01b03166356cc4dec6040518163ffffffff1660e01b8152600401602060405180830381865afa158015610f17573d6000803e3d6000fd5b505050506040513d601f19601f82011682018060405250810190610f3b9190613477565b9050610f478282610a64565b9250505090565b600080546040805163a2f0398360e01b8152905183926001600160a01b03169163a2f039839160048083019260209291908290030181865afa158015610f98573d6000803e3d6000fd5b505050506040513d601f19601f82011682018060405250810190610fbc9190613477565b90506000600160009054906101000a90046001600160a01b03166001600160a01b031663a2f039836040518163ffffffff1660e01b8152600401602060405180830381865afa158015610f17573d6000803e3d6000fd5b6001600160a01b0381166000908152600b602052604081205480820361103c5750600092915050565b6001600160a01b038084166000908152600b6020526040812060010154909116908115611081576001600160a01b0382166000908152600d602052604090205461108b565b670de0b6b3a76400005b6001600160a01b0386166000908152600c60209081526040808320815160a08101835281548152600182015493810193909352600281015491830191909152600301546001600160801b038082166060840152600160801b909104166080820152919250611115670de0b6b3a764000061110f6111088886612af8565b8690612bcc565b90612bd8565b979650505050505050565b336000908152600b602052604090205461113981611aae565b61114233612be4565b61114b33612cdb565b6008546001600160a01b031661116081611b17565b600061116b3361133b565b90506000611178336113d9565b905060006111868583611ba1565b336000818152600b60205260409020600101549192506001600160a01b03909116906111b490869083611bad565b60006111bf82611540565b9050806111cc8382611d26565b826001600160a01b03166000805160206135f483398151915282336040516111f5929190613437565b60405180910390a26112073386611ee3565b60408051878152602081018690523391600080516020613594833981519152910160405180910390a260405185815233906000805160206135b48339815191529060200160405180910390a26009546112609087611ba1565b60098190556040519081526000805160206135d48339815191529060200160405180910390a17f6a5eb4d39360dd25d648e3e96a252255bc09ccad2dcdcfdedeb08c857555cd1233876040516112b7929190613490565b60405180910390a16004805460405163574a1f3d60e11b815233928101929092526001600160a01b038c811660248401528b81166044840152169063ae943e7a9088906064016000604051808303818588803b15801561131657600080fd5b505af115801561132a573d6000803e3d6000fd5b505050505050505050505050505050565b6001600160a01b0381166000908152600b60205260408120548082036113645750600092915050565b6001600160a01b0383166000908152600c60209081526040808320815160a08101835281548152600182015493810193909352600281015491830191909152600301546001600160801b038082166060840152600160801b909104166080820152906113d08383612d54565b95945050505050565b6001600160a01b0381166000908152600b60205260408120548082036114025750600092915050565b6001600160a01b0383166000908152600c60209081526040808320815160a08101835281548152600182015493810193909352600281015491830191909152600301546001600160801b038082166060840152600160801b909104166080820152906113d08383612dd3565b6001600160a01b0381166000908152600e60205260408120548082036114975750600092915050565b6001600160a01b0383166000908152600d6020526040812054906114c3670de0b6b3a764000083611ba1565b6001600160a01b0386166000908152600f60209081526040808320815160a08101835281548152600182015493810193909352600281015491830191909152600301546001600160801b038082166060840152600160801b909104166080820152919250611115670de0b6b3a764000061110f6111088886612af8565b6001600160a01b0381166000908152600e60205260408120548082036115695750600092915050565b6001600160a01b0383166000908152600f60209081526040808320815160a08101835281548152600182015493810193909352600281015491830191909152600301546001600160801b038082166060840152600160801b909104166080820152906113d08383612dd3565b6115dd612a4c565b6115e687612ec5565b6115ef86612ec5565b6115f885612ec5565b61160184612ec5565b61160a83612ec5565b61161382612ec5565b61161c81612ec5565b600480546001600160a01b03199081166001600160a01b038a811691909117909255600580548216898416179055600080548216888416179055600680548216878416179055600780548216868416179055600280548216858416179055600880549091169183169190911790556040517f3ca631ffcd2a9b5d9ae18543fc82f58eb4ca33af9e6ab01b7a8e95331e6ed985906116ba9089906132e1565b60405180910390a17f143219c9e69b09e07e095fcc889b43d8f46ca892bba65f08dc3a0050869a5678866040516116f191906132e1565b60405180910390a17f78f058b189175430c48dc02699e3a0031ea4ff781536dc2fab847de4babdd8828560405161172891906132e1565b60405180910390a17f7faa560f2889840c377209fbc4b6b92d05f43f1fc60bf336ab546fd60c0051ad8460405161175f91906132e1565b60405180910390a17f65f4cf077bc01e4742eb5ad98326f6e95b63548ea24b17f8d5e823111fe788008360405161179691906132e1565b60405180910390a17f8c537274438aa850a330284665d81a85dd38267d09e4050d416bfc94142db264826040516117cd91906132e1565b60405180910390a17f3055265812fb8447b9ada4a5d804ec43bd528ec40e89c952bbc7b85dc5ac68118160405161180491906132e1565b60405180910390a1611814610e40565b50505050505050565b611825612a4c565b6001600160a01b03811661188a5760405162461bcd60e51b815260206004820152602660248201527f4f776e61626c653a206e6577206f776e657220697320746865207a65726f206160448201526564647265737360d01b6064820152608401610a59565b61189381612aa6565b50565b6118aa6103e8670de0b6b3a76400006134a9565b6118b59060056134cb565b81565b60025460408051630fdb11cf60e01b815290516000926001600160a01b031691630fdb11cf916004808301926020929190829003018187875af1158015611903573d6000803e3d6000fd5b505050506040513d601f19601f820116820180604052508101906119279190613477565b90506000600760009054906101000a90046001600160a01b03166001600160a01b0316634d6228316040518163ffffffff1660e01b8152600401602060405180830381865afa15801561197e573d6000803e3d6000fd5b505050506040513d601f19601f820116820180604052508101906119a291906134e2565b600554604051630d293c7160e41b81529192506000916001600160a01b039091169063d293c710906119da9085908790600401613490565b602060405180830381865afa1580156119f7573d6000803e3d6000fd5b505050506040513d601f19601f82011682018060405250810190611a1b9190613477565b9050670f43fc2c04ee0000811015611aa95760405162461bcd60e51b8152602060048201526044602482018190527f53746162696c697479506f6f6c3a2043616e6e6f742077697468647261772077908201527f68696c65207468657265206172652074726f766573207769746820494352203c6064820152631026a1a960e11b608482015260a401610a59565b505050565b600081116118935760405162461bcd60e51b815260206004820152603060248201527f53746162696c697479506f6f6c3a2055736572206d757374206861766520612060448201526f1b9bdb8b5e995c9bc819195c1bdcda5d60821b6064820152608401610a59565b6000816001600160a01b0316624b33196040518163ffffffff1660e01b81526004016020604051808303816000875af1158015611b58573d6000803e3d6000fd5b505050506040513d601f19601f82011682018060405250810190611b7c9190613477565b9050611b8781612f6a565b5050565b6000818310611b9a5781610a70565b5090919050565b6000610a7082846134ff565b6001600160a01b03811615611c6f576000611bc78261146e565b6040516313be223160e31b81529091506001600160a01b03851690639df1118890611bf89085908590600401613490565b600060405180830381600087803b158015611c1257600080fd5b505af1158015611c26573d6000803e3d6000fd5b50505050816001600160a01b03167f6c843f4b36dc1fd842411e86ba3a47df9432c2422e9e6c2efd7a8dbf48ebc18482604051611c6591815260200190565b60405180910390a2505b6000611c7a83611013565b6040516313be223160e31b81529091506001600160a01b03851690639df1118890611cab9086908590600401613490565b600060405180830381600087803b158015611cc557600080fd5b505af1158015611cd9573d6000803e3d6000fd5b50505050826001600160a01b03167f3b78de4c49e618f0164775bab57429a0c7b04df658c5c8809a8d79fe40d2614b82604051611d1891815260200190565b60405180910390a250505050565b6001600160a01b0382166000908152600e60205260408120829055819003611dbb576001600160a01b0382166000818152600f60205260408082208281556001810183905560028101839055600301829055517fbb1322f85cc7cc8bac4e172a5bc5dcc0c1959007f9a030032abf9258205f0e4591611daf918190918252602082015260400190565b60405180910390a25050565b6011546010546001600160801b03600160801b8084048216600081815260136020908152604080832095909716808352948152868220546001600160a01b038a16808452600f835292889020600181018890556002810182905594840286176003909501949094558651868152908101849052939591949390917fbb1322f85cc7cc8bac4e172a5bc5dcc0c1959007f9a030032abf9258205f0e45910160405180910390a2505050505050565b80600003611e74575050565b600654604051631062c15f60e11b81526001600160a01b03909116906320c582be90611ea890309086908690600401613512565b600060405180830381600087803b158015611ec257600080fd5b505af1158015611ed6573d6000803e3d6000fd5b50505050611b878161307b565b6001600160a01b0382166000908152600b60205260408120829055819003611f8b576001600160a01b0382166000818152600b60209081526040808320600190810180546001600160a01b0319169055600c83528184208481559081018490556002810184905560030183905580518381529182018390528101919091527f2d6cc0bcdf72c9486f6451bde6b80f44066f4558f77f44dbfedbe7d8b295225a90606001611daf565b6011546010546001600160801b03600160801b808404821660008181526012602090815260408083209590971680835294815286822054838352601382528783208684528252878320546001600160a01b038b16808552600c84529389902060018101899055828155600281018290559585028717600390960195909555875187815291820181905296810184905293959194939192917f2d6cc0bcdf72c9486f6451bde6b80f44066f4558f77f44dbfedbe7d8b295225a9060600160405180910390a250505050505050565b806000036120635750565b6009546000906120739083611ba1565b60098190556040518181529091506000805160206135d48339815191529060200160405180910390a17f6a5eb4d39360dd25d648e3e96a252255bc09ccad2dcdcfdedeb08c857555cd1233836040516120cd929190613490565b60405180910390a1604051600090339084908381818185875af1925050503d8060008114612117576040519150601f19603f3d011682016040523d82523d6000602084013e61211c565b606091505b5050905080611aa95760405162461bcd60e51b815260206004820152602360248201527f53746162696c697479506f6f6c3a2073656e64696e67205374455448206661696044820152621b195960ea1b6064820152608401610a59565b6005546001600160a01b03163314610a625760405162461bcd60e51b815260206004820152602960248201527f53746162696c697479506f6f6c3a2043616c6c6572206973206e6f742054726f6044820152683b32a6b0b730b3b2b960b91b6064820152608401610a59565b600080600061221160155461220b670de0b6b3a764000089612bcc90919063ffffffff16565b90610a64565b90508385111561222357612223613536565b83850361223f576000601655670de0b6b3a76400009150612287565b6016546000906122619061225b88670de0b6b3a7640000612bcc565b90611ba1565b9050612272600161220b8388612bd8565b92506122828161225b8588612bcc565b601655505b6122918185612bd8565b92506122a76122a08486612bcc565b8290611ba1565b60155550935093915050565b6010546000670de0b6b3a76400008311156122d0576122d0613536565b60006122e4670de0b6b3a764000085611ba1565b6011546001600160801b03600160801b8204811660008181526012602090815260408083209490951680835293905292832054939450909290916123288988612bcc565b905060006123368383610a64565b6001600160801b038581166000818152601260209081526040808320948b16808452948252918290208590558151858152908101929092528101919091529091507fe12e2cd2c9afa8069203ca07e7eff1edce4a075686d0736a8e7e0d593597b2079060600160405180910390a185600003612469576123c06001600160801b03851660016130ca565b601180546001600160801b03908116600160801b93821684021791829055604051929091041681527fb50f0f59e7cb5b421dc77581c3a9919e3806e076e5fa78a874c3f120cb7d874d9060200160405180910390a1601180546001600160801b0319169055604051600081527f1f9dfc70cd666adb18a39d60a797518f7b4febf4b6e24ef37d44f6e1e7219fbe9060200160405180910390a1670de0b6b3a76400009650612534565b633b9aca00612484670de0b6b3a764000061110f8b8a612bcc565b101561251b576124ae670de0b6b3a764000061110f633b9aca006124a88c8b612bcc565b90612bcc565b96506124c46001600160801b03861660016130ca565b601180546001600160801b0319166001600160801b039290921691821790556040519081527f1f9dfc70cd666adb18a39d60a797518f7b4febf4b6e24ef37d44f6e1e7219fbe9060200160405180910390a1612534565b612531670de0b6b3a764000061110f8a89612bcc565b96505b6000871161254457612544613536565b60108790556040518781527fc1a9618cb59ebca77cbdbc2949f126823c407ff13edb285fd0262519a9c18e8c9060200160405180910390a150505050505050505050565b600054604051633b4009ff60e11b8152600481018390526001600160a01b0390911690819063768013fe90602401600060405180830381600087803b1580156125d057600080fd5b505af11580156125e4573d6000803e3d6000fd5b505050506125f18261307b565b600654604051632770a7eb60e21b81526001600160a01b0390911690639dc29fac906126239030908690600401613490565b600060405180830381600087803b15801561263d57600080fd5b505af1158015612651573d6000803e3d6000fd5b505060405163a51ba3b760e01b81526001600160a01b038416925063a51ba3b791506126839030908790600401613490565b600060405180830381600087803b15801561269d57600080fd5b505af1158015611814573d6000803e3d6000fd5b6001600160a01b0381166000908152600d602052604090206001015460ff16156118935760405162461bcd60e51b815260206004820152603960248201527f53746162696c697479506f6f6c3a206d757374206e6f7420616c72656164792060448201527818994818481c9959da5cdd195c995908199c9bdb9d08195b99603a1b6064820152608401610a59565b6001600160a01b0381166000908152600b60205260409020548015611b875760405162461bcd60e51b815260206004820152602860248201527f53746162696c697479506f6f6c3a2055736572206d7573742068617665206e6f6044820152670819195c1bdcda5d60c21b6064820152608401610a59565b670de0b6b3a76400008111156118935760405162461bcd60e51b815260206004820152603360248201527f53746162696c697479506f6f6c3a204b69636b6261636b2072617465206d75736044820152727420626520696e2072616e6765205b302c315d60681b6064820152608401610a59565b6001600160a01b0381166000908152600d602052604090206001015460ff168061285c57506001600160a01b038116155b6118935760405162461bcd60e51b815260206004820152604660248201527f53746162696c697479506f6f6c3a20546167206d75737420626520612072656760448201527f697374657265642066726f6e7420656e642c206f7220746865207a65726f206160648201526564647265737360d01b608482015260a401610a59565b600081116118935760405162461bcd60e51b815260206004820152602660248201527f53746162696c697479506f6f6c3a20416d6f756e74206d757374206265206e6f6044820152656e2d7a65726f60d01b6064820152608401610a59565b6001600160a01b038281166000818152600b602052604080822060010180546001600160a01b0319169486169485179055517f094c08e96a8890877a8390b4f967180a7507ad8622244d05fcd0f9f8e086564e9190a35050565b600654604051632ee65eeb60e21b81526001600160a01b039091169063bb997bac906129ca90859030908690600401613512565b600060405180830381600087803b1580156129e457600080fd5b505af11580156129f8573d6000803e3d6000fd5b5050600a5460009250612a0c915083610a64565b600a8190556040518181529091507f86e501e8d2b9dbc3dc01201117d33c738d636cb164feab96725f9b635202728f9060200160405180910390a1505050565b6003546001600160a01b03163314610a625760405162461bcd60e51b815260206004820181905260248201527f4f776e61626c653a2063616c6c6572206973206e6f7420746865206f776e65726044820152606401610a59565b600380546001600160a01b038381166001600160a01b0319831681179093556040519116919082907f8be0079c531659141344cd1fd0a4f28419497f9722a3daafe3b4186f6b6457e090600090a35050565b608081015160608201516040808401516020808601516001600160801b03808716600090815260138452858120918716815292529281205490949392908590612b419084611ba1565b6001600160801b03808716600090815260136020526040812092935091612b9891633b9aca0091908490612b78908a1660016130ca565b6001600160801b0316815260208101919091526040016000205490612bd8565b90506000612bbe670de0b6b3a764000061110f8681612bb78888610a64565b8f90612bcc565b9a9950505050505050505050565b6000610a7082846134cb565b6000610a7082846134a9565b6005546040516321e3780160e01b81526001600160a01b03909116906321e3780190612c149084906004016132e1565b602060405180830381865afa158015612c31573d6000803e3d6000fd5b505050506040513d601f19601f82011682018060405250810190612c559190613477565b6001146118935760405162461bcd60e51b815260206004820152604860248201527f53746162696c697479506f6f6c3a2063616c6c6572206d75737420686176652060448201527f616e206163746976652074726f766520746f2077697468647261772053744554606482015267484761696e20746f60c01b608482015260a401610a59565b6000612ce68261133b565b905060008111611b875760405162461bcd60e51b815260206004820152603360248201527f53746162696c697479506f6f6c3a2063616c6c6572206d7573742068617665206044820152723737b716bd32b9379029ba22aa241023b0b4b760691b6064820152608401610a59565b6080810151606082015182516020808501516001600160801b03808616600090815260128452604080822092871682529190935282205491949392918590612d9c9084611ba1565b6001600160801b03808716600090815260126020526040812092935091612b9891633b9aca0091908490612b78908a1660016130ca565b6020810151606082015160808301516011546000939291906001600160801b03600160801b90910481169082161015612e125760009350505050610a73565b6011546000908190612e2d906001600160801b031685613149565b9050806001600160801b0316600003612e6057612e598561110f6010548b612bcc90919063ffffffff16565b9150612e97565b806001600160801b0316600103612e9257612e59633b9aca0061110f8761110f6010548d612bcc90919063ffffffff16565b600091505b612ea588633b9aca00612bd8565b821015612eba57600095505050505050610a73565b509695505050505050565b6001600160a01b038116612f1b5760405162461bcd60e51b815260206004820152601e60248201527f4163636f756e742063616e6e6f74206265207a65726f206164647265737300006044820152606401610a59565b803b80611b875760405162461bcd60e51b815260206004820181905260248201527f4163636f756e7420636f64652073697a652063616e6e6f74206265207a65726f6044820152606401610a59565b600a54801580612f78575081155b15612f81575050565b6000612f8d83836131d2565b90506000612fa660105483612bcc90919063ffffffff16565b6011546001600160801b03600160801b820481166000908152601360209081526040808320939094168252919091522054909150612fe49082610a64565b60118054600160801b8082046001600160801b0390811660009081526013602081815260408084209685168452958152858320979097559454928304821680825294865283812092909116808252918552829020548251908152938401929092528201527f2d6127771b164a9cc8827d24b5955db2a77e7a81dac389107ebb8bce9fb649689060600160405180910390a150505050565b600a5460009061308b9083611ba1565b600a8190556040518181529091507f86e501e8d2b9dbc3dc01201117d33c738d636cb164feab96725f9b635202728f9060200160405180910390a15050565b6000806130d7838561354c565b9050836001600160801b0316816001600160801b03161015610a705760405162461bcd60e51b815260206004820152602560248201527f4c697175697479536166654d6174683132383a206164646974696f6e206f766560448201526472666c6f7760d81b6064820152608401610a59565b6000826001600160801b0316826001600160801b031611156131be5760405162461bcd60e51b815260206004820152602860248201527f4c697175697479536166654d6174683132383a207375627472616374696f6e206044820152676f766572666c6f7760c01b6064820152608401610a59565b60006131ca8385613573565b949350505050565b6000806131f660145461220b670de0b6b3a764000087612bcc90919063ffffffff16565b905060006132048285612bd8565b905061321a6132138286612bcc565b8390611ba1565b601455949350505050565b6001600160a01b038116811461189357600080fd5b60006020828403121561324c57600080fd5b8135610a7081613225565b80356001600160801b038116811461326e57600080fd5b919050565b6000806040838503121561328657600080fd5b61328f83613257565b915061329d60208401613257565b90509250929050565b6000602082840312156132b857600080fd5b5035919050565b600080604083850312156132d257600080fd5b50508035926020909101359150565b6001600160a01b0391909116815260200190565b6000806040838503121561330857600080fd5b82359150602083013561331a81613225565b809150509250929050565b600060208083528351808285015260005b8181101561335257858101830151858201604001528201613336565b506000604082860101526040601f19601f8301168501019250505092915050565b6000806040838503121561338657600080fd5b823561339181613225565b9150602083013561331a81613225565b600080600080600080600060e0888a0312156133bc57600080fd5b87356133c781613225565b965060208801356133d781613225565b955060408801356133e781613225565b945060608801356133f781613225565b9350608088013561340781613225565b925060a088013561341781613225565b915060c088013561342781613225565b8091505092959891949750929550565b9182526001600160a01b0316602082015260400190565b634e487b7160e01b600052601160045260246000fd5b80820180821115610a7357610a7361344e565b60006020828403121561348957600080fd5b5051919050565b6001600160a01b03929092168252602082015260400190565b6000826134c657634e487b7160e01b600052601260045260246000fd5b500490565b8082028115828204841417610a7357610a7361344e565b6000602082840312156134f457600080fd5b8151610a7081613225565b81810381811115610a7357610a7361344e565b6001600160a01b039384168152919092166020820152604081019190915260600190565b634e487b7160e01b600052600160045260246000fd5b6001600160801b0381811683821601908082111561356c5761356c61344e565b5092915050565b6001600160801b0382811682821603908082111561356c5761356c61344e56feed2b5662bd1cbb37f8c7a24d7e1394954c107dffd3680938f6b60e7c62eac870bce78369dccab09eec1986f4d409ab09ffbb47d65423e5148fcf98411c5111c9d9d34355afc912a8d32cabbc0259f46ebba5107650be0a60c37c94a3d0ca39d499920012339b5a3368d3a04b8606ce412c46ed92b7dcd8602d41fc8862cb8f25a2646970667358221220200bcf789140ecb4ae374b890db26b41b2cc337900cd36e9075dc8279d1fd90564736f6c63430008130033",
  "devdoc": {
    "kind": "dev",
    "methods": {
      "owner()": {
        "details": "Returns the address of the current owner."
      },
      "renounceOwnership()": {
        "details": "Leaves the contract without owner. It will not be possible to call `onlyOwner` functions. Can only be called by the current owner. NOTE: Renouncing ownership will leave the contract without an owner, thereby disabling any functionality that is only available to the owner."
      },
      "transferOwnership(address)": {
        "details": "Transfers ownership of the contract to a new account (`newOwner`). Can only be called by the current owner."
      }
    },
    "version": 1
  },
  "userdoc": {
    "kind": "user",
    "methods": {},
    "notice": "Fork of Liquity's Stability Pool. Logic remains unchanged. Changes to the contract: - Raised pragma version - Removed an import of IStabilityPool Interface Even though SafeMath is no longer required, the decision was made to keep it to avoid human factor errors The Stability Pool holds BaseFeeLMA tokens deposited by Stability Pool depositors. When a trove is liquidated, then depending on system conditions, some of its BaseFeeLMA debt gets offset with BaseFeeLMA in the Stability Pool:  that is, the offset debt evaporates, and an equal amount of BaseFeeLMA tokens in the Stability Pool is burned. Thus, a liquidation causes each depositor to receive a BaseFeeLMA loss, in proportion to their deposit as a share of total deposits. They also receive an StETH gain, as the StETH collateral of the liquidated trove is distributed among Stability depositors, in the same proportion. When a liquidation occurs, it depletes every deposit by the same fraction: for example, a liquidation that depletes 40% of the total BaseFeeLMA in the Stability Pool, depletes 40% of each deposit. A deposit that has experienced a series of liquidations is termed a \"compounded deposit\": each liquidation depletes the deposit, multiplying it by some factor in range ]0,1[ --- IMPLEMENTATION --- We use a highly scalable method of tracking deposits and StETH gains that has O(1) complexity. When a liquidation occurs, rather than updating each depositor's deposit and StETH gain, we simply update two state variables: a product P, and a sum S. A mathematical manipulation allows us to factor out the initial deposit, and accurately track all depositors' compounded deposits and accumulated StETH gains over time, as liquidations occur, using just these two variables P and S. When depositors join the Stability Pool, they get a snapshot of the latest P and S: P_t and S_t, respectively. The formula for a depositor's accumulated StETH gain is derived here: https://github.com/liquity/dev/blob/main/papers/Scalable_Reward_Distribution_with_Compounding_Stakes.pdf For a given deposit d_t, the ratio P/P_t tells us the factor by which a deposit has decreased since it joined the Stability Pool, and the term d_t * (S - S_t)/P_t gives us the deposit's total accumulated StETH gain. Each liquidation updates the product P and sum S. After a series of liquidations, a compounded deposit and corresponding StETH gain can be calculated using the initial deposit, the depositors snapshots of P and S, and the latest values of P and S. Any time a depositor updates their deposit (withdrawal, top-up) their accumulated StETH gain is paid out, their new deposit is recorded (based on their latest compounded deposit and modified by the withdrawal/top-up), and they receive new snapshots of the latest P and S. Essentially, they make a fresh deposit that overwrites the old one. --- SCALE FACTOR --- Since P is a running product in range ]0,1] that is always-decreasing, it should never reach 0 when multiplied by a number in range ]0,1[. Unfortunately, Solidity floor division always reaches 0, sooner or later. A series of liquidations that nearly empty the Pool (and thus each multiply P by a very small number in range ]0,1[ ) may push P to its 18 digit decimal limit, and round it to 0, when in fact the Pool hasn't been emptied: this would break deposit tracking. So, to track P accurately, we use a scale factor: if a liquidation would cause P to decrease to <1e-9 (and be rounded to 0 by Solidity), we first multiply P by 1e9, and increment a currentScale factor by 1. The added benefit of using 1e9 for the scale factor (rather than 1e18) is that it ensures negligible precision loss close to the scale boundary: when P is at its minimum value of 1e9, the relative precision loss in P due to floor division is only on the order of 1e-9. --- EPOCHS --- Whenever a liquidation fully empties the Stability Pool, all deposits should become 0. However, setting P to 0 would make P be 0 forever, and break all future reward calculations. So, every time the Stability Pool is emptied by a liquidation, we reset P = 1 and currentScale = 0, and increment the currentEpoch by 1. --- TRACKING DEPOSIT OVER SCALE CHANGES AND EPOCHS --- When a deposit is made, it gets snapshots of the currentEpoch and the currentScale. When calculating a compounded deposit, we compare the current epoch to the deposit's epoch snapshot. If the current epoch is newer, then the deposit was present during a pool-emptying liquidation, and necessarily has been depleted to 0. Otherwise, we then compare the current scale to the deposit's scale snapshot. If they're equal, the compounded deposit is given by d_t * P/P_t. If it spans one scale change, it is given by d_t * P/(P_t * 1e9). If it spans more than one scale change, we define the compounded deposit as 0, since it is now less than 1e-9'th of its initial value (e.g. a deposit of 1 billion BaseFeeLMA has depleted to < 1 BaseFeeLMA).  --- TRACKING DEPOSITOR'S StETH GAIN OVER SCALE CHANGES AND EPOCHS --- In the current epoch, the latest value of S is stored upon each scale change, and the mapping (scale -> S) is stored for each epoch. This allows us to calculate a deposit's accumulated StETH gain, during the epoch in which the deposit was non-zero and earned StETH. We calculate the depositor's accumulated StETH gain for the scale at which they made the deposit, using the StETH gain formula: e_1 = d_t * (S - S_t) / P_t and also for scale after, taking care to divide the latter by a factor of 1e9: e_2 = d_t * S / (P_t * 1e9) The gain in the second scale will be full, as the starting point was in the previous scale, thus no need to subtract anything. The deposit therefore was present for reward events from the beginning of that second scale.        S_i-S_t + S_{i+1}      .<--------.------------>      .         .      . S_i     .   S_{i+1}   <--.-------->.<----------->   S_t.         .   <->.         .      t         .  |---+---------|-------------|-----...         i            i+1 The sum of (e_1 + e_2) captures the depositor's total accumulated StETH gain, handling the case where their deposit spanned one scale change. We only care about gains across one scale change, since the compounded deposit is defined as being 0 once it has spanned more than one scale change. --- UPDATING P WHEN A LIQUIDATION OCCURS --- Please see the implementation spec in the proof document, which closely follows on from the compounded deposit / StETH gain derivations: https://github.com/liquity/liquity/blob/master/papers/Scalable_Reward_Distribution_with_Compounding_Stakes.pdf --- HOG ISSUANCE TO STABILITY POOL DEPOSITORS --- A HOG issuance event occurs at every deposit operation, and every liquidation. Each deposit is tagged with the address of the front end through which it was made. All deposits earn a share of the issued HOG in proportion to the deposit as a share of total deposits. The HOG earned by a given deposit, is split between the depositor and the front end through which the deposit was made, based on the front end's kickbackRate. Please see the system Readme for an overview: https://github.com/liquity/dev/blob/main/README.md#hog-issuance-to-stability-providers We use the same mathematical product-sum approach to track HOG gains for depositors, where 'G' is the sum corresponding to HOG gains. The product P (and snapshot P_t) is re-used, as the ratio P/P_t tracks a deposit's depletion due to liquidations.",
    "version": 1
  },
  "storageLayout": {
    "storage": [
      {
        "astId": 25798,
        "contract": "contracts/StabilityPool.sol:StabilityPool",
        "label": "activePool",
        "offset": 0,
        "slot": "0",
        "type": "t_contract(IActivePool)36364"
      },
      {
        "astId": 25801,
        "contract": "contracts/StabilityPool.sol:StabilityPool",
        "label": "defaultPool",
        "offset": 0,
        "slot": "1",
        "type": "t_contract(IDefaultPool)36747"
      },
      {
        "astId": 25805,
        "contract": "contracts/StabilityPool.sol:StabilityPool",
        "label": "priceFeed",
        "offset": 0,
        "slot": "2",
        "type": "t_contract(IPriceFeed)37032"
      },
      {
        "astId": 396,
        "contract": "contracts/StabilityPool.sol:StabilityPool",
        "label": "_owner",
        "offset": 0,
        "slot": "3",
        "type": "t_address"
      },
      {
        "astId": 14915,
        "contract": "contracts/StabilityPool.sol:StabilityPool",
        "label": "borrowerOperations",
        "offset": 0,
        "slot": "4",
        "type": "t_contract(IBorrowerOperations)36630"
      },
      {
        "astId": 14918,
        "contract": "contracts/StabilityPool.sol:StabilityPool",
        "label": "troveManager",
        "offset": 0,
        "slot": "5",
        "type": "t_contract(ITroveManager)37837"
      },
      {
        "astId": 14921,
        "contract": "contracts/StabilityPool.sol:StabilityPool",
        "label": "baseFeeLMAToken",
        "offset": 0,
        "slot": "6",
        "type": "t_contract(IBaseFeeLMAToken)36423"
      },
      {
        "astId": 14924,
        "contract": "contracts/StabilityPool.sol:StabilityPool",
        "label": "sortedTroves",
        "offset": 0,
        "slot": "7",
        "type": "t_contract(ISortedTroves)37164"
      },
      {
        "astId": 14927,
        "contract": "contracts/StabilityPool.sol:StabilityPool",
        "label": "communityIssuance",
        "offset": 0,
        "slot": "8",
        "type": "t_contract(ICommunityIssuance)36724"
      },
      {
        "astId": 14929,
        "contract": "contracts/StabilityPool.sol:StabilityPool",
        "label": "StETH",
        "offset": 0,
        "slot": "9",
        "type": "t_uint256"
      },
      {
        "astId": 14931,
        "contract": "contracts/StabilityPool.sol:StabilityPool",
        "label": "totalBaseFeeLMADeposits",
        "offset": 0,
        "slot": "10",
        "type": "t_uint256"
      },
      {
        "astId": 14957,
        "contract": "contracts/StabilityPool.sol:StabilityPool",
        "label": "deposits",
        "offset": 0,
        "slot": "11",
        "type": "t_mapping(t_address,t_struct(Deposit)14941_storage)"
      },
      {
        "astId": 14962,
        "contract": "contracts/StabilityPool.sol:StabilityPool",
        "label": "depositSnapshots",
        "offset": 0,
        "slot": "12",
        "type": "t_mapping(t_address,t_struct(Snapshots)14952_storage)"
      },
      {
        "astId": 14967,
        "contract": "contracts/StabilityPool.sol:StabilityPool",
        "label": "frontEnds",
        "offset": 0,
        "slot": "13",
        "type": "t_mapping(t_address,t_struct(FrontEnd)14936_storage)"
      },
      {
        "astId": 14971,
        "contract": "contracts/StabilityPool.sol:StabilityPool",
        "label": "frontEndStakes",
        "offset": 0,
        "slot": "14",
        "type": "t_mapping(t_address,t_uint256)"
      },
      {
        "astId": 14976,
        "contract": "contracts/StabilityPool.sol:StabilityPool",
        "label": "frontEndSnapshots",
        "offset": 0,
        "slot": "15",
        "type": "t_mapping(t_address,t_struct(Snapshots)14952_storage)"
      },
      {
        "astId": 14979,
        "contract": "contracts/StabilityPool.sol:StabilityPool",
        "label": "P",
        "offset": 0,
        "slot": "16",
        "type": "t_uint256"
      },
      {
        "astId": 14984,
        "contract": "contracts/StabilityPool.sol:StabilityPool",
        "label": "currentScale",
        "offset": 0,
        "slot": "17",
        "type": "t_uint128"
      },
      {
        "astId": 14986,
        "contract": "contracts/StabilityPool.sol:StabilityPool",
        "label": "currentEpoch",
        "offset": 16,
        "slot": "17",
        "type": "t_uint128"
      },
      {
        "astId": 14992,
        "contract": "contracts/StabilityPool.sol:StabilityPool",
        "label": "epochToScaleToSum",
        "offset": 0,
        "slot": "18",
        "type": "t_mapping(t_uint128,t_mapping(t_uint128,t_uint256))"
      },
      {
        "astId": 14998,
        "contract": "contracts/StabilityPool.sol:StabilityPool",
        "label": "epochToScaleToG",
        "offset": 0,
        "slot": "19",
        "type": "t_mapping(t_uint128,t_mapping(t_uint128,t_uint256))"
      },
      {
        "astId": 15000,
        "contract": "contracts/StabilityPool.sol:StabilityPool",
        "label": "lastHOGError",
        "offset": 0,
        "slot": "20",
        "type": "t_uint256"
      },
      {
        "astId": 15002,
        "contract": "contracts/StabilityPool.sol:StabilityPool",
        "label": "lastStETHError_Offset",
        "offset": 0,
        "slot": "21",
        "type": "t_uint256"
      },
      {
        "astId": 15004,
        "contract": "contracts/StabilityPool.sol:StabilityPool",
        "label": "lastBaseFeeLMALossError_Offset",
        "offset": 0,
        "slot": "22",
        "type": "t_uint256"
      }
    ],
    "types": {
      "t_address": {
        "encoding": "inplace",
        "label": "address",
        "numberOfBytes": "20"
      },
      "t_bool": {
        "encoding": "inplace",
        "label": "bool",
        "numberOfBytes": "1"
      },
      "t_contract(IActivePool)36364": {
        "encoding": "inplace",
        "label": "contract IActivePool",
        "numberOfBytes": "20"
      },
      "t_contract(IBaseFeeLMAToken)36423": {
        "encoding": "inplace",
        "label": "contract IBaseFeeLMAToken",
        "numberOfBytes": "20"
      },
      "t_contract(IBorrowerOperations)36630": {
        "encoding": "inplace",
        "label": "contract IBorrowerOperations",
        "numberOfBytes": "20"
      },
      "t_contract(ICommunityIssuance)36724": {
        "encoding": "inplace",
        "label": "contract ICommunityIssuance",
        "numberOfBytes": "20"
      },
      "t_contract(IDefaultPool)36747": {
        "encoding": "inplace",
        "label": "contract IDefaultPool",
        "numberOfBytes": "20"
      },
      "t_contract(IPriceFeed)37032": {
        "encoding": "inplace",
        "label": "contract IPriceFeed",
        "numberOfBytes": "20"
      },
      "t_contract(ISortedTroves)37164": {
        "encoding": "inplace",
        "label": "contract ISortedTroves",
        "numberOfBytes": "20"
      },
      "t_contract(ITroveManager)37837": {
        "encoding": "inplace",
        "label": "contract ITroveManager",
        "numberOfBytes": "20"
      },
      "t_mapping(t_address,t_struct(Deposit)14941_storage)": {
        "encoding": "mapping",
        "key": "t_address",
        "label": "mapping(address => struct StabilityPool.Deposit)",
        "numberOfBytes": "32",
        "value": "t_struct(Deposit)14941_storage"
      },
      "t_mapping(t_address,t_struct(FrontEnd)14936_storage)": {
        "encoding": "mapping",
        "key": "t_address",
        "label": "mapping(address => struct StabilityPool.FrontEnd)",
        "numberOfBytes": "32",
        "value": "t_struct(FrontEnd)14936_storage"
      },
      "t_mapping(t_address,t_struct(Snapshots)14952_storage)": {
        "encoding": "mapping",
        "key": "t_address",
        "label": "mapping(address => struct StabilityPool.Snapshots)",
        "numberOfBytes": "32",
        "value": "t_struct(Snapshots)14952_storage"
      },
      "t_mapping(t_address,t_uint256)": {
        "encoding": "mapping",
        "key": "t_address",
        "label": "mapping(address => uint256)",
        "numberOfBytes": "32",
        "value": "t_uint256"
      },
      "t_mapping(t_uint128,t_mapping(t_uint128,t_uint256))": {
        "encoding": "mapping",
        "key": "t_uint128",
        "label": "mapping(uint128 => mapping(uint128 => uint256))",
        "numberOfBytes": "32",
        "value": "t_mapping(t_uint128,t_uint256)"
      },
      "t_mapping(t_uint128,t_uint256)": {
        "encoding": "mapping",
        "key": "t_uint128",
        "label": "mapping(uint128 => uint256)",
        "numberOfBytes": "32",
        "value": "t_uint256"
      },
      "t_struct(Deposit)14941_storage": {
        "encoding": "inplace",
        "label": "struct StabilityPool.Deposit",
        "members": [
          {
            "astId": 14938,
            "contract": "contracts/StabilityPool.sol:StabilityPool",
            "label": "initialValue",
            "offset": 0,
            "slot": "0",
            "type": "t_uint256"
          },
          {
            "astId": 14940,
            "contract": "contracts/StabilityPool.sol:StabilityPool",
            "label": "frontEndTag",
            "offset": 0,
            "slot": "1",
            "type": "t_address"
          }
        ],
        "numberOfBytes": "64"
      },
      "t_struct(FrontEnd)14936_storage": {
        "encoding": "inplace",
        "label": "struct StabilityPool.FrontEnd",
        "members": [
          {
            "astId": 14933,
            "contract": "contracts/StabilityPool.sol:StabilityPool",
            "label": "kickbackRate",
            "offset": 0,
            "slot": "0",
            "type": "t_uint256"
          },
          {
            "astId": 14935,
            "contract": "contracts/StabilityPool.sol:StabilityPool",
            "label": "registered",
            "offset": 0,
            "slot": "1",
            "type": "t_bool"
          }
        ],
        "numberOfBytes": "64"
      },
      "t_struct(Snapshots)14952_storage": {
        "encoding": "inplace",
        "label": "struct StabilityPool.Snapshots",
        "members": [
          {
            "astId": 14943,
            "contract": "contracts/StabilityPool.sol:StabilityPool",
            "label": "S",
            "offset": 0,
            "slot": "0",
            "type": "t_uint256"
          },
          {
            "astId": 14945,
            "contract": "contracts/StabilityPool.sol:StabilityPool",
            "label": "P",
            "offset": 0,
            "slot": "1",
            "type": "t_uint256"
          },
          {
            "astId": 14947,
            "contract": "contracts/StabilityPool.sol:StabilityPool",
            "label": "G",
            "offset": 0,
            "slot": "2",
            "type": "t_uint256"
          },
          {
            "astId": 14949,
            "contract": "contracts/StabilityPool.sol:StabilityPool",
            "label": "scale",
            "offset": 0,
            "slot": "3",
            "type": "t_uint128"
          },
          {
            "astId": 14951,
            "contract": "contracts/StabilityPool.sol:StabilityPool",
            "label": "epoch",
            "offset": 16,
            "slot": "3",
            "type": "t_uint128"
          }
        ],
        "numberOfBytes": "128"
      },
      "t_uint128": {
        "encoding": "inplace",
        "label": "uint128",
        "numberOfBytes": "16"
      },
      "t_uint256": {
        "encoding": "inplace",
        "label": "uint256",
        "numberOfBytes": "32"
      }
    }
  }
}