{
  "address": "0x8f7F0f3a6d82A478123c9a57fbe9931884223901",
  "abi": [
    {
      "anonymous": false,
      "inputs": [
        {
          "indexed": false,
          "internalType": "address",
          "name": "_activePoolAddress",
          "type": "address"
        }
      ],
      "name": "ActivePoolAddressChanged",
      "type": "event"
    },
    {
      "anonymous": false,
      "inputs": [
        {
          "indexed": false,
          "internalType": "address",
          "name": "_newBaseFeeLMATokenAddress",
          "type": "address"
        }
      ],
      "name": "BaseFeeLMATokenAddressChanged",
      "type": "event"
    },
    {
      "anonymous": false,
      "inputs": [
        {
          "indexed": false,
          "internalType": "uint256",
          "name": "_baseRate",
          "type": "uint256"
        }
      ],
      "name": "BaseRateUpdated",
      "type": "event"
    },
    {
      "anonymous": false,
      "inputs": [
        {
          "indexed": false,
          "internalType": "address",
          "name": "_newBorrowerOperationsAddress",
          "type": "address"
        }
      ],
      "name": "BorrowerOperationsAddressChanged",
      "type": "event"
    },
    {
      "anonymous": false,
      "inputs": [
        {
          "indexed": false,
          "internalType": "address",
          "name": "_collSurplusPoolAddress",
          "type": "address"
        }
      ],
      "name": "CollSurplusPoolAddressChanged",
      "type": "event"
    },
    {
      "anonymous": false,
      "inputs": [
        {
          "indexed": false,
          "internalType": "address",
          "name": "_defaultPoolAddress",
          "type": "address"
        }
      ],
      "name": "DefaultPoolAddressChanged",
      "type": "event"
    },
    {
      "anonymous": false,
      "inputs": [
        {
          "indexed": false,
          "internalType": "address",
          "name": "_gasPoolAddress",
          "type": "address"
        }
      ],
      "name": "GasPoolAddressChanged",
      "type": "event"
    },
    {
      "anonymous": false,
      "inputs": [
        {
          "indexed": false,
          "internalType": "address",
          "name": "_hogStakingAddress",
          "type": "address"
        }
      ],
      "name": "HOGStakingAddressChanged",
      "type": "event"
    },
    {
      "anonymous": false,
      "inputs": [
        {
          "indexed": false,
          "internalType": "address",
          "name": "_hogTokenAddress",
          "type": "address"
        }
      ],
      "name": "HOGTokenAddressChanged",
      "type": "event"
    },
    {
      "anonymous": false,
      "inputs": [
        {
          "indexed": false,
          "internalType": "uint256",
          "name": "_L_StETH",
          "type": "uint256"
        },
        {
          "indexed": false,
          "internalType": "uint256",
          "name": "_L_BaseFeeLMADebt",
          "type": "uint256"
        }
      ],
      "name": "LTermsUpdated",
      "type": "event"
    },
    {
      "anonymous": false,
      "inputs": [
        {
          "indexed": false,
          "internalType": "uint256",
          "name": "_lastFeeOpTime",
          "type": "uint256"
        }
      ],
      "name": "LastFeeOpTimeUpdated",
      "type": "event"
    },
    {
      "anonymous": false,
      "inputs": [
        {
          "indexed": false,
          "internalType": "uint256",
          "name": "_liquidatedDebt",
          "type": "uint256"
        },
        {
          "indexed": false,
          "internalType": "uint256",
          "name": "_liquidatedColl",
          "type": "uint256"
        },
        {
          "indexed": false,
          "internalType": "uint256",
          "name": "_collGasCompensation",
          "type": "uint256"
        },
        {
          "indexed": false,
          "internalType": "uint256",
          "name": "_BaseFeeLMAGasCompensation",
          "type": "uint256"
        }
      ],
      "name": "Liquidation",
      "type": "event"
    },
    {
      "anonymous": false,
      "inputs": [
        {
          "indexed": true,
          "internalType": "address",
          "name": "previousOwner",
          "type": "address"
        },
        {
          "indexed": true,
          "internalType": "address",
          "name": "newOwner",
          "type": "address"
        }
      ],
      "name": "OwnershipTransferred",
      "type": "event"
    },
    {
      "anonymous": false,
      "inputs": [
        {
          "indexed": false,
          "internalType": "address",
          "name": "_newPriceFeedAddress",
          "type": "address"
        }
      ],
      "name": "PriceFeedAddressChanged",
      "type": "event"
    },
    {
      "anonymous": false,
      "inputs": [
        {
          "indexed": false,
          "internalType": "uint256",
          "name": "_attemptedBaseFeeLMAAmount",
          "type": "uint256"
        },
        {
          "indexed": false,
          "internalType": "uint256",
          "name": "_actualBaseFeeLMAAmount",
          "type": "uint256"
        },
        {
          "indexed": false,
          "internalType": "uint256",
          "name": "_StETHSent",
          "type": "uint256"
        },
        {
          "indexed": false,
          "internalType": "uint256",
          "name": "_StETHFee",
          "type": "uint256"
        }
      ],
      "name": "Redemption",
      "type": "event"
    },
    {
      "anonymous": false,
      "inputs": [
        {
          "indexed": false,
          "internalType": "address",
          "name": "_sortedTrovesAddress",
          "type": "address"
        }
      ],
      "name": "SortedTrovesAddressChanged",
      "type": "event"
    },
    {
      "anonymous": false,
      "inputs": [
        {
          "indexed": false,
          "internalType": "address",
          "name": "_stabilityPoolAddress",
          "type": "address"
        }
      ],
      "name": "StabilityPoolAddressChanged",
      "type": "event"
    },
    {
      "anonymous": false,
      "inputs": [
        {
          "indexed": false,
          "internalType": "uint256",
          "name": "_totalStakesSnapshot",
          "type": "uint256"
        },
        {
          "indexed": false,
          "internalType": "uint256",
          "name": "_totalCollateralSnapshot",
          "type": "uint256"
        }
      ],
      "name": "SystemSnapshotsUpdated",
      "type": "event"
    },
    {
      "anonymous": false,
      "inputs": [
        {
          "indexed": false,
          "internalType": "uint256",
          "name": "_newTotalStakes",
          "type": "uint256"
        }
      ],
      "name": "TotalStakesUpdated",
      "type": "event"
    },
    {
      "anonymous": false,
      "inputs": [
        {
          "indexed": false,
          "internalType": "address",
          "name": "_borrower",
          "type": "address"
        },
        {
          "indexed": false,
          "internalType": "uint256",
          "name": "_newIndex",
          "type": "uint256"
        }
      ],
      "name": "TroveIndexUpdated",
      "type": "event"
    },
    {
      "anonymous": false,
      "inputs": [
        {
          "indexed": true,
          "internalType": "address",
          "name": "_borrower",
          "type": "address"
        },
        {
          "indexed": false,
          "internalType": "uint256",
          "name": "_debt",
          "type": "uint256"
        },
        {
          "indexed": false,
          "internalType": "uint256",
          "name": "_coll",
          "type": "uint256"
        },
        {
          "indexed": false,
          "internalType": "enum TroveManager.TroveManagerOperation",
          "name": "_operation",
          "type": "uint8"
        }
      ],
      "name": "TroveLiquidated",
      "type": "event"
    },
    {
      "anonymous": false,
      "inputs": [
        {
          "indexed": false,
          "internalType": "uint256",
          "name": "_L_StETH",
          "type": "uint256"
        },
        {
          "indexed": false,
          "internalType": "uint256",
          "name": "_L_BaseFeeLMADebt",
          "type": "uint256"
        }
      ],
      "name": "TroveSnapshotsUpdated",
      "type": "event"
    },
    {
      "anonymous": false,
      "inputs": [
        {
          "indexed": true,
          "internalType": "address",
          "name": "_borrower",
          "type": "address"
        },
        {
          "indexed": false,
          "internalType": "uint256",
          "name": "_debt",
          "type": "uint256"
        },
        {
          "indexed": false,
          "internalType": "uint256",
          "name": "_coll",
          "type": "uint256"
        },
        {
          "indexed": false,
          "internalType": "uint256",
          "name": "_stake",
          "type": "uint256"
        },
        {
          "indexed": false,
          "internalType": "enum TroveManager.TroveManagerOperation",
          "name": "_operation",
          "type": "uint8"
        }
      ],
      "name": "TroveUpdated",
      "type": "event"
    },
    {
      "inputs": [],
      "name": "BETA",
      "outputs": [
        {
          "internalType": "uint256",
          "name": "",
          "type": "uint256"
        }
      ],
      "stateMutability": "view",
      "type": "function"
    },
    {
      "inputs": [],
      "name": "BOOTSTRAP_PERIOD",
      "outputs": [
        {
          "internalType": "uint256",
          "name": "",
          "type": "uint256"
        }
      ],
      "stateMutability": "view",
      "type": "function"
    },
    {
      "inputs": [],
      "name": "BORROWING_FEE_FLOOR",
      "outputs": [
        {
          "internalType": "uint256",
          "name": "",
          "type": "uint256"
        }
      ],
      "stateMutability": "view",
      "type": "function"
    },
    {
      "inputs": [],
      "name": "BaseFeeLMA_GAS_COMPENSATION",
      "outputs": [
        {
          "internalType": "uint256",
          "name": "",
          "type": "uint256"
        }
      ],
      "stateMutability": "view",
      "type": "function"
    },
    {
      "inputs": [],
      "name": "CCR",
      "outputs": [
        {
          "internalType": "uint256",
          "name": "",
          "type": "uint256"
        }
      ],
      "stateMutability": "view",
      "type": "function"
    },
    {
      "inputs": [],
      "name": "DECIMAL_PRECISION",
      "outputs": [
        {
          "internalType": "uint256",
          "name": "",
          "type": "uint256"
        }
      ],
      "stateMutability": "view",
      "type": "function"
    },
    {
      "inputs": [],
      "name": "L_BaseFeeLMADebt",
      "outputs": [
        {
          "internalType": "uint256",
          "name": "",
          "type": "uint256"
        }
      ],
      "stateMutability": "view",
      "type": "function"
    },
    {
      "inputs": [],
      "name": "L_StETH",
      "outputs": [
        {
          "internalType": "uint256",
          "name": "",
          "type": "uint256"
        }
      ],
      "stateMutability": "view",
      "type": "function"
    },
    {
      "inputs": [],
      "name": "MAX_BORROWING_FEE",
      "outputs": [
        {
          "internalType": "uint256",
          "name": "",
          "type": "uint256"
        }
      ],
      "stateMutability": "view",
      "type": "function"
    },
    {
      "inputs": [],
      "name": "MCR",
      "outputs": [
        {
          "internalType": "uint256",
          "name": "",
          "type": "uint256"
        }
      ],
      "stateMutability": "view",
      "type": "function"
    },
    {
      "inputs": [],
      "name": "MINUTE_DECAY_FACTOR",
      "outputs": [
        {
          "internalType": "uint256",
          "name": "",
          "type": "uint256"
        }
      ],
      "stateMutability": "view",
      "type": "function"
    },
    {
      "inputs": [],
      "name": "MIN_NET_DEBT",
      "outputs": [
        {
          "internalType": "uint256",
          "name": "",
          "type": "uint256"
        }
      ],
      "stateMutability": "view",
      "type": "function"
    },
    {
      "inputs": [],
      "name": "NAME",
      "outputs": [
        {
          "internalType": "string",
          "name": "",
          "type": "string"
        }
      ],
      "stateMutability": "view",
      "type": "function"
    },
    {
      "inputs": [],
      "name": "PERCENT_DIVISOR",
      "outputs": [
        {
          "internalType": "uint256",
          "name": "",
          "type": "uint256"
        }
      ],
      "stateMutability": "view",
      "type": "function"
    },
    {
      "inputs": [],
      "name": "REDEMPTION_FEE_FLOOR",
      "outputs": [
        {
          "internalType": "uint256",
          "name": "",
          "type": "uint256"
        }
      ],
      "stateMutability": "view",
      "type": "function"
    },
    {
      "inputs": [],
      "name": "SECONDS_IN_ONE_MINUTE",
      "outputs": [
        {
          "internalType": "uint256",
          "name": "",
          "type": "uint256"
        }
      ],
      "stateMutability": "view",
      "type": "function"
    },
    {
      "inputs": [
        {
          "internalType": "uint256",
          "name": "",
          "type": "uint256"
        }
      ],
      "name": "TroveOwners",
      "outputs": [
        {
          "internalType": "address",
          "name": "",
          "type": "address"
        }
      ],
      "stateMutability": "view",
      "type": "function"
    },
    {
      "inputs": [
        {
          "internalType": "address",
          "name": "",
          "type": "address"
        }
      ],
      "name": "Troves",
      "outputs": [
        {
          "internalType": "uint256",
          "name": "debt",
          "type": "uint256"
        },
        {
          "internalType": "uint256",
          "name": "coll",
          "type": "uint256"
        },
        {
          "internalType": "uint256",
          "name": "stake",
          "type": "uint256"
        },
        {
          "internalType": "enum TroveManager.Status",
          "name": "status",
          "type": "uint8"
        },
        {
          "internalType": "uint128",
          "name": "arrayIndex",
          "type": "uint128"
        }
      ],
      "stateMutability": "view",
      "type": "function"
    },
    {
      "inputs": [],
      "name": "_100pct",
      "outputs": [
        {
          "internalType": "uint256",
          "name": "",
          "type": "uint256"
        }
      ],
      "stateMutability": "view",
      "type": "function"
    },
    {
      "inputs": [],
      "name": "activePool",
      "outputs": [
        {
          "internalType": "contract IActivePool",
          "name": "",
          "type": "address"
        }
      ],
      "stateMutability": "view",
      "type": "function"
    },
    {
      "inputs": [
        {
          "internalType": "address",
          "name": "_borrower",
          "type": "address"
        }
      ],
      "name": "addTroveOwnerToArray",
      "outputs": [
        {
          "internalType": "uint256",
          "name": "index",
          "type": "uint256"
        }
      ],
      "stateMutability": "nonpayable",
      "type": "function"
    },
    {
      "inputs": [
        {
          "internalType": "address",
          "name": "_borrower",
          "type": "address"
        }
      ],
      "name": "applyPendingRewards",
      "outputs": [],
      "stateMutability": "nonpayable",
      "type": "function"
    },
    {
      "inputs": [],
      "name": "baseFeeLMAToken",
      "outputs": [
        {
          "internalType": "contract IBaseFeeLMAToken",
          "name": "",
          "type": "address"
        }
      ],
      "stateMutability": "view",
      "type": "function"
    },
    {
      "inputs": [],
      "name": "baseRate",
      "outputs": [
        {
          "internalType": "uint256",
          "name": "",
          "type": "uint256"
        }
      ],
      "stateMutability": "view",
      "type": "function"
    },
    {
      "inputs": [
        {
          "internalType": "address[]",
          "name": "_troveArray",
          "type": "address[]"
        }
      ],
      "name": "batchLiquidateTroves",
      "outputs": [],
      "stateMutability": "nonpayable",
      "type": "function"
    },
    {
      "inputs": [],
      "name": "borrowerOperationsAddress",
      "outputs": [
        {
          "internalType": "address",
          "name": "",
          "type": "address"
        }
      ],
      "stateMutability": "view",
      "type": "function"
    },
    {
      "inputs": [
        {
          "internalType": "uint256",
          "name": "_price",
          "type": "uint256"
        }
      ],
      "name": "checkRecoveryMode",
      "outputs": [
        {
          "internalType": "bool",
          "name": "",
          "type": "bool"
        }
      ],
      "stateMutability": "view",
      "type": "function"
    },
    {
      "inputs": [
        {
          "internalType": "address",
          "name": "_borrower",
          "type": "address"
        }
      ],
      "name": "closeTrove",
      "outputs": [],
      "stateMutability": "nonpayable",
      "type": "function"
    },
    {
      "inputs": [],
      "name": "decayBaseRateFromBorrowing",
      "outputs": [],
      "stateMutability": "nonpayable",
      "type": "function"
    },
    {
      "inputs": [
        {
          "internalType": "address",
          "name": "_borrower",
          "type": "address"
        },
        {
          "internalType": "uint256",
          "name": "_collDecrease",
          "type": "uint256"
        }
      ],
      "name": "decreaseTroveColl",
      "outputs": [
        {
          "internalType": "uint256",
          "name": "",
          "type": "uint256"
        }
      ],
      "stateMutability": "nonpayable",
      "type": "function"
    },
    {
      "inputs": [
        {
          "internalType": "address",
          "name": "_borrower",
          "type": "address"
        },
        {
          "internalType": "uint256",
          "name": "_debtDecrease",
          "type": "uint256"
        }
      ],
      "name": "decreaseTroveDebt",
      "outputs": [
        {
          "internalType": "uint256",
          "name": "",
          "type": "uint256"
        }
      ],
      "stateMutability": "nonpayable",
      "type": "function"
    },
    {
      "inputs": [],
      "name": "defaultPool",
      "outputs": [
        {
          "internalType": "contract IDefaultPool",
          "name": "",
          "type": "address"
        }
      ],
      "stateMutability": "view",
      "type": "function"
    },
    {
      "inputs": [
        {
          "internalType": "uint256",
          "name": "_BaseFeeLMADebt",
          "type": "uint256"
        }
      ],
      "name": "getBorrowingFee",
      "outputs": [
        {
          "internalType": "uint256",
          "name": "",
          "type": "uint256"
        }
      ],
      "stateMutability": "view",
      "type": "function"
    },
    {
      "inputs": [
        {
          "internalType": "uint256",
          "name": "_BaseFeeLMADebt",
          "type": "uint256"
        }
      ],
      "name": "getBorrowingFeeWithDecay",
      "outputs": [
        {
          "internalType": "uint256",
          "name": "",
          "type": "uint256"
        }
      ],
      "stateMutability": "view",
      "type": "function"
    },
    {
      "inputs": [],
      "name": "getBorrowingRate",
      "outputs": [
        {
          "internalType": "uint256",
          "name": "",
          "type": "uint256"
        }
      ],
      "stateMutability": "view",
      "type": "function"
    },
    {
      "inputs": [],
      "name": "getBorrowingRateWithDecay",
      "outputs": [
        {
          "internalType": "uint256",
          "name": "",
          "type": "uint256"
        }
      ],
      "stateMutability": "view",
      "type": "function"
    },
    {
      "inputs": [
        {
          "internalType": "address",
          "name": "_borrower",
          "type": "address"
        },
        {
          "internalType": "uint256",
          "name": "_price",
          "type": "uint256"
        }
      ],
      "name": "getCurrentICR",
      "outputs": [
        {
          "internalType": "uint256",
          "name": "",
          "type": "uint256"
        }
      ],
      "stateMutability": "view",
      "type": "function"
    },
    {
      "inputs": [
        {
          "internalType": "address",
          "name": "_borrower",
          "type": "address"
        }
      ],
      "name": "getEntireDebtAndColl",
      "outputs": [
        {
          "internalType": "uint256",
          "name": "debt",
          "type": "uint256"
        },
        {
          "internalType": "uint256",
          "name": "coll",
          "type": "uint256"
        },
        {
          "internalType": "uint256",
          "name": "pendingBaseFeeLMADebtReward",
          "type": "uint256"
        },
        {
          "internalType": "uint256",
          "name": "pendingStETHReward",
          "type": "uint256"
        }
      ],
      "stateMutability": "view",
      "type": "function"
    },
    {
      "inputs": [],
      "name": "getEntireSystemColl",
      "outputs": [
        {
          "internalType": "uint256",
          "name": "entireSystemColl",
          "type": "uint256"
        }
      ],
      "stateMutability": "view",
      "type": "function"
    },
    {
      "inputs": [],
      "name": "getEntireSystemDebt",
      "outputs": [
        {
          "internalType": "uint256",
          "name": "entireSystemDebt",
          "type": "uint256"
        }
      ],
      "stateMutability": "view",
      "type": "function"
    },
    {
      "inputs": [
        {
          "internalType": "address",
          "name": "_borrower",
          "type": "address"
        }
      ],
      "name": "getNominalICR",
      "outputs": [
        {
          "internalType": "uint256",
          "name": "",
          "type": "uint256"
        }
      ],
      "stateMutability": "view",
      "type": "function"
    },
    {
      "inputs": [
        {
          "internalType": "address",
          "name": "_borrower",
          "type": "address"
        }
      ],
      "name": "getPendingBaseFeeLMADebtReward",
      "outputs": [
        {
          "internalType": "uint256",
          "name": "",
          "type": "uint256"
        }
      ],
      "stateMutability": "view",
      "type": "function"
    },
    {
      "inputs": [
        {
          "internalType": "address",
          "name": "_borrower",
          "type": "address"
        }
      ],
      "name": "getPendingStETHReward",
      "outputs": [
        {
          "internalType": "uint256",
          "name": "",
          "type": "uint256"
        }
      ],
      "stateMutability": "view",
      "type": "function"
    },
    {
      "inputs": [
        {
          "internalType": "uint256",
          "name": "_StETHDrawn",
          "type": "uint256"
        }
      ],
      "name": "getRedemptionFeeWithDecay",
      "outputs": [
        {
          "internalType": "uint256",
          "name": "",
          "type": "uint256"
        }
      ],
      "stateMutability": "view",
      "type": "function"
    },
    {
      "inputs": [],
      "name": "getRedemptionRate",
      "outputs": [
        {
          "internalType": "uint256",
          "name": "",
          "type": "uint256"
        }
      ],
      "stateMutability": "view",
      "type": "function"
    },
    {
      "inputs": [],
      "name": "getRedemptionRateWithDecay",
      "outputs": [
        {
          "internalType": "uint256",
          "name": "",
          "type": "uint256"
        }
      ],
      "stateMutability": "view",
      "type": "function"
    },
    {
      "inputs": [
        {
          "internalType": "uint256",
          "name": "_price",
          "type": "uint256"
        }
      ],
      "name": "getTCR",
      "outputs": [
        {
          "internalType": "uint256",
          "name": "",
          "type": "uint256"
        }
      ],
      "stateMutability": "view",
      "type": "function"
    },
    {
      "inputs": [
        {
          "internalType": "address",
          "name": "_borrower",
          "type": "address"
        }
      ],
      "name": "getTroveColl",
      "outputs": [
        {
          "internalType": "uint256",
          "name": "",
          "type": "uint256"
        }
      ],
      "stateMutability": "view",
      "type": "function"
    },
    {
      "inputs": [
        {
          "internalType": "address",
          "name": "_borrower",
          "type": "address"
        }
      ],
      "name": "getTroveDebt",
      "outputs": [
        {
          "internalType": "uint256",
          "name": "",
          "type": "uint256"
        }
      ],
      "stateMutability": "view",
      "type": "function"
    },
    {
      "inputs": [
        {
          "internalType": "uint256",
          "name": "_index",
          "type": "uint256"
        }
      ],
      "name": "getTroveFromTroveOwnersArray",
      "outputs": [
        {
          "internalType": "address",
          "name": "",
          "type": "address"
        }
      ],
      "stateMutability": "view",
      "type": "function"
    },
    {
      "inputs": [],
      "name": "getTroveOwnersCount",
      "outputs": [
        {
          "internalType": "uint256",
          "name": "",
          "type": "uint256"
        }
      ],
      "stateMutability": "view",
      "type": "function"
    },
    {
      "inputs": [
        {
          "internalType": "address",
          "name": "_borrower",
          "type": "address"
        }
      ],
      "name": "getTroveStake",
      "outputs": [
        {
          "internalType": "uint256",
          "name": "",
          "type": "uint256"
        }
      ],
      "stateMutability": "view",
      "type": "function"
    },
    {
      "inputs": [
        {
          "internalType": "address",
          "name": "_borrower",
          "type": "address"
        }
      ],
      "name": "getTroveStatus",
      "outputs": [
        {
          "internalType": "uint256",
          "name": "",
          "type": "uint256"
        }
      ],
      "stateMutability": "view",
      "type": "function"
    },
    {
      "inputs": [
        {
          "internalType": "address",
          "name": "_borrower",
          "type": "address"
        }
      ],
      "name": "hasPendingRewards",
      "outputs": [
        {
          "internalType": "bool",
          "name": "",
          "type": "bool"
        }
      ],
      "stateMutability": "view",
      "type": "function"
    },
    {
      "inputs": [],
      "name": "hogStaking",
      "outputs": [
        {
          "internalType": "contract IHOGStaking",
          "name": "",
          "type": "address"
        }
      ],
      "stateMutability": "view",
      "type": "function"
    },
    {
      "inputs": [],
      "name": "hogToken",
      "outputs": [
        {
          "internalType": "contract IHOGToken",
          "name": "",
          "type": "address"
        }
      ],
      "stateMutability": "view",
      "type": "function"
    },
    {
      "inputs": [
        {
          "internalType": "address",
          "name": "_borrower",
          "type": "address"
        },
        {
          "internalType": "uint256",
          "name": "_collIncrease",
          "type": "uint256"
        }
      ],
      "name": "increaseTroveColl",
      "outputs": [
        {
          "internalType": "uint256",
          "name": "",
          "type": "uint256"
        }
      ],
      "stateMutability": "nonpayable",
      "type": "function"
    },
    {
      "inputs": [
        {
          "internalType": "address",
          "name": "_borrower",
          "type": "address"
        },
        {
          "internalType": "uint256",
          "name": "_debtIncrease",
          "type": "uint256"
        }
      ],
      "name": "increaseTroveDebt",
      "outputs": [
        {
          "internalType": "uint256",
          "name": "",
          "type": "uint256"
        }
      ],
      "stateMutability": "nonpayable",
      "type": "function"
    },
    {
      "inputs": [],
      "name": "lastBaseFeeLMADebtError_Redistribution",
      "outputs": [
        {
          "internalType": "uint256",
          "name": "",
          "type": "uint256"
        }
      ],
      "stateMutability": "view",
      "type": "function"
    },
    {
      "inputs": [],
      "name": "lastFeeOperationTime",
      "outputs": [
        {
          "internalType": "uint256",
          "name": "",
          "type": "uint256"
        }
      ],
      "stateMutability": "view",
      "type": "function"
    },
    {
      "inputs": [],
      "name": "lastStETHError_Redistribution",
      "outputs": [
        {
          "internalType": "uint256",
          "name": "",
          "type": "uint256"
        }
      ],
      "stateMutability": "view",
      "type": "function"
    },
    {
      "inputs": [
        {
          "internalType": "address",
          "name": "_borrower",
          "type": "address"
        }
      ],
      "name": "liquidate",
      "outputs": [],
      "stateMutability": "nonpayable",
      "type": "function"
    },
    {
      "inputs": [
        {
          "internalType": "uint256",
          "name": "_n",
          "type": "uint256"
        }
      ],
      "name": "liquidateTroves",
      "outputs": [],
      "stateMutability": "nonpayable",
      "type": "function"
    },
    {
      "inputs": [],
      "name": "owner",
      "outputs": [
        {
          "internalType": "address",
          "name": "",
          "type": "address"
        }
      ],
      "stateMutability": "view",
      "type": "function"
    },
    {
      "inputs": [],
      "name": "priceFeed",
      "outputs": [
        {
          "internalType": "contract IPriceFeed",
          "name": "",
          "type": "address"
        }
      ],
      "stateMutability": "view",
      "type": "function"
    },
    {
      "inputs": [
        {
          "internalType": "uint256",
          "name": "_BaseFeeLMAamount",
          "type": "uint256"
        },
        {
          "internalType": "address",
          "name": "_firstRedemptionHint",
          "type": "address"
        },
        {
          "internalType": "address",
          "name": "_upperPartialRedemptionHint",
          "type": "address"
        },
        {
          "internalType": "address",
          "name": "_lowerPartialRedemptionHint",
          "type": "address"
        },
        {
          "internalType": "uint256",
          "name": "_partialRedemptionHintNICR",
          "type": "uint256"
        },
        {
          "internalType": "uint256",
          "name": "_maxIterations",
          "type": "uint256"
        },
        {
          "internalType": "uint256",
          "name": "_maxFeePercentage",
          "type": "uint256"
        }
      ],
      "name": "redeemCollateral",
      "outputs": [],
      "stateMutability": "nonpayable",
      "type": "function"
    },
    {
      "inputs": [
        {
          "internalType": "address",
          "name": "_borrower",
          "type": "address"
        }
      ],
      "name": "removeStake",
      "outputs": [],
      "stateMutability": "nonpayable",
      "type": "function"
    },
    {
      "inputs": [],
      "name": "renounceOwnership",
      "outputs": [],
      "stateMutability": "nonpayable",
      "type": "function"
    },
    {
      "inputs": [
        {
          "internalType": "address",
          "name": "",
          "type": "address"
        }
      ],
      "name": "rewardSnapshots",
      "outputs": [
        {
          "internalType": "uint256",
          "name": "StETH",
          "type": "uint256"
        },
        {
          "internalType": "uint256",
          "name": "BaseFeeLMADebt",
          "type": "uint256"
        }
      ],
      "stateMutability": "view",
      "type": "function"
    },
    {
      "inputs": [
        {
          "internalType": "address",
          "name": "_borrowerOperationsAddress",
          "type": "address"
        },
        {
          "internalType": "address",
          "name": "_activePoolAddress",
          "type": "address"
        },
        {
          "internalType": "address",
          "name": "_defaultPoolAddress",
          "type": "address"
        },
        {
          "internalType": "address",
          "name": "_stabilityPoolAddress",
          "type": "address"
        },
        {
          "internalType": "address",
          "name": "_gasPoolAddress",
          "type": "address"
        },
        {
          "internalType": "address",
          "name": "_collSurplusPoolAddress",
          "type": "address"
        },
        {
          "internalType": "address",
          "name": "_priceFeedAddress",
          "type": "address"
        },
        {
          "internalType": "address",
          "name": "_baseFeeLMATokenAddress",
          "type": "address"
        },
        {
          "internalType": "address",
          "name": "_sortedTrovesAddress",
          "type": "address"
        },
        {
          "internalType": "address",
          "name": "_hogTokenAddress",
          "type": "address"
        },
        {
          "internalType": "address",
          "name": "_hogStakingAddress",
          "type": "address"
        }
      ],
      "name": "setAddresses",
      "outputs": [],
      "stateMutability": "nonpayable",
      "type": "function"
    },
    {
      "inputs": [
        {
          "internalType": "address",
          "name": "_borrower",
          "type": "address"
        },
        {
          "internalType": "uint256",
          "name": "_num",
          "type": "uint256"
        }
      ],
      "name": "setTroveStatus",
      "outputs": [],
      "stateMutability": "nonpayable",
      "type": "function"
    },
    {
      "inputs": [],
      "name": "sortedTroves",
      "outputs": [
        {
          "internalType": "contract ISortedTroves",
          "name": "",
          "type": "address"
        }
      ],
      "stateMutability": "view",
      "type": "function"
    },
    {
      "inputs": [],
      "name": "stabilityPool",
      "outputs": [
        {
          "internalType": "contract IStabilityPool",
          "name": "",
          "type": "address"
        }
      ],
      "stateMutability": "view",
      "type": "function"
    },
    {
      "inputs": [],
      "name": "totalCollateralSnapshot",
      "outputs": [
        {
          "internalType": "uint256",
          "name": "",
          "type": "uint256"
        }
      ],
      "stateMutability": "view",
      "type": "function"
    },
    {
      "inputs": [],
      "name": "totalStakes",
      "outputs": [
        {
          "internalType": "uint256",
          "name": "",
          "type": "uint256"
        }
      ],
      "stateMutability": "view",
      "type": "function"
    },
    {
      "inputs": [],
      "name": "totalStakesSnapshot",
      "outputs": [
        {
          "internalType": "uint256",
          "name": "",
          "type": "uint256"
        }
      ],
      "stateMutability": "view",
      "type": "function"
    },
    {
      "inputs": [
        {
          "internalType": "address",
          "name": "newOwner",
          "type": "address"
        }
      ],
      "name": "transferOwnership",
      "outputs": [],
      "stateMutability": "nonpayable",
      "type": "function"
    },
    {
      "inputs": [
        {
          "internalType": "address",
          "name": "_borrower",
          "type": "address"
        }
      ],
      "name": "updateStakeAndTotalStakes",
      "outputs": [
        {
          "internalType": "uint256",
          "name": "",
          "type": "uint256"
        }
      ],
      "stateMutability": "nonpayable",
      "type": "function"
    },
    {
      "inputs": [
        {
          "internalType": "address",
          "name": "_borrower",
          "type": "address"
        }
      ],
      "name": "updateTroveRewardSnapshots",
      "outputs": [],
      "stateMutability": "nonpayable",
      "type": "function"
    }
  ],
  "transactionHash": "0x9b3469438ecd0251980f377039a1e5fe6e9ff7ab9b6723cbc7a995afba93aa35",
  "args": [],
  "numDeployments": 1,
  "solcInputHash": "9ecf665800a41151f067138e0a5139af",
  "bytecode": "0x60806040523480156200001157600080fd5b506200001d3362000023565b62000075565b600380546001600160a01b038381166001600160a01b0319831681179093556040519116919082907f8be0079c531659141344cd1fd0a4f28419497f9722a3daafe3b4186f6b6457e090600090a35050565b61559d80620000856000396000f3fe608060405234801561001057600080fd5b50600436106104655760003560e01c8063795d26c311610257578063b91af97c11610146578063d380a37c116100c3578063e2ac77b011610087578063e2ac77b0146109fd578063f2fde38b14610a10578063f36b242514610a23578063f92d343314610596578063fe2ba84814610a2b57600080fd5b8063d380a37c14610992578063d3d6f8431461099b578063d5b35635146109ae578063d66a2553146109c1578063d9a72444146109ea57600080fd5b8063c52861f21161010a578063c52861f21461094c578063c7b5548114610954578063c91a7e2f14610963578063cbd138ae1461096c578063d293c7101461097f57600080fd5b8063b91af97c146108ea578063bcd375261461091d578063bf9befb114610930578063bf9ebee214610939578063c35bc5501461094257600080fd5b8063981c4f48116101d4578063ae91875411610198578063ae9187541461088b578063aead9dcc1461089e578063b0d8e181146108b1578063b7f8cf9b146108c4578063b82f263d146108d757600080fd5b8063981c4f481461081d5780639976cf4514610830578063a201415214610843578063a20baee614610751578063a3f4df7e1461085357600080fd5b8063887105d31161021b578063887105d3146107df5780638da5cb5b146107e75780638f913789146107f8578063900e664b1461080b57806396d711ff1461081457600080fd5b8063795d26c3146107955780637985c5e41461079d5780637f7dde4a146107b0578063807d138d146107c357806382fe3eb9146107cc57600080fd5b8063480cd5781161037357806364cee260116102f057806372423c17116102b457806372423c171461073e57806372fe25aa14610751578063741bef1a14610760578063756b253e14610773578063794e57241461078657600080fd5b806364cee26014610696578063653d46e7146106c257806366ca4a21146106d55780636ef64338146106dd578063715018a61461073657600080fd5b80635733d58f116103375780635733d58f146106515780635d6b480f146106605780635dba4c4a1461067357806361ec893d1461067b578063631203b01461068357600080fd5b8063480cd578146105df5780634870dd9a1461060b57806349eefeee146106135780634e443d9e1461061b578063570dc45e1461063e57600080fd5b80631bf435551161040157806328d28b5b116103c557806328d28b5b146105965780632b11551a1461059e5780632f865568146105a65780633cc74225146105b9578063477d66cf146105cc57600080fd5b80631bf435551461054f5780631e8b1c2b1461055f5780631f68f20a1461057257806321e378011461057b578063240926691461058e57600080fd5b8063048c661d1461046a578063071a7541146104935780630b076557146104a95780630c08ff5f146104be57806312610e92146104d157806315d549f1146104e45780631673c79a146104f757806318f2817a146105335780631b199a6414610546575b600080fd5b60055461047d906001600160a01b031681565b60405161048a9190614fb4565b60405180910390f35b61049b600281565b60405190815260200161048a565b6104bc6104b7366004614fed565b610a3e565b005b61049b6104cc366004614fed565b610a66565b61049b6104df36600461500a565b610b22565b61049b6104f2366004614fed565b610b74565b61051e610505366004614fed565b6014602052600090815260409020805460019091015482565b6040805192835260208301919091520161048a565b61049b610541366004614fed565b610b96565b61049b60175481565b61049b686194049f30f720000081565b6104bc61056d36600461504c565b610ba9565b61049b600c5481565b61049b610589366004614fed565b610f4b565b61049b610f7b565b61049b610f9c565b61049b610fb0565b6104bc6105b4366004614fed565b610fc2565b60015461047d906001600160a01b031681565b61049b6105da366004615111565b61102e565b61049b6105ed366004614fed565b6001600160a01b03166000908152600e602052604090206001015490565b61049b60c881565b60155461049b565b61062e610629366004615111565b611041565b604051901515815260200161048a565b60095461047d906001600160a01b031681565b61049b6714d1120d7b16000081565b6104bc61066e36600461500a565b61104c565b6104bc6110a4565b61049b603c81565b61049b610691366004615111565b611110565b61049b6106a4366004614fed565b6001600160a01b03166000908152600e602052604090206002015490565b6104bc6106d0366004615111565b61111d565b61049b61148e565b6107256106eb366004614fed565b600e6020526000908152604090208054600182015460028301546003909301549192909160ff81169061010090046001600160801b031685565b60405161048a959493929190615140565b6104bc6114a0565b61049b61074c36600461500a565b6114b4565b61049b670de0b6b3a764000081565b60025461047d906001600160a01b031681565b61047d610781366004615111565b61150b565b61049b670f43fc2c04ee000081565b61049b611535565b6104bc6107ab366004615186565b611631565b60005461047d906001600160a01b031681565b61049b60105481565b6104bc6107da366004614fed565b6119ad565b61049b6119be565b6003546001600160a01b031661047d565b60085461047d906001600160a01b031681565b61049b60135481565b61049b60115481565b61049b61082b366004614fed565b611a83565b61049b61083e36600461500a565b611aab565b61049b680ad78ebc5ac620000081565b61087e6040518060400160405280600c81526020016b2a3937bb32a6b0b730b3b2b960a11b81525081565b60405161048a9190615264565b600b5461047d906001600160a01b031681565b600a5461047d906001600160a01b031681565b61049b6108bf366004614fed565b611ad8565b60045461047d906001600160a01b031681565b61049b6108e5366004615111565b611aff565b6108fd6108f8366004614fed565b611b0a565b60408051948552602085019390935291830152606082015260800161048a565b6104bc61092b3660046152b2565b611b62565b61049b600f5481565b61049b60125481565b61049b6212750081565b61049b6122ea565b61049b670ddd4b8c6c7d70d881565b61049b60165481565b6104bc61097a366004614fed565b6122fc565b61049b61098d36600461500a565b61230f565b61049b600d5481565b61049b6109a936600461500a565b61232e565b61049b6109bc366004615111565b61235e565b61049b6109cf366004614fed565b6001600160a01b03166000908152600e602052604090205490565b61047d6109f8366004615111565b612371565b61062e610a0b366004614fed565b6123a1565b6104bc610a1e366004614fed565b612404565b61049b61247a565b6104bc610a39366004614fed565b612487565b610a46612498565b600054600154610a63916001600160a01b03908116911683612518565b50565b6001600160a01b0381166000908152601460205260408120600101546013548290610a91908361261e565b9050801580610ad0575060016001600160a01b0385166000908152600e602052604090206003015460ff166004811115610acd57610acd61512a565b14155b15610adf575060009392505050565b6001600160a01b0384166000908152600e602052604081206002015490610b18670de0b6b3a7640000610b128486612631565b9061263d565b9695505050505050565b6000610b2c612498565b6001600160a01b0383166000908152600e6020526040812054610b4f908461261e565b6001600160a01b0385166000908152600e602052604090208190559150505b92915050565b6000610b7e612498565b610b8782612649565b6001600160801b031692915050565b6000610ba0612498565b610b6e826126e3565b8051600003610c1e5760405162461bcd60e51b815260206004820152603660248201527f54726f76654d616e616765723a2043616c6c646174612061646472657373206160448201527572726179206d757374206e6f7420626520656d70747960501b60648201526084015b60405180910390fd5b6000546001546005546001600160a01b03928316929182169116610c40614eef565b610c48614f20565b600260009054906101000a90046001600160a01b03166001600160a01b0316630fdb11cf6040518163ffffffff1660e01b81526004016020604051808303816000875af1158015610c9d573d6000803e3d6000fd5b505050506040513d601f19601f82011682018060405250810190610cc19190615320565b826000018181525050826001600160a01b031663488df0fc6040518163ffffffff1660e01b8152600401602060405180830381865afa158015610d08573d6000803e3d6000fd5b505050506040513d601f19601f82011682018060405250810190610d2c9190615320565b60208301528151610d3c90612787565b1580156040840152610d6457610d5d8585846000015185602001518a6127a4565b9050610d7c565b610d798585846000015185602001518a6129cb565b90505b6000816020015111610da05760405162461bcd60e51b8152600401610c1590615339565b608081015160a082015160405163335525ad60e01b81526001600160a01b0386169263335525ad92610ddd92600401918252602082015260400190565b600060405180830381600087803b158015610df757600080fd5b505af1158015610e0b573d6000803e3d6000fd5b50505050610e2385858360c001518460e00151612a9b565b61010081015115610e9a5760075461010082015160405163a51ba3b760e01b81526001600160a01b038881169363a51ba3b793610e6793929091169160040161537b565b600060405180830381600087803b158015610e8157600080fd5b505af1158015610e95573d6000803e3d6000fd5b505050505b610ea8858260400151612cd6565b6020810151606083015261010081015160408201518251610ed49291610ece919061261e565b9061261e565b6080838101829052606080850151604085810151868401518251938452602084019690965290820152908101929092527f4152c73dd2614c4f9fc35e8c9cf16013cd588c75b49a4c1673ecffdcbcda9403910160405180910390a1610f43853383606001518460400151612e1a565b505050505050565b6001600160a01b0381166000908152600e602052604081206003015460ff166004811115610b6e57610b6e61512a565b610f8e6064670de0b6b3a76400006153c0565b610f999060056153d4565b81565b610f8e6103e8670de0b6b3a76400006153c0565b6000610fbd600c54612efd565b905090565b610fcb81612f33565b604080516001808252818301909252600091602080830190803683370190505090508181600081518110611001576110016153eb565b60200260200101906001600160a01b031690816001600160a01b03168152505061102a81610ba9565b5050565b6000610b6e61103b61148e565b83612fca565b6000610b6e82612787565b611054612498565b8060048111156110665761106661512a565b6001600160a01b0383166000908152600e60205260409020600301805460ff1916600183600481111561109b5761109b61512a565b02179055505050565b6110ac612498565b60006110b6612fe2565b9050670de0b6b3a76400008111156110d0576110d0615401565b600c8190556040518181527fc454ee9b76c52f782a256af821b857ca6e125d1e3333bcede402fec2bed9600c9060200160405180910390a1610a63613026565b6000610b6e61103b61247a565b6040805160e081018252600080546001600160a01b0390811683526001548116602084015292820181905260608201819052600b548316608083015260a0820181905260c0820152600554909116611173614eef565b61117b614f20565b600260009054906101000a90046001600160a01b03166001600160a01b0316630fdb11cf6040518163ffffffff1660e01b81526004016020604051808303816000875af11580156111d0573d6000803e3d6000fd5b505050506040513d601f19601f820116820180604052508101906111f49190615320565b826000018181525050826001600160a01b031663488df0fc6040518163ffffffff1660e01b8152600401602060405180830381865afa15801561123b573d6000803e3d6000fd5b505050506040513d601f19601f8201168201806040525081019061125f9190615320565b6020830152815161126f90612787565b15801560408401526112965761128f848360000151846020015188613084565b90506112b6565b6112b3846000015185602001518460000151856020015189613402565b90505b60008160200151116112da5760405162461bcd60e51b8152600401610c1590615339565b608081015160a082015160405163335525ad60e01b81526001600160a01b0386169263335525ad9261131792600401918252602082015260400190565b600060405180830381600087803b15801561133157600080fd5b505af1158015611345573d6000803e3d6000fd5b50505050611365846000015185602001518360c001518460e00151612a9b565b610100810151156113dc57835160075461010083015160405163a51ba3b760e01b81526001600160a01b039384169363a51ba3b7936113a99391169160040161537b565b600060405180830381600087803b1580156113c357600080fd5b505af11580156113d7573d6000803e3d6000fd5b505050505b6113ee84600001518260400151612cd6565b60208101516060830152610100810151604082015182516114149291610ece919061261e565b6080838101829052606080850151604085810151868401518251938452602084019690965290820152908101929092527f4152c73dd2614c4f9fc35e8c9cf16013cd588c75b49a4c1673ecffdcbcda9403910160405180910390a161148784600001513383606001518460400151612e1a565b5050505050565b6000610fbd61149b612fe2565b613533565b6114a8613573565b6114b260006135cd565b565b60006114be612498565b6001600160a01b0383166000908152600e60205260408120600101546114e4908461361f565b6001600160a01b0385166000908152600e6020526040902060010181905591505092915050565b6015818154811061151b57600080fd5b6000918252602090912001546001600160a01b0316905081565b60008054604080516315b3137b60e21b8152905183926001600160a01b0316916356cc4dec9160048083019260209291908290030181865afa15801561157f573d6000803e3d6000fd5b505050506040513d601f19601f820116820180604052508101906115a39190615320565b90506000600160009054906101000a90046001600160a01b03166001600160a01b03166356cc4dec6040518163ffffffff1660e01b8152600401602060405180830381865afa1580156115fa573d6000803e3d6000fd5b505050506040513d601f19601f8201168201806040525081019061161e9190615320565b905061162a828261361f565b9250505090565b611639613573565b6116428b61362b565b61164b8a61362b565b6116548961362b565b61165d8861362b565b6116668761362b565b61166f8661362b565b6116788561362b565b6116818461362b565b61168a8361362b565b6116938261362b565b61169c8161362b565b600480546001600160a01b03199081166001600160a01b038e8116919091179092556000805482168d84161790556001805482168c84161790556005805482168b84161790556006805482168a8416179055600780548216898416179055600280548216888416179055600880548216878416179055600b80548216868416179055600980548216858416179055600a80549091169183169190911790556040517f3ca631ffcd2a9b5d9ae18543fc82f58eb4ca33af9e6ab01b7a8e95331e6ed9859061176a908d90614fb4565b60405180910390a17f78f058b189175430c48dc02699e3a0031ea4ff781536dc2fab847de4babdd8828a6040516117a19190614fb4565b60405180910390a17f5ee0cae2f063ed938bb55046f6a932fb6ae792bf43624806bb90abe68a50be9b896040516117d89190614fb4565b60405180910390a17f82966d27eea39b038ee0fa30cd16532bb24f6e65d31cb58fb227aa5766cdcc7f8860405161180f9190614fb4565b60405180910390a17fcfb07d791fcafc032b35837b50eb84b74df518cf4cc287e8084f47630fa70fa0876040516118469190614fb4565b60405180910390a17fe67f36a6e961157d6eff83b91f3af5a62131ceb6f04954ef74f51c1c05e7f88d8660405161187d9190614fb4565b60405180910390a17f8c537274438aa850a330284665d81a85dd38267d09e4050d416bfc94142db264856040516118b49190614fb4565b60405180910390a17f7faa560f2889840c377209fbc4b6b92d05f43f1fc60bf336ab546fd60c0051ad846040516118eb9190614fb4565b60405180910390a17f65f4cf077bc01e4742eb5ad98326f6e95b63548ea24b17f8d5e823111fe78800836040516119229190614fb4565b60405180910390a17f0d32e4ef3d389440323b172cfc07c6c01bdd1d3e8334379048eec21e8d919b77826040516119599190614fb4565b60405180910390a17ffe7e5f521efd6e9fda9261f1223b2cda79ba84d0393e8b6629d27db91048126f816040516119909190614fb4565b60405180910390a16119a06114a0565b5050505050505050505050565b6119b5612498565b610a63816136d0565b600080546040805163a2f0398360e01b8152905183926001600160a01b03169163a2f039839160048083019260209291908290030181865afa158015611a08573d6000803e3d6000fd5b505050506040513d601f19601f82011682018060405250810190611a2c9190615320565b90506000600160009054906101000a90046001600160a01b03166001600160a01b031663a2f039836040518163ffffffff1660e01b8152600401602060405180830381865afa1580156115fa573d6000803e3d6000fd5b6001600160a01b0381166000908152601460205260408120546012548290610a91908361261e565b6000611ab5612498565b6001600160a01b0383166000908152600e6020526040812054610b4f908461361f565b6000806000611ae684613734565b915091506000611af683836137ae565b95945050505050565b6000610b6e826137dd565b6001600160a01b0381166000908152600e602052604081208054600190910154909180611b3685610a66565b9150611b4185611a83565b9050611b4d848361361f565b9350611b59838261361f565b92509193509193565b6040805160e08082018352600080546001600160a01b0390811684526001548116602080860191909152600854821685870152600a548216606080870191909152600b548316608080880191909152600754841660a08089019190915260065490941660c080890191909152885161010081018a5286815293840186905297830185905290820184905281018390529081018290529384018190529083015290611c0b83613809565b611c136138a4565b600260009054906101000a90046001600160a01b03166001600160a01b0316630fdb11cf6040518163ffffffff1660e01b81526004016020604051808303816000875af1158015611c68573d6000803e3d6000fd5b505050506040513d601f19601f82011682018060405250810190611c8c9190615320565b60c08201819052611c9c90613998565b611ca589613a0b565b611cb48260400151338b613a72565b611cbc611535565b60e0820181905260408084015190516370a0823160e01b81526001600160a01b03909116906370a0823190611cf5903390600401614fb4565b602060405180830381865afa158015611d12573d6000803e3d6000fd5b505050506040513d601f19601f82011682018060405250810190611d369190615320565b1115611d4457611d44615401565b888152608082015160c0820151600091611d5f918b90613b72565b15611d6b575087611e7d565b82608001516001600160a01b0316634d6228316040518163ffffffff1660e01b8152600401602060405180830381865afa158015611dad573d6000803e3d6000fd5b505050506040513d601f19601f82011682018060405250810190611dd19190615417565b90505b6001600160a01b03811615801590611e005750670f43fc2c04ee0000611dfe828460c0015161230f565b105b15611e7d5782608001516001600160a01b031663b72703ac826040518263ffffffff1660e01b8152600401611e359190614fb4565b602060405180830381865afa158015611e52573d6000803e3d6000fd5b505050506040513d601f19601f82011682018060405250810190611e769190615417565b9050611dd4565b84600003611e8b5760001994505b6001600160a01b03811615801590611ea35750815115155b8015611eaf5750600085115b15611fbb5784611ebe81615434565b955050600083608001516001600160a01b031663b72703ac836040518263ffffffff1660e01b8152600401611ef39190614fb4565b602060405180830381865afa158015611f10573d6000803e3d6000fd5b505050506040513d601f19601f82011682018060405250810190611f349190615417565b9050611f498460000151856020015184612518565b6000611f62858486600001518760c001518e8e8e613cbc565b9050806040015115611f75575050611fbb565b80516020850151611f859161361f565b6020808601919091528101516040850151611f9f9161361f565b604085015280518451611fb19161261e565b8452509050611e8b565b60008260400151116120215760405162461bcd60e51b815260206004820152602960248201527f54726f76654d616e616765723a20556e61626c6520746f2072656465656d20616044820152681b9e48185b5bdd5b9d60ba1b6064820152608401610c15565b61203882604001518360c001518460e00151613f40565b506120468260400151613fdc565b60608301819052604083015161205d919086613fe9565b82516060808501519084015160405163a51ba3b760e01b81526001600160a01b039093169263a51ba3b79261209692909160040161537b565b600060405180830381600087803b1580156120b057600080fd5b505af11580156120c4573d6000803e3d6000fd5b5050505082606001516001600160a01b031663b307829d83606001516040518263ffffffff1660e01b81526004016120fe91815260200190565b600060405180830381600087803b15801561211857600080fd5b505af115801561212c573d6000803e3d6000fd5b50505050606082015160408301516121439161261e565b60808301526020820151604080840151606085015191517f43a3f4082a4dbc33d78e317d2497d3a730bc7fc3574159dcea1056e62e5d9ad89361219f938f93919293845260208401929092526040830152606082015260800190565b60405180910390a182604001516001600160a01b0316639dc29fac3384602001516040518363ffffffff1660e01b81526004016121dd92919061537b565b600060405180830381600087803b1580156121f757600080fd5b505af115801561220b573d6000803e3d6000fd5b505084516020850151604051633b4009ff60e11b81526001600160a01b03909216935063768013fe92506122459160040190815260200190565b600060405180830381600087803b15801561225f57600080fd5b505af1158015612273573d6000803e3d6000fd5b50508451608085015160405163a51ba3b760e01b81526001600160a01b03909216935063a51ba3b792506122ac9133919060040161537b565b600060405180830381600087803b1580156122c657600080fd5b505af11580156122da573d6000803e3d6000fd5b5050505050505050505050505050565b6000610fbd6122f7612fe2565b612efd565b612304612498565b610a63816002614053565b600080600061231d85613734565b915091506000610b18838387614180565b6000612338612498565b6001600160a01b0383166000908152600e60205260408120600101546114e4908461261e565b6000610b6e61236b6122ea565b836141aa565b600060158281548110612386576123866153eb565b6000918252602090912001546001600160a01b031692915050565b600060016001600160a01b0383166000908152600e602052604090206003015460ff1660048111156123d5576123d561512a565b146123e257506000919050565b506012546001600160a01b039091166000908152601460205260409020541090565b61240c613573565b6001600160a01b0381166124715760405162461bcd60e51b815260206004820152602660248201527f4f776e61626c653a206e6577206f776e657220697320746865207a65726f206160448201526564647265737360d01b6064820152608401610c15565b610a63816135cd565b6000610fbd600c54613533565b61248f612498565b610a6381614233565b6004546001600160a01b031633146114b25760405162461bcd60e51b815260206004820152603b60248201527f54726f76654d616e616765723a2043616c6c6572206973206e6f74207468652060448201527f426f72726f7765724f7065726174696f6e7320636f6e747261637400000000006064820152608401610c15565b612521816123a1565b156126195761252f81612f33565b600061253a82611a83565b9050600061254783610a66565b6001600160a01b0384166000908152600e6020526040902060010154909150612570908361361f565b6001600160a01b0384166000908152600e6020526040902060018101919091555461259b908261361f565b6001600160a01b0384166000908152600e60205260409020556125bd836136d0565b6125c98585838561427d565b6001600160a01b0383166000818152600e60205260408082208054600182015460029092015492516000805160206155488339815191529461260e949293929161545f565b60405180910390a250505b505050565b600061262a8284615481565b9392505050565b600061262a82846153d4565b600061262a82846153c0565b601580546001808201835560008381527f55f448fdea98c4d29eb340757ef0a66cd03dbb9538908a6a81d96026b71ec47590920180546001600160a01b0319166001600160a01b038616179055915490916126a4919061261e565b6001600160a01b03929092166000908152600e602052604090206003018054610100600160881b0319166101006001600160801b038516021790555090565b6001600160a01b0381166000908152600e6020526040812060010154819061270a9061435e565b6001600160a01b0384166000908152600e60205260409020600201805490829055600f5491925090612748908390612742908461261e565b9061361f565b600f8190556040519081527f6bac5e0eb3c44eb03a60ab11ec3a2c051771616aecadbcfff2630aabae5203829060200160405180910390a15092915050565b600080612793836137dd565b6714d1120d7b160000119392505050565b6127ac614f20565b6127b4614f6c565b6127bc614f20565b848252600060808301526127ce611535565b60a08301526127db6119be565b60c0830152600060208301525b8351826020015110156129c0578382602001518151811061280b5761280b6153eb565b6020908102919091018101516001600160a01b0316606084018190526000908152600e909152604090206003015460019060ff1660048111156128505761285061512a565b036129a85761286382606001518761230f565b6040830152608082015161295057670f43fc2c04ee000082604001511015801561288c57508151155b6129a85760006128a58360c001518460a0015189614180565b90506128c28989856060015186604001518760000151868d61439f565b608081015184519193506128d6919061261e565b8352608082015160a08401516128eb9161261e565b8360a0018181525050612920826101000151610ece8460400151610ece8660a001518860c0015161261e90919063ffffffff16565b60c084015261292f8483614699565b93506129448360c001518460a001518961477a565b156080840152506129a8565b8160800151801561296c5750670f43fc2c04ee00008260400151105b156129a85761298588888460600151856000015161479b565b60808101518351919250612999919061261e565b82526129a58382614699565b92505b602082018051906129b882615494565b9052506127e8565b505095945050505050565b6129d3614f20565b6129db614f6c565b6129e3614f20565b848252600060208301525b8351826020015110156129c05783826020015181518110612a1157612a116153eb565b60209081029190910101516001600160a01b031660608301819052612a36908761230f565b60408301819052670f43fc2c04ee00001115612a8357612a6088888460600151856000015161479b565b60808101518351919250612a74919061261e565b8252612a808382614699565b92505b60208201805190612a9382615494565b9052506129ee565b8115612cd057601654600090612abd9061274284670de0b6b3a7640000612631565b90506000612ae2601754612742670de0b6b3a76400008761263190919063ffffffff16565b90506000612afb600f548461263d90919063ffffffff16565b90506000612b14600f548461263d90919063ffffffff16565b9050612b35612b2e600f548461263190919063ffffffff16565b859061261e565b601655600f54612b5190612b4a908390612631565b849061261e565b601755601254612b61908361361f565b601255601354612b71908261361f565b60138190556012546040517f9f8bc8ab0daf5bceef75ecfd2085d1fcc6548c657ea970d9a23a60610d0737e392612baf928252602082015260400190565b60405180910390a1604051633b4009ff60e11b8152600481018790526001600160a01b0389169063768013fe90602401600060405180830381600087803b158015612bf957600080fd5b505af1158015612c0d573d6000803e3d6000fd5b505060405163262b890160e01b8152600481018990526001600160a01b038a16925063262b89019150602401600060405180830381600087803b158015612c5357600080fd5b505af1158015612c67573d6000803e3d6000fd5b505060405163a51ba3b760e01b81526001600160a01b038b16925063a51ba3b79150612c99908a90899060040161537b565b600060405180830381600087803b158015612cb357600080fd5b505af1158015612cc7573d6000803e3d6000fd5b50505050505050505b50505050565b600f546010819055506000826001600160a01b031663a2f039836040518163ffffffff1660e01b8152600401602060405180830381865afa158015612d1f573d6000803e3d6000fd5b505050506040513d601f19601f82011682018060405250810190612d439190615320565b90506000600160009054906101000a90046001600160a01b03166001600160a01b031663a2f039836040518163ffffffff1660e01b8152600401602060405180830381865afa158015612d9a573d6000803e3d6000fd5b505050506040513d601f19601f82011682018060405250810190612dbe9190615320565b9050612dce81612742848661261e565b60118190556010546040517f51bf4c63ec3cba9d03d43238abbdd979dd91bd16d9895c74ceea9118c7baaf6092612e0c928252602082015260400190565b60405180910390a150505050565b8115612e9157600854600654604051631062c15f60e11b81526001600160a01b0391821660048201528582166024820152604481018590529116906320c582be90606401600060405180830381600087803b158015612e7857600080fd5b505af1158015612e8c573d6000803e3d6000fd5b505050505b8015612cd05760405163a51ba3b760e01b81526001600160a01b0385169063a51ba3b790612ec5908690859060040161537b565b600060405180830381600087803b158015612edf57600080fd5b505af1158015612ef3573d6000803e3d6000fd5b5050505050505050565b6000610b6e612f2583612f1a6103e8670de0b6b3a76400006153c0565b6127429060056153d4565b670de0b6b3a76400006148e3565b60016001600160a01b0382166000908152600e602052604090206003015460ff166004811115612f6557612f6561512a565b14610a635760405162461bcd60e51b815260206004820152602f60248201527f54726f76654d616e616765723a2054726f766520646f6573206e6f742065786960448201526e1cdd081bdc881a5cc818db1bdcd959608a1b6064820152608401610c15565b600061262a670de0b6b3a7640000610b128585612631565b600080612fed6148f9565b90506000613003670ddd4b8c6c7d70d883614915565b905061162a670de0b6b3a7640000610b1283600c5461263190919063ffffffff16565b600061303d600d544261261e90919063ffffffff16565b9050603c8110610a635742600d8190556040519081527f860f8d2f0c74dd487e89e2883e3b25b8159ce1e1b3433a291cba7b82c508f3bc906020015b60405180910390a150565b61308c614f20565b613094614f6c565b61309c614f20565b848252600060808301526130ae611535565b60a08301526130bb6119be565b8260c001818152505086608001516001600160a01b0316634d6228316040518163ffffffff1660e01b8152600401602060405180830381865afa158015613106573d6000803e3d6000fd5b505050506040513d601f19601f8201168201806040525081019061312a9190615417565b82606001906001600160a01b031690816001600160a01b031681525050600087608001516001600160a01b0316631e2231436040518163ffffffff1660e01b8152600401602060405180830381865afa15801561318b573d6000803e3d6000fd5b505050506040513d601f19601f820116820180604052508101906131af9190615417565b6000602085015290505b8483602001511080156131e25750806001600160a01b031683606001516001600160a01b031614155b156133f75760808801516060840151604051632dc9c0eb60e21b81526000926001600160a01b03169163b72703ac9161321e9190600401614fb4565b602060405180830381865afa15801561323b573d6000803e3d6000fd5b505050506040513d601f19601f8201168201806040525081019061325f9190615417565b905061326f84606001518961230f565b6040850152608084015161336757670f43fc2c04ee000084604001511015801561329857508351155b156132a357506133f7565b60006132b88560c001518660a001518b614180565b8a5160208c01516060880151604089015189519495506132d994868f61439f565b608081015186519195506132ed919061261e565b8552608084015160a08601516133029161261e565b8560a0018181525050613337846101000151610ece8660400151610ece8860a001518a60c0015161261e90919063ffffffff16565b60c08601526133468685614699565b955061335b8560c001518660a001518b61477a565b156080860152506133d1565b836080015180156133835750670f43fc2c04ee00008460400151105b156133cb576133a489600001518a602001518660600151876000015161479b565b608081015185519194506133b8919061261e565b84526133c48584614699565b94506133d1565b506133f7565b6001600160a01b03166060840152602083018051906133ef82615494565b9052506131b9565b505050949350505050565b61340a614f20565b613412614f6c565b61341a614f20565b600b54858352600060208401526001600160a01b03165b848360200151101561352757806001600160a01b0316634d6228316040518163ffffffff1660e01b8152600401602060405180830381865afa15801561347b573d6000803e3d6000fd5b505050506040513d601f19601f8201168201806040525081019061349f9190615417565b6001600160a01b0316606084018190526134b9908861230f565b60408401819052670f43fc2c04ee0000111561350a576134e389898560600151866000015161479b565b608081015184519193506134f7919061261e565b83526135038483614699565b935061350f565b613527565b6020830180519061351f82615494565b905250613431565b50505095945050505050565b6000610b6e61355083612f1a6103e8670de0b6b3a76400006153c0565b6135636064670de0b6b3a76400006153c0565b61356e9060056153d4565b6148e3565b6003546001600160a01b031633146114b25760405162461bcd60e51b815260206004820181905260248201527f4f776e61626c653a2063616c6c6572206973206e6f7420746865206f776e65726044820152606401610c15565b600380546001600160a01b038381166001600160a01b0319831681179093556040519116919082907f8be0079c531659141344cd1fd0a4f28419497f9722a3daafe3b4186f6b6457e090600090a35050565b600061262a82846154ad565b6001600160a01b0381166136815760405162461bcd60e51b815260206004820152601e60248201527f4163636f756e742063616e6e6f74206265207a65726f206164647265737300006044820152606401610c15565b803b8061102a5760405162461bcd60e51b815260206004820181905260248201527f4163636f756e7420636f64652073697a652063616e6e6f74206265207a65726f6044820152606401610c15565b601280546001600160a01b038316600090815260146020526040908190209182556013546001909201829055915491517fc437f324d85e369394148dd9d62f98f534b382e01ed3dd2eb98138fb6d3ab49a9261307992908252602082015260400190565b600080600061374284611a83565b9050600061374f85610a66565b6001600160a01b0386166000908152600e602052604081206001015491925090613779908461361f565b6001600160a01b0387166000908152600e6020526040812054919250906137a0908461361f565b919791965090945050505050565b600081156137d4576137cd82610b128568056bc75e2d63100000612631565b9050610b6e565b50600019610b6e565b6000806137e86119be565b905060006137f4611535565b9050613801828286614180565b949350505050565b61381d6103e8670de0b6b3a76400006153c0565b6138289060056153d4565b811015801561383f5750670de0b6b3a76400008111155b610a635760405162461bcd60e51b815260206004820152603060248201527f4d6178206665652070657263656e74616765206d75737420626520626574776560448201526f656e20302e352520616e64203130302560801b6064820152608401610c15565b60095460408051631e425be160e11b815290516000926001600160a01b031691633c84b7c29160048083019260209291908290030181865afa1580156138ee573d6000803e3d6000fd5b505050506040513d601f19601f820116820180604052508101906139129190615320565b9050613921816212750061361f565b421015610a63576040805162461bcd60e51b81526020600482015260248101919091527f54726f76654d616e616765723a20526564656d7074696f6e7320617265206e6f60448201527f7420616c6c6f77656420647572696e6720626f6f7473747261702070686173656064820152608401610c15565b670f43fc2c04ee00006139aa826137dd565b1015610a635760405162461bcd60e51b815260206004820152602a60248201527f54726f76654d616e616765723a2043616e6e6f742072656465656d207768656e604482015269102a21a9101e1026a1a960b11b6064820152608401610c15565b60008111610a635760405162461bcd60e51b815260206004820152602e60248201527f54726f76654d616e616765723a20416d6f756e74206d7573742062652067726560448201526d61746572207468616e207a65726f60901b6064820152608401610c15565b6040516370a0823160e01b815281906001600160a01b038516906370a0823190613aa0908690600401614fb4565b602060405180830381865afa158015613abd573d6000803e3d6000fd5b505050506040513d601f19601f82011682018060405250810190613ae19190615320565b10156126195760405162461bcd60e51b815260206004820152605460248201527f54726f76654d616e616765723a2052657175657374656420726564656d70746960448201527f6f6e20616d6f756e74206d757374206265203c3d2075736572277320426173656064820152734665654c4d4120746f6b656e2062616c616e636560601b608482015260a401610c15565b60006001600160a01b0383161580613bf45750604051630bb7c8fd60e31b81526001600160a01b03851690635dbe47e890613bb1908690600401614fb4565b602060405180830381865afa158015613bce573d6000803e3d6000fd5b505050506040513d601f19601f82011682018060405250810190613bf291906154c0565b155b80613c0f5750670f43fc2c04ee0000613c0d848461230f565b105b15613c1c5750600061262a565b60405163765e015960e01b81526000906001600160a01b0386169063765e015990613c4b908790600401614fb4565b602060405180830381865afa158015613c68573d6000803e3d6000fd5b505050506040513d601f19601f82011682018060405250810190613c8c9190615417565b90506001600160a01b0381161580611af65750670f43fc2c04ee0000613cb2828561230f565b1095945050505050565b613ce2604051806060016040528060008152602001600081526020016000151581525090565b6001600160a01b0387166000908152600e6020526040902054613d1490879061356e90680ad78ebc5ac620000061261e565b808252613d2f908690610b1290670de0b6b3a7640000612631565b60208083019190915281516001600160a01b0389166000908152600e9092526040822054613d5c9161261e565b6020808401516001600160a01b038b166000908152600e90925260408220600101549293509091613d8c9161261e565b9050680ad78ebc5ac62000008203613e0457613da789614233565b613db2896004614053565b613dc78a8a680ad78ebc5ac6200000846149b9565b886001600160a01b031660008051602061554883398151915260008060006003604051613df7949392919061545f565b60405180910390a2613f32565b6000613e1082846137ae565b90508481141580613e315750686194049f30f7200000613e2f84614b18565b105b15613e455750506001604083015250613f35565b60808b015160405163015f109360e51b81526001600160a01b038c81166004830152602482018490528981166044830152888116606483015290911690632be2126090608401600060405180830381600087803b158015613ea557600080fd5b505af1158015613eb9573d6000803e3d6000fd5b5050506001600160a01b038b166000908152600e6020526040902084815560010183905550613ee78a6126e3565b506001600160a01b038a166000818152600e60205260409081902060020154905160008051602061554883398151915291613f28918791879160039061545f565b60405180910390a2505b50505b979650505050505050565b600080613f4b612fe2565b90506000613f5d84610b128888612631565b90506000613f76613f6f83600261263d565b849061361f565b9050613f8a81670de0b6b3a76400006148e3565b905060008111613f9c57613f9c615401565b600c8190556040518181527fc454ee9b76c52f782a256af821b857ca6e125d1e3333bcede402fec2bed9600c9060200160405180910390a1610b18613026565b6000610b6e61236b610fb0565b600061400183610b1286670de0b6b3a7640000612631565b905081811115612cd05760405162461bcd60e51b815260206004820152601d60248201527f4665652065786365656465642070726f7669646564206d6178696d756d0000006044820152606401610c15565b60008160048111156140675761406761512a565b14158015614087575060018160048111156140845761408461512a565b14155b61409357614093615401565b60155461409f81614b2d565b6001600160a01b0383166000908152600e60205260409020600301805483919060ff191660018360048111156140d7576140d761512a565b02179055506001600160a01b0383166000908152600e602090815260408083206001808201859055908490556014909252822082815501556141198382614c07565b600b54604051631484968760e11b81526001600160a01b03909116906329092d0e90614149908690600401614fb4565b600060405180830381600087803b15801561416357600080fd5b505af1158015614177573d6000803e3d6000fd5b50505050505050565b600082156141a157600061419884610b128786612631565b915061262a9050565b5060001961262a565b6000806141c3670de0b6b3a7640000610b128686612631565b905082811061262a5760405162461bcd60e51b815260206004820152603660248201527f54726f76654d616e616765723a2046656520776f756c642065617420757020616044820152751b1b081c995d1d5c9b99590818dbdb1b185d195c985b60521b6064820152608401610c15565b6001600160a01b0381166000908152600e6020526040902060020154600f5461425c908261261e565b600f55506001600160a01b03166000908152600e6020526040812060020155565b604051633b4009ff60e11b8152600481018390526001600160a01b0384169063768013fe90602401600060405180830381600087803b1580156142bf57600080fd5b505af11580156142d3573d6000803e3d6000fd5b505060405163262b890160e01b8152600481018590526001600160a01b038716925063262b89019150602401600060405180830381600087803b15801561431957600080fd5b505af115801561432d573d6000803e3d6000fd5b50506040516331534de160e01b8152600481018490526001600160a01b03861692506331534de19150602401612ec5565b600080601154600003614372575081610b6e565b60006010541161438457614384615401565b61262a601154610b126010548661263190919063ffffffff16565b6143a7614f20565b6143cb60405180606001604052806000815260200160008152602001600081525090565b6015546001106143db5750613f35565b6143e487611b0a565b6040850152602084810191909152840181905290835261440390614dd7565b60408301819052680ad78ebc5ac6200000606084015260208301516144279161261e565b8152670de0b6b3a764000086116144f25761444c89898360200151846040015161427d565b61445587614233565b60006080830181905260a0830152815160c0830152805160e083015261447c876003614053565b815160208301516040516001600160a01b038a1692600080516020615528833981519152926144ad926002906154e2565b60405180910390a2866001600160a01b0316600080516020615548833981519152600080600060026040516144e5949392919061545f565b60405180910390a261468d565b670de0b6b3a7640000861180156145105750670f43fc2c04ee000086105b156145605761452989898360200151846040015161427d565b61453287614233565b81518151614541919087614de4565b60e086015260c085015260a0840152608083015261447c876003614053565b670f43fc2c04ee0000861015801561457757508386105b8015614584575081518510155b1561467c5761459d89898360200151846040015161427d565b846000036145ad576145ad615401565b6145b687614233565b6145c98260000151836020015185614e3e565b91506145d6876003614053565b6101008201511561464b57600754610100830151604051633f10abab60e01b81526001600160a01b0390921691633f10abab91614618918b919060040161537b565b600060405180830381600087803b15801561463257600080fd5b505af1158015614646573d6000803e3d6000fd5b505050505b815160a08301516040516001600160a01b038a1692600080516020615528833981519152926144ad926002906154e2565b614684614f20565b9150613f359050565b50979650505050505050565b6146a1614f20565b604080830151908401516146b49161361f565b6040820152606080830151908401516146cc9161361f565b6060820152815160208401516146e19161361f565b60208083019190915282015183516146f89161361f565b81526080808301519084015161470d9161361f565b608082015260a080830151908401516147259161361f565b60a082015260c0808301519084015161473d9161361f565b60c082015260e080830151908401516147559161361f565b60e0820152610100808301519084015161476e9161361f565b61010082015292915050565b600080614788858585614180565b6714d1120d7b1600001195945050505050565b6147a3614f20565b6147c760405180606001604052806000815260200160008152602001600081525090565b6147d084611b0a565b604085019081526020858101928352860192909252918452905190516147fa91889188919061427d565b61480384614233565b6148108260200151614dd7565b60408301819052680ad78ebc5ac620000060608401526020830151600091614838919061261e565b905061484983600001518286614de4565b60e087015260c086015260a08501526080840152614868856003614053565b825160208401516040516001600160a01b0388169260008051602061552883398151915292614899926001906154e2565b60405180910390a2846001600160a01b0316600080516020615548833981519152600080600060016040516148d1949392919061545f565b60405180910390a25050949350505050565b60008183106148f2578161262a565b5090919050565b6000610fbd603c610b12600d544261261e90919063ffffffff16565b6000631f54050082111561492b57631f54050091505b816000036149425750670de0b6b3a7640000610b6e565b670de0b6b3a764000083835b60018111156149af576149626002826154fd565b600003614987576149738283614ec6565b915061498081600261263d565b905061494e565b6149918284614ec6565b925061499d8283614ec6565b91506149806002610b1283600161261e565b610b188284614ec6565b6040808501516006549151632770a7eb60e21b81526001600160a01b0391821692639dc29fac926149f192911690869060040161537b565b600060405180830381600087803b158015614a0b57600080fd5b505af1158015614a1f573d6000803e3d6000fd5b50508551604051633b4009ff60e11b8152600481018690526001600160a01b03909116925063768013fe9150602401600060405180830381600087803b158015614a6857600080fd5b505af1158015614a7c573d6000803e3d6000fd5b505050508360a001516001600160a01b0316633f10abab84836040518363ffffffff1660e01b8152600401614ab292919061537b565b600060405180830381600087803b158015614acc57600080fd5b505af1158015614ae0573d6000803e3d6000fd5b5050855160a087015160405163a51ba3b760e01b81526001600160a01b03909216935063a51ba3b79250612ec591859060040161537b565b6000610b6e82680ad78ebc5ac620000061261e565b600181118015614ba85750600b546040805163de8fa43160e01b815290516001926001600160a01b03169163de8fa4319160048083019260209291908290030181865afa158015614b82573d6000803e3d6000fd5b505050506040513d601f19601f82011682018060405250810190614ba69190615320565b115b610a635760405162461bcd60e51b815260206004820152602a60248201527f54726f76654d616e616765723a204f6e6c79206f6e652074726f766520696e206044820152697468652073797374656d60b01b6064820152608401610c15565b6001600160a01b0382166000908152600e602052604081206003015460ff1690816004811115614c3957614c3961512a565b14158015614c5957506001816004811115614c5657614c5661512a565b14155b614c6557614c65615401565b6001600160a01b0383166000908152600e602052604081206003015461010090046001600160801b0316908390614c9d82600161261e565b905080836001600160801b03161115614cb857614cb8615401565b600060158281548110614ccd57614ccd6153eb565b600091825260209091200154601580546001600160a01b03909216925082916001600160801b038716908110614d0557614d056153eb565b600091825260208083209190910180546001600160a01b0319166001600160a01b03948516179055918316808252600e83526040918290206003018054610100600160881b0319166101006001600160801b038a16908102919091179091558251918252928101929092527f02b04ae5f7be9ca7c103293a2aa15f3c339d15d6eda53b721fef7b0e609c831a910160405180910390a16015805480614dac57614dac615511565b600082815260209020810160001990810180546001600160a01b031916905501905550505050505050565b6000610b6e60c8836153c0565b60008080808415614e2857614df987866148e3565b9350614e0987610b128887612631565b9250614e15878561261e565b9150614e21868461261e565b9050614e35565b5060009250829150859050845b93509350935093565b614e46614f20565b838152602081018390526000614e6883610b1287670f43fc2c04ee0000612631565b9050614e7381614dd7565b60408301819052680ad78ebc5ac6200000606084015260808301869052614e9b90829061261e565b60a0830152614eaa848261261e565b61010083015250600060c0820181905260e08201529392505050565b600080614ed38484612631565b9050613801670de0b6b3a7640000610b12613f6f6002836153c0565b6040518060a00160405280600081526020016000815260200160001515815260200160008152602001600081525090565b6040518061012001604052806000815260200160008152602001600081526020016000815260200160008152602001600081526020016000815260200160008152602001600081525090565b6040518060e0016040528060008152602001600081526020016000815260200160006001600160a01b0316815260200160001515815260200160008152602001600081525090565b6001600160a01b0391909116815260200190565b6001600160a01b0381168114610a6357600080fd5b8035614fe881614fc8565b919050565b600060208284031215614fff57600080fd5b813561262a81614fc8565b6000806040838503121561501d57600080fd5b823561502881614fc8565b946020939093013593505050565b634e487b7160e01b600052604160045260246000fd5b6000602080838503121561505f57600080fd5b823567ffffffffffffffff8082111561507757600080fd5b818501915085601f83011261508b57600080fd5b81358181111561509d5761509d615036565b8060051b604051601f19603f830116810181811085821117156150c2576150c2615036565b6040529182528482019250838101850191888311156150e057600080fd5b938501935b82851015615105576150f685614fdd565b845293850193928501926150e5565b98975050505050505050565b60006020828403121561512357600080fd5b5035919050565b634e487b7160e01b600052602160045260246000fd5b858152602081018590526040810184905260a08101600584106151655761516561512a565b60608201939093526001600160801b03919091166080909101529392505050565b60008060008060008060008060008060006101608c8e0312156151a857600080fd5b8b356151b381614fc8565b9a5060208c01356151c381614fc8565b995060408c01356151d381614fc8565b985060608c01356151e381614fc8565b975060808c01356151f381614fc8565b965060a08c013561520381614fc8565b955060c08c013561521381614fc8565b945060e08c013561522381614fc8565b93506101008c013561523481614fc8565b92506152436101208d01614fdd565b91506152526101408d01614fdd565b90509295989b509295989b9093969950565b600060208083528351808285015260005b8181101561529157858101830151858201604001528201615275565b506000604082860101526040601f19601f8301168501019250505092915050565b600080600080600080600060e0888a0312156152cd57600080fd5b8735965060208801356152df81614fc8565b955060408801356152ef81614fc8565b945060608801356152ff81614fc8565b9699959850939660808101359560a0820135955060c0909101359350915050565b60006020828403121561533257600080fd5b5051919050565b60208082526022908201527f54726f76654d616e616765723a206e6f7468696e6720746f206c697175696461604082015261746560f01b606082015260800190565b6001600160a01b03929092168252602082015260400190565b634e487b7160e01b600052601260045260246000fd5b634e487b7160e01b600052601160045260246000fd5b6000826153cf576153cf615394565b500490565b8082028115828204841417610b6e57610b6e6153aa565b634e487b7160e01b600052603260045260246000fd5b634e487b7160e01b600052600160045260246000fd5b60006020828403121561542957600080fd5b815161262a81614fc8565b600081615443576154436153aa565b506000190190565b6004811061545b5761545b61512a565b9052565b848152602081018490526040810183905260808101611af6606083018461544b565b81810381811115610b6e57610b6e6153aa565b6000600182016154a6576154a66153aa565b5060010190565b80820180821115610b6e57610b6e6153aa565b6000602082840312156154d257600080fd5b8151801515811461262a57600080fd5b8381526020810183905260608101613801604083018461544b565b60008261550c5761550c615394565b500690565b634e487b7160e01b600052603160045260246000fdfeea67486ed7ebe3eea8ab3390efd4a3c8aae48be5bea27df104a8af786c408434c3770d654ed33aeea6bf11ac8ef05d02a6a04ed4686dd2f624d853bbec43cc8ba26469706673582212207ea949afdae148c6624216e30eb41c91bab25f63ba867bff99e0bccf97b70a9e64736f6c63430008130033",
  "devdoc": {
    "kind": "dev",
    "methods": {
      "owner()": {
        "details": "Returns the address of the current owner."
      },
      "renounceOwnership()": {
        "details": "Leaves the contract without owner. It will not be possible to call `onlyOwner` functions. Can only be called by the current owner. NOTE: Renouncing ownership will leave the contract without an owner, thereby disabling any functionality that is only available to the owner."
      },
      "transferOwnership(address)": {
        "details": "Transfers ownership of the contract to a new account (`newOwner`). Can only be called by the current owner."
      }
    },
    "version": 1
  },
  "userdoc": {
    "kind": "user",
    "methods": {},
    "notice": "Fork of Liquity's TroveManager. Logic remains unchanged. Changes to the contract: - Raised pragma version - Removed an import of ActivePool Interface Even though SafeMath is no longer required, the decision was made to keep it to avoid human factor errors",
    "version": 1
  },
  "storageLayout": {
    "storage": [
      {
        "astId": 15363,
        "contract": "contracts/TroveManager.sol:TroveManager",
        "label": "activePool",
        "offset": 0,
        "slot": "0",
        "type": "t_contract(IActivePool)25883"
      },
      {
        "astId": 15366,
        "contract": "contracts/TroveManager.sol:TroveManager",
        "label": "defaultPool",
        "offset": 0,
        "slot": "1",
        "type": "t_contract(IDefaultPool)26233"
      },
      {
        "astId": 15370,
        "contract": "contracts/TroveManager.sol:TroveManager",
        "label": "priceFeed",
        "offset": 0,
        "slot": "2",
        "type": "t_contract(IPriceFeed)26470"
      },
      {
        "astId": 7,
        "contract": "contracts/TroveManager.sol:TroveManager",
        "label": "_owner",
        "offset": 0,
        "slot": "3",
        "type": "t_address"
      },
      {
        "astId": 10509,
        "contract": "contracts/TroveManager.sol:TroveManager",
        "label": "borrowerOperationsAddress",
        "offset": 0,
        "slot": "4",
        "type": "t_address"
      },
      {
        "astId": 10512,
        "contract": "contracts/TroveManager.sol:TroveManager",
        "label": "stabilityPool",
        "offset": 0,
        "slot": "5",
        "type": "t_contract(IStabilityPool)26836"
      },
      {
        "astId": 10514,
        "contract": "contracts/TroveManager.sol:TroveManager",
        "label": "gasPoolAddress",
        "offset": 0,
        "slot": "6",
        "type": "t_address"
      },
      {
        "astId": 10517,
        "contract": "contracts/TroveManager.sol:TroveManager",
        "label": "collSurplusPool",
        "offset": 0,
        "slot": "7",
        "type": "t_contract(ICollSurplusPool)26176"
      },
      {
        "astId": 10520,
        "contract": "contracts/TroveManager.sol:TroveManager",
        "label": "baseFeeLMAToken",
        "offset": 0,
        "slot": "8",
        "type": "t_contract(IBaseFeeLMAToken)25942"
      },
      {
        "astId": 10523,
        "contract": "contracts/TroveManager.sol:TroveManager",
        "label": "hogToken",
        "offset": 0,
        "slot": "9",
        "type": "t_contract(IHOGToken)26399"
      },
      {
        "astId": 10526,
        "contract": "contracts/TroveManager.sol:TroveManager",
        "label": "hogStaking",
        "offset": 0,
        "slot": "10",
        "type": "t_contract(IHOGStaking)26343"
      },
      {
        "astId": 10529,
        "contract": "contracts/TroveManager.sol:TroveManager",
        "label": "sortedTroves",
        "offset": 0,
        "slot": "11",
        "type": "t_contract(ISortedTroves)26602"
      },
      {
        "astId": 10559,
        "contract": "contracts/TroveManager.sol:TroveManager",
        "label": "baseRate",
        "offset": 0,
        "slot": "12",
        "type": "t_uint256"
      },
      {
        "astId": 10561,
        "contract": "contracts/TroveManager.sol:TroveManager",
        "label": "lastFeeOperationTime",
        "offset": 0,
        "slot": "13",
        "type": "t_uint256"
      },
      {
        "astId": 10584,
        "contract": "contracts/TroveManager.sol:TroveManager",
        "label": "Troves",
        "offset": 0,
        "slot": "14",
        "type": "t_mapping(t_address,t_struct(Trove)10579_storage)"
      },
      {
        "astId": 10586,
        "contract": "contracts/TroveManager.sol:TroveManager",
        "label": "totalStakes",
        "offset": 0,
        "slot": "15",
        "type": "t_uint256"
      },
      {
        "astId": 10588,
        "contract": "contracts/TroveManager.sol:TroveManager",
        "label": "totalStakesSnapshot",
        "offset": 0,
        "slot": "16",
        "type": "t_uint256"
      },
      {
        "astId": 10590,
        "contract": "contracts/TroveManager.sol:TroveManager",
        "label": "totalCollateralSnapshot",
        "offset": 0,
        "slot": "17",
        "type": "t_uint256"
      },
      {
        "astId": 10592,
        "contract": "contracts/TroveManager.sol:TroveManager",
        "label": "L_StETH",
        "offset": 0,
        "slot": "18",
        "type": "t_uint256"
      },
      {
        "astId": 10594,
        "contract": "contracts/TroveManager.sol:TroveManager",
        "label": "L_BaseFeeLMADebt",
        "offset": 0,
        "slot": "19",
        "type": "t_uint256"
      },
      {
        "astId": 10599,
        "contract": "contracts/TroveManager.sol:TroveManager",
        "label": "rewardSnapshots",
        "offset": 0,
        "slot": "20",
        "type": "t_mapping(t_address,t_struct(RewardSnapshot)10604_storage)"
      },
      {
        "astId": 10607,
        "contract": "contracts/TroveManager.sol:TroveManager",
        "label": "TroveOwners",
        "offset": 0,
        "slot": "21",
        "type": "t_array(t_address)dyn_storage"
      },
      {
        "astId": 10609,
        "contract": "contracts/TroveManager.sol:TroveManager",
        "label": "lastStETHError_Redistribution",
        "offset": 0,
        "slot": "22",
        "type": "t_uint256"
      },
      {
        "astId": 10611,
        "contract": "contracts/TroveManager.sol:TroveManager",
        "label": "lastBaseFeeLMADebtError_Redistribution",
        "offset": 0,
        "slot": "23",
        "type": "t_uint256"
      }
    ],
    "types": {
      "t_address": {
        "encoding": "inplace",
        "label": "address",
        "numberOfBytes": "20"
      },
      "t_array(t_address)dyn_storage": {
        "base": "t_address",
        "encoding": "dynamic_array",
        "label": "address[]",
        "numberOfBytes": "32"
      },
      "t_contract(IActivePool)25883": {
        "encoding": "inplace",
        "label": "contract IActivePool",
        "numberOfBytes": "20"
      },
      "t_contract(IBaseFeeLMAToken)25942": {
        "encoding": "inplace",
        "label": "contract IBaseFeeLMAToken",
        "numberOfBytes": "20"
      },
      "t_contract(ICollSurplusPool)26176": {
        "encoding": "inplace",
        "label": "contract ICollSurplusPool",
        "numberOfBytes": "20"
      },
      "t_contract(IDefaultPool)26233": {
        "encoding": "inplace",
        "label": "contract IDefaultPool",
        "numberOfBytes": "20"
      },
      "t_contract(IHOGStaking)26343": {
        "encoding": "inplace",
        "label": "contract IHOGStaking",
        "numberOfBytes": "20"
      },
      "t_contract(IHOGToken)26399": {
        "encoding": "inplace",
        "label": "contract IHOGToken",
        "numberOfBytes": "20"
      },
      "t_contract(IPriceFeed)26470": {
        "encoding": "inplace",
        "label": "contract IPriceFeed",
        "numberOfBytes": "20"
      },
      "t_contract(ISortedTroves)26602": {
        "encoding": "inplace",
        "label": "contract ISortedTroves",
        "numberOfBytes": "20"
      },
      "t_contract(IStabilityPool)26836": {
        "encoding": "inplace",
        "label": "contract IStabilityPool",
        "numberOfBytes": "20"
      },
      "t_enum(Status)10567": {
        "encoding": "inplace",
        "label": "enum TroveManager.Status",
        "numberOfBytes": "1"
      },
      "t_mapping(t_address,t_struct(RewardSnapshot)10604_storage)": {
        "encoding": "mapping",
        "key": "t_address",
        "label": "mapping(address => struct TroveManager.RewardSnapshot)",
        "numberOfBytes": "32",
        "value": "t_struct(RewardSnapshot)10604_storage"
      },
      "t_mapping(t_address,t_struct(Trove)10579_storage)": {
        "encoding": "mapping",
        "key": "t_address",
        "label": "mapping(address => struct TroveManager.Trove)",
        "numberOfBytes": "32",
        "value": "t_struct(Trove)10579_storage"
      },
      "t_struct(RewardSnapshot)10604_storage": {
        "encoding": "inplace",
        "label": "struct TroveManager.RewardSnapshot",
        "members": [
          {
            "astId": 10601,
            "contract": "contracts/TroveManager.sol:TroveManager",
            "label": "StETH",
            "offset": 0,
            "slot": "0",
            "type": "t_uint256"
          },
          {
            "astId": 10603,
            "contract": "contracts/TroveManager.sol:TroveManager",
            "label": "BaseFeeLMADebt",
            "offset": 0,
            "slot": "1",
            "type": "t_uint256"
          }
        ],
        "numberOfBytes": "64"
      },
      "t_struct(Trove)10579_storage": {
        "encoding": "inplace",
        "label": "struct TroveManager.Trove",
        "members": [
          {
            "astId": 10569,
            "contract": "contracts/TroveManager.sol:TroveManager",
            "label": "debt",
            "offset": 0,
            "slot": "0",
            "type": "t_uint256"
          },
          {
            "astId": 10571,
            "contract": "contracts/TroveManager.sol:TroveManager",
            "label": "coll",
            "offset": 0,
            "slot": "1",
            "type": "t_uint256"
          },
          {
            "astId": 10573,
            "contract": "contracts/TroveManager.sol:TroveManager",
            "label": "stake",
            "offset": 0,
            "slot": "2",
            "type": "t_uint256"
          },
          {
            "astId": 10576,
            "contract": "contracts/TroveManager.sol:TroveManager",
            "label": "status",
            "offset": 0,
            "slot": "3",
            "type": "t_enum(Status)10567"
          },
          {
            "astId": 10578,
            "contract": "contracts/TroveManager.sol:TroveManager",
            "label": "arrayIndex",
            "offset": 1,
            "slot": "3",
            "type": "t_uint128"
          }
        ],
        "numberOfBytes": "128"
      },
      "t_uint128": {
        "encoding": "inplace",
        "label": "uint128",
        "numberOfBytes": "16"
      },
      "t_uint256": {
        "encoding": "inplace",
        "label": "uint256",
        "numberOfBytes": "32"
      }
    }
  }
}