{
  "address": "0xAcaEFC87Fcd11631BAacDE0284cE06De9f9B4982",
  "abi": [
    {
      "inputs": [
        {
          "internalType": "address",
          "name": "_multisigAddress",
          "type": "address"
        }
      ],
      "stateMutability": "nonpayable",
      "type": "constructor"
    },
    {
      "anonymous": false,
      "inputs": [
        {
          "indexed": true,
          "internalType": "address",
          "name": "owner",
          "type": "address"
        },
        {
          "indexed": true,
          "internalType": "address",
          "name": "spender",
          "type": "address"
        },
        {
          "indexed": false,
          "internalType": "uint256",
          "name": "value",
          "type": "uint256"
        }
      ],
      "name": "Approval",
      "type": "event"
    },
    {
      "anonymous": false,
      "inputs": [
        {
          "indexed": true,
          "internalType": "address",
          "name": "from",
          "type": "address"
        },
        {
          "indexed": true,
          "internalType": "address",
          "name": "to",
          "type": "address"
        },
        {
          "indexed": false,
          "internalType": "uint256",
          "name": "value",
          "type": "uint256"
        }
      ],
      "name": "Transfer",
      "type": "event"
    },
    {
      "inputs": [
        {
          "internalType": "address",
          "name": "owner",
          "type": "address"
        },
        {
          "internalType": "address",
          "name": "spender",
          "type": "address"
        }
      ],
      "name": "allowance",
      "outputs": [
        {
          "internalType": "uint256",
          "name": "",
          "type": "uint256"
        }
      ],
      "stateMutability": "view",
      "type": "function"
    },
    {
      "inputs": [
        {
          "internalType": "address",
          "name": "spender",
          "type": "address"
        },
        {
          "internalType": "uint256",
          "name": "amount",
          "type": "uint256"
        }
      ],
      "name": "approve",
      "outputs": [
        {
          "internalType": "bool",
          "name": "",
          "type": "bool"
        }
      ],
      "stateMutability": "nonpayable",
      "type": "function"
    },
    {
      "inputs": [
        {
          "internalType": "address",
          "name": "account",
          "type": "address"
        }
      ],
      "name": "balanceOf",
      "outputs": [
        {
          "internalType": "uint256",
          "name": "",
          "type": "uint256"
        }
      ],
      "stateMutability": "view",
      "type": "function"
    },
    {
      "inputs": [],
      "name": "decimals",
      "outputs": [
        {
          "internalType": "uint8",
          "name": "",
          "type": "uint8"
        }
      ],
      "stateMutability": "pure",
      "type": "function"
    },
    {
      "inputs": [
        {
          "internalType": "address",
          "name": "spender",
          "type": "address"
        },
        {
          "internalType": "uint256",
          "name": "subtractedValue",
          "type": "uint256"
        }
      ],
      "name": "decreaseAllowance",
      "outputs": [
        {
          "internalType": "bool",
          "name": "",
          "type": "bool"
        }
      ],
      "stateMutability": "nonpayable",
      "type": "function"
    },
    {
      "inputs": [],
      "name": "domainSeparator",
      "outputs": [
        {
          "internalType": "bytes32",
          "name": "",
          "type": "bytes32"
        }
      ],
      "stateMutability": "view",
      "type": "function"
    },
    {
      "inputs": [
        {
          "internalType": "address",
          "name": "spender",
          "type": "address"
        },
        {
          "internalType": "uint256",
          "name": "addedValue",
          "type": "uint256"
        }
      ],
      "name": "increaseAllowance",
      "outputs": [
        {
          "internalType": "bool",
          "name": "",
          "type": "bool"
        }
      ],
      "stateMutability": "nonpayable",
      "type": "function"
    },
    {
      "inputs": [],
      "name": "multisigAddress",
      "outputs": [
        {
          "internalType": "address",
          "name": "",
          "type": "address"
        }
      ],
      "stateMutability": "view",
      "type": "function"
    },
    {
      "inputs": [],
      "name": "name",
      "outputs": [
        {
          "internalType": "string",
          "name": "",
          "type": "string"
        }
      ],
      "stateMutability": "pure",
      "type": "function"
    },
    {
      "inputs": [
        {
          "internalType": "address",
          "name": "owner",
          "type": "address"
        }
      ],
      "name": "nonces",
      "outputs": [
        {
          "internalType": "uint256",
          "name": "",
          "type": "uint256"
        }
      ],
      "stateMutability": "view",
      "type": "function"
    },
    {
      "inputs": [
        {
          "internalType": "address",
          "name": "owner",
          "type": "address"
        },
        {
          "internalType": "address",
          "name": "spender",
          "type": "address"
        },
        {
          "internalType": "uint256",
          "name": "amount",
          "type": "uint256"
        },
        {
          "internalType": "uint256",
          "name": "deadline",
          "type": "uint256"
        },
        {
          "internalType": "uint8",
          "name": "v",
          "type": "uint8"
        },
        {
          "internalType": "bytes32",
          "name": "r",
          "type": "bytes32"
        },
        {
          "internalType": "bytes32",
          "name": "s",
          "type": "bytes32"
        }
      ],
      "name": "permit",
      "outputs": [],
      "stateMutability": "nonpayable",
      "type": "function"
    },
    {
      "inputs": [],
      "name": "permitTypeHash",
      "outputs": [
        {
          "internalType": "bytes32",
          "name": "",
          "type": "bytes32"
        }
      ],
      "stateMutability": "pure",
      "type": "function"
    },
    {
      "inputs": [],
      "name": "symbol",
      "outputs": [
        {
          "internalType": "string",
          "name": "",
          "type": "string"
        }
      ],
      "stateMutability": "pure",
      "type": "function"
    },
    {
      "inputs": [],
      "name": "totalSupply",
      "outputs": [
        {
          "internalType": "uint256",
          "name": "",
          "type": "uint256"
        }
      ],
      "stateMutability": "view",
      "type": "function"
    },
    {
      "inputs": [
        {
          "internalType": "address",
          "name": "recipient",
          "type": "address"
        },
        {
          "internalType": "uint256",
          "name": "amount",
          "type": "uint256"
        }
      ],
      "name": "transfer",
      "outputs": [
        {
          "internalType": "bool",
          "name": "",
          "type": "bool"
        }
      ],
      "stateMutability": "nonpayable",
      "type": "function"
    },
    {
      "inputs": [
        {
          "internalType": "address",
          "name": "sender",
          "type": "address"
        },
        {
          "internalType": "address",
          "name": "recipient",
          "type": "address"
        },
        {
          "internalType": "uint256",
          "name": "amount",
          "type": "uint256"
        }
      ],
      "name": "transferFrom",
      "outputs": [
        {
          "internalType": "bool",
          "name": "",
          "type": "bool"
        }
      ],
      "stateMutability": "nonpayable",
      "type": "function"
    },
    {
      "inputs": [],
      "name": "version",
      "outputs": [
        {
          "internalType": "string",
          "name": "",
          "type": "string"
        }
      ],
      "stateMutability": "pure",
      "type": "function"
    }
  ],
  "transactionHash": "0xa3c3510397f77836d090b36315f0ab778c1821122542478501ae4f335fc10a5e",
  "args": [
    "0x737Ae8D15E381E47979CF8882446196E07b1c941"
  ],
  "numDeployments": 1,
  "solcInputHash": "4248509572f812c4fa4319d44edb1593",
  "bytecode": "0x61012060405269d3c21bcecceda10000006004553480156200002057600080fd5b5060405162000ff238038062000ff2833981016040819052620000439162000269565b6001600160a01b0381166101005260408051808201825260088152674865646765686f6760c01b6020918201528151808301835260018152603160f81b908201527f3e3b338be0a9483d9643312a03e09df6325a84306d81643784c442d7ce5515b360c08181527fc89efdaa54c0f20c7adf612882df0950f5a951637e0307cdcb4c672f298b8bc660e08190524660a081815286517f8b73c3c69bb8fe3d512ecc4cf759cc79239f7b179b0ffacaa9a75d522b39400f818801528088018690526060810184905260808082019390935230818301528751808203909201825290930190955281519190930120909252600454600090620001459060646200015d565b905062000153848262000174565b50505050620002e1565b60006200016b8284620002b1565b90505b92915050565b6001600160a01b038216620001cf5760405162461bcd60e51b815260206004820152601f60248201527f45524332303a206d696e7420746f20746865207a65726f206164647265737300604482015260640160405180910390fd5b600254620001de90826200025b565b6002556001600160a01b0382166000908152602081905260409020546200020690826200025b565b6001600160a01b038316600081815260208181526040808320949094559251848152919290917fddf252ad1be2c89b69c2b068fc378daa952ba7f163c4a11628f55a4df523b3ef910160405180910390a35050565b60006200016b8284620002cb565b6000602082840312156200027c57600080fd5b81516001600160a01b03811681146200029457600080fd5b9392505050565b634e487b7160e01b600052601160045260246000fd5b80820281158282048414176200016e576200016e6200029b565b808201808211156200016e576200016e6200029b565b60805160a05160c05160e05161010051610ccc6200032660003960006101bb015260006106cc015260006106a70152600061062c015260006106540152610ccc6000f3fe608060405234801561001057600080fd5b50600436106100eb5760003560e01c806354fd4d501161009257806354fd4d50146101f557806370a08231146102125780637ecebe001461023b57806395d89b4114610264578063a457c2d714610283578063a9059cbb14610296578063d505accf146102a9578063dd62ed3e146102be578063f698da25146102f757600080fd5b806306fdde03146100f0578063095ea7b31461012657806310ce43bd1461014957806318160ddd1461017957806323b872dd14610181578063313ce5671461019457806339509351146101a35780635462870d146101b6575b600080fd5b6040805180820190915260088152674865646765686f6760c01b60208201525b60405161011d9190610a50565b60405180910390f35b610139610134366004610aba565b6102ff565b604051901515815260200161011d565b7f6e71edae12b1b97f4d1f60370fef10105fa2faae0126114a169c64845d6126c95b60405190815260200161011d565b60025461016b565b61013961018f366004610ae4565b610316565b6040516012815260200161011d565b6101396101b1366004610aba565b610388565b6101dd7f000000000000000000000000000000000000000000000000000000000000000081565b6040516001600160a01b03909116815260200161011d565b6040805180820190915260018152603160f81b6020820152610110565b61016b610220366004610b20565b6001600160a01b031660009081526020819052604090205490565b61016b610249366004610b20565b6001600160a01b031660009081526003602052604090205490565b604080518082019091526003815262484f4760e81b6020820152610110565b610139610291366004610aba565b6103be565b6101396102a4366004610aba565b61040d565b6102bc6102b7366004610b3b565b610423565b005b61016b6102cc366004610bae565b6001600160a01b03918216600090815260016020908152604080832093909416825291909152205490565b61016b610628565b600061030c33848461071a565b5060015b92915050565b60006103218361083f565b61032c8484846108f0565b61037e843361037985604051806060016040528060288152602001610c4a602891396001600160a01b038a1660009081526001602090815260408083203384529091529020549190610a11565b61071a565b5060019392505050565b3360008181526001602090815260408083206001600160a01b0387168452909152812054909161030c9185906103799086610a3d565b600061030c338461037985604051806060016040528060258152602001610c72602591393360009081526001602090815260408083206001600160a01b038d1684529091529020549190610a11565b60006104188361083f565b61030c3384846108f0565b428410156104705760405162461bcd60e51b8152602060048201526015602482015274484f473a206578706972656420646561646c696e6560581b60448201526064015b60405180910390fd5b600061047a610628565b6001600160a01b038916600090815260036020526040812080547f6e71edae12b1b97f4d1f60370fef10105fa2faae0126114a169c64845d6126c9928c928c928c929091906104c883610bf7565b909155506040805160208101969096526001600160a01b0394851690860152929091166060840152608083015260a082015260c0810187905260e0016040516020818303038152906040528051906020012060405160200161054192919061190160f01b81526002810192909252602282015260420190565b60408051601f198184030181528282528051602091820120600080855291840180845281905260ff88169284019290925260608301869052608083018590529092509060019060a0016020604051602081039080840390855afa1580156105ac573d6000803e3d6000fd5b505050602060405103519050886001600160a01b0316816001600160a01b0316146106125760405162461bcd60e51b8152602060048201526016602482015275484f473a20696e76616c6964207369676e617475726560501b6044820152606401610467565b61061d89898961071a565b505050505050505050565b60007f0000000000000000000000000000000000000000000000000000000000000000460361067657507f000000000000000000000000000000000000000000000000000000000000000090565b50604080517f8b73c3c69bb8fe3d512ecc4cf759cc79239f7b179b0ffacaa9a75d522b39400f6020808301919091527f0000000000000000000000000000000000000000000000000000000000000000828401527f000000000000000000000000000000000000000000000000000000000000000060608301524660808301523060a0808401919091528351808403909101815260c0909201909252805191012090565b6001600160a01b03831661077c5760405162461bcd60e51b8152602060048201526024808201527f45524332303a20617070726f76652066726f6d20746865207a65726f206164646044820152637265737360e01b6064820152608401610467565b6001600160a01b0382166107dd5760405162461bcd60e51b815260206004820152602260248201527f45524332303a20617070726f766520746f20746865207a65726f206164647265604482015261737360f01b6064820152608401610467565b6001600160a01b0383811660008181526001602090815260408083209487168084529482529182902085905590518481527f8c5be1e5ebec7d5bd14f71427d1e84f3dd0314c0f7b2291e5b200ac8c7c3b92591015b60405180910390a3505050565b6001600160a01b0381161580159061086057506001600160a01b0381163014155b6108ed5760405162461bcd60e51b815260206004820152605260248201527f484f473a2043616e6e6f74207472616e7366657220746f6b656e73206469726560448201527f63746c7920746f2074686520484f4720746f6b656e20636f6e7472616374206f6064820152717220746865207a65726f206164647265737360701b608482015260a401610467565b50565b6001600160a01b0383166109545760405162461bcd60e51b815260206004820152602560248201527f45524332303a207472616e736665722066726f6d20746865207a65726f206164604482015264647265737360d81b6064820152608401610467565b61099181604051806060016040528060268152602001610c24602691396001600160a01b0386166000908152602081905260409020549190610a11565b6001600160a01b0380851660009081526020819052604080822093909355908416815220546109c09082610a3d565b6001600160a01b038381166000818152602081815260409182902094909455518481529092918616917fddf252ad1be2c89b69c2b068fc378daa952ba7f163c4a11628f55a4df523b3ef9101610832565b60008184841115610a355760405162461bcd60e51b81526004016104679190610a50565b505050900390565b6000610a498284610c10565b9392505050565b600060208083528351808285015260005b81811015610a7d57858101830151858201604001528201610a61565b506000604082860101526040601f19601f8301168501019250505092915050565b80356001600160a01b0381168114610ab557600080fd5b919050565b60008060408385031215610acd57600080fd5b610ad683610a9e565b946020939093013593505050565b600080600060608486031215610af957600080fd5b610b0284610a9e565b9250610b1060208501610a9e565b9150604084013590509250925092565b600060208284031215610b3257600080fd5b610a4982610a9e565b600080600080600080600060e0888a031215610b5657600080fd5b610b5f88610a9e565b9650610b6d60208901610a9e565b95506040880135945060608801359350608088013560ff81168114610b9157600080fd5b9699959850939692959460a0840135945060c09093013592915050565b60008060408385031215610bc157600080fd5b610bca83610a9e565b9150610bd860208401610a9e565b90509250929050565b634e487b7160e01b600052601160045260246000fd5b600060018201610c0957610c09610be1565b5060010190565b8082018082111561031057610310610be156fe45524332303a207472616e7366657220616d6f756e7420657863656564732062616c616e636545524332303a207472616e7366657220616d6f756e74206578636565647320616c6c6f77616e636545524332303a2064656372656173656420616c6c6f77616e63652062656c6f77207a65726fa2646970667358221220a52880b94b358981b13d04830c65013ce90e8aa6ad3a5f82bdf1ebd64df41f7764736f6c63430008130033",
  "devdoc": {
    "events": {
      "Approval(address,address,uint256)": {
        "details": "Emitted when the allowance of a `spender` for an `owner` is set by a call to {approve}. `value` is the new allowance."
      },
      "Transfer(address,address,uint256)": {
        "details": "Emitted when `value` tokens are moved from one account (`from`) to another (`to`). Note that `value` may be zero."
      }
    },
    "kind": "dev",
    "methods": {
      "allowance(address,address)": {
        "details": "Returns the remaining number of tokens that `spender` will be allowed to spend on behalf of `owner` through {transferFrom}. This is zero by default. This value changes when {approve} or {transferFrom} are called."
      },
      "approve(address,uint256)": {
        "details": "Sets `amount` as the allowance of `spender` over the caller's tokens. Returns a boolean value indicating whether the operation succeeded. IMPORTANT: Beware that changing an allowance with this method brings the risk that someone may use both the old and the new allowance by unfortunate transaction ordering. One possible solution to mitigate this race condition is to first reduce the spender's allowance to 0 and set the desired value afterwards: https://github.com/ethereum/EIPs/issues/20#issuecomment-263524729 Emits an {Approval} event."
      },
      "balanceOf(address)": {
        "details": "Returns the amount of tokens owned by `account`."
      },
      "nonces(address)": {
        "details": "Returns the current ERC2612 nonce for `owner`. This value must be included whenever a signature is generated for {permit}. Every successful call to {permit} increases `owner`'s nonce by one. This prevents a signature from being used multiple times. `owner` can limit the time a Permit is valid for by setting `deadline` to a value in the near future. The deadline argument can be set to uint(-1) to create Permits that effectively never expire."
      },
      "permit(address,address,uint256,uint256,uint8,bytes32,bytes32)": {
        "details": "Sets `amount` as the allowance of `spender` over `owner`'s tokens, given `owner`'s signed approval. IMPORTANT: The same issues {IERC20-approve} has related to transaction ordering also apply here. Emits an {Approval} event. Requirements: - `owner` cannot be the zero address. - `spender` cannot be the zero address. - `deadline` must be a timestamp in the future. - `v`, `r` and `s` must be a valid `secp256k1` signature from `owner` over the EIP712-formatted function arguments. - the signature must use ``owner``'s current nonce (see {nonces}). For more information on the signature format, see the https://eips.wStETHeum.org/EIPS/eip-2612#specification[relevant EIP section]."
      },
      "totalSupply()": {
        "details": "Returns the amount of tokens in existence."
      }
    },
    "version": 1
  },
  "userdoc": {
    "kind": "user",
    "methods": {},
    "notice": "Based On Liquity Protocol TokenToken's functionality based on HOG token. Functions logic remains unchanged. Changes to the contract: - Raised pragma version - Removed an import of Token Interface - Remove native Liquidity Staking contract functionality Even though SafeMath is no longer required, the decision was made to keep it to avoid human factor errors Based upon OpenZeppelin's ERC20 contract: https://github.com/OpenZeppelin/openzeppelin-contracts/blob/master/contracts/token/ERC20/ERC20.sol and their EIP2612 (ERC20Permit / ERC712) functionality: https://github.com/OpenZeppelin/openzeppelin-contracts/blob/53516bc555a454862470e7860a9b5254db4d00f5/contracts/token/ERC20/ERC20Permit.sol  --- Functionality added specific to the HOG --- 1) Transfer protection: blacklist of addresses that are invalid recipients (i.e. core Liquity contracts) in external transfer() and transferFrom() calls. The purpose is to protect users from losing tokens by mistakenly sending HOG directly to a Liquity core contract, when they should rather call the right function. 2) [ DEPRECATED ] sendToHOGStaking(): callable only by Hedgehog core contracts, which move HOG tokens from user -> HOGStaking contract. [ DEPRECATED ] 3) Supply hard-capped at 100 million * * HEDGEHOG YPDATES: 4) Total Supply goes to the multisigAddress given at deployment 5) There is no lock period on the token anymore After one year has passed since deployment of the HOGToken, the restrictions on multisig operations are lifted and the multisig has the same rights as any other address.",
    "version": 1
  },
  "storageLayout": {
    "storage": [
      {
        "astId": 7772,
        "contract": "contracts/HOG/HOGToken.sol:HOGToken",
        "label": "_balances",
        "offset": 0,
        "slot": "0",
        "type": "t_mapping(t_address,t_uint256)"
      },
      {
        "astId": 7778,
        "contract": "contracts/HOG/HOGToken.sol:HOGToken",
        "label": "_allowances",
        "offset": 0,
        "slot": "1",
        "type": "t_mapping(t_address,t_mapping(t_address,t_uint256))"
      },
      {
        "astId": 7780,
        "contract": "contracts/HOG/HOGToken.sol:HOGToken",
        "label": "_totalSupply",
        "offset": 0,
        "slot": "2",
        "type": "t_uint256"
      },
      {
        "astId": 7798,
        "contract": "contracts/HOG/HOGToken.sol:HOGToken",
        "label": "_nonces",
        "offset": 0,
        "slot": "3",
        "type": "t_mapping(t_address,t_uint256)"
      },
      {
        "astId": 7801,
        "contract": "contracts/HOG/HOGToken.sol:HOGToken",
        "label": "_1_MILLION",
        "offset": 0,
        "slot": "4",
        "type": "t_uint256"
      }
    ],
    "types": {
      "t_address": {
        "encoding": "inplace",
        "label": "address",
        "numberOfBytes": "20"
      },
      "t_mapping(t_address,t_mapping(t_address,t_uint256))": {
        "encoding": "mapping",
        "key": "t_address",
        "label": "mapping(address => mapping(address => uint256))",
        "numberOfBytes": "32",
        "value": "t_mapping(t_address,t_uint256)"
      },
      "t_mapping(t_address,t_uint256)": {
        "encoding": "mapping",
        "key": "t_address",
        "label": "mapping(address => uint256)",
        "numberOfBytes": "32",
        "value": "t_uint256"
      },
      "t_uint256": {
        "encoding": "inplace",
        "label": "uint256",
        "numberOfBytes": "32"
      }
    }
  }
}