{
  "address": "0x57121897Fa55b3649A3A8789cC68D6F5e3825AD9",
  "abi": [
    {
      "inputs": [
        {
          "internalType": "address",
          "name": "_troveManagerAddress",
          "type": "address"
        },
        {
          "internalType": "address",
          "name": "_stabilityPoolAddress",
          "type": "address"
        },
        {
          "internalType": "address",
          "name": "_borrowerOperationsAddress",
          "type": "address"
        },
        {
          "internalType": "address",
          "name": "_feesRouter",
          "type": "address"
        }
      ],
      "stateMutability": "nonpayable",
      "type": "constructor"
    },
    {
      "anonymous": false,
      "inputs": [
        {
          "indexed": true,
          "internalType": "address",
          "name": "owner",
          "type": "address"
        },
        {
          "indexed": true,
          "internalType": "address",
          "name": "spender",
          "type": "address"
        },
        {
          "indexed": false,
          "internalType": "uint256",
          "name": "value",
          "type": "uint256"
        }
      ],
      "name": "Approval",
      "type": "event"
    },
    {
      "anonymous": false,
      "inputs": [
        {
          "indexed": false,
          "internalType": "address",
          "name": "_newBorrowerOperationsAddress",
          "type": "address"
        }
      ],
      "name": "BorrowerOperationsAddressChanged",
      "type": "event"
    },
    {
      "anonymous": false,
      "inputs": [
        {
          "indexed": false,
          "internalType": "address",
          "name": "_feesRouter",
          "type": "address"
        }
      ],
      "name": "FeesRouterAddressUpdated",
      "type": "event"
    },
    {
      "anonymous": false,
      "inputs": [
        {
          "indexed": false,
          "internalType": "address",
          "name": "_newStabilityPoolAddress",
          "type": "address"
        }
      ],
      "name": "StabilityPoolAddressChanged",
      "type": "event"
    },
    {
      "anonymous": false,
      "inputs": [
        {
          "indexed": true,
          "internalType": "address",
          "name": "from",
          "type": "address"
        },
        {
          "indexed": true,
          "internalType": "address",
          "name": "to",
          "type": "address"
        },
        {
          "indexed": false,
          "internalType": "uint256",
          "name": "value",
          "type": "uint256"
        }
      ],
      "name": "Transfer",
      "type": "event"
    },
    {
      "anonymous": false,
      "inputs": [
        {
          "indexed": false,
          "internalType": "address",
          "name": "_troveManagerAddress",
          "type": "address"
        }
      ],
      "name": "TroveManagerAddressChanged",
      "type": "event"
    },
    {
      "inputs": [
        {
          "internalType": "address",
          "name": "owner",
          "type": "address"
        },
        {
          "internalType": "address",
          "name": "spender",
          "type": "address"
        }
      ],
      "name": "allowance",
      "outputs": [
        {
          "internalType": "uint256",
          "name": "",
          "type": "uint256"
        }
      ],
      "stateMutability": "view",
      "type": "function"
    },
    {
      "inputs": [
        {
          "internalType": "address",
          "name": "spender",
          "type": "address"
        },
        {
          "internalType": "uint256",
          "name": "amount",
          "type": "uint256"
        }
      ],
      "name": "approve",
      "outputs": [
        {
          "internalType": "bool",
          "name": "",
          "type": "bool"
        }
      ],
      "stateMutability": "nonpayable",
      "type": "function"
    },
    {
      "inputs": [
        {
          "internalType": "address",
          "name": "account",
          "type": "address"
        }
      ],
      "name": "balanceOf",
      "outputs": [
        {
          "internalType": "uint256",
          "name": "",
          "type": "uint256"
        }
      ],
      "stateMutability": "view",
      "type": "function"
    },
    {
      "inputs": [],
      "name": "borrowerOperationsAddress",
      "outputs": [
        {
          "internalType": "address",
          "name": "",
          "type": "address"
        }
      ],
      "stateMutability": "view",
      "type": "function"
    },
    {
      "inputs": [
        {
          "internalType": "address",
          "name": "_account",
          "type": "address"
        },
        {
          "internalType": "uint256",
          "name": "_amount",
          "type": "uint256"
        }
      ],
      "name": "burn",
      "outputs": [],
      "stateMutability": "nonpayable",
      "type": "function"
    },
    {
      "inputs": [],
      "name": "decimals",
      "outputs": [
        {
          "internalType": "uint8",
          "name": "",
          "type": "uint8"
        }
      ],
      "stateMutability": "pure",
      "type": "function"
    },
    {
      "inputs": [
        {
          "internalType": "address",
          "name": "spender",
          "type": "address"
        },
        {
          "internalType": "uint256",
          "name": "subtractedValue",
          "type": "uint256"
        }
      ],
      "name": "decreaseAllowance",
      "outputs": [
        {
          "internalType": "bool",
          "name": "",
          "type": "bool"
        }
      ],
      "stateMutability": "nonpayable",
      "type": "function"
    },
    {
      "inputs": [],
      "name": "domainSeparator",
      "outputs": [
        {
          "internalType": "bytes32",
          "name": "",
          "type": "bytes32"
        }
      ],
      "stateMutability": "view",
      "type": "function"
    },
    {
      "inputs": [],
      "name": "feesRouter",
      "outputs": [
        {
          "internalType": "address",
          "name": "",
          "type": "address"
        }
      ],
      "stateMutability": "view",
      "type": "function"
    },
    {
      "inputs": [
        {
          "internalType": "address",
          "name": "spender",
          "type": "address"
        },
        {
          "internalType": "uint256",
          "name": "addedValue",
          "type": "uint256"
        }
      ],
      "name": "increaseAllowance",
      "outputs": [
        {
          "internalType": "bool",
          "name": "",
          "type": "bool"
        }
      ],
      "stateMutability": "nonpayable",
      "type": "function"
    },
    {
      "inputs": [
        {
          "internalType": "address",
          "name": "_account",
          "type": "address"
        },
        {
          "internalType": "uint256",
          "name": "_amount",
          "type": "uint256"
        }
      ],
      "name": "mint",
      "outputs": [],
      "stateMutability": "nonpayable",
      "type": "function"
    },
    {
      "inputs": [],
      "name": "name",
      "outputs": [
        {
          "internalType": "string",
          "name": "",
          "type": "string"
        }
      ],
      "stateMutability": "pure",
      "type": "function"
    },
    {
      "inputs": [
        {
          "internalType": "address",
          "name": "owner",
          "type": "address"
        }
      ],
      "name": "nonces",
      "outputs": [
        {
          "internalType": "uint256",
          "name": "",
          "type": "uint256"
        }
      ],
      "stateMutability": "view",
      "type": "function"
    },
    {
      "inputs": [
        {
          "internalType": "address",
          "name": "owner",
          "type": "address"
        },
        {
          "internalType": "address",
          "name": "spender",
          "type": "address"
        },
        {
          "internalType": "uint256",
          "name": "amount",
          "type": "uint256"
        },
        {
          "internalType": "uint256",
          "name": "deadline",
          "type": "uint256"
        },
        {
          "internalType": "uint8",
          "name": "v",
          "type": "uint8"
        },
        {
          "internalType": "bytes32",
          "name": "r",
          "type": "bytes32"
        },
        {
          "internalType": "bytes32",
          "name": "s",
          "type": "bytes32"
        }
      ],
      "name": "permit",
      "outputs": [],
      "stateMutability": "nonpayable",
      "type": "function"
    },
    {
      "inputs": [],
      "name": "permitTypeHash",
      "outputs": [
        {
          "internalType": "bytes32",
          "name": "",
          "type": "bytes32"
        }
      ],
      "stateMutability": "pure",
      "type": "function"
    },
    {
      "inputs": [
        {
          "internalType": "address",
          "name": "_poolAddress",
          "type": "address"
        },
        {
          "internalType": "address",
          "name": "_receiver",
          "type": "address"
        },
        {
          "internalType": "uint256",
          "name": "_amount",
          "type": "uint256"
        }
      ],
      "name": "returnFromPool",
      "outputs": [],
      "stateMutability": "nonpayable",
      "type": "function"
    },
    {
      "inputs": [
        {
          "internalType": "address",
          "name": "_sender",
          "type": "address"
        },
        {
          "internalType": "address",
          "name": "_poolAddress",
          "type": "address"
        },
        {
          "internalType": "uint256",
          "name": "_amount",
          "type": "uint256"
        }
      ],
      "name": "sendToPool",
      "outputs": [],
      "stateMutability": "nonpayable",
      "type": "function"
    },
    {
      "inputs": [],
      "name": "stabilityPoolAddress",
      "outputs": [
        {
          "internalType": "address",
          "name": "",
          "type": "address"
        }
      ],
      "stateMutability": "view",
      "type": "function"
    },
    {
      "inputs": [],
      "name": "symbol",
      "outputs": [
        {
          "internalType": "string",
          "name": "",
          "type": "string"
        }
      ],
      "stateMutability": "pure",
      "type": "function"
    },
    {
      "inputs": [],
      "name": "totalSupply",
      "outputs": [
        {
          "internalType": "uint256",
          "name": "",
          "type": "uint256"
        }
      ],
      "stateMutability": "view",
      "type": "function"
    },
    {
      "inputs": [
        {
          "internalType": "address",
          "name": "recipient",
          "type": "address"
        },
        {
          "internalType": "uint256",
          "name": "amount",
          "type": "uint256"
        }
      ],
      "name": "transfer",
      "outputs": [
        {
          "internalType": "bool",
          "name": "",
          "type": "bool"
        }
      ],
      "stateMutability": "nonpayable",
      "type": "function"
    },
    {
      "inputs": [
        {
          "internalType": "address",
          "name": "sender",
          "type": "address"
        },
        {
          "internalType": "address",
          "name": "recipient",
          "type": "address"
        },
        {
          "internalType": "uint256",
          "name": "amount",
          "type": "uint256"
        }
      ],
      "name": "transferFrom",
      "outputs": [
        {
          "internalType": "bool",
          "name": "",
          "type": "bool"
        }
      ],
      "stateMutability": "nonpayable",
      "type": "function"
    },
    {
      "inputs": [],
      "name": "troveManagerAddress",
      "outputs": [
        {
          "internalType": "address",
          "name": "",
          "type": "address"
        }
      ],
      "stateMutability": "view",
      "type": "function"
    },
    {
      "inputs": [],
      "name": "version",
      "outputs": [
        {
          "internalType": "string",
          "name": "",
          "type": "string"
        }
      ],
      "stateMutability": "pure",
      "type": "function"
    }
  ],
  "transactionHash": "0xe2f10b1572da5d00b80f2ead570c4a444f950ba7fca215c315e023357c215b07",
  "args": [
    "0xbF58Da5014f8e30a3dC19f284A2E0e2225afA406",
    "0xA6C649D7ed020eE9fFCFc0E6A36fb7fef52E8d35",
    "0x81f91CE4963D4F27459486286c59354Dc12ae60A",
    "0x92AaCBcaF77b62385d007e78Be51b1F90C803E16"
  ],
  "numDeployments": 1,
  "solcInputHash": "4248509572f812c4fa4319d44edb1593",
  "bytecode": "0x6101606040523480156200001257600080fd5b506040516200182b3803806200182b833981016040819052620000359162000341565b620000408462000273565b6200004b8362000273565b620000568262000273565b620000618162000273565b6001600160a01b0384166101008190526040519081527f143219c9e69b09e07e095fcc889b43d8f46ca892bba65f08dc3a0050869a56789060200160405180910390a16001600160a01b0383166101208190526040519081527f82966d27eea39b038ee0fa30cd16532bb24f6e65d31cb58fb227aa5766cdcc7f9060200160405180910390a16001600160a01b0382166101408190526040519081527f3ca631ffcd2a9b5d9ae18543fc82f58eb4ca33af9e6ab01b7a8e95331e6ed9859060200160405180910390a1600480546001600160a01b0319166001600160a01b0383169081179091556040519081527f6877e00d9059f8716bd795b5d4c2c89a4bc3cef71ba3dd99b168ac9cc1f2a6c29060200160405180910390a1604080518082018252601081526f2130b9b2a332b2a626a0902a37b5b2b760811b6020918201528151808301835260018152603160f81b908201527f05e92eb31d870a8ef3aa62edcf6fe1328b30b6bc4a6ab3a1b3d68c8e5e9614f660c08181527fc89efdaa54c0f20c7adf612882df0950f5a951637e0307cdcb4c672f298b8bc660e08190524660a081815286517f8b73c3c69bb8fe3d512ecc4cf759cc79239f7b179b0ffacaa9a75d522b39400f8188015280880186905260608101849052608081019290925230828201528651808303909101815292019094528051920191909120909190608052506200039e945050505050565b6001600160a01b038116620002cf5760405162461bcd60e51b815260206004820152601e60248201527f4163636f756e742063616e6e6f74206265207a65726f2061646472657373000060448201526064015b60405180910390fd5b803b80620003205760405162461bcd60e51b815260206004820181905260248201527f4163636f756e7420636f64652073697a652063616e6e6f74206265207a65726f6044820152606401620002c6565b5050565b80516001600160a01b03811681146200033c57600080fd5b919050565b600080600080608085870312156200035857600080fd5b620003638562000324565b9350620003736020860162000324565b9250620003836040860162000324565b9150620003936060860162000324565b905092959194509250565b60805160a05160c05160e0516101005161012051610140516113ec6200043f6000396000818161038601528181610c2501528181610d3f0152610e790152600081816101c30152818161097f01528181610baa01528181610ede01526110410152600081816102b40152818161094d01528181610be70152610eab0152600061084601526000610821015260006107a6015260006107ce01526113ec6000f3fe608060405234801561001057600080fd5b50600436106101585760003560e01c806370a08231116100c3578063b7f8cf9b1161007c578063b7f8cf9b14610381578063bb997bac146103a8578063c42dab99146103bb578063d505accf146103ce578063dd62ed3e146103e1578063f698da251461041a57600080fd5b806370a08231146102d65780637ecebe00146102ff57806395d89b41146103285780639dc29fac14610348578063a457c2d71461035b578063a9059cbb1461036e57600080fd5b806323b872dd1161011557806323b872dd1461024a578063313ce5671461025d578063395093511461026c57806340c10f191461027f57806354fd4d50146102925780635a4d28bb146102af57600080fd5b806306fdde031461015d578063095ea7b31461019b5780630b622ab2146101be57806310ce43bd146101fd57806318160ddd1461022d57806320c582be14610235575b600080fd5b60408051808201909152601081526f2130b9b2a332b2a626a0902a37b5b2b760811b60208201525b60405161019291906110ce565b60405180910390f35b6101ae6101a9366004611138565b610422565b6040519015158152602001610192565b6101e57f000000000000000000000000000000000000000000000000000000000000000081565b6040516001600160a01b039091168152602001610192565b7f6e71edae12b1b97f4d1f60370fef10105fa2faae0126114a169c64845d6126c95b604051908152602001610192565b60005461021f565b610248610243366004611162565b610439565b005b6101ae610258366004611162565b610451565b60405160128152602001610192565b6101ae61027a366004611138565b6104c3565b61024861028d366004611138565b6104f9565b6040805180820190915260018152603160f81b6020820152610185565b6101e57f000000000000000000000000000000000000000000000000000000000000000081565b61021f6102e436600461119e565b6001600160a01b031660009081526002602052604090205490565b61021f61030d36600461119e565b6001600160a01b031660009081526001602052604090205490565b6040805180820190915260048152634246454560e01b6020820152610185565b610248610356366004611138565b61050f565b6101ae610369366004611138565b610521565b6101ae61037c366004611138565b610570565b6101e57f000000000000000000000000000000000000000000000000000000000000000081565b6102486103b6366004611162565b610586565b6004546101e5906001600160a01b031681565b6102486103dc3660046111b9565b61058e565b61021f6103ef36600461122c565b6001600160a01b03918216600090815260036020908152604080832093909416825291909152205490565b61021f6107a2565b600061042f338484610894565b5060015b92915050565b610441610942565b61044c838383610a15565b505050565b600061045c83610aef565b610467848484610a15565b6104b984336104b48560405180606001604052806028815260200161134a602891396001600160a01b038a1660009081526003602090815260408083203384529091529020549190610cf5565b610894565b5060019392505050565b3360008181526003602090815260408083206001600160a01b0387168452909152812054909161042f9185906104b49086610d21565b610501610d34565b61050b8282610ddb565b5050565b610517610e6e565b61050b8282610f8e565b600061042f33846104b485604051806060016040528060258152602001611392602591393360009081526003602090815260408083206001600160a01b038d1684529091529020549190610cf5565b600061057b83610aef565b61042f338484610a15565b610441611036565b428410156105e35760405162461bcd60e51b815260206004820152601c60248201527f426173654665654c4d413a206578706972656420646561646c696e650000000060448201526064015b60405180910390fd5b60006105ed6107a2565b6001600160a01b038916600090815260016020526040812080547f6e71edae12b1b97f4d1f60370fef10105fa2faae0126114a169c64845d6126c9928c928c928c9290919061063b83611275565b909155506040805160208101969096526001600160a01b0394851690860152929091166060840152608083015260a082015260c0810187905260e001604051602081830303815290604052805190602001206040516020016106b492919061190160f01b81526002810192909252602282015260420190565b60408051601f198184030181528282528051602091820120600080855291840180845281905260ff88169284019290925260608301869052608083018590529092509060019060a0016020604051602081039080840390855afa15801561071f573d6000803e3d6000fd5b505050602060405103519050886001600160a01b0316816001600160a01b03161461078c5760405162461bcd60e51b815260206004820152601d60248201527f426173654665654c4d413a20696e76616c6964207369676e617475726500000060448201526064016105da565b610797898989610894565b505050505050505050565b60007f000000000000000000000000000000000000000000000000000000000000000046036107f057507f000000000000000000000000000000000000000000000000000000000000000090565b50604080517f8b73c3c69bb8fe3d512ecc4cf759cc79239f7b179b0ffacaa9a75d522b39400f6020808301919091527f0000000000000000000000000000000000000000000000000000000000000000828401527f000000000000000000000000000000000000000000000000000000000000000060608301524660808301523060a0808401919091528351808403909101815260c0909201909252805191012090565b6001600160a01b0383166108ba5760405162461bcd60e51b81526004016105da9061128e565b6001600160a01b0382166108e05760405162461bcd60e51b81526004016105da9061128e565b6001600160a01b0383811660008181526003602090815260408083209487168084529482529182902085905590518481527f8c5be1e5ebec7d5bd14f71427d1e84f3dd0314c0f7b2291e5b200ac8c7c3b92591015b60405180910390a3505050565b336001600160a01b037f00000000000000000000000000000000000000000000000000000000000000001614806109a15750336001600160a01b037f000000000000000000000000000000000000000000000000000000000000000016145b610a135760405162461bcd60e51b815260206004820152603c60248201527f426173654665654c4d413a2043616c6c6572206973206e65697468657220547260448201527f6f76654d616e61676572206e6f722053746162696c697479506f6f6c0000000060648201526084016105da565b565b6001600160a01b038316610a2b57610a2b6112c5565b6001600160a01b038216610a4157610a416112c5565b610a7e81604051806060016040528060268152602001611324602691396001600160a01b0386166000908152600260205260409020549190610cf5565b6001600160a01b038085166000908152600260205260408082209390935590841681522054610aad9082610d21565b6001600160a01b038084166000818152600260205260409081902093909355915190851690600080516020611372833981519152906109359085815260200190565b6001600160a01b03811615801590610b1057506001600160a01b0381163014155b610ba85760405162461bcd60e51b815260206004820152606060248201527f426173654665654c4d413a2043616e6e6f74207472616e7366657220746f6b6560448201527f6e73206469726563746c7920746f2074686520426173654665654c4d4120746f60648201527f6b656e20636f6e7472616374206f7220746865207a65726f2061646472657373608482015260a4016105da565b7f00000000000000000000000000000000000000000000000000000000000000006001600160a01b0316816001600160a01b031614158015610c1c57507f00000000000000000000000000000000000000000000000000000000000000006001600160a01b0316816001600160a01b031614155b8015610c5a57507f00000000000000000000000000000000000000000000000000000000000000006001600160a01b0316816001600160a01b031614155b610cf25760405162461bcd60e51b815260206004820152605d60248201527f426173654665654c4d413a2043616e6e6f74207472616e7366657220746f6b6560448201527f6e73206469726563746c7920746f207468652053746162696c697479506f6f6c60648201527f2c2054726f76654d616e61676572206f7220426f72726f7765724f7073000000608482015260a4016105da565b50565b60008184841115610d195760405162461bcd60e51b81526004016105da91906110ce565b505050900390565b6000610d2d82846112db565b9392505050565b336001600160a01b037f0000000000000000000000000000000000000000000000000000000000000000161480610d7557506004546001600160a01b031633145b610a135760405162461bcd60e51b815260206004820152603160248201527f426173654665654c4d41546f6b656e3a2043616c6c6572206973206e6f7420426044820152706f72726f7765724f7065726174696f6e7360781b60648201526084016105da565b6001600160a01b038216610df157610df16112c5565b600054610dfe9082610d21565b60009081556001600160a01b038316815260026020526040902054610e239082610d21565b6001600160a01b03831660008181526002602052604080822093909355915190919060008051602061137283398151915290610e629085815260200190565b60405180910390a35050565b336001600160a01b037f0000000000000000000000000000000000000000000000000000000000000000161480610ecd5750336001600160a01b037f000000000000000000000000000000000000000000000000000000000000000016145b80610f005750336001600160a01b037f000000000000000000000000000000000000000000000000000000000000000016145b610a135760405162461bcd60e51b815260206004820152605360248201527f426173654665654c4d413a2043616c6c6572206973206e65697468657220426f60448201527f72726f7765724f7065726174696f6e73206e6f722054726f76654d616e6167656064820152721c881b9bdc8814dd18589a5b1a5d1e541bdbdb606a1b608482015260a4016105da565b6001600160a01b038216610fa457610fa46112c5565b610fe181604051806060016040528060228152602001611302602291396001600160a01b0385166000908152600260205260409020549190610cf5565b6001600160a01b0383166000908152600260205260408120919091555461100890826110c2565b60009081556040518281526001600160a01b0384169060008051602061137283398151915290602001610e62565b336001600160a01b037f00000000000000000000000000000000000000000000000000000000000000001614610a135760405162461bcd60e51b815260206004820152602b60248201527f426173654665654c4d413a2043616c6c6572206973206e6f742074686520537460448201526a18589a5b1a5d1e541bdbdb60aa1b60648201526084016105da565b6000610d2d82846112ee565b600060208083528351808285015260005b818110156110fb578581018301518582016040015282016110df565b506000604082860101526040601f19601f8301168501019250505092915050565b80356001600160a01b038116811461113357600080fd5b919050565b6000806040838503121561114b57600080fd5b6111548361111c565b946020939093013593505050565b60008060006060848603121561117757600080fd5b6111808461111c565b925061118e6020850161111c565b9150604084013590509250925092565b6000602082840312156111b057600080fd5b610d2d8261111c565b600080600080600080600060e0888a0312156111d457600080fd5b6111dd8861111c565b96506111eb6020890161111c565b95506040880135945060608801359350608088013560ff8116811461120f57600080fd5b9699959850939692959460a0840135945060c09093013592915050565b6000806040838503121561123f57600080fd5b6112488361111c565b91506112566020840161111c565b90509250929050565b634e487b7160e01b600052601160045260246000fd5b6000600182016112875761128761125f565b5060010190565b6020808252601e908201527f426173654665654c4d413a207a65726f206164647265737320706172616d0000604082015260600190565b634e487b7160e01b600052600160045260246000fd5b808201808211156104335761043361125f565b818103818111156104335761043361125f56fe45524332303a206275726e20616d6f756e7420657863656564732062616c616e636545524332303a207472616e7366657220616d6f756e7420657863656564732062616c616e636545524332303a207472616e7366657220616d6f756e74206578636565647320616c6c6f77616e6365ddf252ad1be2c89b69c2b068fc378daa952ba7f163c4a11628f55a4df523b3ef45524332303a2064656372656173656420616c6c6f77616e63652062656c6f77207a65726fa264697066735822122057cb944089d34d09c573fceec56126bcd088d2694fbb033d891f6a37152d4fb864736f6c63430008130033",
  "devdoc": {
    "events": {
      "Approval(address,address,uint256)": {
        "details": "Emitted when the allowance of a `spender` for an `owner` is set by a call to {approve}. `value` is the new allowance."
      },
      "Transfer(address,address,uint256)": {
        "details": "Emitted when `value` tokens are moved from one account (`from`) to another (`to`). Note that `value` may be zero."
      }
    },
    "kind": "dev",
    "methods": {
      "allowance(address,address)": {
        "details": "Returns the remaining number of tokens that `spender` will be allowed to spend on behalf of `owner` through {transferFrom}. This is zero by default. This value changes when {approve} or {transferFrom} are called."
      },
      "approve(address,uint256)": {
        "details": "Sets `amount` as the allowance of `spender` over the caller's tokens. Returns a boolean value indicating whether the operation succeeded. IMPORTANT: Beware that changing an allowance with this method brings the risk that someone may use both the old and the new allowance by unfortunate transaction ordering. One possible solution to mitigate this race condition is to first reduce the spender's allowance to 0 and set the desired value afterwards: https://github.com/ethereum/EIPs/issues/20#issuecomment-263524729 Emits an {Approval} event."
      },
      "balanceOf(address)": {
        "details": "Returns the amount of tokens owned by `account`."
      },
      "nonces(address)": {
        "details": "Returns the current ERC2612 nonce for `owner`. This value must be included whenever a signature is generated for {permit}. Every successful call to {permit} increases `owner`'s nonce by one. This prevents a signature from being used multiple times. `owner` can limit the time a Permit is valid for by setting `deadline` to a value in the near future. The deadline argument can be set to uint(-1) to create Permits that effectively never expire."
      },
      "permit(address,address,uint256,uint256,uint8,bytes32,bytes32)": {
        "details": "Sets `amount` as the allowance of `spender` over `owner`'s tokens, given `owner`'s signed approval. IMPORTANT: The same issues {IERC20-approve} has related to transaction ordering also apply here. Emits an {Approval} event. Requirements: - `owner` cannot be the zero address. - `spender` cannot be the zero address. - `deadline` must be a timestamp in the future. - `v`, `r` and `s` must be a valid `secp256k1` signature from `owner` over the EIP712-formatted function arguments. - the signature must use ``owner``'s current nonce (see {nonces}). For more information on the signature format, see the https://eips.wStETHeum.org/EIPS/eip-2612#specification[relevant EIP section]."
      },
      "totalSupply()": {
        "details": "Returns the amount of tokens in existence."
      }
    },
    "version": 1
  },
  "userdoc": {
    "kind": "user",
    "methods": {},
    "version": 1
  },
  "storageLayout": {
    "storage": [
      {
        "astId": 2908,
        "contract": "contracts/BaseFeeLMAToken.sol:BaseFeeLMAToken",
        "label": "_totalSupply",
        "offset": 0,
        "slot": "0",
        "type": "t_uint256"
      },
      {
        "astId": 2938,
        "contract": "contracts/BaseFeeLMAToken.sol:BaseFeeLMAToken",
        "label": "_nonces",
        "offset": 0,
        "slot": "1",
        "type": "t_mapping(t_address,t_uint256)"
      },
      {
        "astId": 2942,
        "contract": "contracts/BaseFeeLMAToken.sol:BaseFeeLMAToken",
        "label": "_balances",
        "offset": 0,
        "slot": "2",
        "type": "t_mapping(t_address,t_uint256)"
      },
      {
        "astId": 2948,
        "contract": "contracts/BaseFeeLMAToken.sol:BaseFeeLMAToken",
        "label": "_allowances",
        "offset": 0,
        "slot": "3",
        "type": "t_mapping(t_address,t_mapping(t_address,t_uint256))"
      },
      {
        "astId": 2956,
        "contract": "contracts/BaseFeeLMAToken.sol:BaseFeeLMAToken",
        "label": "feesRouter",
        "offset": 0,
        "slot": "4",
        "type": "t_address"
      }
    ],
    "types": {
      "t_address": {
        "encoding": "inplace",
        "label": "address",
        "numberOfBytes": "20"
      },
      "t_mapping(t_address,t_mapping(t_address,t_uint256))": {
        "encoding": "mapping",
        "key": "t_address",
        "label": "mapping(address => mapping(address => uint256))",
        "numberOfBytes": "32",
        "value": "t_mapping(t_address,t_uint256)"
      },
      "t_mapping(t_address,t_uint256)": {
        "encoding": "mapping",
        "key": "t_address",
        "label": "mapping(address => uint256)",
        "numberOfBytes": "32",
        "value": "t_uint256"
      },
      "t_uint256": {
        "encoding": "inplace",
        "label": "uint256",
        "numberOfBytes": "32"
      }
    }
  }
}