{
  "address": "0x92AaCBcaF77b62385d007e78Be51b1F90C803E16",
  "abi": [
    {
      "inputs": [
        {
          "internalType": "address",
          "name": "_defaultAdmin",
          "type": "address"
        },
        {
          "internalType": "address",
          "name": "_ultimateAdmin",
          "type": "address"
        }
      ],
      "stateMutability": "nonpayable",
      "type": "constructor"
    },
    {
      "inputs": [],
      "name": "CallerIsNotHDGProtocol",
      "type": "error"
    },
    {
      "inputs": [],
      "name": "ConfigNotFound",
      "type": "error"
    },
    {
      "inputs": [],
      "name": "InvalidAddress",
      "type": "error"
    },
    {
      "inputs": [],
      "name": "InvalidIndex",
      "type": "error"
    },
    {
      "inputs": [],
      "name": "InvalidInput",
      "type": "error"
    },
    {
      "anonymous": false,
      "inputs": [
        {
          "indexed": true,
          "internalType": "address",
          "name": "setter",
          "type": "address"
        },
        {
          "indexed": true,
          "internalType": "uint256",
          "name": "percentage",
          "type": "uint256"
        },
        {
          "indexed": false,
          "internalType": "uint256",
          "name": "amountA",
          "type": "uint256"
        },
        {
          "indexed": false,
          "internalType": "uint256",
          "name": "amountB",
          "type": "uint256"
        },
        {
          "indexed": false,
          "internalType": "uint256",
          "name": "amountC",
          "type": "uint256"
        },
        {
          "indexed": false,
          "internalType": "address",
          "name": "addressA",
          "type": "address"
        },
        {
          "indexed": false,
          "internalType": "address",
          "name": "addressB",
          "type": "address"
        },
        {
          "indexed": false,
          "internalType": "address",
          "name": "addressC",
          "type": "address"
        }
      ],
      "name": "CollFeeConfigUpdated",
      "type": "event"
    },
    {
      "anonymous": false,
      "inputs": [
        {
          "indexed": true,
          "internalType": "address",
          "name": "setter",
          "type": "address"
        },
        {
          "indexed": true,
          "internalType": "uint256",
          "name": "percentage",
          "type": "uint256"
        },
        {
          "indexed": false,
          "internalType": "uint256",
          "name": "amountA",
          "type": "uint256"
        },
        {
          "indexed": false,
          "internalType": "uint256",
          "name": "amountB",
          "type": "uint256"
        },
        {
          "indexed": false,
          "internalType": "uint256",
          "name": "amountC",
          "type": "uint256"
        },
        {
          "indexed": false,
          "internalType": "address",
          "name": "addressA",
          "type": "address"
        },
        {
          "indexed": false,
          "internalType": "address",
          "name": "addressB",
          "type": "address"
        },
        {
          "indexed": false,
          "internalType": "address",
          "name": "addressC",
          "type": "address"
        }
      ],
      "name": "DebtFeeConfigUpdated",
      "type": "event"
    },
    {
      "anonymous": false,
      "inputs": [
        {
          "indexed": true,
          "internalType": "bytes32",
          "name": "role",
          "type": "bytes32"
        },
        {
          "indexed": true,
          "internalType": "bytes32",
          "name": "previousAdminRole",
          "type": "bytes32"
        },
        {
          "indexed": true,
          "internalType": "bytes32",
          "name": "newAdminRole",
          "type": "bytes32"
        }
      ],
      "name": "RoleAdminChanged",
      "type": "event"
    },
    {
      "anonymous": false,
      "inputs": [
        {
          "indexed": true,
          "internalType": "bytes32",
          "name": "role",
          "type": "bytes32"
        },
        {
          "indexed": true,
          "internalType": "address",
          "name": "account",
          "type": "address"
        },
        {
          "indexed": true,
          "internalType": "address",
          "name": "sender",
          "type": "address"
        }
      ],
      "name": "RoleGranted",
      "type": "event"
    },
    {
      "anonymous": false,
      "inputs": [
        {
          "indexed": true,
          "internalType": "bytes32",
          "name": "role",
          "type": "bytes32"
        },
        {
          "indexed": true,
          "internalType": "address",
          "name": "account",
          "type": "address"
        },
        {
          "indexed": true,
          "internalType": "address",
          "name": "sender",
          "type": "address"
        }
      ],
      "name": "RoleRevoked",
      "type": "event"
    },
    {
      "inputs": [],
      "name": "DEFAULT_ADMIN_ROLE",
      "outputs": [
        {
          "internalType": "bytes32",
          "name": "",
          "type": "bytes32"
        }
      ],
      "stateMutability": "view",
      "type": "function"
    },
    {
      "inputs": [],
      "name": "activePool",
      "outputs": [
        {
          "internalType": "contract IActivePool",
          "name": "",
          "type": "address"
        }
      ],
      "stateMutability": "view",
      "type": "function"
    },
    {
      "inputs": [],
      "name": "baseFeeLMAToken",
      "outputs": [
        {
          "internalType": "contract IBaseFeeLMAToken",
          "name": "",
          "type": "address"
        }
      ],
      "stateMutability": "view",
      "type": "function"
    },
    {
      "inputs": [],
      "name": "borrowersOp",
      "outputs": [
        {
          "internalType": "address",
          "name": "",
          "type": "address"
        }
      ],
      "stateMutability": "view",
      "type": "function"
    },
    {
      "inputs": [
        {
          "internalType": "uint256",
          "name": "",
          "type": "uint256"
        }
      ],
      "name": "collFeeConfigs",
      "outputs": [
        {
          "internalType": "uint256",
          "name": "amountA",
          "type": "uint256"
        },
        {
          "internalType": "uint256",
          "name": "amountB",
          "type": "uint256"
        },
        {
          "internalType": "uint256",
          "name": "amountC",
          "type": "uint256"
        },
        {
          "internalType": "address",
          "name": "addressA",
          "type": "address"
        },
        {
          "internalType": "address",
          "name": "addressB",
          "type": "address"
        },
        {
          "internalType": "address",
          "name": "addressC",
          "type": "address"
        }
      ],
      "stateMutability": "view",
      "type": "function"
    },
    {
      "inputs": [
        {
          "internalType": "uint256",
          "name": "",
          "type": "uint256"
        }
      ],
      "name": "debtFeeConfigs",
      "outputs": [
        {
          "internalType": "uint256",
          "name": "amountA",
          "type": "uint256"
        },
        {
          "internalType": "uint256",
          "name": "amountB",
          "type": "uint256"
        },
        {
          "internalType": "uint256",
          "name": "amountC",
          "type": "uint256"
        },
        {
          "internalType": "address",
          "name": "addressA",
          "type": "address"
        },
        {
          "internalType": "address",
          "name": "addressB",
          "type": "address"
        },
        {
          "internalType": "address",
          "name": "addressC",
          "type": "address"
        }
      ],
      "stateMutability": "view",
      "type": "function"
    },
    {
      "inputs": [
        {
          "internalType": "uint256",
          "name": "_coll",
          "type": "uint256"
        },
        {
          "internalType": "uint256",
          "name": "_fee",
          "type": "uint256"
        }
      ],
      "name": "distributeCollFee",
      "outputs": [],
      "stateMutability": "nonpayable",
      "type": "function"
    },
    {
      "inputs": [
        {
          "internalType": "uint256",
          "name": "_debt",
          "type": "uint256"
        },
        {
          "internalType": "uint256",
          "name": "_fee",
          "type": "uint256"
        }
      ],
      "name": "distributeDebtFee",
      "outputs": [],
      "stateMutability": "nonpayable",
      "type": "function"
    },
    {
      "inputs": [
        {
          "internalType": "bytes32",
          "name": "role",
          "type": "bytes32"
        }
      ],
      "name": "getRoleAdmin",
      "outputs": [
        {
          "internalType": "bytes32",
          "name": "",
          "type": "bytes32"
        }
      ],
      "stateMutability": "view",
      "type": "function"
    },
    {
      "inputs": [
        {
          "internalType": "bytes32",
          "name": "role",
          "type": "bytes32"
        },
        {
          "internalType": "address",
          "name": "account",
          "type": "address"
        }
      ],
      "name": "grantRole",
      "outputs": [],
      "stateMutability": "nonpayable",
      "type": "function"
    },
    {
      "inputs": [
        {
          "internalType": "bytes32",
          "name": "role",
          "type": "bytes32"
        },
        {
          "internalType": "address",
          "name": "account",
          "type": "address"
        }
      ],
      "name": "hasRole",
      "outputs": [
        {
          "internalType": "bool",
          "name": "",
          "type": "bool"
        }
      ],
      "stateMutability": "view",
      "type": "function"
    },
    {
      "inputs": [
        {
          "internalType": "bytes32",
          "name": "role",
          "type": "bytes32"
        },
        {
          "internalType": "address",
          "name": "account",
          "type": "address"
        }
      ],
      "name": "renounceRole",
      "outputs": [],
      "stateMutability": "nonpayable",
      "type": "function"
    },
    {
      "inputs": [
        {
          "internalType": "bytes32",
          "name": "role",
          "type": "bytes32"
        },
        {
          "internalType": "address",
          "name": "account",
          "type": "address"
        }
      ],
      "name": "revokeRole",
      "outputs": [],
      "stateMutability": "nonpayable",
      "type": "function"
    },
    {
      "inputs": [
        {
          "internalType": "contract IActivePool",
          "name": "_activePool",
          "type": "address"
        },
        {
          "internalType": "contract IBaseFeeLMAToken",
          "name": "_baseFeeLMAToken",
          "type": "address"
        },
        {
          "internalType": "address",
          "name": "_borrowersOp",
          "type": "address"
        },
        {
          "internalType": "address",
          "name": "_troveManager",
          "type": "address"
        }
      ],
      "name": "setAddresses",
      "outputs": [],
      "stateMutability": "nonpayable",
      "type": "function"
    },
    {
      "inputs": [
        {
          "internalType": "uint256",
          "name": "_percentage",
          "type": "uint256"
        },
        {
          "internalType": "uint256",
          "name": "_amountA",
          "type": "uint256"
        },
        {
          "internalType": "uint256",
          "name": "_amountB",
          "type": "uint256"
        },
        {
          "internalType": "uint256",
          "name": "_amountC",
          "type": "uint256"
        },
        {
          "internalType": "address",
          "name": "_addressA",
          "type": "address"
        },
        {
          "internalType": "address",
          "name": "_addressB",
          "type": "address"
        },
        {
          "internalType": "address",
          "name": "_addressC",
          "type": "address"
        }
      ],
      "name": "setCollFeeConfig",
      "outputs": [],
      "stateMutability": "nonpayable",
      "type": "function"
    },
    {
      "inputs": [
        {
          "internalType": "uint256",
          "name": "_percentage",
          "type": "uint256"
        },
        {
          "internalType": "uint256",
          "name": "_amountA",
          "type": "uint256"
        },
        {
          "internalType": "uint256",
          "name": "_amountB",
          "type": "uint256"
        },
        {
          "internalType": "uint256",
          "name": "_amountC",
          "type": "uint256"
        },
        {
          "internalType": "address",
          "name": "_addressA",
          "type": "address"
        },
        {
          "internalType": "address",
          "name": "_addressB",
          "type": "address"
        },
        {
          "internalType": "address",
          "name": "_addressC",
          "type": "address"
        }
      ],
      "name": "setDebtFeeConfig",
      "outputs": [],
      "stateMutability": "nonpayable",
      "type": "function"
    },
    {
      "inputs": [
        {
          "internalType": "uint256",
          "name": "_percentage",
          "type": "uint256"
        },
        {
          "internalType": "uint256",
          "name": "_amountA",
          "type": "uint256"
        },
        {
          "internalType": "uint256",
          "name": "_amountB",
          "type": "uint256"
        },
        {
          "internalType": "uint256",
          "name": "_amountC",
          "type": "uint256"
        },
        {
          "internalType": "address",
          "name": "_addressA",
          "type": "address"
        },
        {
          "internalType": "address",
          "name": "_addressB",
          "type": "address"
        },
        {
          "internalType": "address",
          "name": "_addressC",
          "type": "address"
        }
      ],
      "name": "setFeeConfigs",
      "outputs": [],
      "stateMutability": "nonpayable",
      "type": "function"
    },
    {
      "inputs": [
        {
          "internalType": "bytes4",
          "name": "interfaceId",
          "type": "bytes4"
        }
      ],
      "name": "supportsInterface",
      "outputs": [
        {
          "internalType": "bool",
          "name": "",
          "type": "bool"
        }
      ],
      "stateMutability": "view",
      "type": "function"
    },
    {
      "inputs": [],
      "name": "troveManager",
      "outputs": [
        {
          "internalType": "address",
          "name": "",
          "type": "address"
        }
      ],
      "stateMutability": "view",
      "type": "function"
    }
  ],
  "transactionHash": "0xca47bdec71c13059dba532f3d758b5855a899358472dc9c0e8e580031e7e122a",
  "args": [
    "0x4ca847d530ee8bB3CB52273863BEe00cF625A9cB",
    "0x4ca847d530ee8bB3CB52273863BEe00cF625A9cB"
  ],
  "numDeployments": 1,
  "solcInputHash": "4248509572f812c4fa4319d44edb1593",
  "bytecode": "0x60806040523480156200001157600080fd5b5060405162001cc238038062001cc2833981016040819052620000349162000221565b6001600160a01b0382166200005c5760405163e6c4247b60e01b815260040160405180910390fd5b6001600160a01b038116620000845760405163e6c4247b60e01b815260040160405180910390fd5b6200009f60008051602062001ca28339815191528262000118565b620000c960008051602062001c8283398151915260008051602062001ca2833981519152620001b9565b620000e460008051602062001c828339815191528362000118565b620001107f503cf060389b91af8851125bd70ce66d16d12330718b103fc7674ef6d27e70c93362000118565b505062000259565b6000828152602081815260408083206001600160a01b038516845290915290205460ff16620001b5576000828152602081815260408083206001600160a01b03851684529091529020805460ff19166001179055620001743390565b6001600160a01b0316816001600160a01b0316837f2f8788117e7eff1d82e926ec794901d17c78024a50270940304540a733656f0d60405160405180910390a45b5050565b600082815260208190526040808220600101805490849055905190918391839186917fbd79b86ffe0ab8e8776151514217cd7cacd52c909f66475c3af44e129f0b00ff9190a4505050565b80516001600160a01b03811681146200021c57600080fd5b919050565b600080604083850312156200023557600080fd5b620002408362000204565b9150620002506020840162000204565b90509250929050565b611a1980620002696000396000f3fe608060405234801561001057600080fd5b50600436106101115760003560e01c8063813154a0116100ad578063d547741f11610071578063d547741f14610262578063eaa378ca14610275578063f8c713e8146102d8578063fd3b9e68146102eb578063fee00449146102fe57600080fd5b8063813154a01461020e5780638f9137891461022157806391d1485414610234578063a217fddf14610247578063ca866c7f1461024f57600080fd5b806301ffc9a714610116578063248a9ca31461013e5780632f2ff15d1461016f57806336568abe146101845780633d83908a146101975780634a945f8d146101c25780635b05e5bd146101d55780636376b624146101e85780637f7dde4a146101fb575b600080fd5b610129610124366004611661565b610350565b60405190151581526020015b60405180910390f35b61016161014c36600461168b565b60009081526020819052604090206001015490565b604051908152602001610135565b61018261017d3660046116b9565b610387565b005b6101826101923660046116b9565b6103b1565b6006546101aa906001600160a01b031681565b6040516001600160a01b039091168152602001610135565b6101826101d03660046116e9565b610434565b6101826101e3366004611745565b610575565b6101826101f63660046117b7565b6106f5565b6004546101aa906001600160a01b031681565b6005546101aa906001600160a01b031681565b6003546101aa906001600160a01b031681565b6101296102423660046116b9565b610a18565b610161600081565b61018261025d366004611745565b610a41565b6101826102703660046116b9565b610baf565b6102c661028336600461168b565b6001602081905260009182526040909120805491810154600282015460038301546004840154600590940154929391926001600160a01b03918216928216911686565b604051610135969594939291906117d9565b6101826102e6366004611745565b610bd4565b6101826102f93660046117b7565b610e91565b6102c661030c36600461168b565b600260208190526000918252604090912080546001820154928201546003830154600484015460059094015492949391926001600160a01b03918216928216911686565b60006001600160e01b03198216637965db0b60e01b148061038157506301ffc9a760e01b6001600160e01b03198316145b92915050565b6000828152602081905260409020600101546103a281611177565b6103ac8383611184565b505050565b6001600160a01b03811633146104265760405162461bcd60e51b815260206004820152602f60248201527f416363657373436f6e74726f6c3a2063616e206f6e6c792072656e6f756e636560448201526e103937b632b9903337b91039b2b63360891b60648201526084015b60405180910390fd5b6104308282611208565b5050565b7f503cf060389b91af8851125bd70ce66d16d12330718b103fc7674ef6d27e70c961045e81611177565b6001600160a01b0383166104855760405163e6c4247b60e01b815260040160405180910390fd5b6001600160a01b0382166104ac5760405163e6c4247b60e01b815260040160405180910390fd5b6001600160a01b0385166104d35760405163e6c4247b60e01b815260040160405180910390fd5b6001600160a01b0384166104fa5760405163e6c4247b60e01b815260040160405180910390fd5b600480546001600160a01b038088166001600160a01b0319928316179092556003805487841690831617905560058054868416908316179055600680549285169290911691909117905561056e7f503cf060389b91af8851125bd70ce66d16d12330718b103fc7674ef6d27e70c933611208565b5050505050565b6000805160206119c483398151915261058d81611177565b61059c8888888888888861126d565b6040518060c00160405280888152602001878152602001868152602001856001600160a01b03168152602001846001600160a01b03168152602001836001600160a01b0316815250600260008a815260200190815260200160002060008201518160000155602082015181600101556040820151816002015560608201518160030160006101000a8154816001600160a01b0302191690836001600160a01b0316021790555060808201518160040160006101000a8154816001600160a01b0302191690836001600160a01b0316021790555060a08201518160050160006101000a8154816001600160a01b0302191690836001600160a01b0316021790555090505087336001600160a01b03167f5348ea1904340e964d9091cfa5c4d28860f58c3d5030493a2a91aed33c8c594a8989898989896040516106e3969594939291906117d9565b60405180910390a35050505050505050565b6005546001600160a01b03163314610732576006546001600160a01b031633146107325760405163293f7ccf60e01b815260040160405180910390fd5b6000600260006107428585611386565b815260208082019290925260409081016000908120825160c081018452815480825260018301549582019590955260028201549381019390935260038101546001600160a01b0390811660608501526004820154811660808501526005909101541660a0830152909250906107b890849061143b565b905060006107ca84846020015161143b565b905060006107dc85856040015161143b565b90506000816107eb8486611826565b6107f59190611826565b905085811461081657806108098786611826565b6108139190611839565b93505b60608501516001600160a01b031615801561083c575060808501516001600160a01b0316155b8015610853575060a08501516001600160a01b0316155b1561087157604051634a29b9a360e11b815260040160405180910390fd5b6004546001600160a01b03168415801590610898575060608601516001600160a01b031615155b156109025760608601516040516316daab2160e01b81526001600160a01b038316916316daab21916108cf9190899060040161184c565b600060405180830381600087803b1580156108e957600080fd5b505af11580156108fd573d6000803e3d6000fd5b505050505b60008411801561091e575060808601516001600160a01b031615155b156109885760808601516040516316daab2160e01b81526001600160a01b038316916316daab21916109559190889060040161184c565b600060405180830381600087803b15801561096f57600080fd5b505af1158015610983573d6000803e3d6000fd5b505050505b6000831180156109a4575060a08601516001600160a01b031615155b15610a0e5760a08601516040516316daab2160e01b81526001600160a01b038316916316daab21916109db9190879060040161184c565b600060405180830381600087803b1580156109f557600080fd5b505af1158015610a09573d6000803e3d6000fd5b505050505b5050505050505050565b6000918252602082815260408084206001600160a01b0393909316845291905290205460ff1690565b6000805160206119c4833981519152610a5981611177565b610a688888888888888861126d565b6040518060c00160405280888152602001878152602001868152602001856001600160a01b03168152602001846001600160a01b03168152602001836001600160a01b0316815250600160008a815260200190815260200160002060008201518160000155602082015181600101556040820151816002015560608201518160030160006101000a8154816001600160a01b0302191690836001600160a01b0316021790555060808201518160040160006101000a8154816001600160a01b0302191690836001600160a01b0316021790555060a08201518160050160006101000a8154816001600160a01b0302191690836001600160a01b0316021790555090505087336001600160a01b03167fbc99ed43606ac935e4dc17dab93250c9bd493b5160a7e3b7bf0a96a3c39613098989898989896040516106e3969594939291906117d9565b600082815260208190526040902060010154610bca81611177565b6103ac8383611208565b6000805160206119c4833981519152610bec81611177565b610bfb8888888888888861126d565b6040518060c00160405280888152602001878152602001868152602001856001600160a01b03168152602001846001600160a01b03168152602001836001600160a01b0316815250600160008a815260200190815260200160002060008201518160000155602082015181600101556040820151816002015560608201518160030160006101000a8154816001600160a01b0302191690836001600160a01b0316021790555060808201518160040160006101000a8154816001600160a01b0302191690836001600160a01b0316021790555060a08201518160050160006101000a8154816001600160a01b0302191690836001600160a01b031602179055509050506040518060c00160405280888152602001878152602001868152602001856001600160a01b03168152602001846001600160a01b03168152602001836001600160a01b0316815250600260008a815260200190815260200160002060008201518160000155602082015181600101556040820151816002015560608201518160030160006101000a8154816001600160a01b0302191690836001600160a01b0316021790555060808201518160040160006101000a8154816001600160a01b0302191690836001600160a01b0316021790555060a08201518160050160006101000a8154816001600160a01b0302191690836001600160a01b0316021790555090505087336001600160a01b03167fbc99ed43606ac935e4dc17dab93250c9bd493b5160a7e3b7bf0a96a3c3961309898989898989604051610e45969594939291906117d9565b60405180910390a387336001600160a01b03167f5348ea1904340e964d9091cfa5c4d28860f58c3d5030493a2a91aed33c8c594a8989898989896040516106e3969594939291906117d9565b6005546001600160a01b03163314610ece576006546001600160a01b03163314610ece5760405163293f7ccf60e01b815260040160405180910390fd5b600060016000610ede8585611386565b815260208082019290925260409081016000908120825160c081018452815480825260018301549582019590955260028201549381019390935260038101546001600160a01b0390811660608501526004820154811660808501526005909101541660a083015290925090610f5490849061143b565b90506000610f6684846020015161143b565b90506000610f7885856040015161143b565b9050600081610f878486611826565b610f919190611826565b9050858114610fb25780610fa58786611826565b610faf9190611839565b93505b60608501516001600160a01b0316158015610fd8575060808501516001600160a01b0316155b8015610fef575060a08501516001600160a01b0316155b1561100d57604051634a29b9a360e11b815260040160405180910390fd5b6003546001600160a01b03168415801590611034575060608601516001600160a01b031615155b1561109e5760608601516040516340c10f1960e01b81526001600160a01b038316916340c10f199161106b9190899060040161184c565b600060405180830381600087803b15801561108557600080fd5b505af1158015611099573d6000803e3d6000fd5b505050505b6000841180156110ba575060808601516001600160a01b031615155b156111245760808601516040516340c10f1960e01b81526001600160a01b038316916340c10f19916110f19190889060040161184c565b600060405180830381600087803b15801561110b57600080fd5b505af115801561111f573d6000803e3d6000fd5b505050505b600083118015611140575060a08601516001600160a01b031615155b15610a0e5760a08601516040516340c10f1960e01b81526001600160a01b038316916340c10f19916109db9190879060040161184c565b611181813361145a565b50565b61118e8282610a18565b610430576000828152602081815260408083206001600160a01b03851684529091529020805460ff191660011790556111c43390565b6001600160a01b0316816001600160a01b0316837f2f8788117e7eff1d82e926ec794901d17c78024a50270940304540a733656f0d60405160405180910390a45050565b6112128282610a18565b15610430576000828152602081815260408083206001600160a01b0385168085529252808320805460ff1916905551339285917ff6391f5c32d9c69d2a47ea670b442974b53935d1edc7fd64eb21e047a839171b9190a45050565b61127860058861187b565b15611296576040516363df817160e01b815260040160405180910390fd5b6001600160a01b0383166112bd5760405163e6c4247b60e01b815260040160405180910390fd5b856000036112de5760405163b4fa3fb360e01b815260040160405180910390fd5b6000851180156112f557506001600160a01b038216155b156113135760405163b4fa3fb360e01b815260040160405180910390fd5b60008411801561132a57506001600160a01b038116155b156113485760405163b4fa3fb360e01b815260040160405180910390fd5b836113538688611826565b61135d9190611826565b60641461137d5760405163b4fa3fb360e01b815260040160405180910390fd5b50505050505050565b600060038361139684606461188f565b6113a091906118a6565b1080156113c257506000836113b684606461188f565b6113c091906118a6565b115b156113cf57506005610381565b60036005846113df85606461188f565b6113e991906118a6565b6113f3919061187b565b6113fd91906118a6565b60058461140b85606461188f565b61141591906118a6565b61141f91906118a6565b6114299190611826565b61143490600561188f565b9050610381565b60006064611449838561188f565b61145391906118a6565b9392505050565b6114648282610a18565b61043057611471816114b3565b61147c8360206114c5565b60405160200161148d9291906118de565b60408051601f198184030181529082905262461bcd60e51b825261041d9160040161194d565b60606103816001600160a01b03831660145b606060006114d483600261188f565b6114df906002611826565b67ffffffffffffffff8111156114f7576114f7611980565b6040519080825280601f01601f191660200182016040528015611521576020820181803683370190505b509050600360fc1b8160008151811061153c5761153c611996565b60200101906001600160f81b031916908160001a905350600f60fb1b8160018151811061156b5761156b611996565b60200101906001600160f81b031916908160001a905350600061158f84600261188f565b61159a906001611826565b90505b6001811115611612576f181899199a1a9b1b9c1cb0b131b232b360811b85600f16601081106115ce576115ce611996565b1a60f81b8282815181106115e4576115e4611996565b60200101906001600160f81b031916908160001a90535060049490941c9361160b816119ac565b905061159d565b5083156114535760405162461bcd60e51b815260206004820181905260248201527f537472696e67733a20686578206c656e67746820696e73756666696369656e74604482015260640161041d565b60006020828403121561167357600080fd5b81356001600160e01b03198116811461145357600080fd5b60006020828403121561169d57600080fd5b5035919050565b6001600160a01b038116811461118157600080fd5b600080604083850312156116cc57600080fd5b8235915060208301356116de816116a4565b809150509250929050565b600080600080608085870312156116ff57600080fd5b843561170a816116a4565b9350602085013561171a816116a4565b9250604085013561172a816116a4565b9150606085013561173a816116a4565b939692955090935050565b600080600080600080600060e0888a03121561176057600080fd5b873596506020880135955060408801359450606088013593506080880135611787816116a4565b925060a0880135611797816116a4565b915060c08801356117a7816116a4565b8091505092959891949750929550565b600080604083850312156117ca57600080fd5b50508035926020909101359150565b958652602086019490945260408501929092526001600160a01b03908116606085015290811660808401521660a082015260c00190565b634e487b7160e01b600052601160045260246000fd5b8082018082111561038157610381611810565b8181038181111561038157610381611810565b6001600160a01b03929092168252602082015260400190565b634e487b7160e01b600052601260045260246000fd5b60008261188a5761188a611865565b500690565b808202811582820484141761038157610381611810565b6000826118b5576118b5611865565b500490565b60005b838110156118d55781810151838201526020016118bd565b50506000910152565b76020b1b1b2b9b9a1b7b73a3937b61d1030b1b1b7bab73a1604d1b8152600083516119108160178501602088016118ba565b7001034b99036b4b9b9b4b733903937b6329607d1b60179184019182015283516119418160288401602088016118ba565b01602801949350505050565b602081526000825180602084015261196c8160408501602087016118ba565b601f01601f19169190910160400192915050565b634e487b7160e01b600052604160045260246000fd5b634e487b7160e01b600052603260045260246000fd5b6000816119bb576119bb611810565b50600019019056fe8e4f01b2ef10e587f670bbfd448bba9a57a36fd9c81549b587269120cb62b24da2646970667358221220a0ced16c287ce777ad08cbea67cf3653588a3ed059f4609b05502cc5947b830c64736f6c634300081300338e4f01b2ef10e587f670bbfd448bba9a57a36fd9c81549b587269120cb62b24d6ce44ac19daa541a3cad4667c612cff8964428a20ce88eca8a6022803dbffc32",
  "devdoc": {
    "events": {
      "RoleAdminChanged(bytes32,bytes32,bytes32)": {
        "details": "Emitted when `newAdminRole` is set as ``role``'s admin role, replacing `previousAdminRole` `DEFAULT_ADMIN_ROLE` is the starting admin for all roles, despite {RoleAdminChanged} not being emitted signaling this. _Available since v3.1._"
      },
      "RoleGranted(bytes32,address,address)": {
        "details": "Emitted when `account` is granted `role`. `sender` is the account that originated the contract call, an admin role bearer except when using {AccessControl-_setupRole}."
      },
      "RoleRevoked(bytes32,address,address)": {
        "details": "Emitted when `account` is revoked `role`. `sender` is the account that originated the contract call:   - if using `revokeRole`, it is the admin role bearer   - if using `renounceRole`, it is the role bearer (i.e. `account`)"
      }
    },
    "kind": "dev",
    "methods": {
      "distributeCollFee(uint256,uint256)": {
        "params": {
          "_coll": "amount of BFE tokens that user receives in the event of succesful borrowing op",
          "_fee": "amount of fee that user is getting cut with in the event of succseful borrowing op Distributes fees that are coming in WstETH according to the config set by an admin. During the execution it is calculated the % that _fee is of _debt to find an appropriate config routing"
        }
      },
      "distributeDebtFee(uint256,uint256)": {
        "params": {
          "_debt": "amount of BFE tokens that user receives in the event of succesful borrowing op",
          "_fee": "amount of fee that user is getting cut with in the event of succseful borrowing op Distributes fees that are coming in BFEE according to the config set by an admin. During the execution it is calculated the % that _fee is of _debt to find an appropriate config routing"
        }
      },
      "getRoleAdmin(bytes32)": {
        "details": "Returns the admin role that controls `role`. See {grantRole} and {revokeRole}. To change a role's admin, use {_setRoleAdmin}."
      },
      "grantRole(bytes32,address)": {
        "details": "Grants `role` to `account`. If `account` had not been already granted `role`, emits a {RoleGranted} event. Requirements: - the caller must have ``role``'s admin role. May emit a {RoleGranted} event."
      },
      "hasRole(bytes32,address)": {
        "details": "Returns `true` if `account` has been granted `role`."
      },
      "renounceRole(bytes32,address)": {
        "details": "Revokes `role` from the calling account. Roles are often managed via {grantRole} and {revokeRole}: this function's purpose is to provide a mechanism for accounts to lose their privileges if they are compromised (such as when a trusted device is misplaced). If the calling account had been revoked `role`, emits a {RoleRevoked} event. Requirements: - the caller must be `account`. May emit a {RoleRevoked} event."
      },
      "revokeRole(bytes32,address)": {
        "details": "Revokes `role` from `account`. If `account` had been granted `role`, emits a {RoleRevoked} event. Requirements: - the caller must have ``role``'s admin role. May emit a {RoleRevoked} event."
      },
      "setCollFeeConfig(uint256,uint256,uint256,uint256,address,address,address)": {
        "params": {
          "_addressA": "_addressA that receives tokens in the event of tx fee appears in _percentage range. Can't be an address(0)",
          "_addressB": "_addressB that receives tokens in the event of tx fee appears in _percentage range. Set to address(0) to skip",
          "_addressC": "_addressC that receives tokens in the event of tx fee appears in _percentage range. Set to address(0) to skip",
          "_amountA": "amount of tokens that _addressA is going to receive in the event of tx fee appears in _percentage range. Must be > 0",
          "_amountB": "amount of tokens that _addressB is going to receive in the event of tx fee appears in _percentage range. Set to 0 to skip",
          "_amountC": "amount of tokens that _addressC is going to receive in the event of tx fee appears in _percentage range Set to 0 to skip",
          "_percentage": "range at which new config is valid"
        }
      },
      "setDebtFeeConfig(uint256,uint256,uint256,uint256,address,address,address)": {
        "params": {
          "_addressA": "_addressA that receives tokens in the event of tx fee appears in _percentage range. Can't be an address(0)",
          "_addressB": "_addressB that receives tokens in the event of tx fee appears in _percentage range. Set to address(0) to skip",
          "_addressC": "_addressC that receives tokens in the event of tx fee appears in _percentage range. Set to address(0) to skip",
          "_amountA": "amount of tokens that _addressA is going to receive in the event of tx fee appears in _percentage range. Must be > 0",
          "_amountB": "amount of tokens that _addressB is going to receive in the event of tx fee appears in _percentage range. Set to 0 to skip",
          "_amountC": "amount of tokens that _addressC is going to receive in the event of tx fee appears in _percentage range Set to 0 to skip",
          "_percentage": "range at which new config is valid"
        }
      },
      "setFeeConfigs(uint256,uint256,uint256,uint256,address,address,address)": {
        "params": {
          "_addressA": "_addressA that receives tokens in the event of tx fee appears in _percentage range. Can't be an address(0)",
          "_addressB": "_addressB that receives tokens in the event of tx fee appears in _percentage range. Set to address(0) to skip",
          "_addressC": "_addressC that receives tokens in the event of tx fee appears in _percentage range. Set to address(0) to skip",
          "_amountA": "amount of tokens that _addressA is going to receive in the event of tx fee appears in _percentage range. Must be > 0",
          "_amountB": "amount of tokens that _addressB is going to receive in the event of tx fee appears in _percentage range. Set to 0 to skip",
          "_amountC": "amount of tokens that _addressC is going to receive in the event of tx fee appears in _percentage range Set to 0 to skip",
          "_percentage": "range at which new config is valid"
        }
      },
      "supportsInterface(bytes4)": {
        "details": "See {IERC165-supportsInterface}."
      }
    },
    "version": 1
  },
  "userdoc": {
    "kind": "user",
    "methods": {
      "setAddresses(address,address,address,address)": {
        "notice": "An initialiser function where HDG protocol address are getting set"
      },
      "setCollFeeConfig(uint256,uint256,uint256,uint256,address,address,address)": {
        "notice": "Sets coll fees configs. Should be used if routing logic is unique for WStETH token fees. Only callable by an admin"
      },
      "setDebtFeeConfig(uint256,uint256,uint256,uint256,address,address,address)": {
        "notice": "Sets debt fees configs. Should be used if routing logic is unique for BFE token fees. Only callable by an admin"
      },
      "setFeeConfigs(uint256,uint256,uint256,uint256,address,address,address)": {
        "notice": "Sets both debt and coll fees configs. Should be used if routing logic is the same for both procesesses. Only callable by an admin"
      }
    },
    "notice": "HEDGEHOG UPDATES:Completely new contract in Hedgehog Protocol, that was never a part of Liquity Protocol Accepts fees and routes it to different places(or a single one) assigned by the account with \"SETTER\" rights Contract overall is a config of addresses assigned for each 5% range from 0 to 100.",
    "version": 1
  },
  "storageLayout": {
    "storage": [
      {
        "astId": 24,
        "contract": "contracts/FeesRouter.sol:FeesRouter",
        "label": "_roles",
        "offset": 0,
        "slot": "0",
        "type": "t_mapping(t_bytes32,t_struct(RoleData)19_storage)"
      },
      {
        "astId": 6530,
        "contract": "contracts/FeesRouter.sol:FeesRouter",
        "label": "debtFeeConfigs",
        "offset": 0,
        "slot": "1",
        "type": "t_mapping(t_uint256,t_struct(FeeConfig)6525_storage)"
      },
      {
        "astId": 6535,
        "contract": "contracts/FeesRouter.sol:FeesRouter",
        "label": "collFeeConfigs",
        "offset": 0,
        "slot": "2",
        "type": "t_mapping(t_uint256,t_struct(FeeConfig)6525_storage)"
      },
      {
        "astId": 6538,
        "contract": "contracts/FeesRouter.sol:FeesRouter",
        "label": "baseFeeLMAToken",
        "offset": 0,
        "slot": "3",
        "type": "t_contract(IBaseFeeLMAToken)23317"
      },
      {
        "astId": 6541,
        "contract": "contracts/FeesRouter.sol:FeesRouter",
        "label": "activePool",
        "offset": 0,
        "slot": "4",
        "type": "t_contract(IActivePool)23259"
      },
      {
        "astId": 6543,
        "contract": "contracts/FeesRouter.sol:FeesRouter",
        "label": "borrowersOp",
        "offset": 0,
        "slot": "5",
        "type": "t_address"
      },
      {
        "astId": 6545,
        "contract": "contracts/FeesRouter.sol:FeesRouter",
        "label": "troveManager",
        "offset": 0,
        "slot": "6",
        "type": "t_address"
      }
    ],
    "types": {
      "t_address": {
        "encoding": "inplace",
        "label": "address",
        "numberOfBytes": "20"
      },
      "t_bool": {
        "encoding": "inplace",
        "label": "bool",
        "numberOfBytes": "1"
      },
      "t_bytes32": {
        "encoding": "inplace",
        "label": "bytes32",
        "numberOfBytes": "32"
      },
      "t_contract(IActivePool)23259": {
        "encoding": "inplace",
        "label": "contract IActivePool",
        "numberOfBytes": "20"
      },
      "t_contract(IBaseFeeLMAToken)23317": {
        "encoding": "inplace",
        "label": "contract IBaseFeeLMAToken",
        "numberOfBytes": "20"
      },
      "t_mapping(t_address,t_bool)": {
        "encoding": "mapping",
        "key": "t_address",
        "label": "mapping(address => bool)",
        "numberOfBytes": "32",
        "value": "t_bool"
      },
      "t_mapping(t_bytes32,t_struct(RoleData)19_storage)": {
        "encoding": "mapping",
        "key": "t_bytes32",
        "label": "mapping(bytes32 => struct AccessControl.RoleData)",
        "numberOfBytes": "32",
        "value": "t_struct(RoleData)19_storage"
      },
      "t_mapping(t_uint256,t_struct(FeeConfig)6525_storage)": {
        "encoding": "mapping",
        "key": "t_uint256",
        "label": "mapping(uint256 => struct FeesRouter.FeeConfig)",
        "numberOfBytes": "32",
        "value": "t_struct(FeeConfig)6525_storage"
      },
      "t_struct(FeeConfig)6525_storage": {
        "encoding": "inplace",
        "label": "struct FeesRouter.FeeConfig",
        "members": [
          {
            "astId": 6514,
            "contract": "contracts/FeesRouter.sol:FeesRouter",
            "label": "amountA",
            "offset": 0,
            "slot": "0",
            "type": "t_uint256"
          },
          {
            "astId": 6516,
            "contract": "contracts/FeesRouter.sol:FeesRouter",
            "label": "amountB",
            "offset": 0,
            "slot": "1",
            "type": "t_uint256"
          },
          {
            "astId": 6518,
            "contract": "contracts/FeesRouter.sol:FeesRouter",
            "label": "amountC",
            "offset": 0,
            "slot": "2",
            "type": "t_uint256"
          },
          {
            "astId": 6520,
            "contract": "contracts/FeesRouter.sol:FeesRouter",
            "label": "addressA",
            "offset": 0,
            "slot": "3",
            "type": "t_address"
          },
          {
            "astId": 6522,
            "contract": "contracts/FeesRouter.sol:FeesRouter",
            "label": "addressB",
            "offset": 0,
            "slot": "4",
            "type": "t_address"
          },
          {
            "astId": 6524,
            "contract": "contracts/FeesRouter.sol:FeesRouter",
            "label": "addressC",
            "offset": 0,
            "slot": "5",
            "type": "t_address"
          }
        ],
        "numberOfBytes": "192"
      },
      "t_struct(RoleData)19_storage": {
        "encoding": "inplace",
        "label": "struct AccessControl.RoleData",
        "members": [
          {
            "astId": 16,
            "contract": "contracts/FeesRouter.sol:FeesRouter",
            "label": "members",
            "offset": 0,
            "slot": "0",
            "type": "t_mapping(t_address,t_bool)"
          },
          {
            "astId": 18,
            "contract": "contracts/FeesRouter.sol:FeesRouter",
            "label": "adminRole",
            "offset": 0,
            "slot": "1",
            "type": "t_bytes32"
          }
        ],
        "numberOfBytes": "64"
      },
      "t_uint256": {
        "encoding": "inplace",
        "label": "uint256",
        "numberOfBytes": "32"
      }
    }
  }
}