{
  "address": "0x640FdA5fFc1a0472aB87aAAEaed6fb2932f8E1B8",
  "abi": [
    {
      "anonymous": false,
      "inputs": [
        {
          "indexed": false,
          "internalType": "address",
          "name": "_activePoolAddress",
          "type": "address"
        }
      ],
      "name": "ActivePoolAddressChanged",
      "type": "event"
    },
    {
      "anonymous": false,
      "inputs": [
        {
          "indexed": true,
          "internalType": "address",
          "name": "_borrower",
          "type": "address"
        },
        {
          "indexed": false,
          "internalType": "uint256",
          "name": "_BaseFeeLMAFee",
          "type": "uint256"
        }
      ],
      "name": "BaseFeeLMABorrowingFeePaid",
      "type": "event"
    },
    {
      "anonymous": false,
      "inputs": [
        {
          "indexed": false,
          "internalType": "address",
          "name": "_BaseFeeLMATokenAddress",
          "type": "address"
        }
      ],
      "name": "BaseFeeLMATokenAddressChanged",
      "type": "event"
    },
    {
      "anonymous": false,
      "inputs": [
        {
          "indexed": false,
          "internalType": "address",
          "name": "_collSurplusPoolAddress",
          "type": "address"
        }
      ],
      "name": "CollSurplusPoolAddressChanged",
      "type": "event"
    },
    {
      "anonymous": false,
      "inputs": [
        {
          "indexed": false,
          "internalType": "address",
          "name": "_defaultPoolAddress",
          "type": "address"
        }
      ],
      "name": "DefaultPoolAddressChanged",
      "type": "event"
    },
    {
      "anonymous": false,
      "inputs": [
        {
          "indexed": false,
          "internalType": "address",
          "name": "_gasPoolAddress",
          "type": "address"
        }
      ],
      "name": "GasPoolAddressChanged",
      "type": "event"
    },
    {
      "anonymous": false,
      "inputs": [
        {
          "indexed": false,
          "internalType": "address",
          "name": "_hogStakingAddress",
          "type": "address"
        }
      ],
      "name": "HOGStakingAddressChanged",
      "type": "event"
    },
    {
      "anonymous": false,
      "inputs": [
        {
          "indexed": true,
          "internalType": "address",
          "name": "previousOwner",
          "type": "address"
        },
        {
          "indexed": true,
          "internalType": "address",
          "name": "newOwner",
          "type": "address"
        }
      ],
      "name": "OwnershipTransferred",
      "type": "event"
    },
    {
      "anonymous": false,
      "inputs": [
        {
          "indexed": false,
          "internalType": "address",
          "name": "_newPriceFeedAddress",
          "type": "address"
        }
      ],
      "name": "PriceFeedAddressChanged",
      "type": "event"
    },
    {
      "anonymous": false,
      "inputs": [
        {
          "indexed": false,
          "internalType": "address",
          "name": "_sortedTrovesAddress",
          "type": "address"
        }
      ],
      "name": "SortedTrovesAddressChanged",
      "type": "event"
    },
    {
      "anonymous": false,
      "inputs": [
        {
          "indexed": false,
          "internalType": "contract IERC20",
          "name": "_StEthAddress",
          "type": "address"
        }
      ],
      "name": "StETHTokenAddressUpdated",
      "type": "event"
    },
    {
      "anonymous": false,
      "inputs": [
        {
          "indexed": false,
          "internalType": "address",
          "name": "_stabilityPoolAddress",
          "type": "address"
        }
      ],
      "name": "StabilityPoolAddressChanged",
      "type": "event"
    },
    {
      "anonymous": false,
      "inputs": [
        {
          "indexed": true,
          "internalType": "address",
          "name": "_borrower",
          "type": "address"
        },
        {
          "indexed": false,
          "internalType": "uint256",
          "name": "arrayIndex",
          "type": "uint256"
        }
      ],
      "name": "TroveCreated",
      "type": "event"
    },
    {
      "anonymous": false,
      "inputs": [
        {
          "indexed": false,
          "internalType": "address",
          "name": "_newTroveManagerAddress",
          "type": "address"
        }
      ],
      "name": "TroveManagerAddressChanged",
      "type": "event"
    },
    {
      "anonymous": false,
      "inputs": [
        {
          "indexed": true,
          "internalType": "address",
          "name": "_borrower",
          "type": "address"
        },
        {
          "indexed": false,
          "internalType": "uint256",
          "name": "_debt",
          "type": "uint256"
        },
        {
          "indexed": false,
          "internalType": "uint256",
          "name": "_coll",
          "type": "uint256"
        },
        {
          "indexed": false,
          "internalType": "uint256",
          "name": "stake",
          "type": "uint256"
        },
        {
          "indexed": false,
          "internalType": "enum BorrowerOperations.BorrowerOperation",
          "name": "operation",
          "type": "uint8"
        }
      ],
      "name": "TroveUpdated",
      "type": "event"
    },
    {
      "inputs": [],
      "name": "BORROWING_FEE_FLOOR",
      "outputs": [
        {
          "internalType": "uint256",
          "name": "",
          "type": "uint256"
        }
      ],
      "stateMutability": "view",
      "type": "function"
    },
    {
      "inputs": [],
      "name": "BaseFeeLMA_GAS_COMPENSATION",
      "outputs": [
        {
          "internalType": "uint256",
          "name": "",
          "type": "uint256"
        }
      ],
      "stateMutability": "view",
      "type": "function"
    },
    {
      "inputs": [],
      "name": "CCR",
      "outputs": [
        {
          "internalType": "uint256",
          "name": "",
          "type": "uint256"
        }
      ],
      "stateMutability": "view",
      "type": "function"
    },
    {
      "inputs": [],
      "name": "DECIMAL_PRECISION",
      "outputs": [
        {
          "internalType": "uint256",
          "name": "",
          "type": "uint256"
        }
      ],
      "stateMutability": "view",
      "type": "function"
    },
    {
      "inputs": [],
      "name": "MCR",
      "outputs": [
        {
          "internalType": "uint256",
          "name": "",
          "type": "uint256"
        }
      ],
      "stateMutability": "view",
      "type": "function"
    },
    {
      "inputs": [],
      "name": "MIN_NET_DEBT",
      "outputs": [
        {
          "internalType": "uint256",
          "name": "",
          "type": "uint256"
        }
      ],
      "stateMutability": "view",
      "type": "function"
    },
    {
      "inputs": [],
      "name": "NAME",
      "outputs": [
        {
          "internalType": "string",
          "name": "",
          "type": "string"
        }
      ],
      "stateMutability": "view",
      "type": "function"
    },
    {
      "inputs": [],
      "name": "PERCENT_DIVISOR",
      "outputs": [
        {
          "internalType": "uint256",
          "name": "",
          "type": "uint256"
        }
      ],
      "stateMutability": "view",
      "type": "function"
    },
    {
      "inputs": [],
      "name": "_100pct",
      "outputs": [
        {
          "internalType": "uint256",
          "name": "",
          "type": "uint256"
        }
      ],
      "stateMutability": "view",
      "type": "function"
    },
    {
      "inputs": [],
      "name": "activePool",
      "outputs": [
        {
          "internalType": "contract IActivePool",
          "name": "",
          "type": "address"
        }
      ],
      "stateMutability": "view",
      "type": "function"
    },
    {
      "inputs": [
        {
          "internalType": "address",
          "name": "_upperHint",
          "type": "address"
        },
        {
          "internalType": "address",
          "name": "_lowerHint",
          "type": "address"
        },
        {
          "internalType": "uint256",
          "name": "_amount",
          "type": "uint256"
        }
      ],
      "name": "addColl",
      "outputs": [],
      "stateMutability": "nonpayable",
      "type": "function"
    },
    {
      "inputs": [
        {
          "internalType": "uint256",
          "name": "_maxFeePercentage",
          "type": "uint256"
        },
        {
          "internalType": "uint256",
          "name": "_collWithdrawal",
          "type": "uint256"
        },
        {
          "internalType": "uint256",
          "name": "_collIncrease",
          "type": "uint256"
        },
        {
          "internalType": "uint256",
          "name": "_BaseFeeLMAChange",
          "type": "uint256"
        },
        {
          "internalType": "bool",
          "name": "_isDebtIncrease",
          "type": "bool"
        },
        {
          "internalType": "address",
          "name": "_upperHint",
          "type": "address"
        },
        {
          "internalType": "address",
          "name": "_lowerHint",
          "type": "address"
        }
      ],
      "name": "adjustTrove",
      "outputs": [],
      "stateMutability": "nonpayable",
      "type": "function"
    },
    {
      "inputs": [],
      "name": "claimCollateral",
      "outputs": [],
      "stateMutability": "nonpayable",
      "type": "function"
    },
    {
      "inputs": [],
      "name": "closeTrove",
      "outputs": [],
      "stateMutability": "nonpayable",
      "type": "function"
    },
    {
      "inputs": [
        {
          "internalType": "uint256",
          "name": "_coll",
          "type": "uint256"
        },
        {
          "internalType": "uint256",
          "name": "_debt",
          "type": "uint256"
        }
      ],
      "name": "computeUnreliableCR",
      "outputs": [
        {
          "internalType": "uint256",
          "name": "",
          "type": "uint256"
        }
      ],
      "stateMutability": "view",
      "type": "function"
    },
    {
      "inputs": [],
      "name": "defaultPool",
      "outputs": [
        {
          "internalType": "contract IDefaultPool",
          "name": "",
          "type": "address"
        }
      ],
      "stateMutability": "view",
      "type": "function"
    },
    {
      "inputs": [
        {
          "internalType": "uint256",
          "name": "_debt",
          "type": "uint256"
        }
      ],
      "name": "getCompositeDebt",
      "outputs": [
        {
          "internalType": "uint256",
          "name": "",
          "type": "uint256"
        }
      ],
      "stateMutability": "pure",
      "type": "function"
    },
    {
      "inputs": [],
      "name": "getEntireSystemColl",
      "outputs": [
        {
          "internalType": "uint256",
          "name": "entireSystemColl",
          "type": "uint256"
        }
      ],
      "stateMutability": "view",
      "type": "function"
    },
    {
      "inputs": [],
      "name": "getEntireSystemDebt",
      "outputs": [
        {
          "internalType": "uint256",
          "name": "entireSystemDebt",
          "type": "uint256"
        }
      ],
      "stateMutability": "view",
      "type": "function"
    },
    {
      "inputs": [],
      "name": "hogStaking",
      "outputs": [
        {
          "internalType": "contract IHOGStaking",
          "name": "",
          "type": "address"
        }
      ],
      "stateMutability": "view",
      "type": "function"
    },
    {
      "inputs": [],
      "name": "hogStakingAddress",
      "outputs": [
        {
          "internalType": "address",
          "name": "",
          "type": "address"
        }
      ],
      "stateMutability": "view",
      "type": "function"
    },
    {
      "inputs": [
        {
          "internalType": "address",
          "name": "_borrower",
          "type": "address"
        },
        {
          "internalType": "address",
          "name": "_upperHint",
          "type": "address"
        },
        {
          "internalType": "address",
          "name": "_lowerHint",
          "type": "address"
        },
        {
          "internalType": "uint256",
          "name": "_amount",
          "type": "uint256"
        }
      ],
      "name": "moveStETHGainToTrove",
      "outputs": [],
      "stateMutability": "nonpayable",
      "type": "function"
    },
    {
      "inputs": [
        {
          "internalType": "uint256",
          "name": "_maxFeePercentage",
          "type": "uint256"
        },
        {
          "internalType": "uint256",
          "name": "_BaseFeeLMAAmount",
          "type": "uint256"
        },
        {
          "internalType": "uint256",
          "name": "_collAmount",
          "type": "uint256"
        },
        {
          "internalType": "address",
          "name": "_upperHint",
          "type": "address"
        },
        {
          "internalType": "address",
          "name": "_lowerHint",
          "type": "address"
        }
      ],
      "name": "openTrove",
      "outputs": [],
      "stateMutability": "nonpayable",
      "type": "function"
    },
    {
      "inputs": [],
      "name": "owner",
      "outputs": [
        {
          "internalType": "address",
          "name": "",
          "type": "address"
        }
      ],
      "stateMutability": "view",
      "type": "function"
    },
    {
      "inputs": [],
      "name": "priceFeed",
      "outputs": [
        {
          "internalType": "contract IPriceFeed",
          "name": "",
          "type": "address"
        }
      ],
      "stateMutability": "view",
      "type": "function"
    },
    {
      "inputs": [],
      "name": "renounceOwnership",
      "outputs": [],
      "stateMutability": "nonpayable",
      "type": "function"
    },
    {
      "inputs": [
        {
          "internalType": "uint256",
          "name": "_BaseFeeLMAAmount",
          "type": "uint256"
        },
        {
          "internalType": "address",
          "name": "_upperHint",
          "type": "address"
        },
        {
          "internalType": "address",
          "name": "_lowerHint",
          "type": "address"
        }
      ],
      "name": "repayBaseFeeLMA",
      "outputs": [],
      "stateMutability": "nonpayable",
      "type": "function"
    },
    {
      "inputs": [
        {
          "internalType": "address",
          "name": "_troveManagerAddress",
          "type": "address"
        },
        {
          "internalType": "address",
          "name": "_activePoolAddress",
          "type": "address"
        },
        {
          "internalType": "address",
          "name": "_defaultPoolAddress",
          "type": "address"
        },
        {
          "internalType": "address",
          "name": "_stabilityPoolAddress",
          "type": "address"
        },
        {
          "internalType": "address",
          "name": "_gasPoolAddress",
          "type": "address"
        },
        {
          "internalType": "address",
          "name": "_collSurplusPoolAddress",
          "type": "address"
        },
        {
          "internalType": "address",
          "name": "_priceFeedAddress",
          "type": "address"
        },
        {
          "internalType": "address",
          "name": "_sortedTrovesAddress",
          "type": "address"
        },
        {
          "internalType": "address",
          "name": "_baseFeeLMATokenAddress",
          "type": "address"
        },
        {
          "internalType": "address",
          "name": "_hogStakingAddress",
          "type": "address"
        },
        {
          "internalType": "contract IERC20",
          "name": "_stETHTokenAddress",
          "type": "address"
        }
      ],
      "name": "setAddresses",
      "outputs": [],
      "stateMutability": "nonpayable",
      "type": "function"
    },
    {
      "inputs": [],
      "name": "sortedTroves",
      "outputs": [
        {
          "internalType": "contract ISortedTroves",
          "name": "",
          "type": "address"
        }
      ],
      "stateMutability": "view",
      "type": "function"
    },
    {
      "inputs": [
        {
          "internalType": "address",
          "name": "newOwner",
          "type": "address"
        }
      ],
      "name": "transferOwnership",
      "outputs": [],
      "stateMutability": "nonpayable",
      "type": "function"
    },
    {
      "inputs": [],
      "name": "troveManager",
      "outputs": [
        {
          "internalType": "contract ITroveManager",
          "name": "",
          "type": "address"
        }
      ],
      "stateMutability": "view",
      "type": "function"
    },
    {
      "inputs": [
        {
          "internalType": "uint256",
          "name": "_maxFeePercentage",
          "type": "uint256"
        },
        {
          "internalType": "uint256",
          "name": "_BaseFeeLMAAmount",
          "type": "uint256"
        },
        {
          "internalType": "address",
          "name": "_upperHint",
          "type": "address"
        },
        {
          "internalType": "address",
          "name": "_lowerHint",
          "type": "address"
        }
      ],
      "name": "withdrawBaseFeeLMA",
      "outputs": [],
      "stateMutability": "nonpayable",
      "type": "function"
    },
    {
      "inputs": [
        {
          "internalType": "uint256",
          "name": "_collWithdrawal",
          "type": "uint256"
        },
        {
          "internalType": "address",
          "name": "_upperHint",
          "type": "address"
        },
        {
          "internalType": "address",
          "name": "_lowerHint",
          "type": "address"
        }
      ],
      "name": "withdrawColl",
      "outputs": [],
      "stateMutability": "nonpayable",
      "type": "function"
    }
  ],
  "transactionHash": "0x6ebcb8d985b15e0a366a985de9deea6073afb5048669a882182cc455b06d86d3",
  "args": [],
  "numDeployments": 1,
  "solcInputHash": "41b900fed173af6ef497847657c9cc3e",
  "bytecode": "0x60806040523480156200001157600080fd5b506200001d3362000023565b62000075565b600380546001600160a01b038381166001600160a01b0319831681179093556040519116919082907f8be0079c531659141344cd1fd0a4f28419497f9722a3daafe3b4186f6b6457e090600090a35050565b6138f180620000856000396000f3fe608060405234801561001057600080fd5b50600436106101bb5760003560e01c8063794e5724116100fa578063a20141521161009d578063a201415214610340578063a20baee6146102b1578063a3f4df7e14610349578063ae91875414610387578063aead9dcc1461039a578063b8a106da146103ad578063f2fde38b146103c0578063f633e743146103d3578063f92d3433146103e657600080fd5b8063794e57241461026c578063795d26c3146102d35780637985c5e4146102db5780637e88d408146102ee5780637f7dde4a14610301578063887105d3146103145780638da5cb5b1461031c5780638f09162b1461032d57600080fd5b80635530273c116101625780635530273c146102595780635733d58f1461026c5780635da8b1c31461027b578063681212311461028e5780636f0b0c1c146102a1578063715018a6146102a957806372fe25aa146102b1578063741bef1a146102c057600080fd5b80630e704d50146101c057806317138bdb146101ca5780631bf43555146101f05780633cc74225146101f85780633d83908a1461021857806347a6e7131461022b5780634870dd9a1461023e5780634ff8144314610246575b600080fd5b6101c86103ee565b005b6101dd6101d83660046132e7565b61078f565b6040519081526020015b60405180910390f35b6101dd600181565b60015461020b906001600160a01b031681565b6040516101e79190613309565b60045461020b906001600160a01b031681565b6101c8610239366004613342565b610820565b6101dd60c881565b6101dd610254366004613384565b610838565b6101c8610267366004613342565b610843565b6101dd6714d1120d7b16000081565b6101c86102893660046133ab565b610856565b6101c861029c36600461341d565b61086f565b6101c86108b9565b6101c8610917565b6101dd670de0b6b3a764000081565b60025461020b906001600160a01b031681565b6101dd61092b565b6101c86102e936600461346e565b610a27565b6101c86102fc36600461354c565b610da4565b60005461020b906001600160a01b031681565b6101dd610dd7565b6003546001600160a01b031661020b565b6101c861033b36600461358d565b610e9c565b6101dd61c35081565b61037a60405180604001604052806012815260200171426f72726f7765724f7065726174696f6e7360701b81525081565b6040516101e79190613633565b600c5461020b906001600160a01b031681565b60095461020b906001600160a01b031681565b6101c86103bb366004613646565b6114ab565b6101c86103ce366004613690565b6114bd565b600a5461020b906001600160a01b031681565b6101dd611536565b600454600054600b546001600160a01b039283169291821691166104128333611558565b60025460408051630fdb11cf60e01b815290516000926001600160a01b031691630fdb11cf916004808301926020929190829003018187875af115801561045d573d6000803e3d6000fd5b505050506040513d601f19601f8201168201806040525081019061048191906136ad565b905061048c81611631565b604051630b07655760e01b81526001600160a01b03851690630b076557906104b8903390600401613309565b600060405180830381600087803b1580156104d257600080fd5b505af11580156104e6573d6000803e3d6000fd5b50506040516309019aaf60e31b8152600092506001600160a01b038716915063480cd57890610519903390600401613309565b602060405180830381865afa158015610536573d6000803e3d6000fd5b505050506040513d601f19601f8201168201806040525081019061055a91906136ad565b90506000856001600160a01b031663d66a2553336040518263ffffffff1660e01b815260040161058a9190613309565b602060405180830381865afa1580156105a7573d6000803e3d6000fd5b505050506040513d601f19601f820116820180604052508101906105cb91906136ad565b90506105e384336105de8461c3506116a9565b6116bc565b60006105f4836000846000886117ab565b90506105ff81611820565b604051631fc5750960e31b81526001600160a01b0388169063fe2ba8489061062b903390600401613309565b600060405180830381600087803b15801561064557600080fd5b505af1158015610659573d6000803e3d6000fd5b50506040516365e89c5760e11b81526001600160a01b038a16925063cbd138ae9150610689903390600401613309565b600060405180830381600087803b1580156106a357600080fd5b505af11580156106b7573d6000803e3d6000fd5b50505050336001600160a01b031660008051602061389c833981519152600080600060016040516106eb94939291906136e8565b60405180910390a261070a8686336107058661c3506116a9565b6118b0565b60065461072690879087906001600160a01b031661c3506118b0565b60405163a51ba3b760e01b81526001600160a01b0387169063a51ba3b790610754903390879060040161370a565b600060405180830381600087803b15801561076e57600080fd5b505af1158015610782573d6000803e3d6000fd5b5050505050505050505050565b600080600260009054906101000a90046001600160a01b03166001600160a01b0316630490be836040518163ffffffff1660e01b8152600401602060405180830381865afa1580156107e5573d6000803e3d6000fd5b505050506040513d601f19601f8201168201806040525081019061080991906136ad565b9050610816848483611970565b9150505b92915050565b61083333600080866000878760006119c7565b505050565b600061081a82611f9f565b61083333846000806000878760006119c7565b610866338787878787878e6119c7565b50505050505050565b600081116108985760405162461bcd60e51b815260040161088f90613723565b60405180910390fd5b6108a0611fad565b6108b384600083600080888860006119c7565b50505050565b60085460405163b32beb5b60e01b81526001600160a01b039091169063b32beb5b906108e9903390600401613309565b600060405180830381600087803b15801561090357600080fd5b505af11580156108b3573d6000803e3d6000fd5b61091f612019565b6109296000612073565b565b60008054604080516315b3137b60e21b8152905183926001600160a01b0316916356cc4dec9160048083019260209291908290030181865afa158015610975573d6000803e3d6000fd5b505050506040513d601f19601f8201168201806040525081019061099991906136ad565b90506000600160009054906101000a90046001600160a01b03166001600160a01b03166356cc4dec6040518163ffffffff1660e01b8152600401602060405180830381865afa1580156109f0573d6000803e3d6000fd5b505050506040513d601f19601f82011682018060405250810190610a1491906136ad565b9050610a2082826120c5565b9250505090565b610a2f612019565b610a388b6120d1565b610a418a6120d1565b610a4a896120d1565b610a53886120d1565b610a5c876120d1565b610a65866120d1565b610a6e856120d1565b610a77846120d1565b610a80836120d1565b610a89826120d1565b610a92816120d1565b600480546001600160a01b03199081166001600160a01b038e8116919091179092556000805482168d84161790556001805482168c84161790556005805482168b84161790556006805482168a8416179055600880548216898416179055600280548216888416179055600c80548216878416179055600b80548216868416179055600a805482168584169081179091556009805483169091179055600780549091169183169190911790556040517f143219c9e69b09e07e095fcc889b43d8f46ca892bba65f08dc3a0050869a567890610b6e908d90613309565b60405180910390a17f78f058b189175430c48dc02699e3a0031ea4ff781536dc2fab847de4babdd8828a604051610ba59190613309565b60405180910390a17f5ee0cae2f063ed938bb55046f6a932fb6ae792bf43624806bb90abe68a50be9b89604051610bdc9190613309565b60405180910390a17f82966d27eea39b038ee0fa30cd16532bb24f6e65d31cb58fb227aa5766cdcc7f88604051610c139190613309565b60405180910390a17fcfb07d791fcafc032b35837b50eb84b74df518cf4cc287e8084f47630fa70fa087604051610c4a9190613309565b60405180910390a17fe67f36a6e961157d6eff83b91f3af5a62131ceb6f04954ef74f51c1c05e7f88d86604051610c819190613309565b60405180910390a17f8c537274438aa850a330284665d81a85dd38267d09e4050d416bfc94142db26485604051610cb89190613309565b60405180910390a17f65f4cf077bc01e4742eb5ad98326f6e95b63548ea24b17f8d5e823111fe7880084604051610cef9190613309565b60405180910390a17f7faa560f2889840c377209fbc4b6b92d05f43f1fc60bf336ab546fd60c0051ad83604051610d269190613309565b60405180910390a17ffe7e5f521efd6e9fda9261f1223b2cda79ba84d0393e8b6629d27db91048126f82604051610d5d9190613309565b60405180910390a17f0847fbaccb3e7e2f8fe1e72d819c96f0fca0131ffebf9e9dfe13eb5625b6935181604051610d949190613309565b60405180910390a1610782610917565b60008111610dc45760405162461bcd60e51b815260040161088f90613723565b61083333600083600080888860006119c7565b600080546040805163a2f0398360e01b8152905183926001600160a01b03169163a2f039839160048083019260209291908290030181865afa158015610e21573d6000803e3d6000fd5b505050506040513d601f19601f82011682018060405250810190610e4591906136ad565b90506000600160009054906101000a90046001600160a01b03166001600160a01b031663a2f039836040518163ffffffff1660e01b8152600401602060405180830381865afa1580156109f0573d6000803e3d6000fd5b6040805160608082018352600480546001600160a01b039081168452600080548216602080870191909152600b548316868801528651610100810188528281528082018390528088018390529485018290526080850182905260a0850182905260c0850182905260e085018290526002548751630fdb11cf60e01b8152975196979596931694630fdb11cf948181019492939183900301908290875af1158015610f4a573d6000803e3d6000fd5b505050506040513d601f19601f82011682018060405250810190610f6e91906136ad565b808252600090610f7d9061217a565b9050610f898882612197565b8251610f9590336122ab565b6040820187905280610fe957610fb583600001518460400151898b61236d565b826020018181525050610fe96040518060400160405280600581526020016402332b29d160dd1b815250836020015161256c565b610ff682604001516125b1565b60408201516060830181905261100e5761100e613766565b6110218683606001518460000151611970565b60808301526060820151611036908790612628565b60a083015280156110535761104e8260800151612657565b611086565b61106082608001516126cf565b60006110798760018560600151600187600001516117ab565b905061108481611820565b505b8251604051635d6b480f60e01b81526001600160a01b0390911690635d6b480f906110b890339060019060040161370a565b600060405180830381600087803b1580156110d257600080fd5b505af11580156110e6573d6000803e3d6000fd5b505084516040516372423c1760e01b81526001600160a01b0390911692506372423c17915061111b9033908a9060040161370a565b6020604051808303816000875af115801561113a573d6000803e3d6000fd5b505050506040513d601f19601f8201168201806040525081019061115e91906136ad565b5082516060830151604051639976cf4560e01b81526001600160a01b0390921691639976cf45916111949133919060040161370a565b6020604051808303816000875af11580156111b3573d6000803e3d6000fd5b505050506040513d601f19601f820116820180604052508101906111d791906136ad565b5082516040516382fe3eb960e01b81526001600160a01b03909116906382fe3eb990611207903390600401613309565b600060405180830381600087803b15801561122157600080fd5b505af1158015611235573d6000803e3d6000fd5b50508451604051630c7940bd60e11b81526001600160a01b0390911692506318f2817a9150611268903390600401613309565b6020604051808303816000875af1158015611287573d6000803e3d6000fd5b505050506040513d601f19601f820116820180604052508101906112ab91906136ad565b60c0830152600c5460a08301516040516346f7cf8760e01b81526001600160a01b03909216916346f7cf87916112ea913391908a908a9060040161377c565b600060405180830381600087803b15801561130457600080fd5b505af1158015611318573d6000803e3d6000fd5b505084516040516315d549f160e01b81526001600160a01b0390911692506315d549f1915061134b903390600401613309565b6020604051808303816000875af115801561136a573d6000803e3d6000fd5b505050506040513d601f19601f8201168201806040525081019061138e91906136ad565b60e0830181905260405190815233907f59cfd0cd754bc5748b6770e94a4ffa5f678d885cb899dcfadc5734edb97c67ab9060200160405180910390a26113d883602001518761275f565b61140d836020015184604001513361c35086602001518c6113f991906137bd565b61140391906137bd565b86604001516127d8565b602083015160408401516006546114329291906001600160a01b031661c350806127d8565b606082015160c0830151604051339260008051602061389c83398151915292611460928b91906000906136e8565b60405180910390a260208083015160405190815233917f909ac017b31fd41edf1bf9a7ed7d4a7af4343fe034023db2d0220a77ba25e7ee910160405180910390a25050505050505050565b6108b33360008086600187878b6119c7565b6114c5612019565b6001600160a01b03811661152a5760405162461bcd60e51b815260206004820152602660248201527f4f776e61626c653a206e6577206f776e657220697320746865207a65726f206160448201526564647265737360d01b606482015260840161088f565b61153381612073565b50565b61154a6103e8670de0b6b3a76400006137d0565b6115559060056137f2565b81565b6040516321e3780160e01b81526000906001600160a01b038416906321e3780190611587908590600401613309565b602060405180830381865afa1580156115a4573d6000803e3d6000fd5b505050506040513d601f19601f820116820180604052508101906115c891906136ad565b9050806001146108335760405162461bcd60e51b815260206004820152602e60248201527f426f72726f7765724f70733a2054726f766520646f6573206e6f74206578697360448201526d1d081bdc881a5cc818db1bdcd95960921b606482015260840161088f565b61163a8161217a565b156115335760405162461bcd60e51b815260206004820152603960248201527f426f72726f7765724f70733a204f7065726174696f6e206e6f74207065726d696044820152787474656420647572696e67205265636f76657279204d6f646560381b606482015260840161088f565b60006116b582846137bd565b9392505050565b6040516370a0823160e01b815281906001600160a01b038516906370a08231906116ea908690600401613309565b602060405180830381865afa158015611707573d6000803e3d6000fd5b505050506040513d601f19601f8201168201806040525081019061172b91906136ad565b10156108335760405162461bcd60e51b815260206004820152604360248201527f426f72726f7765724f70733a2043616c6c657220646f65736e7420686176652060448201527f656e6f75676820426173654665654c4d4120746f206d616b652072657061796d606482015262195b9d60ea1b608482015260a40161088f565b6000806117b6610dd7565b905060006117c261092b565b9050866117d8576117d382896116a9565b6117e2565b6117e282896120c5565b9150846117f8576117f381876116a9565b611802565b61180281876120c5565b90506000611811838387611970565b93505050505b95945050505050565b6714d1120d7b1600008110156115335760405162461bcd60e51b815260206004820152604960248201527f426f72726f7765724f70733a20416e206f7065726174696f6e2074686174207760448201527f6f756c6420726573756c7420696e20544352203c20434352206973206e6f74206064820152681c195c9b5a5d1d195960ba1b608482015260a40161088f565b604051633b4009ff60e11b8152600481018290526001600160a01b0385169063768013fe90602401600060405180830381600087803b1580156118f257600080fd5b505af1158015611906573d6000803e3d6000fd5b5050604051632770a7eb60e21b81526001600160a01b0386169250639dc29fac9150611938908590859060040161370a565b600060405180830381600087803b15801561195257600080fd5b505af1158015611966573d6000803e3d6000fd5b5050505050505050565b600082156119bc57600061199883611992868189670de0b6b3a76400006128c7565b906128d3565b90506119a3856128df565b6119ac846128df565b6119b5816128df565b90506116b5565b506000199392505050565b6040805160608082018352600480546001600160a01b039081168452600080548216602080870191909152600b5483168688015286516101a0810188528281528082018390528088018390529485018290526080850182905260a0850182905260c0850182905260e08501829052610100850182905261012085018290526101408501829052610160850182905261018085018290526002548751630fdb11cf60e01b8152975196979596931694630fdb11cf948181019492939183900301908290875af1158015611a9d573d6000803e3d6000fd5b505050506040513d601f19601f82011682018060405250810190611ac191906136ad565b808252600090611ad09061217a565b90508615611aeb57611ae28482612197565b611aeb88612924565b611af58a8a612994565b611b008a8a8a612a04565b8251611b0c908c611558565b336001600160a01b038c161480611b4257506005546001600160a01b031633148015611b385750600089115b8015611b42575087155b611b4e57611b4e613766565b8251604051630b07655760e01b81526001600160a01b0390911690630b07655790611b7d908e90600401613309565b600060405180830381600087803b158015611b9757600080fd5b505af1158015611bab573d6000803e3d6000fd5b50505050611bb9898b612a9c565b15156060840152602083015260408201889052868015611bd7575080155b15611c0c57611bf0836000015184604001518a8761236d565b61012083018190526040830151611c06916120c5565b60408301525b825160405163d66a255360e01b81526001600160a01b039091169063d66a255390611c3b908e90600401613309565b602060405180830381865afa158015611c58573d6000803e3d6000fd5b505050506040513d601f19601f82011682018060405250810190611c7c91906136ad565b608083015282516040516309019aaf60e31b81526001600160a01b039091169063480cd57890611cb0908e90600401613309565b602060405180830381865afa158015611ccd573d6000803e3d6000fd5b505050506040513d601f19601f82011682018060405250810190611cf191906136ad565b60a0830181905260808301518351611d0a929190611970565b8260c0018181525050611d3a8260a0015183608001518460200151856060015186604001518c8860000151612abb565b60e083015260a08201518a1115611d5357611d53613766565b611d5f818b8985612aee565b86158015611d6d5750600088115b15611dba57611d95611d908360400151611d8a8560800151612b62565b906116a9565b6125b1565b611da782608001518360400151612b70565b611dba83604001518c84604001516116bc565b611dd883600001518c8460200151856060015186604001518c612bfd565b6101408401526101608301528251604051630c7940bd60e11b81526001600160a01b03909116906318f2817a90611e13908e90600401613309565b6020604051808303816000875af1158015611e32573d6000803e3d6000fd5b505050506040513d601f19601f82011682018060405250810190611e5691906136ad565b826101800181815250506000611e848360a0015184608001518560200151866060015187604001518d612def565b600c5460405163015f109360e51b81529192506001600160a01b031690632be2126090611ebb908f9085908c908c9060040161377c565b600060405180830381600087803b158015611ed557600080fd5b505af1158015611ee9573d6000803e3d6000fd5b505050508b6001600160a01b031660008051602061389c8339815191528461014001518561016001518661018001516002604051611f2a94939291906136e8565b60405180910390a261012083015160405190815233907f909ac017b31fd41edf1bf9a7ed7d4a7af4343fe034023db2d0220a77ba25e7ee9060200160405180910390a2611f918460200151856040015133866020015187606001518e8e8a60400151612e20565b505050505050505050505050565b600061081a8261c3506120c5565b6005546001600160a01b031633146109295760405162461bcd60e51b815260206004820152602960248201527f426f72726f7765724f70733a2043616c6c6572206973206e6f742053746162696044820152681b1a5d1e48141bdbdb60ba1b606482015260840161088f565b6003546001600160a01b031633146109295760405162461bcd60e51b815260206004820181905260248201527f4f776e61626c653a2063616c6c6572206973206e6f7420746865206f776e6572604482015260640161088f565b600380546001600160a01b038381166001600160a01b0319831681179093556040519116919082907f8be0079c531659141344cd1fd0a4f28419497f9722a3daafe3b4186f6b6457e090600090a35050565b60006116b58284613809565b6001600160a01b0381166121275760405162461bcd60e51b815260206004820152601e60248201527f4163636f756e742063616e6e6f74206265207a65726f20616464726573730000604482015260640161088f565b803b806121765760405162461bcd60e51b815260206004820181905260248201527f4163636f756e7420636f64652073697a652063616e6e6f74206265207a65726f604482015260640161088f565b5050565b60008061218683612eb5565b6714d1120d7b160000119392505050565b801561221057670de0b6b3a76400008211156121765760405162461bcd60e51b815260206004820152603260248201527f4d6178206665652070657263656e74616765206d757374206c657373207468616044820152716e206f7220657175616c20746f203130302560701b606482015260840161088f565b6122246103e8670de0b6b3a76400006137d0565b61222f9060056137f2565b82101580156122465750670de0b6b3a76400008211155b6121765760405162461bcd60e51b815260206004820152603060248201527f4d6178206665652070657263656e74616765206d75737420626520626574776560448201526f656e20302e352520616e64203130302560801b606482015260840161088f565b6040516321e3780160e01b81526000906001600160a01b038416906321e37801906122da908590600401613309565b602060405180830381865afa1580156122f7573d6000803e3d6000fd5b505050506040513d601f19601f8201168201806040525081019061231b91906136ad565b9050806001036108335760405162461bcd60e51b815260206004820152601c60248201527f426f72726f7765724f70733a2054726f76652069732061637469766500000000604482015260640161088f565b6000846001600160a01b0316635dba4c4a6040518163ffffffff1660e01b8152600401600060405180830381600087803b1580156123aa57600080fd5b505af11580156123be573d6000803e3d6000fd5b5050604051630631203b60e41b815260048101869052600092508291506001600160a01b0388169063631203b0906024016040805180830381865afa15801561240b573d6000803e3d6000fd5b505050506040513d601f19601f8201168201806040525081019061242f919061381c565b60048054604051634fbd6daf60e11b81529182018390529294509092506001600160a01b0390911690639f7adb5e90602401600060405180830381600087803b15801561247b57600080fd5b505af115801561248f573d6000803e3d6000fd5b5050505061249e828686612ed9565b60095460405162697fb760e71b8152600481018490526001600160a01b03909116906334bfdb8090602401600060405180830381600087803b1580156124e357600080fd5b505af11580156124f7573d6000803e3d6000fd5b5050600a546040516340c10f1960e01b81526001600160a01b03808b1694506340c10f19935061252d921690869060040161370a565b600060405180830381600087803b15801561254757600080fd5b505af115801561255b573d6000803e3d6000fd5b50939450505050505b949350505050565b6121768282604051602401612582929190613840565b60408051601f198184030181529190526020810180516001600160e01b0316632d839cb360e21b179052612f43565b60018110156115335760405162461bcd60e51b815260206004820152603a60248201527f426f72726f7765724f70733a2054726f76652773206e65742064656274206d7560448201527f73742062652067726561746572207468616e206d696e696d756d000000000000606482015260840161088f565b6000811561264e57612647826119928568056bc75e2d631000006128c7565b905061081a565b5060001961081a565b6714d1120d7b1600008110156115335760405162461bcd60e51b815260206004820152603760248201527f426f72726f7765724f70733a204f7065726174696f6e206d757374206c65617660448201527632903a3937bb32903bb4ba341024a1a9101f1e9021a1a960491b606482015260840161088f565b6714d1120d7b1600008110156115335760405162461bcd60e51b815260206004820152604960248201527f426f72726f7765724f70733a20416e206f7065726174696f6e2074686174207760448201527f6f756c6420726573756c7420696e20494352203c204d4352206973206e6f74206064820152681c195c9b5a5d1d195960ba1b608482015260a40161088f565b600754612777906001600160a01b0316338484612f4c565b60005460405162f9332d60e61b8152600481018390526001600160a01b0390911690633e4ccb4090602401600060405180830381600087803b1580156127bc57600080fd5b505af11580156127d0573d6000803e3d6000fd5b505050505050565b60405163262b890160e01b8152600481018290526001600160a01b0386169063262b890190602401600060405180830381600087803b15801561281a57600080fd5b505af115801561282e573d6000803e3d6000fd5b505050506128606040518060400160405280600c81526020016b032b7321030b6b7bab73a1d160a51b8152508361256c565b6040516340c10f1960e01b81526001600160a01b038516906340c10f199061288e908690869060040161370a565b600060405180830381600087803b1580156128a857600080fd5b505af11580156128bc573d6000803e3d6000fd5b505050505050505050565b60006116b582846137f2565b60006116b582846137d0565b611533816040516024016128f591815260200190565b60408051601f198184030181529190526020810180516001600160e01b031663f82c50f160e01b179052612f43565b600081116115335760405162461bcd60e51b815260206004820152603760248201527f426f72726f7765724f70733a204465627420696e637265617365207265717569604482015276726573206e6f6e2d7a65726f20646562744368616e676560481b606482015260840161088f565b80158061299f575081155b6121765760405162461bcd60e51b815260206004820152603060248201527f426f72726f7765724f7065726174696f6e733a2043616e6e6f7420776974686460448201526f1c985dc8185b99081859190818dbdb1b60821b606482015260840161088f565b81151580612a1157508215155b80612a1b57508015155b6108335760405162461bcd60e51b815260206004820152604660248201527f426f72726f7765724f70733a205468657265206d75737420626520656974686560448201527f72206120636f6c6c61746572616c206368616e6765206f7220612064656274206064820152656368616e676560d01b608482015260a40161088f565b6000808315612ab057508290506001612ab4565b8291505b9250929050565b6000806000612ace8a8a8a8a8a8a612fa6565b915091506000612adf838387611970565b9b9a5050505050505050505050565b8315612b2757612afd83612fe4565b8115612b2257612b108160e00151612657565b612b228160e001518260c00151613058565b6108b3565b612b348160e001516126cf565b612b518160200151826060015183604001518585600001516117ab565b61010082018190526108b390611820565b600061081a8261c3506116a9565b612b7c8261c3506116a9565b8111156121765760405162461bcd60e51b815260206004820152604360248201527f426f72726f7765724f70733a20416d6f756e7420726570616964206d7573742060448201527f6e6f74206265206c6172676572207468616e207468652054726f76652773206460648201526219589d60ea1b608482015260a40161088f565b600080600085612c7d5760405163d3d6f84360e01b81526001600160a01b038a169063d3d6f84390612c35908b908b9060040161370a565b6020604051808303816000875af1158015612c54573d6000803e3d6000fd5b505050506040513d601f19601f82011682018060405250810190612c7891906136ad565b612cee565b6040516372423c1760e01b81526001600160a01b038a16906372423c1790612cab908b908b9060040161370a565b6020604051808303816000875af1158015612cca573d6000803e3d6000fd5b505050506040513d601f19601f82011682018060405250810190612cee91906136ad565b9050600084612d6d57604051630930874960e11b81526001600160a01b038b16906312610e9290612d25908c908a9060040161370a565b6020604051808303816000875af1158015612d44573d6000803e3d6000fd5b505050506040513d601f19601f82011682018060405250810190612d6891906136ad565b612dde565b604051639976cf4560e01b81526001600160a01b038b1690639976cf4590612d9b908c908a9060040161370a565b6020604051808303816000875af1158015612dba573d6000803e3d6000fd5b505050506040513d601f19601f82011682018060405250810190612dde91906136ad565b919a91995090975050505050505050565b6000806000612e02898989898989612fa6565b915091506000612e128383612628565b9a9950505050505050505050565b8115612e3857612e3388888886856127d8565b612e44565b612e44888888866118b0565b8315612e5957612e54888661275f565b611966565b60405163a51ba3b760e01b81526001600160a01b0389169063a51ba3b790612e87908990899060040161370a565b600060405180830381600087803b158015612ea157600080fd5b505af1158015611f91573d6000803e3d6000fd5b600080612ec0610dd7565b90506000612ecc61092b565b9050612564828286611970565b6000612ef18361199286670de0b6b3a76400006128c7565b9050818111156108b35760405162461bcd60e51b815260206004820152601d60248201527f4665652065786365656465642070726f7669646564206d6178696d756d000000604482015260640161088f565b611533816130ce565b604080516001600160a01b0385811660248301528416604482015260648082018490528251808303909101815260849091019091526020810180516001600160e01b03166323b872dd60e01b1790526108b39085906130ef565b600080878786612fbf57612fba8a896116a9565b612fc9565b612fc98a896120c5565b915084612fda57612d6889876116a9565b612dde89876120c5565b80156115335760405162461bcd60e51b815260206004820152603e60248201527f426f72726f7765724f70733a20436f6c6c61746572616c20776974686472617760448201527f616c206e6f74207065726d6974746564205265636f76657279204d6f64650000606482015260840161088f565b808210156121765760405162461bcd60e51b815260206004820152603e60248201527f426f72726f7765724f70733a2043616e6e6f7420646563726561736520796f7560448201527f722054726f766527732049435220696e205265636f76657279204d6f64650000606482015260840161088f565b60006a636f6e736f6c652e6c6f679050600080835160208501845afa505050565b6000613144826040518060400160405280602081526020017f5361666545524332303a206c6f772d6c6576656c2063616c6c206661696c6564815250856001600160a01b03166131c49092919063ffffffff16565b90508051600014806131655750808060200190518101906131659190613862565b6108335760405162461bcd60e51b815260206004820152602a60248201527f5361666545524332303a204552433230206f7065726174696f6e20646964206e6044820152691bdd081cdd58d8d9595960b21b606482015260840161088f565b6060612564848460008585600080866001600160a01b031685876040516131eb919061387f565b60006040518083038185875af1925050503d8060008114613228576040519150601f19603f3d011682016040523d82523d6000602084013e61322d565b606091505b509150915061323e87838387613249565b979650505050505050565b606083156132b85782516000036132b1576001600160a01b0385163b6132b15760405162461bcd60e51b815260206004820152601d60248201527f416464726573733a2063616c6c20746f206e6f6e2d636f6e7472616374000000604482015260640161088f565b5081612564565b61256483838151156132cd5781518083602001fd5b8060405162461bcd60e51b815260040161088f9190613633565b600080604083850312156132fa57600080fd5b50508035926020909101359150565b6001600160a01b0391909116815260200190565b6001600160a01b038116811461153357600080fd5b803561333d8161331d565b919050565b60008060006060848603121561335757600080fd5b8335925060208401356133698161331d565b915060408401356133798161331d565b809150509250925092565b60006020828403121561339657600080fd5b5035919050565b801515811461153357600080fd5b600080600080600080600060e0888a0312156133c657600080fd5b8735965060208801359550604088013594506060880135935060808801356133ed8161339d565b925060a08801356133fd8161331d565b915060c088013561340d8161331d565b8091505092959891949750929550565b6000806000806080858703121561343357600080fd5b843561343e8161331d565b9350602085013561344e8161331d565b9250604085013561345e8161331d565b9396929550929360600135925050565b60008060008060008060008060008060006101608c8e03121561349057600080fd5b8b3561349b8161331d565b9a5060208c01356134ab8161331d565b995060408c01356134bb8161331d565b985060608c01356134cb8161331d565b975060808c01356134db8161331d565b965060a08c01356134eb8161331d565b955060c08c01356134fb8161331d565b945060e08c013561350b8161331d565b93506101008c013561351c8161331d565b925061352b6101208d01613332565b915061353a6101408d01613332565b90509295989b509295989b9093969950565b60008060006060848603121561356157600080fd5b833561356c8161331d565b9250602084013561357c8161331d565b929592945050506040919091013590565b600080600080600060a086880312156135a557600080fd5b85359450602086013593506040860135925060608601356135c58161331d565b915060808601356135d58161331d565b809150509295509295909350565b60005b838110156135fe5781810151838201526020016135e6565b50506000910152565b6000815180845261361f8160208601602086016135e3565b601f01601f19169290920160200192915050565b6020815260006116b56020830184613607565b6000806000806080858703121561365c57600080fd5b843593506020850135925060408501356136758161331d565b915060608501356136858161331d565b939692955090935050565b6000602082840312156136a257600080fd5b81356116b58161331d565b6000602082840312156136bf57600080fd5b5051919050565b600381106136e457634e487b7160e01b600052602160045260246000fd5b9052565b84815260208101849052604081018390526080810161181760608301846136c6565b6001600160a01b03929092168252602082015260400190565b60208082526023908201527f426f72726f776572204f7065726174696f6e733a20496e76616c696420616d6f6040820152621d5b9d60ea1b606082015260800190565b634e487b7160e01b600052600160045260246000fd5b6001600160a01b03948516815260208101939093529083166040830152909116606082015260800190565b634e487b7160e01b600052601160045260246000fd5b8181038181111561081a5761081a6137a7565b6000826137ed57634e487b7160e01b600052601260045260246000fd5b500490565b808202811582820484141761081a5761081a6137a7565b8082018082111561081a5761081a6137a7565b6000806040838503121561382f57600080fd5b505080516020909101519092909150565b6040815260006138536040830185613607565b90508260208301529392505050565b60006020828403121561387457600080fd5b81516116b58161339d565b600082516138918184602087016135e3565b919091019291505056fec3770d654ed33aeea6bf11ac8ef05d02a6a04ed4686dd2f624d853bbec43cc8ba2646970667358221220de17d12e73ab465538be3097586ecedb8b6a3f08ba4496010acc88de8fcdd4c364736f6c63430008130033",
  "devdoc": {
    "kind": "dev",
    "methods": {
      "owner()": {
        "details": "Returns the address of the current owner."
      },
      "renounceOwnership()": {
        "details": "Leaves the contract without owner. It will not be possible to call `onlyOwner` functions. Can only be called by the current owner. NOTE: Renouncing ownership will leave the contract without an owner, thereby disabling any functionality that is only available to the owner."
      },
      "transferOwnership(address)": {
        "details": "Transfers ownership of the contract to a new account (`newOwner`). Can only be called by the current owner."
      }
    },
    "version": 1
  },
  "userdoc": {
    "kind": "user",
    "methods": {
      "addColl(address,address,uint256)": {
        "notice": "HEDGEHOG UPDATES: ERC20 is used as a collateral, therefore function may not rely on msg.value anymore now passing a new param _collIncrease in _adjustTrove function - in this particular case it is a passed param _amount checking if _amount is greater then 0 Function is no longer payable"
      },
      "adjustTrove(uint256,uint256,uint256,uint256,bool,address,address)": {
        "notice": "HEDGEHOG UPDATES: ERC20 is used as a collateral, therefore function may not rely on msg.value anymore now passing a new param _collIncrease Function is no longer payable"
      },
      "claimCollateral()": {
        "notice": "Claim remaining collateral from a redemption or from a liquidation with ICR > MCR in Recovery Mode"
      },
      "moveStETHGainToTrove(address,address,address,uint256)": {
        "notice": "HEDGEHOG UPDATES: ERC20 is used as a collateral, therefore function may not rely on msg.value anymore now passing a new param _collIncrease in _adjustTrove function - in this particular case it is a passed param _amount checking if _amount is greater then 0 Function is no longer payable"
      },
      "openTrove(uint256,uint256,uint256,address,address)": {
        "notice": "HEDGEHOG UPDATES: ERC20 is used as a collateral, therefore function may not rely on msg.value anymore now passing a new param _collAmount checking if _amount is greater then 0 Function is no longer payable"
      },
      "repayBaseFeeLMA(uint256,address,address)": {
        "notice": "HEDGEHOG UPDATES: ERC20 is used as a collateral, therefore function may not rely on msg.value anymore now passing a new param _collIncrease - in this particular case it is 0"
      },
      "setAddresses(address,address,address,address,address,address,address,address,address,address,address)": {
        "notice": "HEDGEHOG LOGIC UPDATES: ERC20 is used as a collateral instead of native token. Setting erc20 address in the initialisation"
      },
      "withdrawBaseFeeLMA(uint256,uint256,address,address)": {
        "notice": "HEDGEHOG UPDATES: ERC20 is used as a collateral, therefore function may not rely on msg.value anymore now passing a new param _collIncrease - in this particular case it is 0"
      },
      "withdrawColl(uint256,address,address)": {
        "notice": "HEDGEHOG UPDATES: ERC20 is used as a collateral, therefore function may not rely on msg.value anymore now passing a new param _collIncrease - in this particular case it is 0"
      }
    },
    "notice": "Fork of Liquity's BorrowerOperations. Logic remains unchanged. Changes to the contract: - Raised pragma version - Removed an import of IBorrowerOperations Interface - Updated variable names and docs to refer to BaseFeeLMA token and stEth as a collateral Even though SafeMath is no longer required, the decision was made to keep it to avoid human factor errors",
    "version": 1
  },
  "storageLayout": {
    "storage": [
      {
        "astId": 16170,
        "contract": "contracts/BorrowerOperations.sol:BorrowerOperations",
        "label": "activePool",
        "offset": 0,
        "slot": "0",
        "type": "t_contract(IActivePool)16882"
      },
      {
        "astId": 16173,
        "contract": "contracts/BorrowerOperations.sol:BorrowerOperations",
        "label": "defaultPool",
        "offset": 0,
        "slot": "1",
        "type": "t_contract(IDefaultPool)17278"
      },
      {
        "astId": 16177,
        "contract": "contracts/BorrowerOperations.sol:BorrowerOperations",
        "label": "priceFeed",
        "offset": 0,
        "slot": "2",
        "type": "t_contract(IPriceFeed)17520"
      },
      {
        "astId": 7,
        "contract": "contracts/BorrowerOperations.sol:BorrowerOperations",
        "label": "_owner",
        "offset": 0,
        "slot": "3",
        "type": "t_address"
      },
      {
        "astId": 1299,
        "contract": "contracts/BorrowerOperations.sol:BorrowerOperations",
        "label": "troveManager",
        "offset": 0,
        "slot": "4",
        "type": "t_contract(ITroveManager)18279"
      },
      {
        "astId": 1301,
        "contract": "contracts/BorrowerOperations.sol:BorrowerOperations",
        "label": "stabilityPoolAddress",
        "offset": 0,
        "slot": "5",
        "type": "t_address"
      },
      {
        "astId": 1303,
        "contract": "contracts/BorrowerOperations.sol:BorrowerOperations",
        "label": "gasPoolAddress",
        "offset": 0,
        "slot": "6",
        "type": "t_address"
      },
      {
        "astId": 1306,
        "contract": "contracts/BorrowerOperations.sol:BorrowerOperations",
        "label": "StETHToken",
        "offset": 0,
        "slot": "7",
        "type": "t_contract(IERC20)190"
      },
      {
        "astId": 1309,
        "contract": "contracts/BorrowerOperations.sol:BorrowerOperations",
        "label": "collSurplusPool",
        "offset": 0,
        "slot": "8",
        "type": "t_contract(ICollSurplusPool)17221"
      },
      {
        "astId": 1312,
        "contract": "contracts/BorrowerOperations.sol:BorrowerOperations",
        "label": "hogStaking",
        "offset": 0,
        "slot": "9",
        "type": "t_contract(IHOGStaking)17388"
      },
      {
        "astId": 1314,
        "contract": "contracts/BorrowerOperations.sol:BorrowerOperations",
        "label": "hogStakingAddress",
        "offset": 0,
        "slot": "10",
        "type": "t_address"
      },
      {
        "astId": 1317,
        "contract": "contracts/BorrowerOperations.sol:BorrowerOperations",
        "label": "baseFeeLMAToken",
        "offset": 0,
        "slot": "11",
        "type": "t_contract(IBaseFeeLMAToken)16946"
      },
      {
        "astId": 1320,
        "contract": "contracts/BorrowerOperations.sol:BorrowerOperations",
        "label": "sortedTroves",
        "offset": 0,
        "slot": "12",
        "type": "t_contract(ISortedTroves)17652"
      }
    ],
    "types": {
      "t_address": {
        "encoding": "inplace",
        "label": "address",
        "numberOfBytes": "20"
      },
      "t_contract(IActivePool)16882": {
        "encoding": "inplace",
        "label": "contract IActivePool",
        "numberOfBytes": "20"
      },
      "t_contract(IBaseFeeLMAToken)16946": {
        "encoding": "inplace",
        "label": "contract IBaseFeeLMAToken",
        "numberOfBytes": "20"
      },
      "t_contract(ICollSurplusPool)17221": {
        "encoding": "inplace",
        "label": "contract ICollSurplusPool",
        "numberOfBytes": "20"
      },
      "t_contract(IDefaultPool)17278": {
        "encoding": "inplace",
        "label": "contract IDefaultPool",
        "numberOfBytes": "20"
      },
      "t_contract(IERC20)190": {
        "encoding": "inplace",
        "label": "contract IERC20",
        "numberOfBytes": "20"
      },
      "t_contract(IHOGStaking)17388": {
        "encoding": "inplace",
        "label": "contract IHOGStaking",
        "numberOfBytes": "20"
      },
      "t_contract(IPriceFeed)17520": {
        "encoding": "inplace",
        "label": "contract IPriceFeed",
        "numberOfBytes": "20"
      },
      "t_contract(ISortedTroves)17652": {
        "encoding": "inplace",
        "label": "contract ISortedTroves",
        "numberOfBytes": "20"
      },
      "t_contract(ITroveManager)18279": {
        "encoding": "inplace",
        "label": "contract ITroveManager",
        "numberOfBytes": "20"
      }
    }
  }
}