{
  "address": "0x9DD3C04aC579bD3C6c68e2f2BCeD4Eba62C20Bfa",
  "abi": [
    {
      "anonymous": false,
      "inputs": [
        {
          "indexed": false,
          "internalType": "address",
          "name": "_activePoolAddress",
          "type": "address"
        }
      ],
      "name": "ActivePoolAddressSet",
      "type": "event"
    },
    {
      "anonymous": false,
      "inputs": [
        {
          "indexed": false,
          "internalType": "address",
          "name": "_baseFeeLMATokenAddress",
          "type": "address"
        }
      ],
      "name": "BaseFeeLMATokenAddressSet",
      "type": "event"
    },
    {
      "anonymous": false,
      "inputs": [
        {
          "indexed": false,
          "internalType": "address",
          "name": "_borrowerOperationsAddress",
          "type": "address"
        }
      ],
      "name": "BorrowerOperationsAddressSet",
      "type": "event"
    },
    {
      "anonymous": false,
      "inputs": [
        {
          "indexed": false,
          "internalType": "uint256",
          "name": "_F_BaseFeeLMA",
          "type": "uint256"
        }
      ],
      "name": "F_BaseFeeLMAUpdated",
      "type": "event"
    },
    {
      "anonymous": false,
      "inputs": [
        {
          "indexed": false,
          "internalType": "uint256",
          "name": "_F_StETH",
          "type": "uint256"
        }
      ],
      "name": "F_StETHUpdated",
      "type": "event"
    },
    {
      "anonymous": false,
      "inputs": [
        {
          "indexed": false,
          "internalType": "address",
          "name": "_hogTokenAddress",
          "type": "address"
        }
      ],
      "name": "HOGTokenAddressSet",
      "type": "event"
    },
    {
      "anonymous": false,
      "inputs": [
        {
          "indexed": true,
          "internalType": "address",
          "name": "previousOwner",
          "type": "address"
        },
        {
          "indexed": true,
          "internalType": "address",
          "name": "newOwner",
          "type": "address"
        }
      ],
      "name": "OwnershipTransferred",
      "type": "event"
    },
    {
      "anonymous": false,
      "inputs": [
        {
          "indexed": false,
          "internalType": "address",
          "name": "_account",
          "type": "address"
        },
        {
          "indexed": false,
          "internalType": "uint256",
          "name": "_amount",
          "type": "uint256"
        }
      ],
      "name": "StETHSent",
      "type": "event"
    },
    {
      "anonymous": false,
      "inputs": [
        {
          "indexed": false,
          "internalType": "contract IERC20",
          "name": "_StEthAddress",
          "type": "address"
        }
      ],
      "name": "StETHTokenAddressUpdated",
      "type": "event"
    },
    {
      "anonymous": false,
      "inputs": [
        {
          "indexed": true,
          "internalType": "address",
          "name": "staker",
          "type": "address"
        },
        {
          "indexed": false,
          "internalType": "uint256",
          "name": "newStake",
          "type": "uint256"
        }
      ],
      "name": "StakeChanged",
      "type": "event"
    },
    {
      "anonymous": false,
      "inputs": [
        {
          "indexed": false,
          "internalType": "address",
          "name": "_staker",
          "type": "address"
        },
        {
          "indexed": false,
          "internalType": "uint256",
          "name": "_F_StETH",
          "type": "uint256"
        },
        {
          "indexed": false,
          "internalType": "uint256",
          "name": "_F_BaseFeeLMA",
          "type": "uint256"
        }
      ],
      "name": "StakerSnapshotsUpdated",
      "type": "event"
    },
    {
      "anonymous": false,
      "inputs": [
        {
          "indexed": true,
          "internalType": "address",
          "name": "staker",
          "type": "address"
        },
        {
          "indexed": false,
          "internalType": "uint256",
          "name": "BaseFeeLMAGain",
          "type": "uint256"
        },
        {
          "indexed": false,
          "internalType": "uint256",
          "name": "StETHGain",
          "type": "uint256"
        }
      ],
      "name": "StakingGainsWithdrawn",
      "type": "event"
    },
    {
      "anonymous": false,
      "inputs": [
        {
          "indexed": false,
          "internalType": "uint256",
          "name": "_totalHOGStaked",
          "type": "uint256"
        }
      ],
      "name": "TotalHOGStakedUpdated",
      "type": "event"
    },
    {
      "anonymous": false,
      "inputs": [
        {
          "indexed": false,
          "internalType": "address",
          "name": "_troveManager",
          "type": "address"
        }
      ],
      "name": "TroveManagerAddressSet",
      "type": "event"
    },
    {
      "inputs": [],
      "name": "DECIMAL_PRECISION",
      "outputs": [
        {
          "internalType": "uint256",
          "name": "",
          "type": "uint256"
        }
      ],
      "stateMutability": "view",
      "type": "function"
    },
    {
      "inputs": [],
      "name": "F_BaseFeeLMA",
      "outputs": [
        {
          "internalType": "uint256",
          "name": "",
          "type": "uint256"
        }
      ],
      "stateMutability": "view",
      "type": "function"
    },
    {
      "inputs": [],
      "name": "F_StETH",
      "outputs": [
        {
          "internalType": "uint256",
          "name": "",
          "type": "uint256"
        }
      ],
      "stateMutability": "view",
      "type": "function"
    },
    {
      "inputs": [],
      "name": "NAME",
      "outputs": [
        {
          "internalType": "string",
          "name": "",
          "type": "string"
        }
      ],
      "stateMutability": "view",
      "type": "function"
    },
    {
      "inputs": [],
      "name": "activePoolAddress",
      "outputs": [
        {
          "internalType": "address",
          "name": "",
          "type": "address"
        }
      ],
      "stateMutability": "view",
      "type": "function"
    },
    {
      "inputs": [],
      "name": "baseFeeLMAToken",
      "outputs": [
        {
          "internalType": "contract IBaseFeeLMAToken",
          "name": "",
          "type": "address"
        }
      ],
      "stateMutability": "view",
      "type": "function"
    },
    {
      "inputs": [],
      "name": "borrowerOperationsAddress",
      "outputs": [
        {
          "internalType": "address",
          "name": "",
          "type": "address"
        }
      ],
      "stateMutability": "view",
      "type": "function"
    },
    {
      "inputs": [
        {
          "internalType": "address",
          "name": "_user",
          "type": "address"
        }
      ],
      "name": "getPendingBaseFeeLMAGain",
      "outputs": [
        {
          "internalType": "uint256",
          "name": "",
          "type": "uint256"
        }
      ],
      "stateMutability": "view",
      "type": "function"
    },
    {
      "inputs": [
        {
          "internalType": "address",
          "name": "_user",
          "type": "address"
        }
      ],
      "name": "getPendingStETHGain",
      "outputs": [
        {
          "internalType": "uint256",
          "name": "",
          "type": "uint256"
        }
      ],
      "stateMutability": "view",
      "type": "function"
    },
    {
      "inputs": [],
      "name": "hogToken",
      "outputs": [
        {
          "internalType": "contract IHOGToken",
          "name": "",
          "type": "address"
        }
      ],
      "stateMutability": "view",
      "type": "function"
    },
    {
      "inputs": [
        {
          "internalType": "uint256",
          "name": "_BaseFeeLMAFee",
          "type": "uint256"
        }
      ],
      "name": "increaseF_BaseFeeLMA",
      "outputs": [],
      "stateMutability": "nonpayable",
      "type": "function"
    },
    {
      "inputs": [
        {
          "internalType": "uint256",
          "name": "_StETHFee",
          "type": "uint256"
        }
      ],
      "name": "increaseF_StETH",
      "outputs": [],
      "stateMutability": "nonpayable",
      "type": "function"
    },
    {
      "inputs": [],
      "name": "owner",
      "outputs": [
        {
          "internalType": "address",
          "name": "",
          "type": "address"
        }
      ],
      "stateMutability": "view",
      "type": "function"
    },
    {
      "inputs": [],
      "name": "renounceOwnership",
      "outputs": [],
      "stateMutability": "nonpayable",
      "type": "function"
    },
    {
      "inputs": [
        {
          "internalType": "address",
          "name": "_hogTokenAddress",
          "type": "address"
        },
        {
          "internalType": "address",
          "name": "_baseFeeLMATokenAddress",
          "type": "address"
        },
        {
          "internalType": "address",
          "name": "_troveManagerAddress",
          "type": "address"
        },
        {
          "internalType": "address",
          "name": "_borrowerOperationsAddress",
          "type": "address"
        },
        {
          "internalType": "address",
          "name": "_activePoolAddress",
          "type": "address"
        },
        {
          "internalType": "contract IERC20",
          "name": "_stETHTokenAddress",
          "type": "address"
        }
      ],
      "name": "setAddresses",
      "outputs": [],
      "stateMutability": "nonpayable",
      "type": "function"
    },
    {
      "inputs": [
        {
          "internalType": "address",
          "name": "",
          "type": "address"
        }
      ],
      "name": "snapshots",
      "outputs": [
        {
          "internalType": "uint256",
          "name": "F_StETH_Snapshot",
          "type": "uint256"
        },
        {
          "internalType": "uint256",
          "name": "F_BaseFeeLMA_Snapshot",
          "type": "uint256"
        }
      ],
      "stateMutability": "view",
      "type": "function"
    },
    {
      "inputs": [
        {
          "internalType": "uint256",
          "name": "_HOGamount",
          "type": "uint256"
        }
      ],
      "name": "stake",
      "outputs": [],
      "stateMutability": "nonpayable",
      "type": "function"
    },
    {
      "inputs": [
        {
          "internalType": "address",
          "name": "",
          "type": "address"
        }
      ],
      "name": "stakes",
      "outputs": [
        {
          "internalType": "uint256",
          "name": "",
          "type": "uint256"
        }
      ],
      "stateMutability": "view",
      "type": "function"
    },
    {
      "inputs": [],
      "name": "totalHOGStaked",
      "outputs": [
        {
          "internalType": "uint256",
          "name": "",
          "type": "uint256"
        }
      ],
      "stateMutability": "view",
      "type": "function"
    },
    {
      "inputs": [
        {
          "internalType": "address",
          "name": "newOwner",
          "type": "address"
        }
      ],
      "name": "transferOwnership",
      "outputs": [],
      "stateMutability": "nonpayable",
      "type": "function"
    },
    {
      "inputs": [],
      "name": "troveManagerAddress",
      "outputs": [
        {
          "internalType": "address",
          "name": "",
          "type": "address"
        }
      ],
      "stateMutability": "view",
      "type": "function"
    },
    {
      "inputs": [
        {
          "internalType": "uint256",
          "name": "_HOGamount",
          "type": "uint256"
        }
      ],
      "name": "unstake",
      "outputs": [],
      "stateMutability": "nonpayable",
      "type": "function"
    },
    {
      "stateMutability": "payable",
      "type": "receive"
    }
  ],
  "transactionHash": "0x7853c54b1dd6f5cb9d69ec5b354db92c3e09df69464dc6512097ff5aef18b707",
  "args": [],
  "numDeployments": 1,
  "solcInputHash": "41b900fed173af6ef497847657c9cc3e",
  "bytecode": "0x608060405234801561001057600080fd5b5061001a3361001f565b61006f565b600080546001600160a01b038381166001600160a01b0319831681178455604051919092169283917f8be0079c531659141344cd1fd0a4f28419497f9722a3daafe3b4186f6b6457e09190a35050565b61136f8061007e6000396000f3fe6080604052600436106101395760003560e01c8063a20baee6116100ab578063b307829d1161006f578063b307829d146103ab578063b7f8cf9b146103cb578063c0e452de146103eb578063e5372b771461040b578063f2fde38b14610421578063f57fcb4e1461044157600080fd5b8063a20baee6146102f6578063a3f4df7e14610312578063a4ac46f914610355578063a694fc3a1461036b578063b08bc7221461038b57600080fd5b80635a4d28bb116100fd5780635a4d28bb146102435780636cfb6bf914610263578063715018a6146102835780637472f98f146102985780638da5cb5b146102b85780638f913789146102d657600080fd5b806316934fc41461014d5780632e17de781461018d57806334b3081f146101ad57806334bfdb80146101f6578063570dc45e1461021657600080fd5b3661014857610146610457565b005b600080fd5b34801561015957600080fd5b5061017a61016836600461116f565b60016020526000908152604090205481565b6040519081526020015b60405180910390f35b34801561019957600080fd5b506101466101a836600461118c565b6104c4565b3480156101b957600080fd5b506101e16101c836600461116f565b6006602052600090815260409020805460019091015482565b60408051928352602083019190915201610184565b34801561020257600080fd5b5061014661021136600461118c565b6106e8565b34801561022257600080fd5b50600754610236906001600160a01b031681565b60405161018491906111a5565b34801561024f57600080fd5b50600954610236906001600160a01b031681565b34801561026f57600080fd5b5061014661027e3660046111b9565b610767565b34801561028f57600080fd5b50610146610962565b3480156102a457600080fd5b5061017a6102b336600461116f565b610974565b3480156102c457600080fd5b506000546001600160a01b0316610236565b3480156102e257600080fd5b50600854610236906001600160a01b031681565b34801561030257600080fd5b5061017a670de0b6b3a764000081565b34801561031e57600080fd5b506103486040518060400160405280600a815260200169484f475374616b696e6760b01b81525081565b604051610184919061123b565b34801561036157600080fd5b5061017a60025481565b34801561037757600080fd5b5061014661038636600461118c565b610985565b34801561039757600080fd5b50600b54610236906001600160a01b031681565b3480156103b757600080fd5b506101466103c636600461118c565b610b8c565b3480156103d757600080fd5b50600a54610236906001600160a01b031681565b3480156103f757600080fd5b5061017a61040636600461116f565b610bfd565b34801561041757600080fd5b5061017a60045481565b34801561042d57600080fd5b5061014661043c36600461116f565b610c08565b34801561044d57600080fd5b5061017a60055481565b600b546001600160a01b031633146104c25760405162461bcd60e51b8152602060048201526024808201527f484f475374616b696e673a2063616c6c6572206973206e6f7420416374697665604482015263141bdbdb60e21b60648201526084015b60405180910390fd5b565b336000908152600160205260409020546104dd81610c81565b60006104e833610ce5565b905060006104f533610d46565b905061050033610d83565b83156106285760006105128585610df3565b905060006105208583610e0b565b3360009081526001602052604090208190556002549091506105429083610e0b565b60028190556040519081527feaddd2380ec5ec041901814a321c27b96cc79c77874ca35d9bfaf570584406d59060200160405180910390a160075460405163a9059cbb60e01b81526001600160a01b039091169063a9059cbb906105ac9033908690600401611289565b6020604051808303816000875af11580156105cb573d6000803e3d6000fd5b505050506040513d601f19601f820116820180604052508101906105ef91906112a2565b5060405181815233907f39df0e5286a3ef2f42a0bf52f32cfe2c58e5b0405f47fe512f2c2439e4cfe2049060200160405180910390a250505b604080518281526020810184905233917ff744d34ca1cb25acfa4180df5f09a67306107110a9f4b6ed99bb3be259738215910160405180910390a260085460405163a9059cbb60e01b81526001600160a01b039091169063a9059cbb906106959033908590600401611289565b6020604051808303816000875af11580156106b4573d6000803e3d6000fd5b505050506040513d601f19601f820116820180604052508101906106d891906112a2565b506106e282610e17565b50505050565b6106f0610ec9565b6002546000901561071d5760025461071a9061071484670de0b6b3a7640000610f31565b90610f3d565b90505b60055461072a9082610f49565b60058190556040519081527f9db9a90c7ce8e9e0e8224d054a73cdc2521d4b1a391e192e8206ef75f544ad3d906020015b60405180910390a15050565b61076f610f55565b61077886610faf565b61078185610faf565b61078a84610faf565b61079383610faf565b61079c82610faf565b6107a581610faf565b600780546001600160a01b03199081166001600160a01b0389811691909117909255600880548216888416179055600980548216878416179055600a80548216868416179055600b80548216858416179055600380549091169183169190911790556040517f2228d43367ece49cb99c3d3ac6d6df4a289d31f4a2bd9ab1ff590c66f3a4d6c0906108379088906111a5565b60405180910390a17f2228d43367ece49cb99c3d3ac6d6df4a289d31f4a2bd9ab1ff590c66f3a4d6c08560405161086e91906111a5565b60405180910390a17f41097dcc1f7cbd663d822443d7972f05b04f71918b30fe9fc59dd6e42e228060846040516108a591906111a5565b60405180910390a17f5962f8af633c4df1ab230096f773a514ee5adf7785c621ecdcdb764cb7f6e391836040516108dc91906111a5565b60405180910390a17f8f6a6e7d20a3233e0a79883272259ffbd7a243734e397bc2b4642c79d7fa8a6d8260405161091391906111a5565b60405180910390a17f0847fbaccb3e7e2f8fe1e72d819c96f0fca0131ffebf9e9dfe13eb5625b693518160405161094a91906111a5565b60405180910390a161095a610962565b505050505050565b61096a610f55565b6104c26000611054565b600061097f82610ce5565b92915050565b61098e816110a4565b33600090815260016020526040812054908082156109bd576109af33610ce5565b91506109ba33610d46565b90505b6109c633610d83565b60006109d28486610f49565b3360009081526001602052604090208190556002549091506109f49086610f49565b60028190556040519081527feaddd2380ec5ec041901814a321c27b96cc79c77874ca35d9bfaf570584406d59060200160405180910390a16007546040516376052d4f60e11b81526001600160a01b039091169063ec0a5a9e90610a5e9033908990600401611289565b600060405180830381600087803b158015610a7857600080fd5b505af1158015610a8c573d6000803e3d6000fd5b50506040518381523392507f39df0e5286a3ef2f42a0bf52f32cfe2c58e5b0405f47fe512f2c2439e4cfe204915060200160405180910390a2604080518381526020810185905233917ff744d34ca1cb25acfa4180df5f09a67306107110a9f4b6ed99bb3be259738215910160405180910390a28315610b855760085460405163a9059cbb60e01b81526001600160a01b039091169063a9059cbb90610b389033908690600401611289565b6020604051808303816000875af1158015610b57573d6000803e3d6000fd5b505050506040513d601f19601f82011682018060405250810190610b7b91906112a2565b50610b8583610e17565b5050505050565b610b94611100565b60025460009015610bbb57600254610bb89061071484670de0b6b3a7640000610f31565b90505b600454610bc89082610f49565b60048190556040519081527f50cef60b7a39e340bdc94867d1cb7f3efecd836603f2834a235fc8094987cc499060200161075b565b600061097f82610d46565b610c10610f55565b6001600160a01b038116610c755760405162461bcd60e51b815260206004820152602660248201527f4f776e61626c653a206e6577206f776e657220697320746865207a65726f206160448201526564647265737360d01b60648201526084016104b9565b610c7e81611054565b50565b60008111610c7e5760405162461bcd60e51b815260206004820152602b60248201527f484f475374616b696e673a2055736572206d75737420686176652061206e6f6e60448201526a2d7a65726f207374616b6560a81b60648201526084016104b9565b6001600160a01b0381166000908152600660205260408120546004548290610d3e90670de0b6b3a76400009061071490610d1f9086610e0b565b6001600160a01b03881660009081526001602052604090205490610f31565b949350505050565b6001600160a01b0381166000908152600660205260408120600101546005548290610d3e90670de0b6b3a76400009061071490610d1f9086610e0b565b600480546001600160a01b03831660008181526006602090815260409182902093845560055460019094018490559354815192835293820193909352918201527f6b5cf27595af4428271524e0a5abd2b63f6fee1a61e31970490f5a10e257a1cd9060600160405180910390a150565b6000818310610e025781610e04565b825b9392505050565b6000610e0482846112da565b7f6a5eb4d39360dd25d648e3e96a252255bc09ccad2dcdcfdedeb08c857555cd123382604051610e48929190611289565b60405180910390a160035460405163a9059cbb60e01b81526001600160a01b039091169063a9059cbb90610e829033908590600401611289565b6020604051808303816000875af1158015610ea1573d6000803e3d6000fd5b505050506040513d601f19601f82011682018060405250810190610ec591906112a2565b5050565b600a546001600160a01b031633146104c25760405162461bcd60e51b815260206004820152602560248201527f484f475374616b696e673a2063616c6c6572206973206e6f7420426f72726f7760448201526465724f707360d81b60648201526084016104b9565b6000610e0482846112ed565b6000610e048284611304565b6000610e048284611326565b6000546001600160a01b031633146104c25760405162461bcd60e51b815260206004820181905260248201527f4f776e61626c653a2063616c6c6572206973206e6f7420746865206f776e657260448201526064016104b9565b6001600160a01b0381166110055760405162461bcd60e51b815260206004820152601e60248201527f4163636f756e742063616e6e6f74206265207a65726f2061646472657373000060448201526064016104b9565b803b80610ec55760405162461bcd60e51b815260206004820181905260248201527f4163636f756e7420636f64652073697a652063616e6e6f74206265207a65726f60448201526064016104b9565b600080546001600160a01b038381166001600160a01b0319831681178455604051919092169283917f8be0079c531659141344cd1fd0a4f28419497f9722a3daafe3b4186f6b6457e09190a35050565b60008111610c7e5760405162461bcd60e51b815260206004820152602360248201527f484f475374616b696e673a20416d6f756e74206d757374206265206e6f6e2d7a60448201526265726f60e81b60648201526084016104b9565b6009546001600160a01b031633146104c25760405162461bcd60e51b815260206004820181905260248201527f484f475374616b696e673a2063616c6c6572206973206e6f742054726f76654d60448201526064016104b9565b6001600160a01b0381168114610c7e57600080fd5b60006020828403121561118157600080fd5b8135610e048161115a565b60006020828403121561119e57600080fd5b5035919050565b6001600160a01b0391909116815260200190565b60008060008060008060c087890312156111d257600080fd5b86356111dd8161115a565b955060208701356111ed8161115a565b945060408701356111fd8161115a565b9350606087013561120d8161115a565b9250608087013561121d8161115a565b915060a087013561122d8161115a565b809150509295509295509295565b600060208083528351808285015260005b818110156112685785810183015185820160400152820161124c565b506000604082860101526040601f19601f8301168501019250505092915050565b6001600160a01b03929092168252602082015260400190565b6000602082840312156112b457600080fd5b81518015158114610e0457600080fd5b634e487b7160e01b600052601160045260246000fd5b8181038181111561097f5761097f6112c4565b808202811582820484141761097f5761097f6112c4565b60008261132157634e487b7160e01b600052601260045260246000fd5b500490565b8082018082111561097f5761097f6112c456fea2646970667358221220efe2aa2287b05e875967a0dfeac7efdd59e8270a2e671b2154b3313eaa714d8064736f6c63430008130033",
  "devdoc": {
    "kind": "dev",
    "methods": {
      "owner()": {
        "details": "Returns the address of the current owner."
      },
      "renounceOwnership()": {
        "details": "Leaves the contract without owner. It will not be possible to call `onlyOwner` functions. Can only be called by the current owner. NOTE: Renouncing ownership will leave the contract without an owner, thereby disabling any functionality that is only available to the owner."
      },
      "transferOwnership(address)": {
        "details": "Transfers ownership of the contract to a new account (`newOwner`). Can only be called by the current owner."
      }
    },
    "version": 1
  },
  "userdoc": {
    "kind": "user",
    "methods": {},
    "version": 1
  },
  "storageLayout": {
    "storage": [
      {
        "astId": 7,
        "contract": "contracts/HOG/HOGStaking.sol:HOGStaking",
        "label": "_owner",
        "offset": 0,
        "slot": "0",
        "type": "t_address"
      },
      {
        "astId": 3767,
        "contract": "contracts/HOG/HOGStaking.sol:HOGStaking",
        "label": "stakes",
        "offset": 0,
        "slot": "1",
        "type": "t_mapping(t_address,t_uint256)"
      },
      {
        "astId": 3769,
        "contract": "contracts/HOG/HOGStaking.sol:HOGStaking",
        "label": "totalHOGStaked",
        "offset": 0,
        "slot": "2",
        "type": "t_uint256"
      },
      {
        "astId": 3772,
        "contract": "contracts/HOG/HOGStaking.sol:HOGStaking",
        "label": "StETHToken",
        "offset": 0,
        "slot": "3",
        "type": "t_contract(IERC20)190"
      },
      {
        "astId": 3774,
        "contract": "contracts/HOG/HOGStaking.sol:HOGStaking",
        "label": "F_StETH",
        "offset": 0,
        "slot": "4",
        "type": "t_uint256"
      },
      {
        "astId": 3776,
        "contract": "contracts/HOG/HOGStaking.sol:HOGStaking",
        "label": "F_BaseFeeLMA",
        "offset": 0,
        "slot": "5",
        "type": "t_uint256"
      },
      {
        "astId": 3781,
        "contract": "contracts/HOG/HOGStaking.sol:HOGStaking",
        "label": "snapshots",
        "offset": 0,
        "slot": "6",
        "type": "t_mapping(t_address,t_struct(Snapshot)3786_storage)"
      },
      {
        "astId": 3789,
        "contract": "contracts/HOG/HOGStaking.sol:HOGStaking",
        "label": "hogToken",
        "offset": 0,
        "slot": "7",
        "type": "t_contract(IHOGToken)17444"
      },
      {
        "astId": 3792,
        "contract": "contracts/HOG/HOGStaking.sol:HOGStaking",
        "label": "baseFeeLMAToken",
        "offset": 0,
        "slot": "8",
        "type": "t_contract(IBaseFeeLMAToken)16946"
      },
      {
        "astId": 3794,
        "contract": "contracts/HOG/HOGStaking.sol:HOGStaking",
        "label": "troveManagerAddress",
        "offset": 0,
        "slot": "9",
        "type": "t_address"
      },
      {
        "astId": 3796,
        "contract": "contracts/HOG/HOGStaking.sol:HOGStaking",
        "label": "borrowerOperationsAddress",
        "offset": 0,
        "slot": "10",
        "type": "t_address"
      },
      {
        "astId": 3798,
        "contract": "contracts/HOG/HOGStaking.sol:HOGStaking",
        "label": "activePoolAddress",
        "offset": 0,
        "slot": "11",
        "type": "t_address"
      }
    ],
    "types": {
      "t_address": {
        "encoding": "inplace",
        "label": "address",
        "numberOfBytes": "20"
      },
      "t_contract(IBaseFeeLMAToken)16946": {
        "encoding": "inplace",
        "label": "contract IBaseFeeLMAToken",
        "numberOfBytes": "20"
      },
      "t_contract(IERC20)190": {
        "encoding": "inplace",
        "label": "contract IERC20",
        "numberOfBytes": "20"
      },
      "t_contract(IHOGToken)17444": {
        "encoding": "inplace",
        "label": "contract IHOGToken",
        "numberOfBytes": "20"
      },
      "t_mapping(t_address,t_struct(Snapshot)3786_storage)": {
        "encoding": "mapping",
        "key": "t_address",
        "label": "mapping(address => struct HOGStaking.Snapshot)",
        "numberOfBytes": "32",
        "value": "t_struct(Snapshot)3786_storage"
      },
      "t_mapping(t_address,t_uint256)": {
        "encoding": "mapping",
        "key": "t_address",
        "label": "mapping(address => uint256)",
        "numberOfBytes": "32",
        "value": "t_uint256"
      },
      "t_struct(Snapshot)3786_storage": {
        "encoding": "inplace",
        "label": "struct HOGStaking.Snapshot",
        "members": [
          {
            "astId": 3783,
            "contract": "contracts/HOG/HOGStaking.sol:HOGStaking",
            "label": "F_StETH_Snapshot",
            "offset": 0,
            "slot": "0",
            "type": "t_uint256"
          },
          {
            "astId": 3785,
            "contract": "contracts/HOG/HOGStaking.sol:HOGStaking",
            "label": "F_BaseFeeLMA_Snapshot",
            "offset": 0,
            "slot": "1",
            "type": "t_uint256"
          }
        ],
        "numberOfBytes": "64"
      },
      "t_uint256": {
        "encoding": "inplace",
        "label": "uint256",
        "numberOfBytes": "32"
      }
    }
  }
}