{
  "address": "0xFEE1eb29BBecD3DE8e144e60FFe15602eB077320",
  "abi": [
    {
      "inputs": [
        {
          "internalType": "address",
          "name": "_communityIssuanceAddress",
          "type": "address"
        },
        {
          "internalType": "address",
          "name": "_hogStakingAddress",
          "type": "address"
        },
        {
          "internalType": "address",
          "name": "_lockupFactoryAddress",
          "type": "address"
        },
        {
          "internalType": "address",
          "name": "_bountyAddress",
          "type": "address"
        },
        {
          "internalType": "address",
          "name": "_lpRewardsAddress",
          "type": "address"
        },
        {
          "internalType": "address",
          "name": "_multisigAddress",
          "type": "address"
        }
      ],
      "stateMutability": "nonpayable",
      "type": "constructor"
    },
    {
      "anonymous": false,
      "inputs": [
        {
          "indexed": true,
          "internalType": "address",
          "name": "owner",
          "type": "address"
        },
        {
          "indexed": true,
          "internalType": "address",
          "name": "spender",
          "type": "address"
        },
        {
          "indexed": false,
          "internalType": "uint256",
          "name": "value",
          "type": "uint256"
        }
      ],
      "name": "Approval",
      "type": "event"
    },
    {
      "anonymous": false,
      "inputs": [
        {
          "indexed": false,
          "internalType": "address",
          "name": "_communityIssuanceAddress",
          "type": "address"
        }
      ],
      "name": "CommunityIssuanceAddressSet",
      "type": "event"
    },
    {
      "anonymous": false,
      "inputs": [
        {
          "indexed": false,
          "internalType": "address",
          "name": "_hogStakingAddress",
          "type": "address"
        }
      ],
      "name": "HOGStakingAddressSet",
      "type": "event"
    },
    {
      "anonymous": false,
      "inputs": [
        {
          "indexed": false,
          "internalType": "address",
          "name": "_lockupContractFactoryAddress",
          "type": "address"
        }
      ],
      "name": "LockupContractFactoryAddressSet",
      "type": "event"
    },
    {
      "anonymous": false,
      "inputs": [
        {
          "indexed": true,
          "internalType": "address",
          "name": "from",
          "type": "address"
        },
        {
          "indexed": true,
          "internalType": "address",
          "name": "to",
          "type": "address"
        },
        {
          "indexed": false,
          "internalType": "uint256",
          "name": "value",
          "type": "uint256"
        }
      ],
      "name": "Transfer",
      "type": "event"
    },
    {
      "inputs": [],
      "name": "ONE_YEAR_IN_SECONDS",
      "outputs": [
        {
          "internalType": "uint256",
          "name": "",
          "type": "uint256"
        }
      ],
      "stateMutability": "view",
      "type": "function"
    },
    {
      "inputs": [
        {
          "internalType": "address",
          "name": "owner",
          "type": "address"
        },
        {
          "internalType": "address",
          "name": "spender",
          "type": "address"
        }
      ],
      "name": "allowance",
      "outputs": [
        {
          "internalType": "uint256",
          "name": "",
          "type": "uint256"
        }
      ],
      "stateMutability": "view",
      "type": "function"
    },
    {
      "inputs": [
        {
          "internalType": "address",
          "name": "spender",
          "type": "address"
        },
        {
          "internalType": "uint256",
          "name": "amount",
          "type": "uint256"
        }
      ],
      "name": "approve",
      "outputs": [
        {
          "internalType": "bool",
          "name": "",
          "type": "bool"
        }
      ],
      "stateMutability": "nonpayable",
      "type": "function"
    },
    {
      "inputs": [
        {
          "internalType": "address",
          "name": "account",
          "type": "address"
        }
      ],
      "name": "balanceOf",
      "outputs": [
        {
          "internalType": "uint256",
          "name": "",
          "type": "uint256"
        }
      ],
      "stateMutability": "view",
      "type": "function"
    },
    {
      "inputs": [],
      "name": "communityIssuanceAddress",
      "outputs": [
        {
          "internalType": "address",
          "name": "",
          "type": "address"
        }
      ],
      "stateMutability": "view",
      "type": "function"
    },
    {
      "inputs": [],
      "name": "decimals",
      "outputs": [
        {
          "internalType": "uint8",
          "name": "",
          "type": "uint8"
        }
      ],
      "stateMutability": "pure",
      "type": "function"
    },
    {
      "inputs": [
        {
          "internalType": "address",
          "name": "spender",
          "type": "address"
        },
        {
          "internalType": "uint256",
          "name": "subtractedValue",
          "type": "uint256"
        }
      ],
      "name": "decreaseAllowance",
      "outputs": [
        {
          "internalType": "bool",
          "name": "",
          "type": "bool"
        }
      ],
      "stateMutability": "nonpayable",
      "type": "function"
    },
    {
      "inputs": [],
      "name": "domainSeparator",
      "outputs": [
        {
          "internalType": "bytes32",
          "name": "",
          "type": "bytes32"
        }
      ],
      "stateMutability": "view",
      "type": "function"
    },
    {
      "inputs": [],
      "name": "getDeploymentStartTime",
      "outputs": [
        {
          "internalType": "uint256",
          "name": "",
          "type": "uint256"
        }
      ],
      "stateMutability": "view",
      "type": "function"
    },
    {
      "inputs": [],
      "name": "getLpRewardsEntitlement",
      "outputs": [
        {
          "internalType": "uint256",
          "name": "",
          "type": "uint256"
        }
      ],
      "stateMutability": "view",
      "type": "function"
    },
    {
      "inputs": [],
      "name": "hogStakingAddress",
      "outputs": [
        {
          "internalType": "address",
          "name": "",
          "type": "address"
        }
      ],
      "stateMutability": "view",
      "type": "function"
    },
    {
      "inputs": [
        {
          "internalType": "address",
          "name": "spender",
          "type": "address"
        },
        {
          "internalType": "uint256",
          "name": "addedValue",
          "type": "uint256"
        }
      ],
      "name": "increaseAllowance",
      "outputs": [
        {
          "internalType": "bool",
          "name": "",
          "type": "bool"
        }
      ],
      "stateMutability": "nonpayable",
      "type": "function"
    },
    {
      "inputs": [],
      "name": "lockupContractFactory",
      "outputs": [
        {
          "internalType": "contract ILockupContractFactory",
          "name": "",
          "type": "address"
        }
      ],
      "stateMutability": "view",
      "type": "function"
    },
    {
      "inputs": [],
      "name": "multisigAddress",
      "outputs": [
        {
          "internalType": "address",
          "name": "",
          "type": "address"
        }
      ],
      "stateMutability": "view",
      "type": "function"
    },
    {
      "inputs": [],
      "name": "name",
      "outputs": [
        {
          "internalType": "string",
          "name": "",
          "type": "string"
        }
      ],
      "stateMutability": "pure",
      "type": "function"
    },
    {
      "inputs": [
        {
          "internalType": "address",
          "name": "owner",
          "type": "address"
        }
      ],
      "name": "nonces",
      "outputs": [
        {
          "internalType": "uint256",
          "name": "",
          "type": "uint256"
        }
      ],
      "stateMutability": "view",
      "type": "function"
    },
    {
      "inputs": [
        {
          "internalType": "address",
          "name": "owner",
          "type": "address"
        },
        {
          "internalType": "address",
          "name": "spender",
          "type": "address"
        },
        {
          "internalType": "uint256",
          "name": "amount",
          "type": "uint256"
        },
        {
          "internalType": "uint256",
          "name": "deadline",
          "type": "uint256"
        },
        {
          "internalType": "uint8",
          "name": "v",
          "type": "uint8"
        },
        {
          "internalType": "bytes32",
          "name": "r",
          "type": "bytes32"
        },
        {
          "internalType": "bytes32",
          "name": "s",
          "type": "bytes32"
        }
      ],
      "name": "permit",
      "outputs": [],
      "stateMutability": "nonpayable",
      "type": "function"
    },
    {
      "inputs": [],
      "name": "permitTypeHash",
      "outputs": [
        {
          "internalType": "bytes32",
          "name": "",
          "type": "bytes32"
        }
      ],
      "stateMutability": "pure",
      "type": "function"
    },
    {
      "inputs": [
        {
          "internalType": "address",
          "name": "_sender",
          "type": "address"
        },
        {
          "internalType": "uint256",
          "name": "_amount",
          "type": "uint256"
        }
      ],
      "name": "sendToHOGStaking",
      "outputs": [],
      "stateMutability": "nonpayable",
      "type": "function"
    },
    {
      "inputs": [],
      "name": "symbol",
      "outputs": [
        {
          "internalType": "string",
          "name": "",
          "type": "string"
        }
      ],
      "stateMutability": "pure",
      "type": "function"
    },
    {
      "inputs": [],
      "name": "totalSupply",
      "outputs": [
        {
          "internalType": "uint256",
          "name": "",
          "type": "uint256"
        }
      ],
      "stateMutability": "view",
      "type": "function"
    },
    {
      "inputs": [
        {
          "internalType": "address",
          "name": "recipient",
          "type": "address"
        },
        {
          "internalType": "uint256",
          "name": "amount",
          "type": "uint256"
        }
      ],
      "name": "transfer",
      "outputs": [
        {
          "internalType": "bool",
          "name": "",
          "type": "bool"
        }
      ],
      "stateMutability": "nonpayable",
      "type": "function"
    },
    {
      "inputs": [
        {
          "internalType": "address",
          "name": "sender",
          "type": "address"
        },
        {
          "internalType": "address",
          "name": "recipient",
          "type": "address"
        },
        {
          "internalType": "uint256",
          "name": "amount",
          "type": "uint256"
        }
      ],
      "name": "transferFrom",
      "outputs": [
        {
          "internalType": "bool",
          "name": "",
          "type": "bool"
        }
      ],
      "stateMutability": "nonpayable",
      "type": "function"
    },
    {
      "inputs": [],
      "name": "version",
      "outputs": [
        {
          "internalType": "string",
          "name": "",
          "type": "string"
        }
      ],
      "stateMutability": "pure",
      "type": "function"
    }
  ],
  "transactionHash": "0xb95a8ffa712b825d19298995d4aa27c35f553f8bde703fa81afd31d789a67b79",
  "args": [
    "0x01c0270639F7098c7C689c9490EA4d09f1E76efd",
    "0x9DD3C04aC579bD3C6c68e2f2BCeD4Eba62C20Bfa",
    "0xCa27E4834a9C472471F580b02b2D59a8C6F75013",
    "0x796EcfBe7a2A424f9D905dfC38b8994aB2db9FD6",
    "0x796EcfBe7a2A424f9D905dfC38b8994aB2db9FD6",
    "0x796EcfBe7a2A424f9D905dfC38b8994aB2db9FD6"
  ],
  "numDeployments": 1,
  "solcInputHash": "0a336cd10b8d647251805c96a006a1ea",
  "bytecode": "0x6101c060405269d3c21bcecceda10000006004553480156200002057600080fd5b50604051620019623803806200196283398101604081905262000043916200042c565b6200004e8662000239565b620000598562000239565b620000648462000239565b6001600160a01b03818116610120524261010052868116610140528581166101605284166101a05260408051808201825260088152674865646765686f6760c01b6020918201528151808301835260018152603160f81b908201527f3e3b338be0a9483d9643312a03e09df6325a84306d81643784c442d7ce5515b360c08181527fc89efdaa54c0f20c7adf612882df0950f5a951637e0307cdcb4c672f298b8bc660e08190524660a081815286517f8b73c3c69bb8fe3d512ecc4cf759cc79239f7b179b0ffacaa9a75d522b39400f81880152808801869052606081018490526080808201939093523081830152875180820390920182529093019095528151919093012090925260045460009062000180906002620002ea565b90506200018e868262000301565b600454600090620001a1906020620002ea565b9050620001af8a8262000301565b6000620001d56003620001ce60048054620002ea60201b90919060201c565b90620003e5565b6101808190529050620001e9878262000301565b6000620002198262000212856200021288620002126064600454620002ea60201b90919060201c565b90620003f3565b905062000227878262000301565b5050505050505050505050506200052c565b6001600160a01b038116620002955760405162461bcd60e51b815260206004820152601e60248201527f4163636f756e742063616e6e6f74206265207a65726f2061646472657373000060448201526064015b60405180910390fd5b803b80620002e65760405162461bcd60e51b815260206004820181905260248201527f4163636f756e7420636f64652073697a652063616e6e6f74206265207a65726f60448201526064016200028c565b5050565b6000620002f88284620004c3565b90505b92915050565b6001600160a01b038216620003595760405162461bcd60e51b815260206004820152601f60248201527f45524332303a206d696e7420746f20746865207a65726f20616464726573730060448201526064016200028c565b60025462000368908262000401565b6002556001600160a01b03821660009081526020819052604090205462000390908262000401565b6001600160a01b038316600081815260208181526040808320949094559251848152919290917fddf252ad1be2c89b69c2b068fc378daa952ba7f163c4a11628f55a4df523b3ef910160405180910390a35050565b6000620002f88284620004dd565b6000620002f8828462000500565b6000620002f8828462000516565b80516001600160a01b03811681146200042757600080fd5b919050565b60008060008060008060c087890312156200044657600080fd5b62000451876200040f565b955062000461602088016200040f565b945062000471604088016200040f565b935062000481606088016200040f565b925062000491608088016200040f565b9150620004a160a088016200040f565b90509295509295509295565b634e487b7160e01b600052601160045260246000fd5b8082028115828204841417620002fb57620002fb620004ad565b600082620004fb57634e487b7160e01b600052601260045260246000fd5b500490565b81810381811115620002fb57620002fb620004ad565b80820180821115620002fb57620002fb620004ad565b60805160a05160c05160e05161010051610120516101405161016051610180516101a051611382620005e0600039600081816102fc0152610f480152600061033f0152600081816104210152818161081301528181610c76015261103f0152600081816103a30152610c3901526000818161024e01528181610af50152610f05015260008181610225015261093b015260006108e0015260006108bb015260006108400152600061086801526113826000f3fe608060405234801561001057600080fd5b50600436106101585760003560e01c8063811c5b4d116100c3578063d874ea741161007c578063d874ea741461039e578063dd62ed3e146103c5578063e7c8fed4146103fe578063ec0a5a9e14610409578063f633e7431461041c578063f698da251461044357600080fd5b8063811c5b4d146102f757806395d89b411461031e578063974f55901461033d578063a457c2d714610363578063a9059cbb14610376578063d505accf1461038957600080fd5b8063395093511161011557806339509351146102105780633c84b7c2146102235780635462870d1461024957806354fd4d501461028857806370a08231146102a55780637ecebe00146102ce57600080fd5b806306fdde031461015d578063095ea7b31461019357806310ce43bd146101b657806318160ddd146101e657806323b872dd146101ee578063313ce56714610201575b600080fd5b6040805180820190915260088152674865646765686f6760c01b60208201525b60405161018a91906110d1565b60405180910390f35b6101a66101a136600461113b565b61044b565b604051901515815260200161018a565b7f6e71edae12b1b97f4d1f60370fef10105fa2faae0126114a169c64845d6126c95b60405190815260200161018a565b6002546101d8565b6101a66101fc366004611165565b610477565b6040516012815260200161018a565b6101a661021e36600461113b565b6104ff565b7f00000000000000000000000000000000000000000000000000000000000000006101d8565b6102707f000000000000000000000000000000000000000000000000000000000000000081565b6040516001600160a01b03909116815260200161018a565b6040805180820190915260018152603160f81b602082015261017d565b6101d86102b33660046111a1565b6001600160a01b031660009081526020819052604090205490565b6101d86102dc3660046111a1565b6001600160a01b031660009081526003602052604090205490565b6102707f000000000000000000000000000000000000000000000000000000000000000081565b604080518082019091526003815262484f4760e81b602082015261017d565b7f00000000000000000000000000000000000000000000000000000000000000006101d8565b6101a661037136600461113b565b61054b565b6101a661038436600461113b565b6105af565b61039c6103973660046111bc565b6105ea565b005b6102707f000000000000000000000000000000000000000000000000000000000000000081565b6101d86103d336600461122f565b6001600160a01b03918216600090815260016020908152604080832093909416825291909152205490565b6101d86301e1338081565b61039c61041736600461113b565b6107ef565b6102707f000000000000000000000000000000000000000000000000000000000000000081565b6101d861083c565b600061045561092e565b1561046257610462610965565b61046d3384846109ce565b5060015b92915050565b600061048161092e565b1561048f5761048f84610af3565b61049883610b89565b6104a3848484610d38565b6104f584336104f085604051806060016040528060288152602001611300602891396001600160a01b038a1660009081526001602090815260408083203384529091529020549190610ebb565b6109ce565b5060019392505050565b600061050961092e565b1561051657610516610965565b3360008181526001602090815260408083206001600160a01b038816845290915290205461046d919085906104f09086610ee7565b600061055561092e565b1561056257610562610965565b61046d33846104f085604051806060016040528060258152602001611328602591393360009081526001602090815260408083206001600160a01b038d1684529091529020549190610ebb565b60006105b9610efa565b80156105c857506105c861092e565b156105d6576105d683610f29565b6105df83610b89565b61046d338484610d38565b428410156106375760405162461bcd60e51b8152602060048201526015602482015274484f473a206578706972656420646561646c696e6560581b60448201526064015b60405180910390fd5b600061064161083c565b6001600160a01b038916600090815260036020526040812080547f6e71edae12b1b97f4d1f60370fef10105fa2faae0126114a169c64845d6126c9928c928c928c9290919061068f83611278565b909155506040805160208101969096526001600160a01b0394851690860152929091166060840152608083015260a082015260c0810187905260e0016040516020818303038152906040528051906020012060405160200161070892919061190160f01b81526002810192909252602282015260420190565b60408051601f198184030181528282528051602091820120600080855291840180845281905260ff88169284019290925260608301869052608083018590529092509060019060a0016020604051602081039080840390855afa158015610773573d6000803e3d6000fd5b505050602060405103519050886001600160a01b0316816001600160a01b0316146107d95760405162461bcd60e51b8152602060048201526016602482015275484f473a20696e76616c6964207369676e617475726560501b604482015260640161062e565b6107e48989896109ce565b505050505050505050565b6107f7611034565b6107ff61092e565b1561080d5761080d82610af3565b610838827f000000000000000000000000000000000000000000000000000000000000000083610d38565b5050565b60007f0000000000000000000000000000000000000000000000000000000000000000460361088a57507f000000000000000000000000000000000000000000000000000000000000000090565b50604080517f8b73c3c69bb8fe3d512ecc4cf759cc79239f7b179b0ffacaa9a75d522b39400f6020808301919091527f0000000000000000000000000000000000000000000000000000000000000000828401527f000000000000000000000000000000000000000000000000000000000000000060608301524660808301523060a0808401919091528351808403909101815260c0909201909252805191012090565b60006301e1338061095f427f00000000000000000000000000000000000000000000000000000000000000006110c5565b10905090565b61096d610efa565b156109cc5760405162461bcd60e51b815260206004820152602960248201527f484f47546f6b656e3a2063616c6c6572206d757374206e6f7420626520746865604482015268206d756c746973696760b81b606482015260840161062e565b565b6001600160a01b038316610a305760405162461bcd60e51b8152602060048201526024808201527f45524332303a20617070726f76652066726f6d20746865207a65726f206164646044820152637265737360e01b606482015260840161062e565b6001600160a01b038216610a915760405162461bcd60e51b815260206004820152602260248201527f45524332303a20617070726f766520746f20746865207a65726f206164647265604482015261737360f01b606482015260840161062e565b6001600160a01b0383811660008181526001602090815260408083209487168084529482529182902085905590518481527f8c5be1e5ebec7d5bd14f71427d1e84f3dd0314c0f7b2291e5b200ac8c7c3b92591015b60405180910390a3505050565b7f00000000000000000000000000000000000000000000000000000000000000006001600160a01b0316816001600160a01b031603610b865760405162461bcd60e51b815260206004820152602960248201527f484f47546f6b656e3a2073656e646572206d757374206e6f7420626520746865604482015268206d756c746973696760b81b606482015260840161062e565b50565b6001600160a01b03811615801590610baa57506001600160a01b0381163014155b610c375760405162461bcd60e51b815260206004820152605260248201527f484f473a2043616e6e6f74207472616e7366657220746f6b656e73206469726560448201527f63746c7920746f2074686520484f4720746f6b656e20636f6e7472616374206f6064820152717220746865207a65726f206164647265737360701b608482015260a40161062e565b7f00000000000000000000000000000000000000000000000000000000000000006001600160a01b0316816001600160a01b031614158015610cab57507f00000000000000000000000000000000000000000000000000000000000000006001600160a01b0316816001600160a01b031614155b610b865760405162461bcd60e51b815260206004820152605260248201527f484f473a2043616e6e6f74207472616e7366657220746f6b656e73206469726560448201527f63746c7920746f2074686520636f6d6d756e6974792069737375616e6365206f6064820152711c881cdd185ada5b99c818dbdb9d1c9858dd60721b608482015260a40161062e565b6001600160a01b038316610d9c5760405162461bcd60e51b815260206004820152602560248201527f45524332303a207472616e736665722066726f6d20746865207a65726f206164604482015264647265737360d81b606482015260840161062e565b6001600160a01b038216610dfe5760405162461bcd60e51b815260206004820152602360248201527f45524332303a207472616e7366657220746f20746865207a65726f206164647260448201526265737360e81b606482015260840161062e565b610e3b816040518060600160405280602681526020016112da602691396001600160a01b0386166000908152602081905260409020549190610ebb565b6001600160a01b038085166000908152602081905260408082209390935590841681522054610e6a9082610ee7565b6001600160a01b038381166000818152602081815260409182902094909455518481529092918616917fddf252ad1be2c89b69c2b068fc378daa952ba7f163c4a11628f55a4df523b3ef9101610ae6565b60008184841115610edf5760405162461bcd60e51b815260040161062e91906110d1565b505050900390565b6000610ef38284611291565b9392505050565b336001600160a01b037f0000000000000000000000000000000000000000000000000000000000000000161490565b60405163bb7603f160e01b81526001600160a01b0382811660048301527f0000000000000000000000000000000000000000000000000000000000000000169063bb7603f190602401602060405180830381865afa158015610f8f573d6000803e3d6000fd5b505050506040513d601f19601f82011682018060405250810190610fb391906112a4565b610b865760405162461bcd60e51b815260206004820152604660248201527f484f47546f6b656e3a20726563697069656e74206d7573742062652061204c6f60448201527f636b7570436f6e7472616374207265676973746572656420696e2074686520466064820152656163746f727960d01b608482015260a40161062e565b336001600160a01b037f000000000000000000000000000000000000000000000000000000000000000016146109cc5760405162461bcd60e51b815260206004820152603060248201527f484f47546f6b656e3a2063616c6c6572206d7573742062652074686520484f4760448201526f14dd185ada5b99c818dbdb9d1c9858dd60821b606482015260840161062e565b6000610ef382846112c6565b600060208083528351808285015260005b818110156110fe578581018301518582016040015282016110e2565b506000604082860101526040601f19601f8301168501019250505092915050565b80356001600160a01b038116811461113657600080fd5b919050565b6000806040838503121561114e57600080fd5b6111578361111f565b946020939093013593505050565b60008060006060848603121561117a57600080fd5b6111838461111f565b92506111916020850161111f565b9150604084013590509250925092565b6000602082840312156111b357600080fd5b610ef38261111f565b600080600080600080600060e0888a0312156111d757600080fd5b6111e08861111f565b96506111ee6020890161111f565b95506040880135945060608801359350608088013560ff8116811461121257600080fd5b9699959850939692959460a0840135945060c09093013592915050565b6000806040838503121561124257600080fd5b61124b8361111f565b91506112596020840161111f565b90509250929050565b634e487b7160e01b600052601160045260246000fd5b60006001820161128a5761128a611262565b5060010190565b8082018082111561047157610471611262565b6000602082840312156112b657600080fd5b81518015158114610ef357600080fd5b818103818111156104715761047161126256fe45524332303a207472616e7366657220616d6f756e7420657863656564732062616c616e636545524332303a207472616e7366657220616d6f756e74206578636565647320616c6c6f77616e636545524332303a2064656372656173656420616c6c6f77616e63652062656c6f77207a65726fa264697066735822122068b04da0444ef8e535c08ec4de5359f361b7e40533c7b9452409083ec2dd075564736f6c63430008130033",
  "devdoc": {
    "events": {
      "Approval(address,address,uint256)": {
        "details": "Emitted when the allowance of a `spender` for an `owner` is set by a call to {approve}. `value` is the new allowance."
      },
      "Transfer(address,address,uint256)": {
        "details": "Emitted when `value` tokens are moved from one account (`from`) to another (`to`). Note that `value` may be zero."
      }
    },
    "kind": "dev",
    "methods": {
      "allowance(address,address)": {
        "details": "Returns the remaining number of tokens that `spender` will be allowed to spend on behalf of `owner` through {transferFrom}. This is zero by default. This value changes when {approve} or {transferFrom} are called."
      },
      "approve(address,uint256)": {
        "details": "Sets `amount` as the allowance of `spender` over the caller's tokens. Returns a boolean value indicating whether the operation succeeded. IMPORTANT: Beware that changing an allowance with this method brings the risk that someone may use both the old and the new allowance by unfortunate transaction ordering. One possible solution to mitigate this race condition is to first reduce the spender's allowance to 0 and set the desired value afterwards: https://github.com/ethereum/EIPs/issues/20#issuecomment-263524729 Emits an {Approval} event."
      },
      "balanceOf(address)": {
        "details": "Returns the amount of tokens owned by `account`."
      },
      "nonces(address)": {
        "details": "Returns the current ERC2612 nonce for `owner`. This value must be included whenever a signature is generated for {permit}. Every successful call to {permit} increases `owner`'s nonce by one. This prevents a signature from being used multiple times. `owner` can limit the time a Permit is valid for by setting `deadline` to a value in the near future. The deadline argument can be set to uint(-1) to create Permits that effectively never expire."
      },
      "permit(address,address,uint256,uint256,uint8,bytes32,bytes32)": {
        "details": "Sets `amount` as the allowance of `spender` over `owner`'s tokens, given `owner`'s signed approval. IMPORTANT: The same issues {IERC20-approve} has related to transaction ordering also apply here. Emits an {Approval} event. Requirements: - `owner` cannot be the zero address. - `spender` cannot be the zero address. - `deadline` must be a timestamp in the future. - `v`, `r` and `s` must be a valid `secp256k1` signature from `owner` over the EIP712-formatted function arguments. - the signature must use ``owner``'s current nonce (see {nonces}). For more information on the signature format, see the https://eips.stETHeum.org/EIPS/eip-2612#specification[relevant EIP section]."
      },
      "totalSupply()": {
        "details": "Returns the amount of tokens in existence."
      }
    },
    "version": 1
  },
  "userdoc": {
    "kind": "user",
    "methods": {},
    "notice": "Token's functionality based on HOG token.  Functions logic remains unchanged. Changes to the contract: - Raised pragma version - Removed an import of Token Interface Even though SafeMath is no longer required, the decision was made to keep it to avoid human factor errors Based upon OpenZeppelin's ERC20 contract: https://github.com/OpenZeppelin/openzeppelin-contracts/blob/master/contracts/token/ERC20/ERC20.sol   and their EIP2612 (ERC20Permit / ERC712) functionality: https://github.com/OpenZeppelin/openzeppelin-contracts/blob/53516bc555a454862470e7860a9b5254db4d00f5/contracts/token/ERC20/ERC20Permit.sol   --- Functionality added specific to the HOG ---  1) Transfer protection: blacklist of addresses that are invalid recipients (i.e. core Liquity contracts) in external  transfer() and transferFrom() calls. The purpose is to protect users from losing tokens by mistakenly sending HOG directly to a Liquity core contract, when they should rather call the right function. 2) sendToHOGStaking(): callable only by Hedgehog core contracts, which move HOG tokens from user -> HOGStaking contract. 3) Supply hard-capped at 100 million 4) CommunityIssuance and LockupContractFactory addresses are set at deployment 5) The bug bounties / hackathons allocation of 2 million tokens is minted at deployment to an EOA 6) 32 million tokens are minted at deployment to the CommunityIssuance contract 7) The LP rewards allocation of (1 + 1/3) million tokens is minted at deployent to a Staking contract 8) (64 + 2/3) million tokens are minted at deployment to the Hedgehog multisig 9) Until one year from deployment: -Hedgehog multisig may only transfer() tokens to LockupContracts that have been deployed via & registered in the   LockupContractFactory  -approve(), increaseAllowance(), decreaseAllowance() revert when called by the multisig -transferFrom() reverts when the multisig is the sender -sendToHOGStaking() reverts when the multisig is the sender, blocking the multisig from staking its HOG.  After one year has passed since deployment of the HOGToken, the restrictions on multisig operations are lifted and the multisig has the same rights as any other address.",
    "version": 1
  },
  "storageLayout": {
    "storage": [
      {
        "astId": 8633,
        "contract": "contracts/HOG/HOGToken.sol:HOGToken",
        "label": "_balances",
        "offset": 0,
        "slot": "0",
        "type": "t_mapping(t_address,t_uint256)"
      },
      {
        "astId": 8639,
        "contract": "contracts/HOG/HOGToken.sol:HOGToken",
        "label": "_allowances",
        "offset": 0,
        "slot": "1",
        "type": "t_mapping(t_address,t_mapping(t_address,t_uint256))"
      },
      {
        "astId": 8641,
        "contract": "contracts/HOG/HOGToken.sol:HOGToken",
        "label": "_totalSupply",
        "offset": 0,
        "slot": "2",
        "type": "t_uint256"
      },
      {
        "astId": 8659,
        "contract": "contracts/HOG/HOGToken.sol:HOGToken",
        "label": "_nonces",
        "offset": 0,
        "slot": "3",
        "type": "t_mapping(t_address,t_uint256)"
      },
      {
        "astId": 8665,
        "contract": "contracts/HOG/HOGToken.sol:HOGToken",
        "label": "_1_MILLION",
        "offset": 0,
        "slot": "4",
        "type": "t_uint256"
      }
    ],
    "types": {
      "t_address": {
        "encoding": "inplace",
        "label": "address",
        "numberOfBytes": "20"
      },
      "t_mapping(t_address,t_mapping(t_address,t_uint256))": {
        "encoding": "mapping",
        "key": "t_address",
        "label": "mapping(address => mapping(address => uint256))",
        "numberOfBytes": "32",
        "value": "t_mapping(t_address,t_uint256)"
      },
      "t_mapping(t_address,t_uint256)": {
        "encoding": "mapping",
        "key": "t_address",
        "label": "mapping(address => uint256)",
        "numberOfBytes": "32",
        "value": "t_uint256"
      },
      "t_uint256": {
        "encoding": "inplace",
        "label": "uint256",
        "numberOfBytes": "32"
      }
    }
  }
}