{
  "address": "0xF89B4b8c0687F4D342803469F7df4b348D3B24c5",
  "abi": [
    {
      "inputs": [
        {
          "internalType": "contract TroveManager",
          "name": "_troveManager",
          "type": "address"
        },
        {
          "internalType": "contract ISortedTroves",
          "name": "_sortedTroves",
          "type": "address"
        }
      ],
      "stateMutability": "nonpayable",
      "type": "constructor"
    },
    {
      "inputs": [
        {
          "internalType": "int256",
          "name": "_startIdx",
          "type": "int256"
        },
        {
          "internalType": "uint256",
          "name": "_count",
          "type": "uint256"
        }
      ],
      "name": "getMultipleSortedTroves",
      "outputs": [
        {
          "components": [
            {
              "internalType": "address",
              "name": "owner",
              "type": "address"
            },
            {
              "internalType": "uint256",
              "name": "debt",
              "type": "uint256"
            },
            {
              "internalType": "uint256",
              "name": "coll",
              "type": "uint256"
            },
            {
              "internalType": "uint256",
              "name": "stake",
              "type": "uint256"
            },
            {
              "internalType": "uint256",
              "name": "snapshotETH",
              "type": "uint256"
            },
            {
              "internalType": "uint256",
              "name": "snapshotBaseFeeLMADebt",
              "type": "uint256"
            }
          ],
          "internalType": "struct MultiTroveGetter.CombinedTroveData[]",
          "name": "_troves",
          "type": "tuple[]"
        }
      ],
      "stateMutability": "view",
      "type": "function"
    },
    {
      "inputs": [],
      "name": "sortedTroves",
      "outputs": [
        {
          "internalType": "contract ISortedTroves",
          "name": "",
          "type": "address"
        }
      ],
      "stateMutability": "view",
      "type": "function"
    },
    {
      "inputs": [],
      "name": "troveManager",
      "outputs": [
        {
          "internalType": "contract TroveManager",
          "name": "",
          "type": "address"
        }
      ],
      "stateMutability": "view",
      "type": "function"
    }
  ],
  "transactionHash": "0xed1ef4ced91aeae8571afda1dd767fa6e3415703ccc0ab4e47da60c8da00b6c2",
  "args": [
    "0x2Eb30ffD360Db21347443efd1a421536915e48e1",
    "0x80054332F6628e13068A8F2A8A82919804320643"
  ],
  "numDeployments": 1,
  "solcInputHash": "12e72a8935c547e69b961442ac1acb6d",
  "bytecode": "0x608060405234801561001057600080fd5b50604051610c79380380610c7983398101604081905261002f91610078565b600080546001600160a01b039384166001600160a01b031991821617909155600180549290931691161790556100b2565b6001600160a01b038116811461007557600080fd5b50565b6000806040838503121561008b57600080fd5b825161009681610060565b60208401519092506100a781610060565b809150509250929050565b610bb8806100c16000396000f3fe608060405234801561001057600080fd5b50600436106100415760003560e01c80633d83908a14610046578063ae9187541461006f578063b90bce4514610082575b600080fd5b600054610059906001600160a01b031681565b6040516100669190610947565b60405180910390f35b600154610059906001600160a01b031681565b61009561009036600461095b565b6100a2565b604051610066919061097d565b6060600080600085126100ba575083905060016100d5565b6100c5856001610a14565b6100ce90610a34565b9150600090505b6001546040805163de8fa43160e01b815290516000926001600160a01b03169163de8fa4319160048083019260209291908290030181865afa15801561011f573d6000803e3d6000fd5b505050506040513d601f19601f820116820180604052508101906101439190610a50565b905080831061018557604080516000808252602082019092529061017d565b61016a610908565b8152602001906001900390816101625790505b5093506101c5565b60006101918483610a7f565b90508086111561019f578095505b82156101b6576101af84876101ce565b94506101c3565b6101c0848761056f565b94505b505b50505092915050565b60606000600160009054906101000a90046001600160a01b03166001600160a01b0316631e2231436040518163ffffffff1660e01b8152600401602060405180830381865afa158015610225573d6000803e3d6000fd5b505050506040513d601f19601f820116820180604052508101906102499190610a98565b905060005b848110156102d95760015460405163765e015960e01b81526001600160a01b039091169063765e015990610286908590600401610947565b602060405180830381865afa1580156102a3573d6000803e3d6000fd5b505050506040513d601f19601f820116820180604052508101906102c79190610a98565b91506102d281610ac8565b905061024e565b508267ffffffffffffffff8111156102f3576102f3610a69565b60405190808252806020026020018201604052801561032c57816020015b610319610908565b8152602001906001900390816103115790505b50915060005b83811015610567578183828151811061034d5761034d610ae1565b60209081029190910101516001600160a01b039182169052600054604051630ddec86760e31b8152911690636ef643389061038c908590600401610947565b60a060405180830381865afa1580156103a9573d6000803e3d6000fd5b505050506040513d601f19601f820116820180604052508101906103cd9190610af7565b9050508584815181106103e2576103e2610ae1565b60200260200101516020018685815181106103ff576103ff610ae1565b602002602001015160400187868151811061041c5761041c610ae1565b60209081029190910101516060019290925291905252600054604051630b39e3cd60e11b81526001600160a01b0390911690631673c79a90610462908590600401610947565b6040805180830381865afa15801561047e573d6000803e3d6000fd5b505050506040513d601f19601f820116820180604052508101906104a29190610b5e565b8483815181106104b4576104b4610ae1565b60200260200101516080018584815181106104d1576104d1610ae1565b602090810291909101015160a001919091525260015460405163765e015960e01b81526001600160a01b039091169063765e015990610514908590600401610947565b602060405180830381865afa158015610531573d6000803e3d6000fd5b505050506040513d601f19601f820116820180604052508101906105559190610a98565b915061056081610ac8565b9050610332565b505092915050565b60606000600160009054906101000a90046001600160a01b03166001600160a01b0316634d6228316040518163ffffffff1660e01b8152600401602060405180830381865afa1580156105c6573d6000803e3d6000fd5b505050506040513d601f19601f820116820180604052508101906105ea9190610a98565b905060005b8481101561067a57600154604051632dc9c0eb60e21b81526001600160a01b039091169063b72703ac90610627908590600401610947565b602060405180830381865afa158015610644573d6000803e3d6000fd5b505050506040513d601f19601f820116820180604052508101906106689190610a98565b915061067381610ac8565b90506105ef565b508267ffffffffffffffff81111561069457610694610a69565b6040519080825280602002602001820160405280156106cd57816020015b6106ba610908565b8152602001906001900390816106b25790505b50915060005b8381101561056757818382815181106106ee576106ee610ae1565b60209081029190910101516001600160a01b039182169052600054604051630ddec86760e31b8152911690636ef643389061072d908590600401610947565b60a060405180830381865afa15801561074a573d6000803e3d6000fd5b505050506040513d601f19601f8201168201806040525081019061076e9190610af7565b90505085848151811061078357610783610ae1565b60200260200101516020018685815181106107a0576107a0610ae1565b60200260200101516040018786815181106107bd576107bd610ae1565b60209081029190910101516060019290925291905252600054604051630b39e3cd60e11b81526001600160a01b0390911690631673c79a90610803908590600401610947565b6040805180830381865afa15801561081f573d6000803e3d6000fd5b505050506040513d601f19601f820116820180604052508101906108439190610b5e565b84838151811061085557610855610ae1565b602002602001015160800185848151811061087257610872610ae1565b602090810291909101015160a0019190915252600154604051632dc9c0eb60e21b81526001600160a01b039091169063b72703ac906108b5908590600401610947565b602060405180830381865afa1580156108d2573d6000803e3d6000fd5b505050506040513d601f19601f820116820180604052508101906108f69190610a98565b915061090181610ac8565b90506106d3565b6040518060c0016040528060006001600160a01b0316815260200160008152602001600081526020016000815260200160008152602001600081525090565b6001600160a01b0391909116815260200190565b6000806040838503121561096e57600080fd5b50508035926020909101359150565b602080825282518282018190526000919060409081850190868401855b828110156109f157815180516001600160a01b0316855286810151878601528581015186860152606080820151908601526080808201519086015260a0908101519085015260c0909301929085019060010161099a565b5091979650505050505050565b634e487b7160e01b600052601160045260246000fd5b8082018281126000831280158216821582161715610567576105676109fe565b6000600160ff1b8201610a4957610a496109fe565b5060000390565b600060208284031215610a6257600080fd5b5051919050565b634e487b7160e01b600052604160045260246000fd5b81810381811115610a9257610a926109fe565b92915050565b600060208284031215610aaa57600080fd5b81516001600160a01b0381168114610ac157600080fd5b9392505050565b600060018201610ada57610ada6109fe565b5060010190565b634e487b7160e01b600052603260045260246000fd5b600080600080600060a08688031215610b0f57600080fd5b855194506020860151935060408601519250606086015160058110610b3357600080fd5b60808701519092506001600160801b0381168114610b5057600080fd5b809150509295509295909350565b60008060408385031215610b7157600080fd5b50508051602090910151909290915056fea26469706673582212209d28296bd95952c958ff2dc7a121149819bea60e71957a21ee169472aea1bf2964736f6c63430008130033",
  "devdoc": {
    "kind": "dev",
    "methods": {},
    "version": 1
  },
  "userdoc": {
    "kind": "user",
    "methods": {},
    "version": 1
  },
  "storageLayout": {
    "storage": [
      {
        "astId": 545,
        "contract": "contracts/MultiTroveGetter.sol:MultiTroveGetter",
        "label": "troveManager",
        "offset": 0,
        "slot": "0",
        "type": "t_contract(TroveManager)7186"
      },
      {
        "astId": 548,
        "contract": "contracts/MultiTroveGetter.sol:MultiTroveGetter",
        "label": "sortedTroves",
        "offset": 0,
        "slot": "1",
        "type": "t_contract(ISortedTroves)8630"
      }
    ],
    "types": {
      "t_contract(ISortedTroves)8630": {
        "encoding": "inplace",
        "label": "contract ISortedTroves",
        "numberOfBytes": "20"
      },
      "t_contract(TroveManager)7186": {
        "encoding": "inplace",
        "label": "contract TroveManager",
        "numberOfBytes": "20"
      }
    }
  }
}