{
  "address": "0x2Eb30ffD360Db21347443efd1a421536915e48e1",
  "abi": [
    {
      "anonymous": false,
      "inputs": [
        {
          "indexed": false,
          "internalType": "address",
          "name": "_activePoolAddress",
          "type": "address"
        }
      ],
      "name": "ActivePoolAddressChanged",
      "type": "event"
    },
    {
      "anonymous": false,
      "inputs": [
        {
          "indexed": false,
          "internalType": "address",
          "name": "_newBaseFeeLMATokenAddress",
          "type": "address"
        }
      ],
      "name": "BaseFeeLMATokenAddressChanged",
      "type": "event"
    },
    {
      "anonymous": false,
      "inputs": [
        {
          "indexed": false,
          "internalType": "uint256",
          "name": "_borrowBaseRate",
          "type": "uint256"
        }
      ],
      "name": "BorrowBaseRateUpdated",
      "type": "event"
    },
    {
      "anonymous": false,
      "inputs": [
        {
          "indexed": false,
          "internalType": "address",
          "name": "_newBorrowerOperationsAddress",
          "type": "address"
        }
      ],
      "name": "BorrowerOperationsAddressChanged",
      "type": "event"
    },
    {
      "anonymous": false,
      "inputs": [
        {
          "indexed": false,
          "internalType": "address",
          "name": "_collSurplusPoolAddress",
          "type": "address"
        }
      ],
      "name": "CollSurplusPoolAddressChanged",
      "type": "event"
    },
    {
      "anonymous": false,
      "inputs": [
        {
          "indexed": false,
          "internalType": "address",
          "name": "_defaultPoolAddress",
          "type": "address"
        }
      ],
      "name": "DefaultPoolAddressChanged",
      "type": "event"
    },
    {
      "anonymous": false,
      "inputs": [
        {
          "indexed": false,
          "internalType": "address",
          "name": "_gasPoolAddress",
          "type": "address"
        }
      ],
      "name": "GasPoolAddressChanged",
      "type": "event"
    },
    {
      "anonymous": false,
      "inputs": [
        {
          "indexed": false,
          "internalType": "address",
          "name": "_hogStakingAddress",
          "type": "address"
        }
      ],
      "name": "HOGStakingAddressChanged",
      "type": "event"
    },
    {
      "anonymous": false,
      "inputs": [
        {
          "indexed": false,
          "internalType": "address",
          "name": "_hogTokenAddress",
          "type": "address"
        }
      ],
      "name": "HOGTokenAddressChanged",
      "type": "event"
    },
    {
      "anonymous": false,
      "inputs": [
        {
          "indexed": false,
          "internalType": "uint256",
          "name": "_L_StETH",
          "type": "uint256"
        },
        {
          "indexed": false,
          "internalType": "uint256",
          "name": "_L_BaseFeeLMADebt",
          "type": "uint256"
        }
      ],
      "name": "LTermsUpdated",
      "type": "event"
    },
    {
      "anonymous": false,
      "inputs": [
        {
          "indexed": false,
          "internalType": "uint256",
          "name": "_lastBorrowTime",
          "type": "uint256"
        }
      ],
      "name": "LastBorrowTimeUpdated",
      "type": "event"
    },
    {
      "anonymous": false,
      "inputs": [
        {
          "indexed": false,
          "internalType": "uint256",
          "name": "_lastRedemptionTime",
          "type": "uint256"
        }
      ],
      "name": "LastRedemptionTimeUpdated",
      "type": "event"
    },
    {
      "anonymous": false,
      "inputs": [
        {
          "indexed": false,
          "internalType": "uint256",
          "name": "_liquidatedDebt",
          "type": "uint256"
        },
        {
          "indexed": false,
          "internalType": "uint256",
          "name": "_liquidatedColl",
          "type": "uint256"
        },
        {
          "indexed": false,
          "internalType": "uint256",
          "name": "_collGasCompensation",
          "type": "uint256"
        },
        {
          "indexed": false,
          "internalType": "uint256",
          "name": "_BaseFeeLMAGasCompensation",
          "type": "uint256"
        }
      ],
      "name": "Liquidation",
      "type": "event"
    },
    {
      "anonymous": false,
      "inputs": [
        {
          "indexed": true,
          "internalType": "address",
          "name": "previousOwner",
          "type": "address"
        },
        {
          "indexed": true,
          "internalType": "address",
          "name": "newOwner",
          "type": "address"
        }
      ],
      "name": "OwnershipTransferred",
      "type": "event"
    },
    {
      "anonymous": false,
      "inputs": [
        {
          "indexed": false,
          "internalType": "address",
          "name": "_newPriceFeedAddress",
          "type": "address"
        }
      ],
      "name": "PriceFeedAddressChanged",
      "type": "event"
    },
    {
      "anonymous": false,
      "inputs": [
        {
          "indexed": false,
          "internalType": "uint256",
          "name": "_attemptedBaseFeeLMAAmount",
          "type": "uint256"
        },
        {
          "indexed": false,
          "internalType": "uint256",
          "name": "_actualBaseFeeLMAAmount",
          "type": "uint256"
        },
        {
          "indexed": false,
          "internalType": "uint256",
          "name": "_StETHSent",
          "type": "uint256"
        },
        {
          "indexed": false,
          "internalType": "uint256",
          "name": "_StETHFee",
          "type": "uint256"
        }
      ],
      "name": "Redemption",
      "type": "event"
    },
    {
      "anonymous": false,
      "inputs": [
        {
          "indexed": false,
          "internalType": "uint256",
          "name": "_redemptionBaseRate",
          "type": "uint256"
        }
      ],
      "name": "RedemptionBaseRateUpdated",
      "type": "event"
    },
    {
      "anonymous": false,
      "inputs": [
        {
          "indexed": false,
          "internalType": "address",
          "name": "_sortedTrovesAddress",
          "type": "address"
        }
      ],
      "name": "SortedTrovesAddressChanged",
      "type": "event"
    },
    {
      "anonymous": false,
      "inputs": [
        {
          "indexed": false,
          "internalType": "address",
          "name": "_stabilityPoolAddress",
          "type": "address"
        }
      ],
      "name": "StabilityPoolAddressChanged",
      "type": "event"
    },
    {
      "anonymous": false,
      "inputs": [
        {
          "indexed": false,
          "internalType": "uint256",
          "name": "_totalStakesSnapshot",
          "type": "uint256"
        },
        {
          "indexed": false,
          "internalType": "uint256",
          "name": "_totalCollateralSnapshot",
          "type": "uint256"
        }
      ],
      "name": "SystemSnapshotsUpdated",
      "type": "event"
    },
    {
      "anonymous": false,
      "inputs": [
        {
          "indexed": false,
          "internalType": "uint256",
          "name": "_newTotalStakes",
          "type": "uint256"
        }
      ],
      "name": "TotalStakesUpdated",
      "type": "event"
    },
    {
      "anonymous": false,
      "inputs": [
        {
          "indexed": false,
          "internalType": "address",
          "name": "_borrower",
          "type": "address"
        },
        {
          "indexed": false,
          "internalType": "uint256",
          "name": "_newIndex",
          "type": "uint256"
        }
      ],
      "name": "TroveIndexUpdated",
      "type": "event"
    },
    {
      "anonymous": false,
      "inputs": [
        {
          "indexed": true,
          "internalType": "address",
          "name": "_borrower",
          "type": "address"
        },
        {
          "indexed": false,
          "internalType": "uint256",
          "name": "_debt",
          "type": "uint256"
        },
        {
          "indexed": false,
          "internalType": "uint256",
          "name": "_coll",
          "type": "uint256"
        },
        {
          "indexed": false,
          "internalType": "enum TroveManager.TroveManagerOperation",
          "name": "_operation",
          "type": "uint8"
        }
      ],
      "name": "TroveLiquidated",
      "type": "event"
    },
    {
      "anonymous": false,
      "inputs": [
        {
          "indexed": false,
          "internalType": "uint256",
          "name": "_L_StETH",
          "type": "uint256"
        },
        {
          "indexed": false,
          "internalType": "uint256",
          "name": "_L_BaseFeeLMADebt",
          "type": "uint256"
        }
      ],
      "name": "TroveSnapshotsUpdated",
      "type": "event"
    },
    {
      "anonymous": false,
      "inputs": [
        {
          "indexed": true,
          "internalType": "address",
          "name": "_borrower",
          "type": "address"
        },
        {
          "indexed": false,
          "internalType": "uint256",
          "name": "_debt",
          "type": "uint256"
        },
        {
          "indexed": false,
          "internalType": "uint256",
          "name": "_coll",
          "type": "uint256"
        },
        {
          "indexed": false,
          "internalType": "uint256",
          "name": "_stake",
          "type": "uint256"
        },
        {
          "indexed": false,
          "internalType": "enum TroveManager.TroveManagerOperation",
          "name": "_operation",
          "type": "uint8"
        }
      ],
      "name": "TroveUpdated",
      "type": "event"
    },
    {
      "inputs": [],
      "name": "BETA",
      "outputs": [
        {
          "internalType": "uint256",
          "name": "",
          "type": "uint256"
        }
      ],
      "stateMutability": "view",
      "type": "function"
    },
    {
      "inputs": [],
      "name": "BOOTSTRAP_PERIOD",
      "outputs": [
        {
          "internalType": "uint256",
          "name": "",
          "type": "uint256"
        }
      ],
      "stateMutability": "view",
      "type": "function"
    },
    {
      "inputs": [],
      "name": "BORROWING_FEE_FLOOR",
      "outputs": [
        {
          "internalType": "uint256",
          "name": "",
          "type": "uint256"
        }
      ],
      "stateMutability": "view",
      "type": "function"
    },
    {
      "inputs": [],
      "name": "BaseFeeLMA_GAS_COMPENSATION",
      "outputs": [
        {
          "internalType": "uint256",
          "name": "",
          "type": "uint256"
        }
      ],
      "stateMutability": "view",
      "type": "function"
    },
    {
      "inputs": [],
      "name": "CCR",
      "outputs": [
        {
          "internalType": "uint256",
          "name": "",
          "type": "uint256"
        }
      ],
      "stateMutability": "view",
      "type": "function"
    },
    {
      "inputs": [],
      "name": "DECIMAL_PRECISION",
      "outputs": [
        {
          "internalType": "uint256",
          "name": "",
          "type": "uint256"
        }
      ],
      "stateMutability": "view",
      "type": "function"
    },
    {
      "inputs": [],
      "name": "L_BaseFeeLMADebt",
      "outputs": [
        {
          "internalType": "uint256",
          "name": "",
          "type": "uint256"
        }
      ],
      "stateMutability": "view",
      "type": "function"
    },
    {
      "inputs": [],
      "name": "L_StETH",
      "outputs": [
        {
          "internalType": "uint256",
          "name": "",
          "type": "uint256"
        }
      ],
      "stateMutability": "view",
      "type": "function"
    },
    {
      "inputs": [],
      "name": "MAX_BORROWING_FEE",
      "outputs": [
        {
          "internalType": "uint256",
          "name": "",
          "type": "uint256"
        }
      ],
      "stateMutability": "view",
      "type": "function"
    },
    {
      "inputs": [],
      "name": "MCR",
      "outputs": [
        {
          "internalType": "uint256",
          "name": "",
          "type": "uint256"
        }
      ],
      "stateMutability": "view",
      "type": "function"
    },
    {
      "inputs": [],
      "name": "MINUTE_DECAY_BORROWING_FACTOR",
      "outputs": [
        {
          "internalType": "uint256",
          "name": "",
          "type": "uint256"
        }
      ],
      "stateMutability": "view",
      "type": "function"
    },
    {
      "inputs": [],
      "name": "MINUTE_DECAY_REDEMPTION_FACTOR",
      "outputs": [
        {
          "internalType": "uint256",
          "name": "",
          "type": "uint256"
        }
      ],
      "stateMutability": "view",
      "type": "function"
    },
    {
      "inputs": [],
      "name": "MIN_NET_DEBT",
      "outputs": [
        {
          "internalType": "uint256",
          "name": "",
          "type": "uint256"
        }
      ],
      "stateMutability": "view",
      "type": "function"
    },
    {
      "inputs": [],
      "name": "NAME",
      "outputs": [
        {
          "internalType": "string",
          "name": "",
          "type": "string"
        }
      ],
      "stateMutability": "view",
      "type": "function"
    },
    {
      "inputs": [],
      "name": "PERCENT_DIVISOR",
      "outputs": [
        {
          "internalType": "uint256",
          "name": "",
          "type": "uint256"
        }
      ],
      "stateMutability": "view",
      "type": "function"
    },
    {
      "inputs": [],
      "name": "REDEMPTION_FEE_FLOOR",
      "outputs": [
        {
          "internalType": "uint256",
          "name": "",
          "type": "uint256"
        }
      ],
      "stateMutability": "view",
      "type": "function"
    },
    {
      "inputs": [],
      "name": "SECONDS_IN_ONE_MINUTE",
      "outputs": [
        {
          "internalType": "uint256",
          "name": "",
          "type": "uint256"
        }
      ],
      "stateMutability": "view",
      "type": "function"
    },
    {
      "inputs": [
        {
          "internalType": "uint256",
          "name": "",
          "type": "uint256"
        }
      ],
      "name": "TroveOwners",
      "outputs": [
        {
          "internalType": "address",
          "name": "",
          "type": "address"
        }
      ],
      "stateMutability": "view",
      "type": "function"
    },
    {
      "inputs": [
        {
          "internalType": "address",
          "name": "",
          "type": "address"
        }
      ],
      "name": "Troves",
      "outputs": [
        {
          "internalType": "uint256",
          "name": "debt",
          "type": "uint256"
        },
        {
          "internalType": "uint256",
          "name": "coll",
          "type": "uint256"
        },
        {
          "internalType": "uint256",
          "name": "stake",
          "type": "uint256"
        },
        {
          "internalType": "enum TroveManager.Status",
          "name": "status",
          "type": "uint8"
        },
        {
          "internalType": "uint128",
          "name": "arrayIndex",
          "type": "uint128"
        }
      ],
      "stateMutability": "view",
      "type": "function"
    },
    {
      "inputs": [],
      "name": "_100pct",
      "outputs": [
        {
          "internalType": "uint256",
          "name": "",
          "type": "uint256"
        }
      ],
      "stateMutability": "view",
      "type": "function"
    },
    {
      "inputs": [],
      "name": "activePool",
      "outputs": [
        {
          "internalType": "contract IActivePool",
          "name": "",
          "type": "address"
        }
      ],
      "stateMutability": "view",
      "type": "function"
    },
    {
      "inputs": [
        {
          "internalType": "address",
          "name": "_borrower",
          "type": "address"
        }
      ],
      "name": "addTroveOwnerToArray",
      "outputs": [
        {
          "internalType": "uint256",
          "name": "index",
          "type": "uint256"
        }
      ],
      "stateMutability": "nonpayable",
      "type": "function"
    },
    {
      "inputs": [
        {
          "internalType": "address",
          "name": "_borrower",
          "type": "address"
        }
      ],
      "name": "applyPendingRewards",
      "outputs": [],
      "stateMutability": "nonpayable",
      "type": "function"
    },
    {
      "inputs": [],
      "name": "baseFeeLMAToken",
      "outputs": [
        {
          "internalType": "contract IBaseFeeLMAToken",
          "name": "",
          "type": "address"
        }
      ],
      "stateMutability": "view",
      "type": "function"
    },
    {
      "inputs": [
        {
          "internalType": "address[]",
          "name": "_troveArray",
          "type": "address[]"
        }
      ],
      "name": "batchLiquidateTroves",
      "outputs": [],
      "stateMutability": "nonpayable",
      "type": "function"
    },
    {
      "inputs": [],
      "name": "borrowBaseRate",
      "outputs": [
        {
          "internalType": "uint256",
          "name": "",
          "type": "uint256"
        }
      ],
      "stateMutability": "view",
      "type": "function"
    },
    {
      "inputs": [],
      "name": "borrowerOperationsAddress",
      "outputs": [
        {
          "internalType": "address",
          "name": "",
          "type": "address"
        }
      ],
      "stateMutability": "view",
      "type": "function"
    },
    {
      "inputs": [
        {
          "internalType": "uint256",
          "name": "_price",
          "type": "uint256"
        }
      ],
      "name": "checkRecoveryMode",
      "outputs": [
        {
          "internalType": "bool",
          "name": "",
          "type": "bool"
        }
      ],
      "stateMutability": "view",
      "type": "function"
    },
    {
      "inputs": [],
      "name": "checkUnreliableRecoveryMode",
      "outputs": [
        {
          "internalType": "bool",
          "name": "",
          "type": "bool"
        }
      ],
      "stateMutability": "view",
      "type": "function"
    },
    {
      "inputs": [
        {
          "internalType": "address",
          "name": "_borrower",
          "type": "address"
        }
      ],
      "name": "closeTrove",
      "outputs": [],
      "stateMutability": "nonpayable",
      "type": "function"
    },
    {
      "inputs": [],
      "name": "decayBaseRateFromBorrowing",
      "outputs": [],
      "stateMutability": "nonpayable",
      "type": "function"
    },
    {
      "inputs": [
        {
          "internalType": "address",
          "name": "_borrower",
          "type": "address"
        },
        {
          "internalType": "uint256",
          "name": "_collDecrease",
          "type": "uint256"
        }
      ],
      "name": "decreaseTroveColl",
      "outputs": [
        {
          "internalType": "uint256",
          "name": "",
          "type": "uint256"
        }
      ],
      "stateMutability": "nonpayable",
      "type": "function"
    },
    {
      "inputs": [
        {
          "internalType": "address",
          "name": "_borrower",
          "type": "address"
        },
        {
          "internalType": "uint256",
          "name": "_debtDecrease",
          "type": "uint256"
        }
      ],
      "name": "decreaseTroveDebt",
      "outputs": [
        {
          "internalType": "uint256",
          "name": "",
          "type": "uint256"
        }
      ],
      "stateMutability": "nonpayable",
      "type": "function"
    },
    {
      "inputs": [],
      "name": "defaultPool",
      "outputs": [
        {
          "internalType": "contract IDefaultPool",
          "name": "",
          "type": "address"
        }
      ],
      "stateMutability": "view",
      "type": "function"
    },
    {
      "inputs": [
        {
          "internalType": "uint256",
          "name": "_BaseFeeLMADebt",
          "type": "uint256"
        }
      ],
      "name": "getBorrowingFee",
      "outputs": [
        {
          "internalType": "uint256",
          "name": "",
          "type": "uint256"
        },
        {
          "internalType": "uint256",
          "name": "",
          "type": "uint256"
        }
      ],
      "stateMutability": "view",
      "type": "function"
    },
    {
      "inputs": [
        {
          "internalType": "uint256",
          "name": "_BaseFeeLMADebt",
          "type": "uint256"
        }
      ],
      "name": "getBorrowingFeeWithDecay",
      "outputs": [
        {
          "internalType": "uint256",
          "name": "",
          "type": "uint256"
        }
      ],
      "stateMutability": "view",
      "type": "function"
    },
    {
      "inputs": [
        {
          "internalType": "uint256",
          "name": "_issuedBaseFeeLMA",
          "type": "uint256"
        }
      ],
      "name": "getBorrowingRate",
      "outputs": [
        {
          "internalType": "uint256",
          "name": "",
          "type": "uint256"
        }
      ],
      "stateMutability": "view",
      "type": "function"
    },
    {
      "inputs": [
        {
          "internalType": "uint256",
          "name": "_issuedBaseFeeLMA",
          "type": "uint256"
        }
      ],
      "name": "getBorrowingRateWithDecay",
      "outputs": [
        {
          "internalType": "uint256",
          "name": "",
          "type": "uint256"
        }
      ],
      "stateMutability": "view",
      "type": "function"
    },
    {
      "inputs": [
        {
          "internalType": "address",
          "name": "_borrower",
          "type": "address"
        },
        {
          "internalType": "uint256",
          "name": "_price",
          "type": "uint256"
        }
      ],
      "name": "getCurrentICR",
      "outputs": [
        {
          "internalType": "uint256",
          "name": "",
          "type": "uint256"
        }
      ],
      "stateMutability": "view",
      "type": "function"
    },
    {
      "inputs": [
        {
          "internalType": "address",
          "name": "_borrower",
          "type": "address"
        }
      ],
      "name": "getEntireDebtAndColl",
      "outputs": [
        {
          "internalType": "uint256",
          "name": "debt",
          "type": "uint256"
        },
        {
          "internalType": "uint256",
          "name": "coll",
          "type": "uint256"
        },
        {
          "internalType": "uint256",
          "name": "pendingBaseFeeLMADebtReward",
          "type": "uint256"
        },
        {
          "internalType": "uint256",
          "name": "pendingStETHReward",
          "type": "uint256"
        }
      ],
      "stateMutability": "view",
      "type": "function"
    },
    {
      "inputs": [],
      "name": "getEntireSystemColl",
      "outputs": [
        {
          "internalType": "uint256",
          "name": "entireSystemColl",
          "type": "uint256"
        }
      ],
      "stateMutability": "view",
      "type": "function"
    },
    {
      "inputs": [],
      "name": "getEntireSystemDebt",
      "outputs": [
        {
          "internalType": "uint256",
          "name": "entireSystemDebt",
          "type": "uint256"
        }
      ],
      "stateMutability": "view",
      "type": "function"
    },
    {
      "inputs": [
        {
          "internalType": "address",
          "name": "_borrower",
          "type": "address"
        }
      ],
      "name": "getNominalICR",
      "outputs": [
        {
          "internalType": "uint256",
          "name": "",
          "type": "uint256"
        }
      ],
      "stateMutability": "view",
      "type": "function"
    },
    {
      "inputs": [
        {
          "internalType": "uint256",
          "name": "_coll",
          "type": "uint256"
        },
        {
          "internalType": "uint256",
          "name": "_debt",
          "type": "uint256"
        }
      ],
      "name": "getNormalLiquidationPrice",
      "outputs": [
        {
          "internalType": "uint256",
          "name": "",
          "type": "uint256"
        }
      ],
      "stateMutability": "pure",
      "type": "function"
    },
    {
      "inputs": [
        {
          "internalType": "address",
          "name": "_borrower",
          "type": "address"
        }
      ],
      "name": "getPendingBaseFeeLMADebtReward",
      "outputs": [
        {
          "internalType": "uint256",
          "name": "",
          "type": "uint256"
        }
      ],
      "stateMutability": "view",
      "type": "function"
    },
    {
      "inputs": [
        {
          "internalType": "address",
          "name": "_borrower",
          "type": "address"
        }
      ],
      "name": "getPendingStETHReward",
      "outputs": [
        {
          "internalType": "uint256",
          "name": "",
          "type": "uint256"
        }
      ],
      "stateMutability": "view",
      "type": "function"
    },
    {
      "inputs": [
        {
          "internalType": "uint256",
          "name": "_coll",
          "type": "uint256"
        },
        {
          "internalType": "uint256",
          "name": "_debt",
          "type": "uint256"
        }
      ],
      "name": "getRecoveryLiquidationPrice",
      "outputs": [
        {
          "internalType": "uint256",
          "name": "",
          "type": "uint256"
        }
      ],
      "stateMutability": "pure",
      "type": "function"
    },
    {
      "inputs": [
        {
          "internalType": "uint256",
          "name": "_StETHDrawn",
          "type": "uint256"
        }
      ],
      "name": "getRedemptionFeeWithDecay",
      "outputs": [
        {
          "internalType": "uint256",
          "name": "",
          "type": "uint256"
        }
      ],
      "stateMutability": "view",
      "type": "function"
    },
    {
      "inputs": [
        {
          "internalType": "uint256",
          "name": "_redemptionColl",
          "type": "uint256"
        }
      ],
      "name": "getRedemptionRate",
      "outputs": [
        {
          "internalType": "uint256",
          "name": "",
          "type": "uint256"
        }
      ],
      "stateMutability": "view",
      "type": "function"
    },
    {
      "inputs": [
        {
          "internalType": "uint256",
          "name": "_redemptionColl",
          "type": "uint256"
        }
      ],
      "name": "getRedemptionRateWithDecay",
      "outputs": [
        {
          "internalType": "uint256",
          "name": "",
          "type": "uint256"
        }
      ],
      "stateMutability": "view",
      "type": "function"
    },
    {
      "inputs": [
        {
          "internalType": "uint256",
          "name": "_price",
          "type": "uint256"
        }
      ],
      "name": "getTCR",
      "outputs": [
        {
          "internalType": "uint256",
          "name": "",
          "type": "uint256"
        }
      ],
      "stateMutability": "view",
      "type": "function"
    },
    {
      "inputs": [
        {
          "internalType": "address",
          "name": "_borrower",
          "type": "address"
        }
      ],
      "name": "getTroveColl",
      "outputs": [
        {
          "internalType": "uint256",
          "name": "",
          "type": "uint256"
        }
      ],
      "stateMutability": "view",
      "type": "function"
    },
    {
      "inputs": [
        {
          "internalType": "address",
          "name": "_borrower",
          "type": "address"
        }
      ],
      "name": "getTroveDebt",
      "outputs": [
        {
          "internalType": "uint256",
          "name": "",
          "type": "uint256"
        }
      ],
      "stateMutability": "view",
      "type": "function"
    },
    {
      "inputs": [
        {
          "internalType": "uint256",
          "name": "_index",
          "type": "uint256"
        }
      ],
      "name": "getTroveFromTroveOwnersArray",
      "outputs": [
        {
          "internalType": "address",
          "name": "",
          "type": "address"
        }
      ],
      "stateMutability": "view",
      "type": "function"
    },
    {
      "inputs": [],
      "name": "getTroveOwnersCount",
      "outputs": [
        {
          "internalType": "uint256",
          "name": "",
          "type": "uint256"
        }
      ],
      "stateMutability": "view",
      "type": "function"
    },
    {
      "inputs": [
        {
          "internalType": "address",
          "name": "_borrower",
          "type": "address"
        }
      ],
      "name": "getTroveStake",
      "outputs": [
        {
          "internalType": "uint256",
          "name": "",
          "type": "uint256"
        }
      ],
      "stateMutability": "view",
      "type": "function"
    },
    {
      "inputs": [
        {
          "internalType": "address",
          "name": "_borrower",
          "type": "address"
        }
      ],
      "name": "getTroveStatus",
      "outputs": [
        {
          "internalType": "uint256",
          "name": "",
          "type": "uint256"
        }
      ],
      "stateMutability": "view",
      "type": "function"
    },
    {
      "inputs": [],
      "name": "getUnreliableTCR",
      "outputs": [
        {
          "internalType": "uint256",
          "name": "",
          "type": "uint256"
        }
      ],
      "stateMutability": "view",
      "type": "function"
    },
    {
      "inputs": [
        {
          "internalType": "address",
          "name": "_borrower",
          "type": "address"
        }
      ],
      "name": "getUnreliableTroveICR",
      "outputs": [
        {
          "internalType": "uint256",
          "name": "",
          "type": "uint256"
        }
      ],
      "stateMutability": "view",
      "type": "function"
    },
    {
      "inputs": [
        {
          "internalType": "address",
          "name": "_borrower",
          "type": "address"
        }
      ],
      "name": "hasPendingRewards",
      "outputs": [
        {
          "internalType": "bool",
          "name": "",
          "type": "bool"
        }
      ],
      "stateMutability": "view",
      "type": "function"
    },
    {
      "inputs": [],
      "name": "hogStaking",
      "outputs": [
        {
          "internalType": "contract IHOGStaking",
          "name": "",
          "type": "address"
        }
      ],
      "stateMutability": "view",
      "type": "function"
    },
    {
      "inputs": [],
      "name": "hogToken",
      "outputs": [
        {
          "internalType": "contract IHOGToken",
          "name": "",
          "type": "address"
        }
      ],
      "stateMutability": "view",
      "type": "function"
    },
    {
      "inputs": [
        {
          "internalType": "address",
          "name": "_borrower",
          "type": "address"
        },
        {
          "internalType": "uint256",
          "name": "_collIncrease",
          "type": "uint256"
        }
      ],
      "name": "increaseTroveColl",
      "outputs": [
        {
          "internalType": "uint256",
          "name": "",
          "type": "uint256"
        }
      ],
      "stateMutability": "nonpayable",
      "type": "function"
    },
    {
      "inputs": [
        {
          "internalType": "address",
          "name": "_borrower",
          "type": "address"
        },
        {
          "internalType": "uint256",
          "name": "_debtIncrease",
          "type": "uint256"
        }
      ],
      "name": "increaseTroveDebt",
      "outputs": [
        {
          "internalType": "uint256",
          "name": "",
          "type": "uint256"
        }
      ],
      "stateMutability": "nonpayable",
      "type": "function"
    },
    {
      "inputs": [],
      "name": "lastBaseFeeLMADebtError_Redistribution",
      "outputs": [
        {
          "internalType": "uint256",
          "name": "",
          "type": "uint256"
        }
      ],
      "stateMutability": "view",
      "type": "function"
    },
    {
      "inputs": [],
      "name": "lastBorrowTime",
      "outputs": [
        {
          "internalType": "uint256",
          "name": "",
          "type": "uint256"
        }
      ],
      "stateMutability": "view",
      "type": "function"
    },
    {
      "inputs": [],
      "name": "lastRedemptionTime",
      "outputs": [
        {
          "internalType": "uint256",
          "name": "",
          "type": "uint256"
        }
      ],
      "stateMutability": "view",
      "type": "function"
    },
    {
      "inputs": [],
      "name": "lastStETHError_Redistribution",
      "outputs": [
        {
          "internalType": "uint256",
          "name": "",
          "type": "uint256"
        }
      ],
      "stateMutability": "view",
      "type": "function"
    },
    {
      "inputs": [
        {
          "internalType": "address",
          "name": "_borrower",
          "type": "address"
        }
      ],
      "name": "liquidate",
      "outputs": [],
      "stateMutability": "nonpayable",
      "type": "function"
    },
    {
      "inputs": [
        {
          "internalType": "uint256",
          "name": "_n",
          "type": "uint256"
        }
      ],
      "name": "liquidateTroves",
      "outputs": [],
      "stateMutability": "nonpayable",
      "type": "function"
    },
    {
      "inputs": [],
      "name": "owner",
      "outputs": [
        {
          "internalType": "address",
          "name": "",
          "type": "address"
        }
      ],
      "stateMutability": "view",
      "type": "function"
    },
    {
      "inputs": [],
      "name": "priceFeed",
      "outputs": [
        {
          "internalType": "contract IPriceFeed",
          "name": "",
          "type": "address"
        }
      ],
      "stateMutability": "view",
      "type": "function"
    },
    {
      "inputs": [
        {
          "internalType": "uint256",
          "name": "_BaseFeeLMAamount",
          "type": "uint256"
        },
        {
          "internalType": "address",
          "name": "_firstRedemptionHint",
          "type": "address"
        },
        {
          "internalType": "address",
          "name": "_upperPartialRedemptionHint",
          "type": "address"
        },
        {
          "internalType": "address",
          "name": "_lowerPartialRedemptionHint",
          "type": "address"
        },
        {
          "internalType": "uint256",
          "name": "_partialRedemptionHintNICR",
          "type": "uint256"
        },
        {
          "internalType": "uint256",
          "name": "_maxIterations",
          "type": "uint256"
        },
        {
          "internalType": "uint256",
          "name": "_maxFeePercentage",
          "type": "uint256"
        }
      ],
      "name": "redeemCollateral",
      "outputs": [],
      "stateMutability": "nonpayable",
      "type": "function"
    },
    {
      "inputs": [],
      "name": "redemptionBaseRate",
      "outputs": [
        {
          "internalType": "uint256",
          "name": "",
          "type": "uint256"
        }
      ],
      "stateMutability": "view",
      "type": "function"
    },
    {
      "inputs": [
        {
          "internalType": "address",
          "name": "_borrower",
          "type": "address"
        }
      ],
      "name": "removeStake",
      "outputs": [],
      "stateMutability": "nonpayable",
      "type": "function"
    },
    {
      "inputs": [],
      "name": "renounceOwnership",
      "outputs": [],
      "stateMutability": "nonpayable",
      "type": "function"
    },
    {
      "inputs": [
        {
          "internalType": "address",
          "name": "",
          "type": "address"
        }
      ],
      "name": "rewardSnapshots",
      "outputs": [
        {
          "internalType": "uint256",
          "name": "StETH",
          "type": "uint256"
        },
        {
          "internalType": "uint256",
          "name": "BaseFeeLMADebt",
          "type": "uint256"
        }
      ],
      "stateMutability": "view",
      "type": "function"
    },
    {
      "inputs": [
        {
          "internalType": "address",
          "name": "_borrowerOperationsAddress",
          "type": "address"
        },
        {
          "internalType": "address",
          "name": "_activePoolAddress",
          "type": "address"
        },
        {
          "internalType": "address",
          "name": "_defaultPoolAddress",
          "type": "address"
        },
        {
          "internalType": "address",
          "name": "_stabilityPoolAddress",
          "type": "address"
        },
        {
          "internalType": "address",
          "name": "_gasPoolAddress",
          "type": "address"
        },
        {
          "internalType": "address",
          "name": "_collSurplusPoolAddress",
          "type": "address"
        },
        {
          "internalType": "address",
          "name": "_priceFeedAddress",
          "type": "address"
        },
        {
          "internalType": "address",
          "name": "_baseFeeLMATokenAddress",
          "type": "address"
        },
        {
          "internalType": "address",
          "name": "_sortedTrovesAddress",
          "type": "address"
        },
        {
          "internalType": "address",
          "name": "_hogTokenAddress",
          "type": "address"
        },
        {
          "internalType": "address",
          "name": "_hogStakingAddress",
          "type": "address"
        }
      ],
      "name": "setAddresses",
      "outputs": [],
      "stateMutability": "nonpayable",
      "type": "function"
    },
    {
      "inputs": [
        {
          "internalType": "address",
          "name": "_borrower",
          "type": "address"
        },
        {
          "internalType": "uint256",
          "name": "_num",
          "type": "uint256"
        }
      ],
      "name": "setTroveStatus",
      "outputs": [],
      "stateMutability": "nonpayable",
      "type": "function"
    },
    {
      "inputs": [],
      "name": "sortedTroves",
      "outputs": [
        {
          "internalType": "contract ISortedTroves",
          "name": "",
          "type": "address"
        }
      ],
      "stateMutability": "view",
      "type": "function"
    },
    {
      "inputs": [],
      "name": "stabilityPool",
      "outputs": [
        {
          "internalType": "contract IStabilityPool",
          "name": "",
          "type": "address"
        }
      ],
      "stateMutability": "view",
      "type": "function"
    },
    {
      "inputs": [],
      "name": "totalCollateralSnapshot",
      "outputs": [
        {
          "internalType": "uint256",
          "name": "",
          "type": "uint256"
        }
      ],
      "stateMutability": "view",
      "type": "function"
    },
    {
      "inputs": [],
      "name": "totalStakes",
      "outputs": [
        {
          "internalType": "uint256",
          "name": "",
          "type": "uint256"
        }
      ],
      "stateMutability": "view",
      "type": "function"
    },
    {
      "inputs": [],
      "name": "totalStakesSnapshot",
      "outputs": [
        {
          "internalType": "uint256",
          "name": "",
          "type": "uint256"
        }
      ],
      "stateMutability": "view",
      "type": "function"
    },
    {
      "inputs": [
        {
          "internalType": "address",
          "name": "newOwner",
          "type": "address"
        }
      ],
      "name": "transferOwnership",
      "outputs": [],
      "stateMutability": "nonpayable",
      "type": "function"
    },
    {
      "inputs": [
        {
          "internalType": "uint256",
          "name": "_newBaseRate",
          "type": "uint256"
        }
      ],
      "name": "updateBaseRateFromBorrowing",
      "outputs": [],
      "stateMutability": "nonpayable",
      "type": "function"
    },
    {
      "inputs": [
        {
          "internalType": "address",
          "name": "_borrower",
          "type": "address"
        }
      ],
      "name": "updateStakeAndTotalStakes",
      "outputs": [
        {
          "internalType": "uint256",
          "name": "",
          "type": "uint256"
        }
      ],
      "stateMutability": "nonpayable",
      "type": "function"
    },
    {
      "inputs": [
        {
          "internalType": "address",
          "name": "_borrower",
          "type": "address"
        }
      ],
      "name": "updateTroveRewardSnapshots",
      "outputs": [],
      "stateMutability": "nonpayable",
      "type": "function"
    }
  ],
  "transactionHash": "0x814ede14257267d1b11f94961fec3f522eeb90b1cee4458ccaad72532a9aa8d6",
  "args": [],
  "numDeployments": 1,
  "solcInputHash": "12e72a8935c547e69b961442ac1acb6d",
  "bytecode": "0x60806040523480156200001157600080fd5b506200001d3362000023565b62000075565b600380546001600160a01b038381166001600160a01b0319831681179093556040519116919082907f8be0079c531659141344cd1fd0a4f28419497f9722a3daafe3b4186f6b6457e090600090a35050565b615f1480620000856000396000f3fe608060405234801561001057600080fd5b50600436106104d85760003560e01c8063807d138d11610283578063bb6f030c1161015c578063d5b35635116100ce578063e2ac77b011610092578063e2ac77b014610ae3578063e324634914610af6578063f2fde38b14610aff578063f92d3433146105ff578063fb0cbd4b14610b12578063fe2ba84814610b2157600080fd5b8063d5b3563514610a79578063d66a255314610a8c578063d696629714610ab5578063d9a7244414610ac8578063e1f787e914610adb57600080fd5b8063c35bc55011610120578063c35bc55014610a24578063c3eb5c6714610a2e578063c91a7e2f14610a37578063cbd138ae14610a40578063d293c71014610a53578063d3d6f84314610a6657600080fd5b8063bb6f030c146109ed578063bcd37526146109f6578063bf9befb114610a09578063bf9ebee214610a12578063c26c880014610a1b57600080fd5b8063a2014152116101f5578063aead9dcc116101b9578063aead9dcc1461095b578063b0d8e1811461096e578063b36cd07f14610981578063b7f8cf9b14610994578063b82f263d146109a7578063b91af97c146109ba57600080fd5b8063a2014152146108f4578063a20baee6146105f0578063a22b7d68146108fd578063a3f4df7e14610910578063ae9187541461094857600080fd5b8063900e664b11610247578063900e664b14610896578063948ba6d21461089f57806396d711ff146108b2578063981c4f48146108bb5780639976cf45146108ce5780639f7adb5e146108e157600080fd5b8063807d138d1461084e57806382fe3eb914610857578063887105d31461086a5780638da5cb5b146108725780638f9137891461088357600080fd5b80634e443d9e116103b5578063715018a611610327578063756b253e116102eb578063756b253e146107fe578063794e5724146106d8578063795d26c3146108115780637985c5e4146108195780637e024ad61461082c5780637f7dde4a1461083b57600080fd5b8063715018a6146107c857806371f256e2146107d057806372423c17146107d857806372fe25aa146105f0578063741bef1a146107eb57600080fd5b80635dba4c4a116103795780635dba4c4a1461070d57806361ec893d14610715578063631203b01461071d57806364cee26014610730578063653d46e71461075c5780636ef643381461076f57600080fd5b80634e443d9e146106a2578063570dc45e146106c55780635733d58f146106d857806358b8a5d6146106e75780635d6b480f146106fa57600080fd5b806321e378011161044e5780633cc74225116104125780633cc742251461062d57806347142aa314610640578063477d66cf14610653578063480cd578146106665780634870dd9a1461069257806349eefeee1461069a57600080fd5b806321e37801146105dd57806324092669146105f057806328d28b5b146105ff5780632d81dd56146106075780632f8655681461061a57600080fd5b806315d549f1116104a057806315d549f1146105575780631673c79a1461056a57806318f2817a146105a65780631b199a64146105b95780631bf43555146105c25780631e8b1c2b146105ca57600080fd5b8063048c661d146104dd578063071a7541146105065780630b0765571461051c5780630c08ff5f1461053157806312610e9214610544575b600080fd5b6005546104f0906001600160a01b031681565b6040516104fd91906158dc565b60405180910390f35b61050e600281565b6040519081526020016104fd565b61052f61052a366004615915565b610b34565b005b61050e61053f366004615915565b610b5c565b61050e610552366004615932565b610c18565b61050e610565366004615915565b610c6a565b610591610578366004615915565b6016602052600090815260409020805460019091015482565b604080519283526020830191909152016104fd565b61050e6105b4366004615915565b610c8c565b61050e60195481565b61050e600181565b61052f6105d8366004615974565b610c9f565b61050e6105eb366004615915565b611041565b61050e670de0b6b3a764000081565b61050e611071565b61050e610615366004615a39565b611093565b61052f610628366004615915565b6110b3565b6001546104f0906001600160a01b031681565b61050e61064e366004615a39565b61111f565b61050e610661366004615a5b565b611137565b61050e610674366004615915565b6001600160a01b031660009081526010602052604090206001015490565b61050e60c881565b60175461050e565b6106b56106b0366004615a5b565b61114b565b60405190151581526020016104fd565b6009546104f0906001600160a01b031681565b61050e6714d1120d7b16000081565b61050e6106f5366004615a5b565b611156565b61052f610708366004615932565b611164565b61052f6111bc565b61050e603c81565b61059161072b366004615a5b565b61129c565b61050e61073e366004615915565b6001600160a01b031660009081526010602052604090206002015490565b61052f61076a366004615a5b565b6112bf565b6107b761077d366004615915565b60106020526000908152604090208054600182015460028301546003909301549192909160ff81169061010090046001600160801b031685565b6040516104fd959493929190615a8a565b61052f611630565b6106b5611644565b61050e6107e6366004615932565b6116ca565b6002546104f0906001600160a01b031681565b6104f061080c366004615a5b565b611721565b61050e61174b565b61052f610827366004615ad0565b611847565b61050e670ddd4b8c6c7d70d881565b6000546104f0906001600160a01b031681565b61050e60125481565b61052f610865366004615915565b611bc3565b61050e611bd4565b6003546001600160a01b03166104f0565b6008546104f0906001600160a01b031681565b61050e60155481565b61050e6108ad366004615a5b565b611c99565b61050e60135481565b61050e6108c9366004615915565b611cac565b61050e6108dc366004615932565b611cd4565b61052f6108ef366004615a5b565b611d01565b61050e61c35081565b61050e61090b366004615a5b565b611e06565b61093b6040518060400160405280600c81526020016b2a3937bb32a6b0b730b3b2b960a11b81525081565b6040516104fd9190615bf4565b600b546104f0906001600160a01b031681565b600a546104f0906001600160a01b031681565b61050e61097c366004615915565b611e19565b61050e61098f366004615a5b565b611e40565b6004546104f0906001600160a01b031681565b61050e6109b5366004615a5b565b611e4e565b6109cd6109c8366004615915565b611e59565b6040805194855260208501939093529183015260608201526080016104fd565b61050e600c5481565b61052f610a04366004615c07565b611eb1565b61050e60115481565b61050e60145481565b61050e600f5481565b61050e6212750081565b61050e600d5481565b61050e60185481565b61052f610a4e366004615915565b6126a9565b61050e610a61366004615932565b6126bc565b61050e610a74366004615932565b6126db565b61050e610a87366004615a5b565b61270b565b61050e610a9a366004615915565b6001600160a01b031660009081526010602052604090205490565b61050e610ac3366004615915565b61271f565b6104f0610ad6366004615a5b565b6127b8565b61050e6127e8565b6106b5610af1366004615915565b612869565b61050e600e5481565b61052f610b0d366004615915565b6128cc565b61050e670dc14847bcc53b2081565b61052f610b2f366004615915565b612942565b610b3c612953565b600054600154610b59916001600160a01b039081169116836129d3565b50565b6001600160a01b0381166000908152601660205260408120600101546015548290610b879083612ad9565b9050801580610bc6575060016001600160a01b03851660009081526010602052604090206003015460ff166004811115610bc357610bc3615a74565b14155b15610bd5575060009392505050565b6001600160a01b03841660009081526010602052604081206002015490610c0e670de0b6b3a7640000610c088486612aec565b90612af8565b9695505050505050565b6000610c22612953565b6001600160a01b038316600090815260106020526040812054610c459084612ad9565b6001600160a01b03851660009081526010602052604090208190559150505b92915050565b6000610c74612953565b610c7d82612b04565b6001600160801b031692915050565b6000610c96612953565b610c6482612b9e565b8051600003610d145760405162461bcd60e51b815260206004820152603660248201527f54726f76654d616e616765723a2043616c6c646174612061646472657373206160448201527572726179206d757374206e6f7420626520656d70747960501b60648201526084015b60405180910390fd5b6000546001546005546001600160a01b03928316929182169116610d36615817565b610d3e615848565b600260009054906101000a90046001600160a01b03166001600160a01b0316630fdb11cf6040518163ffffffff1660e01b81526004016020604051808303816000875af1158015610d93573d6000803e3d6000fd5b505050506040513d601f19601f82011682018060405250810190610db79190615c75565b826000018181525050826001600160a01b031663488df0fc6040518163ffffffff1660e01b8152600401602060405180830381865afa158015610dfe573d6000803e3d6000fd5b505050506040513d601f19601f82011682018060405250810190610e229190615c75565b60208301528151610e3290612c42565b1580156040840152610e5a57610e538585846000015185602001518a612c5f565b9050610e72565b610e6f8585846000015185602001518a612e86565b90505b6000816020015111610e965760405162461bcd60e51b8152600401610d0b90615c8e565b608081015160a082015160405163335525ad60e01b81526001600160a01b0386169263335525ad92610ed392600401918252602082015260400190565b600060405180830381600087803b158015610eed57600080fd5b505af1158015610f01573d6000803e3d6000fd5b50505050610f1985858360c001518460e00151612f56565b61010081015115610f905760075461010082015160405163a51ba3b760e01b81526001600160a01b038881169363a51ba3b793610f5d939290911691600401615cd0565b600060405180830381600087803b158015610f7757600080fd5b505af1158015610f8b573d6000803e3d6000fd5b505050505b610f9e858260400151613191565b6020810151606083015261010081015160408201518251610fca9291610fc49190612ad9565b90612ad9565b6080838101829052606080850151604085810151868401518251938452602084019690965290820152908101929092527f4152c73dd2614c4f9fc35e8c9cf16013cd588c75b49a4c1673ecffdcbcda9403910160405180910390a16110398533836060015184604001516132d5565b505050505050565b6001600160a01b03811660009081526010602052604081206003015460ff166004811115610c6457610c64615a74565b6110856103e8670de0b6b3a7640000615d15565b611090906005615d29565b81565b6000806110ab84846014670de0b6b3a76400006133b8565b949350505050565b6110bc816134c3565b6040805160018082528183019092526000916020808301908036833701905050905081816000815181106110f2576110f2615d40565b60200260200101906001600160a01b031690816001600160a01b03168152505061111b81610c9f565b5050565b6000806110ab848460146714d1120d7b1600006133b8565b6000610c6461114583611c99565b8361355a565b6000610c6482612c42565b6000610c64600c5483613572565b61116c612953565b80600481111561117e5761117e615a74565b6001600160a01b0383166000908152601060205260409020600301805460ff191660018360048111156111b3576111b3615a74565b02179055505050565b6111c4612953565b6112006040518060400160405280601881526020017702120a9a2902920aa22902122a327a922902222a1a0ac9d160451b815250600d546136cf565b600061120a613714565b9050670de0b6b3a764000081111561122457611224615d56565b600d81905560408051808201909152601781527602120a9a2902920aa229020a32a22a9102222a1a0ac9d1604d1b602082015261126190826136cf565b6040518181527fca870d46d67e9a1444a6b8f97a147e06e4cf71ee2a0f172d7ecd5441ae7c12019060200160405180910390a1610b5961378a565b60008060006112aa84611e40565b90506112b6818561355a565b94909350915050565b6040805160e081018252600080546001600160a01b0390811683526001548116602084015292820181905260608201819052600b548316608083015260a0820181905260c0820152600554909116611315615817565b61131d615848565b600260009054906101000a90046001600160a01b03166001600160a01b0316630fdb11cf6040518163ffffffff1660e01b81526004016020604051808303816000875af1158015611372573d6000803e3d6000fd5b505050506040513d601f19601f820116820180604052508101906113969190615c75565b826000018181525050826001600160a01b031663488df0fc6040518163ffffffff1660e01b8152600401602060405180830381865afa1580156113dd573d6000803e3d6000fd5b505050506040513d601f19601f820116820180604052508101906114019190615c75565b6020830152815161141190612c42565b1580156040840152611438576114318483600001518460200151886137e1565b9050611458565b611455846000015185602001518460000151856020015189613b5f565b90505b600081602001511161147c5760405162461bcd60e51b8152600401610d0b90615c8e565b608081015160a082015160405163335525ad60e01b81526001600160a01b0386169263335525ad926114b992600401918252602082015260400190565b600060405180830381600087803b1580156114d357600080fd5b505af11580156114e7573d6000803e3d6000fd5b50505050611507846000015185602001518360c001518460e00151612f56565b6101008101511561157e57835160075461010083015160405163a51ba3b760e01b81526001600160a01b039384169363a51ba3b79361154b93911691600401615cd0565b600060405180830381600087803b15801561156557600080fd5b505af1158015611579573d6000803e3d6000fd5b505050505b61159084600001518260400151613191565b60208101516060830152610100810151604082015182516115b69291610fc49190612ad9565b6080838101829052606080850151604085810151868401518251938452602084019690965290820152908101929092527f4152c73dd2614c4f9fc35e8c9cf16013cd588c75b49a4c1673ecffdcbcda9403910160405180910390a1611629846000015133836060015184604001516132d5565b5050505050565b611638613c90565b6116426000613cea565b565b60006116c5600260009054906101000a90046001600160a01b03166001600160a01b0316630490be836040518163ffffffff1660e01b8152600401602060405180830381865afa15801561169c573d6000803e3d6000fd5b505050506040513d601f19601f820116820180604052508101906116c09190615c75565b612c42565b905090565b60006116d4612953565b6001600160a01b0383166000908152601060205260408120600101546116fa9084613d3c565b6001600160a01b038516600090815260106020526040902060010181905591505092915050565b6017818154811061173157600080fd5b6000918252602090912001546001600160a01b0316905081565b60008054604080516315b3137b60e21b8152905183926001600160a01b0316916356cc4dec9160048083019260209291908290030181865afa158015611795573d6000803e3d6000fd5b505050506040513d601f19601f820116820180604052508101906117b99190615c75565b90506000600160009054906101000a90046001600160a01b03166001600160a01b03166356cc4dec6040518163ffffffff1660e01b8152600401602060405180830381865afa158015611810573d6000803e3d6000fd5b505050506040513d601f19601f820116820180604052508101906118349190615c75565b90506118408282613d3c565b9250505090565b61184f613c90565b6118588b613d48565b6118618a613d48565b61186a89613d48565b61187388613d48565b61187c87613d48565b61188586613d48565b61188e85613d48565b61189784613d48565b6118a083613d48565b6118a982613d48565b6118b281613d48565b600480546001600160a01b03199081166001600160a01b038e8116919091179092556000805482168d84161790556001805482168c84161790556005805482168b84161790556006805482168a8416179055600780548216898416179055600280548216888416179055600880548216878416179055600b80548216868416179055600980548216858416179055600a80549091169183169190911790556040517f3ca631ffcd2a9b5d9ae18543fc82f58eb4ca33af9e6ab01b7a8e95331e6ed98590611980908d906158dc565b60405180910390a17f78f058b189175430c48dc02699e3a0031ea4ff781536dc2fab847de4babdd8828a6040516119b791906158dc565b60405180910390a17f5ee0cae2f063ed938bb55046f6a932fb6ae792bf43624806bb90abe68a50be9b896040516119ee91906158dc565b60405180910390a17f82966d27eea39b038ee0fa30cd16532bb24f6e65d31cb58fb227aa5766cdcc7f88604051611a2591906158dc565b60405180910390a17fcfb07d791fcafc032b35837b50eb84b74df518cf4cc287e8084f47630fa70fa087604051611a5c91906158dc565b60405180910390a17fe67f36a6e961157d6eff83b91f3af5a62131ceb6f04954ef74f51c1c05e7f88d86604051611a9391906158dc565b60405180910390a17f8c537274438aa850a330284665d81a85dd38267d09e4050d416bfc94142db26485604051611aca91906158dc565b60405180910390a17f7faa560f2889840c377209fbc4b6b92d05f43f1fc60bf336ab546fd60c0051ad84604051611b0191906158dc565b60405180910390a17f65f4cf077bc01e4742eb5ad98326f6e95b63548ea24b17f8d5e823111fe7880083604051611b3891906158dc565b60405180910390a17f0d32e4ef3d389440323b172cfc07c6c01bdd1d3e8334379048eec21e8d919b7782604051611b6f91906158dc565b60405180910390a17ffe7e5f521efd6e9fda9261f1223b2cda79ba84d0393e8b6629d27db91048126f81604051611ba691906158dc565b60405180910390a1611bb6611630565b5050505050505050505050565b611bcb612953565b610b5981613ded565b600080546040805163a2f0398360e01b8152905183926001600160a01b03169163a2f039839160048083019260209291908290030181865afa158015611c1e573d6000803e3d6000fd5b505050506040513d601f19601f82011682018060405250810190611c429190615c75565b90506000600160009054906101000a90046001600160a01b03166001600160a01b031663a2f039836040518163ffffffff1660e01b8152600401602060405180830381865afa158015611810573d6000803e3d6000fd5b6000610c64611ca6613e51565b83613e95565b6001600160a01b0381166000908152601660205260408120546014548290610b879083612ad9565b6000611cde612953565b6001600160a01b038316600090815260106020526040812054610c459084613d3c565b6004546001600160a01b03163314611d735760405162461bcd60e51b815260206004820152602f60248201527f54726f76654d616e616765723a204f6e6c7920426f72726f776572206f70657260448201526e185d1a5bdb9cc81b585e4818d85b1b608a1b6064820152608401610d0b565b611d876103e8670de0b6b3a7640000615d15565b611d92906005615d29565b8110611dc957611dac6103e8670de0b6b3a7640000615d15565b611db7906005615d29565b611dc19082615d6c565b600d55611dcf565b6000600d555b6040518181527fca870d46d67e9a1444a6b8f97a147e06e4cf71ee2a0f172d7ecd5441ae7c1201906020015b60405180910390a150565b6000610c64611e13613e51565b83613572565b6000806000611e2784613f74565b915091506000611e378383613fee565b95945050505050565b6000610c64600d5483613e95565b6000610c648261401d565b6001600160a01b03811660009081526010602052604081208054600190910154909180611e8585610b5c565b9150611e9085611cac565b9050611e9c8483613d3c565b9350611ea88382613d3c565b92509193509193565b6040805160e08082018352600080546001600160a01b0390811684526001548116602080860191909152600854821685870152600a548216606080870191909152600b548316608080880191909152600754841660a08089019190915260065490941660c080890191909152885161010081018a5286815293840186905297830185905290820184905281018390529081018290529384018190529083015290611f5a83614041565b600260009054906101000a90046001600160a01b03166001600160a01b0316630fdb11cf6040518163ffffffff1660e01b81526004016020604051808303816000875af1158015611faf573d6000803e3d6000fd5b505050506040513d601f19601f82011682018060405250810190611fd39190615c75565b60c08201819052611fe3906140dc565b611fec8961414f565b611ffb8260400151338b6141b6565b61200361174b565b60e0820181905260408084015190516370a0823160e01b81526001600160a01b03909116906370a082319061203c9033906004016158dc565b602060405180830381865afa158015612059573d6000803e3d6000fd5b505050506040513d601f19601f8201168201806040525081019061207d9190615c75565b111561208b5761208b615d56565b888152608082015160c08201516000916120a6918b906142b6565b156120b25750876121c4565b82608001516001600160a01b0316634d6228316040518163ffffffff1660e01b8152600401602060405180830381865afa1580156120f4573d6000803e3d6000fd5b505050506040513d601f19601f820116820180604052508101906121189190615d7f565b90505b6001600160a01b0381161580159061214757506714d1120d7b160000612145828460c001516126bc565b105b156121c45782608001516001600160a01b031663b72703ac826040518263ffffffff1660e01b815260040161217c91906158dc565b602060405180830381865afa158015612199573d6000803e3d6000fd5b505050506040513d601f19601f820116820180604052508101906121bd9190615d7f565b905061211b565b846000036121d25760001994505b6001600160a01b038116158015906121ea5750815115155b80156121f65750600085115b15612302578461220581615d9c565b955050600083608001516001600160a01b031663b72703ac836040518263ffffffff1660e01b815260040161223a91906158dc565b602060405180830381865afa158015612257573d6000803e3d6000fd5b505050506040513d601f19601f8201168201806040525081019061227b9190615d7f565b905061229084600001518560200151846129d3565b60006122a9858486600001518760c001518e8e8e614400565b90508060400151156122bc575050612302565b805160208501516122cc91613d3c565b60208086019190915281015160408501516122e691613d3c565b6040850152805184516122f891612ad9565b84525090506121d2565b60008260400151116123685760405162461bcd60e51b815260206004820152602960248201527f54726f76654d616e616765723a20556e61626c6520746f2072656465656d20616044820152681b9e48185b5bdd5b9d60ba1b6064820152608401610d0b565b61237f82604001518360c001518460e0015161465e565b5061238d8260400151614811565b6060830190815260408051808201909152601081526f02932b232b6b83a34b7b7103332b29d160851b602082015290516123c791906136cf565b6123da826060015183604001518661481f565b82516060808501519084015160405163a51ba3b760e01b81526001600160a01b039093169263a51ba3b792612413929091600401615cd0565b600060405180830381600087803b15801561242d57600080fd5b505af1158015612441573d6000803e3d6000fd5b5050505082606001516001600160a01b031663b307829d83606001516040518263ffffffff1660e01b815260040161247b91815260200190565b600060405180830381600087803b15801561249557600080fd5b505af11580156124a9573d6000803e3d6000fd5b50505050606082015160408301516124c091612ad9565b608083019081526040805180820190915260208082527f576861742061637475616c6c792067657473207472616e736665727265643a2090820152905161250791906136cf565b7f43a3f4082a4dbc33d78e317d2497d3a730bc7fc3574159dcea1056e62e5d9ad88a83602001518460400151856060015160405161255e949392919093845260208401929092526040830152606082015260800190565b60405180910390a182604001516001600160a01b0316639dc29fac3384602001516040518363ffffffff1660e01b815260040161259c929190615cd0565b600060405180830381600087803b1580156125b657600080fd5b505af11580156125ca573d6000803e3d6000fd5b505084516020850151604051633b4009ff60e11b81526001600160a01b03909216935063768013fe92506126049160040190815260200190565b600060405180830381600087803b15801561261e57600080fd5b505af1158015612632573d6000803e3d6000fd5b50508451608085015160405163a51ba3b760e01b81526001600160a01b03909216935063a51ba3b7925061266b91339190600401615cd0565b600060405180830381600087803b15801561268557600080fd5b505af1158015612699573d6000803e3d6000fd5b5050505050505050505050505050565b6126b1612953565b610b59816002614889565b60008060006126ca85613f74565b915091506000610c0e8383876149b6565b60006126e5612953565b6001600160a01b0383166000908152601060205260408120600101546116fa9084612ad9565b6000610c6461271983611e06565b83614a05565b600080600260009054906101000a90046001600160a01b03166001600160a01b0316630490be836040518163ffffffff1660e01b8152600401602060405180830381865afa158015612775573d6000803e3d6000fd5b505050506040513d601f19601f820116820180604052508101906127999190615c75565b90506000806127a785613f74565b915091506000610c0e8383866149b6565b6000601782815481106127cd576127cd615d40565b6000918252602090912001546001600160a01b031692915050565b60006116c5600260009054906101000a90046001600160a01b03166001600160a01b0316630490be836040518163ffffffff1660e01b8152600401602060405180830381865afa158015612840573d6000803e3d6000fd5b505050506040513d601f19601f820116820180604052508101906128649190615c75565b61401d565b600060016001600160a01b03831660009081526010602052604090206003015460ff16600481111561289d5761289d615a74565b146128aa57506000919050565b506014546001600160a01b039091166000908152601660205260409020541090565b6128d4613c90565b6001600160a01b0381166129395760405162461bcd60e51b815260206004820152602660248201527f4f776e61626c653a206e6577206f776e657220697320746865207a65726f206160448201526564647265737360d01b6064820152608401610d0b565b610b5981613cea565b61294a612953565b610b5981614a8e565b6004546001600160a01b031633146116425760405162461bcd60e51b815260206004820152603b60248201527f54726f76654d616e616765723a2043616c6c6572206973206e6f74207468652060448201527f426f72726f7765724f7065726174696f6e7320636f6e747261637400000000006064820152608401610d0b565b6129dc81612869565b15612ad4576129ea816134c3565b60006129f582611cac565b90506000612a0283610b5c565b6001600160a01b038416600090815260106020526040902060010154909150612a2b9083613d3c565b6001600160a01b0384166000908152601060205260409020600181019190915554612a569082613d3c565b6001600160a01b038416600090815260106020526040902055612a7883613ded565b612a8485858385614ad8565b6001600160a01b038316600081815260106020526040808220805460018201546002909201549251600080516020615ebf83398151915294612ac99492939291615dc7565b60405180910390a250505b505050565b6000612ae58284615d6c565b9392505050565b6000612ae58284615d29565b6000612ae58284615d15565b601780546001808201835560008381527fc624b66cc0138b8fabc209247f72d758e1cf3343756d543badbf24212bed8c1590920180546001600160a01b0319166001600160a01b03861617905591549091612b5f9190612ad9565b6001600160a01b039290921660009081526010602052604090206003018054610100600160881b0319166101006001600160801b038516021790555090565b6001600160a01b0381166000908152601060205260408120600101548190612bc590614bb9565b6001600160a01b038416600090815260106020526040902060020180549082905560115491925090612c03908390612bfd9084612ad9565b90613d3c565b60118190556040519081527f6bac5e0eb3c44eb03a60ab11ec3a2c051771616aecadbcfff2630aabae5203829060200160405180910390a15092915050565b600080612c4e8361401d565b6714d1120d7b160000119392505050565b612c67615848565b612c6f615894565b612c77615848565b84825260006080830152612c8961174b565b60a0830152612c96611bd4565b60c0830152600060208301525b835182602001511015612e7b5783826020015181518110612cc657612cc6615d40565b6020908102919091018101516001600160a01b03166060840181905260009081526010909152604090206003015460019060ff166004811115612d0b57612d0b615a74565b03612e6357612d1e8260600151876126bc565b60408301526080820151612e0b576714d1120d7b160000826040015110158015612d4757508151155b612e63576000612d608360c001518460a00151896149b6565b9050612d7d8989856060015186604001518760000151868d614bfa565b60808101518451919350612d919190612ad9565b8352608082015160a0840151612da691612ad9565b8360a0018181525050612ddb826101000151610fc48460400151610fc48660a001518860c00151612ad990919063ffffffff16565b60c0840152612dea8483614eed565b9350612dff8360c001518460a0015189614fce565b15608084015250612e63565b81608001518015612e2757506714d1120d7b1600008260400151105b15612e6357612e40888884606001518560000151614fef565b60808101518351919250612e549190612ad9565b8252612e608382614eed565b92505b60208201805190612e7382615de9565b905250612ca3565b505095945050505050565b612e8e615848565b612e96615894565b612e9e615848565b848252600060208301525b835182602001511015612e7b5783826020015181518110612ecc57612ecc615d40565b60209081029190910101516001600160a01b031660608301819052612ef190876126bc565b604083018190526714d1120d7b1600001115612f3e57612f1b888884606001518560000151614fef565b60808101518351919250612f2f9190612ad9565b8252612f3b8382614eed565b92505b60208201805190612f4e82615de9565b905250612ea9565b811561318b57601854600090612f7890612bfd84670de0b6b3a7640000612aec565b90506000612f9d601954612bfd670de0b6b3a764000087612aec90919063ffffffff16565b90506000612fb660115484612af890919063ffffffff16565b90506000612fcf60115484612af890919063ffffffff16565b9050612ff0612fe960115484612aec90919063ffffffff16565b8590612ad9565b60185560115461300c90613005908390612aec565b8490612ad9565b60195560145461301c9083613d3c565b60145560155461302c9082613d3c565b60158190556014546040517f9f8bc8ab0daf5bceef75ecfd2085d1fcc6548c657ea970d9a23a60610d0737e39261306a928252602082015260400190565b60405180910390a1604051633b4009ff60e11b8152600481018790526001600160a01b0389169063768013fe90602401600060405180830381600087803b1580156130b457600080fd5b505af11580156130c8573d6000803e3d6000fd5b505060405163262b890160e01b8152600481018990526001600160a01b038a16925063262b89019150602401600060405180830381600087803b15801561310e57600080fd5b505af1158015613122573d6000803e3d6000fd5b505060405163a51ba3b760e01b81526001600160a01b038b16925063a51ba3b79150613154908a908990600401615cd0565b600060405180830381600087803b15801561316e57600080fd5b505af1158015613182573d6000803e3d6000fd5b50505050505050505b50505050565b6011546012819055506000826001600160a01b031663a2f039836040518163ffffffff1660e01b8152600401602060405180830381865afa1580156131da573d6000803e3d6000fd5b505050506040513d601f19601f820116820180604052508101906131fe9190615c75565b90506000600160009054906101000a90046001600160a01b03166001600160a01b031663a2f039836040518163ffffffff1660e01b8152600401602060405180830381865afa158015613255573d6000803e3d6000fd5b505050506040513d601f19601f820116820180604052508101906132799190615c75565b905061328981612bfd8486612ad9565b60138190556012546040517f51bf4c63ec3cba9d03d43238abbdd979dd91bd16d9895c74ceea9118c7baaf60926132c7928252602082015260400190565b60405180910390a150505050565b811561334c57600854600654604051631062c15f60e11b81526001600160a01b0391821660048201528582166024820152604481018590529116906320c582be90606401600060405180830381600087803b15801561333357600080fd5b505af1158015613347573d6000803e3d6000fd5b505050505b801561318b5760405163a51ba3b760e01b81526001600160a01b0385169063a51ba3b7906133809086908590600401615cd0565b600060405180830381600087803b15801561339a57600080fd5b505af11580156133ae573d6000803e3d6000fd5b5050505050505050565b60006001633b9aca00826133cc8287615d29565b905060006133da8388615d29565b90505b6133e9836102ee615d29565b81116134b45760006133fc8a8a846149b6565b90508681101561345857825b828111158015613421575061341d858a615d29565b8110155b1561345657876134328c8c846149b6565b10156134455795506110ab945050505050565b61344f8582615d6c565b9050613408565b505b61346a6702c68af0bb14000088615d6c565b8110156134835761347c846014615d29565b945061349f565b6134948766b1a2bc2ec50000615e02565b81111561349f578394505b509050806134ad8482615e02565b90506133dd565b50600098975050505050505050565b60016001600160a01b03821660009081526010602052604090206003015460ff1660048111156134f5576134f5615a74565b14610b595760405162461bcd60e51b815260206004820152602f60248201527f54726f76654d616e616765723a2054726f766520646f6573206e6f742065786960448201526e1cdd081bdc881a5cc818db1bdcd959608a1b6064820152608401610d0b565b6000612ae5670de0b6b3a7640000610c088585612aec565b60006136196040518060400160405280600f81526020016e082c6e8d2ecca40a0deded840cae8d608b1b81525060008054906101000a90046001600160a01b03166001600160a01b031663a2f039836040518163ffffffff1660e01b8152600401602060405180830381865afa1580156135f0573d6000803e3d6000fd5b505050506040513d601f19601f820116820180604052508101906136149190615c75565b6136cf565b612ae56136c161369e60008054906101000a90046001600160a01b03166001600160a01b031663a2f039836040518163ffffffff1660e01b8152600401602060405180830381865afa158015613673573d6000803e3d6000fd5b505050506040513d601f19601f820116820180604052508101906136979190615c75565b8590612af8565b612bfd866136b66103e8670de0b6b3a7640000615d15565b612bfd906005615d29565b670de0b6b3a7640000615130565b61111b82826040516024016136e5929190615e15565b60408051601f198184030181529190526020810180516001600160e01b0316632d839cb360e21b179052615146565b60008061371f61514f565b90506000613735670dc14847bcc53b208361516b565b90506137696040518060400160405280601081526020016f036b4b73aba32b9903830b9b9b2b21d160851b815250836136cf565b611840670de0b6b3a7640000610c0883600d54612aec90919063ffffffff16565b60006137a1600f5442612ad990919063ffffffff16565b9050603c8110610b595742600f8190556040519081527f4ac50c32a269c2cfea9cf04e466da1ab839008441fadf7108e4f05410c2bfd5f90602001611dfb565b6137e9615848565b6137f1615894565b6137f9615848565b8482526000608083015261380b61174b565b60a0830152613818611bd4565b8260c001818152505086608001516001600160a01b0316634d6228316040518163ffffffff1660e01b8152600401602060405180830381865afa158015613863573d6000803e3d6000fd5b505050506040513d601f19601f820116820180604052508101906138879190615d7f565b82606001906001600160a01b031690816001600160a01b031681525050600087608001516001600160a01b0316631e2231436040518163ffffffff1660e01b8152600401602060405180830381865afa1580156138e8573d6000803e3d6000fd5b505050506040513d601f19601f8201168201806040525081019061390c9190615d7f565b6000602085015290505b84836020015110801561393f5750806001600160a01b031683606001516001600160a01b031614155b15613b545760808801516060840151604051632dc9c0eb60e21b81526000926001600160a01b03169163b72703ac9161397b91906004016158dc565b602060405180830381865afa158015613998573d6000803e3d6000fd5b505050506040513d601f19601f820116820180604052508101906139bc9190615d7f565b90506139cc8460600151896126bc565b60408501526080840151613ac4576714d1120d7b1600008460400151101580156139f557508351155b15613a005750613b54565b6000613a158560c001518660a001518b6149b6565b8a5160208c0151606088015160408901518951949550613a3694868f614bfa565b60808101518651919550613a4a9190612ad9565b8552608084015160a0860151613a5f91612ad9565b8560a0018181525050613a94846101000151610fc48660400151610fc48860a001518a60c00151612ad990919063ffffffff16565b60c0860152613aa38685614eed565b9550613ab88560c001518660a001518b614fce565b15608086015250613b2e565b83608001518015613ae057506714d1120d7b1600008460400151105b15613b2857613b0189600001518a6020015186606001518760000151614fef565b60808101518551919450613b159190612ad9565b8452613b218584614eed565b9450613b2e565b50613b54565b6001600160a01b0316606084015260208301805190613b4c82615de9565b905250613916565b505050949350505050565b613b67615848565b613b6f615894565b613b77615848565b600b54858352600060208401526001600160a01b03165b8483602001511015613c8457806001600160a01b0316634d6228316040518163ffffffff1660e01b8152600401602060405180830381865afa158015613bd8573d6000803e3d6000fd5b505050506040513d601f19601f82011682018060405250810190613bfc9190615d7f565b6001600160a01b031660608401819052613c1690886126bc565b604084018190526714d1120d7b1600001115613c6757613c40898985606001518660000151614fef565b60808101518451919350613c549190612ad9565b8352613c608483614eed565b9350613c6c565b613c84565b60208301805190613c7c82615de9565b905250613b8e565b50505095945050505050565b6003546001600160a01b031633146116425760405162461bcd60e51b815260206004820181905260248201527f4f776e61626c653a2063616c6c6572206973206e6f7420746865206f776e65726044820152606401610d0b565b600380546001600160a01b038381166001600160a01b0319831681179093556040519116919082907f8be0079c531659141344cd1fd0a4f28419497f9722a3daafe3b4186f6b6457e090600090a35050565b6000612ae58284615e02565b6001600160a01b038116613d9e5760405162461bcd60e51b815260206004820152601e60248201527f4163636f756e742063616e6e6f74206265207a65726f206164647265737300006044820152606401610d0b565b803b8061111b5760405162461bcd60e51b815260206004820181905260248201527f4163636f756e7420636f64652073697a652063616e6e6f74206265207a65726f6044820152606401610d0b565b601480546001600160a01b038316600090815260166020526040908190209182556015546001909201829055915491517fc437f324d85e369394148dd9d62f98f534b382e01ed3dd2eb98138fb6d3ab49a92611dfb92908252602082015260400190565b600080613e5c61520f565b90506000613e72670ddd4b8c6c7d70d88361516b565b9050611840670de0b6b3a7640000610c0883600c54612aec90919063ffffffff16565b600080600860009054906101000a90046001600160a01b03166001600160a01b03166318160ddd6040518163ffffffff1660e01b8152600401602060405180830381865afa158015613eeb573d6000803e3d6000fd5b505050506040513d601f19601f82011682018060405250810190613f0f9190615c75565b905080600003613f4057613f2d6103e8670de0b6b3a7640000615d15565b613f38906005615d29565b915050610c64565b6110ab6136c1613f5c83610c0887670de0b6b3a7640000612aec565b612bfd876136b66103e8670de0b6b3a7640000615d15565b6000806000613f8284611cac565b90506000613f8f85610b5c565b6001600160a01b03861660009081526010602052604081206001015491925090613fb99084613d3c565b6001600160a01b03871660009081526010602052604081205491925090613fe09084613d3c565b919791965090945050505050565b600081156140145761400d82610c088568056bc75e2d63100000612aec565b9050610c64565b50600019610c64565b600080614028611bd4565b9050600061403461174b565b90506110ab8282866149b6565b6140556103e8670de0b6b3a7640000615d15565b614060906005615d29565b81101580156140775750670de0b6b3a76400008111155b610b595760405162461bcd60e51b815260206004820152603060248201527f4d6178206665652070657263656e74616765206d75737420626520626574776560448201526f656e20302e352520616e64203130302560801b6064820152608401610d0b565b6714d1120d7b1600006140ee8261401d565b1015610b595760405162461bcd60e51b815260206004820152602a60248201527f54726f76654d616e616765723a2043616e6e6f742072656465656d207768656e604482015269102a21a9101e1026a1a960b11b6064820152608401610d0b565b60008111610b595760405162461bcd60e51b815260206004820152602e60248201527f54726f76654d616e616765723a20416d6f756e74206d7573742062652067726560448201526d61746572207468616e207a65726f60901b6064820152608401610d0b565b6040516370a0823160e01b815281906001600160a01b038516906370a08231906141e49086906004016158dc565b602060405180830381865afa158015614201573d6000803e3d6000fd5b505050506040513d601f19601f820116820180604052508101906142259190615c75565b1015612ad45760405162461bcd60e51b815260206004820152605460248201527f54726f76654d616e616765723a2052657175657374656420726564656d70746960448201527f6f6e20616d6f756e74206d757374206265203c3d2075736572277320426173656064820152734665654c4d4120746f6b656e2062616c616e636560601b608482015260a401610d0b565b60006001600160a01b03831615806143385750604051630bb7c8fd60e31b81526001600160a01b03851690635dbe47e8906142f59086906004016158dc565b602060405180830381865afa158015614312573d6000803e3d6000fd5b505050506040513d601f19601f820116820180604052508101906143369190615e37565b155b8061435357506714d1120d7b16000061435184846126bc565b105b1561436057506000612ae5565b60405163765e015960e01b81526000906001600160a01b0386169063765e01599061438f9087906004016158dc565b602060405180830381865afa1580156143ac573d6000803e3d6000fd5b505050506040513d601f19601f820116820180604052508101906143d09190615d7f565b90506001600160a01b0381161580611e3757506714d1120d7b1600006143f682856126bc565b1095945050505050565b614426604051806060016040528060008152602001600081526020016000151581525090565b6001600160a01b0387166000908152601060205260409020546144569087906144519061c350612ad9565b615130565b8082526144639086612aec565b60208083019190915281516001600160a01b03891660009081526010909252604082205461449091612ad9565b6020808401516001600160a01b038b1660009081526010909252604082206001015492935090916144c091612ad9565b905061c350820361452a576144d489614a8e565b6144df896004614889565b6144ed8a8a61c3508461522b565b886001600160a01b0316600080516020615ebf8339815191526000806000600360405161451d9493929190615dc7565b60405180910390a2614650565b60006145368284613fee565b9050848114158061454f5750600161454d8461538a565b105b156145635750506001604083015250614653565b60808b015160405163015f109360e51b81526001600160a01b038c81166004830152602482018490528981166044830152888116606483015290911690632be2126090608401600060405180830381600087803b1580156145c357600080fd5b505af11580156145d7573d6000803e3d6000fd5b5050506001600160a01b038b166000908152601060205260409020848155600101839055506146058a612b9e565b506001600160a01b038a1660008181526010602052604090819020600201549051600080516020615ebf833981519152916146469187918791600390615dc7565b60405180910390a2505b50505b979650505050505050565b600080614669613e51565b90506146e46040518060400160405280600c81526020016b03a37ba30b61031b7b6361d160a51b81525060008054906101000a90046001600160a01b03166001600160a01b031663a2f039836040518163ffffffff1660e01b8152600401602060405180830381865afa1580156135f0573d6000803e3d6000fd5b600080546040805163a2f0398360e01b81529051614766926001600160a01b03169163a2f039839160048083019260209291908290030181865afa158015614730573d6000803e3d6000fd5b505050506040513d601f19601f820116820180604052508101906147549190615c75565b610c0888670de0b6b3a7640000612aec565b905060006147748383613d3c565b90506147ad604051806040016040528060158152602001743932b232b2b6b2b2103636b090333930b1ba34b7b760591b815250836136cf565b6147bf81670de0b6b3a7640000615130565b9050600081116147d1576147d1615d56565b600c8190556040518181527fbcd47f9685f1ffa254d0ac495b2e47d57feda8840e9d1f2a54d9d499650502a89060200160405180910390a1610c0e615398565b6000610c6461271983611156565b600061483783610c0886670de0b6b3a7640000612aec565b90508181111561318b5760405162461bcd60e51b815260206004820152601d60248201527f4665652065786365656465642070726f7669646564206d6178696d756d0000006044820152606401610d0b565b600081600481111561489d5761489d615a74565b141580156148bd575060018160048111156148ba576148ba615a74565b14155b6148c9576148c9615d56565b6017546148d5816153ef565b6001600160a01b0383166000908152601060205260409020600301805483919060ff1916600183600481111561490d5761490d615a74565b02179055506001600160a01b038316600090815260106020908152604080832060018082018590559084905560169092528220828155015561494f83826154c9565b600b54604051631484968760e11b81526001600160a01b03909116906329092d0e9061497f9086906004016158dc565b600060405180830381600087803b15801561499957600080fd5b505af11580156149ad573d6000803e3d6000fd5b50505050505050565b600082156149fc5760006149d883610c08868189670de0b6b3a7640000612aec565b90506149e385615699565b6149ec84615699565b6149f581615699565b9050612ae5565b50600019612ae5565b600080614a1e670de0b6b3a7640000610c088686612aec565b9050828110612ae55760405162461bcd60e51b815260206004820152603660248201527f54726f76654d616e616765723a2046656520776f756c642065617420757020616044820152751b1b081c995d1d5c9b99590818dbdb1b185d195c985b60521b6064820152608401610d0b565b6001600160a01b038116600090815260106020526040902060020154601154614ab79082612ad9565b601155506001600160a01b0316600090815260106020526040812060020155565b604051633b4009ff60e11b8152600481018390526001600160a01b0384169063768013fe90602401600060405180830381600087803b158015614b1a57600080fd5b505af1158015614b2e573d6000803e3d6000fd5b505060405163262b890160e01b8152600481018590526001600160a01b038716925063262b89019150602401600060405180830381600087803b158015614b7457600080fd5b505af1158015614b88573d6000803e3d6000fd5b50506040516331534de160e01b8152600481018490526001600160a01b03861692506331534de19150602401613380565b600080601354600003614bcd575081610c64565b600060125411614bdf57614bdf615d56565b612ae5601354610c0860125486612aec90919063ffffffff16565b614c02615848565b614c2660405180606001604052806000815260200160008152602001600081525090565b601754600110614c365750614653565b614c3f87611e59565b60408501526020848101919091528401819052908352614c5e906156de565b6040830181905261c35060608401526020830151614c7b91612ad9565b8152670de0b6b3a76400008611614d4657614ca0898983602001518460400151614ad8565b614ca987614a8e565b60006080830181905260a0830152815160c0830152805160e0830152614cd0876003614889565b815160208301516040516001600160a01b038a1692600080516020615e9f83398151915292614d0192600290615e59565b60405180910390a2866001600160a01b0316600080516020615ebf83398151915260008060006002604051614d399493929190615dc7565b60405180910390a2614ee1565b670de0b6b3a764000086118015614d6457506714d1120d7b16000086105b15614db457614d7d898983602001518460400151614ad8565b614d8687614a8e565b81518151614d959190876156eb565b60e086015260c085015260a08401526080830152614cd0876003614889565b6714d1120d7b1600008610158015614dcb57508386105b8015614dd8575081518510155b15614ed057614df1898983602001518460400151614ad8565b84600003614e0157614e01615d56565b614e0a87614a8e565b614e1d8260000151836020015185615745565b9150614e2a876003614889565b61010082015115614e9f57600754610100830151604051633f10abab60e01b81526001600160a01b0390921691633f10abab91614e6c918b9190600401615cd0565b600060405180830381600087803b158015614e8657600080fd5b505af1158015614e9a573d6000803e3d6000fd5b505050505b815160a08301516040516001600160a01b038a1692600080516020615e9f83398151915292614d0192600290615e59565b614ed8615848565b91506146539050565b50979650505050505050565b614ef5615848565b60408083015190840151614f0891613d3c565b604082015260608083015190840151614f2091613d3c565b606082015281516020840151614f3591613d3c565b6020808301919091528201518351614f4c91613d3c565b815260808083015190840151614f6191613d3c565b608082015260a08083015190840151614f7991613d3c565b60a082015260c08083015190840151614f9191613d3c565b60c082015260e08083015190840151614fa991613d3c565b60e08201526101008083015190840151614fc291613d3c565b61010082015292915050565b600080614fdc8585856149b6565b6714d1120d7b1600001195945050505050565b614ff7615848565b61501b60405180606001604052806000815260200160008152602001600081525090565b61502484611e59565b6040850190815260208581019283528601929092529184529051905161504e918891889190614ad8565b61505784614a8e565b61506482602001516156de565b6040830181905261c350606084015260208301516000916150859190612ad9565b9050615096836000015182866156eb565b60e087015260c086015260a085015260808401526150b5856003614889565b825160208401516040516001600160a01b03881692600080516020615e9f833981519152926150e692600190615e59565b60405180910390a2846001600160a01b0316600080516020615ebf8339815191526000806000600160405161511e9493929190615dc7565b60405180910390a25050949350505050565b600081831061513f5781612ae5565b5090919050565b610b59816157c6565b60006116c5603c610c08600f5442612ad990919063ffffffff16565b6000631f54050082111561518157631f54050091505b816000036151985750670de0b6b3a7640000610c64565b670de0b6b3a764000083835b6001811115615205576151b8600282615e74565b6000036151dd576151c982836157e7565b91506151d6816002612af8565b90506151a4565b6151e782846157e7565b92506151f382836157e7565b91506151d66002610c08836001612ad9565b610c0e82846157e7565b60006116c5603c610c08600e5442612ad990919063ffffffff16565b6040808501516006549151632770a7eb60e21b81526001600160a01b0391821692639dc29fac92615263929116908690600401615cd0565b600060405180830381600087803b15801561527d57600080fd5b505af1158015615291573d6000803e3d6000fd5b50508551604051633b4009ff60e11b8152600481018690526001600160a01b03909116925063768013fe9150602401600060405180830381600087803b1580156152da57600080fd5b505af11580156152ee573d6000803e3d6000fd5b505050508360a001516001600160a01b0316633f10abab84836040518363ffffffff1660e01b8152600401615324929190615cd0565b600060405180830381600087803b15801561533e57600080fd5b505af1158015615352573d6000803e3d6000fd5b5050855160a087015160405163a51ba3b760e01b81526001600160a01b03909216935063a51ba3b79250613380918590600401615cd0565b6000610c648261c350612ad9565b60006153af600e5442612ad990919063ffffffff16565b9050603c8110610b595742600e8190556040519081527fbab964312bdd13595266f3e549bca3102965a6d718c6c1f8cd7eaac076b9c6c290602001611dfb565b60018111801561546a5750600b546040805163de8fa43160e01b815290516001926001600160a01b03169163de8fa4319160048083019260209291908290030181865afa158015615444573d6000803e3d6000fd5b505050506040513d601f19601f820116820180604052508101906154689190615c75565b115b610b595760405162461bcd60e51b815260206004820152602a60248201527f54726f76654d616e616765723a204f6e6c79206f6e652074726f766520696e206044820152697468652073797374656d60b01b6064820152608401610d0b565b6001600160a01b03821660009081526010602052604081206003015460ff16908160048111156154fb576154fb615a74565b1415801561551b5750600181600481111561551857615518615a74565b14155b61552757615527615d56565b6001600160a01b03831660009081526010602052604081206003015461010090046001600160801b031690839061555f826001612ad9565b905080836001600160801b0316111561557a5761557a615d56565b60006017828154811061558f5761558f615d40565b600091825260209091200154601780546001600160a01b03909216925082916001600160801b0387169081106155c7576155c7615d40565b600091825260208083209190910180546001600160a01b0319166001600160a01b03948516179055918316808252601083526040918290206003018054610100600160881b0319166101006001600160801b038a16908102919091179091558251918252928101929092527f02b04ae5f7be9ca7c103293a2aa15f3c339d15d6eda53b721fef7b0e609c831a910160405180910390a1601780548061566e5761566e615e88565b600082815260209020810160001990810180546001600160a01b031916905501905550505050505050565b610b59816040516024016156af91815260200190565b60408051601f198184030181529190526020810180516001600160e01b031663f82c50f160e01b179052615146565b6000610c6460c883615d15565b6000808080841561572f576157008786615130565b935061571087610c088887612aec565b925061571c8785612ad9565b91506157288684612ad9565b905061573c565b5060009250829150859050845b93509350935093565b61574d615848565b83815260208101839052600061576f83610c08876714d1120d7b160000612aec565b905061577a816156de565b6040830181905261c35060608401526080830186905261579b908290612ad9565b60a08301526157aa8482612ad9565b61010083015250600060c0820181905260e08201529392505050565b60006a636f6e736f6c652e6c6f679050600080835160208501845afa505050565b6000806157f48484612aec565b90506110ab670de0b6b3a7640000610c08615810600283615d15565b8490613d3c565b6040518060a00160405280600081526020016000815260200160001515815260200160008152602001600081525090565b6040518061012001604052806000815260200160008152602001600081526020016000815260200160008152602001600081526020016000815260200160008152602001600081525090565b6040518060e0016040528060008152602001600081526020016000815260200160006001600160a01b0316815260200160001515815260200160008152602001600081525090565b6001600160a01b0391909116815260200190565b6001600160a01b0381168114610b5957600080fd5b8035615910816158f0565b919050565b60006020828403121561592757600080fd5b8135612ae5816158f0565b6000806040838503121561594557600080fd5b8235615950816158f0565b946020939093013593505050565b634e487b7160e01b600052604160045260246000fd5b6000602080838503121561598757600080fd5b823567ffffffffffffffff8082111561599f57600080fd5b818501915085601f8301126159b357600080fd5b8135818111156159c5576159c561595e565b8060051b604051601f19603f830116810181811085821117156159ea576159ea61595e565b604052918252848201925083810185019188831115615a0857600080fd5b938501935b82851015615a2d57615a1e85615905565b84529385019392850192615a0d565b98975050505050505050565b60008060408385031215615a4c57600080fd5b50508035926020909101359150565b600060208284031215615a6d57600080fd5b5035919050565b634e487b7160e01b600052602160045260246000fd5b858152602081018590526040810184905260a0810160058410615aaf57615aaf615a74565b60608201939093526001600160801b03919091166080909101529392505050565b60008060008060008060008060008060006101608c8e031215615af257600080fd5b8b35615afd816158f0565b9a5060208c0135615b0d816158f0565b995060408c0135615b1d816158f0565b985060608c0135615b2d816158f0565b975060808c0135615b3d816158f0565b965060a08c0135615b4d816158f0565b955060c08c0135615b5d816158f0565b945060e08c0135615b6d816158f0565b93506101008c0135615b7e816158f0565b9250615b8d6101208d01615905565b9150615b9c6101408d01615905565b90509295989b509295989b9093969950565b6000815180845260005b81811015615bd457602081850181015186830182015201615bb8565b506000602082860101526020601f19601f83011685010191505092915050565b602081526000612ae56020830184615bae565b600080600080600080600060e0888a031215615c2257600080fd5b873596506020880135615c34816158f0565b95506040880135615c44816158f0565b94506060880135615c54816158f0565b9699959850939660808101359560a0820135955060c0909101359350915050565b600060208284031215615c8757600080fd5b5051919050565b60208082526022908201527f54726f76654d616e616765723a206e6f7468696e6720746f206c697175696461604082015261746560f01b606082015260800190565b6001600160a01b03929092168252602082015260400190565b634e487b7160e01b600052601260045260246000fd5b634e487b7160e01b600052601160045260246000fd5b600082615d2457615d24615ce9565b500490565b8082028115828204841417610c6457610c64615cff565b634e487b7160e01b600052603260045260246000fd5b634e487b7160e01b600052600160045260246000fd5b81810381811115610c6457610c64615cff565b600060208284031215615d9157600080fd5b8151612ae5816158f0565b600081615dab57615dab615cff565b506000190190565b60048110615dc357615dc3615a74565b9052565b848152602081018490526040810183905260808101611e376060830184615db3565b600060018201615dfb57615dfb615cff565b5060010190565b80820180821115610c6457610c64615cff565b604081526000615e286040830185615bae565b90508260208301529392505050565b600060208284031215615e4957600080fd5b81518015158114612ae557600080fd5b83815260208101839052606081016110ab6040830184615db3565b600082615e8357615e83615ce9565b500690565b634e487b7160e01b600052603160045260246000fdfeea67486ed7ebe3eea8ab3390efd4a3c8aae48be5bea27df104a8af786c408434c3770d654ed33aeea6bf11ac8ef05d02a6a04ed4686dd2f624d853bbec43cc8ba2646970667358221220fe26cede49a54f745f6eb7c034e37c034e5f6c9c78d47f461cde5626873e962764736f6c63430008130033",
  "devdoc": {
    "kind": "dev",
    "methods": {
      "owner()": {
        "details": "Returns the address of the current owner."
      },
      "renounceOwnership()": {
        "details": "Leaves the contract without owner. It will not be possible to call `onlyOwner` functions. Can only be called by the current owner. NOTE: Renouncing ownership will leave the contract without an owner, thereby disabling any functionality that is only available to the owner."
      },
      "transferOwnership(address)": {
        "details": "Transfers ownership of the contract to a new account (`newOwner`). Can only be called by the current owner."
      }
    },
    "version": 1
  },
  "userdoc": {
    "kind": "user",
    "methods": {
      "getCurrentICR(address,uint256)": {
        "notice": "Hedgehog changes: Get Price directly from the price feed instead of param passing"
      }
    },
    "notice": "Fork of Liquity's TroveManager. Logic remains unchanged. Changes to the contract: - Raised pragma version - Removed an import of ActivePool Interface Even though SafeMath is no longer required, the decision was made to keep it to avoid human factor errors",
    "version": 1
  },
  "storageLayout": {
    "storage": [
      {
        "astId": 7268,
        "contract": "contracts/TroveManager.sol:TroveManager",
        "label": "activePool",
        "offset": 0,
        "slot": "0",
        "type": "t_contract(IActivePool)7927"
      },
      {
        "astId": 7271,
        "contract": "contracts/TroveManager.sol:TroveManager",
        "label": "defaultPool",
        "offset": 0,
        "slot": "1",
        "type": "t_contract(IDefaultPool)8256"
      },
      {
        "astId": 7275,
        "contract": "contracts/TroveManager.sol:TroveManager",
        "label": "priceFeed",
        "offset": 0,
        "slot": "2",
        "type": "t_contract(IPriceFeed)8498"
      },
      {
        "astId": 7,
        "contract": "contracts/TroveManager.sol:TroveManager",
        "label": "_owner",
        "offset": 0,
        "slot": "3",
        "type": "t_address"
      },
      {
        "astId": 2082,
        "contract": "contracts/TroveManager.sol:TroveManager",
        "label": "borrowerOperationsAddress",
        "offset": 0,
        "slot": "4",
        "type": "t_address"
      },
      {
        "astId": 2085,
        "contract": "contracts/TroveManager.sol:TroveManager",
        "label": "stabilityPool",
        "offset": 0,
        "slot": "5",
        "type": "t_contract(IStabilityPool)8803"
      },
      {
        "astId": 2087,
        "contract": "contracts/TroveManager.sol:TroveManager",
        "label": "gasPoolAddress",
        "offset": 0,
        "slot": "6",
        "type": "t_address"
      },
      {
        "astId": 2090,
        "contract": "contracts/TroveManager.sol:TroveManager",
        "label": "collSurplusPool",
        "offset": 0,
        "slot": "7",
        "type": "t_contract(ICollSurplusPool)8233"
      },
      {
        "astId": 2093,
        "contract": "contracts/TroveManager.sol:TroveManager",
        "label": "baseFeeLMAToken",
        "offset": 0,
        "slot": "8",
        "type": "t_contract(IBaseFeeLMAToken)7991"
      },
      {
        "astId": 2096,
        "contract": "contracts/TroveManager.sol:TroveManager",
        "label": "hogToken",
        "offset": 0,
        "slot": "9",
        "type": "t_contract(IHOGToken)8422"
      },
      {
        "astId": 2099,
        "contract": "contracts/TroveManager.sol:TroveManager",
        "label": "hogStaking",
        "offset": 0,
        "slot": "10",
        "type": "t_contract(IHOGStaking)8366"
      },
      {
        "astId": 2102,
        "contract": "contracts/TroveManager.sol:TroveManager",
        "label": "sortedTroves",
        "offset": 0,
        "slot": "11",
        "type": "t_contract(ISortedTroves)8630"
      },
      {
        "astId": 2130,
        "contract": "contracts/TroveManager.sol:TroveManager",
        "label": "redemptionBaseRate",
        "offset": 0,
        "slot": "12",
        "type": "t_uint256"
      },
      {
        "astId": 2132,
        "contract": "contracts/TroveManager.sol:TroveManager",
        "label": "borrowBaseRate",
        "offset": 0,
        "slot": "13",
        "type": "t_uint256"
      },
      {
        "astId": 2134,
        "contract": "contracts/TroveManager.sol:TroveManager",
        "label": "lastRedemptionTime",
        "offset": 0,
        "slot": "14",
        "type": "t_uint256"
      },
      {
        "astId": 2136,
        "contract": "contracts/TroveManager.sol:TroveManager",
        "label": "lastBorrowTime",
        "offset": 0,
        "slot": "15",
        "type": "t_uint256"
      },
      {
        "astId": 2159,
        "contract": "contracts/TroveManager.sol:TroveManager",
        "label": "Troves",
        "offset": 0,
        "slot": "16",
        "type": "t_mapping(t_address,t_struct(Trove)2154_storage)"
      },
      {
        "astId": 2161,
        "contract": "contracts/TroveManager.sol:TroveManager",
        "label": "totalStakes",
        "offset": 0,
        "slot": "17",
        "type": "t_uint256"
      },
      {
        "astId": 2163,
        "contract": "contracts/TroveManager.sol:TroveManager",
        "label": "totalStakesSnapshot",
        "offset": 0,
        "slot": "18",
        "type": "t_uint256"
      },
      {
        "astId": 2165,
        "contract": "contracts/TroveManager.sol:TroveManager",
        "label": "totalCollateralSnapshot",
        "offset": 0,
        "slot": "19",
        "type": "t_uint256"
      },
      {
        "astId": 2167,
        "contract": "contracts/TroveManager.sol:TroveManager",
        "label": "L_StETH",
        "offset": 0,
        "slot": "20",
        "type": "t_uint256"
      },
      {
        "astId": 2169,
        "contract": "contracts/TroveManager.sol:TroveManager",
        "label": "L_BaseFeeLMADebt",
        "offset": 0,
        "slot": "21",
        "type": "t_uint256"
      },
      {
        "astId": 2174,
        "contract": "contracts/TroveManager.sol:TroveManager",
        "label": "rewardSnapshots",
        "offset": 0,
        "slot": "22",
        "type": "t_mapping(t_address,t_struct(RewardSnapshot)2179_storage)"
      },
      {
        "astId": 2182,
        "contract": "contracts/TroveManager.sol:TroveManager",
        "label": "TroveOwners",
        "offset": 0,
        "slot": "23",
        "type": "t_array(t_address)dyn_storage"
      },
      {
        "astId": 2184,
        "contract": "contracts/TroveManager.sol:TroveManager",
        "label": "lastStETHError_Redistribution",
        "offset": 0,
        "slot": "24",
        "type": "t_uint256"
      },
      {
        "astId": 2186,
        "contract": "contracts/TroveManager.sol:TroveManager",
        "label": "lastBaseFeeLMADebtError_Redistribution",
        "offset": 0,
        "slot": "25",
        "type": "t_uint256"
      }
    ],
    "types": {
      "t_address": {
        "encoding": "inplace",
        "label": "address",
        "numberOfBytes": "20"
      },
      "t_array(t_address)dyn_storage": {
        "base": "t_address",
        "encoding": "dynamic_array",
        "label": "address[]",
        "numberOfBytes": "32"
      },
      "t_contract(IActivePool)7927": {
        "encoding": "inplace",
        "label": "contract IActivePool",
        "numberOfBytes": "20"
      },
      "t_contract(IBaseFeeLMAToken)7991": {
        "encoding": "inplace",
        "label": "contract IBaseFeeLMAToken",
        "numberOfBytes": "20"
      },
      "t_contract(ICollSurplusPool)8233": {
        "encoding": "inplace",
        "label": "contract ICollSurplusPool",
        "numberOfBytes": "20"
      },
      "t_contract(IDefaultPool)8256": {
        "encoding": "inplace",
        "label": "contract IDefaultPool",
        "numberOfBytes": "20"
      },
      "t_contract(IHOGStaking)8366": {
        "encoding": "inplace",
        "label": "contract IHOGStaking",
        "numberOfBytes": "20"
      },
      "t_contract(IHOGToken)8422": {
        "encoding": "inplace",
        "label": "contract IHOGToken",
        "numberOfBytes": "20"
      },
      "t_contract(IPriceFeed)8498": {
        "encoding": "inplace",
        "label": "contract IPriceFeed",
        "numberOfBytes": "20"
      },
      "t_contract(ISortedTroves)8630": {
        "encoding": "inplace",
        "label": "contract ISortedTroves",
        "numberOfBytes": "20"
      },
      "t_contract(IStabilityPool)8803": {
        "encoding": "inplace",
        "label": "contract IStabilityPool",
        "numberOfBytes": "20"
      },
      "t_enum(Status)2142": {
        "encoding": "inplace",
        "label": "enum TroveManager.Status",
        "numberOfBytes": "1"
      },
      "t_mapping(t_address,t_struct(RewardSnapshot)2179_storage)": {
        "encoding": "mapping",
        "key": "t_address",
        "label": "mapping(address => struct TroveManager.RewardSnapshot)",
        "numberOfBytes": "32",
        "value": "t_struct(RewardSnapshot)2179_storage"
      },
      "t_mapping(t_address,t_struct(Trove)2154_storage)": {
        "encoding": "mapping",
        "key": "t_address",
        "label": "mapping(address => struct TroveManager.Trove)",
        "numberOfBytes": "32",
        "value": "t_struct(Trove)2154_storage"
      },
      "t_struct(RewardSnapshot)2179_storage": {
        "encoding": "inplace",
        "label": "struct TroveManager.RewardSnapshot",
        "members": [
          {
            "astId": 2176,
            "contract": "contracts/TroveManager.sol:TroveManager",
            "label": "StETH",
            "offset": 0,
            "slot": "0",
            "type": "t_uint256"
          },
          {
            "astId": 2178,
            "contract": "contracts/TroveManager.sol:TroveManager",
            "label": "BaseFeeLMADebt",
            "offset": 0,
            "slot": "1",
            "type": "t_uint256"
          }
        ],
        "numberOfBytes": "64"
      },
      "t_struct(Trove)2154_storage": {
        "encoding": "inplace",
        "label": "struct TroveManager.Trove",
        "members": [
          {
            "astId": 2144,
            "contract": "contracts/TroveManager.sol:TroveManager",
            "label": "debt",
            "offset": 0,
            "slot": "0",
            "type": "t_uint256"
          },
          {
            "astId": 2146,
            "contract": "contracts/TroveManager.sol:TroveManager",
            "label": "coll",
            "offset": 0,
            "slot": "1",
            "type": "t_uint256"
          },
          {
            "astId": 2148,
            "contract": "contracts/TroveManager.sol:TroveManager",
            "label": "stake",
            "offset": 0,
            "slot": "2",
            "type": "t_uint256"
          },
          {
            "astId": 2151,
            "contract": "contracts/TroveManager.sol:TroveManager",
            "label": "status",
            "offset": 0,
            "slot": "3",
            "type": "t_enum(Status)2142"
          },
          {
            "astId": 2153,
            "contract": "contracts/TroveManager.sol:TroveManager",
            "label": "arrayIndex",
            "offset": 1,
            "slot": "3",
            "type": "t_uint128"
          }
        ],
        "numberOfBytes": "128"
      },
      "t_uint128": {
        "encoding": "inplace",
        "label": "uint128",
        "numberOfBytes": "16"
      },
      "t_uint256": {
        "encoding": "inplace",
        "label": "uint256",
        "numberOfBytes": "32"
      }
    }
  }
}